{
  "_format": "hh-sol-artifact-1",
  "contractName": "EternalStorage",
  "sourceName": "contracts/axelar/EternalStorage.sol",
  "abi": [
    {
      "inputs": [
        {
          "internalType": "bytes32",
          "name": "key",
          "type": "bytes32"
        }
      ],
      "name": "getAddress",
      "outputs": [
        {
          "internalType": "address",
          "name": "",
          "type": "address"
        }
      ],
      "stateMutability": "view",
      "type": "function"
    },
    {
      "inputs": [
        {
          "internalType": "bytes32",
          "name": "key",
          "type": "bytes32"
        }
      ],
      "name": "getBool",
      "outputs": [
        {
          "internalType": "bool",
          "name": "",
          "type": "bool"
        }
      ],
      "stateMutability": "view",
      "type": "function"
    },
    {
      "inputs": [
        {
          "internalType": "bytes32",
          "name": "key",
          "type": "bytes32"
        }
      ],
      "name": "getBytes",
      "outputs": [
        {
          "internalType": "bytes",
          "name": "",
          "type": "bytes"
        }
      ],
      "stateMutability": "view",
      "type": "function"
    },
    {
      "inputs": [
        {
          "internalType": "bytes32",
          "name": "key",
          "type": "bytes32"
        }
      ],
      "name": "getInt",
      "outputs": [
        {
          "internalType": "int256",
          "name": "",
          "type": "int256"
        }
      ],
      "stateMutability": "view",
      "type": "function"
    },
    {
      "inputs": [
        {
          "internalType": "bytes32",
          "name": "key",
          "type": "bytes32"
        }
      ],
      "name": "getString",
      "outputs": [
        {
          "internalType": "string",
          "name": "",
          "type": "string"
        }
      ],
      "stateMutability": "view",
      "type": "function"
    },
    {
      "inputs": [
        {
          "internalType": "bytes32",
          "name": "key",
          "type": "bytes32"
        }
      ],
      "name": "getUint",
      "outputs": [
        {
          "internalType": "uint256",
          "name": "",
          "type": "uint256"
        }
      ],
      "stateMutability": "view",
      "type": "function"
    }
  ],
  "bytecode": "0x608060405234801561001057600080fd5b50610309806100206000396000f3fe608060405234801561001057600080fd5b50600436106100625760003560e01c806321f8a721146100675780637ae1cfca146100ad578063986e791a146100e0578063bd02d0f514610100578063c031a1801461012e578063dc97d96214610141575b600080fd5b610090610075366004610220565b6000908152600260205260409020546001600160a01b031690565b6040516001600160a01b0390911681526020015b60405180910390f35b6100d06100bb366004610220565b60009081526004602052604090205460ff1690565b60405190151581526020016100a4565b6100f36100ee366004610220565b610161565b6040516100a4919061027f565b61012061010e366004610220565b60009081526020819052604090205490565b6040519081526020016100a4565b6100f361013c366004610220565b610203565b61012061014f366004610220565b60009081526005602052604090205490565b600081815260016020526040902080546060919061017e90610299565b80601f01602080910402602001604051908101604052809291908181526020018280546101aa90610299565b80156101f75780601f106101cc576101008083540402835291602001916101f7565b820191906000526020600020905b8154815290600101906020018083116101da57829003601f168201915b50505050509050919050565b600081815260036020526040902080546060919061017e90610299565b60006020828403121561023257600080fd5b5035919050565b6000815180845260005b8181101561025f57602081850181015186830182015201610243565b506000602082860101526020601f19601f83011685010191505092915050565b6020815260006102926020830184610239565b9392505050565b600181811c908216806102ad57607f821691505b6020821081036102cd57634e487b7160e01b600052602260045260246000fd5b5091905056fea2646970667358221220e9ee17544992865d77d32e3d5bf641dcaf8a293929686e2cc7da947d387329df64736f6c63430008180033",
  "linkReferences": {},
  "deployedLinkReferences": {}
}