{
  "_format": "hh-sol-artifact-1",
  "contractName": "DegenBox",
  "sourceName": "contracts/DegenBox.sol",
  "abi": [
    {
      "inputs": [
        {
          "internalType": "contract IERC20",
          "name": "wethToken_",
          "type": "address"
        }
      ],
      "stateMutability": "nonpayable",
      "type": "constructor"
    },
    {
      "inputs": [
        {
          "internalType": "bytes",
          "name": "innerError",
          "type": "bytes"
        }
      ],
      "name": "BatchError",
      "type": "error"
    },
    {
      "inputs": [],
      "name": "ErrOverflow",
      "type": "error"
    },
    {
      "anonymous": false,
      "inputs": [
        {
          "indexed": true,
          "internalType": "address",
          "name": "masterContract",
          "type": "address"
        },
        {
          "indexed": false,
          "internalType": "bytes",
          "name": "data",
          "type": "bytes"
        },
        {
          "indexed": true,
          "internalType": "address",
          "name": "cloneAddress",
          "type": "address"
        }
      ],
      "name": "LogDeploy",
      "type": "event"
    },
    {
      "anonymous": false,
      "inputs": [
        {
          "indexed": true,
          "internalType": "contract IERC20",
          "name": "token",
          "type": "address"
        },
        {
          "indexed": true,
          "internalType": "address",
          "name": "from",
          "type": "address"
        },
        {
          "indexed": true,
          "internalType": "address",
          "name": "to",
          "type": "address"
        },
        {
          "indexed": false,
          "internalType": "uint256",
          "name": "amount",
          "type": "uint256"
        },
        {
          "indexed": false,
          "internalType": "uint256",
          "name": "share",
          "type": "uint256"
        }
      ],
      "name": "LogDeposit",
      "type": "event"
    },
    {
      "anonymous": false,
      "inputs": [
        {
          "indexed": true,
          "internalType": "address",
          "name": "borrower",
          "type": "address"
        },
        {
          "indexed": true,
          "internalType": "contract IERC20",
          "name": "token",
          "type": "address"
        },
        {
          "indexed": false,
          "internalType": "uint256",
          "name": "amount",
          "type": "uint256"
        },
        {
          "indexed": false,
          "internalType": "uint256",
          "name": "feeAmount",
          "type": "uint256"
        },
        {
          "indexed": true,
          "internalType": "address",
          "name": "receiver",
          "type": "address"
        }
      ],
      "name": "LogFlashLoan",
      "type": "event"
    },
    {
      "anonymous": false,
      "inputs": [
        {
          "indexed": true,
          "internalType": "address",
          "name": "protocol",
          "type": "address"
        }
      ],
      "name": "LogRegisterProtocol",
      "type": "event"
    },
    {
      "anonymous": false,
      "inputs": [
        {
          "indexed": true,
          "internalType": "address",
          "name": "masterContract",
          "type": "address"
        },
        {
          "indexed": true,
          "internalType": "address",
          "name": "user",
          "type": "address"
        },
        {
          "indexed": false,
          "internalType": "bool",
          "name": "approved",
          "type": "bool"
        }
      ],
      "name": "LogSetMasterContractApproval",
      "type": "event"
    },
    {
      "anonymous": false,
      "inputs": [
        {
          "indexed": true,
          "internalType": "contract IERC20",
          "name": "token",
          "type": "address"
        },
        {
          "indexed": false,
          "internalType": "uint256",
          "name": "amount",
          "type": "uint256"
        }
      ],
      "name": "LogStrategyDivest",
      "type": "event"
    },
    {
      "anonymous": false,
      "inputs": [
        {
          "indexed": true,
          "internalType": "contract IERC20",
          "name": "token",
          "type": "address"
        },
        {
          "indexed": false,
          "internalType": "uint256",
          "name": "amount",
          "type": "uint256"
        }
      ],
      "name": "LogStrategyInvest",
      "type": "event"
    },
    {
      "anonymous": false,
      "inputs": [
        {
          "indexed": true,
          "internalType": "contract IERC20",
          "name": "token",
          "type": "address"
        },
        {
          "indexed": false,
          "internalType": "uint256",
          "name": "amount",
          "type": "uint256"
        }
      ],
      "name": "LogStrategyLoss",
      "type": "event"
    },
    {
      "anonymous": false,
      "inputs": [
        {
          "indexed": true,
          "internalType": "contract IERC20",
          "name": "token",
          "type": "address"
        },
        {
          "indexed": false,
          "internalType": "uint256",
          "name": "amount",
          "type": "uint256"
        }
      ],
      "name": "LogStrategyProfit",
      "type": "event"
    },
    {
      "anonymous": false,
      "inputs": [
        {
          "indexed": true,
          "internalType": "contract IERC20",
          "name": "token",
          "type": "address"
        },
        {
          "indexed": true,
          "internalType": "contract IStrategy",
          "name": "strategy",
          "type": "address"
        }
      ],
      "name": "LogStrategyQueued",
      "type": "event"
    },
    {
      "anonymous": false,
      "inputs": [
        {
          "indexed": true,
          "internalType": "contract IERC20",
          "name": "token",
          "type": "address"
        },
        {
          "indexed": true,
          "internalType": "contract IStrategy",
          "name": "strategy",
          "type": "address"
        }
      ],
      "name": "LogStrategySet",
      "type": "event"
    },
    {
      "anonymous": false,
      "inputs": [
        {
          "indexed": true,
          "internalType": "contract IERC20",
          "name": "token",
          "type": "address"
        },
        {
          "indexed": false,
          "internalType": "uint256",
          "name": "targetPercentage",
          "type": "uint256"
        }
      ],
      "name": "LogStrategyTargetPercentage",
      "type": "event"
    },
    {
      "anonymous": false,
      "inputs": [
        {
          "indexed": true,
          "internalType": "contract IERC20",
          "name": "token",
          "type": "address"
        },
        {
          "indexed": true,
          "internalType": "address",
          "name": "from",
          "type": "address"
        },
        {
          "indexed": true,
          "internalType": "address",
          "name": "to",
          "type": "address"
        },
        {
          "indexed": false,
          "internalType": "uint256",
          "name": "share",
          "type": "uint256"
        }
      ],
      "name": "LogTransfer",
      "type": "event"
    },
    {
      "anonymous": false,
      "inputs": [
        {
          "indexed": true,
          "internalType": "address",
          "name": "masterContract",
          "type": "address"
        },
        {
          "indexed": false,
          "internalType": "bool",
          "name": "approved",
          "type": "bool"
        }
      ],
      "name": "LogWhiteListMasterContract",
      "type": "event"
    },
    {
      "anonymous": false,
      "inputs": [
        {
          "indexed": true,
          "internalType": "contract IERC20",
          "name": "token",
          "type": "address"
        },
        {
          "indexed": true,
          "internalType": "address",
          "name": "from",
          "type": "address"
        },
        {
          "indexed": true,
          "internalType": "address",
          "name": "to",
          "type": "address"
        },
        {
          "indexed": false,
          "internalType": "uint256",
          "name": "amount",
          "type": "uint256"
        },
        {
          "indexed": false,
          "internalType": "uint256",
          "name": "share",
          "type": "uint256"
        }
      ],
      "name": "LogWithdraw",
      "type": "event"
    },
    {
      "anonymous": false,
      "inputs": [
        {
          "indexed": true,
          "internalType": "address",
          "name": "previousOwner",
          "type": "address"
        },
        {
          "indexed": true,
          "internalType": "address",
          "name": "newOwner",
          "type": "address"
        }
      ],
      "name": "OwnershipTransferred",
      "type": "event"
    },
    {
      "inputs": [],
      "name": "DOMAIN_SEPARATOR",
      "outputs": [
        {
          "internalType": "bytes32",
          "name": "",
          "type": "bytes32"
        }
      ],
      "stateMutability": "view",
      "type": "function"
    },
    {
      "inputs": [
        {
          "internalType": "contract IERC20",
          "name": "",
          "type": "address"
        },
        {
          "internalType": "address",
          "name": "",
          "type": "address"
        }
      ],
      "name": "balanceOf",
      "outputs": [
        {
          "internalType": "uint256",
          "name": "",
          "type": "uint256"
        }
      ],
      "stateMutability": "view",
      "type": "function"
    },
    {
      "inputs": [
        {
          "internalType": "bytes[]",
          "name": "calls",
          "type": "bytes[]"
        },
        {
          "internalType": "bool",
          "name": "revertOnFail",
          "type": "bool"
        }
      ],
      "name": "batch",
      "outputs": [],
      "stateMutability": "payable",
      "type": "function"
    },
    {
      "inputs": [
        {
          "internalType": "contract IBatchFlashBorrower",
          "name": "borrower",
          "type": "address"
        },
        {
          "internalType": "address[]",
          "name": "receivers",
          "type": "address[]"
        },
        {
          "internalType": "contract IERC20[]",
          "name": "tokens",
          "type": "address[]"
        },
        {
          "internalType": "uint256[]",
          "name": "amounts",
          "type": "uint256[]"
        },
        {
          "internalType": "bytes",
          "name": "data",
          "type": "bytes"
        }
      ],
      "name": "batchFlashLoan",
      "outputs": [],
      "stateMutability": "nonpayable",
      "type": "function"
    },
    {
      "inputs": [],
      "name": "claimOwnership",
      "outputs": [],
      "stateMutability": "nonpayable",
      "type": "function"
    },
    {
      "inputs": [
        {
          "internalType": "address",
          "name": "",
          "type": "address"
        },
        {
          "internalType": "uint256",
          "name": "",
          "type": "uint256"
        }
      ],
      "name": "clonesOf",
      "outputs": [
        {
          "internalType": "address",
          "name": "",
          "type": "address"
        }
      ],
      "stateMutability": "view",
      "type": "function"
    },
    {
      "inputs": [
        {
          "internalType": "address",
          "name": "masterContract",
          "type": "address"
        }
      ],
      "name": "clonesOfCount",
      "outputs": [
        {
          "internalType": "uint256",
          "name": "cloneCount",
          "type": "uint256"
        }
      ],
      "stateMutability": "view",
      "type": "function"
    },
    {
      "inputs": [
        {
          "internalType": "address",
          "name": "masterContract",
          "type": "address"
        },
        {
          "internalType": "bytes",
          "name": "data",
          "type": "bytes"
        },
        {
          "internalType": "bool",
          "name": "useCreate2",
          "type": "bool"
        }
      ],
      "name": "deploy",
      "outputs": [
        {
          "internalType": "address",
          "name": "cloneAddress",
          "type": "address"
        }
      ],
      "stateMutability": "payable",
      "type": "function"
    },
    {
      "inputs": [
        {
          "internalType": "contract IERC20",
          "name": "token_",
          "type": "address"
        },
        {
          "internalType": "address",
          "name": "from",
          "type": "address"
        },
        {
          "internalType": "address",
          "name": "to",
          "type": "address"
        },
        {
          "internalType": "uint256",
          "name": "amount",
          "type": "uint256"
        },
        {
          "internalType": "uint256",
          "name": "share",
          "type": "uint256"
        }
      ],
      "name": "deposit",
      "outputs": [
        {
          "internalType": "uint256",
          "name": "amountOut",
          "type": "uint256"
        },
        {
          "internalType": "uint256",
          "name": "shareOut",
          "type": "uint256"
        }
      ],
      "stateMutability": "payable",
      "type": "function"
    },
    {
      "inputs": [
        {
          "internalType": "contract IFlashBorrower",
          "name": "borrower",
          "type": "address"
        },
        {
          "internalType": "address",
          "name": "receiver",
          "type": "address"
        },
        {
          "internalType": "contract IERC20",
          "name": "token",
          "type": "address"
        },
        {
          "internalType": "uint256",
          "name": "amount",
          "type": "uint256"
        },
        {
          "internalType": "bytes",
          "name": "data",
          "type": "bytes"
        }
      ],
      "name": "flashLoan",
      "outputs": [],
      "stateMutability": "nonpayable",
      "type": "function"
    },
    {
      "inputs": [
        {
          "internalType": "contract IERC20",
          "name": "token",
          "type": "address"
        },
        {
          "internalType": "bool",
          "name": "balance",
          "type": "bool"
        },
        {
          "internalType": "uint256",
          "name": "maxChangeAmount",
          "type": "uint256"
        }
      ],
      "name": "harvest",
      "outputs": [],
      "stateMutability": "nonpayable",
      "type": "function"
    },
    {
      "inputs": [
        {
          "internalType": "address",
          "name": "",
          "type": "address"
        },
        {
          "internalType": "address",
          "name": "",
          "type": "address"
        }
      ],
      "name": "masterContractApproved",
      "outputs": [
        {
          "internalType": "bool",
          "name": "",
          "type": "bool"
        }
      ],
      "stateMutability": "view",
      "type": "function"
    },
    {
      "inputs": [
        {
          "internalType": "address",
          "name": "",
          "type": "address"
        }
      ],
      "name": "masterContractOf",
      "outputs": [
        {
          "internalType": "address",
          "name": "",
          "type": "address"
        }
      ],
      "stateMutability": "view",
      "type": "function"
    },
    {
      "inputs": [
        {
          "internalType": "address",
          "name": "",
          "type": "address"
        }
      ],
      "name": "nonces",
      "outputs": [
        {
          "internalType": "uint256",
          "name": "",
          "type": "uint256"
        }
      ],
      "stateMutability": "view",
      "type": "function"
    },
    {
      "inputs": [],
      "name": "owner",
      "outputs": [
        {
          "internalType": "address",
          "name": "",
          "type": "address"
        }
      ],
      "stateMutability": "view",
      "type": "function"
    },
    {
      "inputs": [],
      "name": "pendingOwner",
      "outputs": [
        {
          "internalType": "address",
          "name": "",
          "type": "address"
        }
      ],
      "stateMutability": "view",
      "type": "function"
    },
    {
      "inputs": [
        {
          "internalType": "contract IERC20",
          "name": "",
          "type": "address"
        }
      ],
      "name": "pendingStrategy",
      "outputs": [
        {
          "internalType": "contract IStrategy",
          "name": "",
          "type": "address"
        }
      ],
      "stateMutability": "view",
      "type": "function"
    },
    {
      "inputs": [
        {
          "internalType": "contract IERC20",
          "name": "token",
          "type": "address"
        },
        {
          "internalType": "address",
          "name": "from",
          "type": "address"
        },
        {
          "internalType": "address",
          "name": "to",
          "type": "address"
        },
        {
          "internalType": "uint256",
          "name": "amount",
          "type": "uint256"
        },
        {
          "internalType": "uint256",
          "name": "deadline",
          "type": "uint256"
        },
        {
          "internalType": "uint8",
          "name": "v",
          "type": "uint8"
        },
        {
          "internalType": "bytes32",
          "name": "r",
          "type": "bytes32"
        },
        {
          "internalType": "bytes32",
          "name": "s",
          "type": "bytes32"
        }
      ],
      "name": "permitToken",
      "outputs": [],
      "stateMutability": "nonpayable",
      "type": "function"
    },
    {
      "inputs": [],
      "name": "registerProtocol",
      "outputs": [],
      "stateMutability": "nonpayable",
      "type": "function"
    },
    {
      "inputs": [
        {
          "internalType": "address",
          "name": "user",
          "type": "address"
        },
        {
          "internalType": "address",
          "name": "masterContract",
          "type": "address"
        },
        {
          "internalType": "bool",
          "name": "approved",
          "type": "bool"
        },
        {
          "internalType": "uint8",
          "name": "v",
          "type": "uint8"
        },
        {
          "internalType": "bytes32",
          "name": "r",
          "type": "bytes32"
        },
        {
          "internalType": "bytes32",
          "name": "s",
          "type": "bytes32"
        }
      ],
      "name": "setMasterContractApproval",
      "outputs": [],
      "stateMutability": "nonpayable",
      "type": "function"
    },
    {
      "inputs": [
        {
          "internalType": "contract IERC20",
          "name": "token",
          "type": "address"
        },
        {
          "internalType": "contract IStrategy",
          "name": "newStrategy",
          "type": "address"
        }
      ],
      "name": "setStrategy",
      "outputs": [],
      "stateMutability": "nonpayable",
      "type": "function"
    },
    {
      "inputs": [
        {
          "internalType": "contract IERC20",
          "name": "token",
          "type": "address"
        },
        {
          "internalType": "uint64",
          "name": "targetPercentage_",
          "type": "uint64"
        }
      ],
      "name": "setStrategyTargetPercentage",
      "outputs": [],
      "stateMutability": "nonpayable",
      "type": "function"
    },
    {
      "inputs": [
        {
          "internalType": "contract IERC20",
          "name": "",
          "type": "address"
        }
      ],
      "name": "strategy",
      "outputs": [
        {
          "internalType": "contract IStrategy",
          "name": "",
          "type": "address"
        }
      ],
      "stateMutability": "view",
      "type": "function"
    },
    {
      "inputs": [
        {
          "internalType": "contract IERC20",
          "name": "",
          "type": "address"
        }
      ],
      "name": "strategyData",
      "outputs": [
        {
          "internalType": "uint64",
          "name": "strategyStartDate",
          "type": "uint64"
        },
        {
          "internalType": "uint64",
          "name": "targetPercentage",
          "type": "uint64"
        },
        {
          "internalType": "uint128",
          "name": "balance",
          "type": "uint128"
        }
      ],
      "stateMutability": "view",
      "type": "function"
    },
    {
      "inputs": [
        {
          "internalType": "contract IERC20",
          "name": "token",
          "type": "address"
        },
        {
          "internalType": "uint256",
          "name": "share",
          "type": "uint256"
        },
        {
          "internalType": "bool",
          "name": "roundUp",
          "type": "bool"
        }
      ],
      "name": "toAmount",
      "outputs": [
        {
          "internalType": "uint256",
          "name": "amount",
          "type": "uint256"
        }
      ],
      "stateMutability": "view",
      "type": "function"
    },
    {
      "inputs": [
        {
          "internalType": "contract IERC20",
          "name": "token",
          "type": "address"
        },
        {
          "internalType": "uint256",
          "name": "amount",
          "type": "uint256"
        },
        {
          "internalType": "bool",
          "name": "roundUp",
          "type": "bool"
        }
      ],
      "name": "toShare",
      "outputs": [
        {
          "internalType": "uint256",
          "name": "share",
          "type": "uint256"
        }
      ],
      "stateMutability": "view",
      "type": "function"
    },
    {
      "inputs": [
        {
          "internalType": "contract IERC20",
          "name": "",
          "type": "address"
        }
      ],
      "name": "totals",
      "outputs": [
        {
          "internalType": "uint128",
          "name": "elastic",
          "type": "uint128"
        },
        {
          "internalType": "uint128",
          "name": "base",
          "type": "uint128"
        }
      ],
      "stateMutability": "view",
      "type": "function"
    },
    {
      "inputs": [
        {
          "internalType": "contract IERC20",
          "name": "token",
          "type": "address"
        },
        {
          "internalType": "address",
          "name": "from",
          "type": "address"
        },
        {
          "internalType": "address",
          "name": "to",
          "type": "address"
        },
        {
          "internalType": "uint256",
          "name": "share",
          "type": "uint256"
        }
      ],
      "name": "transfer",
      "outputs": [],
      "stateMutability": "nonpayable",
      "type": "function"
    },
    {
      "inputs": [
        {
          "internalType": "contract IERC20",
          "name": "token",
          "type": "address"
        },
        {
          "internalType": "address",
          "name": "from",
          "type": "address"
        },
        {
          "internalType": "address[]",
          "name": "tos",
          "type": "address[]"
        },
        {
          "internalType": "uint256[]",
          "name": "shares",
          "type": "uint256[]"
        }
      ],
      "name": "transferMultiple",
      "outputs": [],
      "stateMutability": "nonpayable",
      "type": "function"
    },
    {
      "inputs": [
        {
          "internalType": "address",
          "name": "newOwner",
          "type": "address"
        },
        {
          "internalType": "bool",
          "name": "direct",
          "type": "bool"
        },
        {
          "internalType": "bool",
          "name": "renounce",
          "type": "bool"
        }
      ],
      "name": "transferOwnership",
      "outputs": [],
      "stateMutability": "nonpayable",
      "type": "function"
    },
    {
      "inputs": [
        {
          "internalType": "address",
          "name": "masterContract",
          "type": "address"
        },
        {
          "internalType": "bool",
          "name": "approved",
          "type": "bool"
        }
      ],
      "name": "whitelistMasterContract",
      "outputs": [],
      "stateMutability": "nonpayable",
      "type": "function"
    },
    {
      "inputs": [
        {
          "internalType": "address",
          "name": "",
          "type": "address"
        }
      ],
      "name": "whitelistedMasterContracts",
      "outputs": [
        {
          "internalType": "bool",
          "name": "",
          "type": "bool"
        }
      ],
      "stateMutability": "view",
      "type": "function"
    },
    {
      "inputs": [
        {
          "internalType": "contract IERC20",
          "name": "token_",
          "type": "address"
        },
        {
          "internalType": "address",
          "name": "from",
          "type": "address"
        },
        {
          "internalType": "address",
          "name": "to",
          "type": "address"
        },
        {
          "internalType": "uint256",
          "name": "amount",
          "type": "uint256"
        },
        {
          "internalType": "uint256",
          "name": "share",
          "type": "uint256"
        }
      ],
      "name": "withdraw",
      "outputs": [
        {
          "internalType": "uint256",
          "name": "amountOut",
          "type": "uint256"
        },
        {
          "internalType": "uint256",
          "name": "shareOut",
          "type": "uint256"
        }
      ],
      "stateMutability": "nonpayable",
      "type": "function"
    },
    {
      "stateMutability": "payable",
      "type": "receive"
    }
  ],
  "bytecode": "0x60e06040523480156200001157600080fd5b50604051620047bc380380620047bc833981016040819052620000349162000109565b600080546001600160a01b0319163390811782556040519091907f8be0079c531659141344cd1fd0a4f28419497f9722a3daafe3b4186f6b6457e0908290a34660a0818152604080517f8cad95687ba82c2ce50e74f7b754645e5117c3a5bec8151c0726d5857980a8666020808301919091527fd7df266aff736d415a9dc14b4158201d612e70d75b9c7f4e375ccfd20aa5166f82840152606082018590523060808084019190915283518084039091018152919093019091528051910120608052506001600160a01b031660c0526200013b565b6000602082840312156200011c57600080fd5b81516001600160a01b03811681146200013457600080fd5b9392505050565b60805160a05160c05161463c62000180600039600081816108ff01528181610bf9015281816123f101526125e3015260006113c80152600061146f015261463c6000f3fe6080604052600436106101f25760003560e01c80637ecebe001161010d578063d2423b51116100a0578063f1676d371161006f578063f1676d37146106a6578063f18d03cc146106c6578063f483b3da146106e6578063f7888aec14610706578063fba96be81461073e57600080fd5b8063d2423b51146105d0578063da5139ca146105e3578063df23b45b14610603578063e30c39781461068657600080fd5b806397da6d30116100dc57806397da6d3014610545578063aee4d1b214610565578063bafe4f141461057a578063c0a47c93146105b057600080fd5b80637ecebe001461049d5780638da5cb5b146104ca5780638fd43654146104ea57806391e0eab51461050a57600080fd5b80634e71e0c81161018557806366c6bb0b1161015457806366c6bb0b1461041d57806372cb5d971461043d578063733a9d7c1461045d5780637c516e941461047d57600080fd5b80634e71e0c8146103515780634ffe34db146103665780635108a558146103c757806356623118146103fd57600080fd5b80631f54245b116101c15780631f54245b146102ad578063228bfd9f146102d85780633644e5151461030e5780633e2a9d4e1461033157600080fd5b806302b9446c146101fe578063078dfbe71461022b5780630fca88431461024d57806312a90c8a1461026d57600080fd5b366101f957005b600080fd5b61021161020c366004613a0f565b610774565b604080519283526020830191909152015b60405180910390f35b34801561023757600080fd5b5061024b610246366004613a78565b610d09565b005b34801561025957600080fd5b5061024b610268366004613b0e565b610e18565b34801561027957600080fd5b5061029d610288366004613ba2565b60056020526000908152604090205460ff1681565b6040519015158152602001610222565b6102c06102bb366004613c00565b6111b3565b6040516001600160a01b039091168152602001610222565b3480156102e457600080fd5b506102c06102f3366004613ba2565b6009602052600090815260409020546001600160a01b031681565b34801561031a57600080fd5b506103236113c3565b604051908152602001610222565b34801561033d57600080fd5b5061024b61034c366004613c67565b611495565b34801561035d57600080fd5b5061024b611598565b34801561037257600080fd5b506103a7610381366004613ba2565b6008602052600090815260409020546001600160801b0380821691600160801b90041682565b604080516001600160801b03938416815292909116602083015201610222565b3480156103d357600080fd5b506102c06103e2366004613ba2565b600a602052600090815260409020546001600160a01b031681565b34801561040957600080fd5b50610323610418366004613cac565b611655565b34801561042957600080fd5b5061024b610438366004613ce3565b6116a9565b34801561044957600080fd5b5061024b610458366004613d24565b611c39565b34801561046957600080fd5b5061024b610478366004613d52565b6120cd565b34801561048957600080fd5b5061024b610498366004613d96565b6121a5565b3480156104a957600080fd5b506103236104b8366004613ba2565b60066020526000908152604090205481565b3480156104d657600080fd5b506000546102c0906001600160a01b031681565b3480156104f657600080fd5b506102c0610505366004613e17565b612237565b34801561051657600080fd5b5061029d610525366004613d24565b600460209081526000928352604080842090915290825290205460ff1681565b34801561055157600080fd5b50610211610560366004613a0f565b61226f565b34801561057157600080fd5b5061024b61275c565b34801561058657600080fd5b506102c0610595366004613ba2565b6002602052600090815260409020546001600160a01b031681565b3480156105bc57600080fd5b5061024b6105cb366004613e43565b6127a3565b61024b6105de366004613eaf565b612c37565b3480156105ef57600080fd5b506103236105fe366004613cac565b612ce6565b34801561060f57600080fd5b5061065761061e366004613ba2565b600b602052600090815260409020546001600160401b0380821691600160401b810490911690600160801b90046001600160801b031683565b604080516001600160401b0394851681529390921660208401526001600160801b031690820152606001610222565b34801561069257600080fd5b506001546102c0906001600160a01b031681565b3480156106b257600080fd5b5061024b6106c1366004613efa565b612d32565b3480156106d257600080fd5b5061024b6106e1366004613f6c565b612eb7565b3480156106f257600080fd5b5061024b610701366004613fbd565b6130f8565b34801561071257600080fd5b50610323610721366004613d24565b600760209081526000928352604080842090915290825290205481565b34801561074a57600080fd5b50610323610759366004613ba2565b6001600160a01b031660009081526003602052604090205490565b600080856001600160a01b038116331480159061079a57506001600160a01b0381163014155b156108c0576107c96040518060400160405280600881526020016766726f6d3a20257360c01b81525082613429565b6107f96040518060400160405280600e81526020016d6d73672e73656e6465723a20257360901b81525033613429565b3360009081526002602090815260409182902054825180840190935260128352714d6173746572436f6e74726163743a20257360701b918301919091526001600160a01b03169061084a9082613429565b6001600160a01b0381166108795760405162461bcd60e51b815260040161087090614095565b60405180910390fd5b6001600160a01b0380821660009081526004602090815260408083209386168352929052205460ff166108be5760405162461bcd60e51b8152600401610870906140cc565b505b6001600160a01b0386166108e65760405162461bcd60e51b815260040161087090614103565b60006001600160a01b038916156108fd578861091f565b7f00000000000000000000000000000000000000000000000000000000000000005b90506001600160a01b0381166000908152600860209081526040918290208251808401909352546001600160801b03808216808552600160801b90920416918301919091521515806109d257506000826001600160a01b03166318160ddd6040518163ffffffff1660e01b8152600401602060405180830381865afa1580156109ac573d6000803e3d6000fd5b505050506040513d601f19601f820116820180604052508101906109d09190614131565b115b610a145760405162461bcd60e51b815260206004820152601360248201527242656e746f426f783a204e6f20746f6b656e7360681b6044820152606401610870565b85600003610a6f57610a2881886000613479565b95506103e8610a4d610a3988613514565b60208401516001600160801b031690613542565b6001600160801b03161015610a6a57600080945094505050610cfe565b610a7e565b610a7b81876001613557565b96505b6001600160a01b03891630141580610a9d57506001600160a01b038a16155b80610ac557508051610ac1906001600160801b0316610abb846135cf565b90613663565b8711155b610b115760405162461bcd60e51b815260206004820152601760248201527f42656e746f426f783a20536b696d20746f6f206d7563680000000000000000006044820152606401610870565b6001600160a01b038083166000908152600760209081526040808320938c1683529290522054610b41908761366f565b6001600160a01b038084166000908152600760209081526040808320938d1683529290522055610b87610b7387613514565b60208301516001600160801b031690613542565b6001600160801b03166020820152610bb2610ba188613514565b82516001600160801b031690613542565b6001600160801b0390811682526001600160a01b0380841660009081526008602090815260409091208451918501518416600160801b0291909316179091558a16610c70577f00000000000000000000000000000000000000000000000000000000000000006001600160a01b031663d0e30db0886040518263ffffffff1660e01b81526004016000604051808303818588803b158015610c5257600080fd5b505af1158015610c66573d6000803e3d6000fd5b5050505050610c95565b6001600160a01b0389163014610c9557610c956001600160a01b0383168a308a61367b565b876001600160a01b0316896001600160a01b0316836001600160a01b03167fb2346165e782564f17f5b7e555c21f4fd96fbc93458572bf0113ea35a958fc558a8a604051610ced929190918252602082015260400190565b60405180910390a486945085935050505b509550959350505050565b6000546001600160a01b03163314610d335760405162461bcd60e51b81526004016108709061414a565b8115610df6576001600160a01b038316151580610d4d5750805b610d915760405162461bcd60e51b81526020600482015260156024820152744f776e61626c653a207a65726f206164647265737360581b6044820152606401610870565b600080546040516001600160a01b03808716939216917f8be0079c531659141344cd1fd0a4f28419497f9722a3daafe3b4186f6b6457e091a3600080546001600160a01b0385166001600160a01b031991821617909155600180549091169055505050565b600180546001600160a01b0385166001600160a01b0319909116179055505050565b846001600160a01b0381163314801590610e3b57506001600160a01b0381163014155b15610f5857610e6a6040518060400160405280600881526020016766726f6d3a20257360c01b81525082613429565b610e9a6040518060400160405280600e81526020016d6d73672e73656e6465723a20257360901b81525033613429565b3360009081526002602090815260409182902054825180840190935260128352714d6173746572436f6e74726163743a20257360701b918301919091526001600160a01b031690610eeb9082613429565b6001600160a01b038116610f115760405162461bcd60e51b815260040161087090614095565b6001600160a01b0380821660009081526004602090815260408083209386168352929052205460ff16610f565760405162461bcd60e51b8152600401610870906140cc565b505b600085858281610f6a57610f6a61417f565b9050602002016020810190610f7f9190613ba2565b6001600160a01b031603610fd55760405162461bcd60e51b815260206004820152601760248201527f42656e746f426f783a20746f5b305d206e6f74207365740000000000000000006044820152606401610870565b600084815b8181101561114b576000888883818110610ff657610ff661417f565b905060200201602081019061100b9190613ba2565b90506110808787848181106110225761102261417f565b90506020020135600760008e6001600160a01b03166001600160a01b031681526020019081526020016000206000846001600160a01b03166001600160a01b031681526020019081526020016000205461366f90919063ffffffff16565b6001600160a01b03808d166000908152600760209081526040808320938616835292905220556110d18787848181106110bb576110bb61417f565b905060200201358561366f90919063ffffffff16565b9350806001600160a01b03168a6001600160a01b03168c6001600160a01b03167f6eabe333476233fd382224f233210cb808a7bc4c4de64f9d76628bf63c677b1a8a8a878181106111245761112461417f565b9050602002013560405161113a91815260200190565b60405180910390a450600101610fda565b506001600160a01b03808a166000908152600760209081526040808320938c168352929052205461117c9083613663565b6001600160a01b03998a1660009081526007602090815260408083209b909c16825299909952989097209790975550505050505050565b60006001600160a01b03851661120b5760405162461bcd60e51b815260206004820181905260248201527f426f72696e67466163746f72793a204e6f206d6173746572436f6e74726163746044820152606401610870565b606085901b821561127d5760008585604051611228929190614195565b60405180910390209050604051733d602d80600a3d3981f3363d3d373d3d3d363d7360601b81528260148201526e5af43d82803e903d91602b57fd5bf360881b6028820152816037826000f5935050506112c2565b604051733d602d80600a3d3981f3363d3d373d3d3d363d7360601b81528160148201526e5af43d82803e903d91602b57fd5bf360881b60288201526037816000f09250505b6001600160a01b0380831660008181526002602090815260408083208054958c166001600160a01b0319968716811790915583526003825280832080546001810182559084529190922001805490931682179092559051631377d1f560e21b8152634ddf47d490349061133b90899089906004016141ce565b6000604051808303818588803b15801561135457600080fd5b505af1158015611368573d6000803e3d6000fd5b5050505050816001600160a01b0316866001600160a01b03167fd62166f3c2149208e51788b1401cc356bf5da1fc6c7886a32e18570f57d88b3b87876040516113b29291906141ce565b60405180910390a350949350505050565b6000467f0000000000000000000000000000000000000000000000000000000000000000811461146d57604080517f8cad95687ba82c2ce50e74f7b754645e5117c3a5bec8151c0726d5857980a8666020808301919091527fd7df266aff736d415a9dc14b4158201d612e70d75b9c7f4e375ccfd20aa5166f8284015260608201849052306080808401919091528351808403909101815260a0909201909252805191012061148f565b7f00000000000000000000000000000000000000000000000000000000000000005b91505090565b6000546001600160a01b031633146114bf5760405162461bcd60e51b81526004016108709061414a565b605f816001600160401b031611156115195760405162461bcd60e51b815260206004820181905260248201527f53747261746567794d616e616765723a2054617267657420746f6f20686967686044820152606401610870565b6001600160a01b0382166000818152600b602090815260409182902080546fffffffffffffffff00000000000000001916600160401b6001600160401b0387169081029190911790915591519182527f7543af99b5602c06e62da0631b5308489a5ff859150105a623b6eb15e8deae0b91015b60405180910390a25050565b6001546001600160a01b03163381146115f35760405162461bcd60e51b815260206004820181905260248201527f4f776e61626c653a2063616c6c657220213d2070656e64696e67206f776e65726044820152606401610870565b600080546040516001600160a01b03808516939216917f8be0079c531659141344cd1fd0a4f28419497f9722a3daafe3b4186f6b6457e091a3600080546001600160a01b039092166001600160a01b0319928316179055600180549091169055565b6001600160a01b03831660009081526008602090815260408083208151808301909252546001600160801b038082168352600160801b90910416918101919091526116a1908484613557565b949350505050565b6001600160a01b038381166000818152600b60209081526040808320815160608101835290546001600160401b038082168352600160401b82041682850152600160801b90046001600160801b0390811682840190815295855260099093528184205494519151630c7e663b60e11b81529190921660048201523360248201529093929092169182906318fccc76906044016020604051808303816000875af115801561175a573d6000803e3d6000fd5b505050506040513d601f19601f8201168201806040525081019061177e9190614131565b90508015801561178c575084155b1561179957505050505050565b6001600160a01b0386166000908152600860205260408120546001600160801b03169082131561184b57816117ce828261366f565b91506117d982613514565b6001600160a01b03891660008181526008602090815260409182902080546001600160801b0319166001600160801b0395909516949094179093555183815290917f911c9f20a03edabcbcbd18dca1174cce47a91b234ced7a5a3c60ba0d5b56c5d2910160405180910390a25061191c565b600082121561191c57600061185f836141f8565b905061186b8282613663565b915061187682613514565b6001600160a01b038916600090815260086020526040902080546001600160801b0319166001600160801b03929092169190911790556118cc6118b882613514565b60408701516001600160801b03169061379f565b6001600160801b0316604086810191909152518181526001600160a01b038916907f8f1f26eb9b6aa8689dbdd519ead1999d9c8819d4738e403b2003b18197d9cf979060200160405180910390a2505b8515611bc3576000606461194686602001516001600160401b0316846137ab90919063ffffffff16565b6119509190614214565b90508085604001516001600160801b03161015611a8857600061198986604001516001600160801b03168361366390919063ffffffff16565b9050861580159061199957508681115b156119a15750855b6119b56001600160a01b038a1686836137b7565b6119d56119c182613514565b60408801516001600160801b031690613542565b6001600160801b031660408781019190915251636939aaf560e01b8152600481018290526001600160a01b03861690636939aaf590602401600060405180830381600087803b158015611a2757600080fd5b505af1158015611a3b573d6000803e3d6000fd5b50505050886001600160a01b03167fb18e7e4f6eac147a63a3bb6beb2d9039c88698623aff3efc4febbc20b0164ee582604051611a7a91815260200190565b60405180910390a250611bc1565b8085604001516001600160801b03161115611bc1576000611abf611aab83613514565b60408801516001600160801b03169061379f565b6001600160801b031690508615801590611ad857508681115b15611ae05750855b604051632e1a7d4d60e01b8152600481018290526000906001600160a01b03871690632e1a7d4d906024016020604051808303816000875af1158015611b2a573d6000803e3d6000fd5b505050506040513d601f19601f82011682018060405250810190611b4e9190614131565b9050611b70611b5c82613514565b60408901516001600160801b03169061379f565b6001600160801b0316604088810191909152518181526001600160a01b038b16907f39aa22060f8dd4d291720311feedf3b72fef47c06c66ccf5c22b502c62e7550a9060200160405180910390a250505b505b5050506001600160a01b039093166000908152600b6020908152604091829020855181549287015193909601516001600160801b03908116600160801b026001600160401b03948516600160401b026001600160801b031990941694909716939093179190911791909116939093179092555050565b6000546001600160a01b03163314611c635760405162461bcd60e51b81526004016108709061414a565b6001600160a01b038281166000818152600b60209081526040808320815160608101835290546001600160401b038082168352600160401b8204811683860152600160801b9091046001600160801b031682840152948452600a90925290912054815191931691161580611ce95750826001600160a01b0316816001600160a01b031614155b15611d7a576001600160a01b038481166000908152600a6020526040902080546001600160a01b031916918516919091179055611d31611d2c6203f48042614236565b6138cb565b6001600160401b031682526040516001600160a01b0380851691908616907f6f7ccdf3f86039e5a1dcf6028bf7b4773cbf7a234716ba2e5392b12bb0f8558f90600090a361205a565b81516001600160401b031615801590611d9d575081516001600160401b03164210155b611de95760405162461bcd60e51b815260206004820152601a60248201527f53747261746567794d616e616765723a20546f6f206561726c790000000000006044820152606401610870565b6001600160a01b038481166000908152600960205260409020541615611fe3576001600160a01b0380851660009081526009602052604080822054858201519151637f8661a160e01b815292931691637f8661a191611e59916004016001600160801b0391909116815260200190565b6020604051808303816000875af1158015611e78573d6000803e3d6000fd5b505050506040513d601f19601f82011682018060405250810190611e9c9190614131565b90506000811315611f15576001600160a01b03851660009081526008602052604090208190611ecb90826138f5565b50856001600160a01b03167f911c9f20a03edabcbcbd18dca1174cce47a91b234ced7a5a3c60ba0d5b56c5d282604051611f0791815260200190565b60405180910390a250611f94565b6000811215611f94576000611f29826141f8565b6001600160a01b0387166000908152600860205260409020909150611f4e908261394f565b50856001600160a01b03167f8f1f26eb9b6aa8689dbdd519ead1999d9c8819d4738e403b2003b18197d9cf9782604051611f8a91815260200190565b60405180910390a2505b60408084015190516001600160801b0390911681526001600160a01b038616907f39aa22060f8dd4d291720311feedf3b72fef47c06c66ccf5c22b502c62e7550a9060200160405180910390a2505b6001600160a01b03808516600081815260096020908152604080832080548688166001600160a01b031991821617909155838852878201849052848452600a909252808320805490921690915551928616927f03e6352a885adc4cc54767592939c3b1bbd65685658c3beaaba66a888120e2179190a35b506001600160a01b039092166000908152600b6020908152604091829020845181549286015193909501516001600160801b03908116600160801b026001600160401b03948516600160401b026001600160801b0319909416949096169390931791909117919091169290921790915550565b6000546001600160a01b031633146120f75760405162461bcd60e51b81526004016108709061414a565b6001600160a01b03821661214d5760405162461bcd60e51b815260206004820152601c60248201527f4d6173746572434d67723a2043616e6e6f7420617070726f76652030000000006044820152606401610870565b6001600160a01b038216600081815260056020908152604091829020805460ff191685151590811790915591519182527f31a1e0eac44b54ac6c2a2efa87e92c83405ffcf33fceef02a7bca695130e2600910161158c565b60405163d505accf60e01b81526001600160a01b0388811660048301528781166024830152604482018790526064820186905260ff8516608483015260a4820184905260c4820183905289169063d505accf9060e401600060405180830381600087803b15801561221557600080fd5b505af1158015612229573d6000803e3d6000fd5b505050505050505050505050565b6003602052816000526040600020818154811061225357600080fd5b6000918252602090912001546001600160a01b03169150829050565b600080856001600160a01b038116331480159061229557506001600160a01b0381163014155b156123b2576122c46040518060400160405280600881526020016766726f6d3a20257360c01b81525082613429565b6122f46040518060400160405280600e81526020016d6d73672e73656e6465723a20257360901b81525033613429565b3360009081526002602090815260409182902054825180840190935260128352714d6173746572436f6e74726163743a20257360701b918301919091526001600160a01b0316906123459082613429565b6001600160a01b03811661236b5760405162461bcd60e51b815260040161087090614095565b6001600160a01b0380821660009081526004602090815260408083209386168352929052205460ff166123b05760405162461bcd60e51b8152600401610870906140cc565b505b6001600160a01b0386166123d85760405162461bcd60e51b815260040161087090614103565b60006001600160a01b038916156123ef5788612411565b7f00000000000000000000000000000000000000000000000000000000000000005b6001600160a01b03811660009081526008602090815260408083208151808301909252546001600160801b038082168352600160801b909104169181019190915291925086900361246f5761246881886001613479565b955061247e565b61247b81876000613557565b96505b6001600160a01b038083166000908152600760209081526040808320938d16835292905220546124ae9087613663565b6001600160a01b038084166000908152600760209081526040808320938e16835292905220556124f16124e088613514565b82516001600160801b03169061379f565b6001600160801b0316815261251c61250887613514565b60208301516001600160801b03169061379f565b6001600160801b0316602082018190526103e8111580612547575060208101516001600160801b0316155b61258c5760405162461bcd60e51b815260206004820152601660248201527542656e746f426f783a2063616e6e6f7420656d70747960501b6044820152606401610870565b6001600160a01b0380831660009081526008602090815260409091208351918401516001600160801b03908116600160801b0292169190911790558a166126f057604051632e1a7d4d60e01b8152600481018890527f00000000000000000000000000000000000000000000000000000000000000006001600160a01b031690632e1a7d4d90602401600060405180830381600087803b15801561262f57600080fd5b505af1158015612643573d6000803e3d6000fd5b505050506000886001600160a01b03168860405160006040518083038185875af1925050503d8060008114612694576040519150601f19603f3d011682016040523d82523d6000602084013e612699565b606091505b50509050806126ea5760405162461bcd60e51b815260206004820152601d60248201527f42656e746f426f783a20455448207472616e73666572206661696c65640000006044820152606401610870565b50612704565b6127046001600160a01b03831689896137b7565b876001600160a01b0316896001600160a01b0316836001600160a01b03167fad9ab9ee6953d4d177f4a03b3a3ac3178ffcb9816319f348060194aa76b144868a8a604051610ced929190918252602082015260400190565b3360008181526002602052604080822080546001600160a01b03191684179055517fdfb44ffabf0d3a8f650d3ce43eff98f6d050e7ea1a396d5794f014e7dadabacb9190a2565b6001600160a01b0385166127f95760405162461bcd60e51b815260206004820152601b60248201527f4d6173746572434d67723a206d617374657243206e6f742073657400000000006044820152606401610870565b81158015612805575080155b8015612812575060ff8316155b15612944576001600160a01b038616331461286f5760405162461bcd60e51b815260206004820152601b60248201527f4d6173746572434d67723a2075736572206e6f742073656e64657200000000006044820152606401610870565b6001600160a01b0386811660009081526002602052604090205416156128d75760405162461bcd60e51b815260206004820152601960248201527f4d6173746572434d67723a207573657220697320636c6f6e65000000000000006044820152606401610870565b6001600160a01b03851660009081526005602052604090205460ff1661293f5760405162461bcd60e51b815260206004820152601b60248201527f4d6173746572434d67723a206e6f742077686974656c697374656400000000006044820152606401610870565b612b96565b6001600160a01b03861661299a5760405162461bcd60e51b815260206004820152601c60248201527f4d6173746572434d67723a20557365722063616e6e6f742062652030000000006044820152606401610870565b600060405180604001604052806002815260200161190160f01b8152506129bf6113c3565b7f1962bc9f5484cb7a998701b81090e966ee1fce5771af884cceee7c081b14ade287612a0b577fb426802f1f7dc850a7b6b38805edea2442f3992878a9ab985abfe8091d95d0b1612a2d565b7f422ac5323fe049241dee67716229a1cc1bc7b313b23dfe3ef6d42ab177a3b2845b6001600160a01b038b16600090815260066020526040812080548d928d928d9291612a5783614249565b909155506040805160208101979097528601949094526001600160a01b03928316606086015291166080840152151560a083015260c082015260e00160405160208183030381529060405280519060200120604051602001612abb93929190614286565b60408051601f198184030181528282528051602091820120600080855291840180845281905260ff88169284019290925260608301869052608083018590529092509060019060a0016020604051602081039080840390855afa158015612b26573d6000803e3d6000fd5b505050602060405103519050876001600160a01b0316816001600160a01b031614612b935760405162461bcd60e51b815260206004820152601d60248201527f4d6173746572434d67723a20496e76616c6964205369676e61747572650000006044820152606401610870565b50505b83612ba2576000612ba4565b845b6001600160a01b03878116600081815260026020908152604080832080546001600160a01b0319169686169690961790955592891680825260048452848220838352845290849020805460ff19168915159081179091559351938452909290917f5f6ebb64ba012a851c6f014e6cad458ddf213d1512049b31cd06365c2b059257910160405180910390a3505050505050565b60005b82811015612ce05760008030868685818110612c5857612c5861417f565b9050602002810190612c6a91906142ad565b604051612c78929190614195565b600060405180830381855af49150503d8060008114612cb3576040519150601f19603f3d011682016040523d82523d6000602084013e612cb8565b606091505b509150915081158015612cc85750835b15612cd657612cd681613975565b5050600101612c3a565b50505050565b6001600160a01b03831660009081526008602090815260408083208151808301909252546001600160801b038082168352600160801b90910416918101919091526116a1908484613479565b6000620186a0612d438560326137ab565b612d4d9190614214565b9050612d636001600160a01b03861687866137b7565b6040516323e30c8b60e01b81526001600160a01b038816906323e30c8b90612d999033908990899087908a908a906004016142f3565b600060405180830381600087803b158015612db357600080fd5b505af1158015612dc7573d6000803e3d6000fd5b50505050612dfe612dd782613514565b6001600160a01b0387166000908152600860205260409020906001600160801b03166138f5565b612e07866135cf565b1015612e4e5760405162461bcd60e51b815260206004820152601660248201527510995b9d1bd09bde0e8815dc9bdb99c8185b5bdd5b9d60521b6044820152606401610870565b856001600160a01b0316856001600160a01b0316886001600160a01b03167f3be9b85936d5d30a1655ea116a17ee3d827b2cd428cc026ce5bf2ac46a2232048785604051612ea6929190918252602082015260400190565b60405180910390a450505050505050565b826001600160a01b0381163314801590612eda57506001600160a01b0381163014155b15612ff757612f096040518060400160405280600881526020016766726f6d3a20257360c01b81525082613429565b612f396040518060400160405280600e81526020016d6d73672e73656e6465723a20257360901b81525033613429565b3360009081526002602090815260409182902054825180840190935260128352714d6173746572436f6e74726163743a20257360701b918301919091526001600160a01b031690612f8a9082613429565b6001600160a01b038116612fb05760405162461bcd60e51b815260040161087090614095565b6001600160a01b0380821660009081526004602090815260408083209386168352929052205460ff16612ff55760405162461bcd60e51b8152600401610870906140cc565b505b6001600160a01b03831661301d5760405162461bcd60e51b815260040161087090614103565b6001600160a01b0380861660009081526007602090815260408083209388168352929052205461304d9083613663565b6001600160a01b03868116600090815260076020908152604080832089851684529091528082209390935590851681522054613089908361366f565b6001600160a01b0380871660008181526007602090815260408083208986168085529252918290209490945551918716917f6eabe333476233fd382224f233210cb808a7bc4c4de64f9d76628bf63c677b1a906130e99087815260200190565b60405180910390a45050505050565b6000856001600160401b038111156131125761311261433a565b60405190808252806020026020018201604052801561313b578160200160208202803683370190505b5090508560005b8181101561322a57600087878381811061315e5761315e61417f565b905060200201359050620186a061317f6032836137ab90919063ffffffff16565b6131899190614214565b84838151811061319b5761319b61417f565b6020026020010181815250506132218c8c848181106131bc576131bc61417f565b90506020020160208101906131d19190613ba2565b8989858181106131e3576131e361417f565b905060200201358c8c868181106131fc576131fc61417f565b90506020020160208101906132119190613ba2565b6001600160a01b031691906137b7565b50600101613142565b5060405163d9d1762360e01b81526001600160a01b038c169063d9d17623906132659033908c908c908c908c908a908d908d9060040161438c565b600060405180830381600087803b15801561327f57600080fd5b505af1158015613293573d6000803e3d6000fd5b5050505060005b818110156122295760008989838181106132b6576132b661417f565b90506020020160208101906132cb9190613ba2565b90506133196132f28584815181106132e5576132e561417f565b6020026020010151613514565b6001600160a01b0383166000908152600860205260409020906001600160801b03166138f5565b613322826135cf565b10156133695760405162461bcd60e51b815260206004820152601660248201527510995b9d1bd09bde0e8815dc9bdb99c8185b5bdd5b9d60521b6044820152606401610870565b8b8b8381811061337b5761337b61417f565b90506020020160208101906133909190613ba2565b6001600160a01b0316816001600160a01b03168e6001600160a01b03167f3be9b85936d5d30a1655ea116a17ee3d827b2cd428cc026ce5bf2ac46a2232048b8b878181106133e0576133e061417f565b905060200201358887815181106133f9576133f961417f565b6020026020010151604051613418929190918252602082015260400190565b60405180910390a45060010161329a565b61346e828260405160240161343f929190614473565b60408051601f198184030181529190526020810180516001600160e01b031663319af33360e01b1790526139cd565b5050565b5050505050565b82516000906001600160801b0316810361349457508161350d565b835160208501516001600160801b03918216916134b291168561449d565b6134bc9190614214565b90508180156134fa57508284602001516001600160801b031685600001516001600160801b0316836134ee919061449d565b6134f89190614214565b105b1561350d578061350981614249565b9150505b9392505050565b60006001600160801b0382111561353e57604051633b13fa2560e11b815260040160405180910390fd5b5090565b600061354e82846144b4565b90505b92915050565b600083602001516001600160801b031660000361357557508161350d565b602084015184516001600160801b039182169161359391168561449d565b61359d9190614214565b90508180156134fa57508284600001516001600160801b031685602001516001600160801b0316836134ee919061449d565b6001600160a01b0381166000818152600b60205260408082205490516370a0823160e01b8152306004820152919261355192600160801b9092046001600160801b0316916370a0823190602401602060405180830381865afa158015613639573d6000803e3d6000fd5b505050506040513d601f19601f8201168201806040525081019061365d9190614131565b9061366f565b600061354e82846144db565b600061354e8284614236565b604080516001600160a01b0385811660248301528481166044830152606480830185905283518084039091018152608490920183526020820180516001600160e01b03166323b872dd60e01b17905291516000928392908816916136df91906144ee565b6000604051808303816000865af19150503d806000811461371c576040519150601f19603f3d011682016040523d82523d6000602084013e613721565b606091505b509150915081801561374b57508051158061374b57508080602001905181019061374b919061450a565b6137975760405162461bcd60e51b815260206004820181905260248201527f426f72696e6745524332303a205472616e7366657246726f6d206661696c65646044820152606401610870565b505050505050565b600061354e8284614527565b600061354e828461449d565b604080516001600160a01b038481166024830152604480830185905283518084039091018152606490920183526020820180516001600160e01b031663a9059cbb60e01b179052915160009283929087169161381391906144ee565b6000604051808303816000865af19150503d8060008114613850576040519150601f19603f3d011682016040523d82523d6000602084013e613855565b606091505b509150915081801561387f57508051158061387f57508080602001905181019061387f919061450a565b6134725760405162461bcd60e51b815260206004820152601c60248201527f426f72696e6745524332303a205472616e73666572206661696c6564000000006044820152606401610870565b60006001600160401b0382111561353e57604051633b13fa2560e11b815260040160405180910390fd5b600061390082613514565b8354849060009061391b9084906001600160801b03166144b4565b92506101000a8154816001600160801b0302191690836001600160801b0316021790556001600160801b0316905092915050565b600061395a82613514565b8354849060009061391b9084906001600160801b0316614527565b60448151101561399a578060405163d935448560e01b81526004016108709190614547565b600481019050808060200190518101906139b4919061455a565b60405162461bcd60e51b81526004016108709190614547565b6139d6816139d9565b50565b60006a636f6e736f6c652e6c6f679050600080835160208501845afa505050565b6001600160a01b03811681146139d657600080fd5b600080600080600060a08688031215613a2757600080fd5b8535613a32816139fa565b94506020860135613a42816139fa565b93506040860135613a52816139fa565b94979396509394606081013594506080013592915050565b80151581146139d657600080fd5b600080600060608486031215613a8d57600080fd5b8335613a98816139fa565b92506020840135613aa881613a6a565b91506040840135613ab881613a6a565b809150509250925092565b60008083601f840112613ad557600080fd5b5081356001600160401b03811115613aec57600080fd5b6020830191508360208260051b8501011115613b0757600080fd5b9250929050565b60008060008060008060808789031215613b2757600080fd5b8635613b32816139fa565b95506020870135613b42816139fa565b945060408701356001600160401b0380821115613b5e57600080fd5b613b6a8a838b01613ac3565b90965094506060890135915080821115613b8357600080fd5b50613b9089828a01613ac3565b979a9699509497509295939492505050565b600060208284031215613bb457600080fd5b813561350d816139fa565b60008083601f840112613bd157600080fd5b5081356001600160401b03811115613be857600080fd5b602083019150836020828501011115613b0757600080fd5b60008060008060608587031215613c1657600080fd5b8435613c21816139fa565b935060208501356001600160401b03811115613c3c57600080fd5b613c4887828801613bbf565b9094509250506040850135613c5c81613a6a565b939692955090935050565b60008060408385031215613c7a57600080fd5b8235613c85816139fa565b915060208301356001600160401b0381168114613ca157600080fd5b809150509250929050565b600080600060608486031215613cc157600080fd5b8335613ccc816139fa565b9250602084013591506040840135613ab881613a6a565b600080600060608486031215613cf857600080fd5b8335613d03816139fa565b92506020840135613d1381613a6a565b929592945050506040919091013590565b60008060408385031215613d3757600080fd5b8235613d42816139fa565b91506020830135613ca1816139fa565b60008060408385031215613d6557600080fd5b8235613d70816139fa565b91506020830135613ca181613a6a565b803560ff81168114613d9157600080fd5b919050565b600080600080600080600080610100898b031215613db357600080fd5b8835613dbe816139fa565b97506020890135613dce816139fa565b96506040890135613dde816139fa565b95506060890135945060808901359350613dfa60a08a01613d80565b925060c0890135915060e089013590509295985092959890939650565b60008060408385031215613e2a57600080fd5b8235613e35816139fa565b946020939093013593505050565b60008060008060008060c08789031215613e5c57600080fd5b8635613e67816139fa565b95506020870135613e77816139fa565b94506040870135613e8781613a6a565b9350613e9560608801613d80565b92506080870135915060a087013590509295509295509295565b600080600060408486031215613ec457600080fd5b83356001600160401b03811115613eda57600080fd5b613ee686828701613ac3565b9094509250506020840135613ab881613a6a565b60008060008060008060a08789031215613f1357600080fd5b8635613f1e816139fa565b95506020870135613f2e816139fa565b94506040870135613f3e816139fa565b93506060870135925060808701356001600160401b03811115613f6057600080fd5b613b9089828a01613bbf565b60008060008060808587031215613f8257600080fd5b8435613f8d816139fa565b93506020850135613f9d816139fa565b92506040850135613fad816139fa565b9396929550929360600135925050565b600080600080600080600080600060a08a8c031215613fdb57600080fd5b8935613fe6816139fa565b985060208a01356001600160401b038082111561400257600080fd5b61400e8d838e01613ac3565b909a50985060408c013591508082111561402757600080fd5b6140338d838e01613ac3565b909850965060608c013591508082111561404c57600080fd5b6140588d838e01613ac3565b909650945060808c013591508082111561407157600080fd5b5061407e8c828d01613bbf565b915080935050809150509295985092959850929598565b6020808252601b908201527f42656e746f426f783a206e6f206d6173746572436f6e74726163740000000000604082015260600190565b6020808252601f908201527f42656e746f426f783a205472616e73666572206e6f7420617070726f76656400604082015260600190565b60208082526014908201527310995b9d1bd09bde0e881d1bc81b9bdd081cd95d60621b604082015260600190565b60006020828403121561414357600080fd5b5051919050565b6020808252818101527f4f776e61626c653a2063616c6c6572206973206e6f7420746865206f776e6572604082015260600190565b634e487b7160e01b600052603260045260246000fd5b8183823760009101908152919050565b81835281816020850137506000828201602090810191909152601f909101601f19169091010190565b6020815260006116a16020830184866141a5565b634e487b7160e01b600052601160045260246000fd5b6000600160ff1b820161420d5761420d6141e2565b5060000390565b60008261423157634e487b7160e01b600052601260045260246000fd5b500490565b80820180821115613551576135516141e2565b60006001820161425b5761425b6141e2565b5060010190565b60005b8381101561427d578181015183820152602001614265565b50506000910152565b60008451614298818460208901614262565b91909101928352506020820152604001919050565b6000808335601e198436030181126142c457600080fd5b8301803591506001600160401b038211156142de57600080fd5b602001915036819003821315613b0757600080fd5b6001600160a01b03878116825286166020820152604081018590526060810184905260a06080820181905260009061432e90830184866141a5565b98975050505050505050565b634e487b7160e01b600052604160045260246000fd5b60008151808452602080850194506020840160005b8381101561438157815187529582019590820190600101614365565b509495945050505050565b6001600160a01b03898116825260a060208084018290529083018990526000918a9160c08501845b8c8110156143db5784356143c7816139fa565b8416825293820193908201906001016143b4565b5085810360408701528981526001600160fb1b038a11156143fb57600080fd5b8960051b9350838b83830137909201848103830160608601529161442181840189614350565b9250505082810360808401526144388185876141a5565b9b9a5050505050505050505050565b6000815180845261445f816020860160208601614262565b601f01601f19169290920160200192915050565b6040815260006144866040830185614447565b905060018060a01b03831660208301529392505050565b8082028115828204841417613551576135516141e2565b6001600160801b038181168382160190808211156144d4576144d46141e2565b5092915050565b81810381811115613551576135516141e2565b60008251614500818460208701614262565b9190910192915050565b60006020828403121561451c57600080fd5b815161350d81613a6a565b6001600160801b038281168282160390808211156144d4576144d46141e2565b60208152600061354e6020830184614447565b60006020828403121561456c57600080fd5b81516001600160401b038082111561458357600080fd5b818401915084601f83011261459757600080fd5b8151818111156145a9576145a961433a565b604051601f8201601f19908116603f011681019083821181831017156145d1576145d161433a565b816040528281528760208487010111156145ea57600080fd5b6145fb836020830160208801614262565b97965050505050505056fea2646970667358221220cf536bc26387bf29d9b2e3f546b76fcc190244d2da7879d0f8172aabbdc4ca9964736f6c63430008180033",
  "linkReferences": {},
  "deployedLinkReferences": {}
}