{
  "_format": "hh-sol-artifact-1",
  "contractName": "DegenBox",
  "sourceName": "contracts/DegenBox.sol",
  "abi": [
    {
      "inputs": [
        {
          "internalType": "contract IERC20",
          "name": "wethToken_",
          "type": "address"
        }
      ],
      "stateMutability": "nonpayable",
      "type": "constructor"
    },
    {
      "inputs": [
        {
          "internalType": "bytes",
          "name": "innerError",
          "type": "bytes"
        }
      ],
      "name": "BatchError",
      "type": "error"
    },
    {
      "inputs": [],
      "name": "ErrOverflow",
      "type": "error"
    },
    {
      "anonymous": false,
      "inputs": [
        {
          "indexed": true,
          "internalType": "address",
          "name": "masterContract",
          "type": "address"
        },
        {
          "indexed": false,
          "internalType": "bytes",
          "name": "data",
          "type": "bytes"
        },
        {
          "indexed": true,
          "internalType": "address",
          "name": "cloneAddress",
          "type": "address"
        }
      ],
      "name": "LogDeploy",
      "type": "event"
    },
    {
      "anonymous": false,
      "inputs": [
        {
          "indexed": true,
          "internalType": "contract IERC20",
          "name": "token",
          "type": "address"
        },
        {
          "indexed": true,
          "internalType": "address",
          "name": "from",
          "type": "address"
        },
        {
          "indexed": true,
          "internalType": "address",
          "name": "to",
          "type": "address"
        },
        {
          "indexed": false,
          "internalType": "uint256",
          "name": "amount",
          "type": "uint256"
        },
        {
          "indexed": false,
          "internalType": "uint256",
          "name": "share",
          "type": "uint256"
        }
      ],
      "name": "LogDeposit",
      "type": "event"
    },
    {
      "anonymous": false,
      "inputs": [
        {
          "indexed": true,
          "internalType": "address",
          "name": "borrower",
          "type": "address"
        },
        {
          "indexed": true,
          "internalType": "contract IERC20",
          "name": "token",
          "type": "address"
        },
        {
          "indexed": false,
          "internalType": "uint256",
          "name": "amount",
          "type": "uint256"
        },
        {
          "indexed": false,
          "internalType": "uint256",
          "name": "feeAmount",
          "type": "uint256"
        },
        {
          "indexed": true,
          "internalType": "address",
          "name": "receiver",
          "type": "address"
        }
      ],
      "name": "LogFlashLoan",
      "type": "event"
    },
    {
      "anonymous": false,
      "inputs": [
        {
          "indexed": true,
          "internalType": "address",
          "name": "protocol",
          "type": "address"
        }
      ],
      "name": "LogRegisterProtocol",
      "type": "event"
    },
    {
      "anonymous": false,
      "inputs": [
        {
          "indexed": true,
          "internalType": "address",
          "name": "masterContract",
          "type": "address"
        },
        {
          "indexed": true,
          "internalType": "address",
          "name": "user",
          "type": "address"
        },
        {
          "indexed": false,
          "internalType": "bool",
          "name": "approved",
          "type": "bool"
        }
      ],
      "name": "LogSetMasterContractApproval",
      "type": "event"
    },
    {
      "anonymous": false,
      "inputs": [
        {
          "indexed": true,
          "internalType": "address",
          "name": "market",
          "type": "address"
        },
        {
          "indexed": true,
          "internalType": "address",
          "name": "masterContract",
          "type": "address"
        }
      ],
      "name": "LogSetMasterContractOf",
      "type": "event"
    },
    {
      "anonymous": false,
      "inputs": [
        {
          "indexed": true,
          "internalType": "contract IERC20",
          "name": "token",
          "type": "address"
        },
        {
          "indexed": false,
          "internalType": "uint256",
          "name": "amount",
          "type": "uint256"
        }
      ],
      "name": "LogStrategyDivest",
      "type": "event"
    },
    {
      "anonymous": false,
      "inputs": [
        {
          "indexed": true,
          "internalType": "contract IERC20",
          "name": "token",
          "type": "address"
        },
        {
          "indexed": false,
          "internalType": "uint256",
          "name": "amount",
          "type": "uint256"
        }
      ],
      "name": "LogStrategyInvest",
      "type": "event"
    },
    {
      "anonymous": false,
      "inputs": [
        {
          "indexed": true,
          "internalType": "contract IERC20",
          "name": "token",
          "type": "address"
        },
        {
          "indexed": false,
          "internalType": "uint256",
          "name": "amount",
          "type": "uint256"
        }
      ],
      "name": "LogStrategyLoss",
      "type": "event"
    },
    {
      "anonymous": false,
      "inputs": [
        {
          "indexed": true,
          "internalType": "contract IERC20",
          "name": "token",
          "type": "address"
        },
        {
          "indexed": false,
          "internalType": "uint256",
          "name": "amount",
          "type": "uint256"
        }
      ],
      "name": "LogStrategyProfit",
      "type": "event"
    },
    {
      "anonymous": false,
      "inputs": [
        {
          "indexed": true,
          "internalType": "contract IERC20",
          "name": "token",
          "type": "address"
        },
        {
          "indexed": true,
          "internalType": "contract IStrategy",
          "name": "strategy",
          "type": "address"
        }
      ],
      "name": "LogStrategyQueued",
      "type": "event"
    },
    {
      "anonymous": false,
      "inputs": [
        {
          "indexed": true,
          "internalType": "contract IERC20",
          "name": "token",
          "type": "address"
        },
        {
          "indexed": true,
          "internalType": "contract IStrategy",
          "name": "strategy",
          "type": "address"
        }
      ],
      "name": "LogStrategySet",
      "type": "event"
    },
    {
      "anonymous": false,
      "inputs": [
        {
          "indexed": true,
          "internalType": "contract IERC20",
          "name": "token",
          "type": "address"
        },
        {
          "indexed": false,
          "internalType": "uint256",
          "name": "targetPercentage",
          "type": "uint256"
        }
      ],
      "name": "LogStrategyTargetPercentage",
      "type": "event"
    },
    {
      "anonymous": false,
      "inputs": [
        {
          "indexed": true,
          "internalType": "contract IERC20",
          "name": "token",
          "type": "address"
        },
        {
          "indexed": true,
          "internalType": "address",
          "name": "from",
          "type": "address"
        },
        {
          "indexed": true,
          "internalType": "address",
          "name": "to",
          "type": "address"
        },
        {
          "indexed": false,
          "internalType": "uint256",
          "name": "share",
          "type": "uint256"
        }
      ],
      "name": "LogTransfer",
      "type": "event"
    },
    {
      "anonymous": false,
      "inputs": [
        {
          "indexed": true,
          "internalType": "address",
          "name": "masterContract",
          "type": "address"
        },
        {
          "indexed": false,
          "internalType": "bool",
          "name": "approved",
          "type": "bool"
        }
      ],
      "name": "LogWhiteListMasterContract",
      "type": "event"
    },
    {
      "anonymous": false,
      "inputs": [
        {
          "indexed": true,
          "internalType": "contract IERC20",
          "name": "token",
          "type": "address"
        },
        {
          "indexed": true,
          "internalType": "address",
          "name": "from",
          "type": "address"
        },
        {
          "indexed": true,
          "internalType": "address",
          "name": "to",
          "type": "address"
        },
        {
          "indexed": false,
          "internalType": "uint256",
          "name": "amount",
          "type": "uint256"
        },
        {
          "indexed": false,
          "internalType": "uint256",
          "name": "share",
          "type": "uint256"
        }
      ],
      "name": "LogWithdraw",
      "type": "event"
    },
    {
      "anonymous": false,
      "inputs": [
        {
          "indexed": true,
          "internalType": "address",
          "name": "previousOwner",
          "type": "address"
        },
        {
          "indexed": true,
          "internalType": "address",
          "name": "newOwner",
          "type": "address"
        }
      ],
      "name": "OwnershipTransferred",
      "type": "event"
    },
    {
      "inputs": [],
      "name": "DOMAIN_SEPARATOR",
      "outputs": [
        {
          "internalType": "bytes32",
          "name": "",
          "type": "bytes32"
        }
      ],
      "stateMutability": "view",
      "type": "function"
    },
    {
      "inputs": [
        {
          "internalType": "contract IERC20",
          "name": "",
          "type": "address"
        },
        {
          "internalType": "address",
          "name": "",
          "type": "address"
        }
      ],
      "name": "balanceOf",
      "outputs": [
        {
          "internalType": "uint256",
          "name": "",
          "type": "uint256"
        }
      ],
      "stateMutability": "view",
      "type": "function"
    },
    {
      "inputs": [
        {
          "internalType": "bytes[]",
          "name": "calls",
          "type": "bytes[]"
        },
        {
          "internalType": "bool",
          "name": "revertOnFail",
          "type": "bool"
        }
      ],
      "name": "batch",
      "outputs": [],
      "stateMutability": "payable",
      "type": "function"
    },
    {
      "inputs": [
        {
          "internalType": "contract IBatchFlashBorrower",
          "name": "borrower",
          "type": "address"
        },
        {
          "internalType": "address[]",
          "name": "receivers",
          "type": "address[]"
        },
        {
          "internalType": "contract IERC20[]",
          "name": "tokens",
          "type": "address[]"
        },
        {
          "internalType": "uint256[]",
          "name": "amounts",
          "type": "uint256[]"
        },
        {
          "internalType": "bytes",
          "name": "data",
          "type": "bytes"
        }
      ],
      "name": "batchFlashLoan",
      "outputs": [],
      "stateMutability": "nonpayable",
      "type": "function"
    },
    {
      "inputs": [],
      "name": "claimOwnership",
      "outputs": [],
      "stateMutability": "nonpayable",
      "type": "function"
    },
    {
      "inputs": [
        {
          "internalType": "address",
          "name": "",
          "type": "address"
        },
        {
          "internalType": "uint256",
          "name": "",
          "type": "uint256"
        }
      ],
      "name": "clonesOf",
      "outputs": [
        {
          "internalType": "address",
          "name": "",
          "type": "address"
        }
      ],
      "stateMutability": "view",
      "type": "function"
    },
    {
      "inputs": [
        {
          "internalType": "address",
          "name": "masterContract",
          "type": "address"
        }
      ],
      "name": "clonesOfCount",
      "outputs": [
        {
          "internalType": "uint256",
          "name": "cloneCount",
          "type": "uint256"
        }
      ],
      "stateMutability": "view",
      "type": "function"
    },
    {
      "inputs": [
        {
          "internalType": "address",
          "name": "masterContract",
          "type": "address"
        },
        {
          "internalType": "bytes",
          "name": "data",
          "type": "bytes"
        },
        {
          "internalType": "bool",
          "name": "useCreate2",
          "type": "bool"
        }
      ],
      "name": "deploy",
      "outputs": [
        {
          "internalType": "address",
          "name": "cloneAddress",
          "type": "address"
        }
      ],
      "stateMutability": "payable",
      "type": "function"
    },
    {
      "inputs": [
        {
          "internalType": "contract IERC20",
          "name": "token_",
          "type": "address"
        },
        {
          "internalType": "address",
          "name": "from",
          "type": "address"
        },
        {
          "internalType": "address",
          "name": "to",
          "type": "address"
        },
        {
          "internalType": "uint256",
          "name": "amount",
          "type": "uint256"
        },
        {
          "internalType": "uint256",
          "name": "share",
          "type": "uint256"
        }
      ],
      "name": "deposit",
      "outputs": [
        {
          "internalType": "uint256",
          "name": "amountOut",
          "type": "uint256"
        },
        {
          "internalType": "uint256",
          "name": "shareOut",
          "type": "uint256"
        }
      ],
      "stateMutability": "payable",
      "type": "function"
    },
    {
      "inputs": [
        {
          "internalType": "contract IFlashBorrower",
          "name": "borrower",
          "type": "address"
        },
        {
          "internalType": "address",
          "name": "receiver",
          "type": "address"
        },
        {
          "internalType": "contract IERC20",
          "name": "token",
          "type": "address"
        },
        {
          "internalType": "uint256",
          "name": "amount",
          "type": "uint256"
        },
        {
          "internalType": "bytes",
          "name": "data",
          "type": "bytes"
        }
      ],
      "name": "flashLoan",
      "outputs": [],
      "stateMutability": "nonpayable",
      "type": "function"
    },
    {
      "inputs": [
        {
          "internalType": "contract IERC20",
          "name": "token",
          "type": "address"
        },
        {
          "internalType": "bool",
          "name": "balance",
          "type": "bool"
        },
        {
          "internalType": "uint256",
          "name": "maxChangeAmount",
          "type": "uint256"
        }
      ],
      "name": "harvest",
      "outputs": [],
      "stateMutability": "nonpayable",
      "type": "function"
    },
    {
      "inputs": [
        {
          "internalType": "address",
          "name": "",
          "type": "address"
        },
        {
          "internalType": "address",
          "name": "",
          "type": "address"
        }
      ],
      "name": "masterContractApproved",
      "outputs": [
        {
          "internalType": "bool",
          "name": "",
          "type": "bool"
        }
      ],
      "stateMutability": "view",
      "type": "function"
    },
    {
      "inputs": [
        {
          "internalType": "address",
          "name": "",
          "type": "address"
        }
      ],
      "name": "masterContractOf",
      "outputs": [
        {
          "internalType": "address",
          "name": "",
          "type": "address"
        }
      ],
      "stateMutability": "view",
      "type": "function"
    },
    {
      "inputs": [
        {
          "internalType": "address",
          "name": "",
          "type": "address"
        }
      ],
      "name": "nonces",
      "outputs": [
        {
          "internalType": "uint256",
          "name": "",
          "type": "uint256"
        }
      ],
      "stateMutability": "view",
      "type": "function"
    },
    {
      "inputs": [],
      "name": "owner",
      "outputs": [
        {
          "internalType": "address",
          "name": "",
          "type": "address"
        }
      ],
      "stateMutability": "view",
      "type": "function"
    },
    {
      "inputs": [],
      "name": "pendingOwner",
      "outputs": [
        {
          "internalType": "address",
          "name": "",
          "type": "address"
        }
      ],
      "stateMutability": "view",
      "type": "function"
    },
    {
      "inputs": [
        {
          "internalType": "contract IERC20",
          "name": "",
          "type": "address"
        }
      ],
      "name": "pendingStrategy",
      "outputs": [
        {
          "internalType": "contract IStrategy",
          "name": "",
          "type": "address"
        }
      ],
      "stateMutability": "view",
      "type": "function"
    },
    {
      "inputs": [
        {
          "internalType": "contract IERC20",
          "name": "token",
          "type": "address"
        },
        {
          "internalType": "address",
          "name": "from",
          "type": "address"
        },
        {
          "internalType": "address",
          "name": "to",
          "type": "address"
        },
        {
          "internalType": "uint256",
          "name": "amount",
          "type": "uint256"
        },
        {
          "internalType": "uint256",
          "name": "deadline",
          "type": "uint256"
        },
        {
          "internalType": "uint8",
          "name": "v",
          "type": "uint8"
        },
        {
          "internalType": "bytes32",
          "name": "r",
          "type": "bytes32"
        },
        {
          "internalType": "bytes32",
          "name": "s",
          "type": "bytes32"
        }
      ],
      "name": "permitToken",
      "outputs": [],
      "stateMutability": "nonpayable",
      "type": "function"
    },
    {
      "inputs": [],
      "name": "registerProtocol",
      "outputs": [],
      "stateMutability": "nonpayable",
      "type": "function"
    },
    {
      "inputs": [
        {
          "internalType": "address",
          "name": "user",
          "type": "address"
        },
        {
          "internalType": "address",
          "name": "masterContract",
          "type": "address"
        },
        {
          "internalType": "bool",
          "name": "approved",
          "type": "bool"
        },
        {
          "internalType": "uint8",
          "name": "v",
          "type": "uint8"
        },
        {
          "internalType": "bytes32",
          "name": "r",
          "type": "bytes32"
        },
        {
          "internalType": "bytes32",
          "name": "s",
          "type": "bytes32"
        }
      ],
      "name": "setMasterContractApproval",
      "outputs": [],
      "stateMutability": "nonpayable",
      "type": "function"
    },
    {
      "inputs": [
        {
          "internalType": "address",
          "name": "market",
          "type": "address"
        },
        {
          "internalType": "address",
          "name": "masterContract",
          "type": "address"
        }
      ],
      "name": "setMasterContractOf",
      "outputs": [],
      "stateMutability": "nonpayable",
      "type": "function"
    },
    {
      "inputs": [
        {
          "internalType": "contract IERC20",
          "name": "token",
          "type": "address"
        },
        {
          "internalType": "contract IStrategy",
          "name": "newStrategy",
          "type": "address"
        }
      ],
      "name": "setStrategy",
      "outputs": [],
      "stateMutability": "nonpayable",
      "type": "function"
    },
    {
      "inputs": [
        {
          "internalType": "contract IERC20",
          "name": "token",
          "type": "address"
        },
        {
          "internalType": "uint64",
          "name": "targetPercentage_",
          "type": "uint64"
        }
      ],
      "name": "setStrategyTargetPercentage",
      "outputs": [],
      "stateMutability": "nonpayable",
      "type": "function"
    },
    {
      "inputs": [
        {
          "internalType": "contract IERC20",
          "name": "",
          "type": "address"
        }
      ],
      "name": "strategy",
      "outputs": [
        {
          "internalType": "contract IStrategy",
          "name": "",
          "type": "address"
        }
      ],
      "stateMutability": "view",
      "type": "function"
    },
    {
      "inputs": [
        {
          "internalType": "contract IERC20",
          "name": "",
          "type": "address"
        }
      ],
      "name": "strategyData",
      "outputs": [
        {
          "internalType": "uint64",
          "name": "strategyStartDate",
          "type": "uint64"
        },
        {
          "internalType": "uint64",
          "name": "targetPercentage",
          "type": "uint64"
        },
        {
          "internalType": "uint128",
          "name": "balance",
          "type": "uint128"
        }
      ],
      "stateMutability": "view",
      "type": "function"
    },
    {
      "inputs": [
        {
          "internalType": "contract IERC20",
          "name": "token",
          "type": "address"
        },
        {
          "internalType": "uint256",
          "name": "share",
          "type": "uint256"
        },
        {
          "internalType": "bool",
          "name": "roundUp",
          "type": "bool"
        }
      ],
      "name": "toAmount",
      "outputs": [
        {
          "internalType": "uint256",
          "name": "amount",
          "type": "uint256"
        }
      ],
      "stateMutability": "view",
      "type": "function"
    },
    {
      "inputs": [
        {
          "internalType": "contract IERC20",
          "name": "token",
          "type": "address"
        },
        {
          "internalType": "uint256",
          "name": "amount",
          "type": "uint256"
        },
        {
          "internalType": "bool",
          "name": "roundUp",
          "type": "bool"
        }
      ],
      "name": "toShare",
      "outputs": [
        {
          "internalType": "uint256",
          "name": "share",
          "type": "uint256"
        }
      ],
      "stateMutability": "view",
      "type": "function"
    },
    {
      "inputs": [
        {
          "internalType": "contract IERC20",
          "name": "",
          "type": "address"
        }
      ],
      "name": "totals",
      "outputs": [
        {
          "internalType": "uint128",
          "name": "elastic",
          "type": "uint128"
        },
        {
          "internalType": "uint128",
          "name": "base",
          "type": "uint128"
        }
      ],
      "stateMutability": "view",
      "type": "function"
    },
    {
      "inputs": [
        {
          "internalType": "contract IERC20",
          "name": "token",
          "type": "address"
        },
        {
          "internalType": "address",
          "name": "from",
          "type": "address"
        },
        {
          "internalType": "address",
          "name": "to",
          "type": "address"
        },
        {
          "internalType": "uint256",
          "name": "share",
          "type": "uint256"
        }
      ],
      "name": "transfer",
      "outputs": [],
      "stateMutability": "nonpayable",
      "type": "function"
    },
    {
      "inputs": [
        {
          "internalType": "contract IERC20",
          "name": "token",
          "type": "address"
        },
        {
          "internalType": "address",
          "name": "from",
          "type": "address"
        },
        {
          "internalType": "address[]",
          "name": "tos",
          "type": "address[]"
        },
        {
          "internalType": "uint256[]",
          "name": "shares",
          "type": "uint256[]"
        }
      ],
      "name": "transferMultiple",
      "outputs": [],
      "stateMutability": "nonpayable",
      "type": "function"
    },
    {
      "inputs": [
        {
          "internalType": "address",
          "name": "newOwner",
          "type": "address"
        },
        {
          "internalType": "bool",
          "name": "direct",
          "type": "bool"
        },
        {
          "internalType": "bool",
          "name": "renounce",
          "type": "bool"
        }
      ],
      "name": "transferOwnership",
      "outputs": [],
      "stateMutability": "nonpayable",
      "type": "function"
    },
    {
      "inputs": [
        {
          "internalType": "address",
          "name": "masterContract",
          "type": "address"
        },
        {
          "internalType": "bool",
          "name": "approved",
          "type": "bool"
        }
      ],
      "name": "whitelistMasterContract",
      "outputs": [],
      "stateMutability": "nonpayable",
      "type": "function"
    },
    {
      "inputs": [
        {
          "internalType": "address",
          "name": "",
          "type": "address"
        }
      ],
      "name": "whitelistedMasterContracts",
      "outputs": [
        {
          "internalType": "bool",
          "name": "",
          "type": "bool"
        }
      ],
      "stateMutability": "view",
      "type": "function"
    },
    {
      "inputs": [
        {
          "internalType": "contract IERC20",
          "name": "token_",
          "type": "address"
        },
        {
          "internalType": "address",
          "name": "from",
          "type": "address"
        },
        {
          "internalType": "address",
          "name": "to",
          "type": "address"
        },
        {
          "internalType": "uint256",
          "name": "amount",
          "type": "uint256"
        },
        {
          "internalType": "uint256",
          "name": "share",
          "type": "uint256"
        }
      ],
      "name": "withdraw",
      "outputs": [
        {
          "internalType": "uint256",
          "name": "amountOut",
          "type": "uint256"
        },
        {
          "internalType": "uint256",
          "name": "shareOut",
          "type": "uint256"
        }
      ],
      "stateMutability": "nonpayable",
      "type": "function"
    },
    {
      "stateMutability": "payable",
      "type": "receive"
    }
  ],
  "bytecode": "0x60e06040523480156200001157600080fd5b506040516200466038038062004660833981016040819052620000349162000109565b600080546001600160a01b0319163390811782556040519091907f8be0079c531659141344cd1fd0a4f28419497f9722a3daafe3b4186f6b6457e0908290a34660a0818152604080517f8cad95687ba82c2ce50e74f7b754645e5117c3a5bec8151c0726d5857980a8666020808301919091527fd7df266aff736d415a9dc14b4158201d612e70d75b9c7f4e375ccfd20aa5166f82840152606082018590523060808084019190915283518084039091018152919093019091528051910120608052506001600160a01b031660c0526200013b565b6000602082840312156200011c57600080fd5b81516001600160a01b03811681146200013457600080fd5b9392505050565b60805160a05160c0516144e0620001806000396000818161088f01528181610bb9015281816122fa01526124ec01526000611315015260006113bc01526144e06000f3fe6080604052600436106101fd5760003560e01c80637ecebe001161010d578063d2423b51116100a0578063f1676d371161006f578063f1676d37146106d1578063f18d03cc146106f1578063f483b3da14610711578063f7888aec14610731578063fba96be81461076957600080fd5b8063d2423b51146105fb578063da5139ca1461060e578063df23b45b1461062e578063e30c3978146106b157600080fd5b806397da6d30116100dc57806397da6d3014610570578063aee4d1b214610590578063bafe4f14146105a5578063c0a47c93146105db57600080fd5b80637ecebe00146104c85780638da5cb5b146104f55780638fd436541461051557806391e0eab51461053557600080fd5b80634e71e0c81161019057806366c6bb0b1161015f57806366c6bb0b1461042857806372cb5d9714610448578063733a9d7c146104685780637c516e94146104885780637c6a68a5146104a857600080fd5b80634e71e0c81461035c5780634ffe34db146103715780635108a558146103d2578063566231181461040857600080fd5b80631f54245b116101cc5780631f54245b146102b8578063228bfd9f146102e35780633644e515146103195780633e2a9d4e1461033c57600080fd5b806302b9446c14610209578063078dfbe7146102365780630fca88431461025857806312a90c8a1461027857600080fd5b3661020457005b600080fd5b61021c610217366004613891565b61079f565b604080519283526020830191909152015b60405180910390f35b34801561024257600080fd5b506102566102513660046138fa565b610cf1565b005b34801561026457600080fd5b50610256610273366004613990565b610e00565b34801561028457600080fd5b506102a8610293366004613a24565b60056020526000908152604090205460ff1681565b604051901515815260200161022d565b6102cb6102c6366004613a82565b611100565b6040516001600160a01b03909116815260200161022d565b3480156102ef57600080fd5b506102cb6102fe366004613a24565b6009602052600090815260409020546001600160a01b031681565b34801561032557600080fd5b5061032e611310565b60405190815260200161022d565b34801561034857600080fd5b50610256610357366004613ae9565b6113e2565b34801561036857600080fd5b506102566114e5565b34801561037d57600080fd5b506103b261038c366004613a24565b6008602052600090815260409020546001600160801b0380821691600160801b90041682565b604080516001600160801b0393841681529290911660208301520161022d565b3480156103de57600080fd5b506102cb6103ed366004613a24565b600a602052600090815260409020546001600160a01b031681565b34801561041457600080fd5b5061032e610423366004613b2e565b6115a2565b34801561043457600080fd5b50610256610443366004613b65565b6115f6565b34801561045457600080fd5b50610256610463366004613ba6565b611b86565b34801561047457600080fd5b50610256610483366004613bd4565b61201a565b34801561049457600080fd5b506102566104a3366004613c18565b6120f2565b3480156104b457600080fd5b506102566104c3366004613ba6565b612184565b3480156104d457600080fd5b5061032e6104e3366004613a24565b60066020526000908152604090205481565b34801561050157600080fd5b506000546102cb906001600160a01b031681565b34801561052157600080fd5b506102cb610530366004613c99565b6121db565b34801561054157600080fd5b506102a8610550366004613ba6565b600460209081526000928352604080842090915290825290205460ff1681565b34801561057c57600080fd5b5061021c61058b366004613891565b612213565b34801561059c57600080fd5b50610256612665565b3480156105b157600080fd5b506102cb6105c0366004613a24565b6002602052600090815260409020546001600160a01b031681565b3480156105e757600080fd5b506102566105f6366004613cc5565b6126ac565b610256610609366004613d31565b612b0f565b34801561061a57600080fd5b5061032e610629366004613b2e565b612bbe565b34801561063a57600080fd5b50610682610649366004613a24565b600b602052600090815260409020546001600160401b0380821691600160401b810490911690600160801b90046001600160801b031683565b604080516001600160401b0394851681529390921660208401526001600160801b03169082015260600161022d565b3480156106bd57600080fd5b506001546102cb906001600160a01b031681565b3480156106dd57600080fd5b506102566106ec366004613d7c565b612c0a565b3480156106fd57600080fd5b5061025661070c366004613dee565b612d8f565b34801561071d57600080fd5b5061025661072c366004613e3f565b612f35565b34801561073d57600080fd5b5061032e61074c366004613ba6565b600760209081526000928352604080842090915290825290205481565b34801561077557600080fd5b5061032e610784366004613a24565b6001600160a01b031660009081526003602052604090205490565b600080856001600160a01b03811633148015906107c557506001600160a01b0381163014155b1561085057336000908152600260205260409020546001600160a01b0316806108095760405162461bcd60e51b815260040161080090613f17565b60405180910390fd5b6001600160a01b0380821660009081526004602090815260408083209386168352929052205460ff1661084e5760405162461bcd60e51b815260040161080090613f4e565b505b6001600160a01b0386166108765760405162461bcd60e51b815260040161080090613f85565b60006001600160a01b0389161561088d57886108af565b7f00000000000000000000000000000000000000000000000000000000000000005b90506001600160a01b0381166000908152600860209081526040918290208251808401845290546001600160801b038082168352600160801b90910416818301528251808401909352600783526603a37b5b2b71d160cd1b9183019190915290610919908361326d565b80516001600160801b031615158061099257506000826001600160a01b03166318160ddd6040518163ffffffff1660e01b8152600401602060405180830381865afa15801561096c573d6000803e3d6000fd5b505050506040513d601f19601f820116820180604052508101906109909190613fb3565b115b6109d45760405162461bcd60e51b815260206004820152601360248201527242656e746f426f783a204e6f20746f6b656e7360681b6044820152606401610800565b85600003610a2f576109e8818860006132b6565b95506103e8610a0d6109f988613351565b60208401516001600160801b03169061337f565b6001600160801b03161015610a2a57600080945094505050610ce6565b610a3e565b610a3b81876001613394565b96505b6001600160a01b03891630141580610a5d57506001600160a01b038a16155b80610a8557508051610a81906001600160801b0316610a7b8461340c565b906134a0565b8711155b610ad15760405162461bcd60e51b815260206004820152601760248201527f42656e746f426f783a20536b696d20746f6f206d7563680000000000000000006044820152606401610800565b6001600160a01b038083166000908152600760209081526040808320938c1683529290522054610b0190876134ac565b6001600160a01b038084166000908152600760209081526040808320938d1683529290522055610b47610b3387613351565b60208301516001600160801b03169061337f565b6001600160801b03166020820152610b72610b6188613351565b82516001600160801b03169061337f565b6001600160801b0390811682526001600160a01b0380841660009081526008602090815260409091208451918501518416600160801b0291909316179091558a16610c30577f00000000000000000000000000000000000000000000000000000000000000006001600160a01b031663d0e30db0886040518263ffffffff1660e01b81526004016000604051808303818588803b158015610c1257600080fd5b505af1158015610c26573d6000803e3d6000fd5b5050505050610c7d565b6001600160a01b0389163014610c7d57610c6860405180604001604052806006815260200165185b5bdd5b9d60d21b815250886134b8565b610c7d6001600160a01b0383168a308a6134fd565b876001600160a01b0316896001600160a01b0316836001600160a01b03167fb2346165e782564f17f5b7e555c21f4fd96fbc93458572bf0113ea35a958fc558a8a604051610cd5929190918252602082015260400190565b60405180910390a486945085935050505b509550959350505050565b6000546001600160a01b03163314610d1b5760405162461bcd60e51b815260040161080090613fcc565b8115610dde576001600160a01b038316151580610d355750805b610d795760405162461bcd60e51b81526020600482015260156024820152744f776e61626c653a207a65726f206164647265737360581b6044820152606401610800565b600080546040516001600160a01b03808716939216917f8be0079c531659141344cd1fd0a4f28419497f9722a3daafe3b4186f6b6457e091a3600080546001600160a01b0385166001600160a01b031991821617909155600180549091169055505050565b600180546001600160a01b0385166001600160a01b0319909116179055505050565b846001600160a01b0381163314801590610e2357506001600160a01b0381163014155b15610ea557336000908152600260205260409020546001600160a01b031680610e5e5760405162461bcd60e51b815260040161080090613f17565b6001600160a01b0380821660009081526004602090815260408083209386168352929052205460ff16610ea35760405162461bcd60e51b815260040161080090613f4e565b505b600085858281610eb757610eb7614001565b9050602002016020810190610ecc9190613a24565b6001600160a01b031603610f225760405162461bcd60e51b815260206004820152601760248201527f42656e746f426f783a20746f5b305d206e6f74207365740000000000000000006044820152606401610800565b600084815b81811015611098576000888883818110610f4357610f43614001565b9050602002016020810190610f589190613a24565b9050610fcd878784818110610f6f57610f6f614001565b90506020020135600760008e6001600160a01b03166001600160a01b031681526020019081526020016000206000846001600160a01b03166001600160a01b03168152602001908152602001600020546134ac90919063ffffffff16565b6001600160a01b03808d1660009081526007602090815260408083209386168352929052205561101e87878481811061100857611008614001565b90506020020135856134ac90919063ffffffff16565b9350806001600160a01b03168a6001600160a01b03168c6001600160a01b03167f6eabe333476233fd382224f233210cb808a7bc4c4de64f9d76628bf63c677b1a8a8a8781811061107157611071614001565b9050602002013560405161108791815260200190565b60405180910390a450600101610f27565b506001600160a01b03808a166000908152600760209081526040808320938c16835292905220546110c990836134a0565b6001600160a01b03998a1660009081526007602090815260408083209b909c16825299909952989097209790975550505050505050565b60006001600160a01b0385166111585760405162461bcd60e51b815260206004820181905260248201527f426f72696e67466163746f72793a204e6f206d6173746572436f6e74726163746044820152606401610800565b606085901b82156111ca5760008585604051611175929190614017565b60405180910390209050604051733d602d80600a3d3981f3363d3d373d3d3d363d7360601b81528260148201526e5af43d82803e903d91602b57fd5bf360881b6028820152816037826000f59350505061120f565b604051733d602d80600a3d3981f3363d3d373d3d3d363d7360601b81528160148201526e5af43d82803e903d91602b57fd5bf360881b60288201526037816000f09250505b6001600160a01b0380831660008181526002602090815260408083208054958c166001600160a01b0319968716811790915583526003825280832080546001810182559084529190922001805490931682179092559051631377d1f560e21b8152634ddf47d49034906112889089908990600401614050565b6000604051808303818588803b1580156112a157600080fd5b505af11580156112b5573d6000803e3d6000fd5b5050505050816001600160a01b0316866001600160a01b03167fd62166f3c2149208e51788b1401cc356bf5da1fc6c7886a32e18570f57d88b3b87876040516112ff929190614050565b60405180910390a350949350505050565b6000467f000000000000000000000000000000000000000000000000000000000000000081146113ba57604080517f8cad95687ba82c2ce50e74f7b754645e5117c3a5bec8151c0726d5857980a8666020808301919091527fd7df266aff736d415a9dc14b4158201d612e70d75b9c7f4e375ccfd20aa5166f8284015260608201849052306080808401919091528351808403909101815260a090920190925280519101206113dc565b7f00000000000000000000000000000000000000000000000000000000000000005b91505090565b6000546001600160a01b0316331461140c5760405162461bcd60e51b815260040161080090613fcc565b605f816001600160401b031611156114665760405162461bcd60e51b815260206004820181905260248201527f53747261746567794d616e616765723a2054617267657420746f6f20686967686044820152606401610800565b6001600160a01b0382166000818152600b602090815260409182902080546fffffffffffffffff00000000000000001916600160401b6001600160401b0387169081029190911790915591519182527f7543af99b5602c06e62da0631b5308489a5ff859150105a623b6eb15e8deae0b91015b60405180910390a25050565b6001546001600160a01b03163381146115405760405162461bcd60e51b815260206004820181905260248201527f4f776e61626c653a2063616c6c657220213d2070656e64696e67206f776e65726044820152606401610800565b600080546040516001600160a01b03808516939216917f8be0079c531659141344cd1fd0a4f28419497f9722a3daafe3b4186f6b6457e091a3600080546001600160a01b039092166001600160a01b0319928316179055600180549091169055565b6001600160a01b03831660009081526008602090815260408083208151808301909252546001600160801b038082168352600160801b90910416918101919091526115ee908484613394565b949350505050565b6001600160a01b038381166000818152600b60209081526040808320815160608101835290546001600160401b038082168352600160401b82041682850152600160801b90046001600160801b0390811682840190815295855260099093528184205494519151630c7e663b60e11b81529190921660048201523360248201529093929092169182906318fccc76906044016020604051808303816000875af11580156116a7573d6000803e3d6000fd5b505050506040513d601f19601f820116820180604052508101906116cb9190613fb3565b9050801580156116d9575084155b156116e657505050505050565b6001600160a01b0386166000908152600860205260408120546001600160801b031690821315611798578161171b82826134ac565b915061172682613351565b6001600160a01b03891660008181526008602090815260409182902080546001600160801b0319166001600160801b0395909516949094179093555183815290917f911c9f20a03edabcbcbd18dca1174cce47a91b234ced7a5a3c60ba0d5b56c5d2910160405180910390a250611869565b60008212156118695760006117ac8361407a565b90506117b882826134a0565b91506117c382613351565b6001600160a01b038916600090815260086020526040902080546001600160801b0319166001600160801b039290921691909117905561181961180582613351565b60408701516001600160801b031690613621565b6001600160801b0316604086810191909152518181526001600160a01b038916907f8f1f26eb9b6aa8689dbdd519ead1999d9c8819d4738e403b2003b18197d9cf979060200160405180910390a2505b8515611b10576000606461189386602001516001600160401b03168461362d90919063ffffffff16565b61189d9190614096565b90508085604001516001600160801b031610156119d55760006118d686604001516001600160801b0316836134a090919063ffffffff16565b905086158015906118e657508681115b156118ee5750855b6119026001600160a01b038a168683613639565b61192261190e82613351565b60408801516001600160801b03169061337f565b6001600160801b031660408781019190915251636939aaf560e01b8152600481018290526001600160a01b03861690636939aaf590602401600060405180830381600087803b15801561197457600080fd5b505af1158015611988573d6000803e3d6000fd5b50505050886001600160a01b03167fb18e7e4f6eac147a63a3bb6beb2d9039c88698623aff3efc4febbc20b0164ee5826040516119c791815260200190565b60405180910390a250611b0e565b8085604001516001600160801b03161115611b0e576000611a0c6119f883613351565b60408801516001600160801b031690613621565b6001600160801b031690508615801590611a2557508681115b15611a2d5750855b604051632e1a7d4d60e01b8152600481018290526000906001600160a01b03871690632e1a7d4d906024016020604051808303816000875af1158015611a77573d6000803e3d6000fd5b505050506040513d601f19601f82011682018060405250810190611a9b9190613fb3565b9050611abd611aa982613351565b60408901516001600160801b031690613621565b6001600160801b0316604088810191909152518181526001600160a01b038b16907f39aa22060f8dd4d291720311feedf3b72fef47c06c66ccf5c22b502c62e7550a9060200160405180910390a250505b505b5050506001600160a01b039093166000908152600b6020908152604091829020855181549287015193909601516001600160801b03908116600160801b026001600160401b03948516600160401b026001600160801b031990941694909716939093179190911791909116939093179092555050565b6000546001600160a01b03163314611bb05760405162461bcd60e51b815260040161080090613fcc565b6001600160a01b038281166000818152600b60209081526040808320815160608101835290546001600160401b038082168352600160401b8204811683860152600160801b9091046001600160801b031682840152948452600a90925290912054815191931691161580611c365750826001600160a01b0316816001600160a01b031614155b15611cc7576001600160a01b038481166000908152600a6020526040902080546001600160a01b031916918516919091179055611c7e611c796203f480426140b8565b61374d565b6001600160401b031682526040516001600160a01b0380851691908616907f6f7ccdf3f86039e5a1dcf6028bf7b4773cbf7a234716ba2e5392b12bb0f8558f90600090a3611fa7565b81516001600160401b031615801590611cea575081516001600160401b03164210155b611d365760405162461bcd60e51b815260206004820152601a60248201527f53747261746567794d616e616765723a20546f6f206561726c790000000000006044820152606401610800565b6001600160a01b038481166000908152600960205260409020541615611f30576001600160a01b0380851660009081526009602052604080822054858201519151637f8661a160e01b815292931691637f8661a191611da6916004016001600160801b0391909116815260200190565b6020604051808303816000875af1158015611dc5573d6000803e3d6000fd5b505050506040513d601f19601f82011682018060405250810190611de99190613fb3565b90506000811315611e62576001600160a01b03851660009081526008602052604090208190611e189082613777565b50856001600160a01b03167f911c9f20a03edabcbcbd18dca1174cce47a91b234ced7a5a3c60ba0d5b56c5d282604051611e5491815260200190565b60405180910390a250611ee1565b6000811215611ee1576000611e768261407a565b6001600160a01b0387166000908152600860205260409020909150611e9b90826137d1565b50856001600160a01b03167f8f1f26eb9b6aa8689dbdd519ead1999d9c8819d4738e403b2003b18197d9cf9782604051611ed791815260200190565b60405180910390a2505b60408084015190516001600160801b0390911681526001600160a01b038616907f39aa22060f8dd4d291720311feedf3b72fef47c06c66ccf5c22b502c62e7550a9060200160405180910390a2505b6001600160a01b03808516600081815260096020908152604080832080548688166001600160a01b031991821617909155838852878201849052848452600a909252808320805490921690915551928616927f03e6352a885adc4cc54767592939c3b1bbd65685658c3beaaba66a888120e2179190a35b506001600160a01b039092166000908152600b6020908152604091829020845181549286015193909501516001600160801b03908116600160801b026001600160401b03948516600160401b026001600160801b0319909416949096169390931791909117919091169290921790915550565b6000546001600160a01b031633146120445760405162461bcd60e51b815260040161080090613fcc565b6001600160a01b03821661209a5760405162461bcd60e51b815260206004820152601c60248201527f4d6173746572434d67723a2043616e6e6f7420617070726f76652030000000006044820152606401610800565b6001600160a01b038216600081815260056020908152604091829020805460ff191685151590811790915591519182527f31a1e0eac44b54ac6c2a2efa87e92c83405ffcf33fceef02a7bca695130e260091016114d9565b60405163d505accf60e01b81526001600160a01b0388811660048301528781166024830152604482018790526064820186905260ff8516608483015260a4820184905260c4820183905289169063d505accf9060e401600060405180830381600087803b15801561216257600080fd5b505af1158015612176573d6000803e3d6000fd5b505050505050505050505050565b6001600160a01b0382811660008181526002602052604080822080546001600160a01b0319169486169485179055517fbb53a9740cbbd53a27910dec388f565018e47603b00e7c858fd73db68f9a515f9190a35050565b600360205281600052604060002081815481106121f757600080fd5b6000918252602090912001546001600160a01b03169150829050565b600080856001600160a01b038116331480159061223957506001600160a01b0381163014155b156122bb57336000908152600260205260409020546001600160a01b0316806122745760405162461bcd60e51b815260040161080090613f17565b6001600160a01b0380821660009081526004602090815260408083209386168352929052205460ff166122b95760405162461bcd60e51b815260040161080090613f4e565b505b6001600160a01b0386166122e15760405162461bcd60e51b815260040161080090613f85565b60006001600160a01b038916156122f8578861231a565b7f00000000000000000000000000000000000000000000000000000000000000005b6001600160a01b03811660009081526008602090815260408083208151808301909252546001600160801b038082168352600160801b909104169181019190915291925086900361237857612371818860016132b6565b9550612387565b61238481876000613394565b96505b6001600160a01b038083166000908152600760209081526040808320938d16835292905220546123b790876134a0565b6001600160a01b038084166000908152600760209081526040808320938e16835292905220556123fa6123e988613351565b82516001600160801b031690613621565b6001600160801b0316815261242561241187613351565b60208301516001600160801b031690613621565b6001600160801b0316602082018190526103e8111580612450575060208101516001600160801b0316155b6124955760405162461bcd60e51b815260206004820152601660248201527542656e746f426f783a2063616e6e6f7420656d70747960501b6044820152606401610800565b6001600160a01b0380831660009081526008602090815260409091208351918401516001600160801b03908116600160801b0292169190911790558a166125f957604051632e1a7d4d60e01b8152600481018890527f00000000000000000000000000000000000000000000000000000000000000006001600160a01b031690632e1a7d4d90602401600060405180830381600087803b15801561253857600080fd5b505af115801561254c573d6000803e3d6000fd5b505050506000886001600160a01b03168860405160006040518083038185875af1925050503d806000811461259d576040519150601f19603f3d011682016040523d82523d6000602084013e6125a2565b606091505b50509050806125f35760405162461bcd60e51b815260206004820152601d60248201527f42656e746f426f783a20455448207472616e73666572206661696c65640000006044820152606401610800565b5061260d565b61260d6001600160a01b0383168989613639565b876001600160a01b0316896001600160a01b0316836001600160a01b03167fad9ab9ee6953d4d177f4a03b3a3ac3178ffcb9816319f348060194aa76b144868a8a604051610cd5929190918252602082015260400190565b3360008181526002602052604080822080546001600160a01b03191684179055517fdfb44ffabf0d3a8f650d3ce43eff98f6d050e7ea1a396d5794f014e7dadabacb9190a2565b6001600160a01b0385166127025760405162461bcd60e51b815260206004820152601b60248201527f4d6173746572434d67723a206d617374657243206e6f742073657400000000006044820152606401610800565b8115801561270e575080155b801561271b575060ff8316155b1561284d576001600160a01b03861633146127785760405162461bcd60e51b815260206004820152601b60248201527f4d6173746572434d67723a2075736572206e6f742073656e64657200000000006044820152606401610800565b6001600160a01b0386811660009081526002602052604090205416156127e05760405162461bcd60e51b815260206004820152601960248201527f4d6173746572434d67723a207573657220697320636c6f6e65000000000000006044820152606401610800565b6001600160a01b03851660009081526005602052604090205460ff166128485760405162461bcd60e51b815260206004820152601b60248201527f4d6173746572434d67723a206e6f742077686974656c697374656400000000006044820152606401610800565b612a9f565b6001600160a01b0386166128a35760405162461bcd60e51b815260206004820152601c60248201527f4d6173746572434d67723a20557365722063616e6e6f742062652030000000006044820152606401610800565b600060405180604001604052806002815260200161190160f01b8152506128c8611310565b7f1962bc9f5484cb7a998701b81090e966ee1fce5771af884cceee7c081b14ade287612914577fb426802f1f7dc850a7b6b38805edea2442f3992878a9ab985abfe8091d95d0b1612936565b7f422ac5323fe049241dee67716229a1cc1bc7b313b23dfe3ef6d42ab177a3b2845b6001600160a01b038b16600090815260066020526040812080548d928d928d9291612960836140cb565b909155506040805160208101979097528601949094526001600160a01b03928316606086015291166080840152151560a083015260c082015260e001604051602081830303815290604052805190602001206040516020016129c493929190614108565b60408051601f198184030181528282528051602091820120600080855291840180845281905260ff88169284019290925260608301869052608083018590529092509060019060a0016020604051602081039080840390855afa158015612a2f573d6000803e3d6000fd5b505050602060405103519050876001600160a01b0316816001600160a01b031614612a9c5760405162461bcd60e51b815260206004820152601d60248201527f4d6173746572434d67723a20496e76616c6964205369676e61747572650000006044820152606401610800565b50505b6001600160a01b038581166000818152600460209081526040808320948b1680845294825291829020805460ff191689151590811790915591519182527f5f6ebb64ba012a851c6f014e6cad458ddf213d1512049b31cd06365c2b059257910160405180910390a3505050505050565b60005b82811015612bb85760008030868685818110612b3057612b30614001565b9050602002810190612b42919061412f565b604051612b50929190614017565b600060405180830381855af49150503d8060008114612b8b576040519150601f19603f3d011682016040523d82523d6000602084013e612b90565b606091505b509150915081158015612ba05750835b15612bae57612bae816137f7565b5050600101612b12565b50505050565b6001600160a01b03831660009081526008602090815260408083208151808301909252546001600160801b038082168352600160801b90910416918101919091526115ee9084846132b6565b6000620186a0612c1b85603261362d565b612c259190614096565b9050612c3b6001600160a01b0386168786613639565b6040516323e30c8b60e01b81526001600160a01b038816906323e30c8b90612c719033908990899087908a908a90600401614175565b600060405180830381600087803b158015612c8b57600080fd5b505af1158015612c9f573d6000803e3d6000fd5b50505050612cd6612caf82613351565b6001600160a01b0387166000908152600860205260409020906001600160801b0316613777565b612cdf8661340c565b1015612d265760405162461bcd60e51b815260206004820152601660248201527510995b9d1bd09bde0e8815dc9bdb99c8185b5bdd5b9d60521b6044820152606401610800565b856001600160a01b0316856001600160a01b0316886001600160a01b03167f3be9b85936d5d30a1655ea116a17ee3d827b2cd428cc026ce5bf2ac46a2232048785604051612d7e929190918252602082015260400190565b60405180910390a450505050505050565b826001600160a01b0381163314801590612db257506001600160a01b0381163014155b15612e3457336000908152600260205260409020546001600160a01b031680612ded5760405162461bcd60e51b815260040161080090613f17565b6001600160a01b0380821660009081526004602090815260408083209386168352929052205460ff16612e325760405162461bcd60e51b815260040161080090613f4e565b505b6001600160a01b038316612e5a5760405162461bcd60e51b815260040161080090613f85565b6001600160a01b03808616600090815260076020908152604080832093881683529290522054612e8a90836134a0565b6001600160a01b03868116600090815260076020908152604080832089851684529091528082209390935590851681522054612ec690836134ac565b6001600160a01b0380871660008181526007602090815260408083208986168085529252918290209490945551918716917f6eabe333476233fd382224f233210cb808a7bc4c4de64f9d76628bf63c677b1a90612f269087815260200190565b60405180910390a45050505050565b6000856001600160401b03811115612f4f57612f4f6141bc565b604051908082528060200260200182016040528015612f78578160200160208202803683370190505b5090508560005b81811015613067576000878783818110612f9b57612f9b614001565b905060200201359050620186a0612fbc60328361362d90919063ffffffff16565b612fc69190614096565b848381518110612fd857612fd8614001565b60200260200101818152505061305e8c8c84818110612ff957612ff9614001565b905060200201602081019061300e9190613a24565b89898581811061302057613020614001565b905060200201358c8c8681811061303957613039614001565b905060200201602081019061304e9190613a24565b6001600160a01b03169190613639565b50600101612f7f565b5060405163d9d1762360e01b81526001600160a01b038c169063d9d17623906130a29033908c908c908c908c908a908d908d9060040161420e565b600060405180830381600087803b1580156130bc57600080fd5b505af11580156130d0573d6000803e3d6000fd5b5050505060005b818110156121765760008989838181106130f3576130f3614001565b90506020020160208101906131089190613a24565b905061315661312f85848151811061312257613122614001565b6020026020010151613351565b6001600160a01b0383166000908152600860205260409020906001600160801b0316613777565b61315f8261340c565b10156131a65760405162461bcd60e51b815260206004820152601660248201527510995b9d1bd09bde0e8815dc9bdb99c8185b5bdd5b9d60521b6044820152606401610800565b8b8b838181106131b8576131b8614001565b90506020020160208101906131cd9190613a24565b6001600160a01b0316816001600160a01b03168e6001600160a01b03167f3be9b85936d5d30a1655ea116a17ee3d827b2cd428cc026ce5bf2ac46a2232048b8b8781811061321d5761321d614001565b9050602002013588878151811061323657613236614001565b6020026020010151604051613255929190918252602082015260400190565b60405180910390a4506001016130d7565b5050505050565b6132b282826040516024016132839291906142f5565b60408051601f198184030181529190526020810180516001600160e01b031663319af33360e01b17905261384f565b5050565b82516000906001600160801b031681036132d157508161334a565b835160208501516001600160801b03918216916132ef91168561431f565b6132f99190614096565b905081801561333757508284602001516001600160801b031685600001516001600160801b03168361332b919061431f565b6133359190614096565b105b1561334a5780613346816140cb565b9150505b9392505050565b60006001600160801b0382111561337b57604051633b13fa2560e11b815260040160405180910390fd5b5090565b600061338b8284614336565b90505b92915050565b600083602001516001600160801b03166000036133b257508161334a565b602084015184516001600160801b03918216916133d091168561431f565b6133da9190614096565b905081801561333757508284600001516001600160801b031685602001516001600160801b03168361332b919061431f565b6001600160a01b0381166000818152600b60205260408082205490516370a0823160e01b8152306004820152919261338e92600160801b9092046001600160801b0316916370a0823190602401602060405180830381865afa158015613476573d6000803e3d6000fd5b505050506040513d601f19601f8201168201806040525081019061349a9190613fb3565b906134ac565b600061338b828461435d565b600061338b82846140b8565b6132b282826040516024016134ce929190614370565b60408051601f198184030181529190526020810180516001600160e01b0316632d839cb360e21b17905261384f565b604080516001600160a01b0385811660248301528481166044830152606480830185905283518084039091018152608490920183526020820180516001600160e01b03166323b872dd60e01b17905291516000928392908816916135619190614392565b6000604051808303816000865af19150503d806000811461359e576040519150601f19603f3d011682016040523d82523d6000602084013e6135a3565b606091505b50915091508180156135cd5750805115806135cd5750808060200190518101906135cd91906143ae565b6136195760405162461bcd60e51b815260206004820181905260248201527f426f72696e6745524332303a205472616e7366657246726f6d206661696c65646044820152606401610800565b505050505050565b600061338b82846143cb565b600061338b828461431f565b604080516001600160a01b038481166024830152604480830185905283518084039091018152606490920183526020820180516001600160e01b031663a9059cbb60e01b17905291516000928392908716916136959190614392565b6000604051808303816000865af19150503d80600081146136d2576040519150601f19603f3d011682016040523d82523d6000602084013e6136d7565b606091505b509150915081801561370157508051158061370157508080602001905181019061370191906143ae565b6132665760405162461bcd60e51b815260206004820152601c60248201527f426f72696e6745524332303a205472616e73666572206661696c6564000000006044820152606401610800565b60006001600160401b0382111561337b57604051633b13fa2560e11b815260040160405180910390fd5b600061378282613351565b8354849060009061379d9084906001600160801b0316614336565b92506101000a8154816001600160801b0302191690836001600160801b0316021790556001600160801b0316905092915050565b60006137dc82613351565b8354849060009061379d9084906001600160801b03166143cb565b60448151101561381c578060405163d935448560e01b815260040161080091906143eb565b6004810190508080602001905181019061383691906143fe565b60405162461bcd60e51b815260040161080091906143eb565b6138588161385b565b50565b60006a636f6e736f6c652e6c6f679050600080835160208501845afa505050565b6001600160a01b038116811461385857600080fd5b600080600080600060a086880312156138a957600080fd5b85356138b48161387c565b945060208601356138c48161387c565b935060408601356138d48161387c565b94979396509394606081013594506080013592915050565b801515811461385857600080fd5b60008060006060848603121561390f57600080fd5b833561391a8161387c565b9250602084013561392a816138ec565b9150604084013561393a816138ec565b809150509250925092565b60008083601f84011261395757600080fd5b5081356001600160401b0381111561396e57600080fd5b6020830191508360208260051b850101111561398957600080fd5b9250929050565b600080600080600080608087890312156139a957600080fd5b86356139b48161387c565b955060208701356139c48161387c565b945060408701356001600160401b03808211156139e057600080fd5b6139ec8a838b01613945565b90965094506060890135915080821115613a0557600080fd5b50613a1289828a01613945565b979a9699509497509295939492505050565b600060208284031215613a3657600080fd5b813561334a8161387c565b60008083601f840112613a5357600080fd5b5081356001600160401b03811115613a6a57600080fd5b60208301915083602082850101111561398957600080fd5b60008060008060608587031215613a9857600080fd5b8435613aa38161387c565b935060208501356001600160401b03811115613abe57600080fd5b613aca87828801613a41565b9094509250506040850135613ade816138ec565b939692955090935050565b60008060408385031215613afc57600080fd5b8235613b078161387c565b915060208301356001600160401b0381168114613b2357600080fd5b809150509250929050565b600080600060608486031215613b4357600080fd5b8335613b4e8161387c565b925060208401359150604084013561393a816138ec565b600080600060608486031215613b7a57600080fd5b8335613b858161387c565b92506020840135613b95816138ec565b929592945050506040919091013590565b60008060408385031215613bb957600080fd5b8235613bc48161387c565b91506020830135613b238161387c565b60008060408385031215613be757600080fd5b8235613bf28161387c565b91506020830135613b23816138ec565b803560ff81168114613c1357600080fd5b919050565b600080600080600080600080610100898b031215613c3557600080fd5b8835613c408161387c565b97506020890135613c508161387c565b96506040890135613c608161387c565b95506060890135945060808901359350613c7c60a08a01613c02565b925060c0890135915060e089013590509295985092959890939650565b60008060408385031215613cac57600080fd5b8235613cb78161387c565b946020939093013593505050565b60008060008060008060c08789031215613cde57600080fd5b8635613ce98161387c565b95506020870135613cf98161387c565b94506040870135613d09816138ec565b9350613d1760608801613c02565b92506080870135915060a087013590509295509295509295565b600080600060408486031215613d4657600080fd5b83356001600160401b03811115613d5c57600080fd5b613d6886828701613945565b909450925050602084013561393a816138ec565b60008060008060008060a08789031215613d9557600080fd5b8635613da08161387c565b95506020870135613db08161387c565b94506040870135613dc08161387c565b93506060870135925060808701356001600160401b03811115613de257600080fd5b613a1289828a01613a41565b60008060008060808587031215613e0457600080fd5b8435613e0f8161387c565b93506020850135613e1f8161387c565b92506040850135613e2f8161387c565b9396929550929360600135925050565b600080600080600080600080600060a08a8c031215613e5d57600080fd5b8935613e688161387c565b985060208a01356001600160401b0380821115613e8457600080fd5b613e908d838e01613945565b909a50985060408c0135915080821115613ea957600080fd5b613eb58d838e01613945565b909850965060608c0135915080821115613ece57600080fd5b613eda8d838e01613945565b909650945060808c0135915080821115613ef357600080fd5b50613f008c828d01613a41565b915080935050809150509295985092959850929598565b6020808252601b908201527f42656e746f426f783a206e6f206d6173746572436f6e74726163740000000000604082015260600190565b6020808252601f908201527f42656e746f426f783a205472616e73666572206e6f7420617070726f76656400604082015260600190565b60208082526014908201527310995b9d1bd09bde0e881d1bc81b9bdd081cd95d60621b604082015260600190565b600060208284031215613fc557600080fd5b5051919050565b6020808252818101527f4f776e61626c653a2063616c6c6572206973206e6f7420746865206f776e6572604082015260600190565b634e487b7160e01b600052603260045260246000fd5b8183823760009101908152919050565b81835281816020850137506000828201602090810191909152601f909101601f19169091010190565b6020815260006115ee602083018486614027565b634e487b7160e01b600052601160045260246000fd5b6000600160ff1b820161408f5761408f614064565b5060000390565b6000826140b357634e487b7160e01b600052601260045260246000fd5b500490565b8082018082111561338e5761338e614064565b6000600182016140dd576140dd614064565b5060010190565b60005b838110156140ff5781810151838201526020016140e7565b50506000910152565b6000845161411a8184602089016140e4565b91909101928352506020820152604001919050565b6000808335601e1984360301811261414657600080fd5b8301803591506001600160401b0382111561416057600080fd5b60200191503681900382131561398957600080fd5b6001600160a01b03878116825286166020820152604081018590526060810184905260a0608082018190526000906141b09083018486614027565b98975050505050505050565b634e487b7160e01b600052604160045260246000fd5b60008151808452602080850194506020840160005b83811015614203578151875295820195908201906001016141e7565b509495945050505050565b6001600160a01b03898116825260a060208084018290529083018990526000918a9160c08501845b8c81101561425d5784356142498161387c565b841682529382019390820190600101614236565b5085810360408701528981526001600160fb1b038a111561427d57600080fd5b8960051b9350838b8383013790920184810383016060860152916142a3818401896141d2565b9250505082810360808401526142ba818587614027565b9b9a5050505050505050505050565b600081518084526142e18160208601602086016140e4565b601f01601f19169290920160200192915050565b60408152600061430860408301856142c9565b905060018060a01b03831660208301529392505050565b808202811582820484141761338e5761338e614064565b6001600160801b0381811683821601908082111561435657614356614064565b5092915050565b8181038181111561338e5761338e614064565b60408152600061438360408301856142c9565b90508260208301529392505050565b600082516143a48184602087016140e4565b9190910192915050565b6000602082840312156143c057600080fd5b815161334a816138ec565b6001600160801b0382811682821603908082111561435657614356614064565b60208152600061338b60208301846142c9565b60006020828403121561441057600080fd5b81516001600160401b038082111561442757600080fd5b818401915084601f83011261443b57600080fd5b81518181111561444d5761444d6141bc565b604051601f8201601f19908116603f01168101908382118183101715614475576144756141bc565b8160405282815287602084870101111561448e57600080fd5b61449f8360208301602088016140e4565b97965050505050505056fea264697066735822122005509ce472ec956e0000412de793f768fd2055ef6eb95ee83f1e1fc1a9ff5c8a64736f6c63430008180033",
  "linkReferences": {},
  "deployedLinkReferences": {}
}