{"contracts/CauldronV4.sol":{"CauldronV4":{"abi":[{"inputs":[{"internalType":"contract IBentoBoxV1","name":"bentoBox_","type":"address"},{"internalType":"contract IERC20","name":"magicInternetMoney_","type":"address"}],"stateMutability":"nonpayable","type":"constructor"},{"inputs":[],"name":"ErrNotClone","type":"error"},{"inputs":[],"name":"ErrOverflow","type":"error"},{"anonymous":false,"inputs":[{"indexed":false,"internalType":"uint128","name":"accruedAmount","type":"uint128"}],"name":"LogAccrue","type":"event"},{"anonymous":false,"inputs":[{"indexed":true,"internalType":"address","name":"from","type":"address"},{"indexed":true,"internalType":"address","name":"to","type":"address"},{"indexed":false,"internalType":"uint256","name":"share","type":"uint256"}],"name":"LogAddCollateral","type":"event"},{"anonymous":false,"inputs":[{"indexed":true,"internalType":"address","name":"from","type":"address"},{"indexed":true,"internalType":"address","name":"to","type":"address"},{"indexed":false,"internalType":"uint256","name":"amount","type":"uint256"},{"indexed":false,"internalType":"uint256","name":"part","type":"uint256"}],"name":"LogBorrow","type":"event"},{"anonymous":false,"inputs":[{"indexed":false,"internalType":"uint256","name":"previous","type":"uint256"},{"indexed":false,"internalType":"uint256","name":"current","type":"uint256"}],"name":"LogBorrowOpeningFeeChanged","type":"event"},{"anonymous":false,"inputs":[{"indexed":true,"internalType":"address","name":"account","type":"address"},{"indexed":false,"internalType":"bool","name":"blacklisted","type":"bool"}],"name":"LogChangeBlacklistedCallee","type":"event"},{"anonymous":false,"inputs":[{"indexed":false,"internalType":"uint128","name":"newLimit","type":"uint128"},{"indexed":false,"internalType":"uint128","name":"perAddressPart","type":"uint128"}],"name":"LogChangeBorrowLimit","type":"event"},{"anonymous":false,"inputs":[{"indexed":false,"internalType":"uint256","name":"previous","type":"uint256"},{"indexed":false,"internalType":"uint256","name":"current","type":"uint256"}],"name":"LogCollateralizationRateChanged","type":"event"},{"anonymous":false,"inputs":[{"indexed":false,"internalType":"uint256","name":"rate","type":"uint256"}],"name":"LogExchangeRate","type":"event"},{"anonymous":false,"inputs":[{"indexed":true,"internalType":"address","name":"newFeeTo","type":"address"}],"name":"LogFeeTo","type":"event"},{"anonymous":false,"inputs":[{"indexed":false,"internalType":"uint64","name":"oldInterestRate","type":"uint64"},{"indexed":false,"internalType":"uint64","name":"newInterestRate","type":"uint64"}],"name":"LogInterestChange","type":"event"},{"anonymous":false,"inputs":[{"indexed":true,"internalType":"address","name":"from","type":"address"},{"indexed":true,"internalType":"address","name":"user","type":"address"},{"indexed":true,"internalType":"address","name":"to","type":"address"},{"indexed":false,"internalType":"uint256","name":"collateralShare","type":"uint256"},{"indexed":false,"internalType":"uint256","name":"borrowAmount","type":"uint256"},{"indexed":false,"internalType":"uint256","name":"borrowPart","type":"uint256"}],"name":"LogLiquidation","type":"event"},{"anonymous":false,"inputs":[{"indexed":false,"internalType":"uint256","name":"previous","type":"uint256"},{"indexed":false,"internalType":"uint256","name":"current","type":"uint256"}],"name":"LogLiquidationMultiplierChanged","type":"event"},{"anonymous":false,"inputs":[{"indexed":true,"internalType":"address","name":"from","type":"address"},{"indexed":true,"internalType":"address","name":"to","type":"address"},{"indexed":false,"internalType":"uint256","name":"share","type":"uint256"}],"name":"LogRemoveCollateral","type":"event"},{"anonymous":false,"inputs":[{"indexed":true,"internalType":"address","name":"from","type":"address"},{"indexed":true,"internalType":"address","name":"to","type":"address"},{"indexed":false,"internalType":"uint256","name":"amount","type":"uint256"},{"indexed":false,"internalType":"uint256","name":"part","type":"uint256"}],"name":"LogRepay","type":"event"},{"anonymous":false,"inputs":[{"indexed":true,"internalType":"address","name":"feeTo","type":"address"},{"indexed":false,"internalType":"uint256","name":"feesEarnedFraction","type":"uint256"}],"name":"LogWithdrawFees","type":"event"},{"anonymous":false,"inputs":[{"indexed":true,"internalType":"address","name":"user","type":"address"},{"indexed":true,"internalType":"address","name":"newOwner","type":"address"}],"name":"OwnershipTransferred","type":"event"},{"inputs":[],"name":"BORROW_OPENING_FEE","outputs":[{"internalType":"uint256","name":"","type":"uint256"}],"stateMutability":"view","type":"function"},{"inputs":[],"name":"COLLATERIZATION_RATE","outputs":[{"internalType":"uint256","name":"","type":"uint256"}],"stateMutability":"view","type":"function"},{"inputs":[],"name":"LIQUIDATION_MULTIPLIER","outputs":[{"internalType":"uint256","name":"","type":"uint256"}],"stateMutability":"view","type":"function"},{"inputs":[],"name":"accrue","outputs":[],"stateMutability":"nonpayable","type":"function"},{"inputs":[],"name":"accrueInfo","outputs":[{"internalType":"uint64","name":"lastAccrued","type":"uint64"},{"internalType":"uint128","name":"feesEarned","type":"uint128"},{"internalType":"uint64","name":"INTEREST_PER_SECOND","type":"uint64"}],"stateMutability":"view","type":"function"},{"inputs":[{"internalType":"address","name":"to","type":"address"},{"internalType":"bool","name":"skim","type":"bool"},{"internalType":"uint256","name":"share","type":"uint256"}],"name":"addCollateral","outputs":[],"stateMutability":"nonpayable","type":"function"},{"inputs":[],"name":"bentoBox","outputs":[{"internalType":"contract IBentoBoxV1","name":"","type":"address"}],"stateMutability":"view","type":"function"},{"inputs":[{"internalType":"address","name":"","type":"address"}],"name":"blacklistedCallees","outputs":[{"internalType":"bool","name":"","type":"bool"}],"stateMutability":"view","type":"function"},{"inputs":[{"internalType":"address","name":"to","type":"address"},{"internalType":"uint256","name":"amount","type":"uint256"}],"name":"borrow","outputs":[{"internalType":"uint256","name":"part","type":"uint256"},{"internalType":"uint256","name":"share","type":"uint256"}],"stateMutability":"nonpayable","type":"function"},{"inputs":[],"name":"borrowLimit","outputs":[{"internalType":"uint128","name":"total","type":"uint128"},{"internalType":"uint128","name":"borrowPartPerAddress","type":"uint128"}],"stateMutability":"view","type":"function"},{"inputs":[{"internalType":"uint128","name":"newBorrowLimit","type":"uint128"},{"internalType":"uint128","name":"perAddressPart","type":"uint128"}],"name":"changeBorrowLimit","outputs":[],"stateMutability":"nonpayable","type":"function"},{"inputs":[{"internalType":"uint64","name":"newInterestRate","type":"uint64"}],"name":"changeInterestRate","outputs":[],"stateMutability":"nonpayable","type":"function"},{"inputs":[],"name":"collateral","outputs":[{"internalType":"contract IERC20","name":"","type":"address"}],"stateMutability":"view","type":"function"},{"inputs":[{"internalType":"uint8[]","name":"actions","type":"uint8[]"},{"internalType":"uint256[]","name":"values","type":"uint256[]"},{"internalType":"bytes[]","name":"datas","type":"bytes[]"}],"name":"cook","outputs":[{"internalType":"uint256","name":"value1","type":"uint256"},{"internalType":"uint256","name":"value2","type":"uint256"}],"stateMutability":"payable","type":"function"},{"inputs":[],"name":"exchangeRate","outputs":[{"internalType":"uint256","name":"","type":"uint256"}],"stateMutability":"view","type":"function"},{"inputs":[],"name":"feeTo","outputs":[{"internalType":"address","name":"","type":"address"}],"stateMutability":"view","type":"function"},{"inputs":[{"internalType":"bytes","name":"data","type":"bytes"}],"name":"init","outputs":[],"stateMutability":"payable","type":"function"},{"inputs":[{"internalType":"address","name":"user","type":"address"}],"name":"isSolvent","outputs":[{"internalType":"bool","name":"","type":"bool"}],"stateMutability":"view","type":"function"},{"inputs":[{"internalType":"address[]","name":"users","type":"address[]"},{"internalType":"uint256[]","name":"maxBorrowParts","type":"uint256[]"},{"internalType":"address","name":"to","type":"address"},{"internalType":"contract ISwapperV2","name":"swapper","type":"address"},{"internalType":"bytes","name":"swapperData","type":"bytes"}],"name":"liquidate","outputs":[],"stateMutability":"nonpayable","type":"function"},{"inputs":[],"name":"magicInternetMoney","outputs":[{"internalType":"contract IERC20","name":"","type":"address"}],"stateMutability":"view","type":"function"},{"inputs":[],"name":"masterContract","outputs":[{"internalType":"contract CauldronV4","name":"","type":"address"}],"stateMutability":"view","type":"function"},{"inputs":[],"name":"oracle","outputs":[{"internalType":"contract IOracle","name":"","type":"address"}],"stateMutability":"view","type":"function"},{"inputs":[],"name":"oracleData","outputs":[{"internalType":"bytes","name":"","type":"bytes"}],"stateMutability":"view","type":"function"},{"inputs":[],"name":"owner","outputs":[{"internalType":"address","name":"","type":"address"}],"stateMutability":"view","type":"function"},{"inputs":[{"internalType":"uint256","name":"amount","type":"uint256"}],"name":"reduceSupply","outputs":[],"stateMutability":"nonpayable","type":"function"},{"inputs":[{"internalType":"address","name":"to","type":"address"},{"internalType":"uint256","name":"share","type":"uint256"}],"name":"removeCollateral","outputs":[],"stateMutability":"nonpayable","type":"function"},{"inputs":[{"internalType":"address","name":"to","type":"address"},{"internalType":"bool","name":"skim","type":"bool"},{"internalType":"uint256","name":"part","type":"uint256"}],"name":"repay","outputs":[{"internalType":"uint256","name":"amount","type":"uint256"}],"stateMutability":"nonpayable","type":"function"},{"inputs":[{"internalType":"address","name":"callee","type":"address"},{"internalType":"bool","name":"blacklisted","type":"bool"}],"name":"setBlacklistedCallee","outputs":[],"stateMutability":"nonpayable","type":"function"},{"inputs":[{"internalType":"uint256","name":"_borrowOpeningFee","type":"uint256"}],"name":"setBorrowOpeningFee","outputs":[],"stateMutability":"nonpayable","type":"function"},{"inputs":[{"internalType":"uint256","name":"_collateralizationRate","type":"uint256"}],"name":"setCollateralizationRate","outputs":[],"stateMutability":"nonpayable","type":"function"},{"inputs":[{"internalType":"address","name":"newFeeTo","type":"address"}],"name":"setFeeTo","outputs":[],"stateMutability":"nonpayable","type":"function"},{"inputs":[{"internalType":"uint256","name":"_liquidationMultiplier","type":"uint256"}],"name":"setLiquidationMultiplier","outputs":[],"stateMutability":"nonpayable","type":"function"},{"inputs":[],"name":"totalBorrow","outputs":[{"internalType":"uint128","name":"elastic","type":"uint128"},{"internalType":"uint128","name":"base","type":"uint128"}],"stateMutability":"view","type":"function"},{"inputs":[],"name":"totalCollateralShare","outputs":[{"internalType":"uint256","name":"","type":"uint256"}],"stateMutability":"view","type":"function"},{"inputs":[{"internalType":"address","name":"newOwner","type":"address"}],"name":"transferOwnership","outputs":[],"stateMutability":"nonpayable","type":"function"},{"inputs":[],"name":"updateExchangeRate","outputs":[{"internalType":"bool","name":"updated","type":"bool"},{"internalType":"uint256","name":"rate","type":"uint256"}],"stateMutability":"nonpayable","type":"function"},{"inputs":[{"internalType":"address","name":"","type":"address"}],"name":"userBorrowPart","outputs":[{"internalType":"uint256","name":"","type":"uint256"}],"stateMutability":"view","type":"function"},{"inputs":[{"internalType":"address","name":"","type":"address"}],"name":"userCollateralShare","outputs":[{"internalType":"uint256","name":"","type":"uint256"}],"stateMutability":"view","type":"function"},{"inputs":[],"name":"withdrawFees","outputs":[],"stateMutability":"nonpayable","type":"function"}],"evm":{"bytecode":{"linkReferences":{},"object":"60e06040523480156200001157600080fd5b50604051620053ad380380620053ad83398101604081905262000034916200016c565b600080546001600160a01b031916339081178255604051909182917f8be0079c531659141344cd1fd0a4f28419497f9722a3daafe3b4186f6b6457e0908290a3506001600160a01b03828116608081905290821660c0523060a08190526000828152600a602081815260408084208054600160ff199182168117909255958552818520805490961681179095558051638da5cb5b60e01b8152905194959294638da5cb5b926004808401939192918290030181865afa158015620000fc573d6000803e3d6000fd5b505050506040513d601f19601f82011682018060405250810190620001229190620001ab565b6001600160a01b031681526020810191909152604001600020805460ff191691151591909117905550620001d29050565b6001600160a01b03811681146200016957600080fd5b50565b600080604083850312156200018057600080fd5b82516200018d8162000153565b6020840151909250620001a08162000153565b809150509250929050565b600060208284031215620001be57600080fd5b8151620001cb8162000153565b9392505050565b60805160a05160c05161503f6200036e600039600081816105bd01528181610c0b01528181610cbf01528181610fa701528181611a1301528181611e1301528181611f7c01528181612d3001528181612e6401528181612f1d01528181612fd201528181613117015281816131b80152818161364d01526137000152600081816106bc015281816108e301528181610a1c01528181610b2d01528181610dd40152818161117301528181611d54015281816121240152818161221701526124d701526000818161046601528181610bd601528181610c9201528181610f7701528181611017015281816115d8015281816117900152818161186e015281816119e401528181611e4d01528181611f4f01528181612070015281816122c90152818161285601528181612d0301528181612dbb01528181612ef001528181612fa5015281816130e801528181613189015281816131e40152818161326e0152818161338e01528181613618015281816136d30152818161387301528181613929015281816139f601528181613e2a0152613f00015261503f6000f3fe6080604052600436106102305760003560e01c8063806234441161012e578063cd446e22116100ab578063f2fde38b1161006f578063f2fde38b14610769578063f46901ed14610789578063f7dad434146107a9578063f8ba4cff146107c9578063ff6ff84b146107de57600080fd5b8063cd446e22146106aa578063d8dfeb45146106de578063e551d11d146106fe578063ec7eb7e914610729578063eeae797b1461074957600080fd5b80639b352ae1116100f25780639b352ae1146105ab578063aba024f4146105df578063b27c0e74146105f5578063c7ee2a7b14610664578063cb0dc5481461067a57600080fd5b806380623444146104e05780638285ef4014610500578063860ffea11461054b578063876467f81461056b5780638da5cb5b1461058b57600080fd5b8063476343ee116101bc578063656f3d6411610180578063656f3d64146104415780636b2ace87146104545780636ec097fb1461048857806374645ff31461049e5780637dc0d1d0146104c057600080fd5b8063476343ee1461039757806348e4163e146103ac5780634b8a3529146103d95780634ddf47d41461040e5780635100b5671461042157600080fd5b80631cd4c966116102035780631cd4c966146102f95780631e35078e1461031b57806338b51ce11461033b5780633ba0b9a91461036b578063473e3ce71461038157600080fd5b8063017e7e581461023557806302ce728f1461027257806315294c401461029e5780631c9e379b146102cc575b600080fd5b34801561024157600080fd5b50600154610255906001600160a01b031681565b6040516001600160a01b0390911681526020015b60405180910390f35b34801561027e57600080fd5b506102876107fe565b604080519215158352602083019190915201610269565b3480156102aa57600080fd5b506102be6102b93660046140cd565b6108c4565b604051908152602001610269565b3480156102d857600080fd5b506102be6102e736600461410e565b60086020526000908152604090205481565b34801561030557600080fd5b50610319610314366004614147565b6108e1565b005b34801561032757600080fd5b50610319610336366004614162565b610a1a565b34801561034757600080fd5b5061035b61035636600461410e565b610b0d565b6040519015158152602001610269565b34801561037757600080fd5b506102be600b5481565b34801561038d57600080fd5b506102be60065481565b3480156103a357600080fd5b50610319610b21565b3480156103b857600080fd5b506102be6103c736600461410e565b60096020526000908152604090205481565b3480156103e557600080fd5b506103f96103f436600461417b565b610d75565b60408051928352602083019190915201610269565b61031961041c3660046141a7565b610dca565b34801561042d57600080fd5b5061031961043c366004614162565b611171565b6103f961044f366004614263565b611264565b34801561046057600080fd5b506102557f000000000000000000000000000000000000000000000000000000000000000081565b34801561049457600080fd5b506102be600e5481565b3480156104aa57600080fd5b506104b3611cc4565b604051610269919061434c565b3480156104cc57600080fd5b50600354610255906001600160a01b031681565b3480156104ec57600080fd5b506103196104fb366004614162565b611d52565b34801561050c57600080fd5b5060075461052b906001600160801b0380821691600160801b90041682565b604080516001600160801b03938416815292909116602083015201610269565b34801561055757600080fd5b506103196105663660046140cd565b611ff5565b34801561057757600080fd5b5061031961058636600461417b565b6120d8565b34801561059757600080fd5b50600054610255906001600160a01b031681565b3480156105b757600080fd5b506102557f000000000000000000000000000000000000000000000000000000000000000081565b3480156105eb57600080fd5b506102be600f5481565b34801561060157600080fd5b50600c54610632906001600160401b03808216916001600160801b03600160401b82041691600160c01b9091041683565b604080516001600160401b0394851681526001600160801b039093166020840152921691810191909152606001610269565b34801561067057600080fd5b506102be600d5481565b34801561068657600080fd5b5061035b61069536600461410e565b600a6020526000908152604090205460ff1681565b3480156106b657600080fd5b506102557f000000000000000000000000000000000000000000000000000000000000000081565b3480156106ea57600080fd5b50600254610255906001600160a01b031681565b34801561070a57600080fd5b5060055461052b906001600160801b0380821691600160801b90041682565b34801561073557600080fd5b50610319610744366004614162565b612122565b34801561075557600080fd5b5061031961076436600461435f565b612215565b34801561077557600080fd5b5061031961078436600461410e565b6123ae565b34801561079557600080fd5b506103196107a436600461410e565b612442565b3480156107b557600080fd5b506103196107c43660046143ad565b6124d5565b3480156107d557600080fd5b506103196125f0565b3480156107ea57600080fd5b506103196107f9366004614593565b612816565b60035460405163d6d7d52560e01b815260009182916001600160a01b039091169063d6d7d5259061083390600490810161467e565b60408051808303816000875af1158015610851573d6000803e3d6000fd5b505050506040513d601f19601f820116820180604052508101906108759190614719565b909250905081156108bc57600b8190556040518181527f9f9192b5edb17356c524e08d9e025c8e2f6307e6ea52fb7968faa3081f51c3c89060200160405180910390a19091565b50600b549091565b60006108ce6125f0565b6108d984848461303f565b949350505050565b7f00000000000000000000000000000000000000000000000000000000000000006001600160a01b0316638da5cb5b6040518163ffffffff1660e01b8152600401602060405180830381865afa15801561093f573d6000803e3d6000fd5b505050506040513d601f19601f820116820180604052508101906109639190614747565b6001600160a01b0316336001600160a01b03161461099c5760405162461bcd60e51b815260040161099390614764565b60405180910390fd5b6109a46125f0565b600c5460408051600160c01b9092046001600160401b039081168352831660208301527f76bc92b92b7755bcb03b25070431a80435c4d3fbf91c6c81c0c0cc350f6b5c6a910160405180910390a1600c80546001600160401b03909216600160c01b026001600160c01b03909216919091179055565b7f00000000000000000000000000000000000000000000000000000000000000006001600160a01b0316638da5cb5b6040518163ffffffff1660e01b8152600401602060405180830381865afa158015610a78573d6000803e3d6000fd5b505050506040513d601f19601f82011682018060405250810190610a9c9190614747565b6001600160a01b0316336001600160a01b031614610acc5760405162461bcd60e51b815260040161099390614764565b600d5460408051918252602082018390527f57eec44a5232b75b6ec0bcc71b82495f7de44ea4279afe1aa3e867dd521a075e910160405180910390a1600d55565b6000610b1b82600b546132e1565b92915050565b610b296125f0565b60007f00000000000000000000000000000000000000000000000000000000000000006001600160a01b031663017e7e586040518163ffffffff1660e01b8152600401602060405180830381865afa158015610b89573d6000803e3d6000fd5b505050506040513d601f19601f82011682018060405250810190610bad9190614747565b600c54604051636d289ce560e11b8152919250600160401b90046001600160801b0316906000907f00000000000000000000000000000000000000000000000000000000000000006001600160a01b03169063da5139ca90610c37907f0000000000000000000000000000000000000000000000000000000000000000908690869060040161479b565b602060405180830381865afa158015610c54573d6000803e3d6000fd5b505050506040513d601f19601f82011682018060405250810190610c7891906147be565b604051633c6340f360e21b81529091506001600160a01b037f0000000000000000000000000000000000000000000000000000000000000000169063f18d03cc90610ced907f0000000000000000000000000000000000000000000000000000000000000000903090889087906004016147d7565b600060405180830381600087803b158015610d0757600080fd5b505af1158015610d1b573d6000803e3d6000fd5b5050600c8054600160401b600160c01b031916905550506040518281526001600160a01b038416907fbe641c3ffc44b2d6c184f023fa4ed7bda4b6ffa71e03b3c98ae0c776da1f17e79060200160405180910390a2505050565b600080610d806125f0565b610d8a8484613449565b90925090506000610d996107fe565b915050610da633826132e1565b610dc25760405162461bcd60e51b815260040161099390614801565b509250929050565b6001600160a01b037f0000000000000000000000000000000000000000000000000000000000000000163003610e1357604051637e933e4b60e11b815260040160405180910390fd5b6002546001600160a01b031615610e6c5760405162461bcd60e51b815260206004820152601d60248201527f4361756c64726f6e3a20616c726561647920696e697469616c697a65640000006044820152606401610993565b610e7881830183614838565b600f819055600d829055600e839055600c80546001600160c01b0316600160c01b6001600160401b03871602179055600260006003816004610eba8a8261490d565b50815461010091820a6001600160a01b03818102199092169b8216029a909a17909155825491900a8089021990911698881602979097179096555050604080518082019091526001600160801b038082526020909101525050600019600555600254169050610f605760405162461bcd60e51b815260206004820152601260248201527121b0bab6323937b71d103130b2103830b4b960711b6044820152606401610993565b60405163095ea7b360e01b81526001600160a01b037f00000000000000000000000000000000000000000000000000000000000000008116600483015260001960248301527f0000000000000000000000000000000000000000000000000000000000000000169063095ea7b3906044016020604051808303816000875af1158015610ff0573d6000803e3d6000fd5b505050506040513d601f19601f8201168201806040525081019061101491906149cc565b507f00000000000000000000000000000000000000000000000000000000000000006001600160a01b03166000818152600a602081815260408084208054600160ff1991821681179092553086528286208054909116821790558151638da5cb5b60e01b81529151909593949392638da5cb5b92600480820193918290030181865afa1580156110a8573d6000803e3d6000fd5b505050506040513d601f19601f820116820180604052508101906110cc9190614747565b6001600160a01b03908116825260208201929092526040908101600020805460ff191693151593909317909255600354915163d6d7d52560e01b815291169063d6d7d5259061111f90600490810161467e565b60408051808303816000875af115801561113d573d6000803e3d6000fd5b505050506040513d601f19601f820116820180604052508101906111619190614719565b600b555061116d6125f0565b5050565b7f00000000000000000000000000000000000000000000000000000000000000006001600160a01b0316638da5cb5b6040518163ffffffff1660e01b8152600401602060405180830381865afa1580156111cf573d6000803e3d6000fd5b505050506040513d601f19601f820116820180604052508101906111f39190614747565b6001600160a01b0316336001600160a01b0316146112235760405162461bcd60e51b815260040161099390614764565b600f5460408051918252602082018390527f4216a3e7a11e36090889fb0df2992ee9a622c5e97f8498a468c2b3474fa1d3a0910160405180910390a1600f55565b6040805180820190915260008082526020820181905290819060005b88811015611c7b5760008a8a8381811061129c5761129c6149e9565b90506020020160208101906112b19190614a0e565b905082602001511580156112c85750600a8160ff16105b156112dd576112d56125f0565b600160208401525b60091960ff82160161133d576000806000898986818110611300576113006149e9565b90506020028101906113129190614a2b565b81019061131f9190614a71565b9250925092506113358282610566868c8c6137b8565b505050611c72565b60011960ff8216016113a3576000806000898986818110611360576113606149e9565b90506020028101906113729190614a2b565b81019061137f9190614a71565b92509250925061139a8282611395868c8c6137b8565b61303f565b50505050611c72565b60031960ff821601611406576000808888858181106113c4576113c46149e9565b90506020028101906113d69190614a2b565b8101906113e39190614ab3565b915091506113fb816113f6848a8a6137b8565b6137df565b505060018352611c72565b60041960ff82160161146f57600080888885818110611427576114276149e9565b90506020028101906114399190614a2b565b8101906114469190614ab3565b9150915061145e81611459848a8a6137b8565b613449565b600187529097509550611c72915050565b600a1960ff82160161153c576000806000898986818110611492576114926149e9565b90506020028101906114a49190614a2b565b8101906114b19190614ad8565b9250925092506000806114c26107fe565b915091508415806114d05750815b80156114db57508381115b80156114ee57508215806114ee57508281105b6115325760405162461bcd60e51b81526020600482015260156024820152744361756c64726f6e3a2072617465206e6f74206f6b60581b6044820152606401610993565b5050505050611c72565b60171960ff821601611641576000806000806000808c8c89818110611563576115636149e9565b90506020028101906115759190614a2b565b8101906115829190614b0d565b60405163c0a47c9360e01b81526001600160a01b0387811660048301528681166024830152851515604483015260ff851660648301526084820184905260a48201839052969c50949a50929850909650945092507f00000000000000000000000000000000000000000000000000000000000000009091169063c0a47c939060c401600060405180830381600087803b15801561161e57600080fd5b505af1158015611632573d6000803e3d6000fd5b50505050505050505050611c72565b60131960ff8216016116d5576116cb878784818110611662576116626149e9565b90506020028101906116749190614a2b565b8080601f0160208091040260200160405190810160405280939291908181526020018383808284376000920191909152508d92508c91508690508181106116bd576116bd6149e9565b9050602002013587876138e8565b9095509350611c72565b60141960ff821601611746576116cb8787848181106116f6576116f66149e9565b90506020028101906117089190614a2b565b8080601f0160208091040260200160405190810160405280939291908181526020018383808284376000920191909152508992508891506139cf9050565b60151960ff821601611824576000806000898986818110611769576117696149e9565b905060200281019061177b9190614a2b565b8101906117889190614b7b565b9250925092507f00000000000000000000000000000000000000000000000000000000000000006001600160a01b031663f18d03cc8433856117cb868e8e6137b8565b6040518563ffffffff1660e01b81526004016117ea94939291906147d7565b600060405180830381600087803b15801561180457600080fd5b505af1158015611818573d6000803e3d6000fd5b50505050505050611c72565b60161960ff8216016118be576000806000898986818110611847576118476149e9565b90506020028101906118599190614a2b565b8101906118669190614bab565b9250925092507f00000000000000000000000000000000000000000000000000000000000000006001600160a01b0316630fca8843843385856040518563ffffffff1660e01b81526004016117ea9493929190614c20565b601d1960ff8216016119a15760008061194b8b8b868181106118e2576118e26149e9565b905060200201358a8a878181106118fb576118fb6149e9565b905060200281019061190d9190614a2b565b8080601f0160208091040260200160405190810160405280939291908181526020018383808284376000920191909152508c92508b9150613aae9050565b915091508060ff16600103611975578180602001905181019061196e91906147be565b965061199a565b8060ff1660020361199a57818060200190518101906119949190614cbb565b90975095505b5050611c72565b60051960ff821601611ad95760008787848181106119c1576119c16149e9565b90506020028101906119d39190614a2b565b8101906119e09190614162565b90507f00000000000000000000000000000000000000000000000000000000000000006001600160a01b031663da5139ca7f0000000000000000000000000000000000000000000000000000000000000000611a70611a40858b8b6137b8565b604080518082019091526007546001600160801b038082168352600160801b909104166020820152906001613c83565b60016040518463ffffffff1660e01b8152600401611a909392919061479b565b602060405180830381865afa158015611aad573d6000803e3d6000fd5b505050506040513d601f19601f82011682018060405250810190611ad191906147be565b955050611c72565b60061960ff821601611b58576000878784818110611af957611af96149e9565b9050602002810190611b0b9190614a2b565b810190611b189190614162565b9050611ad1611b288288886137b8565b604080518082019091526007546001600160801b038082168352600160801b909104166020820152906000613d21565b601e1960ff821601611b9557611b90878784818110611b7957611b796149e9565b9050602002810190611b8b9190614a2b565b613d96565b611c72565b6000806000611c1a84878e8e89818110611bb157611bb16149e9565b905060200201358d8d8a818110611bca57611bca6149e9565b9050602002810190611bdc9190614a2b565b8080601f0160208091040260200160405190810160405280939291908181526020018383808284376000920191909152508f92508e9150613dc89050565b9250925092508095508160ff16600103611c495782806020019051810190611c4291906147be565b9750611c6e565b8160ff16600203611c6e5782806020019051810190611c689190614cbb565b90985096505b5050505b50600101611280565b50805115611cb8576000611c8d6107fe565b915050611c9a33826132e1565b611cb65760405162461bcd60e51b815260040161099390614801565b505b50965096945050505050565b60048054611cd190614644565b80601f0160208091040260200160405190810160405280929190818152602001828054611cfd90614644565b8015611d4a5780601f10611d1f57610100808354040283529160200191611d4a565b820191906000526020600020905b815481529060010190602001808311611d2d57829003601f168201915b505050505081565b7f00000000000000000000000000000000000000000000000000000000000000006001600160a01b0316638da5cb5b6040518163ffffffff1660e01b8152600401602060405180830381865afa158015611db0573d6000803e3d6000fd5b505050506040513d601f19601f82011682018060405250810190611dd49190614747565b6001600160a01b0316336001600160a01b031614611e045760405162461bcd60e51b815260040161099390614764565b604051633de222bb60e21b81527f00000000000000000000000000000000000000000000000000000000000000006001600160a01b0381811660048401523060248401526000927f00000000000000000000000000000000000000000000000000000000000000009190911691635662311891839063f7888aec90604401602060405180830381865afa158015611e9f573d6000803e3d6000fd5b505050506040513d601f19601f82011682018060405250810190611ec391906147be565b60006040518463ffffffff1660e01b8152600401611ee39392919061479b565b602060405180830381865afa158015611f00573d6000803e3d6000fd5b505050506040513d601f19601f82011682018060405250810190611f2491906147be565b9050818111611f335780611f35565b815b60405163097da6d360e41b81529092506001600160a01b037f000000000000000000000000000000000000000000000000000000000000000016906397da6d3090611fad907f000000000000000000000000000000000000000000000000000000000000000090309033908890600090600401614cdf565b60408051808303816000875af1158015611fcb573d6000803e3d6000fd5b505050506040513d601f19601f82011682018060405250810190611fef9190614cbb565b50505050565b6001600160a01b0383166000908152600860205260409020546120189082613ded565b6001600160a01b03841660009081526008602052604090205560065461203e8183613ded565b600655600254612059906001600160a01b0316838386613df9565b836001600160a01b03168361206e5733612090565b7f00000000000000000000000000000000000000000000000000000000000000005b6001600160a01b03167f9ed03113de523cebfe5e49d5f8e12894b1c0d42ce805990461726444c90eab87846040516120ca91815260200190565b60405180910390a350505050565b6120e06125f0565b6120ea82826137df565b60006120f46107fe565b91505061210133826132e1565b61211d5760405162461bcd60e51b815260040161099390614801565b505050565b7f00000000000000000000000000000000000000000000000000000000000000006001600160a01b0316638da5cb5b6040518163ffffffff1660e01b8152600401602060405180830381865afa158015612180573d6000803e3d6000fd5b505050506040513d601f19601f820116820180604052508101906121a49190614747565b6001600160a01b0316336001600160a01b0316146121d45760405162461bcd60e51b815260040161099390614764565b600e5460408051918252602082018390527f4308679a9f572f4c8fc208e7d44e15ab655281fca9957589fdafa2791787b57a910160405180910390a1600e55565b7f00000000000000000000000000000000000000000000000000000000000000006001600160a01b0316638da5cb5b6040518163ffffffff1660e01b8152600401602060405180830381865afa158015612273573d6000803e3d6000fd5b505050506040513d601f19601f820116820180604052508101906122979190614747565b6001600160a01b0316336001600160a01b0316146122c75760405162461bcd60e51b815260040161099390614764565b7f00000000000000000000000000000000000000000000000000000000000000006001600160a01b0316826001600160a01b03161415801561231257506001600160a01b0382163014155b61234f5760405162461bcd60e51b815260206004820152600e60248201526d696e76616c69642063616c6c656560901b6044820152606401610993565b6001600160a01b0382166000818152600a6020908152604091829020805460ff191685151590811790915591519182527fc5bd4365c17df9e09859dec0d4cd85d49349f6b2d710024a59a124925189615f910160405180910390a25050565b6000546001600160a01b031633146123f75760405162461bcd60e51b815260206004820152600c60248201526b15539055551213d49256915160a21b6044820152606401610993565b600080546001600160a01b0319166001600160a01b0383169081178255604051909133917f8be0079c531659141344cd1fd0a4f28419497f9722a3daafe3b4186f6b6457e09190a350565b6000546001600160a01b0316331461248b5760405162461bcd60e51b815260206004820152600c60248201526b15539055551213d49256915160a21b6044820152606401610993565b600180546001600160a01b0319166001600160a01b0383169081179091556040517fcf1d3f17e521c635e0d20b8acba94ba170afc041d0546d46dafa09d3c9c19eb390600090a250565b7f00000000000000000000000000000000000000000000000000000000000000006001600160a01b0316638da5cb5b6040518163ffffffff1660e01b8152600401602060405180830381865afa158015612533573d6000803e3d6000fd5b505050506040513d601f19601f820116820180604052508101906125579190614747565b6001600160a01b0316336001600160a01b0316146125875760405162461bcd60e51b815260040161099390614764565b6040805180820182526001600160801b038481168083529084166020928301819052600160801b810282176005558351918252918101919091527ff1fce436bc22563026222b3b2bdc088cb69d25192974264114df12ab812628f6910160405180910390a15050565b60408051606081018252600c546001600160401b038082168084526001600160801b03600160401b8404166020850152600160c01b90920416928201929092529060009061263e9042614d29565b90508060000361264c575050565b6001600160401b0342168252604080518082019091526007546001600160801b038082168352600160801b90910416602082018190526000036126e15750508051600c805460208401516040909401516001600160401b03908116600160c01b026001600160c01b036001600160801b03909616600160401b026001600160c01b031990931691909416171792909216179055565b6000612735670de0b6b3a76400006127268561272088604001516001600160401b031687600001516001600160801b0316613f7390919063ffffffff16565b90613f73565b6127309190614d3c565b613f7f565b825190915061274d906001600160801b031682613fad565b6001600160801b039081168352602085015161276a911682613fad565b6001600160801b0390811660208681018290528451858201518416600160801b02908416176007558651600c80546040808b01516001600160401b03908116600160c01b026001600160c01b03600160401b9098026001600160c01b031990941691909516179190911794909416919091179055905191831682527fee527de5e142bcc7fe0eddc4b9a04816d73f6307dd74f9204585910d60a8c083910160405180910390a150505050565b60006128206107fe565b91505061282b6125f0565b600254604051634ffe34db60e01b81526001600160a01b0391821660048201526000918291829182917f000000000000000000000000000000000000000000000000000000000000000090911690634ffe34db906024016040805180830381865afa15801561289e573d6000803e3d6000fd5b505050506040513d601f19601f820116820180604052508101906128c29190614d5e565b905060005b8a51811015612b5d5760008b82815181106128e4576128e46149e9565b602002602001015190506128f881886132e1565b612b54576001600160a01b0381166000908152600960205260408120548c5181908e908690811061292b5761292b6149e9565b602002602001015111612957578c848151811061294a5761294a6149e9565b6020026020010151612959565b805b604080518082019091526007546001600160801b038082168352600160801b909104166020820152909250600090612992908483613c83565b905060006129da6129ae670de0b6b3a7640000620186a0614dbc565b6129c78d612720600e5487613f7390919063ffffffff16565b6129d19190614d3c565b88906000613d21565b90506129e68385613fb9565b6001600160a01b038616600090815260096020908152604080832093909355600890522054612a159082613fb9565b6001600160a01b0386166000908152600860205260409020558d6001600160a01b0316856001600160a01b03167f8ad4d3ff00da092c7ad9a573ea4f5f6a3dffc6712dc06d3f78f49b862297c40283604051612a7391815260200190565b60405180910390a360408051838152602081018690526001600160a01b0387169133917fc8e512d8f188ca059984b5853d2bf653da902696b8512785b182b2c813789a6e910160405180910390a38d6001600160a01b0316856001600160a01b0316336001600160a01b03167f66b108dc29b952efc76dccea9b82dce6b59fab4d9af73d8dcc9789afcad5daf6848689604051612b23939291909283526020830191909152604082015260600190565b60405180910390a4612b358a82613ded565b9950612b418983613ded565b9850612b4d8885613ded565b9750505050505b506001016128c7565b5082600003612bae5760405162461bcd60e51b815260206004820152601960248201527f4361756c64726f6e3a20616c6c2061726520736f6c76656e74000000000000006044820152606401610993565b612bcc612bba84613f7f565b6007546001600160801b031690613fc5565b600780546fffffffffffffffffffffffffffffffff19166001600160801b0392909216919091179055612c1a612c0183613f7f565b600754600160801b90046001600160801b031690613fc5565b600780546001600160801b03928316600160801b029216919091179055600654612c449085613fb9565b60068190555060006064612c80600a61272087620186a0612c70600e548b613f7390919063ffffffff16565b612c7a9190614d3c565b90613fb9565b612c8a9190614d3c565b9050612c968482613ded565b9350612cbd612ca482613f7f565b600c54600160401b90046001600160801b031690613fad565b600c80546001600160801b0392909216600160401b02600160401b600160c01b031990921691909117905550604051636d289ce560e11b81526000906001600160a01b037f0000000000000000000000000000000000000000000000000000000000000000169063da5139ca90612d5d907f000000000000000000000000000000000000000000000000000000000000000090889060019060040161479b565b602060405180830381865afa158015612d7a573d6000803e3d6000fd5b505050506040513d601f19601f82011682018060405250810190612d9e91906147be565b600254604051633c6340f360e21b81529192506001600160a01b037f000000000000000000000000000000000000000000000000000000000000000081169263f18d03cc92612df792169030908e908b906004016147d7565b600060405180830381600087803b158015612e1157600080fd5b505af1158015612e25573d6000803e3d6000fd5b505050506001600160a01b03881615612ed95760025460405163a5d4096b60e01b81526001600160a01b038a81169263a5d4096b92612e9492909116907f000000000000000000000000000000000000000000000000000000000000000090339087908c908f90600401614dd3565b60408051808303816000875af1158015612eb2573d6000803e3d6000fd5b505050506040513d601f19601f82011682018060405250810190612ed69190614cbb565b50505b604051636d289ce560e11b81526001600160a01b037f0000000000000000000000000000000000000000000000000000000000000000169063da5139ca90612f4a907f000000000000000000000000000000000000000000000000000000000000000090889060019060040161479b565b602060405180830381865afa158015612f67573d6000803e3d6000fd5b505050506040513d601f19601f82011682018060405250810190612f8b91906147be565b604051633c6340f360e21b81529091506001600160a01b037f0000000000000000000000000000000000000000000000000000000000000000169063f18d03cc90613000907f0000000000000000000000000000000000000000000000000000000000000000903390309087906004016147d7565b600060405180830381600087803b15801561301a57600080fd5b505af115801561302e573d6000803e3d6000fd5b505050505050505050505050505050565b604080518082019091526007546001600160801b038082168352600160801b90910416602082015260009061307690836001613fd1565b81516020928301516001600160801b03908116600160801b029116176007556001600160a01b038616600090815260099092526040909120549091506130bc9083613fb9565b6001600160a01b03808616600090815260096020526040808220939093559151636d289ce560e11b81527f00000000000000000000000000000000000000000000000000000000000000009091169063da5139ca90613144907f000000000000000000000000000000000000000000000000000000000000000090869060019060040161479b565b602060405180830381865afa158015613161573d6000803e3d6000fd5b505050506040513d601f19601f8201168201806040525081019061318591906147be565b90507f00000000000000000000000000000000000000000000000000000000000000006001600160a01b031663f18d03cc7f0000000000000000000000000000000000000000000000000000000000000000866131e25733613204565b7f00000000000000000000000000000000000000000000000000000000000000005b30856040518563ffffffff1660e01b815260040161322594939291906147d7565b600060405180830381600087803b15801561323f57600080fd5b505af1158015613253573d6000803e3d6000fd5b50505050846001600160a01b03168461326c573361328e565b7f00000000000000000000000000000000000000000000000000000000000000005b6001600160a01b03167fc8e512d8f188ca059984b5853d2bf653da902696b8512785b182b2c813789a6e84866040516132d1929190918252602082015260400190565b60405180910390a3509392505050565b6001600160a01b03821660009081526009602052604081205480820361330b576001915050610b1b565b6001600160a01b0384166000908152600860205260408120549081900361333757600092505050610b1b565b604080518082019091526007546001600160801b03808216808452600160801b909204166020830181905290613374908790612720908790613f73565b61337e9190614d3c565b600254600d546001600160a01b037f00000000000000000000000000000000000000000000000000000000000000008116926356623118929116906133dc906127206133d5620186a0670de0b6b3a7640000614d3c565b8990613f73565b60006040518463ffffffff1660e01b81526004016133fc9392919061479b565b602060405180830381865afa158015613419573d6000803e3d6000fd5b505050506040513d601f19601f8201168201806040525081019061343d91906147be565b10159695505050505050565b6000806000620186a0613467600f5486613f7390919063ffffffff16565b6134719190614d3c565b90506134b06134808583613ded565b604080518082019091526007546001600160801b038082168352600160801b909104166020820152906001614046565b81516020928301516001600160801b03908116600160801b90810292821683811760075560408051808201909152600554808516808352939004841696810196909652939750911690911711156135405760405162461bcd60e51b8152602060048201526014602482015273109bdc9c9bddc8131a5b5a5d081c995858da195960621b6044820152606401610993565b600c5461355d90600160401b90046001600160801b031683613fad565b600c80546001600160801b0392909216600160401b02600160401b600160c01b0319909216919091179055336000908152600960205260408120546135a29086613ded565b905081602001516001600160801b03168111156135f85760405162461bcd60e51b8152602060048201526014602482015273109bdc9c9bddc8131a5b5a5d081c995858da195960621b6044820152606401610993565b3360009081526009602052604080822083905551636d289ce560e11b81527f00000000000000000000000000000000000000000000000000000000000000006001600160a01b03169163da5139ca91613678917f0000000000000000000000000000000000000000000000000000000000000000918b919060040161479b565b602060405180830381865afa158015613695573d6000803e3d6000fd5b505050506040513d601f19601f820116820180604052508101906136b991906147be565b604051633c6340f360e21b81529094506001600160a01b037f0000000000000000000000000000000000000000000000000000000000000000169063f18d03cc9061372e907f00000000000000000000000000000000000000000000000000000000000000009030908c908a906004016147d7565b600060405180830381600087803b15801561374857600080fd5b505af115801561375c573d6000803e3d6000fd5b5050506001600160a01b0388169050337fb92cb6bca8e3270b9170930f03b17571e55791acdb1a0e9f339eec88bdb35e246137978987613ded565b60408051918252602082018a90520160405180910390a35050509250929050565b6000808412156137d75760001984146137d157816108d9565b826108d9565b509192915050565b336000908152600860205260409020546137f99082613fb9565b336000908152600860205260409020556006546138169082613fb9565b6006556040518181526001600160a01b0383169033907f8ad4d3ff00da092c7ad9a573ea4f5f6a3dffc6712dc06d3f78f49b862297c4029060200160405180910390a3600254604051633c6340f360e21b81526001600160a01b037f000000000000000000000000000000000000000000000000000000000000000081169263f18d03cc926138b29291909116903090879087906004016147d7565b600060405180830381600087803b1580156138cc57600080fd5b505af11580156138e0573d6000803e3d6000fd5b505050505050565b600080600080600080898060200190518101906139059190614e21565b93509350935093506139188289896137b8565b91506139258189896137b8565b90507f00000000000000000000000000000000000000000000000000000000000000006001600160a01b03166302b9446c8a86338787876040518763ffffffff1660e01b815260040161397c959493929190614cdf565b604080518083038185885af1158015613999573d6000803e3d6000fd5b50505050506040513d601f19601f820116820180604052508101906139be9190614cbb565b955095505050505094509492505050565b600080600080600080888060200190518101906139ec9190614e21565b93509350935093507f00000000000000000000000000000000000000000000000000000000000000006001600160a01b03166397da6d30853386613a31878e8e6137b8565b613a3c878f8f6137b8565b6040518663ffffffff1660e01b8152600401613a5c959493929190614cdf565b60408051808303816000875af1158015613a7a573d6000803e3d6000fd5b505050506040513d601f19601f82011682018060405250810190613a9e9190614cbb565b9550955050505050935093915050565b606060008060008060008089806020019051810190613acd9190614e74565b94509450945094509450828015613ae2575081155b15613b10578389604051602001613afa929190614f31565b6040516020818303038152906040529350613b69565b82158015613b1b5750815b15613b33578388604051602001613afa929190614f31565b828015613b3d5750815b15613b6957838989604051602001613b5793929190614f53565b60405160208183030381529060405293505b6001600160a01b0385166000908152600a602052604090205460ff1615613bc95760405162461bcd60e51b815260206004820152601460248201527310d85d5b191c9bdb8e8818d85b89dd0818d85b1b60621b6044820152606401610993565b600080866001600160a01b03168d87604051613be59190614f7a565b60006040518083038185875af1925050503d8060008114613c22576040519150601f19603f3d011682016040523d82523d6000602084013e613c27565b606091505b509150915081613c715760405162461bcd60e51b815260206004820152601560248201527410d85d5b191c9bdb8e8818d85b1b0819985a5b1959605a1b6044820152606401610993565b9c919b50909950505050505050505050565b600083602001516001600160801b0316600003613ca1575081613d1a565b602084015184516001600160801b0391821691613cbf911685614dbc565b613cc99190614d3c565b9050818015613d0757508284600001516001600160801b031685602001516001600160801b031683613cfb9190614dbc565b613d059190614d3c565b105b15613d1a5780613d1681614f96565b9150505b9392505050565b82516000906001600160801b03168103613d3c575081613d1a565b835160208501516001600160801b0391821691613d5a911685614dbc565b613d649190614d3c565b9050818015613d0757508284602001516001600160801b031685600001516001600160801b031683613cfb9190614dbc565b600080808080613da886880188614593565b94509450945094509450613dbf8585858585612816565b50505050505050565b6040805180820190915260008082526020820181905260609196509650969350505050565b6000613d1a8284614faf565b8015613ee957604051633de222bb60e21b81526001600160a01b038581166004830152306024830152613e959184917f0000000000000000000000000000000000000000000000000000000000000000169063f7888aec90604401602060405180830381865afa158015613e71573d6000803e3d6000fd5b505050506040513d601f19601f82011682018060405250810190612c7a91906147be565b831115613ee45760405162461bcd60e51b815260206004820152601760248201527f4361756c64726f6e3a20536b696d20746f6f206d7563680000000000000000006044820152606401610993565b611fef565b604051633c6340f360e21b81526001600160a01b037f0000000000000000000000000000000000000000000000000000000000000000169063f18d03cc90613f3b9087903390309089906004016147d7565b600060405180830381600087803b158015613f5557600080fd5b505af1158015613f69573d6000803e3d6000fd5b5050505050505050565b6000613d1a8284614dbc565b60006001600160801b03821115613fa957604051633b13fa2560e11b815260040160405180910390fd5b5090565b6000613d1a8284614fc2565b6000613d1a8284614d29565b6000613d1a8284614fe9565b60408051808201909152600080825260208201526000613ff2858585613c83565b9050613ffd81613f7f565b8551869061400c908390614fe9565b6001600160801b031690525061402184613f7f565b856020018181516140329190614fe9565b6001600160801b0316905250939492505050565b60408051808201909152600080825260208201526000614067858585613d21565b905061407284613f7f565b85518690614081908390614fc2565b6001600160801b031690525061409681613f7f565b856020018181516140329190614fc2565b6001600160a01b03811681146140bc57600080fd5b50565b80151581146140bc57600080fd5b6000806000606084860312156140e257600080fd5b83356140ed816140a7565b925060208401356140fd816140bf565b929592945050506040919091013590565b60006020828403121561412057600080fd5b8135613d1a816140a7565b80356001600160401b038116811461414257600080fd5b919050565b60006020828403121561415957600080fd5b613d1a8261412b565b60006020828403121561417457600080fd5b5035919050565b6000806040838503121561418e57600080fd5b8235614199816140a7565b946020939093013593505050565b600080602083850312156141ba57600080fd5b82356001600160401b03808211156141d157600080fd5b818501915085601f8301126141e557600080fd5b8135818111156141f457600080fd5b86602082850101111561420657600080fd5b60209290920196919550909350505050565b60008083601f84011261422a57600080fd5b5081356001600160401b0381111561424157600080fd5b6020830191508360208260051b850101111561425c57600080fd5b9250929050565b6000806000806000806060878903121561427c57600080fd5b86356001600160401b038082111561429357600080fd5b61429f8a838b01614218565b909850965060208901359150808211156142b857600080fd5b6142c48a838b01614218565b909650945060408901359150808211156142dd57600080fd5b506142ea89828a01614218565b979a9699509497509295939492505050565b60005b838110156143175781810151838201526020016142ff565b50506000910152565b600081518084526143388160208601602086016142fc565b601f01601f19169290920160200192915050565b602081526000613d1a6020830184614320565b6000806040838503121561437257600080fd5b823561437d816140a7565b9150602083013561438d816140bf565b809150509250929050565b6001600160801b03811681146140bc57600080fd5b600080604083850312156143c057600080fd5b82356143cb81614398565b9150602083013561438d81614398565b634e487b7160e01b600052604160045260246000fd5b604051601f8201601f191681016001600160401b0381118282101715614419576144196143db565b604052919050565b60006001600160401b0382111561443a5761443a6143db565b5060051b60200190565b600082601f83011261445557600080fd5b8135602061446a61446583614421565b6143f1565b8083825260208201915060208460051b87010193508684111561448c57600080fd5b602086015b848110156144b15780356144a4816140a7565b8352918301918301614491565b509695505050505050565b600082601f8301126144cd57600080fd5b813560206144dd61446583614421565b8083825260208201915060208460051b8701019350868411156144ff57600080fd5b602086015b848110156144b15780358352918301918301614504565b60006001600160401b03821115614534576145346143db565b50601f01601f191660200190565b600082601f83011261455357600080fd5b81356145616144658261451b565b81815284602083860101111561457657600080fd5b816020850160208301376000918101602001919091529392505050565b600080600080600060a086880312156145ab57600080fd5b85356001600160401b03808211156145c257600080fd5b6145ce89838a01614444565b965060208801359150808211156145e457600080fd5b6145f089838a016144bc565b955060408801359150614602826140a7565b909350606087013590614614826140a7565b9092506080870135908082111561462a57600080fd5b5061463788828901614542565b9150509295509295909350565b600181811c9082168061465857607f821691505b60208210810361467857634e487b7160e01b600052602260045260246000fd5b50919050565b600060208083526000845461469281614644565b80602087015260406001808416600081146146b457600181146146d057614700565b60ff19851660408a0152604084151560051b8a01019550614700565b89600052602060002060005b858110156146f75781548b82018601529083019088016146dc565b8a016040019650505b509398975050505050505050565b8051614142816140bf565b6000806040838503121561472c57600080fd5b8251614737816140bf565b6020939093015192949293505050565b60006020828403121561475957600080fd5b8151613d1a816140a7565b60208082526017908201527f43616c6c6572206973206e6f7420746865206f776e6572000000000000000000604082015260600190565b6001600160a01b0393909316835260208301919091521515604082015260600190565b6000602082840312156147d057600080fd5b5051919050565b6001600160a01b039485168152928416602084015292166040820152606081019190915260800190565b60208082526018908201527f4361756c64726f6e3a207573657220696e736f6c76656e740000000000000000604082015260600190565b600080600080600080600060e0888a03121561485357600080fd5b873561485e816140a7565b9650602088013561486e816140a7565b955060408801356001600160401b0381111561488957600080fd5b6148958a828b01614542565b9550506148a46060890161412b565b9699959850939660808101359560a0820135955060c0909101359350915050565b601f82111561211d576000816000526020600020601f850160051c810160208610156148ee5750805b601f850160051c820191505b818110156138e0578281556001016148fa565b81516001600160401b03811115614926576149266143db565b61493a816149348454614644565b846148c5565b602080601f83116001811461496f57600084156149575750858301515b600019600386901b1c1916600185901b1785556138e0565b600085815260208120601f198616915b8281101561499e5788860151825594840194600190910190840161497f565b50858210156149bc5787850151600019600388901b60f8161c191681555b5050505050600190811b01905550565b6000602082840312156149de57600080fd5b8151613d1a816140bf565b634e487b7160e01b600052603260045260246000fd5b60ff811681146140bc57600080fd5b600060208284031215614a2057600080fd5b8135613d1a816149ff565b6000808335601e19843603018112614a4257600080fd5b8301803591506001600160401b03821115614a5c57600080fd5b60200191503681900382131561425c57600080fd5b600080600060608486031215614a8657600080fd5b833592506020840135614a98816140a7565b91506040840135614aa8816140bf565b809150509250925092565b60008060408385031215614ac657600080fd5b82359150602083013561438d816140a7565b600080600060608486031215614aed57600080fd5b8335614af8816140bf565b95602085013595506040909401359392505050565b60008060008060008060c08789031215614b2657600080fd5b8635614b31816140a7565b95506020870135614b41816140a7565b94506040870135614b51816140bf565b93506060870135614b61816149ff565b9598949750929560808101359460a0909101359350915050565b600080600060608486031215614b9057600080fd5b8335614b9b816140a7565b925060208401356140fd816140a7565b600080600060608486031215614bc057600080fd5b8335614bcb816140a7565b925060208401356001600160401b0380821115614be757600080fd5b614bf387838801614444565b93506040860135915080821115614c0957600080fd5b50614c16868287016144bc565b9150509250925092565b60006080820160018060a01b0380881684526020818816818601526080604086015282875180855260a087019150828901945060005b81811015614c74578551851683529483019491830191600101614c56565b5050858103606087015286518082529082019350915080860160005b83811015614cac57815185529382019390820190600101614c90565b50929998505050505050505050565b60008060408385031215614cce57600080fd5b505080516020909101519092909150565b6001600160a01b03958616815293851660208501529190931660408301526060820192909252608081019190915260a00190565b634e487b7160e01b600052601160045260246000fd5b81810381811115610b1b57610b1b614d13565b600082614d5957634e487b7160e01b600052601260045260246000fd5b500490565b600060408284031215614d7057600080fd5b604051604081018181106001600160401b0382111715614d9257614d926143db565b6040528251614da081614398565b81526020830151614db081614398565b60208201529392505050565b8082028115828204841417610b1b57610b1b614d13565b6001600160a01b038781168252868116602083015285166040820152606081018490526080810183905260c060a08201819052600090614e1590830184614320565b98975050505050505050565b60008060008060808587031215614e3757600080fd5b8451614e42816140a7565b6020860151909450614e53816140a7565b6040860151606090960151949790965092505050565b8051614142816149ff565b600080600080600060a08688031215614e8c57600080fd5b8551614e97816140a7565b60208701519095506001600160401b03811115614eb357600080fd5b8601601f81018813614ec457600080fd5b8051614ed26144658261451b565b818152896020838501011115614ee757600080fd5b614ef88260208301602086016142fc565b9550614f099150506040870161470e565b9250614f176060870161470e565b9150614f2560808701614e69565b90509295509295909350565b60008351614f438184602088016142fc565b9190910191825250602001919050565b60008451614f658184602089016142fc565b91909101928352506020820152604001919050565b60008251614f8c8184602087016142fc565b9190910192915050565b600060018201614fa857614fa8614d13565b5060010190565b80820180821115610b1b57610b1b614d13565b6001600160801b03818116838216019080821115614fe257614fe2614d13565b5092915050565b6001600160801b03828116828216039080821115614fe257614fe2614d1356fea26469706673582212208e2530eaba12ff0d45d8d3d6025017ead8bb632871f68426749ddf80cb7fc01a64736f6c63430008180033","opcodes":"PUSH1 0xE0 PUSH1 0x40 MSTORE CALLVALUE DUP1 ISZERO PUSH3 0x11 JUMPI PUSH1 0x0 DUP1 REVERT JUMPDEST POP PUSH1 0x40 MLOAD PUSH3 0x53AD CODESIZE SUB DUP1 PUSH3 0x53AD DUP4 CODECOPY DUP2 ADD PUSH1 0x40 DUP2 SWAP1 MSTORE PUSH3 0x34 SWAP2 PUSH3 0x16C JUMP JUMPDEST PUSH1 0x0 DUP1 SLOAD PUSH1 0x1 PUSH1 0x1 PUSH1 0xA0 SHL SUB NOT AND CALLER SWAP1 DUP2 OR DUP3 SSTORE PUSH1 0x40 MLOAD SWAP1 SWAP2 DUP3 SWAP2 PUSH32 0x8BE0079C531659141344CD1FD0A4F28419497F9722A3DAAFE3B4186F6B6457E0 SWAP1 DUP3 SWAP1 LOG3 POP PUSH1 0x1 PUSH1 0x1 PUSH1 0xA0 SHL SUB DUP3 DUP2 AND PUSH1 0x80 DUP2 SWAP1 MSTORE SWAP1 DUP3 AND PUSH1 0xC0 MSTORE ADDRESS PUSH1 0xA0 DUP2 SWAP1 MSTORE PUSH1 0x0 DUP3 DUP2 MSTORE PUSH1 0xA PUSH1 0x20 DUP2 DUP2 MSTORE PUSH1 0x40 DUP1 DUP5 KECCAK256 DUP1 SLOAD PUSH1 0x1 PUSH1 0xFF NOT SWAP2 DUP3 AND DUP2 OR SWAP1 SWAP3 SSTORE SWAP6 DUP6 MSTORE DUP2 DUP6 KECCAK256 DUP1 SLOAD SWAP1 SWAP7 AND DUP2 OR SWAP1 SWAP6 SSTORE DUP1 MLOAD PUSH4 0x8DA5CB5B PUSH1 0xE0 SHL DUP2 MSTORE SWAP1 MLOAD SWAP5 SWAP6 SWAP3 SWAP5 PUSH4 0x8DA5CB5B SWAP3 PUSH1 0x4 DUP1 DUP5 ADD SWAP4 SWAP2 SWAP3 SWAP2 DUP3 SWAP1 SUB ADD DUP2 DUP7 GAS STATICCALL ISZERO DUP1 ISZERO PUSH3 0xFC JUMPI RETURNDATASIZE PUSH1 0x0 DUP1 RETURNDATACOPY RETURNDATASIZE PUSH1 0x0 REVERT JUMPDEST POP POP POP POP PUSH1 0x40 MLOAD RETURNDATASIZE PUSH1 0x1F NOT PUSH1 0x1F DUP3 ADD AND DUP3 ADD DUP1 PUSH1 0x40 MSTORE POP DUP2 ADD SWAP1 PUSH3 0x122 SWAP2 SWAP1 PUSH3 0x1AB JUMP JUMPDEST PUSH1 0x1 PUSH1 0x1 PUSH1 0xA0 SHL SUB AND DUP2 MSTORE PUSH1 0x20 DUP2 ADD SWAP2 SWAP1 SWAP2 MSTORE PUSH1 0x40 ADD PUSH1 0x0 KECCAK256 DUP1 SLOAD PUSH1 0xFF NOT AND SWAP2 ISZERO ISZERO SWAP2 SWAP1 SWAP2 OR SWAP1 SSTORE POP PUSH3 0x1D2 SWAP1 POP JUMP JUMPDEST PUSH1 0x1 PUSH1 0x1 PUSH1 0xA0 SHL SUB DUP2 AND DUP2 EQ PUSH3 0x169 JUMPI PUSH1 0x0 DUP1 REVERT JUMPDEST POP JUMP JUMPDEST PUSH1 0x0 DUP1 PUSH1 0x40 DUP4 DUP6 SUB SLT ISZERO PUSH3 0x180 JUMPI PUSH1 0x0 DUP1 REVERT JUMPDEST DUP3 MLOAD PUSH3 0x18D DUP2 PUSH3 0x153 JUMP JUMPDEST PUSH1 0x20 DUP5 ADD MLOAD SWAP1 SWAP3 POP PUSH3 0x1A0 DUP2 PUSH3 0x153 JUMP JUMPDEST DUP1 SWAP2 POP POP SWAP3 POP SWAP3 SWAP1 POP JUMP JUMPDEST PUSH1 0x0 PUSH1 0x20 DUP3 DUP5 SUB SLT ISZERO PUSH3 0x1BE JUMPI PUSH1 0x0 DUP1 REVERT JUMPDEST DUP2 MLOAD PUSH3 0x1CB DUP2 PUSH3 0x153 JUMP JUMPDEST SWAP4 SWAP3 POP POP POP JUMP JUMPDEST PUSH1 0x80 MLOAD PUSH1 0xA0 MLOAD PUSH1 0xC0 MLOAD PUSH2 0x503F PUSH3 0x36E PUSH1 0x0 CODECOPY PUSH1 0x0 DUP2 DUP2 PUSH2 0x5BD ADD MSTORE DUP2 DUP2 PUSH2 0xC0B ADD MSTORE DUP2 DUP2 PUSH2 0xCBF ADD MSTORE DUP2 DUP2 PUSH2 0xFA7 ADD MSTORE DUP2 DUP2 PUSH2 0x1A13 ADD MSTORE DUP2 DUP2 PUSH2 0x1E13 ADD MSTORE DUP2 DUP2 PUSH2 0x1F7C ADD MSTORE DUP2 DUP2 PUSH2 0x2D30 ADD MSTORE DUP2 DUP2 PUSH2 0x2E64 ADD MSTORE DUP2 DUP2 PUSH2 0x2F1D ADD MSTORE DUP2 DUP2 PUSH2 0x2FD2 ADD MSTORE DUP2 DUP2 PUSH2 0x3117 ADD MSTORE DUP2 DUP2 PUSH2 0x31B8 ADD MSTORE DUP2 DUP2 PUSH2 0x364D ADD MSTORE PUSH2 0x3700 ADD MSTORE PUSH1 0x0 DUP2 DUP2 PUSH2 0x6BC ADD MSTORE DUP2 DUP2 PUSH2 0x8E3 ADD MSTORE DUP2 DUP2 PUSH2 0xA1C ADD MSTORE DUP2 DUP2 PUSH2 0xB2D ADD MSTORE DUP2 DUP2 PUSH2 0xDD4 ADD MSTORE DUP2 DUP2 PUSH2 0x1173 ADD MSTORE DUP2 DUP2 PUSH2 0x1D54 ADD MSTORE DUP2 DUP2 PUSH2 0x2124 ADD MSTORE DUP2 DUP2 PUSH2 0x2217 ADD MSTORE PUSH2 0x24D7 ADD MSTORE PUSH1 0x0 DUP2 DUP2 PUSH2 0x466 ADD MSTORE DUP2 DUP2 PUSH2 0xBD6 ADD MSTORE DUP2 DUP2 PUSH2 0xC92 ADD MSTORE DUP2 DUP2 PUSH2 0xF77 ADD MSTORE DUP2 DUP2 PUSH2 0x1017 ADD MSTORE DUP2 DUP2 PUSH2 0x15D8 ADD MSTORE DUP2 DUP2 PUSH2 0x1790 ADD MSTORE DUP2 DUP2 PUSH2 0x186E ADD MSTORE DUP2 DUP2 PUSH2 0x19E4 ADD MSTORE DUP2 DUP2 PUSH2 0x1E4D ADD MSTORE DUP2 DUP2 PUSH2 0x1F4F ADD MSTORE DUP2 DUP2 PUSH2 0x2070 ADD MSTORE DUP2 DUP2 PUSH2 0x22C9 ADD MSTORE DUP2 DUP2 PUSH2 0x2856 ADD MSTORE DUP2 DUP2 PUSH2 0x2D03 ADD MSTORE DUP2 DUP2 PUSH2 0x2DBB ADD MSTORE DUP2 DUP2 PUSH2 0x2EF0 ADD MSTORE DUP2 DUP2 PUSH2 0x2FA5 ADD MSTORE DUP2 DUP2 PUSH2 0x30E8 ADD MSTORE DUP2 DUP2 PUSH2 0x3189 ADD MSTORE DUP2 DUP2 PUSH2 0x31E4 ADD MSTORE DUP2 DUP2 PUSH2 0x326E ADD MSTORE DUP2 DUP2 PUSH2 0x338E ADD MSTORE DUP2 DUP2 PUSH2 0x3618 ADD MSTORE DUP2 DUP2 PUSH2 0x36D3 ADD MSTORE DUP2 DUP2 PUSH2 0x3873 ADD MSTORE DUP2 DUP2 PUSH2 0x3929 ADD MSTORE DUP2 DUP2 PUSH2 0x39F6 ADD MSTORE DUP2 DUP2 PUSH2 0x3E2A ADD MSTORE PUSH2 0x3F00 ADD MSTORE PUSH2 0x503F PUSH1 0x0 RETURN INVALID PUSH1 0x80 PUSH1 0x40 MSTORE PUSH1 0x4 CALLDATASIZE LT PUSH2 0x230 JUMPI PUSH1 0x0 CALLDATALOAD PUSH1 0xE0 SHR DUP1 PUSH4 0x80623444 GT PUSH2 0x12E JUMPI DUP1 PUSH4 0xCD446E22 GT PUSH2 0xAB JUMPI DUP1 PUSH4 0xF2FDE38B GT PUSH2 0x6F JUMPI DUP1 PUSH4 0xF2FDE38B EQ PUSH2 0x769 JUMPI DUP1 PUSH4 0xF46901ED EQ PUSH2 0x789 JUMPI DUP1 PUSH4 0xF7DAD434 EQ PUSH2 0x7A9 JUMPI DUP1 PUSH4 0xF8BA4CFF EQ PUSH2 0x7C9 JUMPI DUP1 PUSH4 0xFF6FF84B EQ PUSH2 0x7DE JUMPI PUSH1 0x0 DUP1 REVERT JUMPDEST DUP1 PUSH4 0xCD446E22 EQ PUSH2 0x6AA JUMPI DUP1 PUSH4 0xD8DFEB45 EQ PUSH2 0x6DE JUMPI DUP1 PUSH4 0xE551D11D EQ PUSH2 0x6FE JUMPI DUP1 PUSH4 0xEC7EB7E9 EQ PUSH2 0x729 JUMPI DUP1 PUSH4 0xEEAE797B EQ PUSH2 0x749 JUMPI PUSH1 0x0 DUP1 REVERT JUMPDEST DUP1 PUSH4 0x9B352AE1 GT PUSH2 0xF2 JUMPI DUP1 PUSH4 0x9B352AE1 EQ PUSH2 0x5AB JUMPI DUP1 PUSH4 0xABA024F4 EQ PUSH2 0x5DF JUMPI DUP1 PUSH4 0xB27C0E74 EQ PUSH2 0x5F5 JUMPI DUP1 PUSH4 0xC7EE2A7B EQ PUSH2 0x664 JUMPI DUP1 PUSH4 0xCB0DC548 EQ PUSH2 0x67A JUMPI PUSH1 0x0 DUP1 REVERT JUMPDEST DUP1 PUSH4 0x80623444 EQ PUSH2 0x4E0 JUMPI DUP1 PUSH4 0x8285EF40 EQ PUSH2 0x500 JUMPI DUP1 PUSH4 0x860FFEA1 EQ PUSH2 0x54B JUMPI DUP1 PUSH4 0x876467F8 EQ PUSH2 0x56B JUMPI DUP1 PUSH4 0x8DA5CB5B EQ PUSH2 0x58B JUMPI PUSH1 0x0 DUP1 REVERT JUMPDEST DUP1 PUSH4 0x476343EE GT PUSH2 0x1BC JUMPI DUP1 PUSH4 0x656F3D64 GT PUSH2 0x180 JUMPI DUP1 PUSH4 0x656F3D64 EQ PUSH2 0x441 JUMPI DUP1 PUSH4 0x6B2ACE87 EQ PUSH2 0x454 JUMPI DUP1 PUSH4 0x6EC097FB EQ PUSH2 0x488 JUMPI DUP1 PUSH4 0x74645FF3 EQ PUSH2 0x49E JUMPI DUP1 PUSH4 0x7DC0D1D0 EQ PUSH2 0x4C0 JUMPI PUSH1 0x0 DUP1 REVERT JUMPDEST DUP1 PUSH4 0x476343EE EQ PUSH2 0x397 JUMPI DUP1 PUSH4 0x48E4163E EQ PUSH2 0x3AC JUMPI DUP1 PUSH4 0x4B8A3529 EQ PUSH2 0x3D9 JUMPI DUP1 PUSH4 0x4DDF47D4 EQ PUSH2 0x40E JUMPI DUP1 PUSH4 0x5100B567 EQ PUSH2 0x421 JUMPI PUSH1 0x0 DUP1 REVERT JUMPDEST DUP1 PUSH4 0x1CD4C966 GT PUSH2 0x203 JUMPI DUP1 PUSH4 0x1CD4C966 EQ PUSH2 0x2F9 JUMPI DUP1 PUSH4 0x1E35078E EQ PUSH2 0x31B JUMPI DUP1 PUSH4 0x38B51CE1 EQ PUSH2 0x33B JUMPI DUP1 PUSH4 0x3BA0B9A9 EQ PUSH2 0x36B JUMPI DUP1 PUSH4 0x473E3CE7 EQ PUSH2 0x381 JUMPI PUSH1 0x0 DUP1 REVERT JUMPDEST DUP1 PUSH4 0x17E7E58 EQ PUSH2 0x235 JUMPI DUP1 PUSH4 0x2CE728F EQ PUSH2 0x272 JUMPI DUP1 PUSH4 0x15294C40 EQ PUSH2 0x29E JUMPI DUP1 PUSH4 0x1C9E379B EQ PUSH2 0x2CC JUMPI JUMPDEST PUSH1 0x0 DUP1 REVERT JUMPDEST CALLVALUE DUP1 ISZERO PUSH2 0x241 JUMPI PUSH1 0x0 DUP1 REVERT JUMPDEST POP PUSH1 0x1 SLOAD PUSH2 0x255 SWAP1 PUSH1 0x1 PUSH1 0x1 PUSH1 0xA0 SHL SUB AND DUP2 JUMP JUMPDEST PUSH1 0x40 MLOAD PUSH1 0x1 PUSH1 0x1 PUSH1 0xA0 SHL SUB SWAP1 SWAP2 AND DUP2 MSTORE PUSH1 0x20 ADD JUMPDEST PUSH1 0x40 MLOAD DUP1 SWAP2 SUB SWAP1 RETURN JUMPDEST CALLVALUE DUP1 ISZERO PUSH2 0x27E JUMPI PUSH1 0x0 DUP1 REVERT JUMPDEST POP PUSH2 0x287 PUSH2 0x7FE JUMP JUMPDEST PUSH1 0x40 DUP1 MLOAD SWAP3 ISZERO ISZERO DUP4 MSTORE PUSH1 0x20 DUP4 ADD SWAP2 SWAP1 SWAP2 MSTORE ADD PUSH2 0x269 JUMP JUMPDEST CALLVALUE DUP1 ISZERO PUSH2 0x2AA JUMPI PUSH1 0x0 DUP1 REVERT JUMPDEST POP PUSH2 0x2BE PUSH2 0x2B9 CALLDATASIZE PUSH1 0x4 PUSH2 0x40CD JUMP JUMPDEST PUSH2 0x8C4 JUMP JUMPDEST PUSH1 0x40 MLOAD SWAP1 DUP2 MSTORE PUSH1 0x20 ADD PUSH2 0x269 JUMP JUMPDEST CALLVALUE DUP1 ISZERO PUSH2 0x2D8 JUMPI PUSH1 0x0 DUP1 REVERT JUMPDEST POP PUSH2 0x2BE PUSH2 0x2E7 CALLDATASIZE PUSH1 0x4 PUSH2 0x410E JUMP JUMPDEST PUSH1 0x8 PUSH1 0x20 MSTORE PUSH1 0x0 SWAP1 DUP2 MSTORE PUSH1 0x40 SWAP1 KECCAK256 SLOAD DUP2 JUMP JUMPDEST CALLVALUE DUP1 ISZERO PUSH2 0x305 JUMPI PUSH1 0x0 DUP1 REVERT JUMPDEST POP PUSH2 0x319 PUSH2 0x314 CALLDATASIZE PUSH1 0x4 PUSH2 0x4147 JUMP JUMPDEST PUSH2 0x8E1 JUMP JUMPDEST STOP JUMPDEST CALLVALUE DUP1 ISZERO PUSH2 0x327 JUMPI PUSH1 0x0 DUP1 REVERT JUMPDEST POP PUSH2 0x319 PUSH2 0x336 CALLDATASIZE PUSH1 0x4 PUSH2 0x4162 JUMP JUMPDEST PUSH2 0xA1A JUMP JUMPDEST CALLVALUE DUP1 ISZERO PUSH2 0x347 JUMPI PUSH1 0x0 DUP1 REVERT JUMPDEST POP PUSH2 0x35B PUSH2 0x356 CALLDATASIZE PUSH1 0x4 PUSH2 0x410E JUMP JUMPDEST PUSH2 0xB0D JUMP JUMPDEST PUSH1 0x40 MLOAD SWAP1 ISZERO ISZERO DUP2 MSTORE PUSH1 0x20 ADD PUSH2 0x269 JUMP JUMPDEST CALLVALUE DUP1 ISZERO PUSH2 0x377 JUMPI PUSH1 0x0 DUP1 REVERT JUMPDEST POP PUSH2 0x2BE PUSH1 0xB SLOAD DUP2 JUMP JUMPDEST CALLVALUE DUP1 ISZERO PUSH2 0x38D JUMPI PUSH1 0x0 DUP1 REVERT JUMPDEST POP PUSH2 0x2BE PUSH1 0x6 SLOAD DUP2 JUMP JUMPDEST CALLVALUE DUP1 ISZERO PUSH2 0x3A3 JUMPI PUSH1 0x0 DUP1 REVERT JUMPDEST POP PUSH2 0x319 PUSH2 0xB21 JUMP JUMPDEST CALLVALUE DUP1 ISZERO PUSH2 0x3B8 JUMPI PUSH1 0x0 DUP1 REVERT JUMPDEST POP PUSH2 0x2BE PUSH2 0x3C7 CALLDATASIZE PUSH1 0x4 PUSH2 0x410E JUMP JUMPDEST PUSH1 0x9 PUSH1 0x20 MSTORE PUSH1 0x0 SWAP1 DUP2 MSTORE PUSH1 0x40 SWAP1 KECCAK256 SLOAD DUP2 JUMP JUMPDEST CALLVALUE DUP1 ISZERO PUSH2 0x3E5 JUMPI PUSH1 0x0 DUP1 REVERT JUMPDEST POP PUSH2 0x3F9 PUSH2 0x3F4 CALLDATASIZE PUSH1 0x4 PUSH2 0x417B JUMP JUMPDEST PUSH2 0xD75 JUMP JUMPDEST PUSH1 0x40 DUP1 MLOAD SWAP3 DUP4 MSTORE PUSH1 0x20 DUP4 ADD SWAP2 SWAP1 SWAP2 MSTORE ADD PUSH2 0x269 JUMP JUMPDEST PUSH2 0x319 PUSH2 0x41C CALLDATASIZE PUSH1 0x4 PUSH2 0x41A7 JUMP JUMPDEST PUSH2 0xDCA JUMP JUMPDEST CALLVALUE DUP1 ISZERO PUSH2 0x42D JUMPI PUSH1 0x0 DUP1 REVERT JUMPDEST POP PUSH2 0x319 PUSH2 0x43C CALLDATASIZE PUSH1 0x4 PUSH2 0x4162 JUMP JUMPDEST PUSH2 0x1171 JUMP JUMPDEST PUSH2 0x3F9 PUSH2 0x44F CALLDATASIZE PUSH1 0x4 PUSH2 0x4263 JUMP JUMPDEST PUSH2 0x1264 JUMP JUMPDEST CALLVALUE DUP1 ISZERO PUSH2 0x460 JUMPI PUSH1 0x0 DUP1 REVERT JUMPDEST POP PUSH2 0x255 PUSH32 0x0 DUP2 JUMP JUMPDEST CALLVALUE DUP1 ISZERO PUSH2 0x494 JUMPI PUSH1 0x0 DUP1 REVERT JUMPDEST POP PUSH2 0x2BE PUSH1 0xE SLOAD DUP2 JUMP JUMPDEST CALLVALUE DUP1 ISZERO PUSH2 0x4AA JUMPI PUSH1 0x0 DUP1 REVERT JUMPDEST POP PUSH2 0x4B3 PUSH2 0x1CC4 JUMP JUMPDEST PUSH1 0x40 MLOAD PUSH2 0x269 SWAP2 SWAP1 PUSH2 0x434C JUMP JUMPDEST CALLVALUE DUP1 ISZERO PUSH2 0x4CC JUMPI PUSH1 0x0 DUP1 REVERT JUMPDEST POP PUSH1 0x3 SLOAD PUSH2 0x255 SWAP1 PUSH1 0x1 PUSH1 0x1 PUSH1 0xA0 SHL SUB AND DUP2 JUMP JUMPDEST CALLVALUE DUP1 ISZERO PUSH2 0x4EC JUMPI PUSH1 0x0 DUP1 REVERT JUMPDEST POP PUSH2 0x319 PUSH2 0x4FB CALLDATASIZE PUSH1 0x4 PUSH2 0x4162 JUMP JUMPDEST PUSH2 0x1D52 JUMP JUMPDEST CALLVALUE DUP1 ISZERO PUSH2 0x50C JUMPI PUSH1 0x0 DUP1 REVERT JUMPDEST POP PUSH1 0x7 SLOAD PUSH2 0x52B SWAP1 PUSH1 0x1 PUSH1 0x1 PUSH1 0x80 SHL SUB DUP1 DUP3 AND SWAP2 PUSH1 0x1 PUSH1 0x80 SHL SWAP1 DIV AND DUP3 JUMP JUMPDEST PUSH1 0x40 DUP1 MLOAD PUSH1 0x1 PUSH1 0x1 PUSH1 0x80 SHL SUB SWAP4 DUP5 AND DUP2 MSTORE SWAP3 SWAP1 SWAP2 AND PUSH1 0x20 DUP4 ADD MSTORE ADD PUSH2 0x269 JUMP JUMPDEST CALLVALUE DUP1 ISZERO PUSH2 0x557 JUMPI PUSH1 0x0 DUP1 REVERT JUMPDEST POP PUSH2 0x319 PUSH2 0x566 CALLDATASIZE PUSH1 0x4 PUSH2 0x40CD JUMP JUMPDEST PUSH2 0x1FF5 JUMP JUMPDEST CALLVALUE DUP1 ISZERO PUSH2 0x577 JUMPI PUSH1 0x0 DUP1 REVERT JUMPDEST POP PUSH2 0x319 PUSH2 0x586 CALLDATASIZE PUSH1 0x4 PUSH2 0x417B JUMP JUMPDEST PUSH2 0x20D8 JUMP JUMPDEST CALLVALUE DUP1 ISZERO PUSH2 0x597 JUMPI PUSH1 0x0 DUP1 REVERT JUMPDEST POP PUSH1 0x0 SLOAD PUSH2 0x255 SWAP1 PUSH1 0x1 PUSH1 0x1 PUSH1 0xA0 SHL SUB AND DUP2 JUMP JUMPDEST CALLVALUE DUP1 ISZERO PUSH2 0x5B7 JUMPI PUSH1 0x0 DUP1 REVERT JUMPDEST POP PUSH2 0x255 PUSH32 0x0 DUP2 JUMP JUMPDEST CALLVALUE DUP1 ISZERO PUSH2 0x5EB JUMPI PUSH1 0x0 DUP1 REVERT JUMPDEST POP PUSH2 0x2BE PUSH1 0xF SLOAD DUP2 JUMP JUMPDEST CALLVALUE DUP1 ISZERO PUSH2 0x601 JUMPI PUSH1 0x0 DUP1 REVERT JUMPDEST POP PUSH1 0xC SLOAD PUSH2 0x632 SWAP1 PUSH1 0x1 PUSH1 0x1 PUSH1 0x40 SHL SUB DUP1 DUP3 AND SWAP2 PUSH1 0x1 PUSH1 0x1 PUSH1 0x80 SHL SUB PUSH1 0x1 PUSH1 0x40 SHL DUP3 DIV AND SWAP2 PUSH1 0x1 PUSH1 0xC0 SHL SWAP1 SWAP2 DIV AND DUP4 JUMP JUMPDEST PUSH1 0x40 DUP1 MLOAD PUSH1 0x1 PUSH1 0x1 PUSH1 0x40 SHL SUB SWAP5 DUP6 AND DUP2 MSTORE PUSH1 0x1 PUSH1 0x1 PUSH1 0x80 SHL SUB SWAP1 SWAP4 AND PUSH1 0x20 DUP5 ADD MSTORE SWAP3 AND SWAP2 DUP2 ADD SWAP2 SWAP1 SWAP2 MSTORE PUSH1 0x60 ADD PUSH2 0x269 JUMP JUMPDEST CALLVALUE DUP1 ISZERO PUSH2 0x670 JUMPI PUSH1 0x0 DUP1 REVERT JUMPDEST POP PUSH2 0x2BE PUSH1 0xD SLOAD DUP2 JUMP JUMPDEST CALLVALUE DUP1 ISZERO PUSH2 0x686 JUMPI PUSH1 0x0 DUP1 REVERT JUMPDEST POP PUSH2 0x35B PUSH2 0x695 CALLDATASIZE PUSH1 0x4 PUSH2 0x410E JUMP JUMPDEST PUSH1 0xA PUSH1 0x20 MSTORE PUSH1 0x0 SWAP1 DUP2 MSTORE PUSH1 0x40 SWAP1 KECCAK256 SLOAD PUSH1 0xFF AND DUP2 JUMP JUMPDEST CALLVALUE DUP1 ISZERO PUSH2 0x6B6 JUMPI PUSH1 0x0 DUP1 REVERT JUMPDEST POP PUSH2 0x255 PUSH32 0x0 DUP2 JUMP JUMPDEST CALLVALUE DUP1 ISZERO PUSH2 0x6EA JUMPI PUSH1 0x0 DUP1 REVERT JUMPDEST POP PUSH1 0x2 SLOAD PUSH2 0x255 SWAP1 PUSH1 0x1 PUSH1 0x1 PUSH1 0xA0 SHL SUB AND DUP2 JUMP JUMPDEST CALLVALUE DUP1 ISZERO PUSH2 0x70A JUMPI PUSH1 0x0 DUP1 REVERT JUMPDEST POP PUSH1 0x5 SLOAD PUSH2 0x52B SWAP1 PUSH1 0x1 PUSH1 0x1 PUSH1 0x80 SHL SUB DUP1 DUP3 AND SWAP2 PUSH1 0x1 PUSH1 0x80 SHL SWAP1 DIV AND DUP3 JUMP JUMPDEST CALLVALUE DUP1 ISZERO PUSH2 0x735 JUMPI PUSH1 0x0 DUP1 REVERT JUMPDEST POP PUSH2 0x319 PUSH2 0x744 CALLDATASIZE PUSH1 0x4 PUSH2 0x4162 JUMP JUMPDEST PUSH2 0x2122 JUMP JUMPDEST CALLVALUE DUP1 ISZERO PUSH2 0x755 JUMPI PUSH1 0x0 DUP1 REVERT JUMPDEST POP PUSH2 0x319 PUSH2 0x764 CALLDATASIZE PUSH1 0x4 PUSH2 0x435F JUMP JUMPDEST PUSH2 0x2215 JUMP JUMPDEST CALLVALUE DUP1 ISZERO PUSH2 0x775 JUMPI PUSH1 0x0 DUP1 REVERT JUMPDEST POP PUSH2 0x319 PUSH2 0x784 CALLDATASIZE PUSH1 0x4 PUSH2 0x410E JUMP JUMPDEST PUSH2 0x23AE JUMP JUMPDEST CALLVALUE DUP1 ISZERO PUSH2 0x795 JUMPI PUSH1 0x0 DUP1 REVERT JUMPDEST POP PUSH2 0x319 PUSH2 0x7A4 CALLDATASIZE PUSH1 0x4 PUSH2 0x410E JUMP JUMPDEST PUSH2 0x2442 JUMP JUMPDEST CALLVALUE DUP1 ISZERO PUSH2 0x7B5 JUMPI PUSH1 0x0 DUP1 REVERT JUMPDEST POP PUSH2 0x319 PUSH2 0x7C4 CALLDATASIZE PUSH1 0x4 PUSH2 0x43AD JUMP JUMPDEST PUSH2 0x24D5 JUMP JUMPDEST CALLVALUE DUP1 ISZERO PUSH2 0x7D5 JUMPI PUSH1 0x0 DUP1 REVERT JUMPDEST POP PUSH2 0x319 PUSH2 0x25F0 JUMP JUMPDEST CALLVALUE DUP1 ISZERO PUSH2 0x7EA JUMPI PUSH1 0x0 DUP1 REVERT JUMPDEST POP PUSH2 0x319 PUSH2 0x7F9 CALLDATASIZE PUSH1 0x4 PUSH2 0x4593 JUMP JUMPDEST PUSH2 0x2816 JUMP JUMPDEST PUSH1 0x3 SLOAD PUSH1 0x40 MLOAD PUSH4 0xD6D7D525 PUSH1 0xE0 SHL DUP2 MSTORE PUSH1 0x0 SWAP2 DUP3 SWAP2 PUSH1 0x1 PUSH1 0x1 PUSH1 0xA0 SHL SUB SWAP1 SWAP2 AND SWAP1 PUSH4 0xD6D7D525 SWAP1 PUSH2 0x833 SWAP1 PUSH1 0x4 SWAP1 DUP2 ADD PUSH2 0x467E JUMP JUMPDEST PUSH1 0x40 DUP1 MLOAD DUP1 DUP4 SUB DUP2 PUSH1 0x0 DUP8 GAS CALL ISZERO DUP1 ISZERO PUSH2 0x851 JUMPI RETURNDATASIZE PUSH1 0x0 DUP1 RETURNDATACOPY RETURNDATASIZE PUSH1 0x0 REVERT JUMPDEST POP POP POP POP PUSH1 0x40 MLOAD RETURNDATASIZE PUSH1 0x1F NOT PUSH1 0x1F DUP3 ADD AND DUP3 ADD DUP1 PUSH1 0x40 MSTORE POP DUP2 ADD SWAP1 PUSH2 0x875 SWAP2 SWAP1 PUSH2 0x4719 JUMP JUMPDEST SWAP1 SWAP3 POP SWAP1 POP DUP2 ISZERO PUSH2 0x8BC JUMPI PUSH1 0xB DUP2 SWAP1 SSTORE PUSH1 0x40 MLOAD DUP2 DUP2 MSTORE PUSH32 0x9F9192B5EDB17356C524E08D9E025C8E2F6307E6EA52FB7968FAA3081F51C3C8 SWAP1 PUSH1 0x20 ADD PUSH1 0x40 MLOAD DUP1 SWAP2 SUB SWAP1 LOG1 SWAP1 SWAP2 JUMP JUMPDEST POP PUSH1 0xB SLOAD SWAP1 SWAP2 JUMP JUMPDEST PUSH1 0x0 PUSH2 0x8CE PUSH2 0x25F0 JUMP JUMPDEST PUSH2 0x8D9 DUP5 DUP5 DUP5 PUSH2 0x303F JUMP JUMPDEST SWAP5 SWAP4 POP POP POP POP JUMP JUMPDEST PUSH32 0x0 PUSH1 0x1 PUSH1 0x1 PUSH1 0xA0 SHL SUB AND PUSH4 0x8DA5CB5B PUSH1 0x40 MLOAD DUP2 PUSH4 0xFFFFFFFF AND PUSH1 0xE0 SHL DUP2 MSTORE PUSH1 0x4 ADD PUSH1 0x20 PUSH1 0x40 MLOAD DUP1 DUP4 SUB DUP2 DUP7 GAS STATICCALL ISZERO DUP1 ISZERO PUSH2 0x93F JUMPI RETURNDATASIZE PUSH1 0x0 DUP1 RETURNDATACOPY RETURNDATASIZE PUSH1 0x0 REVERT JUMPDEST POP POP POP POP PUSH1 0x40 MLOAD RETURNDATASIZE PUSH1 0x1F NOT PUSH1 0x1F DUP3 ADD AND DUP3 ADD DUP1 PUSH1 0x40 MSTORE POP DUP2 ADD SWAP1 PUSH2 0x963 SWAP2 SWAP1 PUSH2 0x4747 JUMP JUMPDEST PUSH1 0x1 PUSH1 0x1 PUSH1 0xA0 SHL SUB AND CALLER PUSH1 0x1 PUSH1 0x1 PUSH1 0xA0 SHL SUB AND EQ PUSH2 0x99C JUMPI PUSH1 0x40 MLOAD PUSH3 0x461BCD PUSH1 0xE5 SHL DUP2 MSTORE PUSH1 0x4 ADD PUSH2 0x993 SWAP1 PUSH2 0x4764 JUMP JUMPDEST PUSH1 0x40 MLOAD DUP1 SWAP2 SUB SWAP1 REVERT JUMPDEST PUSH2 0x9A4 PUSH2 0x25F0 JUMP JUMPDEST PUSH1 0xC SLOAD PUSH1 0x40 DUP1 MLOAD PUSH1 0x1 PUSH1 0xC0 SHL SWAP1 SWAP3 DIV PUSH1 0x1 PUSH1 0x1 PUSH1 0x40 SHL SUB SWAP1 DUP2 AND DUP4 MSTORE DUP4 AND PUSH1 0x20 DUP4 ADD MSTORE PUSH32 0x76BC92B92B7755BCB03B25070431A80435C4D3FBF91C6C81C0C0CC350F6B5C6A SWAP2 ADD PUSH1 0x40 MLOAD DUP1 SWAP2 SUB SWAP1 LOG1 PUSH1 0xC DUP1 SLOAD PUSH1 0x1 PUSH1 0x1 PUSH1 0x40 SHL SUB SWAP1 SWAP3 AND PUSH1 0x1 PUSH1 0xC0 SHL MUL PUSH1 0x1 PUSH1 0x1 PUSH1 0xC0 SHL SUB SWAP1 SWAP3 AND SWAP2 SWAP1 SWAP2 OR SWAP1 SSTORE JUMP JUMPDEST PUSH32 0x0 PUSH1 0x1 PUSH1 0x1 PUSH1 0xA0 SHL SUB AND PUSH4 0x8DA5CB5B PUSH1 0x40 MLOAD DUP2 PUSH4 0xFFFFFFFF AND PUSH1 0xE0 SHL DUP2 MSTORE PUSH1 0x4 ADD PUSH1 0x20 PUSH1 0x40 MLOAD DUP1 DUP4 SUB DUP2 DUP7 GAS STATICCALL ISZERO DUP1 ISZERO PUSH2 0xA78 JUMPI RETURNDATASIZE PUSH1 0x0 DUP1 RETURNDATACOPY RETURNDATASIZE PUSH1 0x0 REVERT JUMPDEST POP POP POP POP PUSH1 0x40 MLOAD RETURNDATASIZE PUSH1 0x1F NOT PUSH1 0x1F DUP3 ADD AND DUP3 ADD DUP1 PUSH1 0x40 MSTORE POP DUP2 ADD SWAP1 PUSH2 0xA9C SWAP2 SWAP1 PUSH2 0x4747 JUMP JUMPDEST PUSH1 0x1 PUSH1 0x1 PUSH1 0xA0 SHL SUB AND CALLER PUSH1 0x1 PUSH1 0x1 PUSH1 0xA0 SHL SUB AND EQ PUSH2 0xACC JUMPI PUSH1 0x40 MLOAD PUSH3 0x461BCD PUSH1 0xE5 SHL DUP2 MSTORE PUSH1 0x4 ADD PUSH2 0x993 SWAP1 PUSH2 0x4764 JUMP JUMPDEST PUSH1 0xD SLOAD PUSH1 0x40 DUP1 MLOAD SWAP2 DUP3 MSTORE PUSH1 0x20 DUP3 ADD DUP4 SWAP1 MSTORE PUSH32 0x57EEC44A5232B75B6EC0BCC71B82495F7DE44EA4279AFE1AA3E867DD521A075E SWAP2 ADD PUSH1 0x40 MLOAD DUP1 SWAP2 SUB SWAP1 LOG1 PUSH1 0xD SSTORE JUMP JUMPDEST PUSH1 0x0 PUSH2 0xB1B DUP3 PUSH1 0xB SLOAD PUSH2 0x32E1 JUMP JUMPDEST SWAP3 SWAP2 POP POP JUMP JUMPDEST PUSH2 0xB29 PUSH2 0x25F0 JUMP JUMPDEST PUSH1 0x0 PUSH32 0x0 PUSH1 0x1 PUSH1 0x1 PUSH1 0xA0 SHL SUB AND PUSH4 0x17E7E58 PUSH1 0x40 MLOAD DUP2 PUSH4 0xFFFFFFFF AND PUSH1 0xE0 SHL DUP2 MSTORE PUSH1 0x4 ADD PUSH1 0x20 PUSH1 0x40 MLOAD DUP1 DUP4 SUB DUP2 DUP7 GAS STATICCALL ISZERO DUP1 ISZERO PUSH2 0xB89 JUMPI RETURNDATASIZE PUSH1 0x0 DUP1 RETURNDATACOPY RETURNDATASIZE PUSH1 0x0 REVERT JUMPDEST POP POP POP POP PUSH1 0x40 MLOAD RETURNDATASIZE PUSH1 0x1F NOT PUSH1 0x1F DUP3 ADD AND DUP3 ADD DUP1 PUSH1 0x40 MSTORE POP DUP2 ADD SWAP1 PUSH2 0xBAD SWAP2 SWAP1 PUSH2 0x4747 JUMP JUMPDEST PUSH1 0xC SLOAD PUSH1 0x40 MLOAD PUSH4 0x6D289CE5 PUSH1 0xE1 SHL DUP2 MSTORE SWAP2 SWAP3 POP PUSH1 0x1 PUSH1 0x40 SHL SWAP1 DIV PUSH1 0x1 PUSH1 0x1 PUSH1 0x80 SHL SUB AND SWAP1 PUSH1 0x0 SWAP1 PUSH32 0x0 PUSH1 0x1 PUSH1 0x1 PUSH1 0xA0 SHL SUB AND SWAP1 PUSH4 0xDA5139CA SWAP1 PUSH2 0xC37 SWAP1 PUSH32 0x0 SWAP1 DUP7 SWAP1 DUP7 SWAP1 PUSH1 0x4 ADD PUSH2 0x479B JUMP JUMPDEST PUSH1 0x20 PUSH1 0x40 MLOAD DUP1 DUP4 SUB DUP2 DUP7 GAS STATICCALL ISZERO DUP1 ISZERO PUSH2 0xC54 JUMPI RETURNDATASIZE PUSH1 0x0 DUP1 RETURNDATACOPY RETURNDATASIZE PUSH1 0x0 REVERT JUMPDEST POP POP POP POP PUSH1 0x40 MLOAD RETURNDATASIZE PUSH1 0x1F NOT PUSH1 0x1F DUP3 ADD AND DUP3 ADD DUP1 PUSH1 0x40 MSTORE POP DUP2 ADD SWAP1 PUSH2 0xC78 SWAP2 SWAP1 PUSH2 0x47BE JUMP JUMPDEST PUSH1 0x40 MLOAD PUSH4 0x3C6340F3 PUSH1 0xE2 SHL DUP2 MSTORE SWAP1 SWAP2 POP PUSH1 0x1 PUSH1 0x1 PUSH1 0xA0 SHL SUB PUSH32 0x0 AND SWAP1 PUSH4 0xF18D03CC SWAP1 PUSH2 0xCED SWAP1 PUSH32 0x0 SWAP1 ADDRESS SWAP1 DUP9 SWAP1 DUP8 SWAP1 PUSH1 0x4 ADD PUSH2 0x47D7 JUMP JUMPDEST PUSH1 0x0 PUSH1 0x40 MLOAD DUP1 DUP4 SUB DUP2 PUSH1 0x0 DUP8 DUP1 EXTCODESIZE ISZERO DUP1 ISZERO PUSH2 0xD07 JUMPI PUSH1 0x0 DUP1 REVERT JUMPDEST POP GAS CALL ISZERO DUP1 ISZERO PUSH2 0xD1B JUMPI RETURNDATASIZE PUSH1 0x0 DUP1 RETURNDATACOPY RETURNDATASIZE PUSH1 0x0 REVERT JUMPDEST POP POP PUSH1 0xC DUP1 SLOAD PUSH1 0x1 PUSH1 0x40 SHL PUSH1 0x1 PUSH1 0xC0 SHL SUB NOT AND SWAP1 SSTORE POP POP PUSH1 0x40 MLOAD DUP3 DUP2 MSTORE PUSH1 0x1 PUSH1 0x1 PUSH1 0xA0 SHL SUB DUP5 AND SWAP1 PUSH32 0xBE641C3FFC44B2D6C184F023FA4ED7BDA4B6FFA71E03B3C98AE0C776DA1F17E7 SWAP1 PUSH1 0x20 ADD PUSH1 0x40 MLOAD DUP1 SWAP2 SUB SWAP1 LOG2 POP POP POP JUMP JUMPDEST PUSH1 0x0 DUP1 PUSH2 0xD80 PUSH2 0x25F0 JUMP JUMPDEST PUSH2 0xD8A DUP5 DUP5 PUSH2 0x3449 JUMP JUMPDEST SWAP1 SWAP3 POP SWAP1 POP PUSH1 0x0 PUSH2 0xD99 PUSH2 0x7FE JUMP JUMPDEST SWAP2 POP POP PUSH2 0xDA6 CALLER DUP3 PUSH2 0x32E1 JUMP JUMPDEST PUSH2 0xDC2 JUMPI PUSH1 0x40 MLOAD PUSH3 0x461BCD PUSH1 0xE5 SHL DUP2 MSTORE PUSH1 0x4 ADD PUSH2 0x993 SWAP1 PUSH2 0x4801 JUMP JUMPDEST POP SWAP3 POP SWAP3 SWAP1 POP JUMP JUMPDEST PUSH1 0x1 PUSH1 0x1 PUSH1 0xA0 SHL SUB PUSH32 0x0 AND ADDRESS SUB PUSH2 0xE13 JUMPI PUSH1 0x40 MLOAD PUSH4 0x7E933E4B PUSH1 0xE1 SHL DUP2 MSTORE PUSH1 0x4 ADD PUSH1 0x40 MLOAD DUP1 SWAP2 SUB SWAP1 REVERT JUMPDEST PUSH1 0x2 SLOAD PUSH1 0x1 PUSH1 0x1 PUSH1 0xA0 SHL SUB AND ISZERO PUSH2 0xE6C JUMPI PUSH1 0x40 MLOAD PUSH3 0x461BCD PUSH1 0xE5 SHL DUP2 MSTORE PUSH1 0x20 PUSH1 0x4 DUP3 ADD MSTORE PUSH1 0x1D PUSH1 0x24 DUP3 ADD MSTORE PUSH32 0x4361756C64726F6E3A20616C726561647920696E697469616C697A6564000000 PUSH1 0x44 DUP3 ADD MSTORE PUSH1 0x64 ADD PUSH2 0x993 JUMP JUMPDEST PUSH2 0xE78 DUP2 DUP4 ADD DUP4 PUSH2 0x4838 JUMP JUMPDEST PUSH1 0xF DUP2 SWAP1 SSTORE PUSH1 0xD DUP3 SWAP1 SSTORE PUSH1 0xE DUP4 SWAP1 SSTORE PUSH1 0xC DUP1 SLOAD PUSH1 0x1 PUSH1 0x1 PUSH1 0xC0 SHL SUB AND PUSH1 0x1 PUSH1 0xC0 SHL PUSH1 0x1 PUSH1 0x1 PUSH1 0x40 SHL SUB DUP8 AND MUL OR SWAP1 SSTORE PUSH1 0x2 PUSH1 0x0 PUSH1 0x3 DUP2 PUSH1 0x4 PUSH2 0xEBA DUP11 DUP3 PUSH2 0x490D JUMP JUMPDEST POP DUP2 SLOAD PUSH2 0x100 SWAP2 DUP3 EXP PUSH1 0x1 PUSH1 0x1 PUSH1 0xA0 SHL SUB DUP2 DUP2 MUL NOT SWAP1 SWAP3 AND SWAP12 DUP3 AND MUL SWAP11 SWAP1 SWAP11 OR SWAP1 SWAP2 SSTORE DUP3 SLOAD SWAP2 SWAP1 EXP DUP1 DUP10 MUL NOT SWAP1 SWAP2 AND SWAP9 DUP9 AND MUL SWAP8 SWAP1 SWAP8 OR SWAP1 SWAP7 SSTORE POP POP PUSH1 0x40 DUP1 MLOAD DUP1 DUP3 ADD SWAP1 SWAP2 MSTORE PUSH1 0x1 PUSH1 0x1 PUSH1 0x80 SHL SUB DUP1 DUP3 MSTORE PUSH1 0x20 SWAP1 SWAP2 ADD MSTORE POP POP PUSH1 0x0 NOT PUSH1 0x5 SSTORE PUSH1 0x2 SLOAD AND SWAP1 POP PUSH2 0xF60 JUMPI PUSH1 0x40 MLOAD PUSH3 0x461BCD PUSH1 0xE5 SHL DUP2 MSTORE PUSH1 0x20 PUSH1 0x4 DUP3 ADD MSTORE PUSH1 0x12 PUSH1 0x24 DUP3 ADD MSTORE PUSH18 0x21B0BAB6323937B71D103130B2103830B4B9 PUSH1 0x71 SHL PUSH1 0x44 DUP3 ADD MSTORE PUSH1 0x64 ADD PUSH2 0x993 JUMP JUMPDEST PUSH1 0x40 MLOAD PUSH4 0x95EA7B3 PUSH1 0xE0 SHL DUP2 MSTORE PUSH1 0x1 PUSH1 0x1 PUSH1 0xA0 SHL SUB PUSH32 0x0 DUP2 AND PUSH1 0x4 DUP4 ADD MSTORE PUSH1 0x0 NOT PUSH1 0x24 DUP4 ADD MSTORE PUSH32 0x0 AND SWAP1 PUSH4 0x95EA7B3 SWAP1 PUSH1 0x44 ADD PUSH1 0x20 PUSH1 0x40 MLOAD DUP1 DUP4 SUB DUP2 PUSH1 0x0 DUP8 GAS CALL ISZERO DUP1 ISZERO PUSH2 0xFF0 JUMPI RETURNDATASIZE PUSH1 0x0 DUP1 RETURNDATACOPY RETURNDATASIZE PUSH1 0x0 REVERT JUMPDEST POP POP POP POP PUSH1 0x40 MLOAD RETURNDATASIZE PUSH1 0x1F NOT PUSH1 0x1F DUP3 ADD AND DUP3 ADD DUP1 PUSH1 0x40 MSTORE POP DUP2 ADD SWAP1 PUSH2 0x1014 SWAP2 SWAP1 PUSH2 0x49CC JUMP JUMPDEST POP PUSH32 0x0 PUSH1 0x1 PUSH1 0x1 PUSH1 0xA0 SHL SUB AND PUSH1 0x0 DUP2 DUP2 MSTORE PUSH1 0xA PUSH1 0x20 DUP2 DUP2 MSTORE PUSH1 0x40 DUP1 DUP5 KECCAK256 DUP1 SLOAD PUSH1 0x1 PUSH1 0xFF NOT SWAP2 DUP3 AND DUP2 OR SWAP1 SWAP3 SSTORE ADDRESS DUP7 MSTORE DUP3 DUP7 KECCAK256 DUP1 SLOAD SWAP1 SWAP2 AND DUP3 OR SWAP1 SSTORE DUP2 MLOAD PUSH4 0x8DA5CB5B PUSH1 0xE0 SHL DUP2 MSTORE SWAP2 MLOAD SWAP1 SWAP6 SWAP4 SWAP5 SWAP4 SWAP3 PUSH4 0x8DA5CB5B SWAP3 PUSH1 0x4 DUP1 DUP3 ADD SWAP4 SWAP2 DUP3 SWAP1 SUB ADD DUP2 DUP7 GAS STATICCALL ISZERO DUP1 ISZERO PUSH2 0x10A8 JUMPI RETURNDATASIZE PUSH1 0x0 DUP1 RETURNDATACOPY RETURNDATASIZE PUSH1 0x0 REVERT JUMPDEST POP POP POP POP PUSH1 0x40 MLOAD RETURNDATASIZE PUSH1 0x1F NOT PUSH1 0x1F DUP3 ADD AND DUP3 ADD DUP1 PUSH1 0x40 MSTORE POP DUP2 ADD SWAP1 PUSH2 0x10CC SWAP2 SWAP1 PUSH2 0x4747 JUMP JUMPDEST PUSH1 0x1 PUSH1 0x1 PUSH1 0xA0 SHL SUB SWAP1 DUP2 AND DUP3 MSTORE PUSH1 0x20 DUP3 ADD SWAP3 SWAP1 SWAP3 MSTORE PUSH1 0x40 SWAP1 DUP2 ADD PUSH1 0x0 KECCAK256 DUP1 SLOAD PUSH1 0xFF NOT AND SWAP4 ISZERO ISZERO SWAP4 SWAP1 SWAP4 OR SWAP1 SWAP3 SSTORE PUSH1 0x3 SLOAD SWAP2 MLOAD PUSH4 0xD6D7D525 PUSH1 0xE0 SHL DUP2 MSTORE SWAP2 AND SWAP1 PUSH4 0xD6D7D525 SWAP1 PUSH2 0x111F SWAP1 PUSH1 0x4 SWAP1 DUP2 ADD PUSH2 0x467E JUMP JUMPDEST PUSH1 0x40 DUP1 MLOAD DUP1 DUP4 SUB DUP2 PUSH1 0x0 DUP8 GAS CALL ISZERO DUP1 ISZERO PUSH2 0x113D JUMPI RETURNDATASIZE PUSH1 0x0 DUP1 RETURNDATACOPY RETURNDATASIZE PUSH1 0x0 REVERT JUMPDEST POP POP POP POP PUSH1 0x40 MLOAD RETURNDATASIZE PUSH1 0x1F NOT PUSH1 0x1F DUP3 ADD AND DUP3 ADD DUP1 PUSH1 0x40 MSTORE POP DUP2 ADD SWAP1 PUSH2 0x1161 SWAP2 SWAP1 PUSH2 0x4719 JUMP JUMPDEST PUSH1 0xB SSTORE POP PUSH2 0x116D PUSH2 0x25F0 JUMP JUMPDEST POP POP JUMP JUMPDEST PUSH32 0x0 PUSH1 0x1 PUSH1 0x1 PUSH1 0xA0 SHL SUB AND PUSH4 0x8DA5CB5B PUSH1 0x40 MLOAD DUP2 PUSH4 0xFFFFFFFF AND PUSH1 0xE0 SHL DUP2 MSTORE PUSH1 0x4 ADD PUSH1 0x20 PUSH1 0x40 MLOAD DUP1 DUP4 SUB DUP2 DUP7 GAS STATICCALL ISZERO DUP1 ISZERO PUSH2 0x11CF JUMPI RETURNDATASIZE PUSH1 0x0 DUP1 RETURNDATACOPY RETURNDATASIZE PUSH1 0x0 REVERT JUMPDEST POP POP POP POP PUSH1 0x40 MLOAD RETURNDATASIZE PUSH1 0x1F NOT PUSH1 0x1F DUP3 ADD AND DUP3 ADD DUP1 PUSH1 0x40 MSTORE POP DUP2 ADD SWAP1 PUSH2 0x11F3 SWAP2 SWAP1 PUSH2 0x4747 JUMP JUMPDEST PUSH1 0x1 PUSH1 0x1 PUSH1 0xA0 SHL SUB AND CALLER PUSH1 0x1 PUSH1 0x1 PUSH1 0xA0 SHL SUB AND EQ PUSH2 0x1223 JUMPI PUSH1 0x40 MLOAD PUSH3 0x461BCD PUSH1 0xE5 SHL DUP2 MSTORE PUSH1 0x4 ADD PUSH2 0x993 SWAP1 PUSH2 0x4764 JUMP JUMPDEST PUSH1 0xF SLOAD PUSH1 0x40 DUP1 MLOAD SWAP2 DUP3 MSTORE PUSH1 0x20 DUP3 ADD DUP4 SWAP1 MSTORE PUSH32 0x4216A3E7A11E36090889FB0DF2992EE9A622C5E97F8498A468C2B3474FA1D3A0 SWAP2 ADD PUSH1 0x40 MLOAD DUP1 SWAP2 SUB SWAP1 LOG1 PUSH1 0xF SSTORE JUMP JUMPDEST PUSH1 0x40 DUP1 MLOAD DUP1 DUP3 ADD SWAP1 SWAP2 MSTORE PUSH1 0x0 DUP1 DUP3 MSTORE PUSH1 0x20 DUP3 ADD DUP2 SWAP1 MSTORE SWAP1 DUP2 SWAP1 PUSH1 0x0 JUMPDEST DUP9 DUP2 LT ISZERO PUSH2 0x1C7B JUMPI PUSH1 0x0 DUP11 DUP11 DUP4 DUP2 DUP2 LT PUSH2 0x129C JUMPI PUSH2 0x129C PUSH2 0x49E9 JUMP JUMPDEST SWAP1 POP PUSH1 0x20 MUL ADD PUSH1 0x20 DUP2 ADD SWAP1 PUSH2 0x12B1 SWAP2 SWAP1 PUSH2 0x4A0E JUMP JUMPDEST SWAP1 POP DUP3 PUSH1 0x20 ADD MLOAD ISZERO DUP1 ISZERO PUSH2 0x12C8 JUMPI POP PUSH1 0xA DUP2 PUSH1 0xFF AND LT JUMPDEST ISZERO PUSH2 0x12DD JUMPI PUSH2 0x12D5 PUSH2 0x25F0 JUMP JUMPDEST PUSH1 0x1 PUSH1 0x20 DUP5 ADD MSTORE JUMPDEST PUSH1 0x9 NOT PUSH1 0xFF DUP3 AND ADD PUSH2 0x133D JUMPI PUSH1 0x0 DUP1 PUSH1 0x0 DUP10 DUP10 DUP7 DUP2 DUP2 LT PUSH2 0x1300 JUMPI PUSH2 0x1300 PUSH2 0x49E9 JUMP JUMPDEST SWAP1 POP PUSH1 0x20 MUL DUP2 ADD SWAP1 PUSH2 0x1312 SWAP2 SWAP1 PUSH2 0x4A2B JUMP JUMPDEST DUP2 ADD SWAP1 PUSH2 0x131F SWAP2 SWAP1 PUSH2 0x4A71 JUMP JUMPDEST SWAP3 POP SWAP3 POP SWAP3 POP PUSH2 0x1335 DUP3 DUP3 PUSH2 0x566 DUP7 DUP13 DUP13 PUSH2 0x37B8 JUMP JUMPDEST POP POP POP PUSH2 0x1C72 JUMP JUMPDEST PUSH1 0x1 NOT PUSH1 0xFF DUP3 AND ADD PUSH2 0x13A3 JUMPI PUSH1 0x0 DUP1 PUSH1 0x0 DUP10 DUP10 DUP7 DUP2 DUP2 LT PUSH2 0x1360 JUMPI PUSH2 0x1360 PUSH2 0x49E9 JUMP JUMPDEST SWAP1 POP PUSH1 0x20 MUL DUP2 ADD SWAP1 PUSH2 0x1372 SWAP2 SWAP1 PUSH2 0x4A2B JUMP JUMPDEST DUP2 ADD SWAP1 PUSH2 0x137F SWAP2 SWAP1 PUSH2 0x4A71 JUMP JUMPDEST SWAP3 POP SWAP3 POP SWAP3 POP PUSH2 0x139A DUP3 DUP3 PUSH2 0x1395 DUP7 DUP13 DUP13 PUSH2 0x37B8 JUMP JUMPDEST PUSH2 0x303F JUMP JUMPDEST POP POP POP POP PUSH2 0x1C72 JUMP JUMPDEST PUSH1 0x3 NOT PUSH1 0xFF DUP3 AND ADD PUSH2 0x1406 JUMPI PUSH1 0x0 DUP1 DUP9 DUP9 DUP6 DUP2 DUP2 LT PUSH2 0x13C4 JUMPI PUSH2 0x13C4 PUSH2 0x49E9 JUMP JUMPDEST SWAP1 POP PUSH1 0x20 MUL DUP2 ADD SWAP1 PUSH2 0x13D6 SWAP2 SWAP1 PUSH2 0x4A2B JUMP JUMPDEST DUP2 ADD SWAP1 PUSH2 0x13E3 SWAP2 SWAP1 PUSH2 0x4AB3 JUMP JUMPDEST SWAP2 POP SWAP2 POP PUSH2 0x13FB DUP2 PUSH2 0x13F6 DUP5 DUP11 DUP11 PUSH2 0x37B8 JUMP JUMPDEST PUSH2 0x37DF JUMP JUMPDEST POP POP PUSH1 0x1 DUP4 MSTORE PUSH2 0x1C72 JUMP JUMPDEST PUSH1 0x4 NOT PUSH1 0xFF DUP3 AND ADD PUSH2 0x146F JUMPI PUSH1 0x0 DUP1 DUP9 DUP9 DUP6 DUP2 DUP2 LT PUSH2 0x1427 JUMPI PUSH2 0x1427 PUSH2 0x49E9 JUMP JUMPDEST SWAP1 POP PUSH1 0x20 MUL DUP2 ADD SWAP1 PUSH2 0x1439 SWAP2 SWAP1 PUSH2 0x4A2B JUMP JUMPDEST DUP2 ADD SWAP1 PUSH2 0x1446 SWAP2 SWAP1 PUSH2 0x4AB3 JUMP JUMPDEST SWAP2 POP SWAP2 POP PUSH2 0x145E DUP2 PUSH2 0x1459 DUP5 DUP11 DUP11 PUSH2 0x37B8 JUMP JUMPDEST PUSH2 0x3449 JUMP JUMPDEST PUSH1 0x1 DUP8 MSTORE SWAP1 SWAP8 POP SWAP6 POP PUSH2 0x1C72 SWAP2 POP POP JUMP JUMPDEST PUSH1 0xA NOT PUSH1 0xFF DUP3 AND ADD PUSH2 0x153C JUMPI PUSH1 0x0 DUP1 PUSH1 0x0 DUP10 DUP10 DUP7 DUP2 DUP2 LT PUSH2 0x1492 JUMPI PUSH2 0x1492 PUSH2 0x49E9 JUMP JUMPDEST SWAP1 POP PUSH1 0x20 MUL DUP2 ADD SWAP1 PUSH2 0x14A4 SWAP2 SWAP1 PUSH2 0x4A2B JUMP JUMPDEST DUP2 ADD SWAP1 PUSH2 0x14B1 SWAP2 SWAP1 PUSH2 0x4AD8 JUMP JUMPDEST SWAP3 POP SWAP3 POP SWAP3 POP PUSH1 0x0 DUP1 PUSH2 0x14C2 PUSH2 0x7FE JUMP JUMPDEST SWAP2 POP SWAP2 POP DUP5 ISZERO DUP1 PUSH2 0x14D0 JUMPI POP DUP2 JUMPDEST DUP1 ISZERO PUSH2 0x14DB JUMPI POP DUP4 DUP2 GT JUMPDEST DUP1 ISZERO PUSH2 0x14EE JUMPI POP DUP3 ISZERO DUP1 PUSH2 0x14EE JUMPI POP DUP3 DUP2 LT JUMPDEST PUSH2 0x1532 JUMPI PUSH1 0x40 MLOAD PUSH3 0x461BCD PUSH1 0xE5 SHL DUP2 MSTORE PUSH1 0x20 PUSH1 0x4 DUP3 ADD MSTORE PUSH1 0x15 PUSH1 0x24 DUP3 ADD MSTORE PUSH21 0x4361756C64726F6E3A2072617465206E6F74206F6B PUSH1 0x58 SHL PUSH1 0x44 DUP3 ADD MSTORE PUSH1 0x64 ADD PUSH2 0x993 JUMP JUMPDEST POP POP POP POP POP PUSH2 0x1C72 JUMP JUMPDEST PUSH1 0x17 NOT PUSH1 0xFF DUP3 AND ADD PUSH2 0x1641 JUMPI PUSH1 0x0 DUP1 PUSH1 0x0 DUP1 PUSH1 0x0 DUP1 DUP13 DUP13 DUP10 DUP2 DUP2 LT PUSH2 0x1563 JUMPI PUSH2 0x1563 PUSH2 0x49E9 JUMP JUMPDEST SWAP1 POP PUSH1 0x20 MUL DUP2 ADD SWAP1 PUSH2 0x1575 SWAP2 SWAP1 PUSH2 0x4A2B JUMP JUMPDEST DUP2 ADD SWAP1 PUSH2 0x1582 SWAP2 SWAP1 PUSH2 0x4B0D JUMP JUMPDEST PUSH1 0x40 MLOAD PUSH4 0xC0A47C93 PUSH1 0xE0 SHL DUP2 MSTORE PUSH1 0x1 PUSH1 0x1 PUSH1 0xA0 SHL SUB DUP8 DUP2 AND PUSH1 0x4 DUP4 ADD MSTORE DUP7 DUP2 AND PUSH1 0x24 DUP4 ADD MSTORE DUP6 ISZERO ISZERO PUSH1 0x44 DUP4 ADD MSTORE PUSH1 0xFF DUP6 AND PUSH1 0x64 DUP4 ADD MSTORE PUSH1 0x84 DUP3 ADD DUP5 SWAP1 MSTORE PUSH1 0xA4 DUP3 ADD DUP4 SWAP1 MSTORE SWAP7 SWAP13 POP SWAP5 SWAP11 POP SWAP3 SWAP9 POP SWAP1 SWAP7 POP SWAP5 POP SWAP3 POP PUSH32 0x0 SWAP1 SWAP2 AND SWAP1 PUSH4 0xC0A47C93 SWAP1 PUSH1 0xC4 ADD PUSH1 0x0 PUSH1 0x40 MLOAD DUP1 DUP4 SUB DUP2 PUSH1 0x0 DUP8 DUP1 EXTCODESIZE ISZERO DUP1 ISZERO PUSH2 0x161E JUMPI PUSH1 0x0 DUP1 REVERT JUMPDEST POP GAS CALL ISZERO DUP1 ISZERO PUSH2 0x1632 JUMPI RETURNDATASIZE PUSH1 0x0 DUP1 RETURNDATACOPY RETURNDATASIZE PUSH1 0x0 REVERT JUMPDEST POP POP POP POP POP POP POP POP POP POP PUSH2 0x1C72 JUMP JUMPDEST PUSH1 0x13 NOT PUSH1 0xFF DUP3 AND ADD PUSH2 0x16D5 JUMPI PUSH2 0x16CB DUP8 DUP8 DUP5 DUP2 DUP2 LT PUSH2 0x1662 JUMPI PUSH2 0x1662 PUSH2 0x49E9 JUMP JUMPDEST SWAP1 POP PUSH1 0x20 MUL DUP2 ADD SWAP1 PUSH2 0x1674 SWAP2 SWAP1 PUSH2 0x4A2B JUMP JUMPDEST DUP1 DUP1 PUSH1 0x1F ADD PUSH1 0x20 DUP1 SWAP2 DIV MUL PUSH1 0x20 ADD PUSH1 0x40 MLOAD SWAP1 DUP2 ADD PUSH1 0x40 MSTORE DUP1 SWAP4 SWAP3 SWAP2 SWAP1 DUP2 DUP2 MSTORE PUSH1 0x20 ADD DUP4 DUP4 DUP1 DUP3 DUP5 CALLDATACOPY PUSH1 0x0 SWAP3 ADD SWAP2 SWAP1 SWAP2 MSTORE POP DUP14 SWAP3 POP DUP13 SWAP2 POP DUP7 SWAP1 POP DUP2 DUP2 LT PUSH2 0x16BD JUMPI PUSH2 0x16BD PUSH2 0x49E9 JUMP JUMPDEST SWAP1 POP PUSH1 0x20 MUL ADD CALLDATALOAD DUP8 DUP8 PUSH2 0x38E8 JUMP JUMPDEST SWAP1 SWAP6 POP SWAP4 POP PUSH2 0x1C72 JUMP JUMPDEST PUSH1 0x14 NOT PUSH1 0xFF DUP3 AND ADD PUSH2 0x1746 JUMPI PUSH2 0x16CB DUP8 DUP8 DUP5 DUP2 DUP2 LT PUSH2 0x16F6 JUMPI PUSH2 0x16F6 PUSH2 0x49E9 JUMP JUMPDEST SWAP1 POP PUSH1 0x20 MUL DUP2 ADD SWAP1 PUSH2 0x1708 SWAP2 SWAP1 PUSH2 0x4A2B JUMP JUMPDEST DUP1 DUP1 PUSH1 0x1F ADD PUSH1 0x20 DUP1 SWAP2 DIV MUL PUSH1 0x20 ADD PUSH1 0x40 MLOAD SWAP1 DUP2 ADD PUSH1 0x40 MSTORE DUP1 SWAP4 SWAP3 SWAP2 SWAP1 DUP2 DUP2 MSTORE PUSH1 0x20 ADD DUP4 DUP4 DUP1 DUP3 DUP5 CALLDATACOPY PUSH1 0x0 SWAP3 ADD SWAP2 SWAP1 SWAP2 MSTORE POP DUP10 SWAP3 POP DUP9 SWAP2 POP PUSH2 0x39CF SWAP1 POP JUMP JUMPDEST PUSH1 0x15 NOT PUSH1 0xFF DUP3 AND ADD PUSH2 0x1824 JUMPI PUSH1 0x0 DUP1 PUSH1 0x0 DUP10 DUP10 DUP7 DUP2 DUP2 LT PUSH2 0x1769 JUMPI PUSH2 0x1769 PUSH2 0x49E9 JUMP JUMPDEST SWAP1 POP PUSH1 0x20 MUL DUP2 ADD SWAP1 PUSH2 0x177B SWAP2 SWAP1 PUSH2 0x4A2B JUMP JUMPDEST DUP2 ADD SWAP1 PUSH2 0x1788 SWAP2 SWAP1 PUSH2 0x4B7B JUMP JUMPDEST SWAP3 POP SWAP3 POP SWAP3 POP PUSH32 0x0 PUSH1 0x1 PUSH1 0x1 PUSH1 0xA0 SHL SUB AND PUSH4 0xF18D03CC DUP5 CALLER DUP6 PUSH2 0x17CB DUP7 DUP15 DUP15 PUSH2 0x37B8 JUMP JUMPDEST PUSH1 0x40 MLOAD DUP6 PUSH4 0xFFFFFFFF AND PUSH1 0xE0 SHL DUP2 MSTORE PUSH1 0x4 ADD PUSH2 0x17EA SWAP5 SWAP4 SWAP3 SWAP2 SWAP1 PUSH2 0x47D7 JUMP JUMPDEST PUSH1 0x0 PUSH1 0x40 MLOAD DUP1 DUP4 SUB DUP2 PUSH1 0x0 DUP8 DUP1 EXTCODESIZE ISZERO DUP1 ISZERO PUSH2 0x1804 JUMPI PUSH1 0x0 DUP1 REVERT JUMPDEST POP GAS CALL ISZERO DUP1 ISZERO PUSH2 0x1818 JUMPI RETURNDATASIZE PUSH1 0x0 DUP1 RETURNDATACOPY RETURNDATASIZE PUSH1 0x0 REVERT JUMPDEST POP POP POP POP POP POP POP PUSH2 0x1C72 JUMP JUMPDEST PUSH1 0x16 NOT PUSH1 0xFF DUP3 AND ADD PUSH2 0x18BE JUMPI PUSH1 0x0 DUP1 PUSH1 0x0 DUP10 DUP10 DUP7 DUP2 DUP2 LT PUSH2 0x1847 JUMPI PUSH2 0x1847 PUSH2 0x49E9 JUMP JUMPDEST SWAP1 POP PUSH1 0x20 MUL DUP2 ADD SWAP1 PUSH2 0x1859 SWAP2 SWAP1 PUSH2 0x4A2B JUMP JUMPDEST DUP2 ADD SWAP1 PUSH2 0x1866 SWAP2 SWAP1 PUSH2 0x4BAB JUMP JUMPDEST SWAP3 POP SWAP3 POP SWAP3 POP PUSH32 0x0 PUSH1 0x1 PUSH1 0x1 PUSH1 0xA0 SHL SUB AND PUSH4 0xFCA8843 DUP5 CALLER DUP6 DUP6 PUSH1 0x40 MLOAD DUP6 PUSH4 0xFFFFFFFF AND PUSH1 0xE0 SHL DUP2 MSTORE PUSH1 0x4 ADD PUSH2 0x17EA SWAP5 SWAP4 SWAP3 SWAP2 SWAP1 PUSH2 0x4C20 JUMP JUMPDEST PUSH1 0x1D NOT PUSH1 0xFF DUP3 AND ADD PUSH2 0x19A1 JUMPI PUSH1 0x0 DUP1 PUSH2 0x194B DUP12 DUP12 DUP7 DUP2 DUP2 LT PUSH2 0x18E2 JUMPI PUSH2 0x18E2 PUSH2 0x49E9 JUMP JUMPDEST SWAP1 POP PUSH1 0x20 MUL ADD CALLDATALOAD DUP11 DUP11 DUP8 DUP2 DUP2 LT PUSH2 0x18FB JUMPI PUSH2 0x18FB PUSH2 0x49E9 JUMP JUMPDEST SWAP1 POP PUSH1 0x20 MUL DUP2 ADD SWAP1 PUSH2 0x190D SWAP2 SWAP1 PUSH2 0x4A2B JUMP JUMPDEST DUP1 DUP1 PUSH1 0x1F ADD PUSH1 0x20 DUP1 SWAP2 DIV MUL PUSH1 0x20 ADD PUSH1 0x40 MLOAD SWAP1 DUP2 ADD PUSH1 0x40 MSTORE DUP1 SWAP4 SWAP3 SWAP2 SWAP1 DUP2 DUP2 MSTORE PUSH1 0x20 ADD DUP4 DUP4 DUP1 DUP3 DUP5 CALLDATACOPY PUSH1 0x0 SWAP3 ADD SWAP2 SWAP1 SWAP2 MSTORE POP DUP13 SWAP3 POP DUP12 SWAP2 POP PUSH2 0x3AAE SWAP1 POP JUMP JUMPDEST SWAP2 POP SWAP2 POP DUP1 PUSH1 0xFF AND PUSH1 0x1 SUB PUSH2 0x1975 JUMPI DUP2 DUP1 PUSH1 0x20 ADD SWAP1 MLOAD DUP2 ADD SWAP1 PUSH2 0x196E SWAP2 SWAP1 PUSH2 0x47BE JUMP JUMPDEST SWAP7 POP PUSH2 0x199A JUMP JUMPDEST DUP1 PUSH1 0xFF AND PUSH1 0x2 SUB PUSH2 0x199A JUMPI DUP2 DUP1 PUSH1 0x20 ADD SWAP1 MLOAD DUP2 ADD SWAP1 PUSH2 0x1994 SWAP2 SWAP1 PUSH2 0x4CBB JUMP JUMPDEST SWAP1 SWAP8 POP SWAP6 POP JUMPDEST POP POP PUSH2 0x1C72 JUMP JUMPDEST PUSH1 0x5 NOT PUSH1 0xFF DUP3 AND ADD PUSH2 0x1AD9 JUMPI PUSH1 0x0 DUP8 DUP8 DUP5 DUP2 DUP2 LT PUSH2 0x19C1 JUMPI PUSH2 0x19C1 PUSH2 0x49E9 JUMP JUMPDEST SWAP1 POP PUSH1 0x20 MUL DUP2 ADD SWAP1 PUSH2 0x19D3 SWAP2 SWAP1 PUSH2 0x4A2B JUMP JUMPDEST DUP2 ADD SWAP1 PUSH2 0x19E0 SWAP2 SWAP1 PUSH2 0x4162 JUMP JUMPDEST SWAP1 POP PUSH32 0x0 PUSH1 0x1 PUSH1 0x1 PUSH1 0xA0 SHL SUB AND PUSH4 0xDA5139CA PUSH32 0x0 PUSH2 0x1A70 PUSH2 0x1A40 DUP6 DUP12 DUP12 PUSH2 0x37B8 JUMP JUMPDEST PUSH1 0x40 DUP1 MLOAD DUP1 DUP3 ADD SWAP1 SWAP2 MSTORE PUSH1 0x7 SLOAD PUSH1 0x1 PUSH1 0x1 PUSH1 0x80 SHL SUB DUP1 DUP3 AND DUP4 MSTORE PUSH1 0x1 PUSH1 0x80 SHL SWAP1 SWAP2 DIV AND PUSH1 0x20 DUP3 ADD MSTORE SWAP1 PUSH1 0x1 PUSH2 0x3C83 JUMP JUMPDEST PUSH1 0x1 PUSH1 0x40 MLOAD DUP5 PUSH4 0xFFFFFFFF AND PUSH1 0xE0 SHL DUP2 MSTORE PUSH1 0x4 ADD PUSH2 0x1A90 SWAP4 SWAP3 SWAP2 SWAP1 PUSH2 0x479B JUMP JUMPDEST PUSH1 0x20 PUSH1 0x40 MLOAD DUP1 DUP4 SUB DUP2 DUP7 GAS STATICCALL ISZERO DUP1 ISZERO PUSH2 0x1AAD JUMPI RETURNDATASIZE PUSH1 0x0 DUP1 RETURNDATACOPY RETURNDATASIZE PUSH1 0x0 REVERT JUMPDEST POP POP POP POP PUSH1 0x40 MLOAD RETURNDATASIZE PUSH1 0x1F NOT PUSH1 0x1F DUP3 ADD AND DUP3 ADD DUP1 PUSH1 0x40 MSTORE POP DUP2 ADD SWAP1 PUSH2 0x1AD1 SWAP2 SWAP1 PUSH2 0x47BE JUMP JUMPDEST SWAP6 POP POP PUSH2 0x1C72 JUMP JUMPDEST PUSH1 0x6 NOT PUSH1 0xFF DUP3 AND ADD PUSH2 0x1B58 JUMPI PUSH1 0x0 DUP8 DUP8 DUP5 DUP2 DUP2 LT PUSH2 0x1AF9 JUMPI PUSH2 0x1AF9 PUSH2 0x49E9 JUMP JUMPDEST SWAP1 POP PUSH1 0x20 MUL DUP2 ADD SWAP1 PUSH2 0x1B0B SWAP2 SWAP1 PUSH2 0x4A2B JUMP JUMPDEST DUP2 ADD SWAP1 PUSH2 0x1B18 SWAP2 SWAP1 PUSH2 0x4162 JUMP JUMPDEST SWAP1 POP PUSH2 0x1AD1 PUSH2 0x1B28 DUP3 DUP9 DUP9 PUSH2 0x37B8 JUMP JUMPDEST PUSH1 0x40 DUP1 MLOAD DUP1 DUP3 ADD SWAP1 SWAP2 MSTORE PUSH1 0x7 SLOAD PUSH1 0x1 PUSH1 0x1 PUSH1 0x80 SHL SUB DUP1 DUP3 AND DUP4 MSTORE PUSH1 0x1 PUSH1 0x80 SHL SWAP1 SWAP2 DIV AND PUSH1 0x20 DUP3 ADD MSTORE SWAP1 PUSH1 0x0 PUSH2 0x3D21 JUMP JUMPDEST PUSH1 0x1E NOT PUSH1 0xFF DUP3 AND ADD PUSH2 0x1B95 JUMPI PUSH2 0x1B90 DUP8 DUP8 DUP5 DUP2 DUP2 LT PUSH2 0x1B79 JUMPI PUSH2 0x1B79 PUSH2 0x49E9 JUMP JUMPDEST SWAP1 POP PUSH1 0x20 MUL DUP2 ADD SWAP1 PUSH2 0x1B8B SWAP2 SWAP1 PUSH2 0x4A2B JUMP JUMPDEST PUSH2 0x3D96 JUMP JUMPDEST PUSH2 0x1C72 JUMP JUMPDEST PUSH1 0x0 DUP1 PUSH1 0x0 PUSH2 0x1C1A DUP5 DUP8 DUP15 DUP15 DUP10 DUP2 DUP2 LT PUSH2 0x1BB1 JUMPI PUSH2 0x1BB1 PUSH2 0x49E9 JUMP JUMPDEST SWAP1 POP PUSH1 0x20 MUL ADD CALLDATALOAD DUP14 DUP14 DUP11 DUP2 DUP2 LT PUSH2 0x1BCA JUMPI PUSH2 0x1BCA PUSH2 0x49E9 JUMP JUMPDEST SWAP1 POP PUSH1 0x20 MUL DUP2 ADD SWAP1 PUSH2 0x1BDC SWAP2 SWAP1 PUSH2 0x4A2B JUMP JUMPDEST DUP1 DUP1 PUSH1 0x1F ADD PUSH1 0x20 DUP1 SWAP2 DIV MUL PUSH1 0x20 ADD PUSH1 0x40 MLOAD SWAP1 DUP2 ADD PUSH1 0x40 MSTORE DUP1 SWAP4 SWAP3 SWAP2 SWAP1 DUP2 DUP2 MSTORE PUSH1 0x20 ADD DUP4 DUP4 DUP1 DUP3 DUP5 CALLDATACOPY PUSH1 0x0 SWAP3 ADD SWAP2 SWAP1 SWAP2 MSTORE POP DUP16 SWAP3 POP DUP15 SWAP2 POP PUSH2 0x3DC8 SWAP1 POP JUMP JUMPDEST SWAP3 POP SWAP3 POP SWAP3 POP DUP1 SWAP6 POP DUP2 PUSH1 0xFF AND PUSH1 0x1 SUB PUSH2 0x1C49 JUMPI DUP3 DUP1 PUSH1 0x20 ADD SWAP1 MLOAD DUP2 ADD SWAP1 PUSH2 0x1C42 SWAP2 SWAP1 PUSH2 0x47BE JUMP JUMPDEST SWAP8 POP PUSH2 0x1C6E JUMP JUMPDEST DUP2 PUSH1 0xFF AND PUSH1 0x2 SUB PUSH2 0x1C6E JUMPI DUP3 DUP1 PUSH1 0x20 ADD SWAP1 MLOAD DUP2 ADD SWAP1 PUSH2 0x1C68 SWAP2 SWAP1 PUSH2 0x4CBB JUMP JUMPDEST SWAP1 SWAP9 POP SWAP7 POP JUMPDEST POP POP POP JUMPDEST POP PUSH1 0x1 ADD PUSH2 0x1280 JUMP JUMPDEST POP DUP1 MLOAD ISZERO PUSH2 0x1CB8 JUMPI PUSH1 0x0 PUSH2 0x1C8D PUSH2 0x7FE JUMP JUMPDEST SWAP2 POP POP PUSH2 0x1C9A CALLER DUP3 PUSH2 0x32E1 JUMP JUMPDEST PUSH2 0x1CB6 JUMPI PUSH1 0x40 MLOAD PUSH3 0x461BCD PUSH1 0xE5 SHL DUP2 MSTORE PUSH1 0x4 ADD PUSH2 0x993 SWAP1 PUSH2 0x4801 JUMP JUMPDEST POP JUMPDEST POP SWAP7 POP SWAP7 SWAP5 POP POP POP POP POP JUMP JUMPDEST PUSH1 0x4 DUP1 SLOAD PUSH2 0x1CD1 SWAP1 PUSH2 0x4644 JUMP JUMPDEST DUP1 PUSH1 0x1F ADD PUSH1 0x20 DUP1 SWAP2 DIV MUL PUSH1 0x20 ADD PUSH1 0x40 MLOAD SWAP1 DUP2 ADD PUSH1 0x40 MSTORE DUP1 SWAP3 SWAP2 SWAP1 DUP2 DUP2 MSTORE PUSH1 0x20 ADD DUP3 DUP1 SLOAD PUSH2 0x1CFD SWAP1 PUSH2 0x4644 JUMP JUMPDEST DUP1 ISZERO PUSH2 0x1D4A JUMPI DUP1 PUSH1 0x1F LT PUSH2 0x1D1F JUMPI PUSH2 0x100 DUP1 DUP4 SLOAD DIV MUL DUP4 MSTORE SWAP2 PUSH1 0x20 ADD SWAP2 PUSH2 0x1D4A JUMP JUMPDEST DUP3 ADD SWAP2 SWAP1 PUSH1 0x0 MSTORE PUSH1 0x20 PUSH1 0x0 KECCAK256 SWAP1 JUMPDEST DUP2 SLOAD DUP2 MSTORE SWAP1 PUSH1 0x1 ADD SWAP1 PUSH1 0x20 ADD DUP1 DUP4 GT PUSH2 0x1D2D JUMPI DUP3 SWAP1 SUB PUSH1 0x1F AND DUP3 ADD SWAP2 JUMPDEST POP POP POP POP POP DUP2 JUMP JUMPDEST PUSH32 0x0 PUSH1 0x1 PUSH1 0x1 PUSH1 0xA0 SHL SUB AND PUSH4 0x8DA5CB5B PUSH1 0x40 MLOAD DUP2 PUSH4 0xFFFFFFFF AND PUSH1 0xE0 SHL DUP2 MSTORE PUSH1 0x4 ADD PUSH1 0x20 PUSH1 0x40 MLOAD DUP1 DUP4 SUB DUP2 DUP7 GAS STATICCALL ISZERO DUP1 ISZERO PUSH2 0x1DB0 JUMPI RETURNDATASIZE PUSH1 0x0 DUP1 RETURNDATACOPY RETURNDATASIZE PUSH1 0x0 REVERT JUMPDEST POP POP POP POP PUSH1 0x40 MLOAD RETURNDATASIZE PUSH1 0x1F NOT PUSH1 0x1F DUP3 ADD AND DUP3 ADD DUP1 PUSH1 0x40 MSTORE POP DUP2 ADD SWAP1 PUSH2 0x1DD4 SWAP2 SWAP1 PUSH2 0x4747 JUMP JUMPDEST PUSH1 0x1 PUSH1 0x1 PUSH1 0xA0 SHL SUB AND CALLER PUSH1 0x1 PUSH1 0x1 PUSH1 0xA0 SHL SUB AND EQ PUSH2 0x1E04 JUMPI PUSH1 0x40 MLOAD PUSH3 0x461BCD PUSH1 0xE5 SHL DUP2 MSTORE PUSH1 0x4 ADD PUSH2 0x993 SWAP1 PUSH2 0x4764 JUMP JUMPDEST PUSH1 0x40 MLOAD PUSH4 0x3DE222BB PUSH1 0xE2 SHL DUP2 MSTORE PUSH32 0x0 PUSH1 0x1 PUSH1 0x1 PUSH1 0xA0 SHL SUB DUP2 DUP2 AND PUSH1 0x4 DUP5 ADD MSTORE ADDRESS PUSH1 0x24 DUP5 ADD MSTORE PUSH1 0x0 SWAP3 PUSH32 0x0 SWAP2 SWAP1 SWAP2 AND SWAP2 PUSH4 0x56623118 SWAP2 DUP4 SWAP1 PUSH4 0xF7888AEC SWAP1 PUSH1 0x44 ADD PUSH1 0x20 PUSH1 0x40 MLOAD DUP1 DUP4 SUB DUP2 DUP7 GAS STATICCALL ISZERO DUP1 ISZERO PUSH2 0x1E9F JUMPI RETURNDATASIZE PUSH1 0x0 DUP1 RETURNDATACOPY RETURNDATASIZE PUSH1 0x0 REVERT JUMPDEST POP POP POP POP PUSH1 0x40 MLOAD RETURNDATASIZE PUSH1 0x1F NOT PUSH1 0x1F DUP3 ADD AND DUP3 ADD DUP1 PUSH1 0x40 MSTORE POP DUP2 ADD SWAP1 PUSH2 0x1EC3 SWAP2 SWAP1 PUSH2 0x47BE JUMP JUMPDEST PUSH1 0x0 PUSH1 0x40 MLOAD DUP5 PUSH4 0xFFFFFFFF AND PUSH1 0xE0 SHL DUP2 MSTORE PUSH1 0x4 ADD PUSH2 0x1EE3 SWAP4 SWAP3 SWAP2 SWAP1 PUSH2 0x479B JUMP JUMPDEST PUSH1 0x20 PUSH1 0x40 MLOAD DUP1 DUP4 SUB DUP2 DUP7 GAS STATICCALL ISZERO DUP1 ISZERO PUSH2 0x1F00 JUMPI RETURNDATASIZE PUSH1 0x0 DUP1 RETURNDATACOPY RETURNDATASIZE PUSH1 0x0 REVERT JUMPDEST POP POP POP POP PUSH1 0x40 MLOAD RETURNDATASIZE PUSH1 0x1F NOT PUSH1 0x1F DUP3 ADD AND DUP3 ADD DUP1 PUSH1 0x40 MSTORE POP DUP2 ADD SWAP1 PUSH2 0x1F24 SWAP2 SWAP1 PUSH2 0x47BE JUMP JUMPDEST SWAP1 POP DUP2 DUP2 GT PUSH2 0x1F33 JUMPI DUP1 PUSH2 0x1F35 JUMP JUMPDEST DUP2 JUMPDEST PUSH1 0x40 MLOAD PUSH4 0x97DA6D3 PUSH1 0xE4 SHL DUP2 MSTORE SWAP1 SWAP3 POP PUSH1 0x1 PUSH1 0x1 PUSH1 0xA0 SHL SUB PUSH32 0x0 AND SWAP1 PUSH4 0x97DA6D30 SWAP1 PUSH2 0x1FAD SWAP1 PUSH32 0x0 SWAP1 ADDRESS SWAP1 CALLER SWAP1 DUP9 SWAP1 PUSH1 0x0 SWAP1 PUSH1 0x4 ADD PUSH2 0x4CDF JUMP JUMPDEST PUSH1 0x40 DUP1 MLOAD DUP1 DUP4 SUB DUP2 PUSH1 0x0 DUP8 GAS CALL ISZERO DUP1 ISZERO PUSH2 0x1FCB JUMPI RETURNDATASIZE PUSH1 0x0 DUP1 RETURNDATACOPY RETURNDATASIZE PUSH1 0x0 REVERT JUMPDEST POP POP POP POP PUSH1 0x40 MLOAD RETURNDATASIZE PUSH1 0x1F NOT PUSH1 0x1F DUP3 ADD AND DUP3 ADD DUP1 PUSH1 0x40 MSTORE POP DUP2 ADD SWAP1 PUSH2 0x1FEF SWAP2 SWAP1 PUSH2 0x4CBB JUMP JUMPDEST POP POP POP POP JUMP JUMPDEST PUSH1 0x1 PUSH1 0x1 PUSH1 0xA0 SHL SUB DUP4 AND PUSH1 0x0 SWAP1 DUP2 MSTORE PUSH1 0x8 PUSH1 0x20 MSTORE PUSH1 0x40 SWAP1 KECCAK256 SLOAD PUSH2 0x2018 SWAP1 DUP3 PUSH2 0x3DED JUMP JUMPDEST PUSH1 0x1 PUSH1 0x1 PUSH1 0xA0 SHL SUB DUP5 AND PUSH1 0x0 SWAP1 DUP2 MSTORE PUSH1 0x8 PUSH1 0x20 MSTORE PUSH1 0x40 SWAP1 KECCAK256 SSTORE PUSH1 0x6 SLOAD PUSH2 0x203E DUP2 DUP4 PUSH2 0x3DED JUMP JUMPDEST PUSH1 0x6 SSTORE PUSH1 0x2 SLOAD PUSH2 0x2059 SWAP1 PUSH1 0x1 PUSH1 0x1 PUSH1 0xA0 SHL SUB AND DUP4 DUP4 DUP7 PUSH2 0x3DF9 JUMP JUMPDEST DUP4 PUSH1 0x1 PUSH1 0x1 PUSH1 0xA0 SHL SUB AND DUP4 PUSH2 0x206E JUMPI CALLER PUSH2 0x2090 JUMP JUMPDEST PUSH32 0x0 JUMPDEST PUSH1 0x1 PUSH1 0x1 PUSH1 0xA0 SHL SUB AND PUSH32 0x9ED03113DE523CEBFE5E49D5F8E12894B1C0D42CE805990461726444C90EAB87 DUP5 PUSH1 0x40 MLOAD PUSH2 0x20CA SWAP2 DUP2 MSTORE PUSH1 0x20 ADD SWAP1 JUMP JUMPDEST PUSH1 0x40 MLOAD DUP1 SWAP2 SUB SWAP1 LOG3 POP POP POP POP JUMP JUMPDEST PUSH2 0x20E0 PUSH2 0x25F0 JUMP JUMPDEST PUSH2 0x20EA DUP3 DUP3 PUSH2 0x37DF JUMP JUMPDEST PUSH1 0x0 PUSH2 0x20F4 PUSH2 0x7FE JUMP JUMPDEST SWAP2 POP POP PUSH2 0x2101 CALLER DUP3 PUSH2 0x32E1 JUMP JUMPDEST PUSH2 0x211D JUMPI PUSH1 0x40 MLOAD PUSH3 0x461BCD PUSH1 0xE5 SHL DUP2 MSTORE PUSH1 0x4 ADD PUSH2 0x993 SWAP1 PUSH2 0x4801 JUMP JUMPDEST POP POP POP JUMP JUMPDEST PUSH32 0x0 PUSH1 0x1 PUSH1 0x1 PUSH1 0xA0 SHL SUB AND PUSH4 0x8DA5CB5B PUSH1 0x40 MLOAD DUP2 PUSH4 0xFFFFFFFF AND PUSH1 0xE0 SHL DUP2 MSTORE PUSH1 0x4 ADD PUSH1 0x20 PUSH1 0x40 MLOAD DUP1 DUP4 SUB DUP2 DUP7 GAS STATICCALL ISZERO DUP1 ISZERO PUSH2 0x2180 JUMPI RETURNDATASIZE PUSH1 0x0 DUP1 RETURNDATACOPY RETURNDATASIZE PUSH1 0x0 REVERT JUMPDEST POP POP POP POP PUSH1 0x40 MLOAD RETURNDATASIZE PUSH1 0x1F NOT PUSH1 0x1F DUP3 ADD AND DUP3 ADD DUP1 PUSH1 0x40 MSTORE POP DUP2 ADD SWAP1 PUSH2 0x21A4 SWAP2 SWAP1 PUSH2 0x4747 JUMP JUMPDEST PUSH1 0x1 PUSH1 0x1 PUSH1 0xA0 SHL SUB AND CALLER PUSH1 0x1 PUSH1 0x1 PUSH1 0xA0 SHL SUB AND EQ PUSH2 0x21D4 JUMPI PUSH1 0x40 MLOAD PUSH3 0x461BCD PUSH1 0xE5 SHL DUP2 MSTORE PUSH1 0x4 ADD PUSH2 0x993 SWAP1 PUSH2 0x4764 JUMP JUMPDEST PUSH1 0xE SLOAD PUSH1 0x40 DUP1 MLOAD SWAP2 DUP3 MSTORE PUSH1 0x20 DUP3 ADD DUP4 SWAP1 MSTORE PUSH32 0x4308679A9F572F4C8FC208E7D44E15AB655281FCA9957589FDAFA2791787B57A SWAP2 ADD PUSH1 0x40 MLOAD DUP1 SWAP2 SUB SWAP1 LOG1 PUSH1 0xE SSTORE JUMP JUMPDEST PUSH32 0x0 PUSH1 0x1 PUSH1 0x1 PUSH1 0xA0 SHL SUB AND PUSH4 0x8DA5CB5B PUSH1 0x40 MLOAD DUP2 PUSH4 0xFFFFFFFF AND PUSH1 0xE0 SHL DUP2 MSTORE PUSH1 0x4 ADD PUSH1 0x20 PUSH1 0x40 MLOAD DUP1 DUP4 SUB DUP2 DUP7 GAS STATICCALL ISZERO DUP1 ISZERO PUSH2 0x2273 JUMPI RETURNDATASIZE PUSH1 0x0 DUP1 RETURNDATACOPY RETURNDATASIZE PUSH1 0x0 REVERT JUMPDEST POP POP POP POP PUSH1 0x40 MLOAD RETURNDATASIZE PUSH1 0x1F NOT PUSH1 0x1F DUP3 ADD AND DUP3 ADD DUP1 PUSH1 0x40 MSTORE POP DUP2 ADD SWAP1 PUSH2 0x2297 SWAP2 SWAP1 PUSH2 0x4747 JUMP JUMPDEST PUSH1 0x1 PUSH1 0x1 PUSH1 0xA0 SHL SUB AND CALLER PUSH1 0x1 PUSH1 0x1 PUSH1 0xA0 SHL SUB AND EQ PUSH2 0x22C7 JUMPI PUSH1 0x40 MLOAD PUSH3 0x461BCD PUSH1 0xE5 SHL DUP2 MSTORE PUSH1 0x4 ADD PUSH2 0x993 SWAP1 PUSH2 0x4764 JUMP JUMPDEST PUSH32 0x0 PUSH1 0x1 PUSH1 0x1 PUSH1 0xA0 SHL SUB AND DUP3 PUSH1 0x1 PUSH1 0x1 PUSH1 0xA0 SHL SUB AND EQ ISZERO DUP1 ISZERO PUSH2 0x2312 JUMPI POP PUSH1 0x1 PUSH1 0x1 PUSH1 0xA0 SHL SUB DUP3 AND ADDRESS EQ ISZERO JUMPDEST PUSH2 0x234F JUMPI PUSH1 0x40 MLOAD PUSH3 0x461BCD PUSH1 0xE5 SHL DUP2 MSTORE PUSH1 0x20 PUSH1 0x4 DUP3 ADD MSTORE PUSH1 0xE PUSH1 0x24 DUP3 ADD MSTORE PUSH14 0x696E76616C69642063616C6C6565 PUSH1 0x90 SHL PUSH1 0x44 DUP3 ADD MSTORE PUSH1 0x64 ADD PUSH2 0x993 JUMP JUMPDEST PUSH1 0x1 PUSH1 0x1 PUSH1 0xA0 SHL SUB DUP3 AND PUSH1 0x0 DUP2 DUP2 MSTORE PUSH1 0xA PUSH1 0x20 SWAP1 DUP2 MSTORE PUSH1 0x40 SWAP2 DUP3 SWAP1 KECCAK256 DUP1 SLOAD PUSH1 0xFF NOT AND DUP6 ISZERO ISZERO SWAP1 DUP2 OR SWAP1 SWAP2 SSTORE SWAP2 MLOAD SWAP2 DUP3 MSTORE PUSH32 0xC5BD4365C17DF9E09859DEC0D4CD85D49349F6B2D710024A59A124925189615F SWAP2 ADD PUSH1 0x40 MLOAD DUP1 SWAP2 SUB SWAP1 LOG2 POP POP JUMP JUMPDEST PUSH1 0x0 SLOAD PUSH1 0x1 PUSH1 0x1 PUSH1 0xA0 SHL SUB AND CALLER EQ PUSH2 0x23F7 JUMPI PUSH1 0x40 MLOAD PUSH3 0x461BCD PUSH1 0xE5 SHL DUP2 MSTORE PUSH1 0x20 PUSH1 0x4 DUP3 ADD MSTORE PUSH1 0xC PUSH1 0x24 DUP3 ADD MSTORE PUSH12 0x15539055551213D492569151 PUSH1 0xA2 SHL PUSH1 0x44 DUP3 ADD MSTORE PUSH1 0x64 ADD PUSH2 0x993 JUMP JUMPDEST PUSH1 0x0 DUP1 SLOAD PUSH1 0x1 PUSH1 0x1 PUSH1 0xA0 SHL SUB NOT AND PUSH1 0x1 PUSH1 0x1 PUSH1 0xA0 SHL SUB DUP4 AND SWAP1 DUP2 OR DUP3 SSTORE PUSH1 0x40 MLOAD SWAP1 SWAP2 CALLER SWAP2 PUSH32 0x8BE0079C531659141344CD1FD0A4F28419497F9722A3DAAFE3B4186F6B6457E0 SWAP2 SWAP1 LOG3 POP JUMP JUMPDEST PUSH1 0x0 SLOAD PUSH1 0x1 PUSH1 0x1 PUSH1 0xA0 SHL SUB AND CALLER EQ PUSH2 0x248B JUMPI PUSH1 0x40 MLOAD PUSH3 0x461BCD PUSH1 0xE5 SHL DUP2 MSTORE PUSH1 0x20 PUSH1 0x4 DUP3 ADD MSTORE PUSH1 0xC PUSH1 0x24 DUP3 ADD MSTORE PUSH12 0x15539055551213D492569151 PUSH1 0xA2 SHL PUSH1 0x44 DUP3 ADD MSTORE PUSH1 0x64 ADD PUSH2 0x993 JUMP JUMPDEST PUSH1 0x1 DUP1 SLOAD PUSH1 0x1 PUSH1 0x1 PUSH1 0xA0 SHL SUB NOT AND PUSH1 0x1 PUSH1 0x1 PUSH1 0xA0 SHL SUB DUP4 AND SWAP1 DUP2 OR SWAP1 SWAP2 SSTORE PUSH1 0x40 MLOAD PUSH32 0xCF1D3F17E521C635E0D20B8ACBA94BA170AFC041D0546D46DAFA09D3C9C19EB3 SWAP1 PUSH1 0x0 SWAP1 LOG2 POP JUMP JUMPDEST PUSH32 0x0 PUSH1 0x1 PUSH1 0x1 PUSH1 0xA0 SHL SUB AND PUSH4 0x8DA5CB5B PUSH1 0x40 MLOAD DUP2 PUSH4 0xFFFFFFFF AND PUSH1 0xE0 SHL DUP2 MSTORE PUSH1 0x4 ADD PUSH1 0x20 PUSH1 0x40 MLOAD DUP1 DUP4 SUB DUP2 DUP7 GAS STATICCALL ISZERO DUP1 ISZERO PUSH2 0x2533 JUMPI RETURNDATASIZE PUSH1 0x0 DUP1 RETURNDATACOPY RETURNDATASIZE PUSH1 0x0 REVERT JUMPDEST POP POP POP POP PUSH1 0x40 MLOAD RETURNDATASIZE PUSH1 0x1F NOT PUSH1 0x1F DUP3 ADD AND DUP3 ADD DUP1 PUSH1 0x40 MSTORE POP DUP2 ADD SWAP1 PUSH2 0x2557 SWAP2 SWAP1 PUSH2 0x4747 JUMP JUMPDEST PUSH1 0x1 PUSH1 0x1 PUSH1 0xA0 SHL SUB AND CALLER PUSH1 0x1 PUSH1 0x1 PUSH1 0xA0 SHL SUB AND EQ PUSH2 0x2587 JUMPI PUSH1 0x40 MLOAD PUSH3 0x461BCD PUSH1 0xE5 SHL DUP2 MSTORE PUSH1 0x4 ADD PUSH2 0x993 SWAP1 PUSH2 0x4764 JUMP JUMPDEST PUSH1 0x40 DUP1 MLOAD DUP1 DUP3 ADD DUP3 MSTORE PUSH1 0x1 PUSH1 0x1 PUSH1 0x80 SHL SUB DUP5 DUP2 AND DUP1 DUP4 MSTORE SWAP1 DUP5 AND PUSH1 0x20 SWAP3 DUP4 ADD DUP2 SWAP1 MSTORE PUSH1 0x1 PUSH1 0x80 SHL DUP2 MUL DUP3 OR PUSH1 0x5 SSTORE DUP4 MLOAD SWAP2 DUP3 MSTORE SWAP2 DUP2 ADD SWAP2 SWAP1 SWAP2 MSTORE PUSH32 0xF1FCE436BC22563026222B3B2BDC088CB69D25192974264114DF12AB812628F6 SWAP2 ADD PUSH1 0x40 MLOAD DUP1 SWAP2 SUB SWAP1 LOG1 POP POP JUMP JUMPDEST PUSH1 0x40 DUP1 MLOAD PUSH1 0x60 DUP2 ADD DUP3 MSTORE PUSH1 0xC SLOAD PUSH1 0x1 PUSH1 0x1 PUSH1 0x40 SHL SUB DUP1 DUP3 AND DUP1 DUP5 MSTORE PUSH1 0x1 PUSH1 0x1 PUSH1 0x80 SHL SUB PUSH1 0x1 PUSH1 0x40 SHL DUP5 DIV AND PUSH1 0x20 DUP6 ADD MSTORE PUSH1 0x1 PUSH1 0xC0 SHL SWAP1 SWAP3 DIV AND SWAP3 DUP3 ADD SWAP3 SWAP1 SWAP3 MSTORE SWAP1 PUSH1 0x0 SWAP1 PUSH2 0x263E SWAP1 TIMESTAMP PUSH2 0x4D29 JUMP JUMPDEST SWAP1 POP DUP1 PUSH1 0x0 SUB PUSH2 0x264C JUMPI POP POP JUMP JUMPDEST PUSH1 0x1 PUSH1 0x1 PUSH1 0x40 SHL SUB TIMESTAMP AND DUP3 MSTORE PUSH1 0x40 DUP1 MLOAD DUP1 DUP3 ADD SWAP1 SWAP2 MSTORE PUSH1 0x7 SLOAD PUSH1 0x1 PUSH1 0x1 PUSH1 0x80 SHL SUB DUP1 DUP3 AND DUP4 MSTORE PUSH1 0x1 PUSH1 0x80 SHL SWAP1 SWAP2 DIV AND PUSH1 0x20 DUP3 ADD DUP2 SWAP1 MSTORE PUSH1 0x0 SUB PUSH2 0x26E1 JUMPI POP POP DUP1 MLOAD PUSH1 0xC DUP1 SLOAD PUSH1 0x20 DUP5 ADD MLOAD PUSH1 0x40 SWAP1 SWAP5 ADD MLOAD PUSH1 0x1 PUSH1 0x1 PUSH1 0x40 SHL SUB SWAP1 DUP2 AND PUSH1 0x1 PUSH1 0xC0 SHL MUL PUSH1 0x1 PUSH1 0x1 PUSH1 0xC0 SHL SUB PUSH1 0x1 PUSH1 0x1 PUSH1 0x80 SHL SUB SWAP1 SWAP7 AND PUSH1 0x1 PUSH1 0x40 SHL MUL PUSH1 0x1 PUSH1 0x1 PUSH1 0xC0 SHL SUB NOT SWAP1 SWAP4 AND SWAP2 SWAP1 SWAP5 AND OR OR SWAP3 SWAP1 SWAP3 AND OR SWAP1 SSTORE JUMP JUMPDEST PUSH1 0x0 PUSH2 0x2735 PUSH8 0xDE0B6B3A7640000 PUSH2 0x2726 DUP6 PUSH2 0x2720 DUP9 PUSH1 0x40 ADD MLOAD PUSH1 0x1 PUSH1 0x1 PUSH1 0x40 SHL SUB AND DUP8 PUSH1 0x0 ADD MLOAD PUSH1 0x1 PUSH1 0x1 PUSH1 0x80 SHL SUB AND PUSH2 0x3F73 SWAP1 SWAP2 SWAP1 PUSH4 0xFFFFFFFF AND JUMP JUMPDEST SWAP1 PUSH2 0x3F73 JUMP JUMPDEST PUSH2 0x2730 SWAP2 SWAP1 PUSH2 0x4D3C JUMP JUMPDEST PUSH2 0x3F7F JUMP JUMPDEST DUP3 MLOAD SWAP1 SWAP2 POP PUSH2 0x274D SWAP1 PUSH1 0x1 PUSH1 0x1 PUSH1 0x80 SHL SUB AND DUP3 PUSH2 0x3FAD JUMP JUMPDEST PUSH1 0x1 PUSH1 0x1 PUSH1 0x80 SHL SUB SWAP1 DUP2 AND DUP4 MSTORE PUSH1 0x20 DUP6 ADD MLOAD PUSH2 0x276A SWAP2 AND DUP3 PUSH2 0x3FAD JUMP JUMPDEST PUSH1 0x1 PUSH1 0x1 PUSH1 0x80 SHL SUB SWAP1 DUP2 AND PUSH1 0x20 DUP7 DUP2 ADD DUP3 SWAP1 MSTORE DUP5 MLOAD DUP6 DUP3 ADD MLOAD DUP5 AND PUSH1 0x1 PUSH1 0x80 SHL MUL SWAP1 DUP5 AND OR PUSH1 0x7 SSTORE DUP7 MLOAD PUSH1 0xC DUP1 SLOAD PUSH1 0x40 DUP1 DUP12 ADD MLOAD PUSH1 0x1 PUSH1 0x1 PUSH1 0x40 SHL SUB SWAP1 DUP2 AND PUSH1 0x1 PUSH1 0xC0 SHL MUL PUSH1 0x1 PUSH1 0x1 PUSH1 0xC0 SHL SUB PUSH1 0x1 PUSH1 0x40 SHL SWAP1 SWAP9 MUL PUSH1 0x1 PUSH1 0x1 PUSH1 0xC0 SHL SUB NOT SWAP1 SWAP5 AND SWAP2 SWAP1 SWAP6 AND OR SWAP2 SWAP1 SWAP2 OR SWAP5 SWAP1 SWAP5 AND SWAP2 SWAP1 SWAP2 OR SWAP1 SSTORE SWAP1 MLOAD SWAP2 DUP4 AND DUP3 MSTORE PUSH32 0xEE527DE5E142BCC7FE0EDDC4B9A04816D73F6307DD74F9204585910D60A8C083 SWAP2 ADD PUSH1 0x40 MLOAD DUP1 SWAP2 SUB SWAP1 LOG1 POP POP POP POP JUMP JUMPDEST PUSH1 0x0 PUSH2 0x2820 PUSH2 0x7FE JUMP JUMPDEST SWAP2 POP POP PUSH2 0x282B PUSH2 0x25F0 JUMP JUMPDEST PUSH1 0x2 SLOAD PUSH1 0x40 MLOAD PUSH4 0x4FFE34DB PUSH1 0xE0 SHL DUP2 MSTORE PUSH1 0x1 PUSH1 0x1 PUSH1 0xA0 SHL SUB SWAP2 DUP3 AND PUSH1 0x4 DUP3 ADD MSTORE PUSH1 0x0 SWAP2 DUP3 SWAP2 DUP3 SWAP2 DUP3 SWAP2 PUSH32 0x0 SWAP1 SWAP2 AND SWAP1 PUSH4 0x4FFE34DB SWAP1 PUSH1 0x24 ADD PUSH1 0x40 DUP1 MLOAD DUP1 DUP4 SUB DUP2 DUP7 GAS STATICCALL ISZERO DUP1 ISZERO PUSH2 0x289E JUMPI RETURNDATASIZE PUSH1 0x0 DUP1 RETURNDATACOPY RETURNDATASIZE PUSH1 0x0 REVERT JUMPDEST POP POP POP POP PUSH1 0x40 MLOAD RETURNDATASIZE PUSH1 0x1F NOT PUSH1 0x1F DUP3 ADD AND DUP3 ADD DUP1 PUSH1 0x40 MSTORE POP DUP2 ADD SWAP1 PUSH2 0x28C2 SWAP2 SWAP1 PUSH2 0x4D5E JUMP JUMPDEST SWAP1 POP PUSH1 0x0 JUMPDEST DUP11 MLOAD DUP2 LT ISZERO PUSH2 0x2B5D JUMPI PUSH1 0x0 DUP12 DUP3 DUP2 MLOAD DUP2 LT PUSH2 0x28E4 JUMPI PUSH2 0x28E4 PUSH2 0x49E9 JUMP JUMPDEST PUSH1 0x20 MUL PUSH1 0x20 ADD ADD MLOAD SWAP1 POP PUSH2 0x28F8 DUP2 DUP9 PUSH2 0x32E1 JUMP JUMPDEST PUSH2 0x2B54 JUMPI PUSH1 0x1 PUSH1 0x1 PUSH1 0xA0 SHL SUB DUP2 AND PUSH1 0x0 SWAP1 DUP2 MSTORE PUSH1 0x9 PUSH1 0x20 MSTORE PUSH1 0x40 DUP2 KECCAK256 SLOAD DUP13 MLOAD DUP2 SWAP1 DUP15 SWAP1 DUP7 SWAP1 DUP2 LT PUSH2 0x292B JUMPI PUSH2 0x292B PUSH2 0x49E9 JUMP JUMPDEST PUSH1 0x20 MUL PUSH1 0x20 ADD ADD MLOAD GT PUSH2 0x2957 JUMPI DUP13 DUP5 DUP2 MLOAD DUP2 LT PUSH2 0x294A JUMPI PUSH2 0x294A PUSH2 0x49E9 JUMP JUMPDEST PUSH1 0x20 MUL PUSH1 0x20 ADD ADD MLOAD PUSH2 0x2959 JUMP JUMPDEST DUP1 JUMPDEST PUSH1 0x40 DUP1 MLOAD DUP1 DUP3 ADD SWAP1 SWAP2 MSTORE PUSH1 0x7 SLOAD PUSH1 0x1 PUSH1 0x1 PUSH1 0x80 SHL SUB DUP1 DUP3 AND DUP4 MSTORE PUSH1 0x1 PUSH1 0x80 SHL SWAP1 SWAP2 DIV AND PUSH1 0x20 DUP3 ADD MSTORE SWAP1 SWAP3 POP PUSH1 0x0 SWAP1 PUSH2 0x2992 SWAP1 DUP5 DUP4 PUSH2 0x3C83 JUMP JUMPDEST SWAP1 POP PUSH1 0x0 PUSH2 0x29DA PUSH2 0x29AE PUSH8 0xDE0B6B3A7640000 PUSH3 0x186A0 PUSH2 0x4DBC JUMP JUMPDEST PUSH2 0x29C7 DUP14 PUSH2 0x2720 PUSH1 0xE SLOAD DUP8 PUSH2 0x3F73 SWAP1 SWAP2 SWAP1 PUSH4 0xFFFFFFFF AND JUMP JUMPDEST PUSH2 0x29D1 SWAP2 SWAP1 PUSH2 0x4D3C JUMP JUMPDEST DUP9 SWAP1 PUSH1 0x0 PUSH2 0x3D21 JUMP JUMPDEST SWAP1 POP PUSH2 0x29E6 DUP4 DUP6 PUSH2 0x3FB9 JUMP JUMPDEST PUSH1 0x1 PUSH1 0x1 PUSH1 0xA0 SHL SUB DUP7 AND PUSH1 0x0 SWAP1 DUP2 MSTORE PUSH1 0x9 PUSH1 0x20 SWAP1 DUP2 MSTORE PUSH1 0x40 DUP1 DUP4 KECCAK256 SWAP4 SWAP1 SWAP4 SSTORE PUSH1 0x8 SWAP1 MSTORE KECCAK256 SLOAD PUSH2 0x2A15 SWAP1 DUP3 PUSH2 0x3FB9 JUMP JUMPDEST PUSH1 0x1 PUSH1 0x1 PUSH1 0xA0 SHL SUB DUP7 AND PUSH1 0x0 SWAP1 DUP2 MSTORE PUSH1 0x8 PUSH1 0x20 MSTORE PUSH1 0x40 SWAP1 KECCAK256 SSTORE DUP14 PUSH1 0x1 PUSH1 0x1 PUSH1 0xA0 SHL SUB AND DUP6 PUSH1 0x1 PUSH1 0x1 PUSH1 0xA0 SHL SUB AND PUSH32 0x8AD4D3FF00DA092C7AD9A573EA4F5F6A3DFFC6712DC06D3F78F49B862297C402 DUP4 PUSH1 0x40 MLOAD PUSH2 0x2A73 SWAP2 DUP2 MSTORE PUSH1 0x20 ADD SWAP1 JUMP JUMPDEST PUSH1 0x40 MLOAD DUP1 SWAP2 SUB SWAP1 LOG3 PUSH1 0x40 DUP1 MLOAD DUP4 DUP2 MSTORE PUSH1 0x20 DUP2 ADD DUP7 SWAP1 MSTORE PUSH1 0x1 PUSH1 0x1 PUSH1 0xA0 SHL SUB DUP8 AND SWAP2 CALLER SWAP2 PUSH32 0xC8E512D8F188CA059984B5853D2BF653DA902696B8512785B182B2C813789A6E SWAP2 ADD PUSH1 0x40 MLOAD DUP1 SWAP2 SUB SWAP1 LOG3 DUP14 PUSH1 0x1 PUSH1 0x1 PUSH1 0xA0 SHL SUB AND DUP6 PUSH1 0x1 PUSH1 0x1 PUSH1 0xA0 SHL SUB AND CALLER PUSH1 0x1 PUSH1 0x1 PUSH1 0xA0 SHL SUB AND PUSH32 0x66B108DC29B952EFC76DCCEA9B82DCE6B59FAB4D9AF73D8DCC9789AFCAD5DAF6 DUP5 DUP7 DUP10 PUSH1 0x40 MLOAD PUSH2 0x2B23 SWAP4 SWAP3 SWAP2 SWAP1 SWAP3 DUP4 MSTORE PUSH1 0x20 DUP4 ADD SWAP2 SWAP1 SWAP2 MSTORE PUSH1 0x40 DUP3 ADD MSTORE PUSH1 0x60 ADD SWAP1 JUMP JUMPDEST PUSH1 0x40 MLOAD DUP1 SWAP2 SUB SWAP1 LOG4 PUSH2 0x2B35 DUP11 DUP3 PUSH2 0x3DED JUMP JUMPDEST SWAP10 POP PUSH2 0x2B41 DUP10 DUP4 PUSH2 0x3DED JUMP JUMPDEST SWAP9 POP PUSH2 0x2B4D DUP9 DUP6 PUSH2 0x3DED JUMP JUMPDEST SWAP8 POP POP POP POP POP JUMPDEST POP PUSH1 0x1 ADD PUSH2 0x28C7 JUMP JUMPDEST POP DUP3 PUSH1 0x0 SUB PUSH2 0x2BAE JUMPI PUSH1 0x40 MLOAD PUSH3 0x461BCD PUSH1 0xE5 SHL DUP2 MSTORE PUSH1 0x20 PUSH1 0x4 DUP3 ADD MSTORE PUSH1 0x19 PUSH1 0x24 DUP3 ADD MSTORE PUSH32 0x4361756C64726F6E3A20616C6C2061726520736F6C76656E7400000000000000 PUSH1 0x44 DUP3 ADD MSTORE PUSH1 0x64 ADD PUSH2 0x993 JUMP JUMPDEST PUSH2 0x2BCC PUSH2 0x2BBA DUP5 PUSH2 0x3F7F JUMP JUMPDEST PUSH1 0x7 SLOAD PUSH1 0x1 PUSH1 0x1 PUSH1 0x80 SHL SUB AND SWAP1 PUSH2 0x3FC5 JUMP JUMPDEST PUSH1 0x7 DUP1 SLOAD PUSH16 0xFFFFFFFFFFFFFFFFFFFFFFFFFFFFFFFF NOT AND PUSH1 0x1 PUSH1 0x1 PUSH1 0x80 SHL SUB SWAP3 SWAP1 SWAP3 AND SWAP2 SWAP1 SWAP2 OR SWAP1 SSTORE PUSH2 0x2C1A PUSH2 0x2C01 DUP4 PUSH2 0x3F7F JUMP JUMPDEST PUSH1 0x7 SLOAD PUSH1 0x1 PUSH1 0x80 SHL SWAP1 DIV PUSH1 0x1 PUSH1 0x1 PUSH1 0x80 SHL SUB AND SWAP1 PUSH2 0x3FC5 JUMP JUMPDEST PUSH1 0x7 DUP1 SLOAD PUSH1 0x1 PUSH1 0x1 PUSH1 0x80 SHL SUB SWAP3 DUP4 AND PUSH1 0x1 PUSH1 0x80 SHL MUL SWAP3 AND SWAP2 SWAP1 SWAP2 OR SWAP1 SSTORE PUSH1 0x6 SLOAD PUSH2 0x2C44 SWAP1 DUP6 PUSH2 0x3FB9 JUMP JUMPDEST PUSH1 0x6 DUP2 SWAP1 SSTORE POP PUSH1 0x0 PUSH1 0x64 PUSH2 0x2C80 PUSH1 0xA PUSH2 0x2720 DUP8 PUSH3 0x186A0 PUSH2 0x2C70 PUSH1 0xE SLOAD DUP12 PUSH2 0x3F73 SWAP1 SWAP2 SWAP1 PUSH4 0xFFFFFFFF AND JUMP JUMPDEST PUSH2 0x2C7A SWAP2 SWAP1 PUSH2 0x4D3C JUMP JUMPDEST SWAP1 PUSH2 0x3FB9 JUMP JUMPDEST PUSH2 0x2C8A SWAP2 SWAP1 PUSH2 0x4D3C JUMP JUMPDEST SWAP1 POP PUSH2 0x2C96 DUP5 DUP3 PUSH2 0x3DED JUMP JUMPDEST SWAP4 POP PUSH2 0x2CBD PUSH2 0x2CA4 DUP3 PUSH2 0x3F7F JUMP JUMPDEST PUSH1 0xC SLOAD PUSH1 0x1 PUSH1 0x40 SHL SWAP1 DIV PUSH1 0x1 PUSH1 0x1 PUSH1 0x80 SHL SUB AND SWAP1 PUSH2 0x3FAD JUMP JUMPDEST PUSH1 0xC DUP1 SLOAD PUSH1 0x1 PUSH1 0x1 PUSH1 0x80 SHL SUB SWAP3 SWAP1 SWAP3 AND PUSH1 0x1 PUSH1 0x40 SHL MUL PUSH1 0x1 PUSH1 0x40 SHL PUSH1 0x1 PUSH1 0xC0 SHL SUB NOT SWAP1 SWAP3 AND SWAP2 SWAP1 SWAP2 OR SWAP1 SSTORE POP PUSH1 0x40 MLOAD PUSH4 0x6D289CE5 PUSH1 0xE1 SHL DUP2 MSTORE PUSH1 0x0 SWAP1 PUSH1 0x1 PUSH1 0x1 PUSH1 0xA0 SHL SUB PUSH32 0x0 AND SWAP1 PUSH4 0xDA5139CA SWAP1 PUSH2 0x2D5D SWAP1 PUSH32 0x0 SWAP1 DUP9 SWAP1 PUSH1 0x1 SWAP1 PUSH1 0x4 ADD PUSH2 0x479B JUMP JUMPDEST PUSH1 0x20 PUSH1 0x40 MLOAD DUP1 DUP4 SUB DUP2 DUP7 GAS STATICCALL ISZERO DUP1 ISZERO PUSH2 0x2D7A JUMPI RETURNDATASIZE PUSH1 0x0 DUP1 RETURNDATACOPY RETURNDATASIZE PUSH1 0x0 REVERT JUMPDEST POP POP POP POP PUSH1 0x40 MLOAD RETURNDATASIZE PUSH1 0x1F NOT PUSH1 0x1F DUP3 ADD AND DUP3 ADD DUP1 PUSH1 0x40 MSTORE POP DUP2 ADD SWAP1 PUSH2 0x2D9E SWAP2 SWAP1 PUSH2 0x47BE JUMP JUMPDEST PUSH1 0x2 SLOAD PUSH1 0x40 MLOAD PUSH4 0x3C6340F3 PUSH1 0xE2 SHL DUP2 MSTORE SWAP2 SWAP3 POP PUSH1 0x1 PUSH1 0x1 PUSH1 0xA0 SHL SUB PUSH32 0x0 DUP2 AND SWAP3 PUSH4 0xF18D03CC SWAP3 PUSH2 0x2DF7 SWAP3 AND SWAP1 ADDRESS SWAP1 DUP15 SWAP1 DUP12 SWAP1 PUSH1 0x4 ADD PUSH2 0x47D7 JUMP JUMPDEST PUSH1 0x0 PUSH1 0x40 MLOAD DUP1 DUP4 SUB DUP2 PUSH1 0x0 DUP8 DUP1 EXTCODESIZE ISZERO DUP1 ISZERO PUSH2 0x2E11 JUMPI PUSH1 0x0 DUP1 REVERT JUMPDEST POP GAS CALL ISZERO DUP1 ISZERO PUSH2 0x2E25 JUMPI RETURNDATASIZE PUSH1 0x0 DUP1 RETURNDATACOPY RETURNDATASIZE PUSH1 0x0 REVERT JUMPDEST POP POP POP POP PUSH1 0x1 PUSH1 0x1 PUSH1 0xA0 SHL SUB DUP9 AND ISZERO PUSH2 0x2ED9 JUMPI PUSH1 0x2 SLOAD PUSH1 0x40 MLOAD PUSH4 0xA5D4096B PUSH1 0xE0 SHL DUP2 MSTORE PUSH1 0x1 PUSH1 0x1 PUSH1 0xA0 SHL SUB DUP11 DUP2 AND SWAP3 PUSH4 0xA5D4096B SWAP3 PUSH2 0x2E94 SWAP3 SWAP1 SWAP2 AND SWAP1 PUSH32 0x0 SWAP1 CALLER SWAP1 DUP8 SWAP1 DUP13 SWAP1 DUP16 SWAP1 PUSH1 0x4 ADD PUSH2 0x4DD3 JUMP JUMPDEST PUSH1 0x40 DUP1 MLOAD DUP1 DUP4 SUB DUP2 PUSH1 0x0 DUP8 GAS CALL ISZERO DUP1 ISZERO PUSH2 0x2EB2 JUMPI RETURNDATASIZE PUSH1 0x0 DUP1 RETURNDATACOPY RETURNDATASIZE PUSH1 0x0 REVERT JUMPDEST POP POP POP POP PUSH1 0x40 MLOAD RETURNDATASIZE PUSH1 0x1F NOT PUSH1 0x1F DUP3 ADD AND DUP3 ADD DUP1 PUSH1 0x40 MSTORE POP DUP2 ADD SWAP1 PUSH2 0x2ED6 SWAP2 SWAP1 PUSH2 0x4CBB JUMP JUMPDEST POP POP JUMPDEST PUSH1 0x40 MLOAD PUSH4 0x6D289CE5 PUSH1 0xE1 SHL DUP2 MSTORE PUSH1 0x1 PUSH1 0x1 PUSH1 0xA0 SHL SUB PUSH32 0x0 AND SWAP1 PUSH4 0xDA5139CA SWAP1 PUSH2 0x2F4A SWAP1 PUSH32 0x0 SWAP1 DUP9 SWAP1 PUSH1 0x1 SWAP1 PUSH1 0x4 ADD PUSH2 0x479B JUMP JUMPDEST PUSH1 0x20 PUSH1 0x40 MLOAD DUP1 DUP4 SUB DUP2 DUP7 GAS STATICCALL ISZERO DUP1 ISZERO PUSH2 0x2F67 JUMPI RETURNDATASIZE PUSH1 0x0 DUP1 RETURNDATACOPY RETURNDATASIZE PUSH1 0x0 REVERT JUMPDEST POP POP POP POP PUSH1 0x40 MLOAD RETURNDATASIZE PUSH1 0x1F NOT PUSH1 0x1F DUP3 ADD AND DUP3 ADD DUP1 PUSH1 0x40 MSTORE POP DUP2 ADD SWAP1 PUSH2 0x2F8B SWAP2 SWAP1 PUSH2 0x47BE JUMP JUMPDEST PUSH1 0x40 MLOAD PUSH4 0x3C6340F3 PUSH1 0xE2 SHL DUP2 MSTORE SWAP1 SWAP2 POP PUSH1 0x1 PUSH1 0x1 PUSH1 0xA0 SHL SUB PUSH32 0x0 AND SWAP1 PUSH4 0xF18D03CC SWAP1 PUSH2 0x3000 SWAP1 PUSH32 0x0 SWAP1 CALLER SWAP1 ADDRESS SWAP1 DUP8 SWAP1 PUSH1 0x4 ADD PUSH2 0x47D7 JUMP JUMPDEST PUSH1 0x0 PUSH1 0x40 MLOAD DUP1 DUP4 SUB DUP2 PUSH1 0x0 DUP8 DUP1 EXTCODESIZE ISZERO DUP1 ISZERO PUSH2 0x301A JUMPI PUSH1 0x0 DUP1 REVERT JUMPDEST POP GAS CALL ISZERO DUP1 ISZERO PUSH2 0x302E JUMPI RETURNDATASIZE PUSH1 0x0 DUP1 RETURNDATACOPY RETURNDATASIZE PUSH1 0x0 REVERT JUMPDEST POP POP POP POP POP POP POP POP POP POP POP POP POP POP POP JUMP JUMPDEST PUSH1 0x40 DUP1 MLOAD DUP1 DUP3 ADD SWAP1 SWAP2 MSTORE PUSH1 0x7 SLOAD PUSH1 0x1 PUSH1 0x1 PUSH1 0x80 SHL SUB DUP1 DUP3 AND DUP4 MSTORE PUSH1 0x1 PUSH1 0x80 SHL SWAP1 SWAP2 DIV AND PUSH1 0x20 DUP3 ADD MSTORE PUSH1 0x0 SWAP1 PUSH2 0x3076 SWAP1 DUP4 PUSH1 0x1 PUSH2 0x3FD1 JUMP JUMPDEST DUP2 MLOAD PUSH1 0x20 SWAP3 DUP4 ADD MLOAD PUSH1 0x1 PUSH1 0x1 PUSH1 0x80 SHL SUB SWAP1 DUP2 AND PUSH1 0x1 PUSH1 0x80 SHL MUL SWAP2 AND OR PUSH1 0x7 SSTORE PUSH1 0x1 PUSH1 0x1 PUSH1 0xA0 SHL SUB DUP7 AND PUSH1 0x0 SWAP1 DUP2 MSTORE PUSH1 0x9 SWAP1 SWAP3 MSTORE PUSH1 0x40 SWAP1 SWAP2 KECCAK256 SLOAD SWAP1 SWAP2 POP PUSH2 0x30BC SWAP1 DUP4 PUSH2 0x3FB9 JUMP JUMPDEST PUSH1 0x1 PUSH1 0x1 PUSH1 0xA0 SHL SUB DUP1 DUP7 AND PUSH1 0x0 SWAP1 DUP2 MSTORE PUSH1 0x9 PUSH1 0x20 MSTORE PUSH1 0x40 DUP1 DUP3 KECCAK256 SWAP4 SWAP1 SWAP4 SSTORE SWAP2 MLOAD PUSH4 0x6D289CE5 PUSH1 0xE1 SHL DUP2 MSTORE PUSH32 0x0 SWAP1 SWAP2 AND SWAP1 PUSH4 0xDA5139CA SWAP1 PUSH2 0x3144 SWAP1 PUSH32 0x0 SWAP1 DUP7 SWAP1 PUSH1 0x1 SWAP1 PUSH1 0x4 ADD PUSH2 0x479B JUMP JUMPDEST PUSH1 0x20 PUSH1 0x40 MLOAD DUP1 DUP4 SUB DUP2 DUP7 GAS STATICCALL ISZERO DUP1 ISZERO PUSH2 0x3161 JUMPI RETURNDATASIZE PUSH1 0x0 DUP1 RETURNDATACOPY RETURNDATASIZE PUSH1 0x0 REVERT JUMPDEST POP POP POP POP PUSH1 0x40 MLOAD RETURNDATASIZE PUSH1 0x1F NOT PUSH1 0x1F DUP3 ADD AND DUP3 ADD DUP1 PUSH1 0x40 MSTORE POP DUP2 ADD SWAP1 PUSH2 0x3185 SWAP2 SWAP1 PUSH2 0x47BE JUMP JUMPDEST SWAP1 POP PUSH32 0x0 PUSH1 0x1 PUSH1 0x1 PUSH1 0xA0 SHL SUB AND PUSH4 0xF18D03CC PUSH32 0x0 DUP7 PUSH2 0x31E2 JUMPI CALLER PUSH2 0x3204 JUMP JUMPDEST PUSH32 0x0 JUMPDEST ADDRESS DUP6 PUSH1 0x40 MLOAD DUP6 PUSH4 0xFFFFFFFF AND PUSH1 0xE0 SHL DUP2 MSTORE PUSH1 0x4 ADD PUSH2 0x3225 SWAP5 SWAP4 SWAP3 SWAP2 SWAP1 PUSH2 0x47D7 JUMP JUMPDEST PUSH1 0x0 PUSH1 0x40 MLOAD DUP1 DUP4 SUB DUP2 PUSH1 0x0 DUP8 DUP1 EXTCODESIZE ISZERO DUP1 ISZERO PUSH2 0x323F JUMPI PUSH1 0x0 DUP1 REVERT JUMPDEST POP GAS CALL ISZERO DUP1 ISZERO PUSH2 0x3253 JUMPI RETURNDATASIZE PUSH1 0x0 DUP1 RETURNDATACOPY RETURNDATASIZE PUSH1 0x0 REVERT JUMPDEST POP POP POP POP DUP5 PUSH1 0x1 PUSH1 0x1 PUSH1 0xA0 SHL SUB AND DUP5 PUSH2 0x326C JUMPI CALLER PUSH2 0x328E JUMP JUMPDEST PUSH32 0x0 JUMPDEST PUSH1 0x1 PUSH1 0x1 PUSH1 0xA0 SHL SUB AND PUSH32 0xC8E512D8F188CA059984B5853D2BF653DA902696B8512785B182B2C813789A6E DUP5 DUP7 PUSH1 0x40 MLOAD PUSH2 0x32D1 SWAP3 SWAP2 SWAP1 SWAP2 DUP3 MSTORE PUSH1 0x20 DUP3 ADD MSTORE PUSH1 0x40 ADD SWAP1 JUMP JUMPDEST PUSH1 0x40 MLOAD DUP1 SWAP2 SUB SWAP1 LOG3 POP SWAP4 SWAP3 POP POP POP JUMP JUMPDEST PUSH1 0x1 PUSH1 0x1 PUSH1 0xA0 SHL SUB DUP3 AND PUSH1 0x0 SWAP1 DUP2 MSTORE PUSH1 0x9 PUSH1 0x20 MSTORE PUSH1 0x40 DUP2 KECCAK256 SLOAD DUP1 DUP3 SUB PUSH2 0x330B JUMPI PUSH1 0x1 SWAP2 POP POP PUSH2 0xB1B JUMP JUMPDEST PUSH1 0x1 PUSH1 0x1 PUSH1 0xA0 SHL SUB DUP5 AND PUSH1 0x0 SWAP1 DUP2 MSTORE PUSH1 0x8 PUSH1 0x20 MSTORE PUSH1 0x40 DUP2 KECCAK256 SLOAD SWAP1 DUP2 SWAP1 SUB PUSH2 0x3337 JUMPI PUSH1 0x0 SWAP3 POP POP POP PUSH2 0xB1B JUMP JUMPDEST PUSH1 0x40 DUP1 MLOAD DUP1 DUP3 ADD SWAP1 SWAP2 MSTORE PUSH1 0x7 SLOAD PUSH1 0x1 PUSH1 0x1 PUSH1 0x80 SHL SUB DUP1 DUP3 AND DUP1 DUP5 MSTORE PUSH1 0x1 PUSH1 0x80 SHL SWAP1 SWAP3 DIV AND PUSH1 0x20 DUP4 ADD DUP2 SWAP1 MSTORE SWAP1 PUSH2 0x3374 SWAP1 DUP8 SWAP1 PUSH2 0x2720 SWAP1 DUP8 SWAP1 PUSH2 0x3F73 JUMP JUMPDEST PUSH2 0x337E SWAP2 SWAP1 PUSH2 0x4D3C JUMP JUMPDEST PUSH1 0x2 SLOAD PUSH1 0xD SLOAD PUSH1 0x1 PUSH1 0x1 PUSH1 0xA0 SHL SUB PUSH32 0x0 DUP2 AND SWAP3 PUSH4 0x56623118 SWAP3 SWAP2 AND SWAP1 PUSH2 0x33DC SWAP1 PUSH2 0x2720 PUSH2 0x33D5 PUSH3 0x186A0 PUSH8 0xDE0B6B3A7640000 PUSH2 0x4D3C JUMP JUMPDEST DUP10 SWAP1 PUSH2 0x3F73 JUMP JUMPDEST PUSH1 0x0 PUSH1 0x40 MLOAD DUP5 PUSH4 0xFFFFFFFF AND PUSH1 0xE0 SHL DUP2 MSTORE PUSH1 0x4 ADD PUSH2 0x33FC SWAP4 SWAP3 SWAP2 SWAP1 PUSH2 0x479B JUMP JUMPDEST PUSH1 0x20 PUSH1 0x40 MLOAD DUP1 DUP4 SUB DUP2 DUP7 GAS STATICCALL ISZERO DUP1 ISZERO PUSH2 0x3419 JUMPI RETURNDATASIZE PUSH1 0x0 DUP1 RETURNDATACOPY RETURNDATASIZE PUSH1 0x0 REVERT JUMPDEST POP POP POP POP PUSH1 0x40 MLOAD RETURNDATASIZE PUSH1 0x1F NOT PUSH1 0x1F DUP3 ADD AND DUP3 ADD DUP1 PUSH1 0x40 MSTORE POP DUP2 ADD SWAP1 PUSH2 0x343D SWAP2 SWAP1 PUSH2 0x47BE JUMP JUMPDEST LT ISZERO SWAP7 SWAP6 POP POP POP POP POP POP JUMP JUMPDEST PUSH1 0x0 DUP1 PUSH1 0x0 PUSH3 0x186A0 PUSH2 0x3467 PUSH1 0xF SLOAD DUP7 PUSH2 0x3F73 SWAP1 SWAP2 SWAP1 PUSH4 0xFFFFFFFF AND JUMP JUMPDEST PUSH2 0x3471 SWAP2 SWAP1 PUSH2 0x4D3C JUMP JUMPDEST SWAP1 POP PUSH2 0x34B0 PUSH2 0x3480 DUP6 DUP4 PUSH2 0x3DED JUMP JUMPDEST PUSH1 0x40 DUP1 MLOAD DUP1 DUP3 ADD SWAP1 SWAP2 MSTORE PUSH1 0x7 SLOAD PUSH1 0x1 PUSH1 0x1 PUSH1 0x80 SHL SUB DUP1 DUP3 AND DUP4 MSTORE PUSH1 0x1 PUSH1 0x80 SHL SWAP1 SWAP2 DIV AND PUSH1 0x20 DUP3 ADD MSTORE SWAP1 PUSH1 0x1 PUSH2 0x4046 JUMP JUMPDEST DUP2 MLOAD PUSH1 0x20 SWAP3 DUP4 ADD MLOAD PUSH1 0x1 PUSH1 0x1 PUSH1 0x80 SHL SUB SWAP1 DUP2 AND PUSH1 0x1 PUSH1 0x80 SHL SWAP1 DUP2 MUL SWAP3 DUP3 AND DUP4 DUP2 OR PUSH1 0x7 SSTORE PUSH1 0x40 DUP1 MLOAD DUP1 DUP3 ADD SWAP1 SWAP2 MSTORE PUSH1 0x5 SLOAD DUP1 DUP6 AND DUP1 DUP4 MSTORE SWAP4 SWAP1 DIV DUP5 AND SWAP7 DUP2 ADD SWAP7 SWAP1 SWAP7 MSTORE SWAP4 SWAP8 POP SWAP2 AND SWAP1 SWAP2 OR GT ISZERO PUSH2 0x3540 JUMPI PUSH1 0x40 MLOAD PUSH3 0x461BCD PUSH1 0xE5 SHL DUP2 MSTORE PUSH1 0x20 PUSH1 0x4 DUP3 ADD MSTORE PUSH1 0x14 PUSH1 0x24 DUP3 ADD MSTORE PUSH20 0x109BDC9C9BDDC8131A5B5A5D081C995858DA1959 PUSH1 0x62 SHL PUSH1 0x44 DUP3 ADD MSTORE PUSH1 0x64 ADD PUSH2 0x993 JUMP JUMPDEST PUSH1 0xC SLOAD PUSH2 0x355D SWAP1 PUSH1 0x1 PUSH1 0x40 SHL SWAP1 DIV PUSH1 0x1 PUSH1 0x1 PUSH1 0x80 SHL SUB AND DUP4 PUSH2 0x3FAD JUMP JUMPDEST PUSH1 0xC DUP1 SLOAD PUSH1 0x1 PUSH1 0x1 PUSH1 0x80 SHL SUB SWAP3 SWAP1 SWAP3 AND PUSH1 0x1 PUSH1 0x40 SHL MUL PUSH1 0x1 PUSH1 0x40 SHL PUSH1 0x1 PUSH1 0xC0 SHL SUB NOT SWAP1 SWAP3 AND SWAP2 SWAP1 SWAP2 OR SWAP1 SSTORE CALLER PUSH1 0x0 SWAP1 DUP2 MSTORE PUSH1 0x9 PUSH1 0x20 MSTORE PUSH1 0x40 DUP2 KECCAK256 SLOAD PUSH2 0x35A2 SWAP1 DUP7 PUSH2 0x3DED JUMP JUMPDEST SWAP1 POP DUP2 PUSH1 0x20 ADD MLOAD PUSH1 0x1 PUSH1 0x1 PUSH1 0x80 SHL SUB AND DUP2 GT ISZERO PUSH2 0x35F8 JUMPI PUSH1 0x40 MLOAD PUSH3 0x461BCD PUSH1 0xE5 SHL DUP2 MSTORE PUSH1 0x20 PUSH1 0x4 DUP3 ADD MSTORE PUSH1 0x14 PUSH1 0x24 DUP3 ADD MSTORE PUSH20 0x109BDC9C9BDDC8131A5B5A5D081C995858DA1959 PUSH1 0x62 SHL PUSH1 0x44 DUP3 ADD MSTORE PUSH1 0x64 ADD PUSH2 0x993 JUMP JUMPDEST CALLER PUSH1 0x0 SWAP1 DUP2 MSTORE PUSH1 0x9 PUSH1 0x20 MSTORE PUSH1 0x40 DUP1 DUP3 KECCAK256 DUP4 SWAP1 SSTORE MLOAD PUSH4 0x6D289CE5 PUSH1 0xE1 SHL DUP2 MSTORE PUSH32 0x0 PUSH1 0x1 PUSH1 0x1 PUSH1 0xA0 SHL SUB AND SWAP2 PUSH4 0xDA5139CA SWAP2 PUSH2 0x3678 SWAP2 PUSH32 0x0 SWAP2 DUP12 SWAP2 SWAP1 PUSH1 0x4 ADD PUSH2 0x479B JUMP JUMPDEST PUSH1 0x20 PUSH1 0x40 MLOAD DUP1 DUP4 SUB DUP2 DUP7 GAS STATICCALL ISZERO DUP1 ISZERO PUSH2 0x3695 JUMPI RETURNDATASIZE PUSH1 0x0 DUP1 RETURNDATACOPY RETURNDATASIZE PUSH1 0x0 REVERT JUMPDEST POP POP POP POP PUSH1 0x40 MLOAD RETURNDATASIZE PUSH1 0x1F NOT PUSH1 0x1F DUP3 ADD AND DUP3 ADD DUP1 PUSH1 0x40 MSTORE POP DUP2 ADD SWAP1 PUSH2 0x36B9 SWAP2 SWAP1 PUSH2 0x47BE JUMP JUMPDEST PUSH1 0x40 MLOAD PUSH4 0x3C6340F3 PUSH1 0xE2 SHL DUP2 MSTORE SWAP1 SWAP5 POP PUSH1 0x1 PUSH1 0x1 PUSH1 0xA0 SHL SUB PUSH32 0x0 AND SWAP1 PUSH4 0xF18D03CC SWAP1 PUSH2 0x372E SWAP1 PUSH32 0x0 SWAP1 ADDRESS SWAP1 DUP13 SWAP1 DUP11 SWAP1 PUSH1 0x4 ADD PUSH2 0x47D7 JUMP JUMPDEST PUSH1 0x0 PUSH1 0x40 MLOAD DUP1 DUP4 SUB DUP2 PUSH1 0x0 DUP8 DUP1 EXTCODESIZE ISZERO DUP1 ISZERO PUSH2 0x3748 JUMPI PUSH1 0x0 DUP1 REVERT JUMPDEST POP GAS CALL ISZERO DUP1 ISZERO PUSH2 0x375C JUMPI RETURNDATASIZE PUSH1 0x0 DUP1 RETURNDATACOPY RETURNDATASIZE PUSH1 0x0 REVERT JUMPDEST POP POP POP PUSH1 0x1 PUSH1 0x1 PUSH1 0xA0 SHL SUB DUP9 AND SWAP1 POP CALLER PUSH32 0xB92CB6BCA8E3270B9170930F03B17571E55791ACDB1A0E9F339EEC88BDB35E24 PUSH2 0x3797 DUP10 DUP8 PUSH2 0x3DED JUMP JUMPDEST PUSH1 0x40 DUP1 MLOAD SWAP2 DUP3 MSTORE PUSH1 0x20 DUP3 ADD DUP11 SWAP1 MSTORE ADD PUSH1 0x40 MLOAD DUP1 SWAP2 SUB SWAP1 LOG3 POP POP POP SWAP3 POP SWAP3 SWAP1 POP JUMP JUMPDEST PUSH1 0x0 DUP1 DUP5 SLT ISZERO PUSH2 0x37D7 JUMPI PUSH1 0x0 NOT DUP5 EQ PUSH2 0x37D1 JUMPI DUP2 PUSH2 0x8D9 JUMP JUMPDEST DUP3 PUSH2 0x8D9 JUMP JUMPDEST POP SWAP2 SWAP3 SWAP2 POP POP JUMP JUMPDEST CALLER PUSH1 0x0 SWAP1 DUP2 MSTORE PUSH1 0x8 PUSH1 0x20 MSTORE PUSH1 0x40 SWAP1 KECCAK256 SLOAD PUSH2 0x37F9 SWAP1 DUP3 PUSH2 0x3FB9 JUMP JUMPDEST CALLER PUSH1 0x0 SWAP1 DUP2 MSTORE PUSH1 0x8 PUSH1 0x20 MSTORE PUSH1 0x40 SWAP1 KECCAK256 SSTORE PUSH1 0x6 SLOAD PUSH2 0x3816 SWAP1 DUP3 PUSH2 0x3FB9 JUMP JUMPDEST PUSH1 0x6 SSTORE PUSH1 0x40 MLOAD DUP2 DUP2 MSTORE PUSH1 0x1 PUSH1 0x1 PUSH1 0xA0 SHL SUB DUP4 AND SWAP1 CALLER SWAP1 PUSH32 0x8AD4D3FF00DA092C7AD9A573EA4F5F6A3DFFC6712DC06D3F78F49B862297C402 SWAP1 PUSH1 0x20 ADD PUSH1 0x40 MLOAD DUP1 SWAP2 SUB SWAP1 LOG3 PUSH1 0x2 SLOAD PUSH1 0x40 MLOAD PUSH4 0x3C6340F3 PUSH1 0xE2 SHL DUP2 MSTORE PUSH1 0x1 PUSH1 0x1 PUSH1 0xA0 SHL SUB PUSH32 0x0 DUP2 AND SWAP3 PUSH4 0xF18D03CC SWAP3 PUSH2 0x38B2 SWAP3 SWAP2 SWAP1 SWAP2 AND SWAP1 ADDRESS SWAP1 DUP8 SWAP1 DUP8 SWAP1 PUSH1 0x4 ADD PUSH2 0x47D7 JUMP JUMPDEST PUSH1 0x0 PUSH1 0x40 MLOAD DUP1 DUP4 SUB DUP2 PUSH1 0x0 DUP8 DUP1 EXTCODESIZE ISZERO DUP1 ISZERO PUSH2 0x38CC JUMPI PUSH1 0x0 DUP1 REVERT JUMPDEST POP GAS CALL ISZERO DUP1 ISZERO PUSH2 0x38E0 JUMPI RETURNDATASIZE PUSH1 0x0 DUP1 RETURNDATACOPY RETURNDATASIZE PUSH1 0x0 REVERT JUMPDEST POP POP POP POP POP POP JUMP JUMPDEST PUSH1 0x0 DUP1 PUSH1 0x0 DUP1 PUSH1 0x0 DUP1 DUP10 DUP1 PUSH1 0x20 ADD SWAP1 MLOAD DUP2 ADD SWAP1 PUSH2 0x3905 SWAP2 SWAP1 PUSH2 0x4E21 JUMP JUMPDEST SWAP4 POP SWAP4 POP SWAP4 POP SWAP4 POP PUSH2 0x3918 DUP3 DUP10 DUP10 PUSH2 0x37B8 JUMP JUMPDEST SWAP2 POP PUSH2 0x3925 DUP2 DUP10 DUP10 PUSH2 0x37B8 JUMP JUMPDEST SWAP1 POP PUSH32 0x0 PUSH1 0x1 PUSH1 0x1 PUSH1 0xA0 SHL SUB AND PUSH4 0x2B9446C DUP11 DUP7 CALLER DUP8 DUP8 DUP8 PUSH1 0x40 MLOAD DUP8 PUSH4 0xFFFFFFFF AND PUSH1 0xE0 SHL DUP2 MSTORE PUSH1 0x4 ADD PUSH2 0x397C SWAP6 SWAP5 SWAP4 SWAP3 SWAP2 SWAP1 PUSH2 0x4CDF JUMP JUMPDEST PUSH1 0x40 DUP1 MLOAD DUP1 DUP4 SUB DUP2 DUP6 DUP9 GAS CALL ISZERO DUP1 ISZERO PUSH2 0x3999 JUMPI RETURNDATASIZE PUSH1 0x0 DUP1 RETURNDATACOPY RETURNDATASIZE PUSH1 0x0 REVERT JUMPDEST POP POP POP POP POP PUSH1 0x40 MLOAD RETURNDATASIZE PUSH1 0x1F NOT PUSH1 0x1F DUP3 ADD AND DUP3 ADD DUP1 PUSH1 0x40 MSTORE POP DUP2 ADD SWAP1 PUSH2 0x39BE SWAP2 SWAP1 PUSH2 0x4CBB JUMP JUMPDEST SWAP6 POP SWAP6 POP POP POP POP POP SWAP5 POP SWAP5 SWAP3 POP POP POP JUMP JUMPDEST PUSH1 0x0 DUP1 PUSH1 0x0 DUP1 PUSH1 0x0 DUP1 DUP9 DUP1 PUSH1 0x20 ADD SWAP1 MLOAD DUP2 ADD SWAP1 PUSH2 0x39EC SWAP2 SWAP1 PUSH2 0x4E21 JUMP JUMPDEST SWAP4 POP SWAP4 POP SWAP4 POP SWAP4 POP PUSH32 0x0 PUSH1 0x1 PUSH1 0x1 PUSH1 0xA0 SHL SUB AND PUSH4 0x97DA6D30 DUP6 CALLER DUP7 PUSH2 0x3A31 DUP8 DUP15 DUP15 PUSH2 0x37B8 JUMP JUMPDEST PUSH2 0x3A3C DUP8 DUP16 DUP16 PUSH2 0x37B8 JUMP JUMPDEST PUSH1 0x40 MLOAD DUP7 PUSH4 0xFFFFFFFF AND PUSH1 0xE0 SHL DUP2 MSTORE PUSH1 0x4 ADD PUSH2 0x3A5C SWAP6 SWAP5 SWAP4 SWAP3 SWAP2 SWAP1 PUSH2 0x4CDF JUMP JUMPDEST PUSH1 0x40 DUP1 MLOAD DUP1 DUP4 SUB DUP2 PUSH1 0x0 DUP8 GAS CALL ISZERO DUP1 ISZERO PUSH2 0x3A7A JUMPI RETURNDATASIZE PUSH1 0x0 DUP1 RETURNDATACOPY RETURNDATASIZE PUSH1 0x0 REVERT JUMPDEST POP POP POP POP PUSH1 0x40 MLOAD RETURNDATASIZE PUSH1 0x1F NOT PUSH1 0x1F DUP3 ADD AND DUP3 ADD DUP1 PUSH1 0x40 MSTORE POP DUP2 ADD SWAP1 PUSH2 0x3A9E SWAP2 SWAP1 PUSH2 0x4CBB JUMP JUMPDEST SWAP6 POP SWAP6 POP POP POP POP POP SWAP4 POP SWAP4 SWAP2 POP POP JUMP JUMPDEST PUSH1 0x60 PUSH1 0x0 DUP1 PUSH1 0x0 DUP1 PUSH1 0x0 DUP1 DUP10 DUP1 PUSH1 0x20 ADD SWAP1 MLOAD DUP2 ADD SWAP1 PUSH2 0x3ACD SWAP2 SWAP1 PUSH2 0x4E74 JUMP JUMPDEST SWAP5 POP SWAP5 POP SWAP5 POP SWAP5 POP SWAP5 POP DUP3 DUP1 ISZERO PUSH2 0x3AE2 JUMPI POP DUP2 ISZERO JUMPDEST ISZERO PUSH2 0x3B10 JUMPI DUP4 DUP10 PUSH1 0x40 MLOAD PUSH1 0x20 ADD PUSH2 0x3AFA SWAP3 SWAP2 SWAP1 PUSH2 0x4F31 JUMP JUMPDEST PUSH1 0x40 MLOAD PUSH1 0x20 DUP2 DUP4 SUB SUB DUP2 MSTORE SWAP1 PUSH1 0x40 MSTORE SWAP4 POP PUSH2 0x3B69 JUMP JUMPDEST DUP3 ISZERO DUP1 ISZERO PUSH2 0x3B1B JUMPI POP DUP2 JUMPDEST ISZERO PUSH2 0x3B33 JUMPI DUP4 DUP9 PUSH1 0x40 MLOAD PUSH1 0x20 ADD PUSH2 0x3AFA SWAP3 SWAP2 SWAP1 PUSH2 0x4F31 JUMP JUMPDEST DUP3 DUP1 ISZERO PUSH2 0x3B3D JUMPI POP DUP2 JUMPDEST ISZERO PUSH2 0x3B69 JUMPI DUP4 DUP10 DUP10 PUSH1 0x40 MLOAD PUSH1 0x20 ADD PUSH2 0x3B57 SWAP4 SWAP3 SWAP2 SWAP1 PUSH2 0x4F53 JUMP JUMPDEST PUSH1 0x40 MLOAD PUSH1 0x20 DUP2 DUP4 SUB SUB DUP2 MSTORE SWAP1 PUSH1 0x40 MSTORE SWAP4 POP JUMPDEST PUSH1 0x1 PUSH1 0x1 PUSH1 0xA0 SHL SUB DUP6 AND PUSH1 0x0 SWAP1 DUP2 MSTORE PUSH1 0xA PUSH1 0x20 MSTORE PUSH1 0x40 SWAP1 KECCAK256 SLOAD PUSH1 0xFF AND ISZERO PUSH2 0x3BC9 JUMPI PUSH1 0x40 MLOAD PUSH3 0x461BCD PUSH1 0xE5 SHL DUP2 MSTORE PUSH1 0x20 PUSH1 0x4 DUP3 ADD MSTORE PUSH1 0x14 PUSH1 0x24 DUP3 ADD MSTORE PUSH20 0x10D85D5B191C9BDB8E8818D85B89DD0818D85B1B PUSH1 0x62 SHL PUSH1 0x44 DUP3 ADD MSTORE PUSH1 0x64 ADD PUSH2 0x993 JUMP JUMPDEST PUSH1 0x0 DUP1 DUP7 PUSH1 0x1 PUSH1 0x1 PUSH1 0xA0 SHL SUB AND DUP14 DUP8 PUSH1 0x40 MLOAD PUSH2 0x3BE5 SWAP2 SWAP1 PUSH2 0x4F7A JUMP JUMPDEST PUSH1 0x0 PUSH1 0x40 MLOAD DUP1 DUP4 SUB DUP2 DUP6 DUP8 GAS CALL SWAP3 POP POP POP RETURNDATASIZE DUP1 PUSH1 0x0 DUP2 EQ PUSH2 0x3C22 JUMPI PUSH1 0x40 MLOAD SWAP2 POP PUSH1 0x1F NOT PUSH1 0x3F RETURNDATASIZE ADD AND DUP3 ADD PUSH1 0x40 MSTORE RETURNDATASIZE DUP3 MSTORE RETURNDATASIZE PUSH1 0x0 PUSH1 0x20 DUP5 ADD RETURNDATACOPY PUSH2 0x3C27 JUMP JUMPDEST PUSH1 0x60 SWAP2 POP JUMPDEST POP SWAP2 POP SWAP2 POP DUP2 PUSH2 0x3C71 JUMPI PUSH1 0x40 MLOAD PUSH3 0x461BCD PUSH1 0xE5 SHL DUP2 MSTORE PUSH1 0x20 PUSH1 0x4 DUP3 ADD MSTORE PUSH1 0x15 PUSH1 0x24 DUP3 ADD MSTORE PUSH21 0x10D85D5B191C9BDB8E8818D85B1B0819985A5B1959 PUSH1 0x5A SHL PUSH1 0x44 DUP3 ADD MSTORE PUSH1 0x64 ADD PUSH2 0x993 JUMP JUMPDEST SWAP13 SWAP2 SWAP12 POP SWAP1 SWAP10 POP POP POP POP POP POP POP POP POP POP JUMP JUMPDEST PUSH1 0x0 DUP4 PUSH1 0x20 ADD MLOAD PUSH1 0x1 PUSH1 0x1 PUSH1 0x80 SHL SUB AND PUSH1 0x0 SUB PUSH2 0x3CA1 JUMPI POP DUP2 PUSH2 0x3D1A JUMP JUMPDEST PUSH1 0x20 DUP5 ADD MLOAD DUP5 MLOAD PUSH1 0x1 PUSH1 0x1 PUSH1 0x80 SHL SUB SWAP2 DUP3 AND SWAP2 PUSH2 0x3CBF SWAP2 AND DUP6 PUSH2 0x4DBC JUMP JUMPDEST PUSH2 0x3CC9 SWAP2 SWAP1 PUSH2 0x4D3C JUMP JUMPDEST SWAP1 POP DUP2 DUP1 ISZERO PUSH2 0x3D07 JUMPI POP DUP3 DUP5 PUSH1 0x0 ADD MLOAD PUSH1 0x1 PUSH1 0x1 PUSH1 0x80 SHL SUB AND DUP6 PUSH1 0x20 ADD MLOAD PUSH1 0x1 PUSH1 0x1 PUSH1 0x80 SHL SUB AND DUP4 PUSH2 0x3CFB SWAP2 SWAP1 PUSH2 0x4DBC JUMP JUMPDEST PUSH2 0x3D05 SWAP2 SWAP1 PUSH2 0x4D3C JUMP JUMPDEST LT JUMPDEST ISZERO PUSH2 0x3D1A JUMPI DUP1 PUSH2 0x3D16 DUP2 PUSH2 0x4F96 JUMP JUMPDEST SWAP2 POP POP JUMPDEST SWAP4 SWAP3 POP POP POP JUMP JUMPDEST DUP3 MLOAD PUSH1 0x0 SWAP1 PUSH1 0x1 PUSH1 0x1 PUSH1 0x80 SHL SUB AND DUP2 SUB PUSH2 0x3D3C JUMPI POP DUP2 PUSH2 0x3D1A JUMP JUMPDEST DUP4 MLOAD PUSH1 0x20 DUP6 ADD MLOAD PUSH1 0x1 PUSH1 0x1 PUSH1 0x80 SHL SUB SWAP2 DUP3 AND SWAP2 PUSH2 0x3D5A SWAP2 AND DUP6 PUSH2 0x4DBC JUMP JUMPDEST PUSH2 0x3D64 SWAP2 SWAP1 PUSH2 0x4D3C JUMP JUMPDEST SWAP1 POP DUP2 DUP1 ISZERO PUSH2 0x3D07 JUMPI POP DUP3 DUP5 PUSH1 0x20 ADD MLOAD PUSH1 0x1 PUSH1 0x1 PUSH1 0x80 SHL SUB AND DUP6 PUSH1 0x0 ADD MLOAD PUSH1 0x1 PUSH1 0x1 PUSH1 0x80 SHL SUB AND DUP4 PUSH2 0x3CFB SWAP2 SWAP1 PUSH2 0x4DBC JUMP JUMPDEST PUSH1 0x0 DUP1 DUP1 DUP1 DUP1 PUSH2 0x3DA8 DUP7 DUP9 ADD DUP9 PUSH2 0x4593 JUMP JUMPDEST SWAP5 POP SWAP5 POP SWAP5 POP SWAP5 POP SWAP5 POP PUSH2 0x3DBF DUP6 DUP6 DUP6 DUP6 DUP6 PUSH2 0x2816 JUMP JUMPDEST POP POP POP POP POP POP POP JUMP JUMPDEST PUSH1 0x40 DUP1 MLOAD DUP1 DUP3 ADD SWAP1 SWAP2 MSTORE PUSH1 0x0 DUP1 DUP3 MSTORE PUSH1 0x20 DUP3 ADD DUP2 SWAP1 MSTORE PUSH1 0x60 SWAP2 SWAP7 POP SWAP7 POP SWAP7 SWAP4 POP POP POP POP JUMP JUMPDEST PUSH1 0x0 PUSH2 0x3D1A DUP3 DUP5 PUSH2 0x4FAF JUMP JUMPDEST DUP1 ISZERO PUSH2 0x3EE9 JUMPI PUSH1 0x40 MLOAD PUSH4 0x3DE222BB PUSH1 0xE2 SHL DUP2 MSTORE PUSH1 0x1 PUSH1 0x1 PUSH1 0xA0 SHL SUB DUP6 DUP2 AND PUSH1 0x4 DUP4 ADD MSTORE ADDRESS PUSH1 0x24 DUP4 ADD MSTORE PUSH2 0x3E95 SWAP2 DUP5 SWAP2 PUSH32 0x0 AND SWAP1 PUSH4 0xF7888AEC SWAP1 PUSH1 0x44 ADD PUSH1 0x20 PUSH1 0x40 MLOAD DUP1 DUP4 SUB DUP2 DUP7 GAS STATICCALL ISZERO DUP1 ISZERO PUSH2 0x3E71 JUMPI RETURNDATASIZE PUSH1 0x0 DUP1 RETURNDATACOPY RETURNDATASIZE PUSH1 0x0 REVERT JUMPDEST POP POP POP POP PUSH1 0x40 MLOAD RETURNDATASIZE PUSH1 0x1F NOT PUSH1 0x1F DUP3 ADD AND DUP3 ADD DUP1 PUSH1 0x40 MSTORE POP DUP2 ADD SWAP1 PUSH2 0x2C7A SWAP2 SWAP1 PUSH2 0x47BE JUMP JUMPDEST DUP4 GT ISZERO PUSH2 0x3EE4 JUMPI PUSH1 0x40 MLOAD PUSH3 0x461BCD PUSH1 0xE5 SHL DUP2 MSTORE PUSH1 0x20 PUSH1 0x4 DUP3 ADD MSTORE PUSH1 0x17 PUSH1 0x24 DUP3 ADD MSTORE PUSH32 0x4361756C64726F6E3A20536B696D20746F6F206D756368000000000000000000 PUSH1 0x44 DUP3 ADD MSTORE PUSH1 0x64 ADD PUSH2 0x993 JUMP JUMPDEST PUSH2 0x1FEF JUMP JUMPDEST PUSH1 0x40 MLOAD PUSH4 0x3C6340F3 PUSH1 0xE2 SHL DUP2 MSTORE PUSH1 0x1 PUSH1 0x1 PUSH1 0xA0 SHL SUB PUSH32 0x0 AND SWAP1 PUSH4 0xF18D03CC SWAP1 PUSH2 0x3F3B SWAP1 DUP8 SWAP1 CALLER SWAP1 ADDRESS SWAP1 DUP10 SWAP1 PUSH1 0x4 ADD PUSH2 0x47D7 JUMP JUMPDEST PUSH1 0x0 PUSH1 0x40 MLOAD DUP1 DUP4 SUB DUP2 PUSH1 0x0 DUP8 DUP1 EXTCODESIZE ISZERO DUP1 ISZERO PUSH2 0x3F55 JUMPI PUSH1 0x0 DUP1 REVERT JUMPDEST POP GAS CALL ISZERO DUP1 ISZERO PUSH2 0x3F69 JUMPI RETURNDATASIZE PUSH1 0x0 DUP1 RETURNDATACOPY RETURNDATASIZE PUSH1 0x0 REVERT JUMPDEST POP POP POP POP POP POP POP POP JUMP JUMPDEST PUSH1 0x0 PUSH2 0x3D1A DUP3 DUP5 PUSH2 0x4DBC JUMP JUMPDEST PUSH1 0x0 PUSH1 0x1 PUSH1 0x1 PUSH1 0x80 SHL SUB DUP3 GT ISZERO PUSH2 0x3FA9 JUMPI PUSH1 0x40 MLOAD PUSH4 0x3B13FA25 PUSH1 0xE1 SHL DUP2 MSTORE PUSH1 0x4 ADD PUSH1 0x40 MLOAD DUP1 SWAP2 SUB SWAP1 REVERT JUMPDEST POP SWAP1 JUMP JUMPDEST PUSH1 0x0 PUSH2 0x3D1A DUP3 DUP5 PUSH2 0x4FC2 JUMP JUMPDEST PUSH1 0x0 PUSH2 0x3D1A DUP3 DUP5 PUSH2 0x4D29 JUMP JUMPDEST PUSH1 0x0 PUSH2 0x3D1A DUP3 DUP5 PUSH2 0x4FE9 JUMP JUMPDEST PUSH1 0x40 DUP1 MLOAD DUP1 DUP3 ADD SWAP1 SWAP2 MSTORE PUSH1 0x0 DUP1 DUP3 MSTORE PUSH1 0x20 DUP3 ADD MSTORE PUSH1 0x0 PUSH2 0x3FF2 DUP6 DUP6 DUP6 PUSH2 0x3C83 JUMP JUMPDEST SWAP1 POP PUSH2 0x3FFD DUP2 PUSH2 0x3F7F JUMP JUMPDEST DUP6 MLOAD DUP7 SWAP1 PUSH2 0x400C SWAP1 DUP4 SWAP1 PUSH2 0x4FE9 JUMP JUMPDEST PUSH1 0x1 PUSH1 0x1 PUSH1 0x80 SHL SUB AND SWAP1 MSTORE POP PUSH2 0x4021 DUP5 PUSH2 0x3F7F JUMP JUMPDEST DUP6 PUSH1 0x20 ADD DUP2 DUP2 MLOAD PUSH2 0x4032 SWAP2 SWAP1 PUSH2 0x4FE9 JUMP JUMPDEST PUSH1 0x1 PUSH1 0x1 PUSH1 0x80 SHL SUB AND SWAP1 MSTORE POP SWAP4 SWAP5 SWAP3 POP POP POP JUMP JUMPDEST PUSH1 0x40 DUP1 MLOAD DUP1 DUP3 ADD SWAP1 SWAP2 MSTORE PUSH1 0x0 DUP1 DUP3 MSTORE PUSH1 0x20 DUP3 ADD MSTORE PUSH1 0x0 PUSH2 0x4067 DUP6 DUP6 DUP6 PUSH2 0x3D21 JUMP JUMPDEST SWAP1 POP PUSH2 0x4072 DUP5 PUSH2 0x3F7F JUMP JUMPDEST DUP6 MLOAD DUP7 SWAP1 PUSH2 0x4081 SWAP1 DUP4 SWAP1 PUSH2 0x4FC2 JUMP JUMPDEST PUSH1 0x1 PUSH1 0x1 PUSH1 0x80 SHL SUB AND SWAP1 MSTORE POP PUSH2 0x4096 DUP2 PUSH2 0x3F7F JUMP JUMPDEST DUP6 PUSH1 0x20 ADD DUP2 DUP2 MLOAD PUSH2 0x4032 SWAP2 SWAP1 PUSH2 0x4FC2 JUMP JUMPDEST PUSH1 0x1 PUSH1 0x1 PUSH1 0xA0 SHL SUB DUP2 AND DUP2 EQ PUSH2 0x40BC JUMPI PUSH1 0x0 DUP1 REVERT JUMPDEST POP JUMP JUMPDEST DUP1 ISZERO ISZERO DUP2 EQ PUSH2 0x40BC JUMPI PUSH1 0x0 DUP1 REVERT JUMPDEST PUSH1 0x0 DUP1 PUSH1 0x0 PUSH1 0x60 DUP5 DUP7 SUB SLT ISZERO PUSH2 0x40E2 JUMPI PUSH1 0x0 DUP1 REVERT JUMPDEST DUP4 CALLDATALOAD PUSH2 0x40ED DUP2 PUSH2 0x40A7 JUMP JUMPDEST SWAP3 POP PUSH1 0x20 DUP5 ADD CALLDATALOAD PUSH2 0x40FD DUP2 PUSH2 0x40BF JUMP JUMPDEST SWAP3 SWAP6 SWAP3 SWAP5 POP POP POP PUSH1 0x40 SWAP2 SWAP1 SWAP2 ADD CALLDATALOAD SWAP1 JUMP JUMPDEST PUSH1 0x0 PUSH1 0x20 DUP3 DUP5 SUB SLT ISZERO PUSH2 0x4120 JUMPI PUSH1 0x0 DUP1 REVERT JUMPDEST DUP2 CALLDATALOAD PUSH2 0x3D1A DUP2 PUSH2 0x40A7 JUMP JUMPDEST DUP1 CALLDATALOAD PUSH1 0x1 PUSH1 0x1 PUSH1 0x40 SHL SUB DUP2 AND DUP2 EQ PUSH2 0x4142 JUMPI PUSH1 0x0 DUP1 REVERT JUMPDEST SWAP2 SWAP1 POP JUMP JUMPDEST PUSH1 0x0 PUSH1 0x20 DUP3 DUP5 SUB SLT ISZERO PUSH2 0x4159 JUMPI PUSH1 0x0 DUP1 REVERT JUMPDEST PUSH2 0x3D1A DUP3 PUSH2 0x412B JUMP JUMPDEST PUSH1 0x0 PUSH1 0x20 DUP3 DUP5 SUB SLT ISZERO PUSH2 0x4174 JUMPI PUSH1 0x0 DUP1 REVERT JUMPDEST POP CALLDATALOAD SWAP2 SWAP1 POP JUMP JUMPDEST PUSH1 0x0 DUP1 PUSH1 0x40 DUP4 DUP6 SUB SLT ISZERO PUSH2 0x418E JUMPI PUSH1 0x0 DUP1 REVERT JUMPDEST DUP3 CALLDATALOAD PUSH2 0x4199 DUP2 PUSH2 0x40A7 JUMP JUMPDEST SWAP5 PUSH1 0x20 SWAP4 SWAP1 SWAP4 ADD CALLDATALOAD SWAP4 POP POP POP JUMP JUMPDEST PUSH1 0x0 DUP1 PUSH1 0x20 DUP4 DUP6 SUB SLT ISZERO PUSH2 0x41BA JUMPI PUSH1 0x0 DUP1 REVERT JUMPDEST DUP3 CALLDATALOAD PUSH1 0x1 PUSH1 0x1 PUSH1 0x40 SHL SUB DUP1 DUP3 GT ISZERO PUSH2 0x41D1 JUMPI PUSH1 0x0 DUP1 REVERT JUMPDEST DUP2 DUP6 ADD SWAP2 POP DUP6 PUSH1 0x1F DUP4 ADD SLT PUSH2 0x41E5 JUMPI PUSH1 0x0 DUP1 REVERT JUMPDEST DUP2 CALLDATALOAD DUP2 DUP2 GT ISZERO PUSH2 0x41F4 JUMPI PUSH1 0x0 DUP1 REVERT JUMPDEST DUP7 PUSH1 0x20 DUP3 DUP6 ADD ADD GT ISZERO PUSH2 0x4206 JUMPI PUSH1 0x0 DUP1 REVERT JUMPDEST PUSH1 0x20 SWAP3 SWAP1 SWAP3 ADD SWAP7 SWAP2 SWAP6 POP SWAP1 SWAP4 POP POP POP POP JUMP JUMPDEST PUSH1 0x0 DUP1 DUP4 PUSH1 0x1F DUP5 ADD SLT PUSH2 0x422A JUMPI PUSH1 0x0 DUP1 REVERT JUMPDEST POP DUP2 CALLDATALOAD PUSH1 0x1 PUSH1 0x1 PUSH1 0x40 SHL SUB DUP2 GT ISZERO PUSH2 0x4241 JUMPI PUSH1 0x0 DUP1 REVERT JUMPDEST PUSH1 0x20 DUP4 ADD SWAP2 POP DUP4 PUSH1 0x20 DUP3 PUSH1 0x5 SHL DUP6 ADD ADD GT ISZERO PUSH2 0x425C JUMPI PUSH1 0x0 DUP1 REVERT JUMPDEST SWAP3 POP SWAP3 SWAP1 POP JUMP JUMPDEST PUSH1 0x0 DUP1 PUSH1 0x0 DUP1 PUSH1 0x0 DUP1 PUSH1 0x60 DUP8 DUP10 SUB SLT ISZERO PUSH2 0x427C JUMPI PUSH1 0x0 DUP1 REVERT JUMPDEST DUP7 CALLDATALOAD PUSH1 0x1 PUSH1 0x1 PUSH1 0x40 SHL SUB DUP1 DUP3 GT ISZERO PUSH2 0x4293 JUMPI PUSH1 0x0 DUP1 REVERT JUMPDEST PUSH2 0x429F DUP11 DUP4 DUP12 ADD PUSH2 0x4218 JUMP JUMPDEST SWAP1 SWAP9 POP SWAP7 POP PUSH1 0x20 DUP10 ADD CALLDATALOAD SWAP2 POP DUP1 DUP3 GT ISZERO PUSH2 0x42B8 JUMPI PUSH1 0x0 DUP1 REVERT JUMPDEST PUSH2 0x42C4 DUP11 DUP4 DUP12 ADD PUSH2 0x4218 JUMP JUMPDEST SWAP1 SWAP7 POP SWAP5 POP PUSH1 0x40 DUP10 ADD CALLDATALOAD SWAP2 POP DUP1 DUP3 GT ISZERO PUSH2 0x42DD JUMPI PUSH1 0x0 DUP1 REVERT JUMPDEST POP PUSH2 0x42EA DUP10 DUP3 DUP11 ADD PUSH2 0x4218 JUMP JUMPDEST SWAP8 SWAP11 SWAP7 SWAP10 POP SWAP5 SWAP8 POP SWAP3 SWAP6 SWAP4 SWAP5 SWAP3 POP POP POP JUMP JUMPDEST PUSH1 0x0 JUMPDEST DUP4 DUP2 LT ISZERO PUSH2 0x4317 JUMPI DUP2 DUP2 ADD MLOAD DUP4 DUP3 ADD MSTORE PUSH1 0x20 ADD PUSH2 0x42FF JUMP JUMPDEST POP POP PUSH1 0x0 SWAP2 ADD MSTORE JUMP JUMPDEST PUSH1 0x0 DUP2 MLOAD DUP1 DUP5 MSTORE PUSH2 0x4338 DUP2 PUSH1 0x20 DUP7 ADD PUSH1 0x20 DUP7 ADD PUSH2 0x42FC JUMP JUMPDEST PUSH1 0x1F ADD PUSH1 0x1F NOT AND SWAP3 SWAP1 SWAP3 ADD PUSH1 0x20 ADD SWAP3 SWAP2 POP POP JUMP JUMPDEST PUSH1 0x20 DUP2 MSTORE PUSH1 0x0 PUSH2 0x3D1A PUSH1 0x20 DUP4 ADD DUP5 PUSH2 0x4320 JUMP JUMPDEST PUSH1 0x0 DUP1 PUSH1 0x40 DUP4 DUP6 SUB SLT ISZERO PUSH2 0x4372 JUMPI PUSH1 0x0 DUP1 REVERT JUMPDEST DUP3 CALLDATALOAD PUSH2 0x437D DUP2 PUSH2 0x40A7 JUMP JUMPDEST SWAP2 POP PUSH1 0x20 DUP4 ADD CALLDATALOAD PUSH2 0x438D DUP2 PUSH2 0x40BF JUMP JUMPDEST DUP1 SWAP2 POP POP SWAP3 POP SWAP3 SWAP1 POP JUMP JUMPDEST PUSH1 0x1 PUSH1 0x1 PUSH1 0x80 SHL SUB DUP2 AND DUP2 EQ PUSH2 0x40BC JUMPI PUSH1 0x0 DUP1 REVERT JUMPDEST PUSH1 0x0 DUP1 PUSH1 0x40 DUP4 DUP6 SUB SLT ISZERO PUSH2 0x43C0 JUMPI PUSH1 0x0 DUP1 REVERT JUMPDEST DUP3 CALLDATALOAD PUSH2 0x43CB DUP2 PUSH2 0x4398 JUMP JUMPDEST SWAP2 POP PUSH1 0x20 DUP4 ADD CALLDATALOAD PUSH2 0x438D DUP2 PUSH2 0x4398 JUMP JUMPDEST PUSH4 0x4E487B71 PUSH1 0xE0 SHL PUSH1 0x0 MSTORE PUSH1 0x41 PUSH1 0x4 MSTORE PUSH1 0x24 PUSH1 0x0 REVERT JUMPDEST PUSH1 0x40 MLOAD PUSH1 0x1F DUP3 ADD PUSH1 0x1F NOT AND DUP2 ADD PUSH1 0x1 PUSH1 0x1 PUSH1 0x40 SHL SUB DUP2 GT DUP3 DUP3 LT OR ISZERO PUSH2 0x4419 JUMPI PUSH2 0x4419 PUSH2 0x43DB JUMP JUMPDEST PUSH1 0x40 MSTORE SWAP2 SWAP1 POP JUMP JUMPDEST PUSH1 0x0 PUSH1 0x1 PUSH1 0x1 PUSH1 0x40 SHL SUB DUP3 GT ISZERO PUSH2 0x443A JUMPI PUSH2 0x443A PUSH2 0x43DB JUMP JUMPDEST POP PUSH1 0x5 SHL PUSH1 0x20 ADD SWAP1 JUMP JUMPDEST PUSH1 0x0 DUP3 PUSH1 0x1F DUP4 ADD SLT PUSH2 0x4455 JUMPI PUSH1 0x0 DUP1 REVERT JUMPDEST DUP2 CALLDATALOAD PUSH1 0x20 PUSH2 0x446A PUSH2 0x4465 DUP4 PUSH2 0x4421 JUMP JUMPDEST PUSH2 0x43F1 JUMP JUMPDEST DUP1 DUP4 DUP3 MSTORE PUSH1 0x20 DUP3 ADD SWAP2 POP PUSH1 0x20 DUP5 PUSH1 0x5 SHL DUP8 ADD ADD SWAP4 POP DUP7 DUP5 GT ISZERO PUSH2 0x448C JUMPI PUSH1 0x0 DUP1 REVERT JUMPDEST PUSH1 0x20 DUP7 ADD JUMPDEST DUP5 DUP2 LT ISZERO PUSH2 0x44B1 JUMPI DUP1 CALLDATALOAD PUSH2 0x44A4 DUP2 PUSH2 0x40A7 JUMP JUMPDEST DUP4 MSTORE SWAP2 DUP4 ADD SWAP2 DUP4 ADD PUSH2 0x4491 JUMP JUMPDEST POP SWAP7 SWAP6 POP POP POP POP POP POP JUMP JUMPDEST PUSH1 0x0 DUP3 PUSH1 0x1F DUP4 ADD SLT PUSH2 0x44CD JUMPI PUSH1 0x0 DUP1 REVERT JUMPDEST DUP2 CALLDATALOAD PUSH1 0x20 PUSH2 0x44DD PUSH2 0x4465 DUP4 PUSH2 0x4421 JUMP JUMPDEST DUP1 DUP4 DUP3 MSTORE PUSH1 0x20 DUP3 ADD SWAP2 POP PUSH1 0x20 DUP5 PUSH1 0x5 SHL DUP8 ADD ADD SWAP4 POP DUP7 DUP5 GT ISZERO PUSH2 0x44FF JUMPI PUSH1 0x0 DUP1 REVERT JUMPDEST PUSH1 0x20 DUP7 ADD JUMPDEST DUP5 DUP2 LT ISZERO PUSH2 0x44B1 JUMPI DUP1 CALLDATALOAD DUP4 MSTORE SWAP2 DUP4 ADD SWAP2 DUP4 ADD PUSH2 0x4504 JUMP JUMPDEST PUSH1 0x0 PUSH1 0x1 PUSH1 0x1 PUSH1 0x40 SHL SUB DUP3 GT ISZERO PUSH2 0x4534 JUMPI PUSH2 0x4534 PUSH2 0x43DB JUMP JUMPDEST POP PUSH1 0x1F ADD PUSH1 0x1F NOT AND PUSH1 0x20 ADD SWAP1 JUMP JUMPDEST PUSH1 0x0 DUP3 PUSH1 0x1F DUP4 ADD SLT PUSH2 0x4553 JUMPI PUSH1 0x0 DUP1 REVERT JUMPDEST DUP2 CALLDATALOAD PUSH2 0x4561 PUSH2 0x4465 DUP3 PUSH2 0x451B JUMP JUMPDEST DUP2 DUP2 MSTORE DUP5 PUSH1 0x20 DUP4 DUP7 ADD ADD GT ISZERO PUSH2 0x4576 JUMPI PUSH1 0x0 DUP1 REVERT JUMPDEST DUP2 PUSH1 0x20 DUP6 ADD PUSH1 0x20 DUP4 ADD CALLDATACOPY PUSH1 0x0 SWAP2 DUP2 ADD PUSH1 0x20 ADD SWAP2 SWAP1 SWAP2 MSTORE SWAP4 SWAP3 POP POP POP JUMP JUMPDEST PUSH1 0x0 DUP1 PUSH1 0x0 DUP1 PUSH1 0x0 PUSH1 0xA0 DUP7 DUP9 SUB SLT ISZERO PUSH2 0x45AB JUMPI PUSH1 0x0 DUP1 REVERT JUMPDEST DUP6 CALLDATALOAD PUSH1 0x1 PUSH1 0x1 PUSH1 0x40 SHL SUB DUP1 DUP3 GT ISZERO PUSH2 0x45C2 JUMPI PUSH1 0x0 DUP1 REVERT JUMPDEST PUSH2 0x45CE DUP10 DUP4 DUP11 ADD PUSH2 0x4444 JUMP JUMPDEST SWAP7 POP PUSH1 0x20 DUP9 ADD CALLDATALOAD SWAP2 POP DUP1 DUP3 GT ISZERO PUSH2 0x45E4 JUMPI PUSH1 0x0 DUP1 REVERT JUMPDEST PUSH2 0x45F0 DUP10 DUP4 DUP11 ADD PUSH2 0x44BC JUMP JUMPDEST SWAP6 POP PUSH1 0x40 DUP9 ADD CALLDATALOAD SWAP2 POP PUSH2 0x4602 DUP3 PUSH2 0x40A7 JUMP JUMPDEST SWAP1 SWAP4 POP PUSH1 0x60 DUP8 ADD CALLDATALOAD SWAP1 PUSH2 0x4614 DUP3 PUSH2 0x40A7 JUMP JUMPDEST SWAP1 SWAP3 POP PUSH1 0x80 DUP8 ADD CALLDATALOAD SWAP1 DUP1 DUP3 GT ISZERO PUSH2 0x462A JUMPI PUSH1 0x0 DUP1 REVERT JUMPDEST POP PUSH2 0x4637 DUP9 DUP3 DUP10 ADD PUSH2 0x4542 JUMP JUMPDEST SWAP2 POP POP SWAP3 SWAP6 POP SWAP3 SWAP6 SWAP1 SWAP4 POP JUMP JUMPDEST PUSH1 0x1 DUP2 DUP2 SHR SWAP1 DUP3 AND DUP1 PUSH2 0x4658 JUMPI PUSH1 0x7F DUP3 AND SWAP2 POP JUMPDEST PUSH1 0x20 DUP3 LT DUP2 SUB PUSH2 0x4678 JUMPI PUSH4 0x4E487B71 PUSH1 0xE0 SHL PUSH1 0x0 MSTORE PUSH1 0x22 PUSH1 0x4 MSTORE PUSH1 0x24 PUSH1 0x0 REVERT JUMPDEST POP SWAP2 SWAP1 POP JUMP JUMPDEST PUSH1 0x0 PUSH1 0x20 DUP1 DUP4 MSTORE PUSH1 0x0 DUP5 SLOAD PUSH2 0x4692 DUP2 PUSH2 0x4644 JUMP JUMPDEST DUP1 PUSH1 0x20 DUP8 ADD MSTORE PUSH1 0x40 PUSH1 0x1 DUP1 DUP5 AND PUSH1 0x0 DUP2 EQ PUSH2 0x46B4 JUMPI PUSH1 0x1 DUP2 EQ PUSH2 0x46D0 JUMPI PUSH2 0x4700 JUMP JUMPDEST PUSH1 0xFF NOT DUP6 AND PUSH1 0x40 DUP11 ADD MSTORE PUSH1 0x40 DUP5 ISZERO ISZERO PUSH1 0x5 SHL DUP11 ADD ADD SWAP6 POP PUSH2 0x4700 JUMP JUMPDEST DUP10 PUSH1 0x0 MSTORE PUSH1 0x20 PUSH1 0x0 KECCAK256 PUSH1 0x0 JUMPDEST DUP6 DUP2 LT ISZERO PUSH2 0x46F7 JUMPI DUP2 SLOAD DUP12 DUP3 ADD DUP7 ADD MSTORE SWAP1 DUP4 ADD SWAP1 DUP9 ADD PUSH2 0x46DC JUMP JUMPDEST DUP11 ADD PUSH1 0x40 ADD SWAP7 POP POP JUMPDEST POP SWAP4 SWAP9 SWAP8 POP POP POP POP POP POP POP POP JUMP JUMPDEST DUP1 MLOAD PUSH2 0x4142 DUP2 PUSH2 0x40BF JUMP JUMPDEST PUSH1 0x0 DUP1 PUSH1 0x40 DUP4 DUP6 SUB SLT ISZERO PUSH2 0x472C JUMPI PUSH1 0x0 DUP1 REVERT JUMPDEST DUP3 MLOAD PUSH2 0x4737 DUP2 PUSH2 0x40BF JUMP JUMPDEST PUSH1 0x20 SWAP4 SWAP1 SWAP4 ADD MLOAD SWAP3 SWAP5 SWAP3 SWAP4 POP POP POP JUMP JUMPDEST PUSH1 0x0 PUSH1 0x20 DUP3 DUP5 SUB SLT ISZERO PUSH2 0x4759 JUMPI PUSH1 0x0 DUP1 REVERT JUMPDEST DUP2 MLOAD PUSH2 0x3D1A DUP2 PUSH2 0x40A7 JUMP JUMPDEST PUSH1 0x20 DUP1 DUP3 MSTORE PUSH1 0x17 SWAP1 DUP3 ADD MSTORE PUSH32 0x43616C6C6572206973206E6F7420746865206F776E6572000000000000000000 PUSH1 0x40 DUP3 ADD MSTORE PUSH1 0x60 ADD SWAP1 JUMP JUMPDEST PUSH1 0x1 PUSH1 0x1 PUSH1 0xA0 SHL SUB SWAP4 SWAP1 SWAP4 AND DUP4 MSTORE PUSH1 0x20 DUP4 ADD SWAP2 SWAP1 SWAP2 MSTORE ISZERO ISZERO PUSH1 0x40 DUP3 ADD MSTORE PUSH1 0x60 ADD SWAP1 JUMP JUMPDEST PUSH1 0x0 PUSH1 0x20 DUP3 DUP5 SUB SLT ISZERO PUSH2 0x47D0 JUMPI PUSH1 0x0 DUP1 REVERT JUMPDEST POP MLOAD SWAP2 SWAP1 POP JUMP JUMPDEST PUSH1 0x1 PUSH1 0x1 PUSH1 0xA0 SHL SUB SWAP5 DUP6 AND DUP2 MSTORE SWAP3 DUP5 AND PUSH1 0x20 DUP5 ADD MSTORE SWAP3 AND PUSH1 0x40 DUP3 ADD MSTORE PUSH1 0x60 DUP2 ADD SWAP2 SWAP1 SWAP2 MSTORE PUSH1 0x80 ADD SWAP1 JUMP JUMPDEST PUSH1 0x20 DUP1 DUP3 MSTORE PUSH1 0x18 SWAP1 DUP3 ADD MSTORE PUSH32 0x4361756C64726F6E3A207573657220696E736F6C76656E740000000000000000 PUSH1 0x40 DUP3 ADD MSTORE PUSH1 0x60 ADD SWAP1 JUMP JUMPDEST PUSH1 0x0 DUP1 PUSH1 0x0 DUP1 PUSH1 0x0 DUP1 PUSH1 0x0 PUSH1 0xE0 DUP9 DUP11 SUB SLT ISZERO PUSH2 0x4853 JUMPI PUSH1 0x0 DUP1 REVERT JUMPDEST DUP8 CALLDATALOAD PUSH2 0x485E DUP2 PUSH2 0x40A7 JUMP JUMPDEST SWAP7 POP PUSH1 0x20 DUP9 ADD CALLDATALOAD PUSH2 0x486E DUP2 PUSH2 0x40A7 JUMP JUMPDEST SWAP6 POP PUSH1 0x40 DUP9 ADD CALLDATALOAD PUSH1 0x1 PUSH1 0x1 PUSH1 0x40 SHL SUB DUP2 GT ISZERO PUSH2 0x4889 JUMPI PUSH1 0x0 DUP1 REVERT JUMPDEST PUSH2 0x4895 DUP11 DUP3 DUP12 ADD PUSH2 0x4542 JUMP JUMPDEST SWAP6 POP POP PUSH2 0x48A4 PUSH1 0x60 DUP10 ADD PUSH2 0x412B JUMP JUMPDEST SWAP7 SWAP10 SWAP6 SWAP9 POP SWAP4 SWAP7 PUSH1 0x80 DUP2 ADD CALLDATALOAD SWAP6 PUSH1 0xA0 DUP3 ADD CALLDATALOAD SWAP6 POP PUSH1 0xC0 SWAP1 SWAP2 ADD CALLDATALOAD SWAP4 POP SWAP2 POP POP JUMP JUMPDEST PUSH1 0x1F DUP3 GT ISZERO PUSH2 0x211D JUMPI PUSH1 0x0 DUP2 PUSH1 0x0 MSTORE PUSH1 0x20 PUSH1 0x0 KECCAK256 PUSH1 0x1F DUP6 ADD PUSH1 0x5 SHR DUP2 ADD PUSH1 0x20 DUP7 LT ISZERO PUSH2 0x48EE JUMPI POP DUP1 JUMPDEST PUSH1 0x1F DUP6 ADD PUSH1 0x5 SHR DUP3 ADD SWAP2 POP JUMPDEST DUP2 DUP2 LT ISZERO PUSH2 0x38E0 JUMPI DUP3 DUP2 SSTORE PUSH1 0x1 ADD PUSH2 0x48FA JUMP JUMPDEST DUP2 MLOAD PUSH1 0x1 PUSH1 0x1 PUSH1 0x40 SHL SUB DUP2 GT ISZERO PUSH2 0x4926 JUMPI PUSH2 0x4926 PUSH2 0x43DB JUMP JUMPDEST PUSH2 0x493A DUP2 PUSH2 0x4934 DUP5 SLOAD PUSH2 0x4644 JUMP JUMPDEST DUP5 PUSH2 0x48C5 JUMP JUMPDEST PUSH1 0x20 DUP1 PUSH1 0x1F DUP4 GT PUSH1 0x1 DUP2 EQ PUSH2 0x496F JUMPI PUSH1 0x0 DUP5 ISZERO PUSH2 0x4957 JUMPI POP DUP6 DUP4 ADD MLOAD JUMPDEST PUSH1 0x0 NOT PUSH1 0x3 DUP7 SWAP1 SHL SHR NOT AND PUSH1 0x1 DUP6 SWAP1 SHL OR DUP6 SSTORE PUSH2 0x38E0 JUMP JUMPDEST PUSH1 0x0 DUP6 DUP2 MSTORE PUSH1 0x20 DUP2 KECCAK256 PUSH1 0x1F NOT DUP7 AND SWAP2 JUMPDEST DUP3 DUP2 LT ISZERO PUSH2 0x499E JUMPI DUP9 DUP7 ADD MLOAD DUP3 SSTORE SWAP5 DUP5 ADD SWAP5 PUSH1 0x1 SWAP1 SWAP2 ADD SWAP1 DUP5 ADD PUSH2 0x497F JUMP JUMPDEST POP DUP6 DUP3 LT ISZERO PUSH2 0x49BC JUMPI DUP8 DUP6 ADD MLOAD PUSH1 0x0 NOT PUSH1 0x3 DUP9 SWAP1 SHL PUSH1 0xF8 AND SHR NOT AND DUP2 SSTORE JUMPDEST POP POP POP POP POP PUSH1 0x1 SWAP1 DUP2 SHL ADD SWAP1 SSTORE POP JUMP JUMPDEST PUSH1 0x0 PUSH1 0x20 DUP3 DUP5 SUB SLT ISZERO PUSH2 0x49DE JUMPI PUSH1 0x0 DUP1 REVERT JUMPDEST DUP2 MLOAD PUSH2 0x3D1A DUP2 PUSH2 0x40BF JUMP JUMPDEST PUSH4 0x4E487B71 PUSH1 0xE0 SHL PUSH1 0x0 MSTORE PUSH1 0x32 PUSH1 0x4 MSTORE PUSH1 0x24 PUSH1 0x0 REVERT JUMPDEST PUSH1 0xFF DUP2 AND DUP2 EQ PUSH2 0x40BC JUMPI PUSH1 0x0 DUP1 REVERT JUMPDEST PUSH1 0x0 PUSH1 0x20 DUP3 DUP5 SUB SLT ISZERO PUSH2 0x4A20 JUMPI PUSH1 0x0 DUP1 REVERT JUMPDEST DUP2 CALLDATALOAD PUSH2 0x3D1A DUP2 PUSH2 0x49FF JUMP JUMPDEST PUSH1 0x0 DUP1 DUP4 CALLDATALOAD PUSH1 0x1E NOT DUP5 CALLDATASIZE SUB ADD DUP2 SLT PUSH2 0x4A42 JUMPI PUSH1 0x0 DUP1 REVERT JUMPDEST DUP4 ADD DUP1 CALLDATALOAD SWAP2 POP PUSH1 0x1 PUSH1 0x1 PUSH1 0x40 SHL SUB DUP3 GT ISZERO PUSH2 0x4A5C JUMPI PUSH1 0x0 DUP1 REVERT JUMPDEST PUSH1 0x20 ADD SWAP2 POP CALLDATASIZE DUP2 SWAP1 SUB DUP3 SGT ISZERO PUSH2 0x425C JUMPI PUSH1 0x0 DUP1 REVERT JUMPDEST PUSH1 0x0 DUP1 PUSH1 0x0 PUSH1 0x60 DUP5 DUP7 SUB SLT ISZERO PUSH2 0x4A86 JUMPI PUSH1 0x0 DUP1 REVERT JUMPDEST DUP4 CALLDATALOAD SWAP3 POP PUSH1 0x20 DUP5 ADD CALLDATALOAD PUSH2 0x4A98 DUP2 PUSH2 0x40A7 JUMP JUMPDEST SWAP2 POP PUSH1 0x40 DUP5 ADD CALLDATALOAD PUSH2 0x4AA8 DUP2 PUSH2 0x40BF JUMP JUMPDEST DUP1 SWAP2 POP POP SWAP3 POP SWAP3 POP SWAP3 JUMP JUMPDEST PUSH1 0x0 DUP1 PUSH1 0x40 DUP4 DUP6 SUB SLT ISZERO PUSH2 0x4AC6 JUMPI PUSH1 0x0 DUP1 REVERT JUMPDEST DUP3 CALLDATALOAD SWAP2 POP PUSH1 0x20 DUP4 ADD CALLDATALOAD PUSH2 0x438D DUP2 PUSH2 0x40A7 JUMP JUMPDEST PUSH1 0x0 DUP1 PUSH1 0x0 PUSH1 0x60 DUP5 DUP7 SUB SLT ISZERO PUSH2 0x4AED JUMPI PUSH1 0x0 DUP1 REVERT JUMPDEST DUP4 CALLDATALOAD PUSH2 0x4AF8 DUP2 PUSH2 0x40BF JUMP JUMPDEST SWAP6 PUSH1 0x20 DUP6 ADD CALLDATALOAD SWAP6 POP PUSH1 0x40 SWAP1 SWAP5 ADD CALLDATALOAD SWAP4 SWAP3 POP POP POP JUMP JUMPDEST PUSH1 0x0 DUP1 PUSH1 0x0 DUP1 PUSH1 0x0 DUP1 PUSH1 0xC0 DUP8 DUP10 SUB SLT ISZERO PUSH2 0x4B26 JUMPI PUSH1 0x0 DUP1 REVERT JUMPDEST DUP7 CALLDATALOAD PUSH2 0x4B31 DUP2 PUSH2 0x40A7 JUMP JUMPDEST SWAP6 POP PUSH1 0x20 DUP8 ADD CALLDATALOAD PUSH2 0x4B41 DUP2 PUSH2 0x40A7 JUMP JUMPDEST SWAP5 POP PUSH1 0x40 DUP8 ADD CALLDATALOAD PUSH2 0x4B51 DUP2 PUSH2 0x40BF JUMP JUMPDEST SWAP4 POP PUSH1 0x60 DUP8 ADD CALLDATALOAD PUSH2 0x4B61 DUP2 PUSH2 0x49FF JUMP JUMPDEST SWAP6 SWAP9 SWAP5 SWAP8 POP SWAP3 SWAP6 PUSH1 0x80 DUP2 ADD CALLDATALOAD SWAP5 PUSH1 0xA0 SWAP1 SWAP2 ADD CALLDATALOAD SWAP4 POP SWAP2 POP POP JUMP JUMPDEST PUSH1 0x0 DUP1 PUSH1 0x0 PUSH1 0x60 DUP5 DUP7 SUB SLT ISZERO PUSH2 0x4B90 JUMPI PUSH1 0x0 DUP1 REVERT JUMPDEST DUP4 CALLDATALOAD PUSH2 0x4B9B DUP2 PUSH2 0x40A7 JUMP JUMPDEST SWAP3 POP PUSH1 0x20 DUP5 ADD CALLDATALOAD PUSH2 0x40FD DUP2 PUSH2 0x40A7 JUMP JUMPDEST PUSH1 0x0 DUP1 PUSH1 0x0 PUSH1 0x60 DUP5 DUP7 SUB SLT ISZERO PUSH2 0x4BC0 JUMPI PUSH1 0x0 DUP1 REVERT JUMPDEST DUP4 CALLDATALOAD PUSH2 0x4BCB DUP2 PUSH2 0x40A7 JUMP JUMPDEST SWAP3 POP PUSH1 0x20 DUP5 ADD CALLDATALOAD PUSH1 0x1 PUSH1 0x1 PUSH1 0x40 SHL SUB DUP1 DUP3 GT ISZERO PUSH2 0x4BE7 JUMPI PUSH1 0x0 DUP1 REVERT JUMPDEST PUSH2 0x4BF3 DUP8 DUP4 DUP9 ADD PUSH2 0x4444 JUMP JUMPDEST SWAP4 POP PUSH1 0x40 DUP7 ADD CALLDATALOAD SWAP2 POP DUP1 DUP3 GT ISZERO PUSH2 0x4C09 JUMPI PUSH1 0x0 DUP1 REVERT JUMPDEST POP PUSH2 0x4C16 DUP7 DUP3 DUP8 ADD PUSH2 0x44BC JUMP JUMPDEST SWAP2 POP POP SWAP3 POP SWAP3 POP SWAP3 JUMP JUMPDEST PUSH1 0x0 PUSH1 0x80 DUP3 ADD PUSH1 0x1 DUP1 PUSH1 0xA0 SHL SUB DUP1 DUP9 AND DUP5 MSTORE PUSH1 0x20 DUP2 DUP9 AND DUP2 DUP7 ADD MSTORE PUSH1 0x80 PUSH1 0x40 DUP7 ADD MSTORE DUP3 DUP8 MLOAD DUP1 DUP6 MSTORE PUSH1 0xA0 DUP8 ADD SWAP2 POP DUP3 DUP10 ADD SWAP5 POP PUSH1 0x0 JUMPDEST DUP2 DUP2 LT ISZERO PUSH2 0x4C74 JUMPI DUP6 MLOAD DUP6 AND DUP4 MSTORE SWAP5 DUP4 ADD SWAP5 SWAP2 DUP4 ADD SWAP2 PUSH1 0x1 ADD PUSH2 0x4C56 JUMP JUMPDEST POP POP DUP6 DUP2 SUB PUSH1 0x60 DUP8 ADD MSTORE DUP7 MLOAD DUP1 DUP3 MSTORE SWAP1 DUP3 ADD SWAP4 POP SWAP2 POP DUP1 DUP7 ADD PUSH1 0x0 JUMPDEST DUP4 DUP2 LT ISZERO PUSH2 0x4CAC JUMPI DUP2 MLOAD DUP6 MSTORE SWAP4 DUP3 ADD SWAP4 SWAP1 DUP3 ADD SWAP1 PUSH1 0x1 ADD PUSH2 0x4C90 JUMP JUMPDEST POP SWAP3 SWAP10 SWAP9 POP POP POP POP POP POP POP POP POP JUMP JUMPDEST PUSH1 0x0 DUP1 PUSH1 0x40 DUP4 DUP6 SUB SLT ISZERO PUSH2 0x4CCE JUMPI PUSH1 0x0 DUP1 REVERT JUMPDEST POP POP DUP1 MLOAD PUSH1 0x20 SWAP1 SWAP2 ADD MLOAD SWAP1 SWAP3 SWAP1 SWAP2 POP JUMP JUMPDEST PUSH1 0x1 PUSH1 0x1 PUSH1 0xA0 SHL SUB SWAP6 DUP7 AND DUP2 MSTORE SWAP4 DUP6 AND PUSH1 0x20 DUP6 ADD MSTORE SWAP2 SWAP1 SWAP4 AND PUSH1 0x40 DUP4 ADD MSTORE PUSH1 0x60 DUP3 ADD SWAP3 SWAP1 SWAP3 MSTORE PUSH1 0x80 DUP2 ADD SWAP2 SWAP1 SWAP2 MSTORE PUSH1 0xA0 ADD SWAP1 JUMP JUMPDEST PUSH4 0x4E487B71 PUSH1 0xE0 SHL PUSH1 0x0 MSTORE PUSH1 0x11 PUSH1 0x4 MSTORE PUSH1 0x24 PUSH1 0x0 REVERT JUMPDEST DUP2 DUP2 SUB DUP2 DUP2 GT ISZERO PUSH2 0xB1B JUMPI PUSH2 0xB1B PUSH2 0x4D13 JUMP JUMPDEST PUSH1 0x0 DUP3 PUSH2 0x4D59 JUMPI PUSH4 0x4E487B71 PUSH1 0xE0 SHL PUSH1 0x0 MSTORE PUSH1 0x12 PUSH1 0x4 MSTORE PUSH1 0x24 PUSH1 0x0 REVERT JUMPDEST POP DIV SWAP1 JUMP JUMPDEST PUSH1 0x0 PUSH1 0x40 DUP3 DUP5 SUB SLT ISZERO PUSH2 0x4D70 JUMPI PUSH1 0x0 DUP1 REVERT JUMPDEST PUSH1 0x40 MLOAD PUSH1 0x40 DUP2 ADD DUP2 DUP2 LT PUSH1 0x1 PUSH1 0x1 PUSH1 0x40 SHL SUB DUP3 GT OR ISZERO PUSH2 0x4D92 JUMPI PUSH2 0x4D92 PUSH2 0x43DB JUMP JUMPDEST PUSH1 0x40 MSTORE DUP3 MLOAD PUSH2 0x4DA0 DUP2 PUSH2 0x4398 JUMP JUMPDEST DUP2 MSTORE PUSH1 0x20 DUP4 ADD MLOAD PUSH2 0x4DB0 DUP2 PUSH2 0x4398 JUMP JUMPDEST PUSH1 0x20 DUP3 ADD MSTORE SWAP4 SWAP3 POP POP POP JUMP JUMPDEST DUP1 DUP3 MUL DUP2 ISZERO DUP3 DUP3 DIV DUP5 EQ OR PUSH2 0xB1B JUMPI PUSH2 0xB1B PUSH2 0x4D13 JUMP JUMPDEST PUSH1 0x1 PUSH1 0x1 PUSH1 0xA0 SHL SUB DUP8 DUP2 AND DUP3 MSTORE DUP7 DUP2 AND PUSH1 0x20 DUP4 ADD MSTORE DUP6 AND PUSH1 0x40 DUP3 ADD MSTORE PUSH1 0x60 DUP2 ADD DUP5 SWAP1 MSTORE PUSH1 0x80 DUP2 ADD DUP4 SWAP1 MSTORE PUSH1 0xC0 PUSH1 0xA0 DUP3 ADD DUP2 SWAP1 MSTORE PUSH1 0x0 SWAP1 PUSH2 0x4E15 SWAP1 DUP4 ADD DUP5 PUSH2 0x4320 JUMP JUMPDEST SWAP9 SWAP8 POP POP POP POP POP POP POP POP JUMP JUMPDEST PUSH1 0x0 DUP1 PUSH1 0x0 DUP1 PUSH1 0x80 DUP6 DUP8 SUB SLT ISZERO PUSH2 0x4E37 JUMPI PUSH1 0x0 DUP1 REVERT JUMPDEST DUP5 MLOAD PUSH2 0x4E42 DUP2 PUSH2 0x40A7 JUMP JUMPDEST PUSH1 0x20 DUP7 ADD MLOAD SWAP1 SWAP5 POP PUSH2 0x4E53 DUP2 PUSH2 0x40A7 JUMP JUMPDEST PUSH1 0x40 DUP7 ADD MLOAD PUSH1 0x60 SWAP1 SWAP7 ADD MLOAD SWAP5 SWAP8 SWAP1 SWAP7 POP SWAP3 POP POP POP JUMP JUMPDEST DUP1 MLOAD PUSH2 0x4142 DUP2 PUSH2 0x49FF JUMP JUMPDEST PUSH1 0x0 DUP1 PUSH1 0x0 DUP1 PUSH1 0x0 PUSH1 0xA0 DUP7 DUP9 SUB SLT ISZERO PUSH2 0x4E8C JUMPI PUSH1 0x0 DUP1 REVERT JUMPDEST DUP6 MLOAD PUSH2 0x4E97 DUP2 PUSH2 0x40A7 JUMP JUMPDEST PUSH1 0x20 DUP8 ADD MLOAD SWAP1 SWAP6 POP PUSH1 0x1 PUSH1 0x1 PUSH1 0x40 SHL SUB DUP2 GT ISZERO PUSH2 0x4EB3 JUMPI PUSH1 0x0 DUP1 REVERT JUMPDEST DUP7 ADD PUSH1 0x1F DUP2 ADD DUP9 SGT PUSH2 0x4EC4 JUMPI PUSH1 0x0 DUP1 REVERT JUMPDEST DUP1 MLOAD PUSH2 0x4ED2 PUSH2 0x4465 DUP3 PUSH2 0x451B JUMP JUMPDEST DUP2 DUP2 MSTORE DUP10 PUSH1 0x20 DUP4 DUP6 ADD ADD GT ISZERO PUSH2 0x4EE7 JUMPI PUSH1 0x0 DUP1 REVERT JUMPDEST PUSH2 0x4EF8 DUP3 PUSH1 0x20 DUP4 ADD PUSH1 0x20 DUP7 ADD PUSH2 0x42FC JUMP JUMPDEST SWAP6 POP PUSH2 0x4F09 SWAP2 POP POP PUSH1 0x40 DUP8 ADD PUSH2 0x470E JUMP JUMPDEST SWAP3 POP PUSH2 0x4F17 PUSH1 0x60 DUP8 ADD PUSH2 0x470E JUMP JUMPDEST SWAP2 POP PUSH2 0x4F25 PUSH1 0x80 DUP8 ADD PUSH2 0x4E69 JUMP JUMPDEST SWAP1 POP SWAP3 SWAP6 POP SWAP3 SWAP6 SWAP1 SWAP4 POP JUMP JUMPDEST PUSH1 0x0 DUP4 MLOAD PUSH2 0x4F43 DUP2 DUP5 PUSH1 0x20 DUP9 ADD PUSH2 0x42FC JUMP JUMPDEST SWAP2 SWAP1 SWAP2 ADD SWAP2 DUP3 MSTORE POP PUSH1 0x20 ADD SWAP2 SWAP1 POP JUMP JUMPDEST PUSH1 0x0 DUP5 MLOAD PUSH2 0x4F65 DUP2 DUP5 PUSH1 0x20 DUP10 ADD PUSH2 0x42FC JUMP JUMPDEST SWAP2 SWAP1 SWAP2 ADD SWAP3 DUP4 MSTORE POP PUSH1 0x20 DUP3 ADD MSTORE PUSH1 0x40 ADD SWAP2 SWAP1 POP JUMP JUMPDEST PUSH1 0x0 DUP3 MLOAD PUSH2 0x4F8C DUP2 DUP5 PUSH1 0x20 DUP8 ADD PUSH2 0x42FC JUMP JUMPDEST SWAP2 SWAP1 SWAP2 ADD SWAP3 SWAP2 POP POP JUMP JUMPDEST PUSH1 0x0 PUSH1 0x1 DUP3 ADD PUSH2 0x4FA8 JUMPI PUSH2 0x4FA8 PUSH2 0x4D13 JUMP JUMPDEST POP PUSH1 0x1 ADD SWAP1 JUMP JUMPDEST DUP1 DUP3 ADD DUP1 DUP3 GT ISZERO PUSH2 0xB1B JUMPI PUSH2 0xB1B PUSH2 0x4D13 JUMP JUMPDEST PUSH1 0x1 PUSH1 0x1 PUSH1 0x80 SHL SUB DUP2 DUP2 AND DUP4 DUP3 AND ADD SWAP1 DUP1 DUP3 GT ISZERO PUSH2 0x4FE2 JUMPI PUSH2 0x4FE2 PUSH2 0x4D13 JUMP JUMPDEST POP SWAP3 SWAP2 POP POP JUMP JUMPDEST PUSH1 0x1 PUSH1 0x1 PUSH1 0x80 SHL SUB DUP3 DUP2 AND DUP3 DUP3 AND SUB SWAP1 DUP1 DUP3 GT ISZERO PUSH2 0x4FE2 JUMPI PUSH2 0x4FE2 PUSH2 0x4D13 JUMP INVALID LOG2 PUSH5 0x6970667358 0x22 SLT KECCAK256 DUP15 0x25 ADDRESS 0xEA 0xBA SLT SELFDESTRUCT 0xD GASLIMIT 0xD8 0xD3 0xD6 MUL POP OR 0xEA 0xD8 0xBB PUSH4 0x2871F684 0x26 PUSH21 0x9DDF80CB7FC01A64736F6C63430008180033000000 "},"methodIdentifiers":{"BORROW_OPENING_FEE()":"aba024f4","COLLATERIZATION_RATE()":"c7ee2a7b","LIQUIDATION_MULTIPLIER()":"6ec097fb","accrue()":"f8ba4cff","accrueInfo()":"b27c0e74","addCollateral(address,bool,uint256)":"860ffea1","bentoBox()":"6b2ace87","blacklistedCallees(address)":"cb0dc548","borrow(address,uint256)":"4b8a3529","borrowLimit()":"e551d11d","changeBorrowLimit(uint128,uint128)":"f7dad434","changeInterestRate(uint64)":"1cd4c966","collateral()":"d8dfeb45","cook(uint8[],uint256[],bytes[])":"656f3d64","exchangeRate()":"3ba0b9a9","feeTo()":"017e7e58","init(bytes)":"4ddf47d4","isSolvent(address)":"38b51ce1","liquidate(address[],uint256[],address,address,bytes)":"ff6ff84b","magicInternetMoney()":"9b352ae1","masterContract()":"cd446e22","oracle()":"7dc0d1d0","oracleData()":"74645ff3","owner()":"8da5cb5b","reduceSupply(uint256)":"80623444","removeCollateral(address,uint256)":"876467f8","repay(address,bool,uint256)":"15294c40","setBlacklistedCallee(address,bool)":"eeae797b","setBorrowOpeningFee(uint256)":"5100b567","setCollateralizationRate(uint256)":"1e35078e","setFeeTo(address)":"f46901ed","setLiquidationMultiplier(uint256)":"ec7eb7e9","totalBorrow()":"8285ef40","totalCollateralShare()":"473e3ce7","transferOwnership(address)":"f2fde38b","updateExchangeRate()":"02ce728f","userBorrowPart(address)":"48e4163e","userCollateralShare(address)":"1c9e379b","withdrawFees()":"476343ee"}}}}}