{"contracts/axelar/AxelarGateway.sol":{"AxelarGateway":{"abi":[{"inputs":[{"internalType":"address","name":"authModule_","type":"address"},{"internalType":"address","name":"tokenDeployer_","type":"address"}],"stateMutability":"nonpayable","type":"constructor"},{"inputs":[{"internalType":"string","name":"symbol","type":"string"}],"name":"BurnFailed","type":"error"},{"inputs":[{"internalType":"string","name":"symbol","type":"string"}],"name":"ExceedMintLimit","type":"error"},{"inputs":[],"name":"InvalidAmount","type":"error"},{"inputs":[],"name":"InvalidAuthModule","type":"error"},{"inputs":[],"name":"InvalidChainId","type":"error"},{"inputs":[],"name":"InvalidCodeHash","type":"error"},{"inputs":[],"name":"InvalidCommands","type":"error"},{"inputs":[],"name":"InvalidGovernance","type":"error"},{"inputs":[],"name":"InvalidImplementation","type":"error"},{"inputs":[],"name":"InvalidMintLimiter","type":"error"},{"inputs":[],"name":"InvalidSetMintLimitsParams","type":"error"},{"inputs":[],"name":"InvalidTokenDeployer","type":"error"},{"inputs":[{"internalType":"string","name":"symbol","type":"string"}],"name":"MintFailed","type":"error"},{"inputs":[],"name":"NotGovernance","type":"error"},{"inputs":[],"name":"NotMintLimiter","type":"error"},{"inputs":[],"name":"NotProxy","type":"error"},{"inputs":[],"name":"NotSelf","type":"error"},{"inputs":[],"name":"SetupFailed","type":"error"},{"inputs":[{"internalType":"string","name":"symbol","type":"string"}],"name":"TokenAlreadyExists","type":"error"},{"inputs":[{"internalType":"address","name":"token","type":"address"}],"name":"TokenContractDoesNotExist","type":"error"},{"inputs":[{"internalType":"string","name":"symbol","type":"string"}],"name":"TokenDeployFailed","type":"error"},{"inputs":[{"internalType":"string","name":"symbol","type":"string"}],"name":"TokenDoesNotExist","type":"error"},{"inputs":[],"name":"TokenTransferFailed","type":"error"},{"anonymous":false,"inputs":[{"indexed":true,"internalType":"address","name":"sender","type":"address"},{"indexed":false,"internalType":"string","name":"destinationChain","type":"string"},{"indexed":false,"internalType":"string","name":"destinationContractAddress","type":"string"},{"indexed":true,"internalType":"bytes32","name":"payloadHash","type":"bytes32"},{"indexed":false,"internalType":"bytes","name":"payload","type":"bytes"}],"name":"ContractCall","type":"event"},{"anonymous":false,"inputs":[{"indexed":true,"internalType":"bytes32","name":"commandId","type":"bytes32"},{"indexed":false,"internalType":"string","name":"sourceChain","type":"string"},{"indexed":false,"internalType":"string","name":"sourceAddress","type":"string"},{"indexed":true,"internalType":"address","name":"contractAddress","type":"address"},{"indexed":true,"internalType":"bytes32","name":"payloadHash","type":"bytes32"},{"indexed":false,"internalType":"bytes32","name":"sourceTxHash","type":"bytes32"},{"indexed":false,"internalType":"uint256","name":"sourceEventIndex","type":"uint256"}],"name":"ContractCallApproved","type":"event"},{"anonymous":false,"inputs":[{"indexed":true,"internalType":"bytes32","name":"commandId","type":"bytes32"},{"indexed":false,"internalType":"string","name":"sourceChain","type":"string"},{"indexed":false,"internalType":"string","name":"sourceAddress","type":"string"},{"indexed":true,"internalType":"address","name":"contractAddress","type":"address"},{"indexed":true,"internalType":"bytes32","name":"payloadHash","type":"bytes32"},{"indexed":false,"internalType":"string","name":"symbol","type":"string"},{"indexed":false,"internalType":"uint256","name":"amount","type":"uint256"},{"indexed":false,"internalType":"bytes32","name":"sourceTxHash","type":"bytes32"},{"indexed":false,"internalType":"uint256","name":"sourceEventIndex","type":"uint256"}],"name":"ContractCallApprovedWithMint","type":"event"},{"anonymous":false,"inputs":[{"indexed":true,"internalType":"bytes32","name":"commandId","type":"bytes32"}],"name":"ContractCallExecuted","type":"event"},{"anonymous":false,"inputs":[{"indexed":true,"internalType":"address","name":"sender","type":"address"},{"indexed":false,"internalType":"string","name":"destinationChain","type":"string"},{"indexed":false,"internalType":"string","name":"destinationContractAddress","type":"string"},{"indexed":true,"internalType":"bytes32","name":"payloadHash","type":"bytes32"},{"indexed":false,"internalType":"bytes","name":"payload","type":"bytes"},{"indexed":false,"internalType":"string","name":"symbol","type":"string"},{"indexed":false,"internalType":"uint256","name":"amount","type":"uint256"}],"name":"ContractCallWithToken","type":"event"},{"anonymous":false,"inputs":[{"indexed":true,"internalType":"bytes32","name":"commandId","type":"bytes32"}],"name":"Executed","type":"event"},{"anonymous":false,"inputs":[{"indexed":true,"internalType":"address","name":"previousGovernance","type":"address"},{"indexed":true,"internalType":"address","name":"newGovernance","type":"address"}],"name":"GovernanceTransferred","type":"event"},{"anonymous":false,"inputs":[{"indexed":true,"internalType":"address","name":"previousGovernance","type":"address"},{"indexed":true,"internalType":"address","name":"newGovernance","type":"address"}],"name":"MintLimiterTransferred","type":"event"},{"anonymous":false,"inputs":[{"indexed":false,"internalType":"bytes","name":"newOperatorsData","type":"bytes"}],"name":"OperatorshipTransferred","type":"event"},{"anonymous":false,"inputs":[{"indexed":false,"internalType":"string","name":"symbol","type":"string"},{"indexed":false,"internalType":"address","name":"tokenAddresses","type":"address"}],"name":"TokenDeployed","type":"event"},{"anonymous":false,"inputs":[{"indexed":false,"internalType":"string","name":"symbol","type":"string"},{"indexed":false,"internalType":"uint256","name":"limit","type":"uint256"}],"name":"TokenMintLimitUpdated","type":"event"},{"anonymous":false,"inputs":[{"indexed":true,"internalType":"address","name":"sender","type":"address"},{"indexed":false,"internalType":"string","name":"destinationChain","type":"string"},{"indexed":false,"internalType":"string","name":"destinationAddress","type":"string"},{"indexed":false,"internalType":"string","name":"symbol","type":"string"},{"indexed":false,"internalType":"uint256","name":"amount","type":"uint256"}],"name":"TokenSent","type":"event"},{"anonymous":false,"inputs":[{"indexed":true,"internalType":"address","name":"implementation","type":"address"}],"name":"Upgraded","type":"event"},{"inputs":[],"name":"allTokensFrozen","outputs":[{"internalType":"bool","name":"","type":"bool"}],"stateMutability":"pure","type":"function"},{"inputs":[{"internalType":"bytes","name":"params","type":"bytes"},{"internalType":"bytes32","name":"commandId","type":"bytes32"}],"name":"approveContractCall","outputs":[],"stateMutability":"nonpayable","type":"function"},{"inputs":[{"internalType":"bytes","name":"params","type":"bytes"},{"internalType":"bytes32","name":"commandId","type":"bytes32"}],"name":"approveContractCallWithMint","outputs":[],"stateMutability":"nonpayable","type":"function"},{"inputs":[],"name":"authModule","outputs":[{"internalType":"address","name":"","type":"address"}],"stateMutability":"view","type":"function"},{"inputs":[{"internalType":"bytes","name":"params","type":"bytes"},{"internalType":"bytes32","name":"","type":"bytes32"}],"name":"burnToken","outputs":[],"stateMutability":"nonpayable","type":"function"},{"inputs":[{"internalType":"string","name":"destinationChain","type":"string"},{"internalType":"string","name":"destinationContractAddress","type":"string"},{"internalType":"bytes","name":"payload","type":"bytes"}],"name":"callContract","outputs":[],"stateMutability":"nonpayable","type":"function"},{"inputs":[{"internalType":"string","name":"destinationChain","type":"string"},{"internalType":"string","name":"destinationContractAddress","type":"string"},{"internalType":"bytes","name":"payload","type":"bytes"},{"internalType":"string","name":"symbol","type":"string"},{"internalType":"uint256","name":"amount","type":"uint256"}],"name":"callContractWithToken","outputs":[],"stateMutability":"nonpayable","type":"function"},{"inputs":[],"name":"contractId","outputs":[{"internalType":"bytes32","name":"","type":"bytes32"}],"stateMutability":"pure","type":"function"},{"inputs":[{"internalType":"bytes","name":"params","type":"bytes"},{"internalType":"bytes32","name":"","type":"bytes32"}],"name":"deployToken","outputs":[],"stateMutability":"nonpayable","type":"function"},{"inputs":[{"internalType":"bytes","name":"input","type":"bytes"}],"name":"execute","outputs":[],"stateMutability":"nonpayable","type":"function"},{"inputs":[{"internalType":"bytes32","name":"key","type":"bytes32"}],"name":"getAddress","outputs":[{"internalType":"address","name":"","type":"address"}],"stateMutability":"view","type":"function"},{"inputs":[{"internalType":"bytes32","name":"key","type":"bytes32"}],"name":"getBool","outputs":[{"internalType":"bool","name":"","type":"bool"}],"stateMutability":"view","type":"function"},{"inputs":[{"internalType":"bytes32","name":"key","type":"bytes32"}],"name":"getBytes","outputs":[{"internalType":"bytes","name":"","type":"bytes"}],"stateMutability":"view","type":"function"},{"inputs":[{"internalType":"bytes32","name":"key","type":"bytes32"}],"name":"getInt","outputs":[{"internalType":"int256","name":"","type":"int256"}],"stateMutability":"view","type":"function"},{"inputs":[{"internalType":"bytes32","name":"key","type":"bytes32"}],"name":"getString","outputs":[{"internalType":"string","name":"","type":"string"}],"stateMutability":"view","type":"function"},{"inputs":[{"internalType":"bytes32","name":"key","type":"bytes32"}],"name":"getUint","outputs":[{"internalType":"uint256","name":"","type":"uint256"}],"stateMutability":"view","type":"function"},{"inputs":[],"name":"governance","outputs":[{"internalType":"address","name":"","type":"address"}],"stateMutability":"view","type":"function"},{"inputs":[],"name":"implementation","outputs":[{"internalType":"address","name":"","type":"address"}],"stateMutability":"view","type":"function"},{"inputs":[{"internalType":"bytes32","name":"commandId","type":"bytes32"}],"name":"isCommandExecuted","outputs":[{"internalType":"bool","name":"","type":"bool"}],"stateMutability":"view","type":"function"},{"inputs":[{"internalType":"bytes32","name":"commandId","type":"bytes32"},{"internalType":"string","name":"sourceChain","type":"string"},{"internalType":"string","name":"sourceAddress","type":"string"},{"internalType":"address","name":"contractAddress","type":"address"},{"internalType":"bytes32","name":"payloadHash","type":"bytes32"},{"internalType":"string","name":"symbol","type":"string"},{"internalType":"uint256","name":"amount","type":"uint256"}],"name":"isContractCallAndMintApproved","outputs":[{"internalType":"bool","name":"","type":"bool"}],"stateMutability":"view","type":"function"},{"inputs":[{"internalType":"bytes32","name":"commandId","type":"bytes32"},{"internalType":"string","name":"sourceChain","type":"string"},{"internalType":"string","name":"sourceAddress","type":"string"},{"internalType":"address","name":"contractAddress","type":"address"},{"internalType":"bytes32","name":"payloadHash","type":"bytes32"}],"name":"isContractCallApproved","outputs":[{"internalType":"bool","name":"","type":"bool"}],"stateMutability":"view","type":"function"},{"inputs":[],"name":"mintLimiter","outputs":[{"internalType":"address","name":"","type":"address"}],"stateMutability":"view","type":"function"},{"inputs":[{"internalType":"bytes","name":"params","type":"bytes"},{"internalType":"bytes32","name":"","type":"bytes32"}],"name":"mintToken","outputs":[],"stateMutability":"nonpayable","type":"function"},{"inputs":[{"internalType":"string","name":"destinationChain","type":"string"},{"internalType":"string","name":"destinationAddress","type":"string"},{"internalType":"string","name":"symbol","type":"string"},{"internalType":"uint256","name":"amount","type":"uint256"}],"name":"sendToken","outputs":[],"stateMutability":"nonpayable","type":"function"},{"inputs":[{"internalType":"string[]","name":"symbols","type":"string[]"},{"internalType":"uint256[]","name":"limits","type":"uint256[]"}],"name":"setTokenMintLimits","outputs":[],"stateMutability":"nonpayable","type":"function"},{"inputs":[{"internalType":"bytes","name":"params","type":"bytes"}],"name":"setup","outputs":[],"stateMutability":"nonpayable","type":"function"},{"inputs":[{"internalType":"string","name":"symbol","type":"string"}],"name":"tokenAddresses","outputs":[{"internalType":"address","name":"","type":"address"}],"stateMutability":"view","type":"function"},{"inputs":[],"name":"tokenDeployer","outputs":[{"internalType":"address","name":"","type":"address"}],"stateMutability":"view","type":"function"},{"inputs":[{"internalType":"string","name":"","type":"string"}],"name":"tokenFrozen","outputs":[{"internalType":"bool","name":"","type":"bool"}],"stateMutability":"pure","type":"function"},{"inputs":[{"internalType":"string","name":"symbol","type":"string"}],"name":"tokenMintAmount","outputs":[{"internalType":"uint256","name":"","type":"uint256"}],"stateMutability":"view","type":"function"},{"inputs":[{"internalType":"string","name":"symbol","type":"string"}],"name":"tokenMintLimit","outputs":[{"internalType":"uint256","name":"","type":"uint256"}],"stateMutability":"view","type":"function"},{"inputs":[{"internalType":"address","name":"newGovernance","type":"address"}],"name":"transferGovernance","outputs":[],"stateMutability":"nonpayable","type":"function"},{"inputs":[{"internalType":"address","name":"newMintLimiter","type":"address"}],"name":"transferMintLimiter","outputs":[],"stateMutability":"nonpayable","type":"function"},{"inputs":[{"internalType":"bytes","name":"newOperatorsData","type":"bytes"},{"internalType":"bytes32","name":"","type":"bytes32"}],"name":"transferOperatorship","outputs":[],"stateMutability":"nonpayable","type":"function"},{"inputs":[{"internalType":"address","name":"newImplementation","type":"address"},{"internalType":"bytes32","name":"newImplementationCodeHash","type":"bytes32"},{"internalType":"bytes","name":"setupParams","type":"bytes"}],"name":"upgrade","outputs":[],"stateMutability":"nonpayable","type":"function"},{"inputs":[{"internalType":"bytes32","name":"commandId","type":"bytes32"},{"internalType":"string","name":"sourceChain","type":"string"},{"internalType":"string","name":"sourceAddress","type":"string"},{"internalType":"bytes32","name":"payloadHash","type":"bytes32"}],"name":"validateContractCall","outputs":[{"internalType":"bool","name":"valid","type":"bool"}],"stateMutability":"nonpayable","type":"function"},{"inputs":[{"internalType":"bytes32","name":"commandId","type":"bytes32"},{"internalType":"string","name":"sourceChain","type":"string"},{"internalType":"string","name":"sourceAddress","type":"string"},{"internalType":"bytes32","name":"payloadHash","type":"bytes32"},{"internalType":"string","name":"symbol","type":"string"},{"internalType":"uint256","name":"amount","type":"uint256"}],"name":"validateContractCallAndMint","outputs":[{"internalType":"bool","name":"valid","type":"bool"}],"stateMutability":"nonpayable","type":"function"}],"evm":{"bytecode":{"linkReferences":{},"object":"60e06040523480156200001157600080fd5b5060405162003fb538038062003fb58339810160408190526200003491620000c5565b306080526001600160a01b0382163b600003620000645760405163735326ab60e01b815260040160405180910390fd5b806001600160a01b03163b6000036200009057604051630c84dabf60e31b815260040160405180910390fd5b6001600160a01b0391821660a0521660c052620000fd565b80516001600160a01b0381168114620000c057600080fd5b919050565b60008060408385031215620000d957600080fd5b620000e483620000a8565b9150620000f460208401620000a8565b90509250929050565b60805160a05160c051613e6c62000149600039600081816102f3015261147b015260008181610376015281816105990152818161166f0152611864015260006117820152613e6c6000f3fe608060405234801561001057600080fd5b50600436106102275760003560e01c80638291286c11610130578063bc00c216116100b8578063d26ff2101161007c578063d26ff21014610502578063d38bfff414610515578063dc97d96214610528578063f6a5f9f514610548578063fbe0a31b1461055b57600080fd5b8063bc00c216146104a1578063bd02d0f5146104b4578063c031a180146104d4578063c82fe87a146104e7578063cec7b359146104ef57600080fd5b8063986e791a116100ff578063986e791a146104415780639ded06df14610461578063a3499c7314610474578063aa1e1f0a14610487578063b54170841461048e57600080fd5b80638291286c146103e2578063886a625d14610408578063935b13f61461041b57806397b87ba61461042e57600080fd5b80634656ae2e116101b35780635f6970c3116101825780635f6970c31461035e57806364940c561461037157806367ace8eb146103985780637ae1cfca146103ab5780637b1b769e146103ce57600080fd5b80634656ae2e14610328578063585a9fd41461033b5780635aa6e6751461034e5780635c60da1b1461035657600080fd5b806321f8a721116101fa57806321f8a7211461028f578063269eb65e146102ba57806326ef699d146102db5780632a2dae0a146102ee57806341d8f26b1461031557600080fd5b806309c5eabe1461022c578063146e2d78146102415780631876eed9146102545780631c92115f1461027c575b600080fd5b61023f61023a3660046127e8565b61056e565b005b61023f61024f366004612829565b6109a3565b610267610262366004612874565b6109cc565b60405190151581526020015b60405180910390f35b61023f61028a366004612928565b610b20565b6102a261029d3660046129c1565b610b8b565b6040516001600160a01b039091168152602001610273565b6102cd6102c8366004612a9d565b610ba6565b604051908152602001610273565b61023f6102e9366004612ad9565b610bba565b6102a27f000000000000000000000000000000000000000000000000000000000000000081565b61023f610323366004612b90565b610c52565b61023f610336366004612829565b610d03565b61023f610349366004612829565b6110a7565b6102a2611135565b6102a2611153565b61026761036c366004612bad565b61117e565b6102a27f000000000000000000000000000000000000000000000000000000000000000081565b61023f6103a6366004612c72565b611257565b6102676103b93660046129c1565b60009081526004602052604090205460ff1690565b6102676103dc366004612a9d565b50600090565b7fad2ae48b4d93c587cd1f0f8f269b84f57dbe98bbe5c61c4b6d324e6a667b36256102cd565b61023f610416366004612829565b6113cc565b6102a2610429366004612a9d565b611611565b61023f61043c366004612829565b61161f565b61045461044f3660046129c1565b6116dd565b6040516102739190612d2d565b61023f61046f3660046127e8565b61177f565b61023f610482366004612d40565b6118ce565b6000610267565b61023f61049c366004612d8f565b611af1565b6102676104af366004612e5a565b611ba7565b6102cd6104c23660046129c1565b60009081526020819052604090205490565b6104546104e23660046129c1565b611c7a565b6102a2611c97565b6102cd6104fd366004612a9d565b611cb0565b6102676105103660046129c1565b611cca565b61023f610523366004612b90565b611cd8565b6102cd6105363660046129c1565b60009081526005602052604090205490565b610267610556366004612f27565b611d4f565b61023f610569366004612829565b611dd8565b60008061057d83850185612fbd565b9150915060006105938380519060200120611e58565b905060007f00000000000000000000000000000000000000000000000000000000000000006001600160a01b03166373e3d66a83856040518363ffffffff1660e01b81526004016105e5929190613020565b6020604051808303816000875af1158015610604573d6000803e3d6000fd5b505050506040513d601f19601f82011682018060405250810190610628919061304e565b9050600060608060608780602001905181019061064591906131ef565b9296509094509250905046841461066f57604051633d23e4d160e11b815260040160405180910390fd5b8251825181141580610682575081518114155b156106a05760405163ca9a28f560e01b815260040160405180910390fd5b60005b818110156109955760008582815181106106bf576106bf6132d8565b602002602001015190506106d281611cca565b156106dd575061098d565b6000808684815181106106f2576106f26132d8565b602002602001015160405160200161070a91906132ee565b6040516020818303038152906040528051906020012090507f5763814b98a3aa86f212797af3273868b5dd6e2a532d764a79b98ca859e7bbad81036107585763886a625d60e01b915061087f565b7fec78d9c22c08bb9f0ecd5d95571ae83e3f22219c5a9278c3270691d50abfd91b810361078e5763028dc5af60e31b915061087f565b7f37ac16aabc4d87540e53151b2b716265cfd6b195db96a9daf8e893c829bbd23381036107c45763fbe0a31b60e01b915061087f565b7ff41504255b911b3042ee4f8786fdf7cf4bcf24ace033fa16af3c8574e025e43681036107fa57631616a7f560e21b915061087f565b7fda199c0e76f665e0450020791c7f8eacc75f3cdbace313272c28f93e5390b62c81036108305763232b571760e11b915061087f565b7fb460dcb6fd5797fc0e7ea0f13406c80d30702ba7f73a42bd91394775dcbca718810361087757896108645750505061098d565b60009950634bdc3dd360e11b915061087f565b50505061098d565b61088a836001611eac565b6000306001600160a01b0316838887815181106108a9576108a96132d8565b6020026020010151866040516024016108c392919061330a565b60408051601f198184030181529181526020820180516001600160e01b03166001600160e01b031990941693909317909252905161090191906132ee565b6000604051808303816000865af19150503d806000811461093e576040519150601f19603f3d011682016040523d82523d6000602084013e610943565b606091505b50509050801561097d5760405184907fa74c8847d513feba22a0f0cb38d53081abf97562cdb293926ba243689e7c41ca90600090a2610988565b610988846000611eac565b505050505b6001016106a3565b505050505050505050505050565b600080806109b385870187613337565b9250925092506109c4838383611ec2565b505050505050565b600080610a7d8b8b8b8080601f01602080910402602001604051908101604052809392919081815260200183838082843760009201919091525050604080516020601f8f018190048102820181019092528d815292508d91508c908190840183828082843760009201919091525050604080516020601f8d018190048102820181019092528b81523393508d9250908c908c90819084018382808284376000920191909152508c9250611fb7915050565b60008181526004602052604090205460ff16925090508115610b1257610aa481600061201b565b6040518b907f91057b069763121972ce22b18b2f319b1520dd4c72f1f94a6395e81ceaf63f4190600090a2610b1285858080601f016020809104026020016040519081016040528093929190818152602001838380828437600092019190915250339250879150611ec29050565b509998505050505050505050565b8181604051610b30929190613390565b6040518091039020336001600160a01b03167f30ae6cc78c27e651745bf2ad08a11de83910ac1e347a52f7ac898c0fbef94dae888888888888604051610b7b969594939291906133c9565b60405180910390a3505050505050565b6000908152600260205260409020546001600160a01b031690565b6000610bb46104c28361203b565b92915050565b610bfc3384848080601f016020809104026020016040519081016040528093929190818152602001838380828437600092019190915250869250612070915050565b336001600160a01b03167f651d93f66c4329630e8d0f62488eff599e3be484da587335e8dc0fcf4606272688888888888888604051610c419796959493929190613412565b60405180910390a250505050505050565b610c69600080516020613e17833981519152610b8b565b6001600160a01b0316336001600160a01b031614158015610cb25750610c9c600080516020613df7833981519152610b8b565b6001600160a01b0316336001600160a01b031614155b15610cd05760405163223aa83d60e11b815260040160405180910390fd5b6001600160a01b038116610cf7576040516335e75dcb60e21b815260040160405180910390fd5b610d0081612222565b50565b600080610d1284860186613463565b915091506000610d2183611611565b90506001600160a01b038116610d55578260405163395d09bf60e11b8152600401610d4c9190612d2d565b60405180910390fd5b6002610d6084612290565b6002811115610d7157610d716134a7565b03611045576000610e158360405180602001610d8c90612793565b601f1982820381018352601f909101166040819052610dae91906020016132ee565b60408051601f1981840301815282825280516020918201206001600160f81b0319848301526bffffffffffffffffffffffff193060601b16602185015260358401949094526055808401949094528151808403909401845260759092019052815191012090565b9050610e29816001600160a01b03166122af565b15610e375750505050505050565b600083604051610e4690612793565b8190604051809103906000f5905080158015610e66573d6000803e3d6000fd5b506040516370a0823160e01b81526001600160a01b038083166004830181905292935060009283929091631cff79cd91889163a9059cbb60e01b9130918416906370a0823190602401602060405180830381865afa158015610ecc573d6000803e3d6000fd5b505050506040513d601f19601f82011682018060405250810190610ef091906134bd565b6040516001600160a01b039092166024830152604482015260640160408051601f198184030181529181526020820180516001600160e01b03166001600160e01b03199485161790525160e085901b9092168252610f5192916004016134d6565b6000604051808303816000875af1158015610f70573d6000803e3d6000fd5b505050506040513d6000823e601f3d908101601f19168201604052610f9891908101906134fa565b91509150811580610fc55750805115801590610fc5575080806020019051810190610fc3919061304e565b155b15610fe5578660405163e217b0ad60e01b8152600401610d4c9190612d2d565b60405162f55d9d60e01b81523060048201526001600160a01b0384169062f55d9d90602401600060405180830381600087803b15801561102457600080fd5b505af1158015611038573d6000803e3d6000fd5b50505050505050506109c4565b6040516308a1eee160e01b8152600481018390526001600160a01b038216906308a1eee190602401600060405180830381600087803b15801561108757600080fd5b505af115801561109b573d6000803e3d6000fd5b50505050505050505050565b6000808080808080806110bc8a8c018c61353d565b975097509750975097509750975097506110db898989898989896122f2565b84866001600160a01b03168a7f9991faa1f435675159ffae64b66d7ecfdb55c29755869a18db8497b4392347e08b8b89898989604051611120969594939291906135fa565b60405180910390a45050505050505050505050565b600061114e600080516020613df7833981519152610b8b565b905090565b600061114e7f360894a13ba1a3210667c828492db98dca3e2076cc3735a920a3ca505d382bbc610b8b565b6000806111f98888888080601f01602080910402602001604051908101604052809392919081815260200183838082843760009201919091525050604080516020601f8c018190048102820181019092528a815292508a915089908190840183828082843760009201919091525033925089915061230b9050565b60008181526004602052604090205460ff1692509050811561124c5761122081600061201b565b60405188907f91057b069763121972ce22b18b2f319b1520dd4c72f1f94a6395e81ceaf63f4190600090a25b509695505050505050565b61126e600080516020613e17833981519152610b8b565b6001600160a01b0316336001600160a01b0316141580156112b757506112a1600080516020613df7833981519152610b8b565b6001600160a01b0316336001600160a01b031614155b156112d55760405163223aa83d60e11b815260040160405180910390fd5b828181146112f6576040516314a2275f60e01b815260040160405180910390fd5b60005b818110156109c4576000868683818110611315576113156132d8565b90506020028101906113279190613652565b8080601f0160208091040260200160405190810160405280939291908181526020018383808284376000920182905250939450889250879150859050818110611372576113726132d8565b90506020020135905060006001600160a01b031661138f83611611565b6001600160a01b0316036113b8578160405163395d09bf60e11b8152600401610d4c9190612d2d565b6113c28282612369565b50506001016112f9565b600080808080806113df888a018a613698565b95509550955095509550955060006001600160a01b03166113ff86611611565b6001600160a01b031614611428578460405163553f459960e11b8152600401610d4c9190612d2d565b6114328582612369565b6001600160a01b0382166115855760008560405160200161145391906132ee565b6040516020818303038152906040528051906020012090506114768660016123c1565b6000807f00000000000000000000000000000000000000000000000000000000000000006001600160a01b0316636fc95b3460e01b8a8a8a8a886040516024016114c495949392919061373a565b60408051601f198184030181529181526020820180516001600160e01b03166001600160e01b031990941693909317909252905161150291906132ee565b600060405180830381855af49150503d806000811461153d576040519150601f19603f3d011682016040523d82523d6000602084013e611542565b606091505b50915091508161156757876040516386d5274360e01b8152600401610d4c9190612d2d565b8080602001905181019061157b9190613780565b94505050506115c3565b6001600160a01b0382163b6115b8576040516362e66eef60e11b81526001600160a01b0383166004820152602401610d4c565b6115c38560026123c1565b7fbf90b5a1ec9763e8bf4b9245cef0c28db92bab309fc2c5177f17814f3824693885836040516115f492919061379d565b60405180910390a161160685836123f1565b505050505050505050565b6000610bb461029d83612403565b7f192e759e55f359cd9832b5c0c6e38e4b6df5c5ca33f3bd5c90738e865a52187283836040516116509291906137c7565b60405180910390a160405163d289d1cb60e01b81526001600160a01b037f0000000000000000000000000000000000000000000000000000000000000000169063d289d1cb906116a690869086906004016137c7565b600060405180830381600087803b1580156116c057600080fd5b505af11580156116d4573d6000803e3d6000fd5b50505050505050565b60008181526001602052604090208054606091906116fa906137db565b80601f0160208091040260200160405190810160405280929190818152602001828054611726906137db565b80156117735780601f1061174857610100808354040283529160200191611773565b820191906000526020600020905b81548152906001019060200180831161175657829003601f168201915b50505050509050919050565b307f00000000000000000000000000000000000000000000000000000000000000006001600160a01b0316036117c857604051635f886e9d60e11b815260040160405180910390fd5b600080806117d884860186613815565b919450925090506001600160a01b038316156117f7576117f783612438565b6001600160a01b0382161561180f5761180f82612222565b8051156118c7577f192e759e55f359cd9832b5c0c6e38e4b6df5c5ca33f3bd5c90738e865a521872816040516118459190612d2d565b60405180910390a160405163d289d1cb60e01b81526001600160a01b037f0000000000000000000000000000000000000000000000000000000000000000169063d289d1cb90611899908490600401612d2d565b600060405180830381600087803b1580156118b357600080fd5b505af1158015611606573d6000803e3d6000fd5b5050505050565b6118e5600080516020613df7833981519152610b8b565b6001600160a01b0316336001600160a01b03161461191657604051632d5be4cb60e21b815260040160405180910390fd5b836001600160a01b03163f8314611940576040516323e13ec960e21b815260040160405180910390fd5b836001600160a01b0316638291286c6040518163ffffffff1660e01b8152600401602060405180830381865afa15801561197e573d6000803e3d6000fd5b505050506040513d601f19601f820116820180604052508101906119a291906134bd565b7fad2ae48b4d93c587cd1f0f8f269b84f57dbe98bbe5c61c4b6d324e6a667b3625146119e15760405163340aafcd60e11b815260040160405180910390fd5b6040516001600160a01b038516907fbc7cd75a20ee27fd9adebab32041f755214dbc6bffa90cc0225b39da2e5c2d3b90600090a2611a1e846124a6565b8015611aeb576000846001600160a01b0316639ded06df60e01b8484604051602401611a4b9291906137c7565b60408051601f198184030181529181526020820180516001600160e01b03166001600160e01b0319909416939093179092529051611a8991906132ee565b600060405180830381855af49150503d8060008114611ac4576040519150601f19603f3d011682016040523d82523d6000602084013e611ac9565b606091505b50509050806118c7576040516397905dfb60e01b815260040160405180910390fd5b50505050565b611b333384848080601f016020809104026020016040519081016040528093929190818152602001838380828437600092019190915250869250612070915050565b8484604051611b43929190613390565b6040518091039020336001600160a01b03167f7e50569d26be643bda7757722291ec66b1be66d8283474ae3fab5a98f878a7a28b8b8b8b8b8b8b8b8b604051611b9499989796959493929190613876565b60405180910390a3505050505050505050565b6000611c6b6103b98c8c8c8080601f016020809104026020016040519081016040528093929190818152602001838380828437600081840152601f19601f820116905080830192505050505050508b8b8080601f01602080910402602001604051908101604052809392919081815260200183838082843760009201919091525050604080516020601f8d018190048102820181019092528b81528e93508d9250908c908c90819084018382808284376000920191909152508c9250611fb7915050565b9b9a5050505050505050505050565b60008181526003602052604090208054606091906116fa906137db565b600061114e600080516020613e17833981519152610b8b565b6000610bb46104c283611cc5615460426138de565b6124d0565b6000610bb46103b983612525565b611cef600080516020613df7833981519152610b8b565b6001600160a01b0316336001600160a01b031614611d2057604051632d5be4cb60e21b815260040160405180910390fd5b6001600160a01b038116611d46576040516218c61b60e21b815260040160405180910390fd5b610d0081612438565b6000611dcc6103b98989898080601f01602080910402602001604051908101604052809392919081815260200183838082843760009201919091525050604080516020601f8d018190048102820181019092528b815292508b91508a90819084018382808284376000920191909152508a925089915061230b9050565b98975050505050505050565b60008080808080611deb888a018a613900565b955095509550955095509550611e048787878787612560565b82846001600160a01b0316887f44e4f8f6bd682c5a3aeba93601ab07cb4d1f21b2aab1ae4880d9577919309aa489898787604051611e459493929190613991565b60405180910390a4505050505050505050565b6040517f19457468657265756d205369676e6564204d6573736167653a0a3332000000006020820152603c8101829052600090605c015b604051602081830303815290604052805190602001209050919050565b611ebe611eb883612525565b8261201b565b5050565b6000611ecd84611611565b90506001600160a01b038116611ef8578360405163395d09bf60e11b8152600401610d4c9190612d2d565b611f158483611f0687611cb0565b611f1091906139ca565b612570565b6002611f2085612290565b6002811115611f3157611f316134a7565b03611f4f57611f4a6001600160a01b03821684846125d7565b611aeb565b6040516340c10f1960e01b81526001600160a01b038481166004830152602482018490528216906340c10f1990604401600060405180830381600087803b158015611f9957600080fd5b505af1158015611fad573d6000803e3d6000fd5b5050505050505050565b60007fb7ad972b71475860613db3ba1fe699b886c878f9002a09250dc25e769eb19a1088888888888888604051602001611ff89897969594939291906139eb565b604051602081830303815290604052805190602001209050979650505050505050565b600091825260046020526040909120805460ff1916911515919091179055565b60007feee9348b4aaba3647b1612b2724f18e93b9299da26fb321c7b3fda135d7dea8782604051602001611e8f929190613a5f565b600061207b83611611565b90506001600160a01b0381166120a6578260405163395d09bf60e11b8152600401610d4c9190612d2d565b816000036120c75760405163162908e360e11b815260040160405180910390fd5b60006120d284612290565b905060028160028111156120e8576120e86134a7565b03612107576121026001600160a01b03831686308661263a565b6118c7565b600181600281111561211b5761211b6134a7565b0361217457604080516001600160a01b03878116602483015260448083018790528351808403909101815260649092019092526020810180516001600160e01b031663079cc67960e41b17905261210291841690612672565b604051630c7bb2bd60e21b8152600060048201526121f59086906001600160a01b038516906331eecaf490602401602060405180830381865afa1580156121bf573d6000803e3d6000fd5b505050506040513d601f19601f820116820180604052508101906121e39190613780565b6001600160a01b03851691908661263a565b6040516308a1eee160e01b8152600060048201526001600160a01b038316906308a1eee190602401611899565b6001600160a01b038116612243600080516020613e17833981519152610b8b565b6001600160a01b03167fa9303c860c5de3c0c866c354d281785c89778ac5ca2dffdf12841c45cd4e1e6e60405160405180910390a3610d00600080516020613e1783398151915282612730565b600061229e6104c28361275e565b6002811115610bb457610bb46134a7565b60006001600160a01b0382163f80158015906122eb57507fc5d2460186f7233c927e7db2dcc703c0e500b653ca82273b7bfad8045d85a4708114155b9392505050565b6116d461230488888888888888611fb7565b600161201b565b60007f07b0d4304f82012bd3b70b1d531c160e326067c90829e2a3d386722ad10b89c3868686868660405160200161234896959493929190613a85565b60405160208183030381529060405280519060200120905095945050505050565b7fd99446c1d76385bb5519ccfb5274abcfd5896dfc22405e40010fde217f018a18828260405161239a92919061330a565b60405180910390a1611ebe6123ae8361203b565b8260009182526020829052604090912055565b611ebe6123cd8361275e565b8260028111156123df576123df6134a7565b60009182526020829052604090912055565b611ebe6123fd83612403565b82612730565b60007fc4e632779a6a7838736dd7e5e6a0eadf171dd37dfb6230720e265576dfcf42bb82604051602001611e8f929190613a5f565b6001600160a01b038116612459600080516020613df7833981519152610b8b565b6001600160a01b03167f5f56bee8cffbe9a78652a74a60705edede02af10b0bbb888ca44b79a0d42ce8060405160405180910390a3610d00600080516020613df783398151915282612730565b610d007f360894a13ba1a3210667c828492db98dca3e2076cc3735a920a3ca505d382bbc82612730565b60007f2f8851fe0d6d537e552a4f25b7a3167d48eb1292622c71d84630a2a44757bced838360405160200161250793929190613ad5565b60405160208183030381529060405280519060200120905092915050565b604080517f957705a374326b30f4a1069c936d736cc9993ed6c820b4e0e2fd94a8beca0d1d6020820152908101829052600090606001611e8f565b6118c7612304868686868661230b565b600061257b83610ba6565b905060008111801561258c57508082115b156125ac578260405163037f60e560e01b8152600401610d4c9190612d2d565b6125d26125bf84611cc5615460426138de565b8360009182526020829052604090912055565b505050565b6040516001600160a01b0383166024820152604481018290526125d290849063a9059cbb60e01b906064015b60408051601f198184030181529190526020810180516001600160e01b03166001600160e01b031990931692909217909152612672565b6040516001600160a01b0380851660248301528316604482015260648101829052611aeb9085906323b872dd60e01b90608401612603565b600080836001600160a01b03168360405161268d91906132ee565b6000604051808303816000865af19150503d80600081146126ca576040519150601f19603f3d011682016040523d82523d6000602084013e6126cf565b606091505b509150915060008280156126fb5750815115806126fb5750818060200190518101906126fb919061304e565b905080158061271257506001600160a01b0385163b155b156118c75760405163022e258160e11b815260040160405180910390fd5b60009182526002602052604090912080546001600160a01b0319166001600160a01b03909216919091179055565b60007fa80d2259af55890618ec2eeb3ac72de4bdba22529bb14845d8a3d712d1c3f62182604051602001611e8f929190613a5f565b6102f880613aff83390190565b60008083601f8401126127b257600080fd5b5081356001600160401b038111156127c957600080fd5b6020830191508360208285010111156127e157600080fd5b9250929050565b600080602083850312156127fb57600080fd5b82356001600160401b0381111561281157600080fd5b61281d858286016127a0565b90969095509350505050565b60008060006040848603121561283e57600080fd5b83356001600160401b0381111561285457600080fd5b612860868287016127a0565b909790965060209590950135949350505050565b600080600080600080600080600060c08a8c03121561289257600080fd5b8935985060208a01356001600160401b03808211156128b057600080fd5b6128bc8d838e016127a0565b909a50985060408c01359150808211156128d557600080fd5b6128e18d838e016127a0565b909850965060608c0135955060808c013591508082111561290157600080fd5b5061290e8c828d016127a0565b9a9d999c50979a9699959894979660a00135949350505050565b6000806000806000806060878903121561294157600080fd5b86356001600160401b038082111561295857600080fd5b6129648a838b016127a0565b9098509650602089013591508082111561297d57600080fd5b6129898a838b016127a0565b909650945060408901359150808211156129a257600080fd5b506129af89828a016127a0565b979a9699509497509295939492505050565b6000602082840312156129d357600080fd5b5035919050565b634e487b7160e01b600052604160045260246000fd5b604051601f8201601f191681016001600160401b0381118282101715612a1857612a186129da565b604052919050565b60006001600160401b03821115612a3957612a396129da565b50601f01601f191660200190565b600082601f830112612a5857600080fd5b8135612a6b612a6682612a20565b6129f0565b818152846020838601011115612a8057600080fd5b816020850160208301376000918101602001919091529392505050565b600060208284031215612aaf57600080fd5b81356001600160401b03811115612ac557600080fd5b612ad184828501612a47565b949350505050565b60008060008060008060006080888a031215612af457600080fd5b87356001600160401b0380821115612b0b57600080fd5b612b178b838c016127a0565b909950975060208a0135915080821115612b3057600080fd5b612b3c8b838c016127a0565b909750955060408a0135915080821115612b5557600080fd5b50612b628a828b016127a0565b989b979a50959894979596606090950135949350505050565b6001600160a01b0381168114610d0057600080fd5b600060208284031215612ba257600080fd5b81356122eb81612b7b565b60008060008060008060808789031215612bc657600080fd5b8635955060208701356001600160401b0380821115612be457600080fd5b612bf08a838b016127a0565b90975095506040890135915080821115612c0957600080fd5b50612c1689828a016127a0565b979a9699509497949695606090950135949350505050565b60008083601f840112612c4057600080fd5b5081356001600160401b03811115612c5757600080fd5b6020830191508360208260051b85010111156127e157600080fd5b60008060008060408587031215612c8857600080fd5b84356001600160401b0380821115612c9f57600080fd5b612cab88838901612c2e565b90965094506020870135915080821115612cc457600080fd5b50612cd187828801612c2e565b95989497509550505050565b60005b83811015612cf8578181015183820152602001612ce0565b50506000910152565b60008151808452612d19816020860160208601612cdd565b601f01601f19169290920160200192915050565b6020815260006122eb6020830184612d01565b60008060008060608587031215612d5657600080fd5b8435612d6181612b7b565b93506020850135925060408501356001600160401b03811115612d8357600080fd5b612cd1878288016127a0565b600080600080600080600080600060a08a8c031215612dad57600080fd5b89356001600160401b0380821115612dc457600080fd5b612dd08d838e016127a0565b909b50995060208c0135915080821115612de957600080fd5b612df58d838e016127a0565b909950975060408c0135915080821115612e0e57600080fd5b612e1a8d838e016127a0565b909750955060608c0135915080821115612e3357600080fd5b50612e408c828d016127a0565b9a9d999c50979a9699959894979660800135949350505050565b60008060008060008060008060008060e08b8d031215612e7957600080fd5b8a35995060208b01356001600160401b0380821115612e9757600080fd5b612ea38e838f016127a0565b909b50995060408d0135915080821115612ebc57600080fd5b612ec88e838f016127a0565b909950975060608d01359150612edd82612b7b565b90955060808c0135945060a08c01359080821115612efa57600080fd5b50612f078d828e016127a0565b9150809450508092505060c08b013590509295989b9194979a5092959850565b600080600080600080600060a0888a031215612f4257600080fd5b8735965060208801356001600160401b0380821115612f6057600080fd5b612f6c8b838c016127a0565b909850965060408a0135915080821115612f8557600080fd5b50612f928a828b016127a0565b9095509350506060880135612fa681612b7b565b809250506080880135905092959891949750929550565b60008060408385031215612fd057600080fd5b82356001600160401b0380821115612fe757600080fd5b612ff386838701612a47565b9350602085013591508082111561300957600080fd5b5061301685828601612a47565b9150509250929050565b828152604060208201526000612ad16040830184612d01565b8051801515811461304957600080fd5b919050565b60006020828403121561306057600080fd5b6122eb82613039565b60006001600160401b03821115613082576130826129da565b5060051b60200190565b600061309a612a6684612a20565b90508281528383830111156130ae57600080fd5b6122eb836020830184612cdd565b600082601f8301126130cd57600080fd5b815160206130dd612a6683613069565b82815260059290921b840181019181810190868411156130fc57600080fd5b8286015b8481101561124c5780516001600160401b0381111561311f5760008081fd5b8701603f810189136131315760008081fd5b61314289868301516040840161308c565b845250918301918301613100565b600082601f83011261316157600080fd5b6122eb8383516020850161308c565b600082601f83011261318157600080fd5b81516020613191612a6683613069565b82815260059290921b840181019181810190868411156131b057600080fd5b8286015b8481101561124c5780516001600160401b038111156131d35760008081fd5b6131e18986838b0101613150565b8452509183019183016131b4565b6000806000806080858703121561320557600080fd5b845193506020808601516001600160401b038082111561322457600080fd5b818801915088601f83011261323857600080fd5b8151613246612a6682613069565b81815260059190911b8301840190848101908b83111561326557600080fd5b938501935b828510156132835784518252938501939085019061326a565b60408b0151909850945050508083111561329c57600080fd5b6132a889848a016130bc565b945060608801519250808311156132be57600080fd5b50506132cc87828801613170565b91505092959194509250565b634e487b7160e01b600052603260045260246000fd5b60008251613300818460208701612cdd565b9190910192915050565b60408152600061331d6040830185612d01565b90508260208301529392505050565b803561304981612b7b565b60008060006060848603121561334c57600080fd5b83356001600160401b0381111561336257600080fd5b61336e86828701612a47565b935050602084013561337f81612b7b565b929592945050506040919091013590565b8183823760009101908152919050565b81835281816020850137506000828201602090810191909152601f909101601f19169091010190565b6060815260006133dd60608301888a6133a0565b82810360208401526133f08187896133a0565b905082810360408401526134058185876133a0565b9998505050505050505050565b60808152600061342660808301898b6133a0565b828103602084015261343981888a6133a0565b9050828103604084015261344e8186886133a0565b91505082606083015298975050505050505050565b6000806040838503121561347657600080fd5b82356001600160401b0381111561348c57600080fd5b61349885828601612a47565b95602094909401359450505050565b634e487b7160e01b600052602160045260246000fd5b6000602082840312156134cf57600080fd5b5051919050565b6001600160a01b0383168152604060208201819052600090612ad190830184612d01565b6000806040838503121561350d57600080fd5b61351683613039565b915060208301516001600160401b0381111561353157600080fd5b61301685828601613150565b600080600080600080600080610100898b03121561355a57600080fd5b88356001600160401b038082111561357157600080fd5b61357d8c838d01612a47565b995060208b013591508082111561359357600080fd5b61359f8c838d01612a47565b98506135ad60408c0161332c565b975060608b0135965060808b01359150808211156135ca57600080fd5b506135d78b828c01612a47565b989b979a50959894979660a0860135965060c08601359560e00135945092505050565b60c08152600061360d60c0830189612d01565b828103602084015261361f8189612d01565b905082810360408401526136338188612d01565b60608401969096525050608081019290925260a0909101529392505050565b6000808335601e1984360301811261366957600080fd5b8301803591506001600160401b0382111561368357600080fd5b6020019150368190038213156127e157600080fd5b60008060008060008060c087890312156136b157600080fd5b86356001600160401b03808211156136c857600080fd5b6136d48a838b01612a47565b975060208901359150808211156136ea57600080fd5b506136f789828a01612a47565b955050604087013560ff8116811461370e57600080fd5b935060608701359250608087013561372581612b7b565b8092505060a087013590509295509295509295565b60a08152600061374d60a0830188612d01565b828103602084015261375f8188612d01565b60ff9690961660408401525050606081019290925260809091015292915050565b60006020828403121561379257600080fd5b81516122eb81612b7b565b6040815260006137b06040830185612d01565b905060018060a01b03831660208301529392505050565b602081526000612ad16020830184866133a0565b600181811c908216806137ef57607f821691505b60208210810361380f57634e487b7160e01b600052602260045260246000fd5b50919050565b60008060006060848603121561382a57600080fd5b833561383581612b7b565b9250602084013561384581612b7b565b915060408401356001600160401b0381111561386057600080fd5b61386c86828701612a47565b9150509250925092565b60a08152600061388a60a083018b8d6133a0565b828103602084015261389d818a8c6133a0565b905082810360408401526138b281888a6133a0565b905082810360608401526138c78186886133a0565b9150508260808301529a9950505050505050505050565b6000826138fb57634e487b7160e01b600052601260045260246000fd5b500490565b60008060008060008060c0878903121561391957600080fd5b86356001600160401b038082111561393057600080fd5b61393c8a838b01612a47565b9750602089013591508082111561395257600080fd5b5061395f89828a01612a47565b955050604087013561397081612b7b565b959894975094956060810135955060808101359460a0909101359350915050565b6080815260006139a46080830187612d01565b82810360208401526139b68187612d01565b604084019590955250506060015292915050565b80820180821115610bb457634e487b7160e01b600052601160045260246000fd5b60006101008a8352896020840152806040840152613a0b8184018a612d01565b90508281036060840152613a1f8189612d01565b6001600160a01b038816608085015260a0840187905283810360c08501529050613a498186612d01565b9150508260e08301529998505050505050505050565b82815260008251613a77816020850160208701612cdd565b919091016020019392505050565b86815285602082015260c060408201526000613aa460c0830187612d01565b8281036060840152613ab68187612d01565b6001600160a01b03959095166080840152505060a00152949350505050565b838152606060208201526000613aee6060830185612d01565b905082604083015294935050505056fe6080604052600160005534801561001557600080fd5b506102d3806100256000396000f3fe608060405234801561001057600080fd5b50600436106100355760003560e01c8062f55d9d1461003a5780631cff79cd1461004f575b600080fd5b61004d61004836600461018f565b610079565b005b61006261005d3660046101b1565b6100ad565b604051610070929190610234565b60405180910390f35b60026000540361009c5760405163caa30f5560e01b815260040160405180910390fd5b60026000556001600160a01b038116ff5b600060606002600054036100d45760405163caa30f5560e01b815260040160405180910390fd5b600260009081556001600160a01b0386163b900361010557604051636f7c43f160e01b815260040160405180910390fd5b846001600160a01b0316848460405161011f92919061028d565b6000604051808303816000865af19150503d806000811461015c576040519150601f19603f3d011682016040523d82523d6000602084013e610161565b606091505b50600160005590969095509350505050565b80356001600160a01b038116811461018a57600080fd5b919050565b6000602082840312156101a157600080fd5b6101aa82610173565b9392505050565b6000806000604084860312156101c657600080fd5b6101cf84610173565b9250602084013567ffffffffffffffff808211156101ec57600080fd5b818601915086601f83011261020057600080fd5b81358181111561020f57600080fd5b87602082850101111561022157600080fd5b6020830194508093505050509250925092565b82151581526000602060406020840152835180604085015260005b8181101561026b5785810183015185820160600152820161024f565b506000606082860101526060601f19601f830116850101925050509392505050565b818382376000910190815291905056fea264697066735822122006f9d37ee977c070ab0beed5622642adaa8cf7c371495d427ab33e342fdd4ac164736f6c63430008180033abea6fd3db56a6e6d0242111b43ebb13d1c42709651c032c7894962023a1f909627f0c11732837b3240a2de89c0b6343512886dd50978b99c76a68c6416a4d92a26469706673582212209bfc7d59bc61b3440550d399e39ea21a46b494b9db81ef5b97709fa348bf64fd64736f6c63430008180033","opcodes":"PUSH1 0xE0 PUSH1 0x40 MSTORE CALLVALUE DUP1 ISZERO PUSH3 0x11 JUMPI PUSH1 0x0 DUP1 REVERT JUMPDEST POP PUSH1 0x40 MLOAD PUSH3 0x3FB5 CODESIZE SUB DUP1 PUSH3 0x3FB5 DUP4 CODECOPY DUP2 ADD PUSH1 0x40 DUP2 SWAP1 MSTORE PUSH3 0x34 SWAP2 PUSH3 0xC5 JUMP JUMPDEST ADDRESS PUSH1 0x80 MSTORE PUSH1 0x1 PUSH1 0x1 PUSH1 0xA0 SHL SUB DUP3 AND EXTCODESIZE PUSH1 0x0 SUB PUSH3 0x64 JUMPI PUSH1 0x40 MLOAD PUSH4 0x735326AB PUSH1 0xE0 SHL DUP2 MSTORE PUSH1 0x4 ADD PUSH1 0x40 MLOAD DUP1 SWAP2 SUB SWAP1 REVERT JUMPDEST DUP1 PUSH1 0x1 PUSH1 0x1 PUSH1 0xA0 SHL SUB AND EXTCODESIZE PUSH1 0x0 SUB PUSH3 0x90 JUMPI PUSH1 0x40 MLOAD PUSH4 0xC84DABF PUSH1 0xE3 SHL DUP2 MSTORE PUSH1 0x4 ADD PUSH1 0x40 MLOAD DUP1 SWAP2 SUB SWAP1 REVERT JUMPDEST PUSH1 0x1 PUSH1 0x1 PUSH1 0xA0 SHL SUB SWAP2 DUP3 AND PUSH1 0xA0 MSTORE AND PUSH1 0xC0 MSTORE PUSH3 0xFD JUMP JUMPDEST DUP1 MLOAD PUSH1 0x1 PUSH1 0x1 PUSH1 0xA0 SHL SUB DUP2 AND DUP2 EQ PUSH3 0xC0 JUMPI PUSH1 0x0 DUP1 REVERT JUMPDEST SWAP2 SWAP1 POP JUMP JUMPDEST PUSH1 0x0 DUP1 PUSH1 0x40 DUP4 DUP6 SUB SLT ISZERO PUSH3 0xD9 JUMPI PUSH1 0x0 DUP1 REVERT JUMPDEST PUSH3 0xE4 DUP4 PUSH3 0xA8 JUMP JUMPDEST SWAP2 POP PUSH3 0xF4 PUSH1 0x20 DUP5 ADD PUSH3 0xA8 JUMP JUMPDEST SWAP1 POP SWAP3 POP SWAP3 SWAP1 POP JUMP JUMPDEST PUSH1 0x80 MLOAD PUSH1 0xA0 MLOAD PUSH1 0xC0 MLOAD PUSH2 0x3E6C PUSH3 0x149 PUSH1 0x0 CODECOPY PUSH1 0x0 DUP2 DUP2 PUSH2 0x2F3 ADD MSTORE PUSH2 0x147B ADD MSTORE PUSH1 0x0 DUP2 DUP2 PUSH2 0x376 ADD MSTORE DUP2 DUP2 PUSH2 0x599 ADD MSTORE DUP2 DUP2 PUSH2 0x166F ADD MSTORE PUSH2 0x1864 ADD MSTORE PUSH1 0x0 PUSH2 0x1782 ADD MSTORE PUSH2 0x3E6C PUSH1 0x0 RETURN INVALID PUSH1 0x80 PUSH1 0x40 MSTORE CALLVALUE DUP1 ISZERO PUSH2 0x10 JUMPI PUSH1 0x0 DUP1 REVERT JUMPDEST POP PUSH1 0x4 CALLDATASIZE LT PUSH2 0x227 JUMPI PUSH1 0x0 CALLDATALOAD PUSH1 0xE0 SHR DUP1 PUSH4 0x8291286C GT PUSH2 0x130 JUMPI DUP1 PUSH4 0xBC00C216 GT PUSH2 0xB8 JUMPI DUP1 PUSH4 0xD26FF210 GT PUSH2 0x7C JUMPI DUP1 PUSH4 0xD26FF210 EQ PUSH2 0x502 JUMPI DUP1 PUSH4 0xD38BFFF4 EQ PUSH2 0x515 JUMPI DUP1 PUSH4 0xDC97D962 EQ PUSH2 0x528 JUMPI DUP1 PUSH4 0xF6A5F9F5 EQ PUSH2 0x548 JUMPI DUP1 PUSH4 0xFBE0A31B EQ PUSH2 0x55B JUMPI PUSH1 0x0 DUP1 REVERT JUMPDEST DUP1 PUSH4 0xBC00C216 EQ PUSH2 0x4A1 JUMPI DUP1 PUSH4 0xBD02D0F5 EQ PUSH2 0x4B4 JUMPI DUP1 PUSH4 0xC031A180 EQ PUSH2 0x4D4 JUMPI DUP1 PUSH4 0xC82FE87A EQ PUSH2 0x4E7 JUMPI DUP1 PUSH4 0xCEC7B359 EQ PUSH2 0x4EF JUMPI PUSH1 0x0 DUP1 REVERT JUMPDEST DUP1 PUSH4 0x986E791A GT PUSH2 0xFF JUMPI DUP1 PUSH4 0x986E791A EQ PUSH2 0x441 JUMPI DUP1 PUSH4 0x9DED06DF EQ PUSH2 0x461 JUMPI DUP1 PUSH4 0xA3499C73 EQ PUSH2 0x474 JUMPI DUP1 PUSH4 0xAA1E1F0A EQ PUSH2 0x487 JUMPI DUP1 PUSH4 0xB5417084 EQ PUSH2 0x48E JUMPI PUSH1 0x0 DUP1 REVERT JUMPDEST DUP1 PUSH4 0x8291286C EQ PUSH2 0x3E2 JUMPI DUP1 PUSH4 0x886A625D EQ PUSH2 0x408 JUMPI DUP1 PUSH4 0x935B13F6 EQ PUSH2 0x41B JUMPI DUP1 PUSH4 0x97B87BA6 EQ PUSH2 0x42E JUMPI PUSH1 0x0 DUP1 REVERT JUMPDEST DUP1 PUSH4 0x4656AE2E GT PUSH2 0x1B3 JUMPI DUP1 PUSH4 0x5F6970C3 GT PUSH2 0x182 JUMPI DUP1 PUSH4 0x5F6970C3 EQ PUSH2 0x35E JUMPI DUP1 PUSH4 0x64940C56 EQ PUSH2 0x371 JUMPI DUP1 PUSH4 0x67ACE8EB EQ PUSH2 0x398 JUMPI DUP1 PUSH4 0x7AE1CFCA EQ PUSH2 0x3AB JUMPI DUP1 PUSH4 0x7B1B769E EQ PUSH2 0x3CE JUMPI PUSH1 0x0 DUP1 REVERT JUMPDEST DUP1 PUSH4 0x4656AE2E EQ PUSH2 0x328 JUMPI DUP1 PUSH4 0x585A9FD4 EQ PUSH2 0x33B JUMPI DUP1 PUSH4 0x5AA6E675 EQ PUSH2 0x34E JUMPI DUP1 PUSH4 0x5C60DA1B EQ PUSH2 0x356 JUMPI PUSH1 0x0 DUP1 REVERT JUMPDEST DUP1 PUSH4 0x21F8A721 GT PUSH2 0x1FA JUMPI DUP1 PUSH4 0x21F8A721 EQ PUSH2 0x28F JUMPI DUP1 PUSH4 0x269EB65E EQ PUSH2 0x2BA JUMPI DUP1 PUSH4 0x26EF699D EQ PUSH2 0x2DB JUMPI DUP1 PUSH4 0x2A2DAE0A EQ PUSH2 0x2EE JUMPI DUP1 PUSH4 0x41D8F26B EQ PUSH2 0x315 JUMPI PUSH1 0x0 DUP1 REVERT JUMPDEST DUP1 PUSH4 0x9C5EABE EQ PUSH2 0x22C JUMPI DUP1 PUSH4 0x146E2D78 EQ PUSH2 0x241 JUMPI DUP1 PUSH4 0x1876EED9 EQ PUSH2 0x254 JUMPI DUP1 PUSH4 0x1C92115F EQ PUSH2 0x27C JUMPI JUMPDEST PUSH1 0x0 DUP1 REVERT JUMPDEST PUSH2 0x23F PUSH2 0x23A CALLDATASIZE PUSH1 0x4 PUSH2 0x27E8 JUMP JUMPDEST PUSH2 0x56E JUMP JUMPDEST STOP JUMPDEST PUSH2 0x23F PUSH2 0x24F CALLDATASIZE PUSH1 0x4 PUSH2 0x2829 JUMP JUMPDEST PUSH2 0x9A3 JUMP JUMPDEST PUSH2 0x267 PUSH2 0x262 CALLDATASIZE PUSH1 0x4 PUSH2 0x2874 JUMP JUMPDEST PUSH2 0x9CC JUMP JUMPDEST PUSH1 0x40 MLOAD SWAP1 ISZERO ISZERO DUP2 MSTORE PUSH1 0x20 ADD JUMPDEST PUSH1 0x40 MLOAD DUP1 SWAP2 SUB SWAP1 RETURN JUMPDEST PUSH2 0x23F PUSH2 0x28A CALLDATASIZE PUSH1 0x4 PUSH2 0x2928 JUMP JUMPDEST PUSH2 0xB20 JUMP JUMPDEST PUSH2 0x2A2 PUSH2 0x29D CALLDATASIZE PUSH1 0x4 PUSH2 0x29C1 JUMP JUMPDEST PUSH2 0xB8B JUMP JUMPDEST PUSH1 0x40 MLOAD PUSH1 0x1 PUSH1 0x1 PUSH1 0xA0 SHL SUB SWAP1 SWAP2 AND DUP2 MSTORE PUSH1 0x20 ADD PUSH2 0x273 JUMP JUMPDEST PUSH2 0x2CD PUSH2 0x2C8 CALLDATASIZE PUSH1 0x4 PUSH2 0x2A9D JUMP JUMPDEST PUSH2 0xBA6 JUMP JUMPDEST PUSH1 0x40 MLOAD SWAP1 DUP2 MSTORE PUSH1 0x20 ADD PUSH2 0x273 JUMP JUMPDEST PUSH2 0x23F PUSH2 0x2E9 CALLDATASIZE PUSH1 0x4 PUSH2 0x2AD9 JUMP JUMPDEST PUSH2 0xBBA JUMP JUMPDEST PUSH2 0x2A2 PUSH32 0x0 DUP2 JUMP JUMPDEST PUSH2 0x23F PUSH2 0x323 CALLDATASIZE PUSH1 0x4 PUSH2 0x2B90 JUMP JUMPDEST PUSH2 0xC52 JUMP JUMPDEST PUSH2 0x23F PUSH2 0x336 CALLDATASIZE PUSH1 0x4 PUSH2 0x2829 JUMP JUMPDEST PUSH2 0xD03 JUMP JUMPDEST PUSH2 0x23F PUSH2 0x349 CALLDATASIZE PUSH1 0x4 PUSH2 0x2829 JUMP JUMPDEST PUSH2 0x10A7 JUMP JUMPDEST PUSH2 0x2A2 PUSH2 0x1135 JUMP JUMPDEST PUSH2 0x2A2 PUSH2 0x1153 JUMP JUMPDEST PUSH2 0x267 PUSH2 0x36C CALLDATASIZE PUSH1 0x4 PUSH2 0x2BAD JUMP JUMPDEST PUSH2 0x117E JUMP JUMPDEST PUSH2 0x2A2 PUSH32 0x0 DUP2 JUMP JUMPDEST PUSH2 0x23F PUSH2 0x3A6 CALLDATASIZE PUSH1 0x4 PUSH2 0x2C72 JUMP JUMPDEST PUSH2 0x1257 JUMP JUMPDEST PUSH2 0x267 PUSH2 0x3B9 CALLDATASIZE PUSH1 0x4 PUSH2 0x29C1 JUMP JUMPDEST PUSH1 0x0 SWAP1 DUP2 MSTORE PUSH1 0x4 PUSH1 0x20 MSTORE PUSH1 0x40 SWAP1 KECCAK256 SLOAD PUSH1 0xFF AND SWAP1 JUMP JUMPDEST PUSH2 0x267 PUSH2 0x3DC CALLDATASIZE PUSH1 0x4 PUSH2 0x2A9D JUMP JUMPDEST POP PUSH1 0x0 SWAP1 JUMP JUMPDEST PUSH32 0xAD2AE48B4D93C587CD1F0F8F269B84F57DBE98BBE5C61C4B6D324E6A667B3625 PUSH2 0x2CD JUMP JUMPDEST PUSH2 0x23F PUSH2 0x416 CALLDATASIZE PUSH1 0x4 PUSH2 0x2829 JUMP JUMPDEST PUSH2 0x13CC JUMP JUMPDEST PUSH2 0x2A2 PUSH2 0x429 CALLDATASIZE PUSH1 0x4 PUSH2 0x2A9D JUMP JUMPDEST PUSH2 0x1611 JUMP JUMPDEST PUSH2 0x23F PUSH2 0x43C CALLDATASIZE PUSH1 0x4 PUSH2 0x2829 JUMP JUMPDEST PUSH2 0x161F JUMP JUMPDEST PUSH2 0x454 PUSH2 0x44F CALLDATASIZE PUSH1 0x4 PUSH2 0x29C1 JUMP JUMPDEST PUSH2 0x16DD JUMP JUMPDEST PUSH1 0x40 MLOAD PUSH2 0x273 SWAP2 SWAP1 PUSH2 0x2D2D JUMP JUMPDEST PUSH2 0x23F PUSH2 0x46F CALLDATASIZE PUSH1 0x4 PUSH2 0x27E8 JUMP JUMPDEST PUSH2 0x177F JUMP JUMPDEST PUSH2 0x23F PUSH2 0x482 CALLDATASIZE PUSH1 0x4 PUSH2 0x2D40 JUMP JUMPDEST PUSH2 0x18CE JUMP JUMPDEST PUSH1 0x0 PUSH2 0x267 JUMP JUMPDEST PUSH2 0x23F PUSH2 0x49C CALLDATASIZE PUSH1 0x4 PUSH2 0x2D8F JUMP JUMPDEST PUSH2 0x1AF1 JUMP JUMPDEST PUSH2 0x267 PUSH2 0x4AF CALLDATASIZE PUSH1 0x4 PUSH2 0x2E5A JUMP JUMPDEST PUSH2 0x1BA7 JUMP JUMPDEST PUSH2 0x2CD PUSH2 0x4C2 CALLDATASIZE PUSH1 0x4 PUSH2 0x29C1 JUMP JUMPDEST PUSH1 0x0 SWAP1 DUP2 MSTORE PUSH1 0x20 DUP2 SWAP1 MSTORE PUSH1 0x40 SWAP1 KECCAK256 SLOAD SWAP1 JUMP JUMPDEST PUSH2 0x454 PUSH2 0x4E2 CALLDATASIZE PUSH1 0x4 PUSH2 0x29C1 JUMP JUMPDEST PUSH2 0x1C7A JUMP JUMPDEST PUSH2 0x2A2 PUSH2 0x1C97 JUMP JUMPDEST PUSH2 0x2CD PUSH2 0x4FD CALLDATASIZE PUSH1 0x4 PUSH2 0x2A9D JUMP JUMPDEST PUSH2 0x1CB0 JUMP JUMPDEST PUSH2 0x267 PUSH2 0x510 CALLDATASIZE PUSH1 0x4 PUSH2 0x29C1 JUMP JUMPDEST PUSH2 0x1CCA JUMP JUMPDEST PUSH2 0x23F PUSH2 0x523 CALLDATASIZE PUSH1 0x4 PUSH2 0x2B90 JUMP JUMPDEST PUSH2 0x1CD8 JUMP JUMPDEST PUSH2 0x2CD PUSH2 0x536 CALLDATASIZE PUSH1 0x4 PUSH2 0x29C1 JUMP JUMPDEST PUSH1 0x0 SWAP1 DUP2 MSTORE PUSH1 0x5 PUSH1 0x20 MSTORE PUSH1 0x40 SWAP1 KECCAK256 SLOAD SWAP1 JUMP JUMPDEST PUSH2 0x267 PUSH2 0x556 CALLDATASIZE PUSH1 0x4 PUSH2 0x2F27 JUMP JUMPDEST PUSH2 0x1D4F JUMP JUMPDEST PUSH2 0x23F PUSH2 0x569 CALLDATASIZE PUSH1 0x4 PUSH2 0x2829 JUMP JUMPDEST PUSH2 0x1DD8 JUMP JUMPDEST PUSH1 0x0 DUP1 PUSH2 0x57D DUP4 DUP6 ADD DUP6 PUSH2 0x2FBD JUMP JUMPDEST SWAP2 POP SWAP2 POP PUSH1 0x0 PUSH2 0x593 DUP4 DUP1 MLOAD SWAP1 PUSH1 0x20 ADD KECCAK256 PUSH2 0x1E58 JUMP JUMPDEST SWAP1 POP PUSH1 0x0 PUSH32 0x0 PUSH1 0x1 PUSH1 0x1 PUSH1 0xA0 SHL SUB AND PUSH4 0x73E3D66A DUP4 DUP6 PUSH1 0x40 MLOAD DUP4 PUSH4 0xFFFFFFFF AND PUSH1 0xE0 SHL DUP2 MSTORE PUSH1 0x4 ADD PUSH2 0x5E5 SWAP3 SWAP2 SWAP1 PUSH2 0x3020 JUMP JUMPDEST PUSH1 0x20 PUSH1 0x40 MLOAD DUP1 DUP4 SUB DUP2 PUSH1 0x0 DUP8 GAS CALL ISZERO DUP1 ISZERO PUSH2 0x604 JUMPI RETURNDATASIZE PUSH1 0x0 DUP1 RETURNDATACOPY RETURNDATASIZE PUSH1 0x0 REVERT JUMPDEST POP POP POP POP PUSH1 0x40 MLOAD RETURNDATASIZE PUSH1 0x1F NOT PUSH1 0x1F DUP3 ADD AND DUP3 ADD DUP1 PUSH1 0x40 MSTORE POP DUP2 ADD SWAP1 PUSH2 0x628 SWAP2 SWAP1 PUSH2 0x304E JUMP JUMPDEST SWAP1 POP PUSH1 0x0 PUSH1 0x60 DUP1 PUSH1 0x60 DUP8 DUP1 PUSH1 0x20 ADD SWAP1 MLOAD DUP2 ADD SWAP1 PUSH2 0x645 SWAP2 SWAP1 PUSH2 0x31EF JUMP JUMPDEST SWAP3 SWAP7 POP SWAP1 SWAP5 POP SWAP3 POP SWAP1 POP CHAINID DUP5 EQ PUSH2 0x66F JUMPI PUSH1 0x40 MLOAD PUSH4 0x3D23E4D1 PUSH1 0xE1 SHL DUP2 MSTORE PUSH1 0x4 ADD PUSH1 0x40 MLOAD DUP1 SWAP2 SUB SWAP1 REVERT JUMPDEST DUP3 MLOAD DUP3 MLOAD DUP2 EQ ISZERO DUP1 PUSH2 0x682 JUMPI POP DUP2 MLOAD DUP2 EQ ISZERO JUMPDEST ISZERO PUSH2 0x6A0 JUMPI PUSH1 0x40 MLOAD PUSH4 0xCA9A28F5 PUSH1 0xE0 SHL DUP2 MSTORE PUSH1 0x4 ADD PUSH1 0x40 MLOAD DUP1 SWAP2 SUB SWAP1 REVERT JUMPDEST PUSH1 0x0 JUMPDEST DUP2 DUP2 LT ISZERO PUSH2 0x995 JUMPI PUSH1 0x0 DUP6 DUP3 DUP2 MLOAD DUP2 LT PUSH2 0x6BF JUMPI PUSH2 0x6BF PUSH2 0x32D8 JUMP JUMPDEST PUSH1 0x20 MUL PUSH1 0x20 ADD ADD MLOAD SWAP1 POP PUSH2 0x6D2 DUP2 PUSH2 0x1CCA JUMP JUMPDEST ISZERO PUSH2 0x6DD JUMPI POP PUSH2 0x98D JUMP JUMPDEST PUSH1 0x0 DUP1 DUP7 DUP5 DUP2 MLOAD DUP2 LT PUSH2 0x6F2 JUMPI PUSH2 0x6F2 PUSH2 0x32D8 JUMP JUMPDEST PUSH1 0x20 MUL PUSH1 0x20 ADD ADD MLOAD PUSH1 0x40 MLOAD PUSH1 0x20 ADD PUSH2 0x70A SWAP2 SWAP1 PUSH2 0x32EE JUMP JUMPDEST PUSH1 0x40 MLOAD PUSH1 0x20 DUP2 DUP4 SUB SUB DUP2 MSTORE SWAP1 PUSH1 0x40 MSTORE DUP1 MLOAD SWAP1 PUSH1 0x20 ADD KECCAK256 SWAP1 POP PUSH32 0x5763814B98A3AA86F212797AF3273868B5DD6E2A532D764A79B98CA859E7BBAD DUP2 SUB PUSH2 0x758 JUMPI PUSH4 0x886A625D PUSH1 0xE0 SHL SWAP2 POP PUSH2 0x87F JUMP JUMPDEST PUSH32 0xEC78D9C22C08BB9F0ECD5D95571AE83E3F22219C5A9278C3270691D50ABFD91B DUP2 SUB PUSH2 0x78E JUMPI PUSH4 0x28DC5AF PUSH1 0xE3 SHL SWAP2 POP PUSH2 0x87F JUMP JUMPDEST PUSH32 0x37AC16AABC4D87540E53151B2B716265CFD6B195DB96A9DAF8E893C829BBD233 DUP2 SUB PUSH2 0x7C4 JUMPI PUSH4 0xFBE0A31B PUSH1 0xE0 SHL SWAP2 POP PUSH2 0x87F JUMP JUMPDEST PUSH32 0xF41504255B911B3042EE4F8786FDF7CF4BCF24ACE033FA16AF3C8574E025E436 DUP2 SUB PUSH2 0x7FA JUMPI PUSH4 0x1616A7F5 PUSH1 0xE2 SHL SWAP2 POP PUSH2 0x87F JUMP JUMPDEST PUSH32 0xDA199C0E76F665E0450020791C7F8EACC75F3CDBACE313272C28F93E5390B62C DUP2 SUB PUSH2 0x830 JUMPI PUSH4 0x232B5717 PUSH1 0xE1 SHL SWAP2 POP PUSH2 0x87F JUMP JUMPDEST PUSH32 0xB460DCB6FD5797FC0E7EA0F13406C80D30702BA7F73A42BD91394775DCBCA718 DUP2 SUB PUSH2 0x877 JUMPI DUP10 PUSH2 0x864 JUMPI POP POP POP PUSH2 0x98D JUMP JUMPDEST PUSH1 0x0 SWAP10 POP PUSH4 0x4BDC3DD3 PUSH1 0xE1 SHL SWAP2 POP PUSH2 0x87F JUMP JUMPDEST POP POP POP PUSH2 0x98D JUMP JUMPDEST PUSH2 0x88A DUP4 PUSH1 0x1 PUSH2 0x1EAC JUMP JUMPDEST PUSH1 0x0 ADDRESS PUSH1 0x1 PUSH1 0x1 PUSH1 0xA0 SHL SUB AND DUP4 DUP9 DUP8 DUP2 MLOAD DUP2 LT PUSH2 0x8A9 JUMPI PUSH2 0x8A9 PUSH2 0x32D8 JUMP JUMPDEST PUSH1 0x20 MUL PUSH1 0x20 ADD ADD MLOAD DUP7 PUSH1 0x40 MLOAD PUSH1 0x24 ADD PUSH2 0x8C3 SWAP3 SWAP2 SWAP1 PUSH2 0x330A JUMP JUMPDEST PUSH1 0x40 DUP1 MLOAD PUSH1 0x1F NOT DUP2 DUP5 SUB ADD DUP2 MSTORE SWAP2 DUP2 MSTORE PUSH1 0x20 DUP3 ADD DUP1 MLOAD PUSH1 0x1 PUSH1 0x1 PUSH1 0xE0 SHL SUB AND PUSH1 0x1 PUSH1 0x1 PUSH1 0xE0 SHL SUB NOT SWAP1 SWAP5 AND SWAP4 SWAP1 SWAP4 OR SWAP1 SWAP3 MSTORE SWAP1 MLOAD PUSH2 0x901 SWAP2 SWAP1 PUSH2 0x32EE JUMP JUMPDEST PUSH1 0x0 PUSH1 0x40 MLOAD DUP1 DUP4 SUB DUP2 PUSH1 0x0 DUP7 GAS CALL SWAP2 POP POP RETURNDATASIZE DUP1 PUSH1 0x0 DUP2 EQ PUSH2 0x93E JUMPI PUSH1 0x40 MLOAD SWAP2 POP PUSH1 0x1F NOT PUSH1 0x3F RETURNDATASIZE ADD AND DUP3 ADD PUSH1 0x40 MSTORE RETURNDATASIZE DUP3 MSTORE RETURNDATASIZE PUSH1 0x0 PUSH1 0x20 DUP5 ADD RETURNDATACOPY PUSH2 0x943 JUMP JUMPDEST PUSH1 0x60 SWAP2 POP JUMPDEST POP POP SWAP1 POP DUP1 ISZERO PUSH2 0x97D JUMPI PUSH1 0x40 MLOAD DUP5 SWAP1 PUSH32 0xA74C8847D513FEBA22A0F0CB38D53081ABF97562CDB293926BA243689E7C41CA SWAP1 PUSH1 0x0 SWAP1 LOG2 PUSH2 0x988 JUMP JUMPDEST PUSH2 0x988 DUP5 PUSH1 0x0 PUSH2 0x1EAC JUMP JUMPDEST POP POP POP POP JUMPDEST PUSH1 0x1 ADD PUSH2 0x6A3 JUMP JUMPDEST POP POP POP POP POP POP POP POP POP POP POP POP JUMP JUMPDEST PUSH1 0x0 DUP1 DUP1 PUSH2 0x9B3 DUP6 DUP8 ADD DUP8 PUSH2 0x3337 JUMP JUMPDEST SWAP3 POP SWAP3 POP SWAP3 POP PUSH2 0x9C4 DUP4 DUP4 DUP4 PUSH2 0x1EC2 JUMP JUMPDEST POP POP POP POP POP POP JUMP JUMPDEST PUSH1 0x0 DUP1 PUSH2 0xA7D DUP12 DUP12 DUP12 DUP1 DUP1 PUSH1 0x1F ADD PUSH1 0x20 DUP1 SWAP2 DIV MUL PUSH1 0x20 ADD PUSH1 0x40 MLOAD SWAP1 DUP2 ADD PUSH1 0x40 MSTORE DUP1 SWAP4 SWAP3 SWAP2 SWAP1 DUP2 DUP2 MSTORE PUSH1 0x20 ADD DUP4 DUP4 DUP1 DUP3 DUP5 CALLDATACOPY PUSH1 0x0 SWAP3 ADD SWAP2 SWAP1 SWAP2 MSTORE POP POP PUSH1 0x40 DUP1 MLOAD PUSH1 0x20 PUSH1 0x1F DUP16 ADD DUP2 SWAP1 DIV DUP2 MUL DUP3 ADD DUP2 ADD SWAP1 SWAP3 MSTORE DUP14 DUP2 MSTORE SWAP3 POP DUP14 SWAP2 POP DUP13 SWAP1 DUP2 SWAP1 DUP5 ADD DUP4 DUP3 DUP1 DUP3 DUP5 CALLDATACOPY PUSH1 0x0 SWAP3 ADD SWAP2 SWAP1 SWAP2 MSTORE POP POP PUSH1 0x40 DUP1 MLOAD PUSH1 0x20 PUSH1 0x1F DUP14 ADD DUP2 SWAP1 DIV DUP2 MUL DUP3 ADD DUP2 ADD SWAP1 SWAP3 MSTORE DUP12 DUP2 MSTORE CALLER SWAP4 POP DUP14 SWAP3 POP SWAP1 DUP13 SWAP1 DUP13 SWAP1 DUP2 SWAP1 DUP5 ADD DUP4 DUP3 DUP1 DUP3 DUP5 CALLDATACOPY PUSH1 0x0 SWAP3 ADD SWAP2 SWAP1 SWAP2 MSTORE POP DUP13 SWAP3 POP PUSH2 0x1FB7 SWAP2 POP POP JUMP JUMPDEST PUSH1 0x0 DUP2 DUP2 MSTORE PUSH1 0x4 PUSH1 0x20 MSTORE PUSH1 0x40 SWAP1 KECCAK256 SLOAD PUSH1 0xFF AND SWAP3 POP SWAP1 POP DUP2 ISZERO PUSH2 0xB12 JUMPI PUSH2 0xAA4 DUP2 PUSH1 0x0 PUSH2 0x201B JUMP JUMPDEST PUSH1 0x40 MLOAD DUP12 SWAP1 PUSH32 0x91057B069763121972CE22B18B2F319B1520DD4C72F1F94A6395E81CEAF63F41 SWAP1 PUSH1 0x0 SWAP1 LOG2 PUSH2 0xB12 DUP6 DUP6 DUP1 DUP1 PUSH1 0x1F ADD PUSH1 0x20 DUP1 SWAP2 DIV MUL PUSH1 0x20 ADD PUSH1 0x40 MLOAD SWAP1 DUP2 ADD PUSH1 0x40 MSTORE DUP1 SWAP4 SWAP3 SWAP2 SWAP1 DUP2 DUP2 MSTORE PUSH1 0x20 ADD DUP4 DUP4 DUP1 DUP3 DUP5 CALLDATACOPY PUSH1 0x0 SWAP3 ADD SWAP2 SWAP1 SWAP2 MSTORE POP CALLER SWAP3 POP DUP8 SWAP2 POP PUSH2 0x1EC2 SWAP1 POP JUMP JUMPDEST POP SWAP10 SWAP9 POP POP POP POP POP POP POP POP POP JUMP JUMPDEST DUP2 DUP2 PUSH1 0x40 MLOAD PUSH2 0xB30 SWAP3 SWAP2 SWAP1 PUSH2 0x3390 JUMP JUMPDEST PUSH1 0x40 MLOAD DUP1 SWAP2 SUB SWAP1 KECCAK256 CALLER PUSH1 0x1 PUSH1 0x1 PUSH1 0xA0 SHL SUB AND PUSH32 0x30AE6CC78C27E651745BF2AD08A11DE83910AC1E347A52F7AC898C0FBEF94DAE DUP9 DUP9 DUP9 DUP9 DUP9 DUP9 PUSH1 0x40 MLOAD PUSH2 0xB7B SWAP7 SWAP6 SWAP5 SWAP4 SWAP3 SWAP2 SWAP1 PUSH2 0x33C9 JUMP JUMPDEST PUSH1 0x40 MLOAD DUP1 SWAP2 SUB SWAP1 LOG3 POP POP POP POP POP POP JUMP JUMPDEST PUSH1 0x0 SWAP1 DUP2 MSTORE PUSH1 0x2 PUSH1 0x20 MSTORE PUSH1 0x40 SWAP1 KECCAK256 SLOAD PUSH1 0x1 PUSH1 0x1 PUSH1 0xA0 SHL SUB AND SWAP1 JUMP JUMPDEST PUSH1 0x0 PUSH2 0xBB4 PUSH2 0x4C2 DUP4 PUSH2 0x203B JUMP JUMPDEST SWAP3 SWAP2 POP POP JUMP JUMPDEST PUSH2 0xBFC CALLER DUP5 DUP5 DUP1 DUP1 PUSH1 0x1F ADD PUSH1 0x20 DUP1 SWAP2 DIV MUL PUSH1 0x20 ADD PUSH1 0x40 MLOAD SWAP1 DUP2 ADD PUSH1 0x40 MSTORE DUP1 SWAP4 SWAP3 SWAP2 SWAP1 DUP2 DUP2 MSTORE PUSH1 0x20 ADD DUP4 DUP4 DUP1 DUP3 DUP5 CALLDATACOPY PUSH1 0x0 SWAP3 ADD SWAP2 SWAP1 SWAP2 MSTORE POP DUP7 SWAP3 POP PUSH2 0x2070 SWAP2 POP POP JUMP JUMPDEST CALLER PUSH1 0x1 PUSH1 0x1 PUSH1 0xA0 SHL SUB AND PUSH32 0x651D93F66C4329630E8D0F62488EFF599E3BE484DA587335E8DC0FCF46062726 DUP9 DUP9 DUP9 DUP9 DUP9 DUP9 DUP9 PUSH1 0x40 MLOAD PUSH2 0xC41 SWAP8 SWAP7 SWAP6 SWAP5 SWAP4 SWAP3 SWAP2 SWAP1 PUSH2 0x3412 JUMP JUMPDEST PUSH1 0x40 MLOAD DUP1 SWAP2 SUB SWAP1 LOG2 POP POP POP POP POP POP POP JUMP JUMPDEST PUSH2 0xC69 PUSH1 0x0 DUP1 MLOAD PUSH1 0x20 PUSH2 0x3E17 DUP4 CODECOPY DUP2 MLOAD SWAP2 MSTORE PUSH2 0xB8B JUMP JUMPDEST PUSH1 0x1 PUSH1 0x1 PUSH1 0xA0 SHL SUB AND CALLER PUSH1 0x1 PUSH1 0x1 PUSH1 0xA0 SHL SUB AND EQ ISZERO DUP1 ISZERO PUSH2 0xCB2 JUMPI POP PUSH2 0xC9C PUSH1 0x0 DUP1 MLOAD PUSH1 0x20 PUSH2 0x3DF7 DUP4 CODECOPY DUP2 MLOAD SWAP2 MSTORE PUSH2 0xB8B JUMP JUMPDEST PUSH1 0x1 PUSH1 0x1 PUSH1 0xA0 SHL SUB AND CALLER PUSH1 0x1 PUSH1 0x1 PUSH1 0xA0 SHL SUB AND EQ ISZERO JUMPDEST ISZERO PUSH2 0xCD0 JUMPI PUSH1 0x40 MLOAD PUSH4 0x223AA83D PUSH1 0xE1 SHL DUP2 MSTORE PUSH1 0x4 ADD PUSH1 0x40 MLOAD DUP1 SWAP2 SUB SWAP1 REVERT JUMPDEST PUSH1 0x1 PUSH1 0x1 PUSH1 0xA0 SHL SUB DUP2 AND PUSH2 0xCF7 JUMPI PUSH1 0x40 MLOAD PUSH4 0x35E75DCB PUSH1 0xE2 SHL DUP2 MSTORE PUSH1 0x4 ADD PUSH1 0x40 MLOAD DUP1 SWAP2 SUB SWAP1 REVERT JUMPDEST PUSH2 0xD00 DUP2 PUSH2 0x2222 JUMP JUMPDEST POP JUMP JUMPDEST PUSH1 0x0 DUP1 PUSH2 0xD12 DUP5 DUP7 ADD DUP7 PUSH2 0x3463 JUMP JUMPDEST SWAP2 POP SWAP2 POP PUSH1 0x0 PUSH2 0xD21 DUP4 PUSH2 0x1611 JUMP JUMPDEST SWAP1 POP PUSH1 0x1 PUSH1 0x1 PUSH1 0xA0 SHL SUB DUP2 AND PUSH2 0xD55 JUMPI DUP3 PUSH1 0x40 MLOAD PUSH4 0x395D09BF PUSH1 0xE1 SHL DUP2 MSTORE PUSH1 0x4 ADD PUSH2 0xD4C SWAP2 SWAP1 PUSH2 0x2D2D JUMP JUMPDEST PUSH1 0x40 MLOAD DUP1 SWAP2 SUB SWAP1 REVERT JUMPDEST PUSH1 0x2 PUSH2 0xD60 DUP5 PUSH2 0x2290 JUMP JUMPDEST PUSH1 0x2 DUP2 GT ISZERO PUSH2 0xD71 JUMPI PUSH2 0xD71 PUSH2 0x34A7 JUMP JUMPDEST SUB PUSH2 0x1045 JUMPI PUSH1 0x0 PUSH2 0xE15 DUP4 PUSH1 0x40 MLOAD DUP1 PUSH1 0x20 ADD PUSH2 0xD8C SWAP1 PUSH2 0x2793 JUMP JUMPDEST PUSH1 0x1F NOT DUP3 DUP3 SUB DUP2 ADD DUP4 MSTORE PUSH1 0x1F SWAP1 SWAP2 ADD AND PUSH1 0x40 DUP2 SWAP1 MSTORE PUSH2 0xDAE SWAP2 SWAP1 PUSH1 0x20 ADD PUSH2 0x32EE JUMP JUMPDEST PUSH1 0x40 DUP1 MLOAD PUSH1 0x1F NOT DUP2 DUP5 SUB ADD DUP2 MSTORE DUP3 DUP3 MSTORE DUP1 MLOAD PUSH1 0x20 SWAP2 DUP3 ADD KECCAK256 PUSH1 0x1 PUSH1 0x1 PUSH1 0xF8 SHL SUB NOT DUP5 DUP4 ADD MSTORE PUSH12 0xFFFFFFFFFFFFFFFFFFFFFFFF NOT ADDRESS PUSH1 0x60 SHL AND PUSH1 0x21 DUP6 ADD MSTORE PUSH1 0x35 DUP5 ADD SWAP5 SWAP1 SWAP5 MSTORE PUSH1 0x55 DUP1 DUP5 ADD SWAP5 SWAP1 SWAP5 MSTORE DUP2 MLOAD DUP1 DUP5 SUB SWAP1 SWAP5 ADD DUP5 MSTORE PUSH1 0x75 SWAP1 SWAP3 ADD SWAP1 MSTORE DUP2 MLOAD SWAP2 ADD KECCAK256 SWAP1 JUMP JUMPDEST SWAP1 POP PUSH2 0xE29 DUP2 PUSH1 0x1 PUSH1 0x1 PUSH1 0xA0 SHL SUB AND PUSH2 0x22AF JUMP JUMPDEST ISZERO PUSH2 0xE37 JUMPI POP POP POP POP POP POP POP JUMP JUMPDEST PUSH1 0x0 DUP4 PUSH1 0x40 MLOAD PUSH2 0xE46 SWAP1 PUSH2 0x2793 JUMP JUMPDEST DUP2 SWAP1 PUSH1 0x40 MLOAD DUP1 SWAP2 SUB SWAP1 PUSH1 0x0 CREATE2 SWAP1 POP DUP1 ISZERO DUP1 ISZERO PUSH2 0xE66 JUMPI RETURNDATASIZE PUSH1 0x0 DUP1 RETURNDATACOPY RETURNDATASIZE PUSH1 0x0 REVERT JUMPDEST POP PUSH1 0x40 MLOAD PUSH4 0x70A08231 PUSH1 0xE0 SHL DUP2 MSTORE PUSH1 0x1 PUSH1 0x1 PUSH1 0xA0 SHL SUB DUP1 DUP4 AND PUSH1 0x4 DUP4 ADD DUP2 SWAP1 MSTORE SWAP3 SWAP4 POP PUSH1 0x0 SWAP3 DUP4 SWAP3 SWAP1 SWAP2 PUSH4 0x1CFF79CD SWAP2 DUP9 SWAP2 PUSH4 0xA9059CBB PUSH1 0xE0 SHL SWAP2 ADDRESS SWAP2 DUP5 AND SWAP1 PUSH4 0x70A08231 SWAP1 PUSH1 0x24 ADD PUSH1 0x20 PUSH1 0x40 MLOAD DUP1 DUP4 SUB DUP2 DUP7 GAS STATICCALL ISZERO DUP1 ISZERO PUSH2 0xECC JUMPI RETURNDATASIZE PUSH1 0x0 DUP1 RETURNDATACOPY RETURNDATASIZE PUSH1 0x0 REVERT JUMPDEST POP POP POP POP PUSH1 0x40 MLOAD RETURNDATASIZE PUSH1 0x1F NOT PUSH1 0x1F DUP3 ADD AND DUP3 ADD DUP1 PUSH1 0x40 MSTORE POP DUP2 ADD SWAP1 PUSH2 0xEF0 SWAP2 SWAP1 PUSH2 0x34BD JUMP JUMPDEST PUSH1 0x40 MLOAD PUSH1 0x1 PUSH1 0x1 PUSH1 0xA0 SHL SUB SWAP1 SWAP3 AND PUSH1 0x24 DUP4 ADD MSTORE PUSH1 0x44 DUP3 ADD MSTORE PUSH1 0x64 ADD PUSH1 0x40 DUP1 MLOAD PUSH1 0x1F NOT DUP2 DUP5 SUB ADD DUP2 MSTORE SWAP2 DUP2 MSTORE PUSH1 0x20 DUP3 ADD DUP1 MLOAD PUSH1 0x1 PUSH1 0x1 PUSH1 0xE0 SHL SUB AND PUSH1 0x1 PUSH1 0x1 PUSH1 0xE0 SHL SUB NOT SWAP5 DUP6 AND OR SWAP1 MSTORE MLOAD PUSH1 0xE0 DUP6 SWAP1 SHL SWAP1 SWAP3 AND DUP3 MSTORE PUSH2 0xF51 SWAP3 SWAP2 PUSH1 0x4 ADD PUSH2 0x34D6 JUMP JUMPDEST PUSH1 0x0 PUSH1 0x40 MLOAD DUP1 DUP4 SUB DUP2 PUSH1 0x0 DUP8 GAS CALL ISZERO DUP1 ISZERO PUSH2 0xF70 JUMPI RETURNDATASIZE PUSH1 0x0 DUP1 RETURNDATACOPY RETURNDATASIZE PUSH1 0x0 REVERT JUMPDEST POP POP POP POP PUSH1 0x40 MLOAD RETURNDATASIZE PUSH1 0x0 DUP3 RETURNDATACOPY PUSH1 0x1F RETURNDATASIZE SWAP1 DUP2 ADD PUSH1 0x1F NOT AND DUP3 ADD PUSH1 0x40 MSTORE PUSH2 0xF98 SWAP2 SWAP1 DUP2 ADD SWAP1 PUSH2 0x34FA JUMP JUMPDEST SWAP2 POP SWAP2 POP DUP2 ISZERO DUP1 PUSH2 0xFC5 JUMPI POP DUP1 MLOAD ISZERO DUP1 ISZERO SWAP1 PUSH2 0xFC5 JUMPI POP DUP1 DUP1 PUSH1 0x20 ADD SWAP1 MLOAD DUP2 ADD SWAP1 PUSH2 0xFC3 SWAP2 SWAP1 PUSH2 0x304E JUMP JUMPDEST ISZERO JUMPDEST ISZERO PUSH2 0xFE5 JUMPI DUP7 PUSH1 0x40 MLOAD PUSH4 0xE217B0AD PUSH1 0xE0 SHL DUP2 MSTORE PUSH1 0x4 ADD PUSH2 0xD4C SWAP2 SWAP1 PUSH2 0x2D2D JUMP JUMPDEST PUSH1 0x40 MLOAD PUSH3 0xF55D9D PUSH1 0xE0 SHL DUP2 MSTORE ADDRESS PUSH1 0x4 DUP3 ADD MSTORE PUSH1 0x1 PUSH1 0x1 PUSH1 0xA0 SHL SUB DUP5 AND SWAP1 PUSH3 0xF55D9D SWAP1 PUSH1 0x24 ADD PUSH1 0x0 PUSH1 0x40 MLOAD DUP1 DUP4 SUB DUP2 PUSH1 0x0 DUP8 DUP1 EXTCODESIZE ISZERO DUP1 ISZERO PUSH2 0x1024 JUMPI PUSH1 0x0 DUP1 REVERT JUMPDEST POP GAS CALL ISZERO DUP1 ISZERO PUSH2 0x1038 JUMPI RETURNDATASIZE PUSH1 0x0 DUP1 RETURNDATACOPY RETURNDATASIZE PUSH1 0x0 REVERT JUMPDEST POP POP POP POP POP POP POP POP PUSH2 0x9C4 JUMP JUMPDEST PUSH1 0x40 MLOAD PUSH4 0x8A1EEE1 PUSH1 0xE0 SHL DUP2 MSTORE PUSH1 0x4 DUP2 ADD DUP4 SWAP1 MSTORE PUSH1 0x1 PUSH1 0x1 PUSH1 0xA0 SHL SUB DUP3 AND SWAP1 PUSH4 0x8A1EEE1 SWAP1 PUSH1 0x24 ADD PUSH1 0x0 PUSH1 0x40 MLOAD DUP1 DUP4 SUB DUP2 PUSH1 0x0 DUP8 DUP1 EXTCODESIZE ISZERO DUP1 ISZERO PUSH2 0x1087 JUMPI PUSH1 0x0 DUP1 REVERT JUMPDEST POP GAS CALL ISZERO DUP1 ISZERO PUSH2 0x109B JUMPI RETURNDATASIZE PUSH1 0x0 DUP1 RETURNDATACOPY RETURNDATASIZE PUSH1 0x0 REVERT JUMPDEST POP POP POP POP POP POP POP POP POP POP JUMP JUMPDEST PUSH1 0x0 DUP1 DUP1 DUP1 DUP1 DUP1 DUP1 DUP1 PUSH2 0x10BC DUP11 DUP13 ADD DUP13 PUSH2 0x353D JUMP JUMPDEST SWAP8 POP SWAP8 POP SWAP8 POP SWAP8 POP SWAP8 POP SWAP8 POP SWAP8 POP SWAP8 POP PUSH2 0x10DB DUP10 DUP10 DUP10 DUP10 DUP10 DUP10 DUP10 PUSH2 0x22F2 JUMP JUMPDEST DUP5 DUP7 PUSH1 0x1 PUSH1 0x1 PUSH1 0xA0 SHL SUB AND DUP11 PUSH32 0x9991FAA1F435675159FFAE64B66D7ECFDB55C29755869A18DB8497B4392347E0 DUP12 DUP12 DUP10 DUP10 DUP10 DUP10 PUSH1 0x40 MLOAD PUSH2 0x1120 SWAP7 SWAP6 SWAP5 SWAP4 SWAP3 SWAP2 SWAP1 PUSH2 0x35FA JUMP JUMPDEST PUSH1 0x40 MLOAD DUP1 SWAP2 SUB SWAP1 LOG4 POP POP POP POP POP POP POP POP POP POP POP JUMP JUMPDEST PUSH1 0x0 PUSH2 0x114E PUSH1 0x0 DUP1 MLOAD PUSH1 0x20 PUSH2 0x3DF7 DUP4 CODECOPY DUP2 MLOAD SWAP2 MSTORE PUSH2 0xB8B JUMP JUMPDEST SWAP1 POP SWAP1 JUMP JUMPDEST PUSH1 0x0 PUSH2 0x114E PUSH32 0x360894A13BA1A3210667C828492DB98DCA3E2076CC3735A920A3CA505D382BBC PUSH2 0xB8B JUMP JUMPDEST PUSH1 0x0 DUP1 PUSH2 0x11F9 DUP9 DUP9 DUP9 DUP1 DUP1 PUSH1 0x1F ADD PUSH1 0x20 DUP1 SWAP2 DIV MUL PUSH1 0x20 ADD PUSH1 0x40 MLOAD SWAP1 DUP2 ADD PUSH1 0x40 MSTORE DUP1 SWAP4 SWAP3 SWAP2 SWAP1 DUP2 DUP2 MSTORE PUSH1 0x20 ADD DUP4 DUP4 DUP1 DUP3 DUP5 CALLDATACOPY PUSH1 0x0 SWAP3 ADD SWAP2 SWAP1 SWAP2 MSTORE POP POP PUSH1 0x40 DUP1 MLOAD PUSH1 0x20 PUSH1 0x1F DUP13 ADD DUP2 SWAP1 DIV DUP2 MUL DUP3 ADD DUP2 ADD SWAP1 SWAP3 MSTORE DUP11 DUP2 MSTORE SWAP3 POP DUP11 SWAP2 POP DUP10 SWAP1 DUP2 SWAP1 DUP5 ADD DUP4 DUP3 DUP1 DUP3 DUP5 CALLDATACOPY PUSH1 0x0 SWAP3 ADD SWAP2 SWAP1 SWAP2 MSTORE POP CALLER SWAP3 POP DUP10 SWAP2 POP PUSH2 0x230B SWAP1 POP JUMP JUMPDEST PUSH1 0x0 DUP2 DUP2 MSTORE PUSH1 0x4 PUSH1 0x20 MSTORE PUSH1 0x40 SWAP1 KECCAK256 SLOAD PUSH1 0xFF AND SWAP3 POP SWAP1 POP DUP2 ISZERO PUSH2 0x124C JUMPI PUSH2 0x1220 DUP2 PUSH1 0x0 PUSH2 0x201B JUMP JUMPDEST PUSH1 0x40 MLOAD DUP9 SWAP1 PUSH32 0x91057B069763121972CE22B18B2F319B1520DD4C72F1F94A6395E81CEAF63F41 SWAP1 PUSH1 0x0 SWAP1 LOG2 JUMPDEST POP SWAP7 SWAP6 POP POP POP POP POP POP JUMP JUMPDEST PUSH2 0x126E PUSH1 0x0 DUP1 MLOAD PUSH1 0x20 PUSH2 0x3E17 DUP4 CODECOPY DUP2 MLOAD SWAP2 MSTORE PUSH2 0xB8B JUMP JUMPDEST PUSH1 0x1 PUSH1 0x1 PUSH1 0xA0 SHL SUB AND CALLER PUSH1 0x1 PUSH1 0x1 PUSH1 0xA0 SHL SUB AND EQ ISZERO DUP1 ISZERO PUSH2 0x12B7 JUMPI POP PUSH2 0x12A1 PUSH1 0x0 DUP1 MLOAD PUSH1 0x20 PUSH2 0x3DF7 DUP4 CODECOPY DUP2 MLOAD SWAP2 MSTORE PUSH2 0xB8B JUMP JUMPDEST PUSH1 0x1 PUSH1 0x1 PUSH1 0xA0 SHL SUB AND CALLER PUSH1 0x1 PUSH1 0x1 PUSH1 0xA0 SHL SUB AND EQ ISZERO JUMPDEST ISZERO PUSH2 0x12D5 JUMPI PUSH1 0x40 MLOAD PUSH4 0x223AA83D PUSH1 0xE1 SHL DUP2 MSTORE PUSH1 0x4 ADD PUSH1 0x40 MLOAD DUP1 SWAP2 SUB SWAP1 REVERT JUMPDEST DUP3 DUP2 DUP2 EQ PUSH2 0x12F6 JUMPI PUSH1 0x40 MLOAD PUSH4 0x14A2275F PUSH1 0xE0 SHL DUP2 MSTORE PUSH1 0x4 ADD PUSH1 0x40 MLOAD DUP1 SWAP2 SUB SWAP1 REVERT JUMPDEST PUSH1 0x0 JUMPDEST DUP2 DUP2 LT ISZERO PUSH2 0x9C4 JUMPI PUSH1 0x0 DUP7 DUP7 DUP4 DUP2 DUP2 LT PUSH2 0x1315 JUMPI PUSH2 0x1315 PUSH2 0x32D8 JUMP JUMPDEST SWAP1 POP PUSH1 0x20 MUL DUP2 ADD SWAP1 PUSH2 0x1327 SWAP2 SWAP1 PUSH2 0x3652 JUMP JUMPDEST DUP1 DUP1 PUSH1 0x1F ADD PUSH1 0x20 DUP1 SWAP2 DIV MUL PUSH1 0x20 ADD PUSH1 0x40 MLOAD SWAP1 DUP2 ADD PUSH1 0x40 MSTORE DUP1 SWAP4 SWAP3 SWAP2 SWAP1 DUP2 DUP2 MSTORE PUSH1 0x20 ADD DUP4 DUP4 DUP1 DUP3 DUP5 CALLDATACOPY PUSH1 0x0 SWAP3 ADD DUP3 SWAP1 MSTORE POP SWAP4 SWAP5 POP DUP9 SWAP3 POP DUP8 SWAP2 POP DUP6 SWAP1 POP DUP2 DUP2 LT PUSH2 0x1372 JUMPI PUSH2 0x1372 PUSH2 0x32D8 JUMP JUMPDEST SWAP1 POP PUSH1 0x20 MUL ADD CALLDATALOAD SWAP1 POP PUSH1 0x0 PUSH1 0x1 PUSH1 0x1 PUSH1 0xA0 SHL SUB AND PUSH2 0x138F DUP4 PUSH2 0x1611 JUMP JUMPDEST PUSH1 0x1 PUSH1 0x1 PUSH1 0xA0 SHL SUB AND SUB PUSH2 0x13B8 JUMPI DUP2 PUSH1 0x40 MLOAD PUSH4 0x395D09BF PUSH1 0xE1 SHL DUP2 MSTORE PUSH1 0x4 ADD PUSH2 0xD4C SWAP2 SWAP1 PUSH2 0x2D2D JUMP JUMPDEST PUSH2 0x13C2 DUP3 DUP3 PUSH2 0x2369 JUMP JUMPDEST POP POP PUSH1 0x1 ADD PUSH2 0x12F9 JUMP JUMPDEST PUSH1 0x0 DUP1 DUP1 DUP1 DUP1 DUP1 PUSH2 0x13DF DUP9 DUP11 ADD DUP11 PUSH2 0x3698 JUMP JUMPDEST SWAP6 POP SWAP6 POP SWAP6 POP SWAP6 POP SWAP6 POP SWAP6 POP PUSH1 0x0 PUSH1 0x1 PUSH1 0x1 PUSH1 0xA0 SHL SUB AND PUSH2 0x13FF DUP7 PUSH2 0x1611 JUMP JUMPDEST PUSH1 0x1 PUSH1 0x1 PUSH1 0xA0 SHL SUB AND EQ PUSH2 0x1428 JUMPI DUP5 PUSH1 0x40 MLOAD PUSH4 0x553F4599 PUSH1 0xE1 SHL DUP2 MSTORE PUSH1 0x4 ADD PUSH2 0xD4C SWAP2 SWAP1 PUSH2 0x2D2D JUMP JUMPDEST PUSH2 0x1432 DUP6 DUP3 PUSH2 0x2369 JUMP JUMPDEST PUSH1 0x1 PUSH1 0x1 PUSH1 0xA0 SHL SUB DUP3 AND PUSH2 0x1585 JUMPI PUSH1 0x0 DUP6 PUSH1 0x40 MLOAD PUSH1 0x20 ADD PUSH2 0x1453 SWAP2 SWAP1 PUSH2 0x32EE JUMP JUMPDEST PUSH1 0x40 MLOAD PUSH1 0x20 DUP2 DUP4 SUB SUB DUP2 MSTORE SWAP1 PUSH1 0x40 MSTORE DUP1 MLOAD SWAP1 PUSH1 0x20 ADD KECCAK256 SWAP1 POP PUSH2 0x1476 DUP7 PUSH1 0x1 PUSH2 0x23C1 JUMP JUMPDEST PUSH1 0x0 DUP1 PUSH32 0x0 PUSH1 0x1 PUSH1 0x1 PUSH1 0xA0 SHL SUB AND PUSH4 0x6FC95B34 PUSH1 0xE0 SHL DUP11 DUP11 DUP11 DUP11 DUP9 PUSH1 0x40 MLOAD PUSH1 0x24 ADD PUSH2 0x14C4 SWAP6 SWAP5 SWAP4 SWAP3 SWAP2 SWAP1 PUSH2 0x373A JUMP JUMPDEST PUSH1 0x40 DUP1 MLOAD PUSH1 0x1F NOT DUP2 DUP5 SUB ADD DUP2 MSTORE SWAP2 DUP2 MSTORE PUSH1 0x20 DUP3 ADD DUP1 MLOAD PUSH1 0x1 PUSH1 0x1 PUSH1 0xE0 SHL SUB AND PUSH1 0x1 PUSH1 0x1 PUSH1 0xE0 SHL SUB NOT SWAP1 SWAP5 AND SWAP4 SWAP1 SWAP4 OR SWAP1 SWAP3 MSTORE SWAP1 MLOAD PUSH2 0x1502 SWAP2 SWAP1 PUSH2 0x32EE JUMP JUMPDEST PUSH1 0x0 PUSH1 0x40 MLOAD DUP1 DUP4 SUB DUP2 DUP6 GAS DELEGATECALL SWAP2 POP POP RETURNDATASIZE DUP1 PUSH1 0x0 DUP2 EQ PUSH2 0x153D JUMPI PUSH1 0x40 MLOAD SWAP2 POP PUSH1 0x1F NOT PUSH1 0x3F RETURNDATASIZE ADD AND DUP3 ADD PUSH1 0x40 MSTORE RETURNDATASIZE DUP3 MSTORE RETURNDATASIZE PUSH1 0x0 PUSH1 0x20 DUP5 ADD RETURNDATACOPY PUSH2 0x1542 JUMP JUMPDEST PUSH1 0x60 SWAP2 POP JUMPDEST POP SWAP2 POP SWAP2 POP DUP2 PUSH2 0x1567 JUMPI DUP8 PUSH1 0x40 MLOAD PUSH4 0x86D52743 PUSH1 0xE0 SHL DUP2 MSTORE PUSH1 0x4 ADD PUSH2 0xD4C SWAP2 SWAP1 PUSH2 0x2D2D JUMP JUMPDEST DUP1 DUP1 PUSH1 0x20 ADD SWAP1 MLOAD DUP2 ADD SWAP1 PUSH2 0x157B SWAP2 SWAP1 PUSH2 0x3780 JUMP JUMPDEST SWAP5 POP POP POP POP PUSH2 0x15C3 JUMP JUMPDEST PUSH1 0x1 PUSH1 0x1 PUSH1 0xA0 SHL SUB DUP3 AND EXTCODESIZE PUSH2 0x15B8 JUMPI PUSH1 0x40 MLOAD PUSH4 0x62E66EEF PUSH1 0xE1 SHL DUP2 MSTORE PUSH1 0x1 PUSH1 0x1 PUSH1 0xA0 SHL SUB DUP4 AND PUSH1 0x4 DUP3 ADD MSTORE PUSH1 0x24 ADD PUSH2 0xD4C JUMP JUMPDEST PUSH2 0x15C3 DUP6 PUSH1 0x2 PUSH2 0x23C1 JUMP JUMPDEST PUSH32 0xBF90B5A1EC9763E8BF4B9245CEF0C28DB92BAB309FC2C5177F17814F38246938 DUP6 DUP4 PUSH1 0x40 MLOAD PUSH2 0x15F4 SWAP3 SWAP2 SWAP1 PUSH2 0x379D JUMP JUMPDEST PUSH1 0x40 MLOAD DUP1 SWAP2 SUB SWAP1 LOG1 PUSH2 0x1606 DUP6 DUP4 PUSH2 0x23F1 JUMP JUMPDEST POP POP POP POP POP POP POP POP POP JUMP JUMPDEST PUSH1 0x0 PUSH2 0xBB4 PUSH2 0x29D DUP4 PUSH2 0x2403 JUMP JUMPDEST PUSH32 0x192E759E55F359CD9832B5C0C6E38E4B6DF5C5CA33F3BD5C90738E865A521872 DUP4 DUP4 PUSH1 0x40 MLOAD PUSH2 0x1650 SWAP3 SWAP2 SWAP1 PUSH2 0x37C7 JUMP JUMPDEST PUSH1 0x40 MLOAD DUP1 SWAP2 SUB SWAP1 LOG1 PUSH1 0x40 MLOAD PUSH4 0xD289D1CB PUSH1 0xE0 SHL DUP2 MSTORE PUSH1 0x1 PUSH1 0x1 PUSH1 0xA0 SHL SUB PUSH32 0x0 AND SWAP1 PUSH4 0xD289D1CB SWAP1 PUSH2 0x16A6 SWAP1 DUP7 SWAP1 DUP7 SWAP1 PUSH1 0x4 ADD PUSH2 0x37C7 JUMP JUMPDEST PUSH1 0x0 PUSH1 0x40 MLOAD DUP1 DUP4 SUB DUP2 PUSH1 0x0 DUP8 DUP1 EXTCODESIZE ISZERO DUP1 ISZERO PUSH2 0x16C0 JUMPI PUSH1 0x0 DUP1 REVERT JUMPDEST POP GAS CALL ISZERO DUP1 ISZERO PUSH2 0x16D4 JUMPI RETURNDATASIZE PUSH1 0x0 DUP1 RETURNDATACOPY RETURNDATASIZE PUSH1 0x0 REVERT JUMPDEST POP POP POP POP POP POP POP JUMP JUMPDEST PUSH1 0x0 DUP2 DUP2 MSTORE PUSH1 0x1 PUSH1 0x20 MSTORE PUSH1 0x40 SWAP1 KECCAK256 DUP1 SLOAD PUSH1 0x60 SWAP2 SWAP1 PUSH2 0x16FA SWAP1 PUSH2 0x37DB JUMP JUMPDEST DUP1 PUSH1 0x1F ADD PUSH1 0x20 DUP1 SWAP2 DIV MUL PUSH1 0x20 ADD PUSH1 0x40 MLOAD SWAP1 DUP2 ADD PUSH1 0x40 MSTORE DUP1 SWAP3 SWAP2 SWAP1 DUP2 DUP2 MSTORE PUSH1 0x20 ADD DUP3 DUP1 SLOAD PUSH2 0x1726 SWAP1 PUSH2 0x37DB JUMP JUMPDEST DUP1 ISZERO PUSH2 0x1773 JUMPI DUP1 PUSH1 0x1F LT PUSH2 0x1748 JUMPI PUSH2 0x100 DUP1 DUP4 SLOAD DIV MUL DUP4 MSTORE SWAP2 PUSH1 0x20 ADD SWAP2 PUSH2 0x1773 JUMP JUMPDEST DUP3 ADD SWAP2 SWAP1 PUSH1 0x0 MSTORE PUSH1 0x20 PUSH1 0x0 KECCAK256 SWAP1 JUMPDEST DUP2 SLOAD DUP2 MSTORE SWAP1 PUSH1 0x1 ADD SWAP1 PUSH1 0x20 ADD DUP1 DUP4 GT PUSH2 0x1756 JUMPI DUP3 SWAP1 SUB PUSH1 0x1F AND DUP3 ADD SWAP2 JUMPDEST POP POP POP POP POP SWAP1 POP SWAP2 SWAP1 POP JUMP JUMPDEST ADDRESS PUSH32 0x0 PUSH1 0x1 PUSH1 0x1 PUSH1 0xA0 SHL SUB AND SUB PUSH2 0x17C8 JUMPI PUSH1 0x40 MLOAD PUSH4 0x5F886E9D PUSH1 0xE1 SHL DUP2 MSTORE PUSH1 0x4 ADD PUSH1 0x40 MLOAD DUP1 SWAP2 SUB SWAP1 REVERT JUMPDEST PUSH1 0x0 DUP1 DUP1 PUSH2 0x17D8 DUP5 DUP7 ADD DUP7 PUSH2 0x3815 JUMP JUMPDEST SWAP2 SWAP5 POP SWAP3 POP SWAP1 POP PUSH1 0x1 PUSH1 0x1 PUSH1 0xA0 SHL SUB DUP4 AND ISZERO PUSH2 0x17F7 JUMPI PUSH2 0x17F7 DUP4 PUSH2 0x2438 JUMP JUMPDEST PUSH1 0x1 PUSH1 0x1 PUSH1 0xA0 SHL SUB DUP3 AND ISZERO PUSH2 0x180F JUMPI PUSH2 0x180F DUP3 PUSH2 0x2222 JUMP JUMPDEST DUP1 MLOAD ISZERO PUSH2 0x18C7 JUMPI PUSH32 0x192E759E55F359CD9832B5C0C6E38E4B6DF5C5CA33F3BD5C90738E865A521872 DUP2 PUSH1 0x40 MLOAD PUSH2 0x1845 SWAP2 SWAP1 PUSH2 0x2D2D JUMP JUMPDEST PUSH1 0x40 MLOAD DUP1 SWAP2 SUB SWAP1 LOG1 PUSH1 0x40 MLOAD PUSH4 0xD289D1CB PUSH1 0xE0 SHL DUP2 MSTORE PUSH1 0x1 PUSH1 0x1 PUSH1 0xA0 SHL SUB PUSH32 0x0 AND SWAP1 PUSH4 0xD289D1CB SWAP1 PUSH2 0x1899 SWAP1 DUP5 SWAP1 PUSH1 0x4 ADD PUSH2 0x2D2D JUMP JUMPDEST PUSH1 0x0 PUSH1 0x40 MLOAD DUP1 DUP4 SUB DUP2 PUSH1 0x0 DUP8 DUP1 EXTCODESIZE ISZERO DUP1 ISZERO PUSH2 0x18B3 JUMPI PUSH1 0x0 DUP1 REVERT JUMPDEST POP GAS CALL ISZERO DUP1 ISZERO PUSH2 0x1606 JUMPI RETURNDATASIZE PUSH1 0x0 DUP1 RETURNDATACOPY RETURNDATASIZE PUSH1 0x0 REVERT JUMPDEST POP POP POP POP POP JUMP JUMPDEST PUSH2 0x18E5 PUSH1 0x0 DUP1 MLOAD PUSH1 0x20 PUSH2 0x3DF7 DUP4 CODECOPY DUP2 MLOAD SWAP2 MSTORE PUSH2 0xB8B JUMP JUMPDEST PUSH1 0x1 PUSH1 0x1 PUSH1 0xA0 SHL SUB AND CALLER PUSH1 0x1 PUSH1 0x1 PUSH1 0xA0 SHL SUB AND EQ PUSH2 0x1916 JUMPI PUSH1 0x40 MLOAD PUSH4 0x2D5BE4CB PUSH1 0xE2 SHL DUP2 MSTORE PUSH1 0x4 ADD PUSH1 0x40 MLOAD DUP1 SWAP2 SUB SWAP1 REVERT JUMPDEST DUP4 PUSH1 0x1 PUSH1 0x1 PUSH1 0xA0 SHL SUB AND EXTCODEHASH DUP4 EQ PUSH2 0x1940 JUMPI PUSH1 0x40 MLOAD PUSH4 0x23E13EC9 PUSH1 0xE2 SHL DUP2 MSTORE PUSH1 0x4 ADD PUSH1 0x40 MLOAD DUP1 SWAP2 SUB SWAP1 REVERT JUMPDEST DUP4 PUSH1 0x1 PUSH1 0x1 PUSH1 0xA0 SHL SUB AND PUSH4 0x8291286C PUSH1 0x40 MLOAD DUP2 PUSH4 0xFFFFFFFF AND PUSH1 0xE0 SHL DUP2 MSTORE PUSH1 0x4 ADD PUSH1 0x20 PUSH1 0x40 MLOAD DUP1 DUP4 SUB DUP2 DUP7 GAS STATICCALL ISZERO DUP1 ISZERO PUSH2 0x197E JUMPI RETURNDATASIZE PUSH1 0x0 DUP1 RETURNDATACOPY RETURNDATASIZE PUSH1 0x0 REVERT JUMPDEST POP POP POP POP PUSH1 0x40 MLOAD RETURNDATASIZE PUSH1 0x1F NOT PUSH1 0x1F DUP3 ADD AND DUP3 ADD DUP1 PUSH1 0x40 MSTORE POP DUP2 ADD SWAP1 PUSH2 0x19A2 SWAP2 SWAP1 PUSH2 0x34BD JUMP JUMPDEST PUSH32 0xAD2AE48B4D93C587CD1F0F8F269B84F57DBE98BBE5C61C4B6D324E6A667B3625 EQ PUSH2 0x19E1 JUMPI PUSH1 0x40 MLOAD PUSH4 0x340AAFCD PUSH1 0xE1 SHL DUP2 MSTORE PUSH1 0x4 ADD PUSH1 0x40 MLOAD DUP1 SWAP2 SUB SWAP1 REVERT JUMPDEST PUSH1 0x40 MLOAD PUSH1 0x1 PUSH1 0x1 PUSH1 0xA0 SHL SUB DUP6 AND SWAP1 PUSH32 0xBC7CD75A20EE27FD9ADEBAB32041F755214DBC6BFFA90CC0225B39DA2E5C2D3B SWAP1 PUSH1 0x0 SWAP1 LOG2 PUSH2 0x1A1E DUP5 PUSH2 0x24A6 JUMP JUMPDEST DUP1 ISZERO PUSH2 0x1AEB JUMPI PUSH1 0x0 DUP5 PUSH1 0x1 PUSH1 0x1 PUSH1 0xA0 SHL SUB AND PUSH4 0x9DED06DF PUSH1 0xE0 SHL DUP5 DUP5 PUSH1 0x40 MLOAD PUSH1 0x24 ADD PUSH2 0x1A4B SWAP3 SWAP2 SWAP1 PUSH2 0x37C7 JUMP JUMPDEST PUSH1 0x40 DUP1 MLOAD PUSH1 0x1F NOT DUP2 DUP5 SUB ADD DUP2 MSTORE SWAP2 DUP2 MSTORE PUSH1 0x20 DUP3 ADD DUP1 MLOAD PUSH1 0x1 PUSH1 0x1 PUSH1 0xE0 SHL SUB AND PUSH1 0x1 PUSH1 0x1 PUSH1 0xE0 SHL SUB NOT SWAP1 SWAP5 AND SWAP4 SWAP1 SWAP4 OR SWAP1 SWAP3 MSTORE SWAP1 MLOAD PUSH2 0x1A89 SWAP2 SWAP1 PUSH2 0x32EE JUMP JUMPDEST PUSH1 0x0 PUSH1 0x40 MLOAD DUP1 DUP4 SUB DUP2 DUP6 GAS DELEGATECALL SWAP2 POP POP RETURNDATASIZE DUP1 PUSH1 0x0 DUP2 EQ PUSH2 0x1AC4 JUMPI PUSH1 0x40 MLOAD SWAP2 POP PUSH1 0x1F NOT PUSH1 0x3F RETURNDATASIZE ADD AND DUP3 ADD PUSH1 0x40 MSTORE RETURNDATASIZE DUP3 MSTORE RETURNDATASIZE PUSH1 0x0 PUSH1 0x20 DUP5 ADD RETURNDATACOPY PUSH2 0x1AC9 JUMP JUMPDEST PUSH1 0x60 SWAP2 POP JUMPDEST POP POP SWAP1 POP DUP1 PUSH2 0x18C7 JUMPI PUSH1 0x40 MLOAD PUSH4 0x97905DFB PUSH1 0xE0 SHL DUP2 MSTORE PUSH1 0x4 ADD PUSH1 0x40 MLOAD DUP1 SWAP2 SUB SWAP1 REVERT JUMPDEST POP POP POP POP JUMP JUMPDEST PUSH2 0x1B33 CALLER DUP5 DUP5 DUP1 DUP1 PUSH1 0x1F ADD PUSH1 0x20 DUP1 SWAP2 DIV MUL PUSH1 0x20 ADD PUSH1 0x40 MLOAD SWAP1 DUP2 ADD PUSH1 0x40 MSTORE DUP1 SWAP4 SWAP3 SWAP2 SWAP1 DUP2 DUP2 MSTORE PUSH1 0x20 ADD DUP4 DUP4 DUP1 DUP3 DUP5 CALLDATACOPY PUSH1 0x0 SWAP3 ADD SWAP2 SWAP1 SWAP2 MSTORE POP DUP7 SWAP3 POP PUSH2 0x2070 SWAP2 POP POP JUMP JUMPDEST DUP5 DUP5 PUSH1 0x40 MLOAD PUSH2 0x1B43 SWAP3 SWAP2 SWAP1 PUSH2 0x3390 JUMP JUMPDEST PUSH1 0x40 MLOAD DUP1 SWAP2 SUB SWAP1 KECCAK256 CALLER PUSH1 0x1 PUSH1 0x1 PUSH1 0xA0 SHL SUB AND PUSH32 0x7E50569D26BE643BDA7757722291EC66B1BE66D8283474AE3FAB5A98F878A7A2 DUP12 DUP12 DUP12 DUP12 DUP12 DUP12 DUP12 DUP12 DUP12 PUSH1 0x40 MLOAD PUSH2 0x1B94 SWAP10 SWAP9 SWAP8 SWAP7 SWAP6 SWAP5 SWAP4 SWAP3 SWAP2 SWAP1 PUSH2 0x3876 JUMP JUMPDEST PUSH1 0x40 MLOAD DUP1 SWAP2 SUB SWAP1 LOG3 POP POP POP POP POP POP POP POP POP JUMP JUMPDEST PUSH1 0x0 PUSH2 0x1C6B PUSH2 0x3B9 DUP13 DUP13 DUP13 DUP1 DUP1 PUSH1 0x1F ADD PUSH1 0x20 DUP1 SWAP2 DIV MUL PUSH1 0x20 ADD PUSH1 0x40 MLOAD SWAP1 DUP2 ADD PUSH1 0x40 MSTORE DUP1 SWAP4 SWAP3 SWAP2 SWAP1 DUP2 DUP2 MSTORE PUSH1 0x20 ADD DUP4 DUP4 DUP1 DUP3 DUP5 CALLDATACOPY PUSH1 0x0 DUP2 DUP5 ADD MSTORE PUSH1 0x1F NOT PUSH1 0x1F DUP3 ADD AND SWAP1 POP DUP1 DUP4 ADD SWAP3 POP POP POP POP POP POP POP DUP12 DUP12 DUP1 DUP1 PUSH1 0x1F ADD PUSH1 0x20 DUP1 SWAP2 DIV MUL PUSH1 0x20 ADD PUSH1 0x40 MLOAD SWAP1 DUP2 ADD PUSH1 0x40 MSTORE DUP1 SWAP4 SWAP3 SWAP2 SWAP1 DUP2 DUP2 MSTORE PUSH1 0x20 ADD DUP4 DUP4 DUP1 DUP3 DUP5 CALLDATACOPY PUSH1 0x0 SWAP3 ADD SWAP2 SWAP1 SWAP2 MSTORE POP POP PUSH1 0x40 DUP1 MLOAD PUSH1 0x20 PUSH1 0x1F DUP14 ADD DUP2 SWAP1 DIV DUP2 MUL DUP3 ADD DUP2 ADD SWAP1 SWAP3 MSTORE DUP12 DUP2 MSTORE DUP15 SWAP4 POP DUP14 SWAP3 POP SWAP1 DUP13 SWAP1 DUP13 SWAP1 DUP2 SWAP1 DUP5 ADD DUP4 DUP3 DUP1 DUP3 DUP5 CALLDATACOPY PUSH1 0x0 SWAP3 ADD SWAP2 SWAP1 SWAP2 MSTORE POP DUP13 SWAP3 POP PUSH2 0x1FB7 SWAP2 POP POP JUMP JUMPDEST SWAP12 SWAP11 POP POP POP POP POP POP POP POP POP POP POP JUMP JUMPDEST PUSH1 0x0 DUP2 DUP2 MSTORE PUSH1 0x3 PUSH1 0x20 MSTORE PUSH1 0x40 SWAP1 KECCAK256 DUP1 SLOAD PUSH1 0x60 SWAP2 SWAP1 PUSH2 0x16FA SWAP1 PUSH2 0x37DB JUMP JUMPDEST PUSH1 0x0 PUSH2 0x114E PUSH1 0x0 DUP1 MLOAD PUSH1 0x20 PUSH2 0x3E17 DUP4 CODECOPY DUP2 MLOAD SWAP2 MSTORE PUSH2 0xB8B JUMP JUMPDEST PUSH1 0x0 PUSH2 0xBB4 PUSH2 0x4C2 DUP4 PUSH2 0x1CC5 PUSH2 0x5460 TIMESTAMP PUSH2 0x38DE JUMP JUMPDEST PUSH2 0x24D0 JUMP JUMPDEST PUSH1 0x0 PUSH2 0xBB4 PUSH2 0x3B9 DUP4 PUSH2 0x2525 JUMP JUMPDEST PUSH2 0x1CEF PUSH1 0x0 DUP1 MLOAD PUSH1 0x20 PUSH2 0x3DF7 DUP4 CODECOPY DUP2 MLOAD SWAP2 MSTORE PUSH2 0xB8B JUMP JUMPDEST PUSH1 0x1 PUSH1 0x1 PUSH1 0xA0 SHL SUB AND CALLER PUSH1 0x1 PUSH1 0x1 PUSH1 0xA0 SHL SUB AND EQ PUSH2 0x1D20 JUMPI PUSH1 0x40 MLOAD PUSH4 0x2D5BE4CB PUSH1 0xE2 SHL DUP2 MSTORE PUSH1 0x4 ADD PUSH1 0x40 MLOAD DUP1 SWAP2 SUB SWAP1 REVERT JUMPDEST PUSH1 0x1 PUSH1 0x1 PUSH1 0xA0 SHL SUB DUP2 AND PUSH2 0x1D46 JUMPI PUSH1 0x40 MLOAD PUSH3 0x18C61B PUSH1 0xE2 SHL DUP2 MSTORE PUSH1 0x4 ADD PUSH1 0x40 MLOAD DUP1 SWAP2 SUB SWAP1 REVERT JUMPDEST PUSH2 0xD00 DUP2 PUSH2 0x2438 JUMP JUMPDEST PUSH1 0x0 PUSH2 0x1DCC PUSH2 0x3B9 DUP10 DUP10 DUP10 DUP1 DUP1 PUSH1 0x1F ADD PUSH1 0x20 DUP1 SWAP2 DIV MUL PUSH1 0x20 ADD PUSH1 0x40 MLOAD SWAP1 DUP2 ADD PUSH1 0x40 MSTORE DUP1 SWAP4 SWAP3 SWAP2 SWAP1 DUP2 DUP2 MSTORE PUSH1 0x20 ADD DUP4 DUP4 DUP1 DUP3 DUP5 CALLDATACOPY PUSH1 0x0 SWAP3 ADD SWAP2 SWAP1 SWAP2 MSTORE POP POP PUSH1 0x40 DUP1 MLOAD PUSH1 0x20 PUSH1 0x1F DUP14 ADD DUP2 SWAP1 DIV DUP2 MUL DUP3 ADD DUP2 ADD SWAP1 SWAP3 MSTORE DUP12 DUP2 MSTORE SWAP3 POP DUP12 SWAP2 POP DUP11 SWAP1 DUP2 SWAP1 DUP5 ADD DUP4 DUP3 DUP1 DUP3 DUP5 CALLDATACOPY PUSH1 0x0 SWAP3 ADD SWAP2 SWAP1 SWAP2 MSTORE POP DUP11 SWAP3 POP DUP10 SWAP2 POP PUSH2 0x230B SWAP1 POP JUMP JUMPDEST SWAP9 SWAP8 POP POP POP POP POP POP POP POP JUMP JUMPDEST PUSH1 0x0 DUP1 DUP1 DUP1 DUP1 DUP1 PUSH2 0x1DEB DUP9 DUP11 ADD DUP11 PUSH2 0x3900 JUMP JUMPDEST SWAP6 POP SWAP6 POP SWAP6 POP SWAP6 POP SWAP6 POP SWAP6 POP PUSH2 0x1E04 DUP8 DUP8 DUP8 DUP8 DUP8 PUSH2 0x2560 JUMP JUMPDEST DUP3 DUP5 PUSH1 0x1 PUSH1 0x1 PUSH1 0xA0 SHL SUB AND DUP9 PUSH32 0x44E4F8F6BD682C5A3AEBA93601AB07CB4D1F21B2AAB1AE4880D9577919309AA4 DUP10 DUP10 DUP8 DUP8 PUSH1 0x40 MLOAD PUSH2 0x1E45 SWAP5 SWAP4 SWAP3 SWAP2 SWAP1 PUSH2 0x3991 JUMP JUMPDEST PUSH1 0x40 MLOAD DUP1 SWAP2 SUB SWAP1 LOG4 POP POP POP POP POP POP POP POP POP JUMP JUMPDEST PUSH1 0x40 MLOAD PUSH32 0x19457468657265756D205369676E6564204D6573736167653A0A333200000000 PUSH1 0x20 DUP3 ADD MSTORE PUSH1 0x3C DUP2 ADD DUP3 SWAP1 MSTORE PUSH1 0x0 SWAP1 PUSH1 0x5C ADD JUMPDEST PUSH1 0x40 MLOAD PUSH1 0x20 DUP2 DUP4 SUB SUB DUP2 MSTORE SWAP1 PUSH1 0x40 MSTORE DUP1 MLOAD SWAP1 PUSH1 0x20 ADD KECCAK256 SWAP1 POP SWAP2 SWAP1 POP JUMP JUMPDEST PUSH2 0x1EBE PUSH2 0x1EB8 DUP4 PUSH2 0x2525 JUMP JUMPDEST DUP3 PUSH2 0x201B JUMP JUMPDEST POP POP JUMP JUMPDEST PUSH1 0x0 PUSH2 0x1ECD DUP5 PUSH2 0x1611 JUMP JUMPDEST SWAP1 POP PUSH1 0x1 PUSH1 0x1 PUSH1 0xA0 SHL SUB DUP2 AND PUSH2 0x1EF8 JUMPI DUP4 PUSH1 0x40 MLOAD PUSH4 0x395D09BF PUSH1 0xE1 SHL DUP2 MSTORE PUSH1 0x4 ADD PUSH2 0xD4C SWAP2 SWAP1 PUSH2 0x2D2D JUMP JUMPDEST PUSH2 0x1F15 DUP5 DUP4 PUSH2 0x1F06 DUP8 PUSH2 0x1CB0 JUMP JUMPDEST PUSH2 0x1F10 SWAP2 SWAP1 PUSH2 0x39CA JUMP JUMPDEST PUSH2 0x2570 JUMP JUMPDEST PUSH1 0x2 PUSH2 0x1F20 DUP6 PUSH2 0x2290 JUMP JUMPDEST PUSH1 0x2 DUP2 GT ISZERO PUSH2 0x1F31 JUMPI PUSH2 0x1F31 PUSH2 0x34A7 JUMP JUMPDEST SUB PUSH2 0x1F4F JUMPI PUSH2 0x1F4A PUSH1 0x1 PUSH1 0x1 PUSH1 0xA0 SHL SUB DUP3 AND DUP5 DUP5 PUSH2 0x25D7 JUMP JUMPDEST PUSH2 0x1AEB JUMP JUMPDEST PUSH1 0x40 MLOAD PUSH4 0x40C10F19 PUSH1 0xE0 SHL DUP2 MSTORE PUSH1 0x1 PUSH1 0x1 PUSH1 0xA0 SHL SUB DUP5 DUP2 AND PUSH1 0x4 DUP4 ADD MSTORE PUSH1 0x24 DUP3 ADD DUP5 SWAP1 MSTORE DUP3 AND SWAP1 PUSH4 0x40C10F19 SWAP1 PUSH1 0x44 ADD PUSH1 0x0 PUSH1 0x40 MLOAD DUP1 DUP4 SUB DUP2 PUSH1 0x0 DUP8 DUP1 EXTCODESIZE ISZERO DUP1 ISZERO PUSH2 0x1F99 JUMPI PUSH1 0x0 DUP1 REVERT JUMPDEST POP GAS CALL ISZERO DUP1 ISZERO PUSH2 0x1FAD JUMPI RETURNDATASIZE PUSH1 0x0 DUP1 RETURNDATACOPY RETURNDATASIZE PUSH1 0x0 REVERT JUMPDEST POP POP POP POP POP POP POP POP JUMP JUMPDEST PUSH1 0x0 PUSH32 0xB7AD972B71475860613DB3BA1FE699B886C878F9002A09250DC25E769EB19A10 DUP9 DUP9 DUP9 DUP9 DUP9 DUP9 DUP9 PUSH1 0x40 MLOAD PUSH1 0x20 ADD PUSH2 0x1FF8 SWAP9 SWAP8 SWAP7 SWAP6 SWAP5 SWAP4 SWAP3 SWAP2 SWAP1 PUSH2 0x39EB JUMP JUMPDEST PUSH1 0x40 MLOAD PUSH1 0x20 DUP2 DUP4 SUB SUB DUP2 MSTORE SWAP1 PUSH1 0x40 MSTORE DUP1 MLOAD SWAP1 PUSH1 0x20 ADD KECCAK256 SWAP1 POP SWAP8 SWAP7 POP POP POP POP POP POP POP JUMP JUMPDEST PUSH1 0x0 SWAP2 DUP3 MSTORE PUSH1 0x4 PUSH1 0x20 MSTORE PUSH1 0x40 SWAP1 SWAP2 KECCAK256 DUP1 SLOAD PUSH1 0xFF NOT AND SWAP2 ISZERO ISZERO SWAP2 SWAP1 SWAP2 OR SWAP1 SSTORE JUMP JUMPDEST PUSH1 0x0 PUSH32 0xEEE9348B4AABA3647B1612B2724F18E93B9299DA26FB321C7B3FDA135D7DEA87 DUP3 PUSH1 0x40 MLOAD PUSH1 0x20 ADD PUSH2 0x1E8F SWAP3 SWAP2 SWAP1 PUSH2 0x3A5F JUMP JUMPDEST PUSH1 0x0 PUSH2 0x207B DUP4 PUSH2 0x1611 JUMP JUMPDEST SWAP1 POP PUSH1 0x1 PUSH1 0x1 PUSH1 0xA0 SHL SUB DUP2 AND PUSH2 0x20A6 JUMPI DUP3 PUSH1 0x40 MLOAD PUSH4 0x395D09BF PUSH1 0xE1 SHL DUP2 MSTORE PUSH1 0x4 ADD PUSH2 0xD4C SWAP2 SWAP1 PUSH2 0x2D2D JUMP JUMPDEST DUP2 PUSH1 0x0 SUB PUSH2 0x20C7 JUMPI PUSH1 0x40 MLOAD PUSH4 0x162908E3 PUSH1 0xE1 SHL DUP2 MSTORE PUSH1 0x4 ADD PUSH1 0x40 MLOAD DUP1 SWAP2 SUB SWAP1 REVERT JUMPDEST PUSH1 0x0 PUSH2 0x20D2 DUP5 PUSH2 0x2290 JUMP JUMPDEST SWAP1 POP PUSH1 0x2 DUP2 PUSH1 0x2 DUP2 GT ISZERO PUSH2 0x20E8 JUMPI PUSH2 0x20E8 PUSH2 0x34A7 JUMP JUMPDEST SUB PUSH2 0x2107 JUMPI PUSH2 0x2102 PUSH1 0x1 PUSH1 0x1 PUSH1 0xA0 SHL SUB DUP4 AND DUP7 ADDRESS DUP7 PUSH2 0x263A JUMP JUMPDEST PUSH2 0x18C7 JUMP JUMPDEST PUSH1 0x1 DUP2 PUSH1 0x2 DUP2 GT ISZERO PUSH2 0x211B JUMPI PUSH2 0x211B PUSH2 0x34A7 JUMP JUMPDEST SUB PUSH2 0x2174 JUMPI PUSH1 0x40 DUP1 MLOAD PUSH1 0x1 PUSH1 0x1 PUSH1 0xA0 SHL SUB DUP8 DUP2 AND PUSH1 0x24 DUP4 ADD MSTORE PUSH1 0x44 DUP1 DUP4 ADD DUP8 SWAP1 MSTORE DUP4 MLOAD DUP1 DUP5 SUB SWAP1 SWAP2 ADD DUP2 MSTORE PUSH1 0x64 SWAP1 SWAP3 ADD SWAP1 SWAP3 MSTORE PUSH1 0x20 DUP2 ADD DUP1 MLOAD PUSH1 0x1 PUSH1 0x1 PUSH1 0xE0 SHL SUB AND PUSH4 0x79CC679 PUSH1 0xE4 SHL OR SWAP1 MSTORE PUSH2 0x2102 SWAP2 DUP5 AND SWAP1 PUSH2 0x2672 JUMP JUMPDEST PUSH1 0x40 MLOAD PUSH4 0xC7BB2BD PUSH1 0xE2 SHL DUP2 MSTORE PUSH1 0x0 PUSH1 0x4 DUP3 ADD MSTORE PUSH2 0x21F5 SWAP1 DUP7 SWAP1 PUSH1 0x1 PUSH1 0x1 PUSH1 0xA0 SHL SUB DUP6 AND SWAP1 PUSH4 0x31EECAF4 SWAP1 PUSH1 0x24 ADD PUSH1 0x20 PUSH1 0x40 MLOAD DUP1 DUP4 SUB DUP2 DUP7 GAS STATICCALL ISZERO DUP1 ISZERO PUSH2 0x21BF JUMPI RETURNDATASIZE PUSH1 0x0 DUP1 RETURNDATACOPY RETURNDATASIZE PUSH1 0x0 REVERT JUMPDEST POP POP POP POP PUSH1 0x40 MLOAD RETURNDATASIZE PUSH1 0x1F NOT PUSH1 0x1F DUP3 ADD AND DUP3 ADD DUP1 PUSH1 0x40 MSTORE POP DUP2 ADD SWAP1 PUSH2 0x21E3 SWAP2 SWAP1 PUSH2 0x3780 JUMP JUMPDEST PUSH1 0x1 PUSH1 0x1 PUSH1 0xA0 SHL SUB DUP6 AND SWAP2 SWAP1 DUP7 PUSH2 0x263A JUMP JUMPDEST PUSH1 0x40 MLOAD PUSH4 0x8A1EEE1 PUSH1 0xE0 SHL DUP2 MSTORE PUSH1 0x0 PUSH1 0x4 DUP3 ADD MSTORE PUSH1 0x1 PUSH1 0x1 PUSH1 0xA0 SHL SUB DUP4 AND SWAP1 PUSH4 0x8A1EEE1 SWAP1 PUSH1 0x24 ADD PUSH2 0x1899 JUMP JUMPDEST PUSH1 0x1 PUSH1 0x1 PUSH1 0xA0 SHL SUB DUP2 AND PUSH2 0x2243 PUSH1 0x0 DUP1 MLOAD PUSH1 0x20 PUSH2 0x3E17 DUP4 CODECOPY DUP2 MLOAD SWAP2 MSTORE PUSH2 0xB8B JUMP JUMPDEST PUSH1 0x1 PUSH1 0x1 PUSH1 0xA0 SHL SUB AND PUSH32 0xA9303C860C5DE3C0C866C354D281785C89778AC5CA2DFFDF12841C45CD4E1E6E PUSH1 0x40 MLOAD PUSH1 0x40 MLOAD DUP1 SWAP2 SUB SWAP1 LOG3 PUSH2 0xD00 PUSH1 0x0 DUP1 MLOAD PUSH1 0x20 PUSH2 0x3E17 DUP4 CODECOPY DUP2 MLOAD SWAP2 MSTORE DUP3 PUSH2 0x2730 JUMP JUMPDEST PUSH1 0x0 PUSH2 0x229E PUSH2 0x4C2 DUP4 PUSH2 0x275E JUMP JUMPDEST PUSH1 0x2 DUP2 GT ISZERO PUSH2 0xBB4 JUMPI PUSH2 0xBB4 PUSH2 0x34A7 JUMP JUMPDEST PUSH1 0x0 PUSH1 0x1 PUSH1 0x1 PUSH1 0xA0 SHL SUB DUP3 AND EXTCODEHASH DUP1 ISZERO DUP1 ISZERO SWAP1 PUSH2 0x22EB JUMPI POP PUSH32 0xC5D2460186F7233C927E7DB2DCC703C0E500B653CA82273B7BFAD8045D85A470 DUP2 EQ ISZERO JUMPDEST SWAP4 SWAP3 POP POP POP JUMP JUMPDEST PUSH2 0x16D4 PUSH2 0x2304 DUP9 DUP9 DUP9 DUP9 DUP9 DUP9 DUP9 PUSH2 0x1FB7 JUMP JUMPDEST PUSH1 0x1 PUSH2 0x201B JUMP JUMPDEST PUSH1 0x0 PUSH32 0x7B0D4304F82012BD3B70B1D531C160E326067C90829E2A3D386722AD10B89C3 DUP7 DUP7 DUP7 DUP7 DUP7 PUSH1 0x40 MLOAD PUSH1 0x20 ADD PUSH2 0x2348 SWAP7 SWAP6 SWAP5 SWAP4 SWAP3 SWAP2 SWAP1 PUSH2 0x3A85 JUMP JUMPDEST PUSH1 0x40 MLOAD PUSH1 0x20 DUP2 DUP4 SUB SUB DUP2 MSTORE SWAP1 PUSH1 0x40 MSTORE DUP1 MLOAD SWAP1 PUSH1 0x20 ADD KECCAK256 SWAP1 POP SWAP6 SWAP5 POP POP POP POP POP JUMP JUMPDEST PUSH32 0xD99446C1D76385BB5519CCFB5274ABCFD5896DFC22405E40010FDE217F018A18 DUP3 DUP3 PUSH1 0x40 MLOAD PUSH2 0x239A SWAP3 SWAP2 SWAP1 PUSH2 0x330A JUMP JUMPDEST PUSH1 0x40 MLOAD DUP1 SWAP2 SUB SWAP1 LOG1 PUSH2 0x1EBE PUSH2 0x23AE DUP4 PUSH2 0x203B JUMP JUMPDEST DUP3 PUSH1 0x0 SWAP2 DUP3 MSTORE PUSH1 0x20 DUP3 SWAP1 MSTORE PUSH1 0x40 SWAP1 SWAP2 KECCAK256 SSTORE JUMP JUMPDEST PUSH2 0x1EBE PUSH2 0x23CD DUP4 PUSH2 0x275E JUMP JUMPDEST DUP3 PUSH1 0x2 DUP2 GT ISZERO PUSH2 0x23DF JUMPI PUSH2 0x23DF PUSH2 0x34A7 JUMP JUMPDEST PUSH1 0x0 SWAP2 DUP3 MSTORE PUSH1 0x20 DUP3 SWAP1 MSTORE PUSH1 0x40 SWAP1 SWAP2 KECCAK256 SSTORE JUMP JUMPDEST PUSH2 0x1EBE PUSH2 0x23FD DUP4 PUSH2 0x2403 JUMP JUMPDEST DUP3 PUSH2 0x2730 JUMP JUMPDEST PUSH1 0x0 PUSH32 0xC4E632779A6A7838736DD7E5E6A0EADF171DD37DFB6230720E265576DFCF42BB DUP3 PUSH1 0x40 MLOAD PUSH1 0x20 ADD PUSH2 0x1E8F SWAP3 SWAP2 SWAP1 PUSH2 0x3A5F JUMP JUMPDEST PUSH1 0x1 PUSH1 0x1 PUSH1 0xA0 SHL SUB DUP2 AND PUSH2 0x2459 PUSH1 0x0 DUP1 MLOAD PUSH1 0x20 PUSH2 0x3DF7 DUP4 CODECOPY DUP2 MLOAD SWAP2 MSTORE PUSH2 0xB8B JUMP JUMPDEST PUSH1 0x1 PUSH1 0x1 PUSH1 0xA0 SHL SUB AND PUSH32 0x5F56BEE8CFFBE9A78652A74A60705EDEDE02AF10B0BBB888CA44B79A0D42CE80 PUSH1 0x40 MLOAD PUSH1 0x40 MLOAD DUP1 SWAP2 SUB SWAP1 LOG3 PUSH2 0xD00 PUSH1 0x0 DUP1 MLOAD PUSH1 0x20 PUSH2 0x3DF7 DUP4 CODECOPY DUP2 MLOAD SWAP2 MSTORE DUP3 PUSH2 0x2730 JUMP JUMPDEST PUSH2 0xD00 PUSH32 0x360894A13BA1A3210667C828492DB98DCA3E2076CC3735A920A3CA505D382BBC DUP3 PUSH2 0x2730 JUMP JUMPDEST PUSH1 0x0 PUSH32 0x2F8851FE0D6D537E552A4F25B7A3167D48EB1292622C71D84630A2A44757BCED DUP4 DUP4 PUSH1 0x40 MLOAD PUSH1 0x20 ADD PUSH2 0x2507 SWAP4 SWAP3 SWAP2 SWAP1 PUSH2 0x3AD5 JUMP JUMPDEST PUSH1 0x40 MLOAD PUSH1 0x20 DUP2 DUP4 SUB SUB DUP2 MSTORE SWAP1 PUSH1 0x40 MSTORE DUP1 MLOAD SWAP1 PUSH1 0x20 ADD KECCAK256 SWAP1 POP SWAP3 SWAP2 POP POP JUMP JUMPDEST PUSH1 0x40 DUP1 MLOAD PUSH32 0x957705A374326B30F4A1069C936D736CC9993ED6C820B4E0E2FD94A8BECA0D1D PUSH1 0x20 DUP3 ADD MSTORE SWAP1 DUP2 ADD DUP3 SWAP1 MSTORE PUSH1 0x0 SWAP1 PUSH1 0x60 ADD PUSH2 0x1E8F JUMP JUMPDEST PUSH2 0x18C7 PUSH2 0x2304 DUP7 DUP7 DUP7 DUP7 DUP7 PUSH2 0x230B JUMP JUMPDEST PUSH1 0x0 PUSH2 0x257B DUP4 PUSH2 0xBA6 JUMP JUMPDEST SWAP1 POP PUSH1 0x0 DUP2 GT DUP1 ISZERO PUSH2 0x258C JUMPI POP DUP1 DUP3 GT JUMPDEST ISZERO PUSH2 0x25AC JUMPI DUP3 PUSH1 0x40 MLOAD PUSH4 0x37F60E5 PUSH1 0xE0 SHL DUP2 MSTORE PUSH1 0x4 ADD PUSH2 0xD4C SWAP2 SWAP1 PUSH2 0x2D2D JUMP JUMPDEST PUSH2 0x25D2 PUSH2 0x25BF DUP5 PUSH2 0x1CC5 PUSH2 0x5460 TIMESTAMP PUSH2 0x38DE JUMP JUMPDEST DUP4 PUSH1 0x0 SWAP2 DUP3 MSTORE PUSH1 0x20 DUP3 SWAP1 MSTORE PUSH1 0x40 SWAP1 SWAP2 KECCAK256 SSTORE JUMP JUMPDEST POP POP POP JUMP JUMPDEST PUSH1 0x40 MLOAD PUSH1 0x1 PUSH1 0x1 PUSH1 0xA0 SHL SUB DUP4 AND PUSH1 0x24 DUP3 ADD MSTORE PUSH1 0x44 DUP2 ADD DUP3 SWAP1 MSTORE PUSH2 0x25D2 SWAP1 DUP5 SWAP1 PUSH4 0xA9059CBB PUSH1 0xE0 SHL SWAP1 PUSH1 0x64 ADD JUMPDEST PUSH1 0x40 DUP1 MLOAD PUSH1 0x1F NOT DUP2 DUP5 SUB ADD DUP2 MSTORE SWAP2 SWAP1 MSTORE PUSH1 0x20 DUP2 ADD DUP1 MLOAD PUSH1 0x1 PUSH1 0x1 PUSH1 0xE0 SHL SUB AND PUSH1 0x1 PUSH1 0x1 PUSH1 0xE0 SHL SUB NOT SWAP1 SWAP4 AND SWAP3 SWAP1 SWAP3 OR SWAP1 SWAP2 MSTORE PUSH2 0x2672 JUMP JUMPDEST PUSH1 0x40 MLOAD PUSH1 0x1 PUSH1 0x1 PUSH1 0xA0 SHL SUB DUP1 DUP6 AND PUSH1 0x24 DUP4 ADD MSTORE DUP4 AND PUSH1 0x44 DUP3 ADD MSTORE PUSH1 0x64 DUP2 ADD DUP3 SWAP1 MSTORE PUSH2 0x1AEB SWAP1 DUP6 SWAP1 PUSH4 0x23B872DD PUSH1 0xE0 SHL SWAP1 PUSH1 0x84 ADD PUSH2 0x2603 JUMP JUMPDEST PUSH1 0x0 DUP1 DUP4 PUSH1 0x1 PUSH1 0x1 PUSH1 0xA0 SHL SUB AND DUP4 PUSH1 0x40 MLOAD PUSH2 0x268D SWAP2 SWAP1 PUSH2 0x32EE JUMP JUMPDEST PUSH1 0x0 PUSH1 0x40 MLOAD DUP1 DUP4 SUB DUP2 PUSH1 0x0 DUP7 GAS CALL SWAP2 POP POP RETURNDATASIZE DUP1 PUSH1 0x0 DUP2 EQ PUSH2 0x26CA JUMPI PUSH1 0x40 MLOAD SWAP2 POP PUSH1 0x1F NOT PUSH1 0x3F RETURNDATASIZE ADD AND DUP3 ADD PUSH1 0x40 MSTORE RETURNDATASIZE DUP3 MSTORE RETURNDATASIZE PUSH1 0x0 PUSH1 0x20 DUP5 ADD RETURNDATACOPY PUSH2 0x26CF JUMP JUMPDEST PUSH1 0x60 SWAP2 POP JUMPDEST POP SWAP2 POP SWAP2 POP PUSH1 0x0 DUP3 DUP1 ISZERO PUSH2 0x26FB JUMPI POP DUP2 MLOAD ISZERO DUP1 PUSH2 0x26FB JUMPI POP DUP2 DUP1 PUSH1 0x20 ADD SWAP1 MLOAD DUP2 ADD SWAP1 PUSH2 0x26FB SWAP2 SWAP1 PUSH2 0x304E JUMP JUMPDEST SWAP1 POP DUP1 ISZERO DUP1 PUSH2 0x2712 JUMPI POP PUSH1 0x1 PUSH1 0x1 PUSH1 0xA0 SHL SUB DUP6 AND EXTCODESIZE ISZERO JUMPDEST ISZERO PUSH2 0x18C7 JUMPI PUSH1 0x40 MLOAD PUSH4 0x22E2581 PUSH1 0xE1 SHL DUP2 MSTORE PUSH1 0x4 ADD PUSH1 0x40 MLOAD DUP1 SWAP2 SUB SWAP1 REVERT JUMPDEST PUSH1 0x0 SWAP2 DUP3 MSTORE PUSH1 0x2 PUSH1 0x20 MSTORE PUSH1 0x40 SWAP1 SWAP2 KECCAK256 DUP1 SLOAD PUSH1 0x1 PUSH1 0x1 PUSH1 0xA0 SHL SUB NOT AND PUSH1 0x1 PUSH1 0x1 PUSH1 0xA0 SHL SUB SWAP1 SWAP3 AND SWAP2 SWAP1 SWAP2 OR SWAP1 SSTORE JUMP JUMPDEST PUSH1 0x0 PUSH32 0xA80D2259AF55890618EC2EEB3AC72DE4BDBA22529BB14845D8A3D712D1C3F621 DUP3 PUSH1 0x40 MLOAD PUSH1 0x20 ADD PUSH2 0x1E8F SWAP3 SWAP2 SWAP1 PUSH2 0x3A5F JUMP JUMPDEST PUSH2 0x2F8 DUP1 PUSH2 0x3AFF DUP4 CODECOPY ADD SWAP1 JUMP JUMPDEST PUSH1 0x0 DUP1 DUP4 PUSH1 0x1F DUP5 ADD SLT PUSH2 0x27B2 JUMPI PUSH1 0x0 DUP1 REVERT JUMPDEST POP DUP2 CALLDATALOAD PUSH1 0x1 PUSH1 0x1 PUSH1 0x40 SHL SUB DUP2 GT ISZERO PUSH2 0x27C9 JUMPI PUSH1 0x0 DUP1 REVERT JUMPDEST PUSH1 0x20 DUP4 ADD SWAP2 POP DUP4 PUSH1 0x20 DUP3 DUP6 ADD ADD GT ISZERO PUSH2 0x27E1 JUMPI PUSH1 0x0 DUP1 REVERT JUMPDEST SWAP3 POP SWAP3 SWAP1 POP JUMP JUMPDEST PUSH1 0x0 DUP1 PUSH1 0x20 DUP4 DUP6 SUB SLT ISZERO PUSH2 0x27FB JUMPI PUSH1 0x0 DUP1 REVERT JUMPDEST DUP3 CALLDATALOAD PUSH1 0x1 PUSH1 0x1 PUSH1 0x40 SHL SUB DUP2 GT ISZERO PUSH2 0x2811 JUMPI PUSH1 0x0 DUP1 REVERT JUMPDEST PUSH2 0x281D DUP6 DUP3 DUP7 ADD PUSH2 0x27A0 JUMP JUMPDEST SWAP1 SWAP7 SWAP1 SWAP6 POP SWAP4 POP POP POP POP JUMP JUMPDEST PUSH1 0x0 DUP1 PUSH1 0x0 PUSH1 0x40 DUP5 DUP7 SUB SLT ISZERO PUSH2 0x283E JUMPI PUSH1 0x0 DUP1 REVERT JUMPDEST DUP4 CALLDATALOAD PUSH1 0x1 PUSH1 0x1 PUSH1 0x40 SHL SUB DUP2 GT ISZERO PUSH2 0x2854 JUMPI PUSH1 0x0 DUP1 REVERT JUMPDEST PUSH2 0x2860 DUP7 DUP3 DUP8 ADD PUSH2 0x27A0 JUMP JUMPDEST SWAP1 SWAP8 SWAP1 SWAP7 POP PUSH1 0x20 SWAP6 SWAP1 SWAP6 ADD CALLDATALOAD SWAP5 SWAP4 POP POP POP POP JUMP JUMPDEST PUSH1 0x0 DUP1 PUSH1 0x0 DUP1 PUSH1 0x0 DUP1 PUSH1 0x0 DUP1 PUSH1 0x0 PUSH1 0xC0 DUP11 DUP13 SUB SLT ISZERO PUSH2 0x2892 JUMPI PUSH1 0x0 DUP1 REVERT JUMPDEST DUP10 CALLDATALOAD SWAP9 POP PUSH1 0x20 DUP11 ADD CALLDATALOAD PUSH1 0x1 PUSH1 0x1 PUSH1 0x40 SHL SUB DUP1 DUP3 GT ISZERO PUSH2 0x28B0 JUMPI PUSH1 0x0 DUP1 REVERT JUMPDEST PUSH2 0x28BC DUP14 DUP4 DUP15 ADD PUSH2 0x27A0 JUMP JUMPDEST SWAP1 SWAP11 POP SWAP9 POP PUSH1 0x40 DUP13 ADD CALLDATALOAD SWAP2 POP DUP1 DUP3 GT ISZERO PUSH2 0x28D5 JUMPI PUSH1 0x0 DUP1 REVERT JUMPDEST PUSH2 0x28E1 DUP14 DUP4 DUP15 ADD PUSH2 0x27A0 JUMP JUMPDEST SWAP1 SWAP9 POP SWAP7 POP PUSH1 0x60 DUP13 ADD CALLDATALOAD SWAP6 POP PUSH1 0x80 DUP13 ADD CALLDATALOAD SWAP2 POP DUP1 DUP3 GT ISZERO PUSH2 0x2901 JUMPI PUSH1 0x0 DUP1 REVERT JUMPDEST POP PUSH2 0x290E DUP13 DUP3 DUP14 ADD PUSH2 0x27A0 JUMP JUMPDEST SWAP11 SWAP14 SWAP10 SWAP13 POP SWAP8 SWAP11 SWAP7 SWAP10 SWAP6 SWAP9 SWAP5 SWAP8 SWAP7 PUSH1 0xA0 ADD CALLDATALOAD SWAP5 SWAP4 POP POP POP POP JUMP JUMPDEST PUSH1 0x0 DUP1 PUSH1 0x0 DUP1 PUSH1 0x0 DUP1 PUSH1 0x60 DUP8 DUP10 SUB SLT ISZERO PUSH2 0x2941 JUMPI PUSH1 0x0 DUP1 REVERT JUMPDEST DUP7 CALLDATALOAD PUSH1 0x1 PUSH1 0x1 PUSH1 0x40 SHL SUB DUP1 DUP3 GT ISZERO PUSH2 0x2958 JUMPI PUSH1 0x0 DUP1 REVERT JUMPDEST PUSH2 0x2964 DUP11 DUP4 DUP12 ADD PUSH2 0x27A0 JUMP JUMPDEST SWAP1 SWAP9 POP SWAP7 POP PUSH1 0x20 DUP10 ADD CALLDATALOAD SWAP2 POP DUP1 DUP3 GT ISZERO PUSH2 0x297D JUMPI PUSH1 0x0 DUP1 REVERT JUMPDEST PUSH2 0x2989 DUP11 DUP4 DUP12 ADD PUSH2 0x27A0 JUMP JUMPDEST SWAP1 SWAP7 POP SWAP5 POP PUSH1 0x40 DUP10 ADD CALLDATALOAD SWAP2 POP DUP1 DUP3 GT ISZERO PUSH2 0x29A2 JUMPI PUSH1 0x0 DUP1 REVERT JUMPDEST POP PUSH2 0x29AF DUP10 DUP3 DUP11 ADD PUSH2 0x27A0 JUMP JUMPDEST SWAP8 SWAP11 SWAP7 SWAP10 POP SWAP5 SWAP8 POP SWAP3 SWAP6 SWAP4 SWAP5 SWAP3 POP POP POP JUMP JUMPDEST PUSH1 0x0 PUSH1 0x20 DUP3 DUP5 SUB SLT ISZERO PUSH2 0x29D3 JUMPI PUSH1 0x0 DUP1 REVERT JUMPDEST POP CALLDATALOAD SWAP2 SWAP1 POP JUMP JUMPDEST PUSH4 0x4E487B71 PUSH1 0xE0 SHL PUSH1 0x0 MSTORE PUSH1 0x41 PUSH1 0x4 MSTORE PUSH1 0x24 PUSH1 0x0 REVERT JUMPDEST PUSH1 0x40 MLOAD PUSH1 0x1F DUP3 ADD PUSH1 0x1F NOT AND DUP2 ADD PUSH1 0x1 PUSH1 0x1 PUSH1 0x40 SHL SUB DUP2 GT DUP3 DUP3 LT OR ISZERO PUSH2 0x2A18 JUMPI PUSH2 0x2A18 PUSH2 0x29DA JUMP JUMPDEST PUSH1 0x40 MSTORE SWAP2 SWAP1 POP JUMP JUMPDEST PUSH1 0x0 PUSH1 0x1 PUSH1 0x1 PUSH1 0x40 SHL SUB DUP3 GT ISZERO PUSH2 0x2A39 JUMPI PUSH2 0x2A39 PUSH2 0x29DA JUMP JUMPDEST POP PUSH1 0x1F ADD PUSH1 0x1F NOT AND PUSH1 0x20 ADD SWAP1 JUMP JUMPDEST PUSH1 0x0 DUP3 PUSH1 0x1F DUP4 ADD SLT PUSH2 0x2A58 JUMPI PUSH1 0x0 DUP1 REVERT JUMPDEST DUP2 CALLDATALOAD PUSH2 0x2A6B PUSH2 0x2A66 DUP3 PUSH2 0x2A20 JUMP JUMPDEST PUSH2 0x29F0 JUMP JUMPDEST DUP2 DUP2 MSTORE DUP5 PUSH1 0x20 DUP4 DUP7 ADD ADD GT ISZERO PUSH2 0x2A80 JUMPI PUSH1 0x0 DUP1 REVERT JUMPDEST DUP2 PUSH1 0x20 DUP6 ADD PUSH1 0x20 DUP4 ADD CALLDATACOPY PUSH1 0x0 SWAP2 DUP2 ADD PUSH1 0x20 ADD SWAP2 SWAP1 SWAP2 MSTORE SWAP4 SWAP3 POP POP POP JUMP JUMPDEST PUSH1 0x0 PUSH1 0x20 DUP3 DUP5 SUB SLT ISZERO PUSH2 0x2AAF JUMPI PUSH1 0x0 DUP1 REVERT JUMPDEST DUP2 CALLDATALOAD PUSH1 0x1 PUSH1 0x1 PUSH1 0x40 SHL SUB DUP2 GT ISZERO PUSH2 0x2AC5 JUMPI PUSH1 0x0 DUP1 REVERT JUMPDEST PUSH2 0x2AD1 DUP5 DUP3 DUP6 ADD PUSH2 0x2A47 JUMP JUMPDEST SWAP5 SWAP4 POP POP POP POP JUMP JUMPDEST PUSH1 0x0 DUP1 PUSH1 0x0 DUP1 PUSH1 0x0 DUP1 PUSH1 0x0 PUSH1 0x80 DUP9 DUP11 SUB SLT ISZERO PUSH2 0x2AF4 JUMPI PUSH1 0x0 DUP1 REVERT JUMPDEST DUP8 CALLDATALOAD PUSH1 0x1 PUSH1 0x1 PUSH1 0x40 SHL SUB DUP1 DUP3 GT ISZERO PUSH2 0x2B0B JUMPI PUSH1 0x0 DUP1 REVERT JUMPDEST PUSH2 0x2B17 DUP12 DUP4 DUP13 ADD PUSH2 0x27A0 JUMP JUMPDEST SWAP1 SWAP10 POP SWAP8 POP PUSH1 0x20 DUP11 ADD CALLDATALOAD SWAP2 POP DUP1 DUP3 GT ISZERO PUSH2 0x2B30 JUMPI PUSH1 0x0 DUP1 REVERT JUMPDEST PUSH2 0x2B3C DUP12 DUP4 DUP13 ADD PUSH2 0x27A0 JUMP JUMPDEST SWAP1 SWAP8 POP SWAP6 POP PUSH1 0x40 DUP11 ADD CALLDATALOAD SWAP2 POP DUP1 DUP3 GT ISZERO PUSH2 0x2B55 JUMPI PUSH1 0x0 DUP1 REVERT JUMPDEST POP PUSH2 0x2B62 DUP11 DUP3 DUP12 ADD PUSH2 0x27A0 JUMP JUMPDEST SWAP9 SWAP12 SWAP8 SWAP11 POP SWAP6 SWAP9 SWAP5 SWAP8 SWAP6 SWAP7 PUSH1 0x60 SWAP1 SWAP6 ADD CALLDATALOAD SWAP5 SWAP4 POP POP POP POP JUMP JUMPDEST PUSH1 0x1 PUSH1 0x1 PUSH1 0xA0 SHL SUB DUP2 AND DUP2 EQ PUSH2 0xD00 JUMPI PUSH1 0x0 DUP1 REVERT JUMPDEST PUSH1 0x0 PUSH1 0x20 DUP3 DUP5 SUB SLT ISZERO PUSH2 0x2BA2 JUMPI PUSH1 0x0 DUP1 REVERT JUMPDEST DUP2 CALLDATALOAD PUSH2 0x22EB DUP2 PUSH2 0x2B7B JUMP JUMPDEST PUSH1 0x0 DUP1 PUSH1 0x0 DUP1 PUSH1 0x0 DUP1 PUSH1 0x80 DUP8 DUP10 SUB SLT ISZERO PUSH2 0x2BC6 JUMPI PUSH1 0x0 DUP1 REVERT JUMPDEST DUP7 CALLDATALOAD SWAP6 POP PUSH1 0x20 DUP8 ADD CALLDATALOAD PUSH1 0x1 PUSH1 0x1 PUSH1 0x40 SHL SUB DUP1 DUP3 GT ISZERO PUSH2 0x2BE4 JUMPI PUSH1 0x0 DUP1 REVERT JUMPDEST PUSH2 0x2BF0 DUP11 DUP4 DUP12 ADD PUSH2 0x27A0 JUMP JUMPDEST SWAP1 SWAP8 POP SWAP6 POP PUSH1 0x40 DUP10 ADD CALLDATALOAD SWAP2 POP DUP1 DUP3 GT ISZERO PUSH2 0x2C09 JUMPI PUSH1 0x0 DUP1 REVERT JUMPDEST POP PUSH2 0x2C16 DUP10 DUP3 DUP11 ADD PUSH2 0x27A0 JUMP JUMPDEST SWAP8 SWAP11 SWAP7 SWAP10 POP SWAP5 SWAP8 SWAP5 SWAP7 SWAP6 PUSH1 0x60 SWAP1 SWAP6 ADD CALLDATALOAD SWAP5 SWAP4 POP POP POP POP JUMP JUMPDEST PUSH1 0x0 DUP1 DUP4 PUSH1 0x1F DUP5 ADD SLT PUSH2 0x2C40 JUMPI PUSH1 0x0 DUP1 REVERT JUMPDEST POP DUP2 CALLDATALOAD PUSH1 0x1 PUSH1 0x1 PUSH1 0x40 SHL SUB DUP2 GT ISZERO PUSH2 0x2C57 JUMPI PUSH1 0x0 DUP1 REVERT JUMPDEST PUSH1 0x20 DUP4 ADD SWAP2 POP DUP4 PUSH1 0x20 DUP3 PUSH1 0x5 SHL DUP6 ADD ADD GT ISZERO PUSH2 0x27E1 JUMPI PUSH1 0x0 DUP1 REVERT JUMPDEST PUSH1 0x0 DUP1 PUSH1 0x0 DUP1 PUSH1 0x40 DUP6 DUP8 SUB SLT ISZERO PUSH2 0x2C88 JUMPI PUSH1 0x0 DUP1 REVERT JUMPDEST DUP5 CALLDATALOAD PUSH1 0x1 PUSH1 0x1 PUSH1 0x40 SHL SUB DUP1 DUP3 GT ISZERO PUSH2 0x2C9F JUMPI PUSH1 0x0 DUP1 REVERT JUMPDEST PUSH2 0x2CAB DUP9 DUP4 DUP10 ADD PUSH2 0x2C2E JUMP JUMPDEST SWAP1 SWAP7 POP SWAP5 POP PUSH1 0x20 DUP8 ADD CALLDATALOAD SWAP2 POP DUP1 DUP3 GT ISZERO PUSH2 0x2CC4 JUMPI PUSH1 0x0 DUP1 REVERT JUMPDEST POP PUSH2 0x2CD1 DUP8 DUP3 DUP9 ADD PUSH2 0x2C2E JUMP JUMPDEST SWAP6 SWAP9 SWAP5 SWAP8 POP SWAP6 POP POP POP POP JUMP JUMPDEST PUSH1 0x0 JUMPDEST DUP4 DUP2 LT ISZERO PUSH2 0x2CF8 JUMPI DUP2 DUP2 ADD MLOAD DUP4 DUP3 ADD MSTORE PUSH1 0x20 ADD PUSH2 0x2CE0 JUMP JUMPDEST POP POP PUSH1 0x0 SWAP2 ADD MSTORE JUMP JUMPDEST PUSH1 0x0 DUP2 MLOAD DUP1 DUP5 MSTORE PUSH2 0x2D19 DUP2 PUSH1 0x20 DUP7 ADD PUSH1 0x20 DUP7 ADD PUSH2 0x2CDD JUMP JUMPDEST PUSH1 0x1F ADD PUSH1 0x1F NOT AND SWAP3 SWAP1 SWAP3 ADD PUSH1 0x20 ADD SWAP3 SWAP2 POP POP JUMP JUMPDEST PUSH1 0x20 DUP2 MSTORE PUSH1 0x0 PUSH2 0x22EB PUSH1 0x20 DUP4 ADD DUP5 PUSH2 0x2D01 JUMP JUMPDEST PUSH1 0x0 DUP1 PUSH1 0x0 DUP1 PUSH1 0x60 DUP6 DUP8 SUB SLT ISZERO PUSH2 0x2D56 JUMPI PUSH1 0x0 DUP1 REVERT JUMPDEST DUP5 CALLDATALOAD PUSH2 0x2D61 DUP2 PUSH2 0x2B7B JUMP JUMPDEST SWAP4 POP PUSH1 0x20 DUP6 ADD CALLDATALOAD SWAP3 POP PUSH1 0x40 DUP6 ADD CALLDATALOAD PUSH1 0x1 PUSH1 0x1 PUSH1 0x40 SHL SUB DUP2 GT ISZERO PUSH2 0x2D83 JUMPI PUSH1 0x0 DUP1 REVERT JUMPDEST PUSH2 0x2CD1 DUP8 DUP3 DUP9 ADD PUSH2 0x27A0 JUMP JUMPDEST PUSH1 0x0 DUP1 PUSH1 0x0 DUP1 PUSH1 0x0 DUP1 PUSH1 0x0 DUP1 PUSH1 0x0 PUSH1 0xA0 DUP11 DUP13 SUB SLT ISZERO PUSH2 0x2DAD JUMPI PUSH1 0x0 DUP1 REVERT JUMPDEST DUP10 CALLDATALOAD PUSH1 0x1 PUSH1 0x1 PUSH1 0x40 SHL SUB DUP1 DUP3 GT ISZERO PUSH2 0x2DC4 JUMPI PUSH1 0x0 DUP1 REVERT JUMPDEST PUSH2 0x2DD0 DUP14 DUP4 DUP15 ADD PUSH2 0x27A0 JUMP JUMPDEST SWAP1 SWAP12 POP SWAP10 POP PUSH1 0x20 DUP13 ADD CALLDATALOAD SWAP2 POP DUP1 DUP3 GT ISZERO PUSH2 0x2DE9 JUMPI PUSH1 0x0 DUP1 REVERT JUMPDEST PUSH2 0x2DF5 DUP14 DUP4 DUP15 ADD PUSH2 0x27A0 JUMP JUMPDEST SWAP1 SWAP10 POP SWAP8 POP PUSH1 0x40 DUP13 ADD CALLDATALOAD SWAP2 POP DUP1 DUP3 GT ISZERO PUSH2 0x2E0E JUMPI PUSH1 0x0 DUP1 REVERT JUMPDEST PUSH2 0x2E1A DUP14 DUP4 DUP15 ADD PUSH2 0x27A0 JUMP JUMPDEST SWAP1 SWAP8 POP SWAP6 POP PUSH1 0x60 DUP13 ADD CALLDATALOAD SWAP2 POP DUP1 DUP3 GT ISZERO PUSH2 0x2E33 JUMPI PUSH1 0x0 DUP1 REVERT JUMPDEST POP PUSH2 0x2E40 DUP13 DUP3 DUP14 ADD PUSH2 0x27A0 JUMP JUMPDEST SWAP11 SWAP14 SWAP10 SWAP13 POP SWAP8 SWAP11 SWAP7 SWAP10 SWAP6 SWAP9 SWAP5 SWAP8 SWAP7 PUSH1 0x80 ADD CALLDATALOAD SWAP5 SWAP4 POP POP POP POP JUMP JUMPDEST PUSH1 0x0 DUP1 PUSH1 0x0 DUP1 PUSH1 0x0 DUP1 PUSH1 0x0 DUP1 PUSH1 0x0 DUP1 PUSH1 0xE0 DUP12 DUP14 SUB SLT ISZERO PUSH2 0x2E79 JUMPI PUSH1 0x0 DUP1 REVERT JUMPDEST DUP11 CALLDATALOAD SWAP10 POP PUSH1 0x20 DUP12 ADD CALLDATALOAD PUSH1 0x1 PUSH1 0x1 PUSH1 0x40 SHL SUB DUP1 DUP3 GT ISZERO PUSH2 0x2E97 JUMPI PUSH1 0x0 DUP1 REVERT JUMPDEST PUSH2 0x2EA3 DUP15 DUP4 DUP16 ADD PUSH2 0x27A0 JUMP JUMPDEST SWAP1 SWAP12 POP SWAP10 POP PUSH1 0x40 DUP14 ADD CALLDATALOAD SWAP2 POP DUP1 DUP3 GT ISZERO PUSH2 0x2EBC JUMPI PUSH1 0x0 DUP1 REVERT JUMPDEST PUSH2 0x2EC8 DUP15 DUP4 DUP16 ADD PUSH2 0x27A0 JUMP JUMPDEST SWAP1 SWAP10 POP SWAP8 POP PUSH1 0x60 DUP14 ADD CALLDATALOAD SWAP2 POP PUSH2 0x2EDD DUP3 PUSH2 0x2B7B JUMP JUMPDEST SWAP1 SWAP6 POP PUSH1 0x80 DUP13 ADD CALLDATALOAD SWAP5 POP PUSH1 0xA0 DUP13 ADD CALLDATALOAD SWAP1 DUP1 DUP3 GT ISZERO PUSH2 0x2EFA JUMPI PUSH1 0x0 DUP1 REVERT JUMPDEST POP PUSH2 0x2F07 DUP14 DUP3 DUP15 ADD PUSH2 0x27A0 JUMP JUMPDEST SWAP2 POP DUP1 SWAP5 POP POP DUP1 SWAP3 POP POP PUSH1 0xC0 DUP12 ADD CALLDATALOAD SWAP1 POP SWAP3 SWAP6 SWAP9 SWAP12 SWAP2 SWAP5 SWAP8 SWAP11 POP SWAP3 SWAP6 SWAP9 POP JUMP JUMPDEST PUSH1 0x0 DUP1 PUSH1 0x0 DUP1 PUSH1 0x0 DUP1 PUSH1 0x0 PUSH1 0xA0 DUP9 DUP11 SUB SLT ISZERO PUSH2 0x2F42 JUMPI PUSH1 0x0 DUP1 REVERT JUMPDEST DUP8 CALLDATALOAD SWAP7 POP PUSH1 0x20 DUP9 ADD CALLDATALOAD PUSH1 0x1 PUSH1 0x1 PUSH1 0x40 SHL SUB DUP1 DUP3 GT ISZERO PUSH2 0x2F60 JUMPI PUSH1 0x0 DUP1 REVERT JUMPDEST PUSH2 0x2F6C DUP12 DUP4 DUP13 ADD PUSH2 0x27A0 JUMP JUMPDEST SWAP1 SWAP9 POP SWAP7 POP PUSH1 0x40 DUP11 ADD CALLDATALOAD SWAP2 POP DUP1 DUP3 GT ISZERO PUSH2 0x2F85 JUMPI PUSH1 0x0 DUP1 REVERT JUMPDEST POP PUSH2 0x2F92 DUP11 DUP3 DUP12 ADD PUSH2 0x27A0 JUMP JUMPDEST SWAP1 SWAP6 POP SWAP4 POP POP PUSH1 0x60 DUP9 ADD CALLDATALOAD PUSH2 0x2FA6 DUP2 PUSH2 0x2B7B JUMP JUMPDEST DUP1 SWAP3 POP POP PUSH1 0x80 DUP9 ADD CALLDATALOAD SWAP1 POP SWAP3 SWAP6 SWAP9 SWAP2 SWAP5 SWAP8 POP SWAP3 SWAP6 POP JUMP JUMPDEST PUSH1 0x0 DUP1 PUSH1 0x40 DUP4 DUP6 SUB SLT ISZERO PUSH2 0x2FD0 JUMPI PUSH1 0x0 DUP1 REVERT JUMPDEST DUP3 CALLDATALOAD PUSH1 0x1 PUSH1 0x1 PUSH1 0x40 SHL SUB DUP1 DUP3 GT ISZERO PUSH2 0x2FE7 JUMPI PUSH1 0x0 DUP1 REVERT JUMPDEST PUSH2 0x2FF3 DUP7 DUP4 DUP8 ADD PUSH2 0x2A47 JUMP JUMPDEST SWAP4 POP PUSH1 0x20 DUP6 ADD CALLDATALOAD SWAP2 POP DUP1 DUP3 GT ISZERO PUSH2 0x3009 JUMPI PUSH1 0x0 DUP1 REVERT JUMPDEST POP PUSH2 0x3016 DUP6 DUP3 DUP7 ADD PUSH2 0x2A47 JUMP JUMPDEST SWAP2 POP POP SWAP3 POP SWAP3 SWAP1 POP JUMP JUMPDEST DUP3 DUP2 MSTORE PUSH1 0x40 PUSH1 0x20 DUP3 ADD MSTORE PUSH1 0x0 PUSH2 0x2AD1 PUSH1 0x40 DUP4 ADD DUP5 PUSH2 0x2D01 JUMP JUMPDEST DUP1 MLOAD DUP1 ISZERO ISZERO DUP2 EQ PUSH2 0x3049 JUMPI PUSH1 0x0 DUP1 REVERT JUMPDEST SWAP2 SWAP1 POP JUMP JUMPDEST PUSH1 0x0 PUSH1 0x20 DUP3 DUP5 SUB SLT ISZERO PUSH2 0x3060 JUMPI PUSH1 0x0 DUP1 REVERT JUMPDEST PUSH2 0x22EB DUP3 PUSH2 0x3039 JUMP JUMPDEST PUSH1 0x0 PUSH1 0x1 PUSH1 0x1 PUSH1 0x40 SHL SUB DUP3 GT ISZERO PUSH2 0x3082 JUMPI PUSH2 0x3082 PUSH2 0x29DA JUMP JUMPDEST POP PUSH1 0x5 SHL PUSH1 0x20 ADD SWAP1 JUMP JUMPDEST PUSH1 0x0 PUSH2 0x309A PUSH2 0x2A66 DUP5 PUSH2 0x2A20 JUMP JUMPDEST SWAP1 POP DUP3 DUP2 MSTORE DUP4 DUP4 DUP4 ADD GT ISZERO PUSH2 0x30AE JUMPI PUSH1 0x0 DUP1 REVERT JUMPDEST PUSH2 0x22EB DUP4 PUSH1 0x20 DUP4 ADD DUP5 PUSH2 0x2CDD JUMP JUMPDEST PUSH1 0x0 DUP3 PUSH1 0x1F DUP4 ADD SLT PUSH2 0x30CD JUMPI PUSH1 0x0 DUP1 REVERT JUMPDEST DUP2 MLOAD PUSH1 0x20 PUSH2 0x30DD PUSH2 0x2A66 DUP4 PUSH2 0x3069 JUMP JUMPDEST DUP3 DUP2 MSTORE PUSH1 0x5 SWAP3 SWAP1 SWAP3 SHL DUP5 ADD DUP2 ADD SWAP2 DUP2 DUP2 ADD SWAP1 DUP7 DUP5 GT ISZERO PUSH2 0x30FC JUMPI PUSH1 0x0 DUP1 REVERT JUMPDEST DUP3 DUP7 ADD JUMPDEST DUP5 DUP2 LT ISZERO PUSH2 0x124C JUMPI DUP1 MLOAD PUSH1 0x1 PUSH1 0x1 PUSH1 0x40 SHL SUB DUP2 GT ISZERO PUSH2 0x311F JUMPI PUSH1 0x0 DUP1 DUP2 REVERT JUMPDEST DUP8 ADD PUSH1 0x3F DUP2 ADD DUP10 SGT PUSH2 0x3131 JUMPI PUSH1 0x0 DUP1 DUP2 REVERT JUMPDEST PUSH2 0x3142 DUP10 DUP7 DUP4 ADD MLOAD PUSH1 0x40 DUP5 ADD PUSH2 0x308C JUMP JUMPDEST DUP5 MSTORE POP SWAP2 DUP4 ADD SWAP2 DUP4 ADD PUSH2 0x3100 JUMP JUMPDEST PUSH1 0x0 DUP3 PUSH1 0x1F DUP4 ADD SLT PUSH2 0x3161 JUMPI PUSH1 0x0 DUP1 REVERT JUMPDEST PUSH2 0x22EB DUP4 DUP4 MLOAD PUSH1 0x20 DUP6 ADD PUSH2 0x308C JUMP JUMPDEST PUSH1 0x0 DUP3 PUSH1 0x1F DUP4 ADD SLT PUSH2 0x3181 JUMPI PUSH1 0x0 DUP1 REVERT JUMPDEST DUP2 MLOAD PUSH1 0x20 PUSH2 0x3191 PUSH2 0x2A66 DUP4 PUSH2 0x3069 JUMP JUMPDEST DUP3 DUP2 MSTORE PUSH1 0x5 SWAP3 SWAP1 SWAP3 SHL DUP5 ADD DUP2 ADD SWAP2 DUP2 DUP2 ADD SWAP1 DUP7 DUP5 GT ISZERO PUSH2 0x31B0 JUMPI PUSH1 0x0 DUP1 REVERT JUMPDEST DUP3 DUP7 ADD JUMPDEST DUP5 DUP2 LT ISZERO PUSH2 0x124C JUMPI DUP1 MLOAD PUSH1 0x1 PUSH1 0x1 PUSH1 0x40 SHL SUB DUP2 GT ISZERO PUSH2 0x31D3 JUMPI PUSH1 0x0 DUP1 DUP2 REVERT JUMPDEST PUSH2 0x31E1 DUP10 DUP7 DUP4 DUP12 ADD ADD PUSH2 0x3150 JUMP JUMPDEST DUP5 MSTORE POP SWAP2 DUP4 ADD SWAP2 DUP4 ADD PUSH2 0x31B4 JUMP JUMPDEST PUSH1 0x0 DUP1 PUSH1 0x0 DUP1 PUSH1 0x80 DUP6 DUP8 SUB SLT ISZERO PUSH2 0x3205 JUMPI PUSH1 0x0 DUP1 REVERT JUMPDEST DUP5 MLOAD SWAP4 POP PUSH1 0x20 DUP1 DUP7 ADD MLOAD PUSH1 0x1 PUSH1 0x1 PUSH1 0x40 SHL SUB DUP1 DUP3 GT ISZERO PUSH2 0x3224 JUMPI PUSH1 0x0 DUP1 REVERT JUMPDEST DUP2 DUP9 ADD SWAP2 POP DUP9 PUSH1 0x1F DUP4 ADD SLT PUSH2 0x3238 JUMPI PUSH1 0x0 DUP1 REVERT JUMPDEST DUP2 MLOAD PUSH2 0x3246 PUSH2 0x2A66 DUP3 PUSH2 0x3069 JUMP JUMPDEST DUP2 DUP2 MSTORE PUSH1 0x5 SWAP2 SWAP1 SWAP2 SHL DUP4 ADD DUP5 ADD SWAP1 DUP5 DUP2 ADD SWAP1 DUP12 DUP4 GT ISZERO PUSH2 0x3265 JUMPI PUSH1 0x0 DUP1 REVERT JUMPDEST SWAP4 DUP6 ADD SWAP4 JUMPDEST DUP3 DUP6 LT ISZERO PUSH2 0x3283 JUMPI DUP5 MLOAD DUP3 MSTORE SWAP4 DUP6 ADD SWAP4 SWAP1 DUP6 ADD SWAP1 PUSH2 0x326A JUMP JUMPDEST PUSH1 0x40 DUP12 ADD MLOAD SWAP1 SWAP9 POP SWAP5 POP POP POP DUP1 DUP4 GT ISZERO PUSH2 0x329C JUMPI PUSH1 0x0 DUP1 REVERT JUMPDEST PUSH2 0x32A8 DUP10 DUP5 DUP11 ADD PUSH2 0x30BC JUMP JUMPDEST SWAP5 POP PUSH1 0x60 DUP9 ADD MLOAD SWAP3 POP DUP1 DUP4 GT ISZERO PUSH2 0x32BE JUMPI PUSH1 0x0 DUP1 REVERT JUMPDEST POP POP PUSH2 0x32CC DUP8 DUP3 DUP9 ADD PUSH2 0x3170 JUMP JUMPDEST SWAP2 POP POP SWAP3 SWAP6 SWAP2 SWAP5 POP SWAP3 POP JUMP JUMPDEST PUSH4 0x4E487B71 PUSH1 0xE0 SHL PUSH1 0x0 MSTORE PUSH1 0x32 PUSH1 0x4 MSTORE PUSH1 0x24 PUSH1 0x0 REVERT JUMPDEST PUSH1 0x0 DUP3 MLOAD PUSH2 0x3300 DUP2 DUP5 PUSH1 0x20 DUP8 ADD PUSH2 0x2CDD JUMP JUMPDEST SWAP2 SWAP1 SWAP2 ADD SWAP3 SWAP2 POP POP JUMP JUMPDEST PUSH1 0x40 DUP2 MSTORE PUSH1 0x0 PUSH2 0x331D PUSH1 0x40 DUP4 ADD DUP6 PUSH2 0x2D01 JUMP JUMPDEST SWAP1 POP DUP3 PUSH1 0x20 DUP4 ADD MSTORE SWAP4 SWAP3 POP POP POP JUMP JUMPDEST DUP1 CALLDATALOAD PUSH2 0x3049 DUP2 PUSH2 0x2B7B JUMP JUMPDEST PUSH1 0x0 DUP1 PUSH1 0x0 PUSH1 0x60 DUP5 DUP7 SUB SLT ISZERO PUSH2 0x334C JUMPI PUSH1 0x0 DUP1 REVERT JUMPDEST DUP4 CALLDATALOAD PUSH1 0x1 PUSH1 0x1 PUSH1 0x40 SHL SUB DUP2 GT ISZERO PUSH2 0x3362 JUMPI PUSH1 0x0 DUP1 REVERT JUMPDEST PUSH2 0x336E DUP7 DUP3 DUP8 ADD PUSH2 0x2A47 JUMP JUMPDEST SWAP4 POP POP PUSH1 0x20 DUP5 ADD CALLDATALOAD PUSH2 0x337F DUP2 PUSH2 0x2B7B JUMP JUMPDEST SWAP3 SWAP6 SWAP3 SWAP5 POP POP POP PUSH1 0x40 SWAP2 SWAP1 SWAP2 ADD CALLDATALOAD SWAP1 JUMP JUMPDEST DUP2 DUP4 DUP3 CALLDATACOPY PUSH1 0x0 SWAP2 ADD SWAP1 DUP2 MSTORE SWAP2 SWAP1 POP JUMP JUMPDEST DUP2 DUP4 MSTORE DUP2 DUP2 PUSH1 0x20 DUP6 ADD CALLDATACOPY POP PUSH1 0x0 DUP3 DUP3 ADD PUSH1 0x20 SWAP1 DUP2 ADD SWAP2 SWAP1 SWAP2 MSTORE PUSH1 0x1F SWAP1 SWAP2 ADD PUSH1 0x1F NOT AND SWAP1 SWAP2 ADD ADD SWAP1 JUMP JUMPDEST PUSH1 0x60 DUP2 MSTORE PUSH1 0x0 PUSH2 0x33DD PUSH1 0x60 DUP4 ADD DUP9 DUP11 PUSH2 0x33A0 JUMP JUMPDEST DUP3 DUP2 SUB PUSH1 0x20 DUP5 ADD MSTORE PUSH2 0x33F0 DUP2 DUP8 DUP10 PUSH2 0x33A0 JUMP JUMPDEST SWAP1 POP DUP3 DUP2 SUB PUSH1 0x40 DUP5 ADD MSTORE PUSH2 0x3405 DUP2 DUP6 DUP8 PUSH2 0x33A0 JUMP JUMPDEST SWAP10 SWAP9 POP POP POP POP POP POP POP POP POP JUMP JUMPDEST PUSH1 0x80 DUP2 MSTORE PUSH1 0x0 PUSH2 0x3426 PUSH1 0x80 DUP4 ADD DUP10 DUP12 PUSH2 0x33A0 JUMP JUMPDEST DUP3 DUP2 SUB PUSH1 0x20 DUP5 ADD MSTORE PUSH2 0x3439 DUP2 DUP9 DUP11 PUSH2 0x33A0 JUMP JUMPDEST SWAP1 POP DUP3 DUP2 SUB PUSH1 0x40 DUP5 ADD MSTORE PUSH2 0x344E DUP2 DUP7 DUP9 PUSH2 0x33A0 JUMP JUMPDEST SWAP2 POP POP DUP3 PUSH1 0x60 DUP4 ADD MSTORE SWAP9 SWAP8 POP POP POP POP POP POP POP POP JUMP JUMPDEST PUSH1 0x0 DUP1 PUSH1 0x40 DUP4 DUP6 SUB SLT ISZERO PUSH2 0x3476 JUMPI PUSH1 0x0 DUP1 REVERT JUMPDEST DUP3 CALLDATALOAD PUSH1 0x1 PUSH1 0x1 PUSH1 0x40 SHL SUB DUP2 GT ISZERO PUSH2 0x348C JUMPI PUSH1 0x0 DUP1 REVERT JUMPDEST PUSH2 0x3498 DUP6 DUP3 DUP7 ADD PUSH2 0x2A47 JUMP JUMPDEST SWAP6 PUSH1 0x20 SWAP5 SWAP1 SWAP5 ADD CALLDATALOAD SWAP5 POP POP POP POP JUMP JUMPDEST PUSH4 0x4E487B71 PUSH1 0xE0 SHL PUSH1 0x0 MSTORE PUSH1 0x21 PUSH1 0x4 MSTORE PUSH1 0x24 PUSH1 0x0 REVERT JUMPDEST PUSH1 0x0 PUSH1 0x20 DUP3 DUP5 SUB SLT ISZERO PUSH2 0x34CF JUMPI PUSH1 0x0 DUP1 REVERT JUMPDEST POP MLOAD SWAP2 SWAP1 POP JUMP JUMPDEST PUSH1 0x1 PUSH1 0x1 PUSH1 0xA0 SHL SUB DUP4 AND DUP2 MSTORE PUSH1 0x40 PUSH1 0x20 DUP3 ADD DUP2 SWAP1 MSTORE PUSH1 0x0 SWAP1 PUSH2 0x2AD1 SWAP1 DUP4 ADD DUP5 PUSH2 0x2D01 JUMP JUMPDEST PUSH1 0x0 DUP1 PUSH1 0x40 DUP4 DUP6 SUB SLT ISZERO PUSH2 0x350D JUMPI PUSH1 0x0 DUP1 REVERT JUMPDEST PUSH2 0x3516 DUP4 PUSH2 0x3039 JUMP JUMPDEST SWAP2 POP PUSH1 0x20 DUP4 ADD MLOAD PUSH1 0x1 PUSH1 0x1 PUSH1 0x40 SHL SUB DUP2 GT ISZERO PUSH2 0x3531 JUMPI PUSH1 0x0 DUP1 REVERT JUMPDEST PUSH2 0x3016 DUP6 DUP3 DUP7 ADD PUSH2 0x3150 JUMP JUMPDEST PUSH1 0x0 DUP1 PUSH1 0x0 DUP1 PUSH1 0x0 DUP1 PUSH1 0x0 DUP1 PUSH2 0x100 DUP10 DUP12 SUB SLT ISZERO PUSH2 0x355A JUMPI PUSH1 0x0 DUP1 REVERT JUMPDEST DUP9 CALLDATALOAD PUSH1 0x1 PUSH1 0x1 PUSH1 0x40 SHL SUB DUP1 DUP3 GT ISZERO PUSH2 0x3571 JUMPI PUSH1 0x0 DUP1 REVERT JUMPDEST PUSH2 0x357D DUP13 DUP4 DUP14 ADD PUSH2 0x2A47 JUMP JUMPDEST SWAP10 POP PUSH1 0x20 DUP12 ADD CALLDATALOAD SWAP2 POP DUP1 DUP3 GT ISZERO PUSH2 0x3593 JUMPI PUSH1 0x0 DUP1 REVERT JUMPDEST PUSH2 0x359F DUP13 DUP4 DUP14 ADD PUSH2 0x2A47 JUMP JUMPDEST SWAP9 POP PUSH2 0x35AD PUSH1 0x40 DUP13 ADD PUSH2 0x332C JUMP JUMPDEST SWAP8 POP PUSH1 0x60 DUP12 ADD CALLDATALOAD SWAP7 POP PUSH1 0x80 DUP12 ADD CALLDATALOAD SWAP2 POP DUP1 DUP3 GT ISZERO PUSH2 0x35CA JUMPI PUSH1 0x0 DUP1 REVERT JUMPDEST POP PUSH2 0x35D7 DUP12 DUP3 DUP13 ADD PUSH2 0x2A47 JUMP JUMPDEST SWAP9 SWAP12 SWAP8 SWAP11 POP SWAP6 SWAP9 SWAP5 SWAP8 SWAP7 PUSH1 0xA0 DUP7 ADD CALLDATALOAD SWAP7 POP PUSH1 0xC0 DUP7 ADD CALLDATALOAD SWAP6 PUSH1 0xE0 ADD CALLDATALOAD SWAP5 POP SWAP3 POP POP POP JUMP JUMPDEST PUSH1 0xC0 DUP2 MSTORE PUSH1 0x0 PUSH2 0x360D PUSH1 0xC0 DUP4 ADD DUP10 PUSH2 0x2D01 JUMP JUMPDEST DUP3 DUP2 SUB PUSH1 0x20 DUP5 ADD MSTORE PUSH2 0x361F DUP2 DUP10 PUSH2 0x2D01 JUMP JUMPDEST SWAP1 POP DUP3 DUP2 SUB PUSH1 0x40 DUP5 ADD MSTORE PUSH2 0x3633 DUP2 DUP9 PUSH2 0x2D01 JUMP JUMPDEST PUSH1 0x60 DUP5 ADD SWAP7 SWAP1 SWAP7 MSTORE POP POP PUSH1 0x80 DUP2 ADD SWAP3 SWAP1 SWAP3 MSTORE PUSH1 0xA0 SWAP1 SWAP2 ADD MSTORE SWAP4 SWAP3 POP POP POP JUMP JUMPDEST PUSH1 0x0 DUP1 DUP4 CALLDATALOAD PUSH1 0x1E NOT DUP5 CALLDATASIZE SUB ADD DUP2 SLT PUSH2 0x3669 JUMPI PUSH1 0x0 DUP1 REVERT JUMPDEST DUP4 ADD DUP1 CALLDATALOAD SWAP2 POP PUSH1 0x1 PUSH1 0x1 PUSH1 0x40 SHL SUB DUP3 GT ISZERO PUSH2 0x3683 JUMPI PUSH1 0x0 DUP1 REVERT JUMPDEST PUSH1 0x20 ADD SWAP2 POP CALLDATASIZE DUP2 SWAP1 SUB DUP3 SGT ISZERO PUSH2 0x27E1 JUMPI PUSH1 0x0 DUP1 REVERT JUMPDEST PUSH1 0x0 DUP1 PUSH1 0x0 DUP1 PUSH1 0x0 DUP1 PUSH1 0xC0 DUP8 DUP10 SUB SLT ISZERO PUSH2 0x36B1 JUMPI PUSH1 0x0 DUP1 REVERT JUMPDEST DUP7 CALLDATALOAD PUSH1 0x1 PUSH1 0x1 PUSH1 0x40 SHL SUB DUP1 DUP3 GT ISZERO PUSH2 0x36C8 JUMPI PUSH1 0x0 DUP1 REVERT JUMPDEST PUSH2 0x36D4 DUP11 DUP4 DUP12 ADD PUSH2 0x2A47 JUMP JUMPDEST SWAP8 POP PUSH1 0x20 DUP10 ADD CALLDATALOAD SWAP2 POP DUP1 DUP3 GT ISZERO PUSH2 0x36EA JUMPI PUSH1 0x0 DUP1 REVERT JUMPDEST POP PUSH2 0x36F7 DUP10 DUP3 DUP11 ADD PUSH2 0x2A47 JUMP JUMPDEST SWAP6 POP POP PUSH1 0x40 DUP8 ADD CALLDATALOAD PUSH1 0xFF DUP2 AND DUP2 EQ PUSH2 0x370E JUMPI PUSH1 0x0 DUP1 REVERT JUMPDEST SWAP4 POP PUSH1 0x60 DUP8 ADD CALLDATALOAD SWAP3 POP PUSH1 0x80 DUP8 ADD CALLDATALOAD PUSH2 0x3725 DUP2 PUSH2 0x2B7B JUMP JUMPDEST DUP1 SWAP3 POP POP PUSH1 0xA0 DUP8 ADD CALLDATALOAD SWAP1 POP SWAP3 SWAP6 POP SWAP3 SWAP6 POP SWAP3 SWAP6 JUMP JUMPDEST PUSH1 0xA0 DUP2 MSTORE PUSH1 0x0 PUSH2 0x374D PUSH1 0xA0 DUP4 ADD DUP9 PUSH2 0x2D01 JUMP JUMPDEST DUP3 DUP2 SUB PUSH1 0x20 DUP5 ADD MSTORE PUSH2 0x375F DUP2 DUP9 PUSH2 0x2D01 JUMP JUMPDEST PUSH1 0xFF SWAP7 SWAP1 SWAP7 AND PUSH1 0x40 DUP5 ADD MSTORE POP POP PUSH1 0x60 DUP2 ADD SWAP3 SWAP1 SWAP3 MSTORE PUSH1 0x80 SWAP1 SWAP2 ADD MSTORE SWAP3 SWAP2 POP POP JUMP JUMPDEST PUSH1 0x0 PUSH1 0x20 DUP3 DUP5 SUB SLT ISZERO PUSH2 0x3792 JUMPI PUSH1 0x0 DUP1 REVERT JUMPDEST DUP2 MLOAD PUSH2 0x22EB DUP2 PUSH2 0x2B7B JUMP JUMPDEST PUSH1 0x40 DUP2 MSTORE PUSH1 0x0 PUSH2 0x37B0 PUSH1 0x40 DUP4 ADD DUP6 PUSH2 0x2D01 JUMP JUMPDEST SWAP1 POP PUSH1 0x1 DUP1 PUSH1 0xA0 SHL SUB DUP4 AND PUSH1 0x20 DUP4 ADD MSTORE SWAP4 SWAP3 POP POP POP JUMP JUMPDEST PUSH1 0x20 DUP2 MSTORE PUSH1 0x0 PUSH2 0x2AD1 PUSH1 0x20 DUP4 ADD DUP5 DUP7 PUSH2 0x33A0 JUMP JUMPDEST PUSH1 0x1 DUP2 DUP2 SHR SWAP1 DUP3 AND DUP1 PUSH2 0x37EF JUMPI PUSH1 0x7F DUP3 AND SWAP2 POP JUMPDEST PUSH1 0x20 DUP3 LT DUP2 SUB PUSH2 0x380F JUMPI PUSH4 0x4E487B71 PUSH1 0xE0 SHL PUSH1 0x0 MSTORE PUSH1 0x22 PUSH1 0x4 MSTORE PUSH1 0x24 PUSH1 0x0 REVERT JUMPDEST POP SWAP2 SWAP1 POP JUMP JUMPDEST PUSH1 0x0 DUP1 PUSH1 0x0 PUSH1 0x60 DUP5 DUP7 SUB SLT ISZERO PUSH2 0x382A JUMPI PUSH1 0x0 DUP1 REVERT JUMPDEST DUP4 CALLDATALOAD PUSH2 0x3835 DUP2 PUSH2 0x2B7B JUMP JUMPDEST SWAP3 POP PUSH1 0x20 DUP5 ADD CALLDATALOAD PUSH2 0x3845 DUP2 PUSH2 0x2B7B JUMP JUMPDEST SWAP2 POP PUSH1 0x40 DUP5 ADD CALLDATALOAD PUSH1 0x1 PUSH1 0x1 PUSH1 0x40 SHL SUB DUP2 GT ISZERO PUSH2 0x3860 JUMPI PUSH1 0x0 DUP1 REVERT JUMPDEST PUSH2 0x386C DUP7 DUP3 DUP8 ADD PUSH2 0x2A47 JUMP JUMPDEST SWAP2 POP POP SWAP3 POP SWAP3 POP SWAP3 JUMP JUMPDEST PUSH1 0xA0 DUP2 MSTORE PUSH1 0x0 PUSH2 0x388A PUSH1 0xA0 DUP4 ADD DUP12 DUP14 PUSH2 0x33A0 JUMP JUMPDEST DUP3 DUP2 SUB PUSH1 0x20 DUP5 ADD MSTORE PUSH2 0x389D DUP2 DUP11 DUP13 PUSH2 0x33A0 JUMP JUMPDEST SWAP1 POP DUP3 DUP2 SUB PUSH1 0x40 DUP5 ADD MSTORE PUSH2 0x38B2 DUP2 DUP9 DUP11 PUSH2 0x33A0 JUMP JUMPDEST SWAP1 POP DUP3 DUP2 SUB PUSH1 0x60 DUP5 ADD MSTORE PUSH2 0x38C7 DUP2 DUP7 DUP9 PUSH2 0x33A0 JUMP JUMPDEST SWAP2 POP POP DUP3 PUSH1 0x80 DUP4 ADD MSTORE SWAP11 SWAP10 POP POP POP POP POP POP POP POP POP POP JUMP JUMPDEST PUSH1 0x0 DUP3 PUSH2 0x38FB JUMPI PUSH4 0x4E487B71 PUSH1 0xE0 SHL PUSH1 0x0 MSTORE PUSH1 0x12 PUSH1 0x4 MSTORE PUSH1 0x24 PUSH1 0x0 REVERT JUMPDEST POP DIV SWAP1 JUMP JUMPDEST PUSH1 0x0 DUP1 PUSH1 0x0 DUP1 PUSH1 0x0 DUP1 PUSH1 0xC0 DUP8 DUP10 SUB SLT ISZERO PUSH2 0x3919 JUMPI PUSH1 0x0 DUP1 REVERT JUMPDEST DUP7 CALLDATALOAD PUSH1 0x1 PUSH1 0x1 PUSH1 0x40 SHL SUB DUP1 DUP3 GT ISZERO PUSH2 0x3930 JUMPI PUSH1 0x0 DUP1 REVERT JUMPDEST PUSH2 0x393C DUP11 DUP4 DUP12 ADD PUSH2 0x2A47 JUMP JUMPDEST SWAP8 POP PUSH1 0x20 DUP10 ADD CALLDATALOAD SWAP2 POP DUP1 DUP3 GT ISZERO PUSH2 0x3952 JUMPI PUSH1 0x0 DUP1 REVERT JUMPDEST POP PUSH2 0x395F DUP10 DUP3 DUP11 ADD PUSH2 0x2A47 JUMP JUMPDEST SWAP6 POP POP PUSH1 0x40 DUP8 ADD CALLDATALOAD PUSH2 0x3970 DUP2 PUSH2 0x2B7B JUMP JUMPDEST SWAP6 SWAP9 SWAP5 SWAP8 POP SWAP5 SWAP6 PUSH1 0x60 DUP2 ADD CALLDATALOAD SWAP6 POP PUSH1 0x80 DUP2 ADD CALLDATALOAD SWAP5 PUSH1 0xA0 SWAP1 SWAP2 ADD CALLDATALOAD SWAP4 POP SWAP2 POP POP JUMP JUMPDEST PUSH1 0x80 DUP2 MSTORE PUSH1 0x0 PUSH2 0x39A4 PUSH1 0x80 DUP4 ADD DUP8 PUSH2 0x2D01 JUMP JUMPDEST DUP3 DUP2 SUB PUSH1 0x20 DUP5 ADD MSTORE PUSH2 0x39B6 DUP2 DUP8 PUSH2 0x2D01 JUMP JUMPDEST PUSH1 0x40 DUP5 ADD SWAP6 SWAP1 SWAP6 MSTORE POP POP PUSH1 0x60 ADD MSTORE SWAP3 SWAP2 POP POP JUMP JUMPDEST DUP1 DUP3 ADD DUP1 DUP3 GT ISZERO PUSH2 0xBB4 JUMPI PUSH4 0x4E487B71 PUSH1 0xE0 SHL PUSH1 0x0 MSTORE PUSH1 0x11 PUSH1 0x4 MSTORE PUSH1 0x24 PUSH1 0x0 REVERT JUMPDEST PUSH1 0x0 PUSH2 0x100 DUP11 DUP4 MSTORE DUP10 PUSH1 0x20 DUP5 ADD MSTORE DUP1 PUSH1 0x40 DUP5 ADD MSTORE PUSH2 0x3A0B DUP2 DUP5 ADD DUP11 PUSH2 0x2D01 JUMP JUMPDEST SWAP1 POP DUP3 DUP2 SUB PUSH1 0x60 DUP5 ADD MSTORE PUSH2 0x3A1F DUP2 DUP10 PUSH2 0x2D01 JUMP JUMPDEST PUSH1 0x1 PUSH1 0x1 PUSH1 0xA0 SHL SUB DUP9 AND PUSH1 0x80 DUP6 ADD MSTORE PUSH1 0xA0 DUP5 ADD DUP8 SWAP1 MSTORE DUP4 DUP2 SUB PUSH1 0xC0 DUP6 ADD MSTORE SWAP1 POP PUSH2 0x3A49 DUP2 DUP7 PUSH2 0x2D01 JUMP JUMPDEST SWAP2 POP POP DUP3 PUSH1 0xE0 DUP4 ADD MSTORE SWAP10 SWAP9 POP POP POP POP POP POP POP POP POP JUMP JUMPDEST DUP3 DUP2 MSTORE PUSH1 0x0 DUP3 MLOAD PUSH2 0x3A77 DUP2 PUSH1 0x20 DUP6 ADD PUSH1 0x20 DUP8 ADD PUSH2 0x2CDD JUMP JUMPDEST SWAP2 SWAP1 SWAP2 ADD PUSH1 0x20 ADD SWAP4 SWAP3 POP POP POP JUMP JUMPDEST DUP7 DUP2 MSTORE DUP6 PUSH1 0x20 DUP3 ADD MSTORE PUSH1 0xC0 PUSH1 0x40 DUP3 ADD MSTORE PUSH1 0x0 PUSH2 0x3AA4 PUSH1 0xC0 DUP4 ADD DUP8 PUSH2 0x2D01 JUMP JUMPDEST DUP3 DUP2 SUB PUSH1 0x60 DUP5 ADD MSTORE PUSH2 0x3AB6 DUP2 DUP8 PUSH2 0x2D01 JUMP JUMPDEST PUSH1 0x1 PUSH1 0x1 PUSH1 0xA0 SHL SUB SWAP6 SWAP1 SWAP6 AND PUSH1 0x80 DUP5 ADD MSTORE POP POP PUSH1 0xA0 ADD MSTORE SWAP5 SWAP4 POP POP POP POP JUMP JUMPDEST DUP4 DUP2 MSTORE PUSH1 0x60 PUSH1 0x20 DUP3 ADD MSTORE PUSH1 0x0 PUSH2 0x3AEE PUSH1 0x60 DUP4 ADD DUP6 PUSH2 0x2D01 JUMP JUMPDEST SWAP1 POP DUP3 PUSH1 0x40 DUP4 ADD MSTORE SWAP5 SWAP4 POP POP POP POP JUMP INVALID PUSH1 0x80 PUSH1 0x40 MSTORE PUSH1 0x1 PUSH1 0x0 SSTORE CALLVALUE DUP1 ISZERO PUSH2 0x15 JUMPI PUSH1 0x0 DUP1 REVERT JUMPDEST POP PUSH2 0x2D3 DUP1 PUSH2 0x25 PUSH1 0x0 CODECOPY PUSH1 0x0 RETURN INVALID PUSH1 0x80 PUSH1 0x40 MSTORE CALLVALUE DUP1 ISZERO PUSH2 0x10 JUMPI PUSH1 0x0 DUP1 REVERT JUMPDEST POP PUSH1 0x4 CALLDATASIZE LT PUSH2 0x35 JUMPI PUSH1 0x0 CALLDATALOAD PUSH1 0xE0 SHR DUP1 PUSH3 0xF55D9D EQ PUSH2 0x3A JUMPI DUP1 PUSH4 0x1CFF79CD EQ PUSH2 0x4F JUMPI JUMPDEST PUSH1 0x0 DUP1 REVERT JUMPDEST PUSH2 0x4D PUSH2 0x48 CALLDATASIZE PUSH1 0x4 PUSH2 0x18F JUMP JUMPDEST PUSH2 0x79 JUMP JUMPDEST STOP JUMPDEST PUSH2 0x62 PUSH2 0x5D CALLDATASIZE PUSH1 0x4 PUSH2 0x1B1 JUMP JUMPDEST PUSH2 0xAD JUMP JUMPDEST PUSH1 0x40 MLOAD PUSH2 0x70 SWAP3 SWAP2 SWAP1 PUSH2 0x234 JUMP JUMPDEST PUSH1 0x40 MLOAD DUP1 SWAP2 SUB SWAP1 RETURN JUMPDEST PUSH1 0x2 PUSH1 0x0 SLOAD SUB PUSH2 0x9C JUMPI PUSH1 0x40 MLOAD PUSH4 0xCAA30F55 PUSH1 0xE0 SHL DUP2 MSTORE PUSH1 0x4 ADD PUSH1 0x40 MLOAD DUP1 SWAP2 SUB SWAP1 REVERT JUMPDEST PUSH1 0x2 PUSH1 0x0 SSTORE PUSH1 0x1 PUSH1 0x1 PUSH1 0xA0 SHL SUB DUP2 AND SELFDESTRUCT JUMPDEST PUSH1 0x0 PUSH1 0x60 PUSH1 0x2 PUSH1 0x0 SLOAD SUB PUSH2 0xD4 JUMPI PUSH1 0x40 MLOAD PUSH4 0xCAA30F55 PUSH1 0xE0 SHL DUP2 MSTORE PUSH1 0x4 ADD PUSH1 0x40 MLOAD DUP1 SWAP2 SUB SWAP1 REVERT JUMPDEST PUSH1 0x2 PUSH1 0x0 SWAP1 DUP2 SSTORE PUSH1 0x1 PUSH1 0x1 PUSH1 0xA0 SHL SUB DUP7 AND EXTCODESIZE SWAP1 SUB PUSH2 0x105 JUMPI PUSH1 0x40 MLOAD PUSH4 0x6F7C43F1 PUSH1 0xE0 SHL DUP2 MSTORE PUSH1 0x4 ADD PUSH1 0x40 MLOAD DUP1 SWAP2 SUB SWAP1 REVERT JUMPDEST DUP5 PUSH1 0x1 PUSH1 0x1 PUSH1 0xA0 SHL SUB AND DUP5 DUP5 PUSH1 0x40 MLOAD PUSH2 0x11F SWAP3 SWAP2 SWAP1 PUSH2 0x28D JUMP JUMPDEST PUSH1 0x0 PUSH1 0x40 MLOAD DUP1 DUP4 SUB DUP2 PUSH1 0x0 DUP7 GAS CALL SWAP2 POP POP RETURNDATASIZE DUP1 PUSH1 0x0 DUP2 EQ PUSH2 0x15C JUMPI PUSH1 0x40 MLOAD SWAP2 POP PUSH1 0x1F NOT PUSH1 0x3F RETURNDATASIZE ADD AND DUP3 ADD PUSH1 0x40 MSTORE RETURNDATASIZE DUP3 MSTORE RETURNDATASIZE PUSH1 0x0 PUSH1 0x20 DUP5 ADD RETURNDATACOPY PUSH2 0x161 JUMP JUMPDEST PUSH1 0x60 SWAP2 POP JUMPDEST POP PUSH1 0x1 PUSH1 0x0 SSTORE SWAP1 SWAP7 SWAP1 SWAP6 POP SWAP4 POP POP POP POP JUMP JUMPDEST DUP1 CALLDATALOAD PUSH1 0x1 PUSH1 0x1 PUSH1 0xA0 SHL SUB DUP2 AND DUP2 EQ PUSH2 0x18A JUMPI PUSH1 0x0 DUP1 REVERT JUMPDEST SWAP2 SWAP1 POP JUMP JUMPDEST PUSH1 0x0 PUSH1 0x20 DUP3 DUP5 SUB SLT ISZERO PUSH2 0x1A1 JUMPI PUSH1 0x0 DUP1 REVERT JUMPDEST PUSH2 0x1AA DUP3 PUSH2 0x173 JUMP JUMPDEST SWAP4 SWAP3 POP POP POP JUMP JUMPDEST PUSH1 0x0 DUP1 PUSH1 0x0 PUSH1 0x40 DUP5 DUP7 SUB SLT ISZERO PUSH2 0x1C6 JUMPI PUSH1 0x0 DUP1 REVERT JUMPDEST PUSH2 0x1CF DUP5 PUSH2 0x173 JUMP JUMPDEST SWAP3 POP PUSH1 0x20 DUP5 ADD CALLDATALOAD PUSH8 0xFFFFFFFFFFFFFFFF DUP1 DUP3 GT ISZERO PUSH2 0x1EC JUMPI PUSH1 0x0 DUP1 REVERT JUMPDEST DUP2 DUP7 ADD SWAP2 POP DUP7 PUSH1 0x1F DUP4 ADD SLT PUSH2 0x200 JUMPI PUSH1 0x0 DUP1 REVERT JUMPDEST DUP2 CALLDATALOAD DUP2 DUP2 GT ISZERO PUSH2 0x20F JUMPI PUSH1 0x0 DUP1 REVERT JUMPDEST DUP8 PUSH1 0x20 DUP3 DUP6 ADD ADD GT ISZERO PUSH2 0x221 JUMPI PUSH1 0x0 DUP1 REVERT JUMPDEST PUSH1 0x20 DUP4 ADD SWAP5 POP DUP1 SWAP4 POP POP POP POP SWAP3 POP SWAP3 POP SWAP3 JUMP JUMPDEST DUP3 ISZERO ISZERO DUP2 MSTORE PUSH1 0x0 PUSH1 0x20 PUSH1 0x40 PUSH1 0x20 DUP5 ADD MSTORE DUP4 MLOAD DUP1 PUSH1 0x40 DUP6 ADD MSTORE PUSH1 0x0 JUMPDEST DUP2 DUP2 LT ISZERO PUSH2 0x26B JUMPI DUP6 DUP2 ADD DUP4 ADD MLOAD DUP6 DUP3 ADD PUSH1 0x60 ADD MSTORE DUP3 ADD PUSH2 0x24F JUMP JUMPDEST POP PUSH1 0x0 PUSH1 0x60 DUP3 DUP7 ADD ADD MSTORE PUSH1 0x60 PUSH1 0x1F NOT PUSH1 0x1F DUP4 ADD AND DUP6 ADD ADD SWAP3 POP POP POP SWAP4 SWAP3 POP POP POP JUMP JUMPDEST DUP2 DUP4 DUP3 CALLDATACOPY PUSH1 0x0 SWAP2 ADD SWAP1 DUP2 MSTORE SWAP2 SWAP1 POP JUMP INVALID LOG2 PUSH5 0x6970667358 0x22 SLT KECCAK256 MOD 0xF9 0xD3 PUSH31 0xE977C070AB0BEED5622642ADAA8CF7C371495D427AB33E342FDD4AC164736F PUSH13 0x63430008180033ABEA6FD3DB56 0xA6 0xE6 0xD0 0x24 0x21 GT 0xB4 RETURNDATACOPY 0xBB SGT 0xD1 0xC4 0x27 MULMOD PUSH6 0x1C032C789496 KECCAK256 0x23 LOG1 0xF9 MULMOD PUSH3 0x7F0C11 PUSH20 0x2837B3240A2DE89C0B6343512886DD50978B99C7 PUSH11 0x68C6416A4D92A264697066 PUSH20 0x582212209BFC7D59BC61B3440550D399E39EA21A CHAINID 0xB4 SWAP5 0xB9 0xDB DUP2 0xEF JUMPDEST SWAP8 PUSH17 0x9FA348BF64FD64736F6C63430008180033 "},"methodIdentifiers":{"allTokensFrozen()":"aa1e1f0a","approveContractCall(bytes,bytes32)":"fbe0a31b","approveContractCallWithMint(bytes,bytes32)":"585a9fd4","authModule()":"64940c56","burnToken(bytes,bytes32)":"4656ae2e","callContract(string,string,bytes)":"1c92115f","callContractWithToken(string,string,bytes,string,uint256)":"b5417084","contractId()":"8291286c","deployToken(bytes,bytes32)":"886a625d","execute(bytes)":"09c5eabe","getAddress(bytes32)":"21f8a721","getBool(bytes32)":"7ae1cfca","getBytes(bytes32)":"c031a180","getInt(bytes32)":"dc97d962","getString(bytes32)":"986e791a","getUint(bytes32)":"bd02d0f5","governance()":"5aa6e675","implementation()":"5c60da1b","isCommandExecuted(bytes32)":"d26ff210","isContractCallAndMintApproved(bytes32,string,string,address,bytes32,string,uint256)":"bc00c216","isContractCallApproved(bytes32,string,string,address,bytes32)":"f6a5f9f5","mintLimiter()":"c82fe87a","mintToken(bytes,bytes32)":"146e2d78","sendToken(string,string,string,uint256)":"26ef699d","setTokenMintLimits(string[],uint256[])":"67ace8eb","setup(bytes)":"9ded06df","tokenAddresses(string)":"935b13f6","tokenDeployer()":"2a2dae0a","tokenFrozen(string)":"7b1b769e","tokenMintAmount(string)":"cec7b359","tokenMintLimit(string)":"269eb65e","transferGovernance(address)":"d38bfff4","transferMintLimiter(address)":"41d8f26b","transferOperatorship(bytes,bytes32)":"97b87ba6","upgrade(address,bytes32,bytes)":"a3499c73","validateContractCall(bytes32,string,string,bytes32)":"5f6970c3","validateContractCallAndMint(bytes32,string,string,bytes32,string,uint256)":"1876eed9"}}}}}