{"contracts/axelar/AxelarGateway.sol":{"AxelarGateway":{"abi":[{"inputs":[{"internalType":"address","name":"authModule_","type":"address"},{"internalType":"address","name":"tokenDeployer_","type":"address"}],"stateMutability":"nonpayable","type":"constructor"},{"inputs":[{"internalType":"string","name":"symbol","type":"string"}],"name":"BurnFailed","type":"error"},{"inputs":[{"internalType":"string","name":"symbol","type":"string"}],"name":"ExceedMintLimit","type":"error"},{"inputs":[],"name":"InvalidAmount","type":"error"},{"inputs":[],"name":"InvalidAuthModule","type":"error"},{"inputs":[],"name":"InvalidChainId","type":"error"},{"inputs":[],"name":"InvalidCodeHash","type":"error"},{"inputs":[],"name":"InvalidCommands","type":"error"},{"inputs":[],"name":"InvalidGovernance","type":"error"},{"inputs":[],"name":"InvalidImplementation","type":"error"},{"inputs":[],"name":"InvalidMintLimiter","type":"error"},{"inputs":[],"name":"InvalidSetMintLimitsParams","type":"error"},{"inputs":[],"name":"InvalidTokenDeployer","type":"error"},{"inputs":[{"internalType":"string","name":"symbol","type":"string"}],"name":"MintFailed","type":"error"},{"inputs":[],"name":"NotGovernance","type":"error"},{"inputs":[],"name":"NotMintLimiter","type":"error"},{"inputs":[],"name":"NotProxy","type":"error"},{"inputs":[],"name":"NotSelf","type":"error"},{"inputs":[],"name":"SetupFailed","type":"error"},{"inputs":[{"internalType":"string","name":"symbol","type":"string"}],"name":"TokenAlreadyExists","type":"error"},{"inputs":[{"internalType":"address","name":"token","type":"address"}],"name":"TokenContractDoesNotExist","type":"error"},{"inputs":[{"internalType":"string","name":"symbol","type":"string"}],"name":"TokenDeployFailed","type":"error"},{"inputs":[{"internalType":"string","name":"symbol","type":"string"}],"name":"TokenDoesNotExist","type":"error"},{"inputs":[],"name":"TokenTransferFailed","type":"error"},{"anonymous":false,"inputs":[{"indexed":false,"internalType":"bytes4","name":"commandSelector","type":"bytes4"}],"name":"CommandSelector","type":"event"},{"anonymous":false,"inputs":[{"indexed":true,"internalType":"address","name":"sender","type":"address"},{"indexed":false,"internalType":"string","name":"destinationChain","type":"string"},{"indexed":false,"internalType":"string","name":"destinationContractAddress","type":"string"},{"indexed":true,"internalType":"bytes32","name":"payloadHash","type":"bytes32"},{"indexed":false,"internalType":"bytes","name":"payload","type":"bytes"}],"name":"ContractCall","type":"event"},{"anonymous":false,"inputs":[{"indexed":true,"internalType":"bytes32","name":"commandId","type":"bytes32"},{"indexed":false,"internalType":"string","name":"sourceChain","type":"string"},{"indexed":false,"internalType":"string","name":"sourceAddress","type":"string"},{"indexed":true,"internalType":"address","name":"contractAddress","type":"address"},{"indexed":true,"internalType":"bytes32","name":"payloadHash","type":"bytes32"},{"indexed":false,"internalType":"bytes32","name":"sourceTxHash","type":"bytes32"},{"indexed":false,"internalType":"uint256","name":"sourceEventIndex","type":"uint256"}],"name":"ContractCallApproved","type":"event"},{"anonymous":false,"inputs":[{"indexed":true,"internalType":"bytes32","name":"commandId","type":"bytes32"},{"indexed":false,"internalType":"string","name":"sourceChain","type":"string"},{"indexed":false,"internalType":"string","name":"sourceAddress","type":"string"},{"indexed":true,"internalType":"address","name":"contractAddress","type":"address"},{"indexed":true,"internalType":"bytes32","name":"payloadHash","type":"bytes32"},{"indexed":false,"internalType":"string","name":"symbol","type":"string"},{"indexed":false,"internalType":"uint256","name":"amount","type":"uint256"},{"indexed":false,"internalType":"bytes32","name":"sourceTxHash","type":"bytes32"},{"indexed":false,"internalType":"uint256","name":"sourceEventIndex","type":"uint256"}],"name":"ContractCallApprovedWithMint","type":"event"},{"anonymous":false,"inputs":[{"indexed":true,"internalType":"bytes32","name":"commandId","type":"bytes32"}],"name":"ContractCallExecuted","type":"event"},{"anonymous":false,"inputs":[{"indexed":true,"internalType":"address","name":"sender","type":"address"},{"indexed":false,"internalType":"string","name":"destinationChain","type":"string"},{"indexed":false,"internalType":"string","name":"destinationContractAddress","type":"string"},{"indexed":true,"internalType":"bytes32","name":"payloadHash","type":"bytes32"},{"indexed":false,"internalType":"bytes","name":"payload","type":"bytes"},{"indexed":false,"internalType":"string","name":"symbol","type":"string"},{"indexed":false,"internalType":"uint256","name":"amount","type":"uint256"}],"name":"ContractCallWithToken","type":"event"},{"anonymous":false,"inputs":[{"indexed":false,"internalType":"uint256","name":"chainId","type":"uint256"},{"indexed":false,"internalType":"bytes32[]","name":"commandIds","type":"bytes32[]"},{"indexed":false,"internalType":"string[]","name":"commands","type":"string[]"},{"indexed":false,"internalType":"bytes[]","name":"params","type":"bytes[]"}],"name":"DecodedData","type":"event"},{"anonymous":false,"inputs":[{"indexed":false,"internalType":"bytes","name":"data","type":"bytes"},{"indexed":false,"internalType":"bytes","name":"proof","type":"bytes"}],"name":"DecodedParam","type":"event"},{"anonymous":false,"inputs":[],"name":"ExecuteInit","type":"event"},{"anonymous":false,"inputs":[{"indexed":true,"internalType":"bytes32","name":"commandId","type":"bytes32"}],"name":"Executed","type":"event"},{"anonymous":false,"inputs":[{"indexed":true,"internalType":"address","name":"previousGovernance","type":"address"},{"indexed":true,"internalType":"address","name":"newGovernance","type":"address"}],"name":"GovernanceTransferred","type":"event"},{"anonymous":false,"inputs":[{"indexed":true,"internalType":"address","name":"previousGovernance","type":"address"},{"indexed":true,"internalType":"address","name":"newGovernance","type":"address"}],"name":"MintLimiterTransferred","type":"event"},{"anonymous":false,"inputs":[{"indexed":false,"internalType":"bytes","name":"newOperatorsData","type":"bytes"}],"name":"OperatorshipTransferred","type":"event"},{"anonymous":false,"inputs":[],"name":"ProofValidated","type":"event"},{"anonymous":false,"inputs":[],"name":"SetCommandSelectorSuccess","type":"event"},{"anonymous":false,"inputs":[],"name":"SignMessageHash","type":"event"},{"anonymous":false,"inputs":[{"indexed":false,"internalType":"string","name":"symbol","type":"string"},{"indexed":false,"internalType":"address","name":"tokenAddresses","type":"address"}],"name":"TokenDeployed","type":"event"},{"anonymous":false,"inputs":[{"indexed":false,"internalType":"string","name":"symbol","type":"string"},{"indexed":false,"internalType":"uint256","name":"limit","type":"uint256"}],"name":"TokenMintLimitUpdated","type":"event"},{"anonymous":false,"inputs":[{"indexed":true,"internalType":"address","name":"sender","type":"address"},{"indexed":false,"internalType":"string","name":"destinationChain","type":"string"},{"indexed":false,"internalType":"string","name":"destinationAddress","type":"string"},{"indexed":false,"internalType":"string","name":"symbol","type":"string"},{"indexed":false,"internalType":"uint256","name":"amount","type":"uint256"}],"name":"TokenSent","type":"event"},{"anonymous":false,"inputs":[{"indexed":true,"internalType":"address","name":"implementation","type":"address"}],"name":"Upgraded","type":"event"},{"inputs":[],"name":"allTokensFrozen","outputs":[{"internalType":"bool","name":"","type":"bool"}],"stateMutability":"pure","type":"function"},{"inputs":[{"internalType":"bytes","name":"params","type":"bytes"},{"internalType":"bytes32","name":"commandId","type":"bytes32"}],"name":"approveContractCall","outputs":[],"stateMutability":"nonpayable","type":"function"},{"inputs":[{"internalType":"bytes","name":"params","type":"bytes"},{"internalType":"bytes32","name":"commandId","type":"bytes32"}],"name":"approveContractCallWithMint","outputs":[],"stateMutability":"nonpayable","type":"function"},{"inputs":[],"name":"authModule","outputs":[{"internalType":"address","name":"","type":"address"}],"stateMutability":"view","type":"function"},{"inputs":[{"internalType":"bytes","name":"params","type":"bytes"},{"internalType":"bytes32","name":"","type":"bytes32"}],"name":"burnToken","outputs":[],"stateMutability":"nonpayable","type":"function"},{"inputs":[{"internalType":"string","name":"destinationChain","type":"string"},{"internalType":"string","name":"destinationContractAddress","type":"string"},{"internalType":"bytes","name":"payload","type":"bytes"}],"name":"callContract","outputs":[],"stateMutability":"nonpayable","type":"function"},{"inputs":[{"internalType":"string","name":"destinationChain","type":"string"},{"internalType":"string","name":"destinationContractAddress","type":"string"},{"internalType":"bytes","name":"payload","type":"bytes"},{"internalType":"string","name":"symbol","type":"string"},{"internalType":"uint256","name":"amount","type":"uint256"}],"name":"callContractWithToken","outputs":[],"stateMutability":"nonpayable","type":"function"},{"inputs":[],"name":"contractId","outputs":[{"internalType":"bytes32","name":"","type":"bytes32"}],"stateMutability":"pure","type":"function"},{"inputs":[{"internalType":"bytes","name":"params","type":"bytes"},{"internalType":"bytes32","name":"","type":"bytes32"}],"name":"deployToken","outputs":[],"stateMutability":"nonpayable","type":"function"},{"inputs":[{"internalType":"bytes","name":"input","type":"bytes"}],"name":"execute","outputs":[],"stateMutability":"nonpayable","type":"function"},{"inputs":[{"internalType":"bytes","name":"input","type":"bytes"}],"name":"execute1","outputs":[],"stateMutability":"nonpayable","type":"function"},{"inputs":[{"internalType":"bytes","name":"input","type":"bytes"}],"name":"execute2","outputs":[],"stateMutability":"nonpayable","type":"function"},{"inputs":[{"internalType":"bytes","name":"input","type":"bytes"}],"name":"execute3","outputs":[],"stateMutability":"nonpayable","type":"function"},{"inputs":[{"internalType":"bytes","name":"input","type":"bytes"}],"name":"execute4","outputs":[],"stateMutability":"nonpayable","type":"function"},{"inputs":[{"internalType":"bytes32","name":"key","type":"bytes32"}],"name":"getAddress","outputs":[{"internalType":"address","name":"","type":"address"}],"stateMutability":"view","type":"function"},{"inputs":[{"internalType":"bytes32","name":"key","type":"bytes32"}],"name":"getBool","outputs":[{"internalType":"bool","name":"","type":"bool"}],"stateMutability":"view","type":"function"},{"inputs":[{"internalType":"bytes32","name":"key","type":"bytes32"}],"name":"getBytes","outputs":[{"internalType":"bytes","name":"","type":"bytes"}],"stateMutability":"view","type":"function"},{"inputs":[{"internalType":"bytes32","name":"key","type":"bytes32"}],"name":"getInt","outputs":[{"internalType":"int256","name":"","type":"int256"}],"stateMutability":"view","type":"function"},{"inputs":[{"internalType":"bytes32","name":"key","type":"bytes32"}],"name":"getString","outputs":[{"internalType":"string","name":"","type":"string"}],"stateMutability":"view","type":"function"},{"inputs":[{"internalType":"bytes32","name":"key","type":"bytes32"}],"name":"getUint","outputs":[{"internalType":"uint256","name":"","type":"uint256"}],"stateMutability":"view","type":"function"},{"inputs":[],"name":"governance","outputs":[{"internalType":"address","name":"","type":"address"}],"stateMutability":"view","type":"function"},{"inputs":[],"name":"implementation","outputs":[{"internalType":"address","name":"","type":"address"}],"stateMutability":"view","type":"function"},{"inputs":[{"internalType":"bytes32","name":"commandId","type":"bytes32"}],"name":"isCommandExecuted","outputs":[{"internalType":"bool","name":"","type":"bool"}],"stateMutability":"view","type":"function"},{"inputs":[{"internalType":"bytes32","name":"commandId","type":"bytes32"},{"internalType":"string","name":"sourceChain","type":"string"},{"internalType":"string","name":"sourceAddress","type":"string"},{"internalType":"address","name":"contractAddress","type":"address"},{"internalType":"bytes32","name":"payloadHash","type":"bytes32"},{"internalType":"string","name":"symbol","type":"string"},{"internalType":"uint256","name":"amount","type":"uint256"}],"name":"isContractCallAndMintApproved","outputs":[{"internalType":"bool","name":"","type":"bool"}],"stateMutability":"view","type":"function"},{"inputs":[{"internalType":"bytes32","name":"commandId","type":"bytes32"},{"internalType":"string","name":"sourceChain","type":"string"},{"internalType":"string","name":"sourceAddress","type":"string"},{"internalType":"address","name":"contractAddress","type":"address"},{"internalType":"bytes32","name":"payloadHash","type":"bytes32"}],"name":"isContractCallApproved","outputs":[{"internalType":"bool","name":"","type":"bool"}],"stateMutability":"view","type":"function"},{"inputs":[],"name":"mintLimiter","outputs":[{"internalType":"address","name":"","type":"address"}],"stateMutability":"view","type":"function"},{"inputs":[{"internalType":"bytes","name":"params","type":"bytes"},{"internalType":"bytes32","name":"","type":"bytes32"}],"name":"mintToken","outputs":[],"stateMutability":"nonpayable","type":"function"},{"inputs":[{"internalType":"string","name":"destinationChain","type":"string"},{"internalType":"string","name":"destinationAddress","type":"string"},{"internalType":"string","name":"symbol","type":"string"},{"internalType":"uint256","name":"amount","type":"uint256"}],"name":"sendToken","outputs":[],"stateMutability":"nonpayable","type":"function"},{"inputs":[{"internalType":"string[]","name":"symbols","type":"string[]"},{"internalType":"uint256[]","name":"limits","type":"uint256[]"}],"name":"setTokenMintLimits","outputs":[],"stateMutability":"nonpayable","type":"function"},{"inputs":[{"internalType":"bytes","name":"params","type":"bytes"}],"name":"setup","outputs":[],"stateMutability":"nonpayable","type":"function"},{"inputs":[{"internalType":"string","name":"symbol","type":"string"}],"name":"tokenAddresses","outputs":[{"internalType":"address","name":"","type":"address"}],"stateMutability":"view","type":"function"},{"inputs":[],"name":"tokenDeployer","outputs":[{"internalType":"address","name":"","type":"address"}],"stateMutability":"view","type":"function"},{"inputs":[{"internalType":"string","name":"","type":"string"}],"name":"tokenFrozen","outputs":[{"internalType":"bool","name":"","type":"bool"}],"stateMutability":"pure","type":"function"},{"inputs":[{"internalType":"string","name":"symbol","type":"string"}],"name":"tokenMintAmount","outputs":[{"internalType":"uint256","name":"","type":"uint256"}],"stateMutability":"view","type":"function"},{"inputs":[{"internalType":"string","name":"symbol","type":"string"}],"name":"tokenMintLimit","outputs":[{"internalType":"uint256","name":"","type":"uint256"}],"stateMutability":"view","type":"function"},{"inputs":[{"internalType":"address","name":"newGovernance","type":"address"}],"name":"transferGovernance","outputs":[],"stateMutability":"nonpayable","type":"function"},{"inputs":[{"internalType":"address","name":"newMintLimiter","type":"address"}],"name":"transferMintLimiter","outputs":[],"stateMutability":"nonpayable","type":"function"},{"inputs":[{"internalType":"bytes","name":"newOperatorsData","type":"bytes"},{"internalType":"bytes32","name":"","type":"bytes32"}],"name":"transferOperatorship","outputs":[],"stateMutability":"nonpayable","type":"function"},{"inputs":[{"internalType":"address","name":"newImplementation","type":"address"},{"internalType":"bytes32","name":"newImplementationCodeHash","type":"bytes32"},{"internalType":"bytes","name":"setupParams","type":"bytes"}],"name":"upgrade","outputs":[],"stateMutability":"nonpayable","type":"function"},{"inputs":[{"internalType":"bytes32","name":"commandId","type":"bytes32"},{"internalType":"string","name":"sourceChain","type":"string"},{"internalType":"string","name":"sourceAddress","type":"string"},{"internalType":"bytes32","name":"payloadHash","type":"bytes32"}],"name":"validateContractCall","outputs":[{"internalType":"bool","name":"valid","type":"bool"}],"stateMutability":"nonpayable","type":"function"},{"inputs":[{"internalType":"bytes32","name":"commandId","type":"bytes32"},{"internalType":"string","name":"sourceChain","type":"string"},{"internalType":"string","name":"sourceAddress","type":"string"},{"internalType":"bytes32","name":"payloadHash","type":"bytes32"},{"internalType":"string","name":"symbol","type":"string"},{"internalType":"uint256","name":"amount","type":"uint256"}],"name":"validateContractCallAndMint","outputs":[{"internalType":"bool","name":"valid","type":"bool"}],"stateMutability":"nonpayable","type":"function"}],"evm":{"bytecode":{"linkReferences":{},"object":"60e06040523480156200001157600080fd5b50604051620041f3380380620041f38339810160408190526200003491620000c5565b306080526001600160a01b0382163b600003620000645760405163735326ab60e01b815260040160405180910390fd5b806001600160a01b03163b6000036200009057604051630c84dabf60e31b815260040160405180910390fd5b6001600160a01b0391821660a0521660c052620000fd565b80516001600160a01b0381168114620000c057600080fd5b919050565b60008060408385031215620000d957600080fd5b620000e483620000a8565b9150620000f460208401620000a8565b90509250929050565b60805160a05160c0516140a3620001506000396000818161033201526113670152600081816103b5015281816111ea0152818161157b015281816117700152611d1a0152600061168e01526140a36000f3fe608060405234801561001057600080fd5b50600436106102535760003560e01c80638291286c11610146578063bd02d0f5116100c3578063d26ff21011610087578063d26ff21014610567578063d38bfff41461057a578063d40669761461058d578063dc97d962146105a0578063f6a5f9f5146105c0578063fbe0a31b146105d357600080fd5b8063bd02d0f514610506578063bd217dab14610526578063c031a18014610539578063c82fe87a1461054c578063cec7b3591461055457600080fd5b80639ded06df1161010a5780639ded06df146104b3578063a3499c73146104c6578063aa1e1f0a146104d9578063b5417084146104e0578063bc00c216146104f357600080fd5b80638291286c14610434578063886a625d1461045a578063935b13f61461046d57806397b87ba614610480578063986e791a1461049357600080fd5b80634656ae2e116101d457806364940c561161019857806364940c56146103b057806367ace8eb146103d75780637ae1cfca146103ea5780637b1b769e1461040d5780637c13c8a11461042157600080fd5b80634656ae2e14610367578063585a9fd41461037a5780635aa6e6751461038d5780635c60da1b146103955780635f6970c31461039d57600080fd5b8063224c97781161021b578063224c9778146102e6578063269eb65e146102f957806326ef699d1461031a5780632a2dae0a1461032d57806341d8f26b1461035457600080fd5b806309c5eabe14610258578063146e2d781461026d5780631876eed9146102805780631c92115f146102a857806321f8a721146102bb575b600080fd5b61026b6102663660046128d1565b6105e6565b005b61026b61027b366004612912565b61064f565b61029361028e36600461295d565b610698565b60405190151581526020015b60405180910390f35b61026b6102b6366004612a11565b6107ec565b6102ce6102c9366004612aaa565b610857565b6040516001600160a01b03909116815260200161029f565b61026b6102f43660046128d1565b610872565b61030c610307366004612b86565b6108f1565b60405190815260200161029f565b61026b610328366004612bc2565b610905565b6102ce7f000000000000000000000000000000000000000000000000000000000000000081565b61026b610362366004612c79565b61099d565b61026b610375366004612912565b610a4e565b61026b610388366004612912565b610e13565b6102ce610ec1565b6102ce610edf565b6102936103ab366004612c96565b610f0a565b6102ce7f000000000000000000000000000000000000000000000000000000000000000081565b61026b6103e5366004612d5b565b610fe3565b6102936103f8366004612aaa565b60009081526004602052604090205460ff1690565b61029361041b366004612b86565b50600090565b61026b61042f3660046128d1565b611158565b7fad2ae48b4d93c587cd1f0f8f269b84f57dbe98bbe5c61c4b6d324e6a667b362561030c565b61026b610468366004612912565b611298565b6102ce61047b366004612b86565b6114fd565b61026b61048e366004612912565b61150b565b6104a66104a1366004612aaa565b6115e9565b60405161029f9190612e16565b61026b6104c13660046128d1565b61168b565b61026b6104d4366004612e29565b6117da565b6000610293565b61026b6104ee366004612e78565b6119fd565b610293610501366004612f43565b611ab3565b61030c610514366004612aaa565b60009081526020819052604090205490565b61026b6105343660046128d1565b611b86565b6104a6610547366004612aaa565b611bb3565b6102ce611bd0565b61030c610562366004612b86565b611be9565b610293610575366004612aaa565b611c03565b61026b610588366004612c79565b611c11565b61026b61059b3660046128d1565b611c88565b61030c6105ae366004612aaa565b60009081526005602052604090205490565b6102936105ce366004613010565b611e2f565b61026b6105e1366004612912565b611eb8565b6040517fa3c3d77668df13d1773745f9954afb4b1a542aaab80e68867c90a432fbfb465e90600090a160008061061e838501856130a6565b9150915060008051602061400e8339815191528282604051610641929190613109565b60405180910390a150505050565b33301461066f576040516314e1dbf760e11b815260040160405180910390fd5b6000808061067f85870187613147565b925092509250610690838383611f58565b505050505050565b6000806107498b8b8b8080601f01602080910402602001604051908101604052809392919081815260200183838082843760009201919091525050604080516020601f8f018190048102820181019092528d815292508d91508c908190840183828082843760009201919091525050604080516020601f8d018190048102820181019092528b81523393508d9250908c908c90819084018382808284376000920191909152508c925061204d915050565b60008181526004602052604090205460ff169250905081156107de576107708160006120b1565b6040518b907f91057b069763121972ce22b18b2f319b1520dd4c72f1f94a6395e81ceaf63f4190600090a26107de85858080601f016020809104026020016040519081016040528093929190818152602001838380828437600092019190915250339250879150611f589050565b509998505050505050505050565b81816040516107fc9291906131a0565b6040518091039020336001600160a01b03167f30ae6cc78c27e651745bf2ad08a11de83910ac1e347a52f7ac898c0fbef94dae888888888888604051610847969594939291906131d9565b60405180910390a3505050505050565b6000908152600260205260409020546001600160a01b031690565b600080610881838501856130a6565b9150915060008051602061400e83398151915282826040516108a4929190613109565b60405180910390a160006108be83805190602001206120d1565b6040519091507f9879ae38939ec1d36131e8982fc792e91f2012293b0506bdf2176c6fe69a1dce90600090a15050505050565b60006108ff61051483612125565b92915050565b6109473384848080601f01602080910402602001604051908101604052809392919081815260200183838082843760009201919091525086925061215a915050565b336001600160a01b03167f651d93f66c4329630e8d0f62488eff599e3be484da587335e8dc0fcf460627268888888888888860405161098c9796959493929190613222565b60405180910390a250505050505050565b6109b460008051602061404e833981519152610857565b6001600160a01b0316336001600160a01b0316141580156109fd57506109e760008051602061402e833981519152610857565b6001600160a01b0316336001600160a01b031614155b15610a1b5760405163223aa83d60e11b815260040160405180910390fd5b6001600160a01b038116610a42576040516335e75dcb60e21b815260040160405180910390fd5b610a4b8161230c565b50565b333014610a6e576040516314e1dbf760e11b815260040160405180910390fd5b600080610a7d84860186613273565b915091506000610a8c836114fd565b90506001600160a01b038116610ac0578260405163395d09bf60e11b8152600401610ab79190612e16565b60405180910390fd5b6002610acb8461237a565b6002811115610adc57610adc6132b7565b03610db0576000610b808360405180602001610af79061287c565b601f1982820381018352601f909101166040819052610b1991906020016132cd565b60408051601f1981840301815282825280516020918201206001600160f81b0319848301526bffffffffffffffffffffffff193060601b16602185015260358401949094526055808401949094528151808403909401845260759092019052815191012090565b9050610b94816001600160a01b0316612399565b15610ba25750505050505050565b600083604051610bb19061287c565b8190604051809103906000f5905080158015610bd1573d6000803e3d6000fd5b506040516370a0823160e01b81526001600160a01b038083166004830181905292935060009283929091631cff79cd91889163a9059cbb60e01b9130918416906370a0823190602401602060405180830381865afa158015610c37573d6000803e3d6000fd5b505050506040513d601f19601f82011682018060405250810190610c5b91906132e9565b6040516001600160a01b039092166024830152604482015260640160408051601f198184030181529181526020820180516001600160e01b03166001600160e01b03199485161790525160e085901b9092168252610cbc9291600401613302565b6000604051808303816000875af1158015610cdb573d6000803e3d6000fd5b505050506040513d6000823e601f3d908101601f19168201604052610d039190810190613386565b91509150811580610d305750805115801590610d30575080806020019051810190610d2e91906133c9565b155b15610d50578660405163e217b0ad60e01b8152600401610ab79190612e16565b60405162f55d9d60e01b81523060048201526001600160a01b0384169062f55d9d90602401600060405180830381600087803b158015610d8f57600080fd5b505af1158015610da3573d6000803e3d6000fd5b5050505050505050610690565b6040516308a1eee160e01b8152600481018390526001600160a01b038216906308a1eee190602401600060405180830381600087803b158015610df257600080fd5b505af1158015610e06573d6000803e3d6000fd5b505050505050505b505050565b333014610e33576040516314e1dbf760e11b815260040160405180910390fd5b600080808080808080610e488a8c018c6133e4565b97509750975097509750975097509750610e67898989898989896123dc565b84866001600160a01b03168a7f9991faa1f435675159ffae64b66d7ecfdb55c29755869a18db8497b4392347e08b8b89898989604051610eac969594939291906134a1565b60405180910390a45050505050505050505050565b6000610eda60008051602061402e833981519152610857565b905090565b6000610eda7f360894a13ba1a3210667c828492db98dca3e2076cc3735a920a3ca505d382bbc610857565b600080610f858888888080601f01602080910402602001604051908101604052809392919081815260200183838082843760009201919091525050604080516020601f8c018190048102820181019092528a815292508a91508990819084018382808284376000920191909152503392508991506123f59050565b60008181526004602052604090205460ff16925090508115610fd857610fac8160006120b1565b60405188907f91057b069763121972ce22b18b2f319b1520dd4c72f1f94a6395e81ceaf63f4190600090a25b509695505050505050565b610ffa60008051602061404e833981519152610857565b6001600160a01b0316336001600160a01b031614158015611043575061102d60008051602061402e833981519152610857565b6001600160a01b0316336001600160a01b031614155b156110615760405163223aa83d60e11b815260040160405180910390fd5b82818114611082576040516314a2275f60e01b815260040160405180910390fd5b60005b818110156106905760008686838181106110a1576110a16134f9565b90506020028101906110b3919061350f565b8080601f01602080910402602001604051908101604052809392919081815260200183838082843760009201829052509394508892508791508590508181106110fe576110fe6134f9565b90506020020135905060006001600160a01b031661111b836114fd565b6001600160a01b031603611144578160405163395d09bf60e11b8152600401610ab79190612e16565b61114e8282612453565b5050600101611085565b600080611167838501856130a6565b9150915060008051602061400e833981519152828260405161118a929190613109565b60405180910390a160006111a483805190602001206120d1565b6040519091507f9879ae38939ec1d36131e8982fc792e91f2012293b0506bdf2176c6fe69a1dce90600090a16040516339f1eb3560e11b81526000906001600160a01b037f000000000000000000000000000000000000000000000000000000000000000016906373e3d66a906112219085908790600401613555565b6020604051808303816000875af1158015611240573d6000803e3d6000fd5b505050506040513d601f19601f8201168201806040525081019061126491906133c9565b6040519091507f0b3d9151590daf4dbc78d33d371aeeec2e0a87d154082dc641e6a70bfbd1cb4890600090a1505050505050565b3330146112b8576040516314e1dbf760e11b815260040160405180910390fd5b600080808080806112cb888a018a61356e565b95509550955095509550955060006001600160a01b03166112eb866114fd565b6001600160a01b031614611314578460405163553f459960e11b8152600401610ab79190612e16565b61131e8582612453565b6001600160a01b0382166114715760008560405160200161133f91906132cd565b6040516020818303038152906040528051906020012090506113628660016124af565b6000807f00000000000000000000000000000000000000000000000000000000000000006001600160a01b0316636fc95b3460e01b8a8a8a8a886040516024016113b0959493929190613610565b60408051601f198184030181529181526020820180516001600160e01b03166001600160e01b03199094169390931790925290516113ee91906132cd565b600060405180830381855af49150503d8060008114611429576040519150601f19603f3d011682016040523d82523d6000602084013e61142e565b606091505b50915091508161145357876040516386d5274360e01b8152600401610ab79190612e16565b808060200190518101906114679190613656565b94505050506114af565b6001600160a01b0382163b6114a4576040516362e66eef60e11b81526001600160a01b0383166004820152602401610ab7565b6114af8560026124af565b7fbf90b5a1ec9763e8bf4b9245cef0c28db92bab309fc2c5177f17814f3824693885836040516114e0929190613673565b60405180910390a16114f285836124df565b505050505050505050565b60006108ff6102c9836124f1565b33301461152b576040516314e1dbf760e11b815260040160405180910390fd5b7f192e759e55f359cd9832b5c0c6e38e4b6df5c5ca33f3bd5c90738e865a521872838360405161155c92919061369d565b60405180910390a160405163d289d1cb60e01b81526001600160a01b037f0000000000000000000000000000000000000000000000000000000000000000169063d289d1cb906115b2908690869060040161369d565b600060405180830381600087803b1580156115cc57600080fd5b505af11580156115e0573d6000803e3d6000fd5b50505050505050565b6000818152600160205260409020805460609190611606906136b1565b80601f0160208091040260200160405190810160405280929190818152602001828054611632906136b1565b801561167f5780601f106116545761010080835404028352916020019161167f565b820191906000526020600020905b81548152906001019060200180831161166257829003601f168201915b50505050509050919050565b307f00000000000000000000000000000000000000000000000000000000000000006001600160a01b0316036116d457604051635f886e9d60e11b815260040160405180910390fd5b600080806116e4848601866136eb565b919450925090506001600160a01b038316156117035761170383612526565b6001600160a01b0382161561171b5761171b8261230c565b8051156117d3577f192e759e55f359cd9832b5c0c6e38e4b6df5c5ca33f3bd5c90738e865a521872816040516117519190612e16565b60405180910390a160405163d289d1cb60e01b81526001600160a01b037f0000000000000000000000000000000000000000000000000000000000000000169063d289d1cb906117a5908490600401612e16565b600060405180830381600087803b1580156117bf57600080fd5b505af11580156114f2573d6000803e3d6000fd5b5050505050565b6117f160008051602061402e833981519152610857565b6001600160a01b0316336001600160a01b03161461182257604051632d5be4cb60e21b815260040160405180910390fd5b836001600160a01b03163f831461184c576040516323e13ec960e21b815260040160405180910390fd5b836001600160a01b0316638291286c6040518163ffffffff1660e01b8152600401602060405180830381865afa15801561188a573d6000803e3d6000fd5b505050506040513d601f19601f820116820180604052508101906118ae91906132e9565b7fad2ae48b4d93c587cd1f0f8f269b84f57dbe98bbe5c61c4b6d324e6a667b3625146118ed5760405163340aafcd60e11b815260040160405180910390fd5b6040516001600160a01b038516907fbc7cd75a20ee27fd9adebab32041f755214dbc6bffa90cc0225b39da2e5c2d3b90600090a261192a84612594565b80156119f7576000846001600160a01b0316639ded06df60e01b848460405160240161195792919061369d565b60408051601f198184030181529181526020820180516001600160e01b03166001600160e01b031990941693909317909252905161199591906132cd565b600060405180830381855af49150503d80600081146119d0576040519150601f19603f3d011682016040523d82523d6000602084013e6119d5565b606091505b50509050806117d3576040516397905dfb60e01b815260040160405180910390fd5b50505050565b611a3f3384848080601f01602080910402602001604051908101604052809392919081815260200183838082843760009201919091525086925061215a915050565b8484604051611a4f9291906131a0565b6040518091039020336001600160a01b03167f7e50569d26be643bda7757722291ec66b1be66d8283474ae3fab5a98f878a7a28b8b8b8b8b8b8b8b8b604051611aa09998979695949392919061374c565b60405180910390a3505050505050505050565b6000611b776103f88c8c8c8080601f016020809104026020016040519081016040528093929190818152602001838380828437600081840152601f19601f820116905080830192505050505050508b8b8080601f01602080910402602001604051908101604052809392919081815260200183838082843760009201919091525050604080516020601f8d018190048102820181019092528b81528e93508d9250908c908c90819084018382808284376000920191909152508c925061204d915050565b9b9a5050505050505050505050565b6040517fa3c3d77668df13d1773745f9954afb4b1a542aaab80e68867c90a432fbfb465e90600090a15050565b6000818152600360205260409020805460609190611606906136b1565b6000610eda60008051602061404e833981519152610857565b60006108ff61051483611bfe615460426137b4565b6125be565b60006108ff6103f883612613565b611c2860008051602061402e833981519152610857565b6001600160a01b0316336001600160a01b031614611c5957604051632d5be4cb60e21b815260040160405180910390fd5b6001600160a01b038116611c7f576040516218c61b60e21b815260040160405180910390fd5b610a4b81612526565b600080611c97838501856130a6565b9150915060008051602061400e8339815191528282604051611cba929190613109565b60405180910390a16000611cd483805190602001206120d1565b6040519091507f9879ae38939ec1d36131e8982fc792e91f2012293b0506bdf2176c6fe69a1dce90600090a16040516339f1eb3560e11b81526000906001600160a01b037f000000000000000000000000000000000000000000000000000000000000000016906373e3d66a90611d519085908790600401613555565b6020604051808303816000875af1158015611d70573d6000803e3d6000fd5b505050506040513d601f19601f82011682018060405250810190611d9491906133c9565b6040519091507f0b3d9151590daf4dbc78d33d371aeeec2e0a87d154082dc641e6a70bfbd1cb4890600090a16000606080606087806020019051810190611ddb919061390c565b604051939750919550935091507f699804160af1ffd7198bfc1d6ba8fb52d9bcc3700a6494e929a688b52eb7e1f090611e1b908690869086908690613a4f565b60405180910390a150505050505050505050565b6000611eac6103f88989898080601f01602080910402602001604051908101604052809392919081815260200183838082843760009201919091525050604080516020601f8d018190048102820181019092528b815292508b91508a90819084018382808284376000920191909152508a92508991506123f59050565b98975050505050505050565b333014611ed8576040516314e1dbf760e11b815260040160405180910390fd5b60008080808080611eeb888a018a613af5565b955095509550955095509550611f04878787878761264e565b82846001600160a01b0316887f44e4f8f6bd682c5a3aeba93601ab07cb4d1f21b2aab1ae4880d9577919309aa489898787604051611f459493929190613b86565b60405180910390a4505050505050505050565b6000611f63846114fd565b90506001600160a01b038116611f8e578360405163395d09bf60e11b8152600401610ab79190612e16565b611fab8483611f9c87611be9565b611fa69190613bbf565b61265e565b6002611fb68561237a565b6002811115611fc757611fc76132b7565b03611fe557611fe06001600160a01b03821684846126c0565b6119f7565b6040516340c10f1960e01b81526001600160a01b038481166004830152602482018490528216906340c10f1990604401600060405180830381600087803b15801561202f57600080fd5b505af1158015612043573d6000803e3d6000fd5b5050505050505050565b60007fb7ad972b71475860613db3ba1fe699b886c878f9002a09250dc25e769eb19a108888888888888860405160200161208e989796959493929190613be0565b604051602081830303815290604052805190602001209050979650505050505050565b600091825260046020526040909120805460ff1916911515919091179055565b6040517f19457468657265756d205369676e6564204d6573736167653a0a3332000000006020820152603c8101829052600090605c015b604051602081830303815290604052805190602001209050919050565b60007feee9348b4aaba3647b1612b2724f18e93b9299da26fb321c7b3fda135d7dea8782604051602001612108929190613c54565b6000612165836114fd565b90506001600160a01b038116612190578260405163395d09bf60e11b8152600401610ab79190612e16565b816000036121b15760405163162908e360e11b815260040160405180910390fd5b60006121bc8461237a565b905060028160028111156121d2576121d26132b7565b036121f1576121ec6001600160a01b038316863086612723565b6117d3565b6001816002811115612205576122056132b7565b0361225e57604080516001600160a01b03878116602483015260448083018790528351808403909101815260649092019092526020810180516001600160e01b031663079cc67960e41b1790526121ec9184169061275b565b604051630c7bb2bd60e21b8152600060048201526122df9086906001600160a01b038516906331eecaf490602401602060405180830381865afa1580156122a9573d6000803e3d6000fd5b505050506040513d601f19601f820116820180604052508101906122cd9190613656565b6001600160a01b038516919086612723565b6040516308a1eee160e01b8152600060048201526001600160a01b038316906308a1eee1906024016117a5565b6001600160a01b03811661232d60008051602061404e833981519152610857565b6001600160a01b03167fa9303c860c5de3c0c866c354d281785c89778ac5ca2dffdf12841c45cd4e1e6e60405160405180910390a3610a4b60008051602061404e83398151915282612819565b600061238861051483612847565b60028111156108ff576108ff6132b7565b60006001600160a01b0382163f80158015906123d557507fc5d2460186f7233c927e7db2dcc703c0e500b653ca82273b7bfad8045d85a4708114155b9392505050565b6115e06123ee8888888888888861204d565b60016120b1565b60007f07b0d4304f82012bd3b70b1d531c160e326067c90829e2a3d386722ad10b89c3868686868660405160200161243296959493929190613c7a565b60405160208183030381529060405280519060200120905095945050505050565b7fd99446c1d76385bb5519ccfb5274abcfd5896dfc22405e40010fde217f018a188282604051612484929190613cca565b60405180910390a16124ab61249883612125565b8260009182526020829052604090912055565b5050565b6124ab6124bb83612847565b8260028111156124cd576124cd6132b7565b60009182526020829052604090912055565b6124ab6124eb836124f1565b82612819565b60007fc4e632779a6a7838736dd7e5e6a0eadf171dd37dfb6230720e265576dfcf42bb82604051602001612108929190613c54565b6001600160a01b03811661254760008051602061402e833981519152610857565b6001600160a01b03167f5f56bee8cffbe9a78652a74a60705edede02af10b0bbb888ca44b79a0d42ce8060405160405180910390a3610a4b60008051602061402e83398151915282612819565b610a4b7f360894a13ba1a3210667c828492db98dca3e2076cc3735a920a3ca505d382bbc82612819565b60007f2f8851fe0d6d537e552a4f25b7a3167d48eb1292622c71d84630a2a44757bced83836040516020016125f593929190613cec565b60405160208183030381529060405280519060200120905092915050565b604080517f957705a374326b30f4a1069c936d736cc9993ed6c820b4e0e2fd94a8beca0d1d6020820152908101829052600090606001612108565b6117d36123ee86868686866123f5565b6000612669836108f1565b905060008111801561267a57508082115b1561269a578260405163037f60e560e01b8152600401610ab79190612e16565b610e0e6126ad84611bfe615460426137b4565b8360009182526020829052604090912055565b6040516001600160a01b038316602482015260448101829052610e0e90849063a9059cbb60e01b906064015b60408051601f198184030181529190526020810180516001600160e01b03166001600160e01b03199093169290921790915261275b565b6040516001600160a01b03808516602483015283166044820152606481018290526119f79085906323b872dd60e01b906084016126ec565b600080836001600160a01b03168360405161277691906132cd565b6000604051808303816000865af19150503d80600081146127b3576040519150601f19603f3d011682016040523d82523d6000602084013e6127b8565b606091505b509150915060008280156127e45750815115806127e45750818060200190518101906127e491906133c9565b90508015806127fb57506001600160a01b0385163b155b156117d35760405163022e258160e11b815260040160405180910390fd5b60009182526002602052604090912080546001600160a01b0319166001600160a01b03909216919091179055565b60007fa80d2259af55890618ec2eeb3ac72de4bdba22529bb14845d8a3d712d1c3f62182604051602001612108929190613c54565b6102f880613d1683390190565b60008083601f84011261289b57600080fd5b5081356001600160401b038111156128b257600080fd5b6020830191508360208285010111156128ca57600080fd5b9250929050565b600080602083850312156128e457600080fd5b82356001600160401b038111156128fa57600080fd5b61290685828601612889565b90969095509350505050565b60008060006040848603121561292757600080fd5b83356001600160401b0381111561293d57600080fd5b61294986828701612889565b909790965060209590950135949350505050565b600080600080600080600080600060c08a8c03121561297b57600080fd5b8935985060208a01356001600160401b038082111561299957600080fd5b6129a58d838e01612889565b909a50985060408c01359150808211156129be57600080fd5b6129ca8d838e01612889565b909850965060608c0135955060808c01359150808211156129ea57600080fd5b506129f78c828d01612889565b9a9d999c50979a9699959894979660a00135949350505050565b60008060008060008060608789031215612a2a57600080fd5b86356001600160401b0380821115612a4157600080fd5b612a4d8a838b01612889565b90985096506020890135915080821115612a6657600080fd5b612a728a838b01612889565b90965094506040890135915080821115612a8b57600080fd5b50612a9889828a01612889565b979a9699509497509295939492505050565b600060208284031215612abc57600080fd5b5035919050565b634e487b7160e01b600052604160045260246000fd5b604051601f8201601f191681016001600160401b0381118282101715612b0157612b01612ac3565b604052919050565b60006001600160401b03821115612b2257612b22612ac3565b50601f01601f191660200190565b600082601f830112612b4157600080fd5b8135612b54612b4f82612b09565b612ad9565b818152846020838601011115612b6957600080fd5b816020850160208301376000918101602001919091529392505050565b600060208284031215612b9857600080fd5b81356001600160401b03811115612bae57600080fd5b612bba84828501612b30565b949350505050565b60008060008060008060006080888a031215612bdd57600080fd5b87356001600160401b0380821115612bf457600080fd5b612c008b838c01612889565b909950975060208a0135915080821115612c1957600080fd5b612c258b838c01612889565b909750955060408a0135915080821115612c3e57600080fd5b50612c4b8a828b01612889565b989b979a50959894979596606090950135949350505050565b6001600160a01b0381168114610a4b57600080fd5b600060208284031215612c8b57600080fd5b81356123d581612c64565b60008060008060008060808789031215612caf57600080fd5b8635955060208701356001600160401b0380821115612ccd57600080fd5b612cd98a838b01612889565b90975095506040890135915080821115612cf257600080fd5b50612cff89828a01612889565b979a9699509497949695606090950135949350505050565b60008083601f840112612d2957600080fd5b5081356001600160401b03811115612d4057600080fd5b6020830191508360208260051b85010111156128ca57600080fd5b60008060008060408587031215612d7157600080fd5b84356001600160401b0380821115612d8857600080fd5b612d9488838901612d17565b90965094506020870135915080821115612dad57600080fd5b50612dba87828801612d17565b95989497509550505050565b60005b83811015612de1578181015183820152602001612dc9565b50506000910152565b60008151808452612e02816020860160208601612dc6565b601f01601f19169290920160200192915050565b6020815260006123d56020830184612dea565b60008060008060608587031215612e3f57600080fd5b8435612e4a81612c64565b93506020850135925060408501356001600160401b03811115612e6c57600080fd5b612dba87828801612889565b600080600080600080600080600060a08a8c031215612e9657600080fd5b89356001600160401b0380821115612ead57600080fd5b612eb98d838e01612889565b909b50995060208c0135915080821115612ed257600080fd5b612ede8d838e01612889565b909950975060408c0135915080821115612ef757600080fd5b612f038d838e01612889565b909750955060608c0135915080821115612f1c57600080fd5b50612f298c828d01612889565b9a9d999c50979a9699959894979660800135949350505050565b60008060008060008060008060008060e08b8d031215612f6257600080fd5b8a35995060208b01356001600160401b0380821115612f8057600080fd5b612f8c8e838f01612889565b909b50995060408d0135915080821115612fa557600080fd5b612fb18e838f01612889565b909950975060608d01359150612fc682612c64565b90955060808c0135945060a08c01359080821115612fe357600080fd5b50612ff08d828e01612889565b9150809450508092505060c08b013590509295989b9194979a5092959850565b600080600080600080600060a0888a03121561302b57600080fd5b8735965060208801356001600160401b038082111561304957600080fd5b6130558b838c01612889565b909850965060408a013591508082111561306e57600080fd5b5061307b8a828b01612889565b909550935050606088013561308f81612c64565b809250506080880135905092959891949750929550565b600080604083850312156130b957600080fd5b82356001600160401b03808211156130d057600080fd5b6130dc86838701612b30565b935060208501359150808211156130f257600080fd5b506130ff85828601612b30565b9150509250929050565b60408152600061311c6040830185612dea565b828103602084015261312e8185612dea565b95945050505050565b803561314281612c64565b919050565b60008060006060848603121561315c57600080fd5b83356001600160401b0381111561317257600080fd5b61317e86828701612b30565b935050602084013561318f81612c64565b929592945050506040919091013590565b8183823760009101908152919050565b81835281816020850137506000828201602090810191909152601f909101601f19169091010190565b6060815260006131ed60608301888a6131b0565b82810360208401526132008187896131b0565b905082810360408401526132158185876131b0565b9998505050505050505050565b60808152600061323660808301898b6131b0565b828103602084015261324981888a6131b0565b9050828103604084015261325e8186886131b0565b91505082606083015298975050505050505050565b6000806040838503121561328657600080fd5b82356001600160401b0381111561329c57600080fd5b6132a885828601612b30565b95602094909401359450505050565b634e487b7160e01b600052602160045260246000fd5b600082516132df818460208701612dc6565b9190910192915050565b6000602082840312156132fb57600080fd5b5051919050565b6001600160a01b0383168152604060208201819052600090612bba90830184612dea565b8051801515811461314257600080fd5b6000613344612b4f84612b09565b905082815283838301111561335857600080fd5b6123d5836020830184612dc6565b600082601f83011261337757600080fd5b6123d583835160208501613336565b6000806040838503121561339957600080fd5b6133a283613326565b915060208301516001600160401b038111156133bd57600080fd5b6130ff85828601613366565b6000602082840312156133db57600080fd5b6123d582613326565b600080600080600080600080610100898b03121561340157600080fd5b88356001600160401b038082111561341857600080fd5b6134248c838d01612b30565b995060208b013591508082111561343a57600080fd5b6134468c838d01612b30565b985061345460408c01613137565b975060608b0135965060808b013591508082111561347157600080fd5b5061347e8b828c01612b30565b989b979a50959894979660a0860135965060c08601359560e00135945092505050565b60c0815260006134b460c0830189612dea565b82810360208401526134c68189612dea565b905082810360408401526134da8188612dea565b60608401969096525050608081019290925260a0909101529392505050565b634e487b7160e01b600052603260045260246000fd5b6000808335601e1984360301811261352657600080fd5b8301803591506001600160401b0382111561354057600080fd5b6020019150368190038213156128ca57600080fd5b828152604060208201526000612bba6040830184612dea565b60008060008060008060c0878903121561358757600080fd5b86356001600160401b038082111561359e57600080fd5b6135aa8a838b01612b30565b975060208901359150808211156135c057600080fd5b506135cd89828a01612b30565b955050604087013560ff811681146135e457600080fd5b93506060870135925060808701356135fb81612c64565b8092505060a087013590509295509295509295565b60a08152600061362360a0830188612dea565b82810360208401526136358188612dea565b60ff9690961660408401525050606081019290925260809091015292915050565b60006020828403121561366857600080fd5b81516123d581612c64565b6040815260006136866040830185612dea565b905060018060a01b03831660208301529392505050565b602081526000612bba6020830184866131b0565b600181811c908216806136c557607f821691505b6020821081036136e557634e487b7160e01b600052602260045260246000fd5b50919050565b60008060006060848603121561370057600080fd5b833561370b81612c64565b9250602084013561371b81612c64565b915060408401356001600160401b0381111561373657600080fd5b61374286828701612b30565b9150509250925092565b60a08152600061376060a083018b8d6131b0565b8281036020840152613773818a8c6131b0565b9050828103604084015261378881888a6131b0565b9050828103606084015261379d8186886131b0565b9150508260808301529a9950505050505050505050565b6000826137d157634e487b7160e01b600052601260045260246000fd5b500490565b60006001600160401b038211156137ef576137ef612ac3565b5060051b60200190565b600082601f83011261380a57600080fd5b8151602061381a612b4f836137d6565b82815260059290921b8401810191818101908684111561383957600080fd5b8286015b84811015610fd85780516001600160401b0381111561385c5760008081fd5b8701603f8101891361386e5760008081fd5b61387f898683015160408401613336565b84525091830191830161383d565b600082601f83011261389e57600080fd5b815160206138ae612b4f836137d6565b82815260059290921b840181019181810190868411156138cd57600080fd5b8286015b84811015610fd85780516001600160401b038111156138f05760008081fd5b6138fe8986838b0101613366565b8452509183019183016138d1565b6000806000806080858703121561392257600080fd5b845193506020808601516001600160401b038082111561394157600080fd5b818801915088601f83011261395557600080fd5b8151613963612b4f826137d6565b81815260059190911b8301840190848101908b83111561398257600080fd5b938501935b828510156139a057845182529385019390850190613987565b60408b015190985094505050808311156139b957600080fd5b6139c589848a016137f9565b945060608801519250808311156139db57600080fd5b50506139e98782880161388d565b91505092959194509250565b60008282518085526020808601955060208260051b8401016020860160005b84811015613a4257601f19868403018952613a30838351612dea565b98840198925090830190600101613a14565b5090979650505050505050565b600060808201868352602060808185015281875180845260a086019150828901935060005b81811015613a9057845183529383019391830191600101613a74565b5050848103604086015286518082528282019350600581901b8201830183890160005b83811015613ae157601f19858403018752613acf838351612dea565b96860196925090850190600101613ab3565b50508681036060880152611b7781896139f5565b60008060008060008060c08789031215613b0e57600080fd5b86356001600160401b0380821115613b2557600080fd5b613b318a838b01612b30565b97506020890135915080821115613b4757600080fd5b50613b5489828a01612b30565b9550506040870135613b6581612c64565b959894975094956060810135955060808101359460a0909101359350915050565b608081526000613b996080830187612dea565b8281036020840152613bab8187612dea565b604084019590955250506060015292915050565b808201808211156108ff57634e487b7160e01b600052601160045260246000fd5b60006101008a8352896020840152806040840152613c008184018a612dea565b90508281036060840152613c148189612dea565b6001600160a01b038816608085015260a0840187905283810360c08501529050613c3e8186612dea565b9150508260e08301529998505050505050505050565b82815260008251613c6c816020850160208701612dc6565b919091016020019392505050565b86815285602082015260c060408201526000613c9960c0830187612dea565b8281036060840152613cab8187612dea565b6001600160a01b03959095166080840152505060a00152949350505050565b604081526000613cdd6040830185612dea565b90508260208301529392505050565b838152606060208201526000613d056060830185612dea565b905082604083015294935050505056fe6080604052600160005534801561001557600080fd5b506102d3806100256000396000f3fe608060405234801561001057600080fd5b50600436106100355760003560e01c8062f55d9d1461003a5780631cff79cd1461004f575b600080fd5b61004d61004836600461018f565b610079565b005b61006261005d3660046101b1565b6100ad565b604051610070929190610234565b60405180910390f35b60026000540361009c5760405163caa30f5560e01b815260040160405180910390fd5b60026000556001600160a01b038116ff5b600060606002600054036100d45760405163caa30f5560e01b815260040160405180910390fd5b600260009081556001600160a01b0386163b900361010557604051636f7c43f160e01b815260040160405180910390fd5b846001600160a01b0316848460405161011f92919061028d565b6000604051808303816000865af19150503d806000811461015c576040519150601f19603f3d011682016040523d82523d6000602084013e610161565b606091505b50600160005590969095509350505050565b80356001600160a01b038116811461018a57600080fd5b919050565b6000602082840312156101a157600080fd5b6101aa82610173565b9392505050565b6000806000604084860312156101c657600080fd5b6101cf84610173565b9250602084013567ffffffffffffffff808211156101ec57600080fd5b818601915086601f83011261020057600080fd5b81358181111561020f57600080fd5b87602082850101111561022157600080fd5b6020830194508093505050509250925092565b82151581526000602060406020840152835180604085015260005b8181101561026b5785810183015185820160600152820161024f565b506000606082860101526060601f19601f830116850101925050509392505050565b818382376000910190815291905056fea264697066735822122006f9d37ee977c070ab0beed5622642adaa8cf7c371495d427ab33e342fdd4ac164736f6c63430008180033763aba2a041620de24ed40a81f438bfbd3c92c5481953408fd88378285795addabea6fd3db56a6e6d0242111b43ebb13d1c42709651c032c7894962023a1f909627f0c11732837b3240a2de89c0b6343512886dd50978b99c76a68c6416a4d92a26469706673582212208f1202feab1c22de859bbae7e74e6920d2a9d38a0e925fa7ac47e23cf2d7a14f64736f6c63430008180033","opcodes":"PUSH1 0xE0 PUSH1 0x40 MSTORE CALLVALUE DUP1 ISZERO PUSH3 0x11 JUMPI PUSH1 0x0 DUP1 REVERT JUMPDEST POP PUSH1 0x40 MLOAD PUSH3 0x41F3 CODESIZE SUB DUP1 PUSH3 0x41F3 DUP4 CODECOPY DUP2 ADD PUSH1 0x40 DUP2 SWAP1 MSTORE PUSH3 0x34 SWAP2 PUSH3 0xC5 JUMP JUMPDEST ADDRESS PUSH1 0x80 MSTORE PUSH1 0x1 PUSH1 0x1 PUSH1 0xA0 SHL SUB DUP3 AND EXTCODESIZE PUSH1 0x0 SUB PUSH3 0x64 JUMPI PUSH1 0x40 MLOAD PUSH4 0x735326AB PUSH1 0xE0 SHL DUP2 MSTORE PUSH1 0x4 ADD PUSH1 0x40 MLOAD DUP1 SWAP2 SUB SWAP1 REVERT JUMPDEST DUP1 PUSH1 0x1 PUSH1 0x1 PUSH1 0xA0 SHL SUB AND EXTCODESIZE PUSH1 0x0 SUB PUSH3 0x90 JUMPI PUSH1 0x40 MLOAD PUSH4 0xC84DABF PUSH1 0xE3 SHL DUP2 MSTORE PUSH1 0x4 ADD PUSH1 0x40 MLOAD DUP1 SWAP2 SUB SWAP1 REVERT JUMPDEST PUSH1 0x1 PUSH1 0x1 PUSH1 0xA0 SHL SUB SWAP2 DUP3 AND PUSH1 0xA0 MSTORE AND PUSH1 0xC0 MSTORE PUSH3 0xFD JUMP JUMPDEST DUP1 MLOAD PUSH1 0x1 PUSH1 0x1 PUSH1 0xA0 SHL SUB DUP2 AND DUP2 EQ PUSH3 0xC0 JUMPI PUSH1 0x0 DUP1 REVERT JUMPDEST SWAP2 SWAP1 POP JUMP JUMPDEST PUSH1 0x0 DUP1 PUSH1 0x40 DUP4 DUP6 SUB SLT ISZERO PUSH3 0xD9 JUMPI PUSH1 0x0 DUP1 REVERT JUMPDEST PUSH3 0xE4 DUP4 PUSH3 0xA8 JUMP JUMPDEST SWAP2 POP PUSH3 0xF4 PUSH1 0x20 DUP5 ADD PUSH3 0xA8 JUMP JUMPDEST SWAP1 POP SWAP3 POP SWAP3 SWAP1 POP JUMP JUMPDEST PUSH1 0x80 MLOAD PUSH1 0xA0 MLOAD PUSH1 0xC0 MLOAD PUSH2 0x40A3 PUSH3 0x150 PUSH1 0x0 CODECOPY PUSH1 0x0 DUP2 DUP2 PUSH2 0x332 ADD MSTORE PUSH2 0x1367 ADD MSTORE PUSH1 0x0 DUP2 DUP2 PUSH2 0x3B5 ADD MSTORE DUP2 DUP2 PUSH2 0x11EA ADD MSTORE DUP2 DUP2 PUSH2 0x157B ADD MSTORE DUP2 DUP2 PUSH2 0x1770 ADD MSTORE PUSH2 0x1D1A ADD MSTORE PUSH1 0x0 PUSH2 0x168E ADD MSTORE PUSH2 0x40A3 PUSH1 0x0 RETURN INVALID PUSH1 0x80 PUSH1 0x40 MSTORE CALLVALUE DUP1 ISZERO PUSH2 0x10 JUMPI PUSH1 0x0 DUP1 REVERT JUMPDEST POP PUSH1 0x4 CALLDATASIZE LT PUSH2 0x253 JUMPI PUSH1 0x0 CALLDATALOAD PUSH1 0xE0 SHR DUP1 PUSH4 0x8291286C GT PUSH2 0x146 JUMPI DUP1 PUSH4 0xBD02D0F5 GT PUSH2 0xC3 JUMPI DUP1 PUSH4 0xD26FF210 GT PUSH2 0x87 JUMPI DUP1 PUSH4 0xD26FF210 EQ PUSH2 0x567 JUMPI DUP1 PUSH4 0xD38BFFF4 EQ PUSH2 0x57A JUMPI DUP1 PUSH4 0xD4066976 EQ PUSH2 0x58D JUMPI DUP1 PUSH4 0xDC97D962 EQ PUSH2 0x5A0 JUMPI DUP1 PUSH4 0xF6A5F9F5 EQ PUSH2 0x5C0 JUMPI DUP1 PUSH4 0xFBE0A31B EQ PUSH2 0x5D3 JUMPI PUSH1 0x0 DUP1 REVERT JUMPDEST DUP1 PUSH4 0xBD02D0F5 EQ PUSH2 0x506 JUMPI DUP1 PUSH4 0xBD217DAB EQ PUSH2 0x526 JUMPI DUP1 PUSH4 0xC031A180 EQ PUSH2 0x539 JUMPI DUP1 PUSH4 0xC82FE87A EQ PUSH2 0x54C JUMPI DUP1 PUSH4 0xCEC7B359 EQ PUSH2 0x554 JUMPI PUSH1 0x0 DUP1 REVERT JUMPDEST DUP1 PUSH4 0x9DED06DF GT PUSH2 0x10A JUMPI DUP1 PUSH4 0x9DED06DF EQ PUSH2 0x4B3 JUMPI DUP1 PUSH4 0xA3499C73 EQ PUSH2 0x4C6 JUMPI DUP1 PUSH4 0xAA1E1F0A EQ PUSH2 0x4D9 JUMPI DUP1 PUSH4 0xB5417084 EQ PUSH2 0x4E0 JUMPI DUP1 PUSH4 0xBC00C216 EQ PUSH2 0x4F3 JUMPI PUSH1 0x0 DUP1 REVERT JUMPDEST DUP1 PUSH4 0x8291286C EQ PUSH2 0x434 JUMPI DUP1 PUSH4 0x886A625D EQ PUSH2 0x45A JUMPI DUP1 PUSH4 0x935B13F6 EQ PUSH2 0x46D JUMPI DUP1 PUSH4 0x97B87BA6 EQ PUSH2 0x480 JUMPI DUP1 PUSH4 0x986E791A EQ PUSH2 0x493 JUMPI PUSH1 0x0 DUP1 REVERT JUMPDEST DUP1 PUSH4 0x4656AE2E GT PUSH2 0x1D4 JUMPI DUP1 PUSH4 0x64940C56 GT PUSH2 0x198 JUMPI DUP1 PUSH4 0x64940C56 EQ PUSH2 0x3B0 JUMPI DUP1 PUSH4 0x67ACE8EB EQ PUSH2 0x3D7 JUMPI DUP1 PUSH4 0x7AE1CFCA EQ PUSH2 0x3EA JUMPI DUP1 PUSH4 0x7B1B769E EQ PUSH2 0x40D JUMPI DUP1 PUSH4 0x7C13C8A1 EQ PUSH2 0x421 JUMPI PUSH1 0x0 DUP1 REVERT JUMPDEST DUP1 PUSH4 0x4656AE2E EQ PUSH2 0x367 JUMPI DUP1 PUSH4 0x585A9FD4 EQ PUSH2 0x37A JUMPI DUP1 PUSH4 0x5AA6E675 EQ PUSH2 0x38D JUMPI DUP1 PUSH4 0x5C60DA1B EQ PUSH2 0x395 JUMPI DUP1 PUSH4 0x5F6970C3 EQ PUSH2 0x39D JUMPI PUSH1 0x0 DUP1 REVERT JUMPDEST DUP1 PUSH4 0x224C9778 GT PUSH2 0x21B JUMPI DUP1 PUSH4 0x224C9778 EQ PUSH2 0x2E6 JUMPI DUP1 PUSH4 0x269EB65E EQ PUSH2 0x2F9 JUMPI DUP1 PUSH4 0x26EF699D EQ PUSH2 0x31A JUMPI DUP1 PUSH4 0x2A2DAE0A EQ PUSH2 0x32D JUMPI DUP1 PUSH4 0x41D8F26B EQ PUSH2 0x354 JUMPI PUSH1 0x0 DUP1 REVERT JUMPDEST DUP1 PUSH4 0x9C5EABE EQ PUSH2 0x258 JUMPI DUP1 PUSH4 0x146E2D78 EQ PUSH2 0x26D JUMPI DUP1 PUSH4 0x1876EED9 EQ PUSH2 0x280 JUMPI DUP1 PUSH4 0x1C92115F EQ PUSH2 0x2A8 JUMPI DUP1 PUSH4 0x21F8A721 EQ PUSH2 0x2BB JUMPI JUMPDEST PUSH1 0x0 DUP1 REVERT JUMPDEST PUSH2 0x26B PUSH2 0x266 CALLDATASIZE PUSH1 0x4 PUSH2 0x28D1 JUMP JUMPDEST PUSH2 0x5E6 JUMP JUMPDEST STOP JUMPDEST PUSH2 0x26B PUSH2 0x27B CALLDATASIZE PUSH1 0x4 PUSH2 0x2912 JUMP JUMPDEST PUSH2 0x64F JUMP JUMPDEST PUSH2 0x293 PUSH2 0x28E CALLDATASIZE PUSH1 0x4 PUSH2 0x295D JUMP JUMPDEST PUSH2 0x698 JUMP JUMPDEST PUSH1 0x40 MLOAD SWAP1 ISZERO ISZERO DUP2 MSTORE PUSH1 0x20 ADD JUMPDEST PUSH1 0x40 MLOAD DUP1 SWAP2 SUB SWAP1 RETURN JUMPDEST PUSH2 0x26B PUSH2 0x2B6 CALLDATASIZE PUSH1 0x4 PUSH2 0x2A11 JUMP JUMPDEST PUSH2 0x7EC JUMP JUMPDEST PUSH2 0x2CE PUSH2 0x2C9 CALLDATASIZE PUSH1 0x4 PUSH2 0x2AAA JUMP JUMPDEST PUSH2 0x857 JUMP JUMPDEST PUSH1 0x40 MLOAD PUSH1 0x1 PUSH1 0x1 PUSH1 0xA0 SHL SUB SWAP1 SWAP2 AND DUP2 MSTORE PUSH1 0x20 ADD PUSH2 0x29F JUMP JUMPDEST PUSH2 0x26B PUSH2 0x2F4 CALLDATASIZE PUSH1 0x4 PUSH2 0x28D1 JUMP JUMPDEST PUSH2 0x872 JUMP JUMPDEST PUSH2 0x30C PUSH2 0x307 CALLDATASIZE PUSH1 0x4 PUSH2 0x2B86 JUMP JUMPDEST PUSH2 0x8F1 JUMP JUMPDEST PUSH1 0x40 MLOAD SWAP1 DUP2 MSTORE PUSH1 0x20 ADD PUSH2 0x29F JUMP JUMPDEST PUSH2 0x26B PUSH2 0x328 CALLDATASIZE PUSH1 0x4 PUSH2 0x2BC2 JUMP JUMPDEST PUSH2 0x905 JUMP JUMPDEST PUSH2 0x2CE PUSH32 0x0 DUP2 JUMP JUMPDEST PUSH2 0x26B PUSH2 0x362 CALLDATASIZE PUSH1 0x4 PUSH2 0x2C79 JUMP JUMPDEST PUSH2 0x99D JUMP JUMPDEST PUSH2 0x26B PUSH2 0x375 CALLDATASIZE PUSH1 0x4 PUSH2 0x2912 JUMP JUMPDEST PUSH2 0xA4E JUMP JUMPDEST PUSH2 0x26B PUSH2 0x388 CALLDATASIZE PUSH1 0x4 PUSH2 0x2912 JUMP JUMPDEST PUSH2 0xE13 JUMP JUMPDEST PUSH2 0x2CE PUSH2 0xEC1 JUMP JUMPDEST PUSH2 0x2CE PUSH2 0xEDF JUMP JUMPDEST PUSH2 0x293 PUSH2 0x3AB CALLDATASIZE PUSH1 0x4 PUSH2 0x2C96 JUMP JUMPDEST PUSH2 0xF0A JUMP JUMPDEST PUSH2 0x2CE PUSH32 0x0 DUP2 JUMP JUMPDEST PUSH2 0x26B PUSH2 0x3E5 CALLDATASIZE PUSH1 0x4 PUSH2 0x2D5B JUMP JUMPDEST PUSH2 0xFE3 JUMP JUMPDEST PUSH2 0x293 PUSH2 0x3F8 CALLDATASIZE PUSH1 0x4 PUSH2 0x2AAA JUMP JUMPDEST PUSH1 0x0 SWAP1 DUP2 MSTORE PUSH1 0x4 PUSH1 0x20 MSTORE PUSH1 0x40 SWAP1 KECCAK256 SLOAD PUSH1 0xFF AND SWAP1 JUMP JUMPDEST PUSH2 0x293 PUSH2 0x41B CALLDATASIZE PUSH1 0x4 PUSH2 0x2B86 JUMP JUMPDEST POP PUSH1 0x0 SWAP1 JUMP JUMPDEST PUSH2 0x26B PUSH2 0x42F CALLDATASIZE PUSH1 0x4 PUSH2 0x28D1 JUMP JUMPDEST PUSH2 0x1158 JUMP JUMPDEST PUSH32 0xAD2AE48B4D93C587CD1F0F8F269B84F57DBE98BBE5C61C4B6D324E6A667B3625 PUSH2 0x30C JUMP JUMPDEST PUSH2 0x26B PUSH2 0x468 CALLDATASIZE PUSH1 0x4 PUSH2 0x2912 JUMP JUMPDEST PUSH2 0x1298 JUMP JUMPDEST PUSH2 0x2CE PUSH2 0x47B CALLDATASIZE PUSH1 0x4 PUSH2 0x2B86 JUMP JUMPDEST PUSH2 0x14FD JUMP JUMPDEST PUSH2 0x26B PUSH2 0x48E CALLDATASIZE PUSH1 0x4 PUSH2 0x2912 JUMP JUMPDEST PUSH2 0x150B JUMP JUMPDEST PUSH2 0x4A6 PUSH2 0x4A1 CALLDATASIZE PUSH1 0x4 PUSH2 0x2AAA JUMP JUMPDEST PUSH2 0x15E9 JUMP JUMPDEST PUSH1 0x40 MLOAD PUSH2 0x29F SWAP2 SWAP1 PUSH2 0x2E16 JUMP JUMPDEST PUSH2 0x26B PUSH2 0x4C1 CALLDATASIZE PUSH1 0x4 PUSH2 0x28D1 JUMP JUMPDEST PUSH2 0x168B JUMP JUMPDEST PUSH2 0x26B PUSH2 0x4D4 CALLDATASIZE PUSH1 0x4 PUSH2 0x2E29 JUMP JUMPDEST PUSH2 0x17DA JUMP JUMPDEST PUSH1 0x0 PUSH2 0x293 JUMP JUMPDEST PUSH2 0x26B PUSH2 0x4EE CALLDATASIZE PUSH1 0x4 PUSH2 0x2E78 JUMP JUMPDEST PUSH2 0x19FD JUMP JUMPDEST PUSH2 0x293 PUSH2 0x501 CALLDATASIZE PUSH1 0x4 PUSH2 0x2F43 JUMP JUMPDEST PUSH2 0x1AB3 JUMP JUMPDEST PUSH2 0x30C PUSH2 0x514 CALLDATASIZE PUSH1 0x4 PUSH2 0x2AAA JUMP JUMPDEST PUSH1 0x0 SWAP1 DUP2 MSTORE PUSH1 0x20 DUP2 SWAP1 MSTORE PUSH1 0x40 SWAP1 KECCAK256 SLOAD SWAP1 JUMP JUMPDEST PUSH2 0x26B PUSH2 0x534 CALLDATASIZE PUSH1 0x4 PUSH2 0x28D1 JUMP JUMPDEST PUSH2 0x1B86 JUMP JUMPDEST PUSH2 0x4A6 PUSH2 0x547 CALLDATASIZE PUSH1 0x4 PUSH2 0x2AAA JUMP JUMPDEST PUSH2 0x1BB3 JUMP JUMPDEST PUSH2 0x2CE PUSH2 0x1BD0 JUMP JUMPDEST PUSH2 0x30C PUSH2 0x562 CALLDATASIZE PUSH1 0x4 PUSH2 0x2B86 JUMP JUMPDEST PUSH2 0x1BE9 JUMP JUMPDEST PUSH2 0x293 PUSH2 0x575 CALLDATASIZE PUSH1 0x4 PUSH2 0x2AAA JUMP JUMPDEST PUSH2 0x1C03 JUMP JUMPDEST PUSH2 0x26B PUSH2 0x588 CALLDATASIZE PUSH1 0x4 PUSH2 0x2C79 JUMP JUMPDEST PUSH2 0x1C11 JUMP JUMPDEST PUSH2 0x26B PUSH2 0x59B CALLDATASIZE PUSH1 0x4 PUSH2 0x28D1 JUMP JUMPDEST PUSH2 0x1C88 JUMP JUMPDEST PUSH2 0x30C PUSH2 0x5AE CALLDATASIZE PUSH1 0x4 PUSH2 0x2AAA JUMP JUMPDEST PUSH1 0x0 SWAP1 DUP2 MSTORE PUSH1 0x5 PUSH1 0x20 MSTORE PUSH1 0x40 SWAP1 KECCAK256 SLOAD SWAP1 JUMP JUMPDEST PUSH2 0x293 PUSH2 0x5CE CALLDATASIZE PUSH1 0x4 PUSH2 0x3010 JUMP JUMPDEST PUSH2 0x1E2F JUMP JUMPDEST PUSH2 0x26B PUSH2 0x5E1 CALLDATASIZE PUSH1 0x4 PUSH2 0x2912 JUMP JUMPDEST PUSH2 0x1EB8 JUMP JUMPDEST PUSH1 0x40 MLOAD PUSH32 0xA3C3D77668DF13D1773745F9954AFB4B1A542AAAB80E68867C90A432FBFB465E SWAP1 PUSH1 0x0 SWAP1 LOG1 PUSH1 0x0 DUP1 PUSH2 0x61E DUP4 DUP6 ADD DUP6 PUSH2 0x30A6 JUMP JUMPDEST SWAP2 POP SWAP2 POP PUSH1 0x0 DUP1 MLOAD PUSH1 0x20 PUSH2 0x400E DUP4 CODECOPY DUP2 MLOAD SWAP2 MSTORE DUP3 DUP3 PUSH1 0x40 MLOAD PUSH2 0x641 SWAP3 SWAP2 SWAP1 PUSH2 0x3109 JUMP JUMPDEST PUSH1 0x40 MLOAD DUP1 SWAP2 SUB SWAP1 LOG1 POP POP POP POP JUMP JUMPDEST CALLER ADDRESS EQ PUSH2 0x66F JUMPI PUSH1 0x40 MLOAD PUSH4 0x14E1DBF7 PUSH1 0xE1 SHL DUP2 MSTORE PUSH1 0x4 ADD PUSH1 0x40 MLOAD DUP1 SWAP2 SUB SWAP1 REVERT JUMPDEST PUSH1 0x0 DUP1 DUP1 PUSH2 0x67F DUP6 DUP8 ADD DUP8 PUSH2 0x3147 JUMP JUMPDEST SWAP3 POP SWAP3 POP SWAP3 POP PUSH2 0x690 DUP4 DUP4 DUP4 PUSH2 0x1F58 JUMP JUMPDEST POP POP POP POP POP POP JUMP JUMPDEST PUSH1 0x0 DUP1 PUSH2 0x749 DUP12 DUP12 DUP12 DUP1 DUP1 PUSH1 0x1F ADD PUSH1 0x20 DUP1 SWAP2 DIV MUL PUSH1 0x20 ADD PUSH1 0x40 MLOAD SWAP1 DUP2 ADD PUSH1 0x40 MSTORE DUP1 SWAP4 SWAP3 SWAP2 SWAP1 DUP2 DUP2 MSTORE PUSH1 0x20 ADD DUP4 DUP4 DUP1 DUP3 DUP5 CALLDATACOPY PUSH1 0x0 SWAP3 ADD SWAP2 SWAP1 SWAP2 MSTORE POP POP PUSH1 0x40 DUP1 MLOAD PUSH1 0x20 PUSH1 0x1F DUP16 ADD DUP2 SWAP1 DIV DUP2 MUL DUP3 ADD DUP2 ADD SWAP1 SWAP3 MSTORE DUP14 DUP2 MSTORE SWAP3 POP DUP14 SWAP2 POP DUP13 SWAP1 DUP2 SWAP1 DUP5 ADD DUP4 DUP3 DUP1 DUP3 DUP5 CALLDATACOPY PUSH1 0x0 SWAP3 ADD SWAP2 SWAP1 SWAP2 MSTORE POP POP PUSH1 0x40 DUP1 MLOAD PUSH1 0x20 PUSH1 0x1F DUP14 ADD DUP2 SWAP1 DIV DUP2 MUL DUP3 ADD DUP2 ADD SWAP1 SWAP3 MSTORE DUP12 DUP2 MSTORE CALLER SWAP4 POP DUP14 SWAP3 POP SWAP1 DUP13 SWAP1 DUP13 SWAP1 DUP2 SWAP1 DUP5 ADD DUP4 DUP3 DUP1 DUP3 DUP5 CALLDATACOPY PUSH1 0x0 SWAP3 ADD SWAP2 SWAP1 SWAP2 MSTORE POP DUP13 SWAP3 POP PUSH2 0x204D SWAP2 POP POP JUMP JUMPDEST PUSH1 0x0 DUP2 DUP2 MSTORE PUSH1 0x4 PUSH1 0x20 MSTORE PUSH1 0x40 SWAP1 KECCAK256 SLOAD PUSH1 0xFF AND SWAP3 POP SWAP1 POP DUP2 ISZERO PUSH2 0x7DE JUMPI PUSH2 0x770 DUP2 PUSH1 0x0 PUSH2 0x20B1 JUMP JUMPDEST PUSH1 0x40 MLOAD DUP12 SWAP1 PUSH32 0x91057B069763121972CE22B18B2F319B1520DD4C72F1F94A6395E81CEAF63F41 SWAP1 PUSH1 0x0 SWAP1 LOG2 PUSH2 0x7DE DUP6 DUP6 DUP1 DUP1 PUSH1 0x1F ADD PUSH1 0x20 DUP1 SWAP2 DIV MUL PUSH1 0x20 ADD PUSH1 0x40 MLOAD SWAP1 DUP2 ADD PUSH1 0x40 MSTORE DUP1 SWAP4 SWAP3 SWAP2 SWAP1 DUP2 DUP2 MSTORE PUSH1 0x20 ADD DUP4 DUP4 DUP1 DUP3 DUP5 CALLDATACOPY PUSH1 0x0 SWAP3 ADD SWAP2 SWAP1 SWAP2 MSTORE POP CALLER SWAP3 POP DUP8 SWAP2 POP PUSH2 0x1F58 SWAP1 POP JUMP JUMPDEST POP SWAP10 SWAP9 POP POP POP POP POP POP POP POP POP JUMP JUMPDEST DUP2 DUP2 PUSH1 0x40 MLOAD PUSH2 0x7FC SWAP3 SWAP2 SWAP1 PUSH2 0x31A0 JUMP JUMPDEST PUSH1 0x40 MLOAD DUP1 SWAP2 SUB SWAP1 KECCAK256 CALLER PUSH1 0x1 PUSH1 0x1 PUSH1 0xA0 SHL SUB AND PUSH32 0x30AE6CC78C27E651745BF2AD08A11DE83910AC1E347A52F7AC898C0FBEF94DAE DUP9 DUP9 DUP9 DUP9 DUP9 DUP9 PUSH1 0x40 MLOAD PUSH2 0x847 SWAP7 SWAP6 SWAP5 SWAP4 SWAP3 SWAP2 SWAP1 PUSH2 0x31D9 JUMP JUMPDEST PUSH1 0x40 MLOAD DUP1 SWAP2 SUB SWAP1 LOG3 POP POP POP POP POP POP JUMP JUMPDEST PUSH1 0x0 SWAP1 DUP2 MSTORE PUSH1 0x2 PUSH1 0x20 MSTORE PUSH1 0x40 SWAP1 KECCAK256 SLOAD PUSH1 0x1 PUSH1 0x1 PUSH1 0xA0 SHL SUB AND SWAP1 JUMP JUMPDEST PUSH1 0x0 DUP1 PUSH2 0x881 DUP4 DUP6 ADD DUP6 PUSH2 0x30A6 JUMP JUMPDEST SWAP2 POP SWAP2 POP PUSH1 0x0 DUP1 MLOAD PUSH1 0x20 PUSH2 0x400E DUP4 CODECOPY DUP2 MLOAD SWAP2 MSTORE DUP3 DUP3 PUSH1 0x40 MLOAD PUSH2 0x8A4 SWAP3 SWAP2 SWAP1 PUSH2 0x3109 JUMP JUMPDEST PUSH1 0x40 MLOAD DUP1 SWAP2 SUB SWAP1 LOG1 PUSH1 0x0 PUSH2 0x8BE DUP4 DUP1 MLOAD SWAP1 PUSH1 0x20 ADD KECCAK256 PUSH2 0x20D1 JUMP JUMPDEST PUSH1 0x40 MLOAD SWAP1 SWAP2 POP PUSH32 0x9879AE38939EC1D36131E8982FC792E91F2012293B0506BDF2176C6FE69A1DCE SWAP1 PUSH1 0x0 SWAP1 LOG1 POP POP POP POP POP JUMP JUMPDEST PUSH1 0x0 PUSH2 0x8FF PUSH2 0x514 DUP4 PUSH2 0x2125 JUMP JUMPDEST SWAP3 SWAP2 POP POP JUMP JUMPDEST PUSH2 0x947 CALLER DUP5 DUP5 DUP1 DUP1 PUSH1 0x1F ADD PUSH1 0x20 DUP1 SWAP2 DIV MUL PUSH1 0x20 ADD PUSH1 0x40 MLOAD SWAP1 DUP2 ADD PUSH1 0x40 MSTORE DUP1 SWAP4 SWAP3 SWAP2 SWAP1 DUP2 DUP2 MSTORE PUSH1 0x20 ADD DUP4 DUP4 DUP1 DUP3 DUP5 CALLDATACOPY PUSH1 0x0 SWAP3 ADD SWAP2 SWAP1 SWAP2 MSTORE POP DUP7 SWAP3 POP PUSH2 0x215A SWAP2 POP POP JUMP JUMPDEST CALLER PUSH1 0x1 PUSH1 0x1 PUSH1 0xA0 SHL SUB AND PUSH32 0x651D93F66C4329630E8D0F62488EFF599E3BE484DA587335E8DC0FCF46062726 DUP9 DUP9 DUP9 DUP9 DUP9 DUP9 DUP9 PUSH1 0x40 MLOAD PUSH2 0x98C SWAP8 SWAP7 SWAP6 SWAP5 SWAP4 SWAP3 SWAP2 SWAP1 PUSH2 0x3222 JUMP JUMPDEST PUSH1 0x40 MLOAD DUP1 SWAP2 SUB SWAP1 LOG2 POP POP POP POP POP POP POP JUMP JUMPDEST PUSH2 0x9B4 PUSH1 0x0 DUP1 MLOAD PUSH1 0x20 PUSH2 0x404E DUP4 CODECOPY DUP2 MLOAD SWAP2 MSTORE PUSH2 0x857 JUMP JUMPDEST PUSH1 0x1 PUSH1 0x1 PUSH1 0xA0 SHL SUB AND CALLER PUSH1 0x1 PUSH1 0x1 PUSH1 0xA0 SHL SUB AND EQ ISZERO DUP1 ISZERO PUSH2 0x9FD JUMPI POP PUSH2 0x9E7 PUSH1 0x0 DUP1 MLOAD PUSH1 0x20 PUSH2 0x402E DUP4 CODECOPY DUP2 MLOAD SWAP2 MSTORE PUSH2 0x857 JUMP JUMPDEST PUSH1 0x1 PUSH1 0x1 PUSH1 0xA0 SHL SUB AND CALLER PUSH1 0x1 PUSH1 0x1 PUSH1 0xA0 SHL SUB AND EQ ISZERO JUMPDEST ISZERO PUSH2 0xA1B JUMPI PUSH1 0x40 MLOAD PUSH4 0x223AA83D PUSH1 0xE1 SHL DUP2 MSTORE PUSH1 0x4 ADD PUSH1 0x40 MLOAD DUP1 SWAP2 SUB SWAP1 REVERT JUMPDEST PUSH1 0x1 PUSH1 0x1 PUSH1 0xA0 SHL SUB DUP2 AND PUSH2 0xA42 JUMPI PUSH1 0x40 MLOAD PUSH4 0x35E75DCB PUSH1 0xE2 SHL DUP2 MSTORE PUSH1 0x4 ADD PUSH1 0x40 MLOAD DUP1 SWAP2 SUB SWAP1 REVERT JUMPDEST PUSH2 0xA4B DUP2 PUSH2 0x230C JUMP JUMPDEST POP JUMP JUMPDEST CALLER ADDRESS EQ PUSH2 0xA6E JUMPI PUSH1 0x40 MLOAD PUSH4 0x14E1DBF7 PUSH1 0xE1 SHL DUP2 MSTORE PUSH1 0x4 ADD PUSH1 0x40 MLOAD DUP1 SWAP2 SUB SWAP1 REVERT JUMPDEST PUSH1 0x0 DUP1 PUSH2 0xA7D DUP5 DUP7 ADD DUP7 PUSH2 0x3273 JUMP JUMPDEST SWAP2 POP SWAP2 POP PUSH1 0x0 PUSH2 0xA8C DUP4 PUSH2 0x14FD JUMP JUMPDEST SWAP1 POP PUSH1 0x1 PUSH1 0x1 PUSH1 0xA0 SHL SUB DUP2 AND PUSH2 0xAC0 JUMPI DUP3 PUSH1 0x40 MLOAD PUSH4 0x395D09BF PUSH1 0xE1 SHL DUP2 MSTORE PUSH1 0x4 ADD PUSH2 0xAB7 SWAP2 SWAP1 PUSH2 0x2E16 JUMP JUMPDEST PUSH1 0x40 MLOAD DUP1 SWAP2 SUB SWAP1 REVERT JUMPDEST PUSH1 0x2 PUSH2 0xACB DUP5 PUSH2 0x237A JUMP JUMPDEST PUSH1 0x2 DUP2 GT ISZERO PUSH2 0xADC JUMPI PUSH2 0xADC PUSH2 0x32B7 JUMP JUMPDEST SUB PUSH2 0xDB0 JUMPI PUSH1 0x0 PUSH2 0xB80 DUP4 PUSH1 0x40 MLOAD DUP1 PUSH1 0x20 ADD PUSH2 0xAF7 SWAP1 PUSH2 0x287C JUMP JUMPDEST PUSH1 0x1F NOT DUP3 DUP3 SUB DUP2 ADD DUP4 MSTORE PUSH1 0x1F SWAP1 SWAP2 ADD AND PUSH1 0x40 DUP2 SWAP1 MSTORE PUSH2 0xB19 SWAP2 SWAP1 PUSH1 0x20 ADD PUSH2 0x32CD JUMP JUMPDEST PUSH1 0x40 DUP1 MLOAD PUSH1 0x1F NOT DUP2 DUP5 SUB ADD DUP2 MSTORE DUP3 DUP3 MSTORE DUP1 MLOAD PUSH1 0x20 SWAP2 DUP3 ADD KECCAK256 PUSH1 0x1 PUSH1 0x1 PUSH1 0xF8 SHL SUB NOT DUP5 DUP4 ADD MSTORE PUSH12 0xFFFFFFFFFFFFFFFFFFFFFFFF NOT ADDRESS PUSH1 0x60 SHL AND PUSH1 0x21 DUP6 ADD MSTORE PUSH1 0x35 DUP5 ADD SWAP5 SWAP1 SWAP5 MSTORE PUSH1 0x55 DUP1 DUP5 ADD SWAP5 SWAP1 SWAP5 MSTORE DUP2 MLOAD DUP1 DUP5 SUB SWAP1 SWAP5 ADD DUP5 MSTORE PUSH1 0x75 SWAP1 SWAP3 ADD SWAP1 MSTORE DUP2 MLOAD SWAP2 ADD KECCAK256 SWAP1 JUMP JUMPDEST SWAP1 POP PUSH2 0xB94 DUP2 PUSH1 0x1 PUSH1 0x1 PUSH1 0xA0 SHL SUB AND PUSH2 0x2399 JUMP JUMPDEST ISZERO PUSH2 0xBA2 JUMPI POP POP POP POP POP POP POP JUMP JUMPDEST PUSH1 0x0 DUP4 PUSH1 0x40 MLOAD PUSH2 0xBB1 SWAP1 PUSH2 0x287C JUMP JUMPDEST DUP2 SWAP1 PUSH1 0x40 MLOAD DUP1 SWAP2 SUB SWAP1 PUSH1 0x0 CREATE2 SWAP1 POP DUP1 ISZERO DUP1 ISZERO PUSH2 0xBD1 JUMPI RETURNDATASIZE PUSH1 0x0 DUP1 RETURNDATACOPY RETURNDATASIZE PUSH1 0x0 REVERT JUMPDEST POP PUSH1 0x40 MLOAD PUSH4 0x70A08231 PUSH1 0xE0 SHL DUP2 MSTORE PUSH1 0x1 PUSH1 0x1 PUSH1 0xA0 SHL SUB DUP1 DUP4 AND PUSH1 0x4 DUP4 ADD DUP2 SWAP1 MSTORE SWAP3 SWAP4 POP PUSH1 0x0 SWAP3 DUP4 SWAP3 SWAP1 SWAP2 PUSH4 0x1CFF79CD SWAP2 DUP9 SWAP2 PUSH4 0xA9059CBB PUSH1 0xE0 SHL SWAP2 ADDRESS SWAP2 DUP5 AND SWAP1 PUSH4 0x70A08231 SWAP1 PUSH1 0x24 ADD PUSH1 0x20 PUSH1 0x40 MLOAD DUP1 DUP4 SUB DUP2 DUP7 GAS STATICCALL ISZERO DUP1 ISZERO PUSH2 0xC37 JUMPI RETURNDATASIZE PUSH1 0x0 DUP1 RETURNDATACOPY RETURNDATASIZE PUSH1 0x0 REVERT JUMPDEST POP POP POP POP PUSH1 0x40 MLOAD RETURNDATASIZE PUSH1 0x1F NOT PUSH1 0x1F DUP3 ADD AND DUP3 ADD DUP1 PUSH1 0x40 MSTORE POP DUP2 ADD SWAP1 PUSH2 0xC5B SWAP2 SWAP1 PUSH2 0x32E9 JUMP JUMPDEST PUSH1 0x40 MLOAD PUSH1 0x1 PUSH1 0x1 PUSH1 0xA0 SHL SUB SWAP1 SWAP3 AND PUSH1 0x24 DUP4 ADD MSTORE PUSH1 0x44 DUP3 ADD MSTORE PUSH1 0x64 ADD PUSH1 0x40 DUP1 MLOAD PUSH1 0x1F NOT DUP2 DUP5 SUB ADD DUP2 MSTORE SWAP2 DUP2 MSTORE PUSH1 0x20 DUP3 ADD DUP1 MLOAD PUSH1 0x1 PUSH1 0x1 PUSH1 0xE0 SHL SUB AND PUSH1 0x1 PUSH1 0x1 PUSH1 0xE0 SHL SUB NOT SWAP5 DUP6 AND OR SWAP1 MSTORE MLOAD PUSH1 0xE0 DUP6 SWAP1 SHL SWAP1 SWAP3 AND DUP3 MSTORE PUSH2 0xCBC SWAP3 SWAP2 PUSH1 0x4 ADD PUSH2 0x3302 JUMP JUMPDEST PUSH1 0x0 PUSH1 0x40 MLOAD DUP1 DUP4 SUB DUP2 PUSH1 0x0 DUP8 GAS CALL ISZERO DUP1 ISZERO PUSH2 0xCDB JUMPI RETURNDATASIZE PUSH1 0x0 DUP1 RETURNDATACOPY RETURNDATASIZE PUSH1 0x0 REVERT JUMPDEST POP POP POP POP PUSH1 0x40 MLOAD RETURNDATASIZE PUSH1 0x0 DUP3 RETURNDATACOPY PUSH1 0x1F RETURNDATASIZE SWAP1 DUP2 ADD PUSH1 0x1F NOT AND DUP3 ADD PUSH1 0x40 MSTORE PUSH2 0xD03 SWAP2 SWAP1 DUP2 ADD SWAP1 PUSH2 0x3386 JUMP JUMPDEST SWAP2 POP SWAP2 POP DUP2 ISZERO DUP1 PUSH2 0xD30 JUMPI POP DUP1 MLOAD ISZERO DUP1 ISZERO SWAP1 PUSH2 0xD30 JUMPI POP DUP1 DUP1 PUSH1 0x20 ADD SWAP1 MLOAD DUP2 ADD SWAP1 PUSH2 0xD2E SWAP2 SWAP1 PUSH2 0x33C9 JUMP JUMPDEST ISZERO JUMPDEST ISZERO PUSH2 0xD50 JUMPI DUP7 PUSH1 0x40 MLOAD PUSH4 0xE217B0AD PUSH1 0xE0 SHL DUP2 MSTORE PUSH1 0x4 ADD PUSH2 0xAB7 SWAP2 SWAP1 PUSH2 0x2E16 JUMP JUMPDEST PUSH1 0x40 MLOAD PUSH3 0xF55D9D PUSH1 0xE0 SHL DUP2 MSTORE ADDRESS PUSH1 0x4 DUP3 ADD MSTORE PUSH1 0x1 PUSH1 0x1 PUSH1 0xA0 SHL SUB DUP5 AND SWAP1 PUSH3 0xF55D9D SWAP1 PUSH1 0x24 ADD PUSH1 0x0 PUSH1 0x40 MLOAD DUP1 DUP4 SUB DUP2 PUSH1 0x0 DUP8 DUP1 EXTCODESIZE ISZERO DUP1 ISZERO PUSH2 0xD8F JUMPI PUSH1 0x0 DUP1 REVERT JUMPDEST POP GAS CALL ISZERO DUP1 ISZERO PUSH2 0xDA3 JUMPI RETURNDATASIZE PUSH1 0x0 DUP1 RETURNDATACOPY RETURNDATASIZE PUSH1 0x0 REVERT JUMPDEST POP POP POP POP POP POP POP POP PUSH2 0x690 JUMP JUMPDEST PUSH1 0x40 MLOAD PUSH4 0x8A1EEE1 PUSH1 0xE0 SHL DUP2 MSTORE PUSH1 0x4 DUP2 ADD DUP4 SWAP1 MSTORE PUSH1 0x1 PUSH1 0x1 PUSH1 0xA0 SHL SUB DUP3 AND SWAP1 PUSH4 0x8A1EEE1 SWAP1 PUSH1 0x24 ADD PUSH1 0x0 PUSH1 0x40 MLOAD DUP1 DUP4 SUB DUP2 PUSH1 0x0 DUP8 DUP1 EXTCODESIZE ISZERO DUP1 ISZERO PUSH2 0xDF2 JUMPI PUSH1 0x0 DUP1 REVERT JUMPDEST POP GAS CALL ISZERO DUP1 ISZERO PUSH2 0xE06 JUMPI RETURNDATASIZE PUSH1 0x0 DUP1 RETURNDATACOPY RETURNDATASIZE PUSH1 0x0 REVERT JUMPDEST POP POP POP POP POP POP POP JUMPDEST POP POP POP JUMP JUMPDEST CALLER ADDRESS EQ PUSH2 0xE33 JUMPI PUSH1 0x40 MLOAD PUSH4 0x14E1DBF7 PUSH1 0xE1 SHL DUP2 MSTORE PUSH1 0x4 ADD PUSH1 0x40 MLOAD DUP1 SWAP2 SUB SWAP1 REVERT JUMPDEST PUSH1 0x0 DUP1 DUP1 DUP1 DUP1 DUP1 DUP1 DUP1 PUSH2 0xE48 DUP11 DUP13 ADD DUP13 PUSH2 0x33E4 JUMP JUMPDEST SWAP8 POP SWAP8 POP SWAP8 POP SWAP8 POP SWAP8 POP SWAP8 POP SWAP8 POP SWAP8 POP PUSH2 0xE67 DUP10 DUP10 DUP10 DUP10 DUP10 DUP10 DUP10 PUSH2 0x23DC JUMP JUMPDEST DUP5 DUP7 PUSH1 0x1 PUSH1 0x1 PUSH1 0xA0 SHL SUB AND DUP11 PUSH32 0x9991FAA1F435675159FFAE64B66D7ECFDB55C29755869A18DB8497B4392347E0 DUP12 DUP12 DUP10 DUP10 DUP10 DUP10 PUSH1 0x40 MLOAD PUSH2 0xEAC SWAP7 SWAP6 SWAP5 SWAP4 SWAP3 SWAP2 SWAP1 PUSH2 0x34A1 JUMP JUMPDEST PUSH1 0x40 MLOAD DUP1 SWAP2 SUB SWAP1 LOG4 POP POP POP POP POP POP POP POP POP POP POP JUMP JUMPDEST PUSH1 0x0 PUSH2 0xEDA PUSH1 0x0 DUP1 MLOAD PUSH1 0x20 PUSH2 0x402E DUP4 CODECOPY DUP2 MLOAD SWAP2 MSTORE PUSH2 0x857 JUMP JUMPDEST SWAP1 POP SWAP1 JUMP JUMPDEST PUSH1 0x0 PUSH2 0xEDA PUSH32 0x360894A13BA1A3210667C828492DB98DCA3E2076CC3735A920A3CA505D382BBC PUSH2 0x857 JUMP JUMPDEST PUSH1 0x0 DUP1 PUSH2 0xF85 DUP9 DUP9 DUP9 DUP1 DUP1 PUSH1 0x1F ADD PUSH1 0x20 DUP1 SWAP2 DIV MUL PUSH1 0x20 ADD PUSH1 0x40 MLOAD SWAP1 DUP2 ADD PUSH1 0x40 MSTORE DUP1 SWAP4 SWAP3 SWAP2 SWAP1 DUP2 DUP2 MSTORE PUSH1 0x20 ADD DUP4 DUP4 DUP1 DUP3 DUP5 CALLDATACOPY PUSH1 0x0 SWAP3 ADD SWAP2 SWAP1 SWAP2 MSTORE POP POP PUSH1 0x40 DUP1 MLOAD PUSH1 0x20 PUSH1 0x1F DUP13 ADD DUP2 SWAP1 DIV DUP2 MUL DUP3 ADD DUP2 ADD SWAP1 SWAP3 MSTORE DUP11 DUP2 MSTORE SWAP3 POP DUP11 SWAP2 POP DUP10 SWAP1 DUP2 SWAP1 DUP5 ADD DUP4 DUP3 DUP1 DUP3 DUP5 CALLDATACOPY PUSH1 0x0 SWAP3 ADD SWAP2 SWAP1 SWAP2 MSTORE POP CALLER SWAP3 POP DUP10 SWAP2 POP PUSH2 0x23F5 SWAP1 POP JUMP JUMPDEST PUSH1 0x0 DUP2 DUP2 MSTORE PUSH1 0x4 PUSH1 0x20 MSTORE PUSH1 0x40 SWAP1 KECCAK256 SLOAD PUSH1 0xFF AND SWAP3 POP SWAP1 POP DUP2 ISZERO PUSH2 0xFD8 JUMPI PUSH2 0xFAC DUP2 PUSH1 0x0 PUSH2 0x20B1 JUMP JUMPDEST PUSH1 0x40 MLOAD DUP9 SWAP1 PUSH32 0x91057B069763121972CE22B18B2F319B1520DD4C72F1F94A6395E81CEAF63F41 SWAP1 PUSH1 0x0 SWAP1 LOG2 JUMPDEST POP SWAP7 SWAP6 POP POP POP POP POP POP JUMP JUMPDEST PUSH2 0xFFA PUSH1 0x0 DUP1 MLOAD PUSH1 0x20 PUSH2 0x404E DUP4 CODECOPY DUP2 MLOAD SWAP2 MSTORE PUSH2 0x857 JUMP JUMPDEST PUSH1 0x1 PUSH1 0x1 PUSH1 0xA0 SHL SUB AND CALLER PUSH1 0x1 PUSH1 0x1 PUSH1 0xA0 SHL SUB AND EQ ISZERO DUP1 ISZERO PUSH2 0x1043 JUMPI POP PUSH2 0x102D PUSH1 0x0 DUP1 MLOAD PUSH1 0x20 PUSH2 0x402E DUP4 CODECOPY DUP2 MLOAD SWAP2 MSTORE PUSH2 0x857 JUMP JUMPDEST PUSH1 0x1 PUSH1 0x1 PUSH1 0xA0 SHL SUB AND CALLER PUSH1 0x1 PUSH1 0x1 PUSH1 0xA0 SHL SUB AND EQ ISZERO JUMPDEST ISZERO PUSH2 0x1061 JUMPI PUSH1 0x40 MLOAD PUSH4 0x223AA83D PUSH1 0xE1 SHL DUP2 MSTORE PUSH1 0x4 ADD PUSH1 0x40 MLOAD DUP1 SWAP2 SUB SWAP1 REVERT JUMPDEST DUP3 DUP2 DUP2 EQ PUSH2 0x1082 JUMPI PUSH1 0x40 MLOAD PUSH4 0x14A2275F PUSH1 0xE0 SHL DUP2 MSTORE PUSH1 0x4 ADD PUSH1 0x40 MLOAD DUP1 SWAP2 SUB SWAP1 REVERT JUMPDEST PUSH1 0x0 JUMPDEST DUP2 DUP2 LT ISZERO PUSH2 0x690 JUMPI PUSH1 0x0 DUP7 DUP7 DUP4 DUP2 DUP2 LT PUSH2 0x10A1 JUMPI PUSH2 0x10A1 PUSH2 0x34F9 JUMP JUMPDEST SWAP1 POP PUSH1 0x20 MUL DUP2 ADD SWAP1 PUSH2 0x10B3 SWAP2 SWAP1 PUSH2 0x350F JUMP JUMPDEST DUP1 DUP1 PUSH1 0x1F ADD PUSH1 0x20 DUP1 SWAP2 DIV MUL PUSH1 0x20 ADD PUSH1 0x40 MLOAD SWAP1 DUP2 ADD PUSH1 0x40 MSTORE DUP1 SWAP4 SWAP3 SWAP2 SWAP1 DUP2 DUP2 MSTORE PUSH1 0x20 ADD DUP4 DUP4 DUP1 DUP3 DUP5 CALLDATACOPY PUSH1 0x0 SWAP3 ADD DUP3 SWAP1 MSTORE POP SWAP4 SWAP5 POP DUP9 SWAP3 POP DUP8 SWAP2 POP DUP6 SWAP1 POP DUP2 DUP2 LT PUSH2 0x10FE JUMPI PUSH2 0x10FE PUSH2 0x34F9 JUMP JUMPDEST SWAP1 POP PUSH1 0x20 MUL ADD CALLDATALOAD SWAP1 POP PUSH1 0x0 PUSH1 0x1 PUSH1 0x1 PUSH1 0xA0 SHL SUB AND PUSH2 0x111B DUP4 PUSH2 0x14FD JUMP JUMPDEST PUSH1 0x1 PUSH1 0x1 PUSH1 0xA0 SHL SUB AND SUB PUSH2 0x1144 JUMPI DUP2 PUSH1 0x40 MLOAD PUSH4 0x395D09BF PUSH1 0xE1 SHL DUP2 MSTORE PUSH1 0x4 ADD PUSH2 0xAB7 SWAP2 SWAP1 PUSH2 0x2E16 JUMP JUMPDEST PUSH2 0x114E DUP3 DUP3 PUSH2 0x2453 JUMP JUMPDEST POP POP PUSH1 0x1 ADD PUSH2 0x1085 JUMP JUMPDEST PUSH1 0x0 DUP1 PUSH2 0x1167 DUP4 DUP6 ADD DUP6 PUSH2 0x30A6 JUMP JUMPDEST SWAP2 POP SWAP2 POP PUSH1 0x0 DUP1 MLOAD PUSH1 0x20 PUSH2 0x400E DUP4 CODECOPY DUP2 MLOAD SWAP2 MSTORE DUP3 DUP3 PUSH1 0x40 MLOAD PUSH2 0x118A SWAP3 SWAP2 SWAP1 PUSH2 0x3109 JUMP JUMPDEST PUSH1 0x40 MLOAD DUP1 SWAP2 SUB SWAP1 LOG1 PUSH1 0x0 PUSH2 0x11A4 DUP4 DUP1 MLOAD SWAP1 PUSH1 0x20 ADD KECCAK256 PUSH2 0x20D1 JUMP JUMPDEST PUSH1 0x40 MLOAD SWAP1 SWAP2 POP PUSH32 0x9879AE38939EC1D36131E8982FC792E91F2012293B0506BDF2176C6FE69A1DCE SWAP1 PUSH1 0x0 SWAP1 LOG1 PUSH1 0x40 MLOAD PUSH4 0x39F1EB35 PUSH1 0xE1 SHL DUP2 MSTORE PUSH1 0x0 SWAP1 PUSH1 0x1 PUSH1 0x1 PUSH1 0xA0 SHL SUB PUSH32 0x0 AND SWAP1 PUSH4 0x73E3D66A SWAP1 PUSH2 0x1221 SWAP1 DUP6 SWAP1 DUP8 SWAP1 PUSH1 0x4 ADD PUSH2 0x3555 JUMP JUMPDEST PUSH1 0x20 PUSH1 0x40 MLOAD DUP1 DUP4 SUB DUP2 PUSH1 0x0 DUP8 GAS CALL ISZERO DUP1 ISZERO PUSH2 0x1240 JUMPI RETURNDATASIZE PUSH1 0x0 DUP1 RETURNDATACOPY RETURNDATASIZE PUSH1 0x0 REVERT JUMPDEST POP POP POP POP PUSH1 0x40 MLOAD RETURNDATASIZE PUSH1 0x1F NOT PUSH1 0x1F DUP3 ADD AND DUP3 ADD DUP1 PUSH1 0x40 MSTORE POP DUP2 ADD SWAP1 PUSH2 0x1264 SWAP2 SWAP1 PUSH2 0x33C9 JUMP JUMPDEST PUSH1 0x40 MLOAD SWAP1 SWAP2 POP PUSH32 0xB3D9151590DAF4DBC78D33D371AEEEC2E0A87D154082DC641E6A70BFBD1CB48 SWAP1 PUSH1 0x0 SWAP1 LOG1 POP POP POP POP POP POP JUMP JUMPDEST CALLER ADDRESS EQ PUSH2 0x12B8 JUMPI PUSH1 0x40 MLOAD PUSH4 0x14E1DBF7 PUSH1 0xE1 SHL DUP2 MSTORE PUSH1 0x4 ADD PUSH1 0x40 MLOAD DUP1 SWAP2 SUB SWAP1 REVERT JUMPDEST PUSH1 0x0 DUP1 DUP1 DUP1 DUP1 DUP1 PUSH2 0x12CB DUP9 DUP11 ADD DUP11 PUSH2 0x356E JUMP JUMPDEST SWAP6 POP SWAP6 POP SWAP6 POP SWAP6 POP SWAP6 POP SWAP6 POP PUSH1 0x0 PUSH1 0x1 PUSH1 0x1 PUSH1 0xA0 SHL SUB AND PUSH2 0x12EB DUP7 PUSH2 0x14FD JUMP JUMPDEST PUSH1 0x1 PUSH1 0x1 PUSH1 0xA0 SHL SUB AND EQ PUSH2 0x1314 JUMPI DUP5 PUSH1 0x40 MLOAD PUSH4 0x553F4599 PUSH1 0xE1 SHL DUP2 MSTORE PUSH1 0x4 ADD PUSH2 0xAB7 SWAP2 SWAP1 PUSH2 0x2E16 JUMP JUMPDEST PUSH2 0x131E DUP6 DUP3 PUSH2 0x2453 JUMP JUMPDEST PUSH1 0x1 PUSH1 0x1 PUSH1 0xA0 SHL SUB DUP3 AND PUSH2 0x1471 JUMPI PUSH1 0x0 DUP6 PUSH1 0x40 MLOAD PUSH1 0x20 ADD PUSH2 0x133F SWAP2 SWAP1 PUSH2 0x32CD JUMP JUMPDEST PUSH1 0x40 MLOAD PUSH1 0x20 DUP2 DUP4 SUB SUB DUP2 MSTORE SWAP1 PUSH1 0x40 MSTORE DUP1 MLOAD SWAP1 PUSH1 0x20 ADD KECCAK256 SWAP1 POP PUSH2 0x1362 DUP7 PUSH1 0x1 PUSH2 0x24AF JUMP JUMPDEST PUSH1 0x0 DUP1 PUSH32 0x0 PUSH1 0x1 PUSH1 0x1 PUSH1 0xA0 SHL SUB AND PUSH4 0x6FC95B34 PUSH1 0xE0 SHL DUP11 DUP11 DUP11 DUP11 DUP9 PUSH1 0x40 MLOAD PUSH1 0x24 ADD PUSH2 0x13B0 SWAP6 SWAP5 SWAP4 SWAP3 SWAP2 SWAP1 PUSH2 0x3610 JUMP JUMPDEST PUSH1 0x40 DUP1 MLOAD PUSH1 0x1F NOT DUP2 DUP5 SUB ADD DUP2 MSTORE SWAP2 DUP2 MSTORE PUSH1 0x20 DUP3 ADD DUP1 MLOAD PUSH1 0x1 PUSH1 0x1 PUSH1 0xE0 SHL SUB AND PUSH1 0x1 PUSH1 0x1 PUSH1 0xE0 SHL SUB NOT SWAP1 SWAP5 AND SWAP4 SWAP1 SWAP4 OR SWAP1 SWAP3 MSTORE SWAP1 MLOAD PUSH2 0x13EE SWAP2 SWAP1 PUSH2 0x32CD JUMP JUMPDEST PUSH1 0x0 PUSH1 0x40 MLOAD DUP1 DUP4 SUB DUP2 DUP6 GAS DELEGATECALL SWAP2 POP POP RETURNDATASIZE DUP1 PUSH1 0x0 DUP2 EQ PUSH2 0x1429 JUMPI PUSH1 0x40 MLOAD SWAP2 POP PUSH1 0x1F NOT PUSH1 0x3F RETURNDATASIZE ADD AND DUP3 ADD PUSH1 0x40 MSTORE RETURNDATASIZE DUP3 MSTORE RETURNDATASIZE PUSH1 0x0 PUSH1 0x20 DUP5 ADD RETURNDATACOPY PUSH2 0x142E JUMP JUMPDEST PUSH1 0x60 SWAP2 POP JUMPDEST POP SWAP2 POP SWAP2 POP DUP2 PUSH2 0x1453 JUMPI DUP8 PUSH1 0x40 MLOAD PUSH4 0x86D52743 PUSH1 0xE0 SHL DUP2 MSTORE PUSH1 0x4 ADD PUSH2 0xAB7 SWAP2 SWAP1 PUSH2 0x2E16 JUMP JUMPDEST DUP1 DUP1 PUSH1 0x20 ADD SWAP1 MLOAD DUP2 ADD SWAP1 PUSH2 0x1467 SWAP2 SWAP1 PUSH2 0x3656 JUMP JUMPDEST SWAP5 POP POP POP POP PUSH2 0x14AF JUMP JUMPDEST PUSH1 0x1 PUSH1 0x1 PUSH1 0xA0 SHL SUB DUP3 AND EXTCODESIZE PUSH2 0x14A4 JUMPI PUSH1 0x40 MLOAD PUSH4 0x62E66EEF PUSH1 0xE1 SHL DUP2 MSTORE PUSH1 0x1 PUSH1 0x1 PUSH1 0xA0 SHL SUB DUP4 AND PUSH1 0x4 DUP3 ADD MSTORE PUSH1 0x24 ADD PUSH2 0xAB7 JUMP JUMPDEST PUSH2 0x14AF DUP6 PUSH1 0x2 PUSH2 0x24AF JUMP JUMPDEST PUSH32 0xBF90B5A1EC9763E8BF4B9245CEF0C28DB92BAB309FC2C5177F17814F38246938 DUP6 DUP4 PUSH1 0x40 MLOAD PUSH2 0x14E0 SWAP3 SWAP2 SWAP1 PUSH2 0x3673 JUMP JUMPDEST PUSH1 0x40 MLOAD DUP1 SWAP2 SUB SWAP1 LOG1 PUSH2 0x14F2 DUP6 DUP4 PUSH2 0x24DF JUMP JUMPDEST POP POP POP POP POP POP POP POP POP JUMP JUMPDEST PUSH1 0x0 PUSH2 0x8FF PUSH2 0x2C9 DUP4 PUSH2 0x24F1 JUMP JUMPDEST CALLER ADDRESS EQ PUSH2 0x152B JUMPI PUSH1 0x40 MLOAD PUSH4 0x14E1DBF7 PUSH1 0xE1 SHL DUP2 MSTORE PUSH1 0x4 ADD PUSH1 0x40 MLOAD DUP1 SWAP2 SUB SWAP1 REVERT JUMPDEST PUSH32 0x192E759E55F359CD9832B5C0C6E38E4B6DF5C5CA33F3BD5C90738E865A521872 DUP4 DUP4 PUSH1 0x40 MLOAD PUSH2 0x155C SWAP3 SWAP2 SWAP1 PUSH2 0x369D JUMP JUMPDEST PUSH1 0x40 MLOAD DUP1 SWAP2 SUB SWAP1 LOG1 PUSH1 0x40 MLOAD PUSH4 0xD289D1CB PUSH1 0xE0 SHL DUP2 MSTORE PUSH1 0x1 PUSH1 0x1 PUSH1 0xA0 SHL SUB PUSH32 0x0 AND SWAP1 PUSH4 0xD289D1CB SWAP1 PUSH2 0x15B2 SWAP1 DUP7 SWAP1 DUP7 SWAP1 PUSH1 0x4 ADD PUSH2 0x369D JUMP JUMPDEST PUSH1 0x0 PUSH1 0x40 MLOAD DUP1 DUP4 SUB DUP2 PUSH1 0x0 DUP8 DUP1 EXTCODESIZE ISZERO DUP1 ISZERO PUSH2 0x15CC JUMPI PUSH1 0x0 DUP1 REVERT JUMPDEST POP GAS CALL ISZERO DUP1 ISZERO PUSH2 0x15E0 JUMPI RETURNDATASIZE PUSH1 0x0 DUP1 RETURNDATACOPY RETURNDATASIZE PUSH1 0x0 REVERT JUMPDEST POP POP POP POP POP POP POP JUMP JUMPDEST PUSH1 0x0 DUP2 DUP2 MSTORE PUSH1 0x1 PUSH1 0x20 MSTORE PUSH1 0x40 SWAP1 KECCAK256 DUP1 SLOAD PUSH1 0x60 SWAP2 SWAP1 PUSH2 0x1606 SWAP1 PUSH2 0x36B1 JUMP JUMPDEST DUP1 PUSH1 0x1F ADD PUSH1 0x20 DUP1 SWAP2 DIV MUL PUSH1 0x20 ADD PUSH1 0x40 MLOAD SWAP1 DUP2 ADD PUSH1 0x40 MSTORE DUP1 SWAP3 SWAP2 SWAP1 DUP2 DUP2 MSTORE PUSH1 0x20 ADD DUP3 DUP1 SLOAD PUSH2 0x1632 SWAP1 PUSH2 0x36B1 JUMP JUMPDEST DUP1 ISZERO PUSH2 0x167F JUMPI DUP1 PUSH1 0x1F LT PUSH2 0x1654 JUMPI PUSH2 0x100 DUP1 DUP4 SLOAD DIV MUL DUP4 MSTORE SWAP2 PUSH1 0x20 ADD SWAP2 PUSH2 0x167F JUMP JUMPDEST DUP3 ADD SWAP2 SWAP1 PUSH1 0x0 MSTORE PUSH1 0x20 PUSH1 0x0 KECCAK256 SWAP1 JUMPDEST DUP2 SLOAD DUP2 MSTORE SWAP1 PUSH1 0x1 ADD SWAP1 PUSH1 0x20 ADD DUP1 DUP4 GT PUSH2 0x1662 JUMPI DUP3 SWAP1 SUB PUSH1 0x1F AND DUP3 ADD SWAP2 JUMPDEST POP POP POP POP POP SWAP1 POP SWAP2 SWAP1 POP JUMP JUMPDEST ADDRESS PUSH32 0x0 PUSH1 0x1 PUSH1 0x1 PUSH1 0xA0 SHL SUB AND SUB PUSH2 0x16D4 JUMPI PUSH1 0x40 MLOAD PUSH4 0x5F886E9D PUSH1 0xE1 SHL DUP2 MSTORE PUSH1 0x4 ADD PUSH1 0x40 MLOAD DUP1 SWAP2 SUB SWAP1 REVERT JUMPDEST PUSH1 0x0 DUP1 DUP1 PUSH2 0x16E4 DUP5 DUP7 ADD DUP7 PUSH2 0x36EB JUMP JUMPDEST SWAP2 SWAP5 POP SWAP3 POP SWAP1 POP PUSH1 0x1 PUSH1 0x1 PUSH1 0xA0 SHL SUB DUP4 AND ISZERO PUSH2 0x1703 JUMPI PUSH2 0x1703 DUP4 PUSH2 0x2526 JUMP JUMPDEST PUSH1 0x1 PUSH1 0x1 PUSH1 0xA0 SHL SUB DUP3 AND ISZERO PUSH2 0x171B JUMPI PUSH2 0x171B DUP3 PUSH2 0x230C JUMP JUMPDEST DUP1 MLOAD ISZERO PUSH2 0x17D3 JUMPI PUSH32 0x192E759E55F359CD9832B5C0C6E38E4B6DF5C5CA33F3BD5C90738E865A521872 DUP2 PUSH1 0x40 MLOAD PUSH2 0x1751 SWAP2 SWAP1 PUSH2 0x2E16 JUMP JUMPDEST PUSH1 0x40 MLOAD DUP1 SWAP2 SUB SWAP1 LOG1 PUSH1 0x40 MLOAD PUSH4 0xD289D1CB PUSH1 0xE0 SHL DUP2 MSTORE PUSH1 0x1 PUSH1 0x1 PUSH1 0xA0 SHL SUB PUSH32 0x0 AND SWAP1 PUSH4 0xD289D1CB SWAP1 PUSH2 0x17A5 SWAP1 DUP5 SWAP1 PUSH1 0x4 ADD PUSH2 0x2E16 JUMP JUMPDEST PUSH1 0x0 PUSH1 0x40 MLOAD DUP1 DUP4 SUB DUP2 PUSH1 0x0 DUP8 DUP1 EXTCODESIZE ISZERO DUP1 ISZERO PUSH2 0x17BF JUMPI PUSH1 0x0 DUP1 REVERT JUMPDEST POP GAS CALL ISZERO DUP1 ISZERO PUSH2 0x14F2 JUMPI RETURNDATASIZE PUSH1 0x0 DUP1 RETURNDATACOPY RETURNDATASIZE PUSH1 0x0 REVERT JUMPDEST POP POP POP POP POP JUMP JUMPDEST PUSH2 0x17F1 PUSH1 0x0 DUP1 MLOAD PUSH1 0x20 PUSH2 0x402E DUP4 CODECOPY DUP2 MLOAD SWAP2 MSTORE PUSH2 0x857 JUMP JUMPDEST PUSH1 0x1 PUSH1 0x1 PUSH1 0xA0 SHL SUB AND CALLER PUSH1 0x1 PUSH1 0x1 PUSH1 0xA0 SHL SUB AND EQ PUSH2 0x1822 JUMPI PUSH1 0x40 MLOAD PUSH4 0x2D5BE4CB PUSH1 0xE2 SHL DUP2 MSTORE PUSH1 0x4 ADD PUSH1 0x40 MLOAD DUP1 SWAP2 SUB SWAP1 REVERT JUMPDEST DUP4 PUSH1 0x1 PUSH1 0x1 PUSH1 0xA0 SHL SUB AND EXTCODEHASH DUP4 EQ PUSH2 0x184C JUMPI PUSH1 0x40 MLOAD PUSH4 0x23E13EC9 PUSH1 0xE2 SHL DUP2 MSTORE PUSH1 0x4 ADD PUSH1 0x40 MLOAD DUP1 SWAP2 SUB SWAP1 REVERT JUMPDEST DUP4 PUSH1 0x1 PUSH1 0x1 PUSH1 0xA0 SHL SUB AND PUSH4 0x8291286C PUSH1 0x40 MLOAD DUP2 PUSH4 0xFFFFFFFF AND PUSH1 0xE0 SHL DUP2 MSTORE PUSH1 0x4 ADD PUSH1 0x20 PUSH1 0x40 MLOAD DUP1 DUP4 SUB DUP2 DUP7 GAS STATICCALL ISZERO DUP1 ISZERO PUSH2 0x188A JUMPI RETURNDATASIZE PUSH1 0x0 DUP1 RETURNDATACOPY RETURNDATASIZE PUSH1 0x0 REVERT JUMPDEST POP POP POP POP PUSH1 0x40 MLOAD RETURNDATASIZE PUSH1 0x1F NOT PUSH1 0x1F DUP3 ADD AND DUP3 ADD DUP1 PUSH1 0x40 MSTORE POP DUP2 ADD SWAP1 PUSH2 0x18AE SWAP2 SWAP1 PUSH2 0x32E9 JUMP JUMPDEST PUSH32 0xAD2AE48B4D93C587CD1F0F8F269B84F57DBE98BBE5C61C4B6D324E6A667B3625 EQ PUSH2 0x18ED JUMPI PUSH1 0x40 MLOAD PUSH4 0x340AAFCD PUSH1 0xE1 SHL DUP2 MSTORE PUSH1 0x4 ADD PUSH1 0x40 MLOAD DUP1 SWAP2 SUB SWAP1 REVERT JUMPDEST PUSH1 0x40 MLOAD PUSH1 0x1 PUSH1 0x1 PUSH1 0xA0 SHL SUB DUP6 AND SWAP1 PUSH32 0xBC7CD75A20EE27FD9ADEBAB32041F755214DBC6BFFA90CC0225B39DA2E5C2D3B SWAP1 PUSH1 0x0 SWAP1 LOG2 PUSH2 0x192A DUP5 PUSH2 0x2594 JUMP JUMPDEST DUP1 ISZERO PUSH2 0x19F7 JUMPI PUSH1 0x0 DUP5 PUSH1 0x1 PUSH1 0x1 PUSH1 0xA0 SHL SUB AND PUSH4 0x9DED06DF PUSH1 0xE0 SHL DUP5 DUP5 PUSH1 0x40 MLOAD PUSH1 0x24 ADD PUSH2 0x1957 SWAP3 SWAP2 SWAP1 PUSH2 0x369D JUMP JUMPDEST PUSH1 0x40 DUP1 MLOAD PUSH1 0x1F NOT DUP2 DUP5 SUB ADD DUP2 MSTORE SWAP2 DUP2 MSTORE PUSH1 0x20 DUP3 ADD DUP1 MLOAD PUSH1 0x1 PUSH1 0x1 PUSH1 0xE0 SHL SUB AND PUSH1 0x1 PUSH1 0x1 PUSH1 0xE0 SHL SUB NOT SWAP1 SWAP5 AND SWAP4 SWAP1 SWAP4 OR SWAP1 SWAP3 MSTORE SWAP1 MLOAD PUSH2 0x1995 SWAP2 SWAP1 PUSH2 0x32CD JUMP JUMPDEST PUSH1 0x0 PUSH1 0x40 MLOAD DUP1 DUP4 SUB DUP2 DUP6 GAS DELEGATECALL SWAP2 POP POP RETURNDATASIZE DUP1 PUSH1 0x0 DUP2 EQ PUSH2 0x19D0 JUMPI PUSH1 0x40 MLOAD SWAP2 POP PUSH1 0x1F NOT PUSH1 0x3F RETURNDATASIZE ADD AND DUP3 ADD PUSH1 0x40 MSTORE RETURNDATASIZE DUP3 MSTORE RETURNDATASIZE PUSH1 0x0 PUSH1 0x20 DUP5 ADD RETURNDATACOPY PUSH2 0x19D5 JUMP JUMPDEST PUSH1 0x60 SWAP2 POP JUMPDEST POP POP SWAP1 POP DUP1 PUSH2 0x17D3 JUMPI PUSH1 0x40 MLOAD PUSH4 0x97905DFB PUSH1 0xE0 SHL DUP2 MSTORE PUSH1 0x4 ADD PUSH1 0x40 MLOAD DUP1 SWAP2 SUB SWAP1 REVERT JUMPDEST POP POP POP POP JUMP JUMPDEST PUSH2 0x1A3F CALLER DUP5 DUP5 DUP1 DUP1 PUSH1 0x1F ADD PUSH1 0x20 DUP1 SWAP2 DIV MUL PUSH1 0x20 ADD PUSH1 0x40 MLOAD SWAP1 DUP2 ADD PUSH1 0x40 MSTORE DUP1 SWAP4 SWAP3 SWAP2 SWAP1 DUP2 DUP2 MSTORE PUSH1 0x20 ADD DUP4 DUP4 DUP1 DUP3 DUP5 CALLDATACOPY PUSH1 0x0 SWAP3 ADD SWAP2 SWAP1 SWAP2 MSTORE POP DUP7 SWAP3 POP PUSH2 0x215A SWAP2 POP POP JUMP JUMPDEST DUP5 DUP5 PUSH1 0x40 MLOAD PUSH2 0x1A4F SWAP3 SWAP2 SWAP1 PUSH2 0x31A0 JUMP JUMPDEST PUSH1 0x40 MLOAD DUP1 SWAP2 SUB SWAP1 KECCAK256 CALLER PUSH1 0x1 PUSH1 0x1 PUSH1 0xA0 SHL SUB AND PUSH32 0x7E50569D26BE643BDA7757722291EC66B1BE66D8283474AE3FAB5A98F878A7A2 DUP12 DUP12 DUP12 DUP12 DUP12 DUP12 DUP12 DUP12 DUP12 PUSH1 0x40 MLOAD PUSH2 0x1AA0 SWAP10 SWAP9 SWAP8 SWAP7 SWAP6 SWAP5 SWAP4 SWAP3 SWAP2 SWAP1 PUSH2 0x374C JUMP JUMPDEST PUSH1 0x40 MLOAD DUP1 SWAP2 SUB SWAP1 LOG3 POP POP POP POP POP POP POP POP POP JUMP JUMPDEST PUSH1 0x0 PUSH2 0x1B77 PUSH2 0x3F8 DUP13 DUP13 DUP13 DUP1 DUP1 PUSH1 0x1F ADD PUSH1 0x20 DUP1 SWAP2 DIV MUL PUSH1 0x20 ADD PUSH1 0x40 MLOAD SWAP1 DUP2 ADD PUSH1 0x40 MSTORE DUP1 SWAP4 SWAP3 SWAP2 SWAP1 DUP2 DUP2 MSTORE PUSH1 0x20 ADD DUP4 DUP4 DUP1 DUP3 DUP5 CALLDATACOPY PUSH1 0x0 DUP2 DUP5 ADD MSTORE PUSH1 0x1F NOT PUSH1 0x1F DUP3 ADD AND SWAP1 POP DUP1 DUP4 ADD SWAP3 POP POP POP POP POP POP POP DUP12 DUP12 DUP1 DUP1 PUSH1 0x1F ADD PUSH1 0x20 DUP1 SWAP2 DIV MUL PUSH1 0x20 ADD PUSH1 0x40 MLOAD SWAP1 DUP2 ADD PUSH1 0x40 MSTORE DUP1 SWAP4 SWAP3 SWAP2 SWAP1 DUP2 DUP2 MSTORE PUSH1 0x20 ADD DUP4 DUP4 DUP1 DUP3 DUP5 CALLDATACOPY PUSH1 0x0 SWAP3 ADD SWAP2 SWAP1 SWAP2 MSTORE POP POP PUSH1 0x40 DUP1 MLOAD PUSH1 0x20 PUSH1 0x1F DUP14 ADD DUP2 SWAP1 DIV DUP2 MUL DUP3 ADD DUP2 ADD SWAP1 SWAP3 MSTORE DUP12 DUP2 MSTORE DUP15 SWAP4 POP DUP14 SWAP3 POP SWAP1 DUP13 SWAP1 DUP13 SWAP1 DUP2 SWAP1 DUP5 ADD DUP4 DUP3 DUP1 DUP3 DUP5 CALLDATACOPY PUSH1 0x0 SWAP3 ADD SWAP2 SWAP1 SWAP2 MSTORE POP DUP13 SWAP3 POP PUSH2 0x204D SWAP2 POP POP JUMP JUMPDEST SWAP12 SWAP11 POP POP POP POP POP POP POP POP POP POP POP JUMP JUMPDEST PUSH1 0x40 MLOAD PUSH32 0xA3C3D77668DF13D1773745F9954AFB4B1A542AAAB80E68867C90A432FBFB465E SWAP1 PUSH1 0x0 SWAP1 LOG1 POP POP JUMP JUMPDEST PUSH1 0x0 DUP2 DUP2 MSTORE PUSH1 0x3 PUSH1 0x20 MSTORE PUSH1 0x40 SWAP1 KECCAK256 DUP1 SLOAD PUSH1 0x60 SWAP2 SWAP1 PUSH2 0x1606 SWAP1 PUSH2 0x36B1 JUMP JUMPDEST PUSH1 0x0 PUSH2 0xEDA PUSH1 0x0 DUP1 MLOAD PUSH1 0x20 PUSH2 0x404E DUP4 CODECOPY DUP2 MLOAD SWAP2 MSTORE PUSH2 0x857 JUMP JUMPDEST PUSH1 0x0 PUSH2 0x8FF PUSH2 0x514 DUP4 PUSH2 0x1BFE PUSH2 0x5460 TIMESTAMP PUSH2 0x37B4 JUMP JUMPDEST PUSH2 0x25BE JUMP JUMPDEST PUSH1 0x0 PUSH2 0x8FF PUSH2 0x3F8 DUP4 PUSH2 0x2613 JUMP JUMPDEST PUSH2 0x1C28 PUSH1 0x0 DUP1 MLOAD PUSH1 0x20 PUSH2 0x402E DUP4 CODECOPY DUP2 MLOAD SWAP2 MSTORE PUSH2 0x857 JUMP JUMPDEST PUSH1 0x1 PUSH1 0x1 PUSH1 0xA0 SHL SUB AND CALLER PUSH1 0x1 PUSH1 0x1 PUSH1 0xA0 SHL SUB AND EQ PUSH2 0x1C59 JUMPI PUSH1 0x40 MLOAD PUSH4 0x2D5BE4CB PUSH1 0xE2 SHL DUP2 MSTORE PUSH1 0x4 ADD PUSH1 0x40 MLOAD DUP1 SWAP2 SUB SWAP1 REVERT JUMPDEST PUSH1 0x1 PUSH1 0x1 PUSH1 0xA0 SHL SUB DUP2 AND PUSH2 0x1C7F JUMPI PUSH1 0x40 MLOAD PUSH3 0x18C61B PUSH1 0xE2 SHL DUP2 MSTORE PUSH1 0x4 ADD PUSH1 0x40 MLOAD DUP1 SWAP2 SUB SWAP1 REVERT JUMPDEST PUSH2 0xA4B DUP2 PUSH2 0x2526 JUMP JUMPDEST PUSH1 0x0 DUP1 PUSH2 0x1C97 DUP4 DUP6 ADD DUP6 PUSH2 0x30A6 JUMP JUMPDEST SWAP2 POP SWAP2 POP PUSH1 0x0 DUP1 MLOAD PUSH1 0x20 PUSH2 0x400E DUP4 CODECOPY DUP2 MLOAD SWAP2 MSTORE DUP3 DUP3 PUSH1 0x40 MLOAD PUSH2 0x1CBA SWAP3 SWAP2 SWAP1 PUSH2 0x3109 JUMP JUMPDEST PUSH1 0x40 MLOAD DUP1 SWAP2 SUB SWAP1 LOG1 PUSH1 0x0 PUSH2 0x1CD4 DUP4 DUP1 MLOAD SWAP1 PUSH1 0x20 ADD KECCAK256 PUSH2 0x20D1 JUMP JUMPDEST PUSH1 0x40 MLOAD SWAP1 SWAP2 POP PUSH32 0x9879AE38939EC1D36131E8982FC792E91F2012293B0506BDF2176C6FE69A1DCE SWAP1 PUSH1 0x0 SWAP1 LOG1 PUSH1 0x40 MLOAD PUSH4 0x39F1EB35 PUSH1 0xE1 SHL DUP2 MSTORE PUSH1 0x0 SWAP1 PUSH1 0x1 PUSH1 0x1 PUSH1 0xA0 SHL SUB PUSH32 0x0 AND SWAP1 PUSH4 0x73E3D66A SWAP1 PUSH2 0x1D51 SWAP1 DUP6 SWAP1 DUP8 SWAP1 PUSH1 0x4 ADD PUSH2 0x3555 JUMP JUMPDEST PUSH1 0x20 PUSH1 0x40 MLOAD DUP1 DUP4 SUB DUP2 PUSH1 0x0 DUP8 GAS CALL ISZERO DUP1 ISZERO PUSH2 0x1D70 JUMPI RETURNDATASIZE PUSH1 0x0 DUP1 RETURNDATACOPY RETURNDATASIZE PUSH1 0x0 REVERT JUMPDEST POP POP POP POP PUSH1 0x40 MLOAD RETURNDATASIZE PUSH1 0x1F NOT PUSH1 0x1F DUP3 ADD AND DUP3 ADD DUP1 PUSH1 0x40 MSTORE POP DUP2 ADD SWAP1 PUSH2 0x1D94 SWAP2 SWAP1 PUSH2 0x33C9 JUMP JUMPDEST PUSH1 0x40 MLOAD SWAP1 SWAP2 POP PUSH32 0xB3D9151590DAF4DBC78D33D371AEEEC2E0A87D154082DC641E6A70BFBD1CB48 SWAP1 PUSH1 0x0 SWAP1 LOG1 PUSH1 0x0 PUSH1 0x60 DUP1 PUSH1 0x60 DUP8 DUP1 PUSH1 0x20 ADD SWAP1 MLOAD DUP2 ADD SWAP1 PUSH2 0x1DDB SWAP2 SWAP1 PUSH2 0x390C JUMP JUMPDEST PUSH1 0x40 MLOAD SWAP4 SWAP8 POP SWAP2 SWAP6 POP SWAP4 POP SWAP2 POP PUSH32 0x699804160AF1FFD7198BFC1D6BA8FB52D9BCC3700A6494E929A688B52EB7E1F0 SWAP1 PUSH2 0x1E1B SWAP1 DUP7 SWAP1 DUP7 SWAP1 DUP7 SWAP1 DUP7 SWAP1 PUSH2 0x3A4F JUMP JUMPDEST PUSH1 0x40 MLOAD DUP1 SWAP2 SUB SWAP1 LOG1 POP POP POP POP POP POP POP POP POP POP JUMP JUMPDEST PUSH1 0x0 PUSH2 0x1EAC PUSH2 0x3F8 DUP10 DUP10 DUP10 DUP1 DUP1 PUSH1 0x1F ADD PUSH1 0x20 DUP1 SWAP2 DIV MUL PUSH1 0x20 ADD PUSH1 0x40 MLOAD SWAP1 DUP2 ADD PUSH1 0x40 MSTORE DUP1 SWAP4 SWAP3 SWAP2 SWAP1 DUP2 DUP2 MSTORE PUSH1 0x20 ADD DUP4 DUP4 DUP1 DUP3 DUP5 CALLDATACOPY PUSH1 0x0 SWAP3 ADD SWAP2 SWAP1 SWAP2 MSTORE POP POP PUSH1 0x40 DUP1 MLOAD PUSH1 0x20 PUSH1 0x1F DUP14 ADD DUP2 SWAP1 DIV DUP2 MUL DUP3 ADD DUP2 ADD SWAP1 SWAP3 MSTORE DUP12 DUP2 MSTORE SWAP3 POP DUP12 SWAP2 POP DUP11 SWAP1 DUP2 SWAP1 DUP5 ADD DUP4 DUP3 DUP1 DUP3 DUP5 CALLDATACOPY PUSH1 0x0 SWAP3 ADD SWAP2 SWAP1 SWAP2 MSTORE POP DUP11 SWAP3 POP DUP10 SWAP2 POP PUSH2 0x23F5 SWAP1 POP JUMP JUMPDEST SWAP9 SWAP8 POP POP POP POP POP POP POP POP JUMP JUMPDEST CALLER ADDRESS EQ PUSH2 0x1ED8 JUMPI PUSH1 0x40 MLOAD PUSH4 0x14E1DBF7 PUSH1 0xE1 SHL DUP2 MSTORE PUSH1 0x4 ADD PUSH1 0x40 MLOAD DUP1 SWAP2 SUB SWAP1 REVERT JUMPDEST PUSH1 0x0 DUP1 DUP1 DUP1 DUP1 DUP1 PUSH2 0x1EEB DUP9 DUP11 ADD DUP11 PUSH2 0x3AF5 JUMP JUMPDEST SWAP6 POP SWAP6 POP SWAP6 POP SWAP6 POP SWAP6 POP SWAP6 POP PUSH2 0x1F04 DUP8 DUP8 DUP8 DUP8 DUP8 PUSH2 0x264E JUMP JUMPDEST DUP3 DUP5 PUSH1 0x1 PUSH1 0x1 PUSH1 0xA0 SHL SUB AND DUP9 PUSH32 0x44E4F8F6BD682C5A3AEBA93601AB07CB4D1F21B2AAB1AE4880D9577919309AA4 DUP10 DUP10 DUP8 DUP8 PUSH1 0x40 MLOAD PUSH2 0x1F45 SWAP5 SWAP4 SWAP3 SWAP2 SWAP1 PUSH2 0x3B86 JUMP JUMPDEST PUSH1 0x40 MLOAD DUP1 SWAP2 SUB SWAP1 LOG4 POP POP POP POP POP POP POP POP POP JUMP JUMPDEST PUSH1 0x0 PUSH2 0x1F63 DUP5 PUSH2 0x14FD JUMP JUMPDEST SWAP1 POP PUSH1 0x1 PUSH1 0x1 PUSH1 0xA0 SHL SUB DUP2 AND PUSH2 0x1F8E JUMPI DUP4 PUSH1 0x40 MLOAD PUSH4 0x395D09BF PUSH1 0xE1 SHL DUP2 MSTORE PUSH1 0x4 ADD PUSH2 0xAB7 SWAP2 SWAP1 PUSH2 0x2E16 JUMP JUMPDEST PUSH2 0x1FAB DUP5 DUP4 PUSH2 0x1F9C DUP8 PUSH2 0x1BE9 JUMP JUMPDEST PUSH2 0x1FA6 SWAP2 SWAP1 PUSH2 0x3BBF JUMP JUMPDEST PUSH2 0x265E JUMP JUMPDEST PUSH1 0x2 PUSH2 0x1FB6 DUP6 PUSH2 0x237A JUMP JUMPDEST PUSH1 0x2 DUP2 GT ISZERO PUSH2 0x1FC7 JUMPI PUSH2 0x1FC7 PUSH2 0x32B7 JUMP JUMPDEST SUB PUSH2 0x1FE5 JUMPI PUSH2 0x1FE0 PUSH1 0x1 PUSH1 0x1 PUSH1 0xA0 SHL SUB DUP3 AND DUP5 DUP5 PUSH2 0x26C0 JUMP JUMPDEST PUSH2 0x19F7 JUMP JUMPDEST PUSH1 0x40 MLOAD PUSH4 0x40C10F19 PUSH1 0xE0 SHL DUP2 MSTORE PUSH1 0x1 PUSH1 0x1 PUSH1 0xA0 SHL SUB DUP5 DUP2 AND PUSH1 0x4 DUP4 ADD MSTORE PUSH1 0x24 DUP3 ADD DUP5 SWAP1 MSTORE DUP3 AND SWAP1 PUSH4 0x40C10F19 SWAP1 PUSH1 0x44 ADD PUSH1 0x0 PUSH1 0x40 MLOAD DUP1 DUP4 SUB DUP2 PUSH1 0x0 DUP8 DUP1 EXTCODESIZE ISZERO DUP1 ISZERO PUSH2 0x202F JUMPI PUSH1 0x0 DUP1 REVERT JUMPDEST POP GAS CALL ISZERO DUP1 ISZERO PUSH2 0x2043 JUMPI RETURNDATASIZE PUSH1 0x0 DUP1 RETURNDATACOPY RETURNDATASIZE PUSH1 0x0 REVERT JUMPDEST POP POP POP POP POP POP POP POP JUMP JUMPDEST PUSH1 0x0 PUSH32 0xB7AD972B71475860613DB3BA1FE699B886C878F9002A09250DC25E769EB19A10 DUP9 DUP9 DUP9 DUP9 DUP9 DUP9 DUP9 PUSH1 0x40 MLOAD PUSH1 0x20 ADD PUSH2 0x208E SWAP9 SWAP8 SWAP7 SWAP6 SWAP5 SWAP4 SWAP3 SWAP2 SWAP1 PUSH2 0x3BE0 JUMP JUMPDEST PUSH1 0x40 MLOAD PUSH1 0x20 DUP2 DUP4 SUB SUB DUP2 MSTORE SWAP1 PUSH1 0x40 MSTORE DUP1 MLOAD SWAP1 PUSH1 0x20 ADD KECCAK256 SWAP1 POP SWAP8 SWAP7 POP POP POP POP POP POP POP JUMP JUMPDEST PUSH1 0x0 SWAP2 DUP3 MSTORE PUSH1 0x4 PUSH1 0x20 MSTORE PUSH1 0x40 SWAP1 SWAP2 KECCAK256 DUP1 SLOAD PUSH1 0xFF NOT AND SWAP2 ISZERO ISZERO SWAP2 SWAP1 SWAP2 OR SWAP1 SSTORE JUMP JUMPDEST PUSH1 0x40 MLOAD PUSH32 0x19457468657265756D205369676E6564204D6573736167653A0A333200000000 PUSH1 0x20 DUP3 ADD MSTORE PUSH1 0x3C DUP2 ADD DUP3 SWAP1 MSTORE PUSH1 0x0 SWAP1 PUSH1 0x5C ADD JUMPDEST PUSH1 0x40 MLOAD PUSH1 0x20 DUP2 DUP4 SUB SUB DUP2 MSTORE SWAP1 PUSH1 0x40 MSTORE DUP1 MLOAD SWAP1 PUSH1 0x20 ADD KECCAK256 SWAP1 POP SWAP2 SWAP1 POP JUMP JUMPDEST PUSH1 0x0 PUSH32 0xEEE9348B4AABA3647B1612B2724F18E93B9299DA26FB321C7B3FDA135D7DEA87 DUP3 PUSH1 0x40 MLOAD PUSH1 0x20 ADD PUSH2 0x2108 SWAP3 SWAP2 SWAP1 PUSH2 0x3C54 JUMP JUMPDEST PUSH1 0x0 PUSH2 0x2165 DUP4 PUSH2 0x14FD JUMP JUMPDEST SWAP1 POP PUSH1 0x1 PUSH1 0x1 PUSH1 0xA0 SHL SUB DUP2 AND PUSH2 0x2190 JUMPI DUP3 PUSH1 0x40 MLOAD PUSH4 0x395D09BF PUSH1 0xE1 SHL DUP2 MSTORE PUSH1 0x4 ADD PUSH2 0xAB7 SWAP2 SWAP1 PUSH2 0x2E16 JUMP JUMPDEST DUP2 PUSH1 0x0 SUB PUSH2 0x21B1 JUMPI PUSH1 0x40 MLOAD PUSH4 0x162908E3 PUSH1 0xE1 SHL DUP2 MSTORE PUSH1 0x4 ADD PUSH1 0x40 MLOAD DUP1 SWAP2 SUB SWAP1 REVERT JUMPDEST PUSH1 0x0 PUSH2 0x21BC DUP5 PUSH2 0x237A JUMP JUMPDEST SWAP1 POP PUSH1 0x2 DUP2 PUSH1 0x2 DUP2 GT ISZERO PUSH2 0x21D2 JUMPI PUSH2 0x21D2 PUSH2 0x32B7 JUMP JUMPDEST SUB PUSH2 0x21F1 JUMPI PUSH2 0x21EC PUSH1 0x1 PUSH1 0x1 PUSH1 0xA0 SHL SUB DUP4 AND DUP7 ADDRESS DUP7 PUSH2 0x2723 JUMP JUMPDEST PUSH2 0x17D3 JUMP JUMPDEST PUSH1 0x1 DUP2 PUSH1 0x2 DUP2 GT ISZERO PUSH2 0x2205 JUMPI PUSH2 0x2205 PUSH2 0x32B7 JUMP JUMPDEST SUB PUSH2 0x225E JUMPI PUSH1 0x40 DUP1 MLOAD PUSH1 0x1 PUSH1 0x1 PUSH1 0xA0 SHL SUB DUP8 DUP2 AND PUSH1 0x24 DUP4 ADD MSTORE PUSH1 0x44 DUP1 DUP4 ADD DUP8 SWAP1 MSTORE DUP4 MLOAD DUP1 DUP5 SUB SWAP1 SWAP2 ADD DUP2 MSTORE PUSH1 0x64 SWAP1 SWAP3 ADD SWAP1 SWAP3 MSTORE PUSH1 0x20 DUP2 ADD DUP1 MLOAD PUSH1 0x1 PUSH1 0x1 PUSH1 0xE0 SHL SUB AND PUSH4 0x79CC679 PUSH1 0xE4 SHL OR SWAP1 MSTORE PUSH2 0x21EC SWAP2 DUP5 AND SWAP1 PUSH2 0x275B JUMP JUMPDEST PUSH1 0x40 MLOAD PUSH4 0xC7BB2BD PUSH1 0xE2 SHL DUP2 MSTORE PUSH1 0x0 PUSH1 0x4 DUP3 ADD MSTORE PUSH2 0x22DF SWAP1 DUP7 SWAP1 PUSH1 0x1 PUSH1 0x1 PUSH1 0xA0 SHL SUB DUP6 AND SWAP1 PUSH4 0x31EECAF4 SWAP1 PUSH1 0x24 ADD PUSH1 0x20 PUSH1 0x40 MLOAD DUP1 DUP4 SUB DUP2 DUP7 GAS STATICCALL ISZERO DUP1 ISZERO PUSH2 0x22A9 JUMPI RETURNDATASIZE PUSH1 0x0 DUP1 RETURNDATACOPY RETURNDATASIZE PUSH1 0x0 REVERT JUMPDEST POP POP POP POP PUSH1 0x40 MLOAD RETURNDATASIZE PUSH1 0x1F NOT PUSH1 0x1F DUP3 ADD AND DUP3 ADD DUP1 PUSH1 0x40 MSTORE POP DUP2 ADD SWAP1 PUSH2 0x22CD SWAP2 SWAP1 PUSH2 0x3656 JUMP JUMPDEST PUSH1 0x1 PUSH1 0x1 PUSH1 0xA0 SHL SUB DUP6 AND SWAP2 SWAP1 DUP7 PUSH2 0x2723 JUMP JUMPDEST PUSH1 0x40 MLOAD PUSH4 0x8A1EEE1 PUSH1 0xE0 SHL DUP2 MSTORE PUSH1 0x0 PUSH1 0x4 DUP3 ADD MSTORE PUSH1 0x1 PUSH1 0x1 PUSH1 0xA0 SHL SUB DUP4 AND SWAP1 PUSH4 0x8A1EEE1 SWAP1 PUSH1 0x24 ADD PUSH2 0x17A5 JUMP JUMPDEST PUSH1 0x1 PUSH1 0x1 PUSH1 0xA0 SHL SUB DUP2 AND PUSH2 0x232D PUSH1 0x0 DUP1 MLOAD PUSH1 0x20 PUSH2 0x404E DUP4 CODECOPY DUP2 MLOAD SWAP2 MSTORE PUSH2 0x857 JUMP JUMPDEST PUSH1 0x1 PUSH1 0x1 PUSH1 0xA0 SHL SUB AND PUSH32 0xA9303C860C5DE3C0C866C354D281785C89778AC5CA2DFFDF12841C45CD4E1E6E PUSH1 0x40 MLOAD PUSH1 0x40 MLOAD DUP1 SWAP2 SUB SWAP1 LOG3 PUSH2 0xA4B PUSH1 0x0 DUP1 MLOAD PUSH1 0x20 PUSH2 0x404E DUP4 CODECOPY DUP2 MLOAD SWAP2 MSTORE DUP3 PUSH2 0x2819 JUMP JUMPDEST PUSH1 0x0 PUSH2 0x2388 PUSH2 0x514 DUP4 PUSH2 0x2847 JUMP JUMPDEST PUSH1 0x2 DUP2 GT ISZERO PUSH2 0x8FF JUMPI PUSH2 0x8FF PUSH2 0x32B7 JUMP JUMPDEST PUSH1 0x0 PUSH1 0x1 PUSH1 0x1 PUSH1 0xA0 SHL SUB DUP3 AND EXTCODEHASH DUP1 ISZERO DUP1 ISZERO SWAP1 PUSH2 0x23D5 JUMPI POP PUSH32 0xC5D2460186F7233C927E7DB2DCC703C0E500B653CA82273B7BFAD8045D85A470 DUP2 EQ ISZERO JUMPDEST SWAP4 SWAP3 POP POP POP JUMP JUMPDEST PUSH2 0x15E0 PUSH2 0x23EE DUP9 DUP9 DUP9 DUP9 DUP9 DUP9 DUP9 PUSH2 0x204D JUMP JUMPDEST PUSH1 0x1 PUSH2 0x20B1 JUMP JUMPDEST PUSH1 0x0 PUSH32 0x7B0D4304F82012BD3B70B1D531C160E326067C90829E2A3D386722AD10B89C3 DUP7 DUP7 DUP7 DUP7 DUP7 PUSH1 0x40 MLOAD PUSH1 0x20 ADD PUSH2 0x2432 SWAP7 SWAP6 SWAP5 SWAP4 SWAP3 SWAP2 SWAP1 PUSH2 0x3C7A JUMP JUMPDEST PUSH1 0x40 MLOAD PUSH1 0x20 DUP2 DUP4 SUB SUB DUP2 MSTORE SWAP1 PUSH1 0x40 MSTORE DUP1 MLOAD SWAP1 PUSH1 0x20 ADD KECCAK256 SWAP1 POP SWAP6 SWAP5 POP POP POP POP POP JUMP JUMPDEST PUSH32 0xD99446C1D76385BB5519CCFB5274ABCFD5896DFC22405E40010FDE217F018A18 DUP3 DUP3 PUSH1 0x40 MLOAD PUSH2 0x2484 SWAP3 SWAP2 SWAP1 PUSH2 0x3CCA JUMP JUMPDEST PUSH1 0x40 MLOAD DUP1 SWAP2 SUB SWAP1 LOG1 PUSH2 0x24AB PUSH2 0x2498 DUP4 PUSH2 0x2125 JUMP JUMPDEST DUP3 PUSH1 0x0 SWAP2 DUP3 MSTORE PUSH1 0x20 DUP3 SWAP1 MSTORE PUSH1 0x40 SWAP1 SWAP2 KECCAK256 SSTORE JUMP JUMPDEST POP POP JUMP JUMPDEST PUSH2 0x24AB PUSH2 0x24BB DUP4 PUSH2 0x2847 JUMP JUMPDEST DUP3 PUSH1 0x2 DUP2 GT ISZERO PUSH2 0x24CD JUMPI PUSH2 0x24CD PUSH2 0x32B7 JUMP JUMPDEST PUSH1 0x0 SWAP2 DUP3 MSTORE PUSH1 0x20 DUP3 SWAP1 MSTORE PUSH1 0x40 SWAP1 SWAP2 KECCAK256 SSTORE JUMP JUMPDEST PUSH2 0x24AB PUSH2 0x24EB DUP4 PUSH2 0x24F1 JUMP JUMPDEST DUP3 PUSH2 0x2819 JUMP JUMPDEST PUSH1 0x0 PUSH32 0xC4E632779A6A7838736DD7E5E6A0EADF171DD37DFB6230720E265576DFCF42BB DUP3 PUSH1 0x40 MLOAD PUSH1 0x20 ADD PUSH2 0x2108 SWAP3 SWAP2 SWAP1 PUSH2 0x3C54 JUMP JUMPDEST PUSH1 0x1 PUSH1 0x1 PUSH1 0xA0 SHL SUB DUP2 AND PUSH2 0x2547 PUSH1 0x0 DUP1 MLOAD PUSH1 0x20 PUSH2 0x402E DUP4 CODECOPY DUP2 MLOAD SWAP2 MSTORE PUSH2 0x857 JUMP JUMPDEST PUSH1 0x1 PUSH1 0x1 PUSH1 0xA0 SHL SUB AND PUSH32 0x5F56BEE8CFFBE9A78652A74A60705EDEDE02AF10B0BBB888CA44B79A0D42CE80 PUSH1 0x40 MLOAD PUSH1 0x40 MLOAD DUP1 SWAP2 SUB SWAP1 LOG3 PUSH2 0xA4B PUSH1 0x0 DUP1 MLOAD PUSH1 0x20 PUSH2 0x402E DUP4 CODECOPY DUP2 MLOAD SWAP2 MSTORE DUP3 PUSH2 0x2819 JUMP JUMPDEST PUSH2 0xA4B PUSH32 0x360894A13BA1A3210667C828492DB98DCA3E2076CC3735A920A3CA505D382BBC DUP3 PUSH2 0x2819 JUMP JUMPDEST PUSH1 0x0 PUSH32 0x2F8851FE0D6D537E552A4F25B7A3167D48EB1292622C71D84630A2A44757BCED DUP4 DUP4 PUSH1 0x40 MLOAD PUSH1 0x20 ADD PUSH2 0x25F5 SWAP4 SWAP3 SWAP2 SWAP1 PUSH2 0x3CEC JUMP JUMPDEST PUSH1 0x40 MLOAD PUSH1 0x20 DUP2 DUP4 SUB SUB DUP2 MSTORE SWAP1 PUSH1 0x40 MSTORE DUP1 MLOAD SWAP1 PUSH1 0x20 ADD KECCAK256 SWAP1 POP SWAP3 SWAP2 POP POP JUMP JUMPDEST PUSH1 0x40 DUP1 MLOAD PUSH32 0x957705A374326B30F4A1069C936D736CC9993ED6C820B4E0E2FD94A8BECA0D1D PUSH1 0x20 DUP3 ADD MSTORE SWAP1 DUP2 ADD DUP3 SWAP1 MSTORE PUSH1 0x0 SWAP1 PUSH1 0x60 ADD PUSH2 0x2108 JUMP JUMPDEST PUSH2 0x17D3 PUSH2 0x23EE DUP7 DUP7 DUP7 DUP7 DUP7 PUSH2 0x23F5 JUMP JUMPDEST PUSH1 0x0 PUSH2 0x2669 DUP4 PUSH2 0x8F1 JUMP JUMPDEST SWAP1 POP PUSH1 0x0 DUP2 GT DUP1 ISZERO PUSH2 0x267A JUMPI POP DUP1 DUP3 GT JUMPDEST ISZERO PUSH2 0x269A JUMPI DUP3 PUSH1 0x40 MLOAD PUSH4 0x37F60E5 PUSH1 0xE0 SHL DUP2 MSTORE PUSH1 0x4 ADD PUSH2 0xAB7 SWAP2 SWAP1 PUSH2 0x2E16 JUMP JUMPDEST PUSH2 0xE0E PUSH2 0x26AD DUP5 PUSH2 0x1BFE PUSH2 0x5460 TIMESTAMP PUSH2 0x37B4 JUMP JUMPDEST DUP4 PUSH1 0x0 SWAP2 DUP3 MSTORE PUSH1 0x20 DUP3 SWAP1 MSTORE PUSH1 0x40 SWAP1 SWAP2 KECCAK256 SSTORE JUMP JUMPDEST PUSH1 0x40 MLOAD PUSH1 0x1 PUSH1 0x1 PUSH1 0xA0 SHL SUB DUP4 AND PUSH1 0x24 DUP3 ADD MSTORE PUSH1 0x44 DUP2 ADD DUP3 SWAP1 MSTORE PUSH2 0xE0E SWAP1 DUP5 SWAP1 PUSH4 0xA9059CBB PUSH1 0xE0 SHL SWAP1 PUSH1 0x64 ADD JUMPDEST PUSH1 0x40 DUP1 MLOAD PUSH1 0x1F NOT DUP2 DUP5 SUB ADD DUP2 MSTORE SWAP2 SWAP1 MSTORE PUSH1 0x20 DUP2 ADD DUP1 MLOAD PUSH1 0x1 PUSH1 0x1 PUSH1 0xE0 SHL SUB AND PUSH1 0x1 PUSH1 0x1 PUSH1 0xE0 SHL SUB NOT SWAP1 SWAP4 AND SWAP3 SWAP1 SWAP3 OR SWAP1 SWAP2 MSTORE PUSH2 0x275B JUMP JUMPDEST PUSH1 0x40 MLOAD PUSH1 0x1 PUSH1 0x1 PUSH1 0xA0 SHL SUB DUP1 DUP6 AND PUSH1 0x24 DUP4 ADD MSTORE DUP4 AND PUSH1 0x44 DUP3 ADD MSTORE PUSH1 0x64 DUP2 ADD DUP3 SWAP1 MSTORE PUSH2 0x19F7 SWAP1 DUP6 SWAP1 PUSH4 0x23B872DD PUSH1 0xE0 SHL SWAP1 PUSH1 0x84 ADD PUSH2 0x26EC JUMP JUMPDEST PUSH1 0x0 DUP1 DUP4 PUSH1 0x1 PUSH1 0x1 PUSH1 0xA0 SHL SUB AND DUP4 PUSH1 0x40 MLOAD PUSH2 0x2776 SWAP2 SWAP1 PUSH2 0x32CD JUMP JUMPDEST PUSH1 0x0 PUSH1 0x40 MLOAD DUP1 DUP4 SUB DUP2 PUSH1 0x0 DUP7 GAS CALL SWAP2 POP POP RETURNDATASIZE DUP1 PUSH1 0x0 DUP2 EQ PUSH2 0x27B3 JUMPI PUSH1 0x40 MLOAD SWAP2 POP PUSH1 0x1F NOT PUSH1 0x3F RETURNDATASIZE ADD AND DUP3 ADD PUSH1 0x40 MSTORE RETURNDATASIZE DUP3 MSTORE RETURNDATASIZE PUSH1 0x0 PUSH1 0x20 DUP5 ADD RETURNDATACOPY PUSH2 0x27B8 JUMP JUMPDEST PUSH1 0x60 SWAP2 POP JUMPDEST POP SWAP2 POP SWAP2 POP PUSH1 0x0 DUP3 DUP1 ISZERO PUSH2 0x27E4 JUMPI POP DUP2 MLOAD ISZERO DUP1 PUSH2 0x27E4 JUMPI POP DUP2 DUP1 PUSH1 0x20 ADD SWAP1 MLOAD DUP2 ADD SWAP1 PUSH2 0x27E4 SWAP2 SWAP1 PUSH2 0x33C9 JUMP JUMPDEST SWAP1 POP DUP1 ISZERO DUP1 PUSH2 0x27FB JUMPI POP PUSH1 0x1 PUSH1 0x1 PUSH1 0xA0 SHL SUB DUP6 AND EXTCODESIZE ISZERO JUMPDEST ISZERO PUSH2 0x17D3 JUMPI PUSH1 0x40 MLOAD PUSH4 0x22E2581 PUSH1 0xE1 SHL DUP2 MSTORE PUSH1 0x4 ADD PUSH1 0x40 MLOAD DUP1 SWAP2 SUB SWAP1 REVERT JUMPDEST PUSH1 0x0 SWAP2 DUP3 MSTORE PUSH1 0x2 PUSH1 0x20 MSTORE PUSH1 0x40 SWAP1 SWAP2 KECCAK256 DUP1 SLOAD PUSH1 0x1 PUSH1 0x1 PUSH1 0xA0 SHL SUB NOT AND PUSH1 0x1 PUSH1 0x1 PUSH1 0xA0 SHL SUB SWAP1 SWAP3 AND SWAP2 SWAP1 SWAP2 OR SWAP1 SSTORE JUMP JUMPDEST PUSH1 0x0 PUSH32 0xA80D2259AF55890618EC2EEB3AC72DE4BDBA22529BB14845D8A3D712D1C3F621 DUP3 PUSH1 0x40 MLOAD PUSH1 0x20 ADD PUSH2 0x2108 SWAP3 SWAP2 SWAP1 PUSH2 0x3C54 JUMP JUMPDEST PUSH2 0x2F8 DUP1 PUSH2 0x3D16 DUP4 CODECOPY ADD SWAP1 JUMP JUMPDEST PUSH1 0x0 DUP1 DUP4 PUSH1 0x1F DUP5 ADD SLT PUSH2 0x289B JUMPI PUSH1 0x0 DUP1 REVERT JUMPDEST POP DUP2 CALLDATALOAD PUSH1 0x1 PUSH1 0x1 PUSH1 0x40 SHL SUB DUP2 GT ISZERO PUSH2 0x28B2 JUMPI PUSH1 0x0 DUP1 REVERT JUMPDEST PUSH1 0x20 DUP4 ADD SWAP2 POP DUP4 PUSH1 0x20 DUP3 DUP6 ADD ADD GT ISZERO PUSH2 0x28CA JUMPI PUSH1 0x0 DUP1 REVERT JUMPDEST SWAP3 POP SWAP3 SWAP1 POP JUMP JUMPDEST PUSH1 0x0 DUP1 PUSH1 0x20 DUP4 DUP6 SUB SLT ISZERO PUSH2 0x28E4 JUMPI PUSH1 0x0 DUP1 REVERT JUMPDEST DUP3 CALLDATALOAD PUSH1 0x1 PUSH1 0x1 PUSH1 0x40 SHL SUB DUP2 GT ISZERO PUSH2 0x28FA JUMPI PUSH1 0x0 DUP1 REVERT JUMPDEST PUSH2 0x2906 DUP6 DUP3 DUP7 ADD PUSH2 0x2889 JUMP JUMPDEST SWAP1 SWAP7 SWAP1 SWAP6 POP SWAP4 POP POP POP POP JUMP JUMPDEST PUSH1 0x0 DUP1 PUSH1 0x0 PUSH1 0x40 DUP5 DUP7 SUB SLT ISZERO PUSH2 0x2927 JUMPI PUSH1 0x0 DUP1 REVERT JUMPDEST DUP4 CALLDATALOAD PUSH1 0x1 PUSH1 0x1 PUSH1 0x40 SHL SUB DUP2 GT ISZERO PUSH2 0x293D JUMPI PUSH1 0x0 DUP1 REVERT JUMPDEST PUSH2 0x2949 DUP7 DUP3 DUP8 ADD PUSH2 0x2889 JUMP JUMPDEST SWAP1 SWAP8 SWAP1 SWAP7 POP PUSH1 0x20 SWAP6 SWAP1 SWAP6 ADD CALLDATALOAD SWAP5 SWAP4 POP POP POP POP JUMP JUMPDEST PUSH1 0x0 DUP1 PUSH1 0x0 DUP1 PUSH1 0x0 DUP1 PUSH1 0x0 DUP1 PUSH1 0x0 PUSH1 0xC0 DUP11 DUP13 SUB SLT ISZERO PUSH2 0x297B JUMPI PUSH1 0x0 DUP1 REVERT JUMPDEST DUP10 CALLDATALOAD SWAP9 POP PUSH1 0x20 DUP11 ADD CALLDATALOAD PUSH1 0x1 PUSH1 0x1 PUSH1 0x40 SHL SUB DUP1 DUP3 GT ISZERO PUSH2 0x2999 JUMPI PUSH1 0x0 DUP1 REVERT JUMPDEST PUSH2 0x29A5 DUP14 DUP4 DUP15 ADD PUSH2 0x2889 JUMP JUMPDEST SWAP1 SWAP11 POP SWAP9 POP PUSH1 0x40 DUP13 ADD CALLDATALOAD SWAP2 POP DUP1 DUP3 GT ISZERO PUSH2 0x29BE JUMPI PUSH1 0x0 DUP1 REVERT JUMPDEST PUSH2 0x29CA DUP14 DUP4 DUP15 ADD PUSH2 0x2889 JUMP JUMPDEST SWAP1 SWAP9 POP SWAP7 POP PUSH1 0x60 DUP13 ADD CALLDATALOAD SWAP6 POP PUSH1 0x80 DUP13 ADD CALLDATALOAD SWAP2 POP DUP1 DUP3 GT ISZERO PUSH2 0x29EA JUMPI PUSH1 0x0 DUP1 REVERT JUMPDEST POP PUSH2 0x29F7 DUP13 DUP3 DUP14 ADD PUSH2 0x2889 JUMP JUMPDEST SWAP11 SWAP14 SWAP10 SWAP13 POP SWAP8 SWAP11 SWAP7 SWAP10 SWAP6 SWAP9 SWAP5 SWAP8 SWAP7 PUSH1 0xA0 ADD CALLDATALOAD SWAP5 SWAP4 POP POP POP POP JUMP JUMPDEST PUSH1 0x0 DUP1 PUSH1 0x0 DUP1 PUSH1 0x0 DUP1 PUSH1 0x60 DUP8 DUP10 SUB SLT ISZERO PUSH2 0x2A2A JUMPI PUSH1 0x0 DUP1 REVERT JUMPDEST DUP7 CALLDATALOAD PUSH1 0x1 PUSH1 0x1 PUSH1 0x40 SHL SUB DUP1 DUP3 GT ISZERO PUSH2 0x2A41 JUMPI PUSH1 0x0 DUP1 REVERT JUMPDEST PUSH2 0x2A4D DUP11 DUP4 DUP12 ADD PUSH2 0x2889 JUMP JUMPDEST SWAP1 SWAP9 POP SWAP7 POP PUSH1 0x20 DUP10 ADD CALLDATALOAD SWAP2 POP DUP1 DUP3 GT ISZERO PUSH2 0x2A66 JUMPI PUSH1 0x0 DUP1 REVERT JUMPDEST PUSH2 0x2A72 DUP11 DUP4 DUP12 ADD PUSH2 0x2889 JUMP JUMPDEST SWAP1 SWAP7 POP SWAP5 POP PUSH1 0x40 DUP10 ADD CALLDATALOAD SWAP2 POP DUP1 DUP3 GT ISZERO PUSH2 0x2A8B JUMPI PUSH1 0x0 DUP1 REVERT JUMPDEST POP PUSH2 0x2A98 DUP10 DUP3 DUP11 ADD PUSH2 0x2889 JUMP JUMPDEST SWAP8 SWAP11 SWAP7 SWAP10 POP SWAP5 SWAP8 POP SWAP3 SWAP6 SWAP4 SWAP5 SWAP3 POP POP POP JUMP JUMPDEST PUSH1 0x0 PUSH1 0x20 DUP3 DUP5 SUB SLT ISZERO PUSH2 0x2ABC JUMPI PUSH1 0x0 DUP1 REVERT JUMPDEST POP CALLDATALOAD SWAP2 SWAP1 POP JUMP JUMPDEST PUSH4 0x4E487B71 PUSH1 0xE0 SHL PUSH1 0x0 MSTORE PUSH1 0x41 PUSH1 0x4 MSTORE PUSH1 0x24 PUSH1 0x0 REVERT JUMPDEST PUSH1 0x40 MLOAD PUSH1 0x1F DUP3 ADD PUSH1 0x1F NOT AND DUP2 ADD PUSH1 0x1 PUSH1 0x1 PUSH1 0x40 SHL SUB DUP2 GT DUP3 DUP3 LT OR ISZERO PUSH2 0x2B01 JUMPI PUSH2 0x2B01 PUSH2 0x2AC3 JUMP JUMPDEST PUSH1 0x40 MSTORE SWAP2 SWAP1 POP JUMP JUMPDEST PUSH1 0x0 PUSH1 0x1 PUSH1 0x1 PUSH1 0x40 SHL SUB DUP3 GT ISZERO PUSH2 0x2B22 JUMPI PUSH2 0x2B22 PUSH2 0x2AC3 JUMP JUMPDEST POP PUSH1 0x1F ADD PUSH1 0x1F NOT AND PUSH1 0x20 ADD SWAP1 JUMP JUMPDEST PUSH1 0x0 DUP3 PUSH1 0x1F DUP4 ADD SLT PUSH2 0x2B41 JUMPI PUSH1 0x0 DUP1 REVERT JUMPDEST DUP2 CALLDATALOAD PUSH2 0x2B54 PUSH2 0x2B4F DUP3 PUSH2 0x2B09 JUMP JUMPDEST PUSH2 0x2AD9 JUMP JUMPDEST DUP2 DUP2 MSTORE DUP5 PUSH1 0x20 DUP4 DUP7 ADD ADD GT ISZERO PUSH2 0x2B69 JUMPI PUSH1 0x0 DUP1 REVERT JUMPDEST DUP2 PUSH1 0x20 DUP6 ADD PUSH1 0x20 DUP4 ADD CALLDATACOPY PUSH1 0x0 SWAP2 DUP2 ADD PUSH1 0x20 ADD SWAP2 SWAP1 SWAP2 MSTORE SWAP4 SWAP3 POP POP POP JUMP JUMPDEST PUSH1 0x0 PUSH1 0x20 DUP3 DUP5 SUB SLT ISZERO PUSH2 0x2B98 JUMPI PUSH1 0x0 DUP1 REVERT JUMPDEST DUP2 CALLDATALOAD PUSH1 0x1 PUSH1 0x1 PUSH1 0x40 SHL SUB DUP2 GT ISZERO PUSH2 0x2BAE JUMPI PUSH1 0x0 DUP1 REVERT JUMPDEST PUSH2 0x2BBA DUP5 DUP3 DUP6 ADD PUSH2 0x2B30 JUMP JUMPDEST SWAP5 SWAP4 POP POP POP POP JUMP JUMPDEST PUSH1 0x0 DUP1 PUSH1 0x0 DUP1 PUSH1 0x0 DUP1 PUSH1 0x0 PUSH1 0x80 DUP9 DUP11 SUB SLT ISZERO PUSH2 0x2BDD JUMPI PUSH1 0x0 DUP1 REVERT JUMPDEST DUP8 CALLDATALOAD PUSH1 0x1 PUSH1 0x1 PUSH1 0x40 SHL SUB DUP1 DUP3 GT ISZERO PUSH2 0x2BF4 JUMPI PUSH1 0x0 DUP1 REVERT JUMPDEST PUSH2 0x2C00 DUP12 DUP4 DUP13 ADD PUSH2 0x2889 JUMP JUMPDEST SWAP1 SWAP10 POP SWAP8 POP PUSH1 0x20 DUP11 ADD CALLDATALOAD SWAP2 POP DUP1 DUP3 GT ISZERO PUSH2 0x2C19 JUMPI PUSH1 0x0 DUP1 REVERT JUMPDEST PUSH2 0x2C25 DUP12 DUP4 DUP13 ADD PUSH2 0x2889 JUMP JUMPDEST SWAP1 SWAP8 POP SWAP6 POP PUSH1 0x40 DUP11 ADD CALLDATALOAD SWAP2 POP DUP1 DUP3 GT ISZERO PUSH2 0x2C3E JUMPI PUSH1 0x0 DUP1 REVERT JUMPDEST POP PUSH2 0x2C4B DUP11 DUP3 DUP12 ADD PUSH2 0x2889 JUMP JUMPDEST SWAP9 SWAP12 SWAP8 SWAP11 POP SWAP6 SWAP9 SWAP5 SWAP8 SWAP6 SWAP7 PUSH1 0x60 SWAP1 SWAP6 ADD CALLDATALOAD SWAP5 SWAP4 POP POP POP POP JUMP JUMPDEST PUSH1 0x1 PUSH1 0x1 PUSH1 0xA0 SHL SUB DUP2 AND DUP2 EQ PUSH2 0xA4B JUMPI PUSH1 0x0 DUP1 REVERT JUMPDEST PUSH1 0x0 PUSH1 0x20 DUP3 DUP5 SUB SLT ISZERO PUSH2 0x2C8B JUMPI PUSH1 0x0 DUP1 REVERT JUMPDEST DUP2 CALLDATALOAD PUSH2 0x23D5 DUP2 PUSH2 0x2C64 JUMP JUMPDEST PUSH1 0x0 DUP1 PUSH1 0x0 DUP1 PUSH1 0x0 DUP1 PUSH1 0x80 DUP8 DUP10 SUB SLT ISZERO PUSH2 0x2CAF JUMPI PUSH1 0x0 DUP1 REVERT JUMPDEST DUP7 CALLDATALOAD SWAP6 POP PUSH1 0x20 DUP8 ADD CALLDATALOAD PUSH1 0x1 PUSH1 0x1 PUSH1 0x40 SHL SUB DUP1 DUP3 GT ISZERO PUSH2 0x2CCD JUMPI PUSH1 0x0 DUP1 REVERT JUMPDEST PUSH2 0x2CD9 DUP11 DUP4 DUP12 ADD PUSH2 0x2889 JUMP JUMPDEST SWAP1 SWAP8 POP SWAP6 POP PUSH1 0x40 DUP10 ADD CALLDATALOAD SWAP2 POP DUP1 DUP3 GT ISZERO PUSH2 0x2CF2 JUMPI PUSH1 0x0 DUP1 REVERT JUMPDEST POP PUSH2 0x2CFF DUP10 DUP3 DUP11 ADD PUSH2 0x2889 JUMP JUMPDEST SWAP8 SWAP11 SWAP7 SWAP10 POP SWAP5 SWAP8 SWAP5 SWAP7 SWAP6 PUSH1 0x60 SWAP1 SWAP6 ADD CALLDATALOAD SWAP5 SWAP4 POP POP POP POP JUMP JUMPDEST PUSH1 0x0 DUP1 DUP4 PUSH1 0x1F DUP5 ADD SLT PUSH2 0x2D29 JUMPI PUSH1 0x0 DUP1 REVERT JUMPDEST POP DUP2 CALLDATALOAD PUSH1 0x1 PUSH1 0x1 PUSH1 0x40 SHL SUB DUP2 GT ISZERO PUSH2 0x2D40 JUMPI PUSH1 0x0 DUP1 REVERT JUMPDEST PUSH1 0x20 DUP4 ADD SWAP2 POP DUP4 PUSH1 0x20 DUP3 PUSH1 0x5 SHL DUP6 ADD ADD GT ISZERO PUSH2 0x28CA JUMPI PUSH1 0x0 DUP1 REVERT JUMPDEST PUSH1 0x0 DUP1 PUSH1 0x0 DUP1 PUSH1 0x40 DUP6 DUP8 SUB SLT ISZERO PUSH2 0x2D71 JUMPI PUSH1 0x0 DUP1 REVERT JUMPDEST DUP5 CALLDATALOAD PUSH1 0x1 PUSH1 0x1 PUSH1 0x40 SHL SUB DUP1 DUP3 GT ISZERO PUSH2 0x2D88 JUMPI PUSH1 0x0 DUP1 REVERT JUMPDEST PUSH2 0x2D94 DUP9 DUP4 DUP10 ADD PUSH2 0x2D17 JUMP JUMPDEST SWAP1 SWAP7 POP SWAP5 POP PUSH1 0x20 DUP8 ADD CALLDATALOAD SWAP2 POP DUP1 DUP3 GT ISZERO PUSH2 0x2DAD JUMPI PUSH1 0x0 DUP1 REVERT JUMPDEST POP PUSH2 0x2DBA DUP8 DUP3 DUP9 ADD PUSH2 0x2D17 JUMP JUMPDEST SWAP6 SWAP9 SWAP5 SWAP8 POP SWAP6 POP POP POP POP JUMP JUMPDEST PUSH1 0x0 JUMPDEST DUP4 DUP2 LT ISZERO PUSH2 0x2DE1 JUMPI DUP2 DUP2 ADD MLOAD DUP4 DUP3 ADD MSTORE PUSH1 0x20 ADD PUSH2 0x2DC9 JUMP JUMPDEST POP POP PUSH1 0x0 SWAP2 ADD MSTORE JUMP JUMPDEST PUSH1 0x0 DUP2 MLOAD DUP1 DUP5 MSTORE PUSH2 0x2E02 DUP2 PUSH1 0x20 DUP7 ADD PUSH1 0x20 DUP7 ADD PUSH2 0x2DC6 JUMP JUMPDEST PUSH1 0x1F ADD PUSH1 0x1F NOT AND SWAP3 SWAP1 SWAP3 ADD PUSH1 0x20 ADD SWAP3 SWAP2 POP POP JUMP JUMPDEST PUSH1 0x20 DUP2 MSTORE PUSH1 0x0 PUSH2 0x23D5 PUSH1 0x20 DUP4 ADD DUP5 PUSH2 0x2DEA JUMP JUMPDEST PUSH1 0x0 DUP1 PUSH1 0x0 DUP1 PUSH1 0x60 DUP6 DUP8 SUB SLT ISZERO PUSH2 0x2E3F JUMPI PUSH1 0x0 DUP1 REVERT JUMPDEST DUP5 CALLDATALOAD PUSH2 0x2E4A DUP2 PUSH2 0x2C64 JUMP JUMPDEST SWAP4 POP PUSH1 0x20 DUP6 ADD CALLDATALOAD SWAP3 POP PUSH1 0x40 DUP6 ADD CALLDATALOAD PUSH1 0x1 PUSH1 0x1 PUSH1 0x40 SHL SUB DUP2 GT ISZERO PUSH2 0x2E6C JUMPI PUSH1 0x0 DUP1 REVERT JUMPDEST PUSH2 0x2DBA DUP8 DUP3 DUP9 ADD PUSH2 0x2889 JUMP JUMPDEST PUSH1 0x0 DUP1 PUSH1 0x0 DUP1 PUSH1 0x0 DUP1 PUSH1 0x0 DUP1 PUSH1 0x0 PUSH1 0xA0 DUP11 DUP13 SUB SLT ISZERO PUSH2 0x2E96 JUMPI PUSH1 0x0 DUP1 REVERT JUMPDEST DUP10 CALLDATALOAD PUSH1 0x1 PUSH1 0x1 PUSH1 0x40 SHL SUB DUP1 DUP3 GT ISZERO PUSH2 0x2EAD JUMPI PUSH1 0x0 DUP1 REVERT JUMPDEST PUSH2 0x2EB9 DUP14 DUP4 DUP15 ADD PUSH2 0x2889 JUMP JUMPDEST SWAP1 SWAP12 POP SWAP10 POP PUSH1 0x20 DUP13 ADD CALLDATALOAD SWAP2 POP DUP1 DUP3 GT ISZERO PUSH2 0x2ED2 JUMPI PUSH1 0x0 DUP1 REVERT JUMPDEST PUSH2 0x2EDE DUP14 DUP4 DUP15 ADD PUSH2 0x2889 JUMP JUMPDEST SWAP1 SWAP10 POP SWAP8 POP PUSH1 0x40 DUP13 ADD CALLDATALOAD SWAP2 POP DUP1 DUP3 GT ISZERO PUSH2 0x2EF7 JUMPI PUSH1 0x0 DUP1 REVERT JUMPDEST PUSH2 0x2F03 DUP14 DUP4 DUP15 ADD PUSH2 0x2889 JUMP JUMPDEST SWAP1 SWAP8 POP SWAP6 POP PUSH1 0x60 DUP13 ADD CALLDATALOAD SWAP2 POP DUP1 DUP3 GT ISZERO PUSH2 0x2F1C JUMPI PUSH1 0x0 DUP1 REVERT JUMPDEST POP PUSH2 0x2F29 DUP13 DUP3 DUP14 ADD PUSH2 0x2889 JUMP JUMPDEST SWAP11 SWAP14 SWAP10 SWAP13 POP SWAP8 SWAP11 SWAP7 SWAP10 SWAP6 SWAP9 SWAP5 SWAP8 SWAP7 PUSH1 0x80 ADD CALLDATALOAD SWAP5 SWAP4 POP POP POP POP JUMP JUMPDEST PUSH1 0x0 DUP1 PUSH1 0x0 DUP1 PUSH1 0x0 DUP1 PUSH1 0x0 DUP1 PUSH1 0x0 DUP1 PUSH1 0xE0 DUP12 DUP14 SUB SLT ISZERO PUSH2 0x2F62 JUMPI PUSH1 0x0 DUP1 REVERT JUMPDEST DUP11 CALLDATALOAD SWAP10 POP PUSH1 0x20 DUP12 ADD CALLDATALOAD PUSH1 0x1 PUSH1 0x1 PUSH1 0x40 SHL SUB DUP1 DUP3 GT ISZERO PUSH2 0x2F80 JUMPI PUSH1 0x0 DUP1 REVERT JUMPDEST PUSH2 0x2F8C DUP15 DUP4 DUP16 ADD PUSH2 0x2889 JUMP JUMPDEST SWAP1 SWAP12 POP SWAP10 POP PUSH1 0x40 DUP14 ADD CALLDATALOAD SWAP2 POP DUP1 DUP3 GT ISZERO PUSH2 0x2FA5 JUMPI PUSH1 0x0 DUP1 REVERT JUMPDEST PUSH2 0x2FB1 DUP15 DUP4 DUP16 ADD PUSH2 0x2889 JUMP JUMPDEST SWAP1 SWAP10 POP SWAP8 POP PUSH1 0x60 DUP14 ADD CALLDATALOAD SWAP2 POP PUSH2 0x2FC6 DUP3 PUSH2 0x2C64 JUMP JUMPDEST SWAP1 SWAP6 POP PUSH1 0x80 DUP13 ADD CALLDATALOAD SWAP5 POP PUSH1 0xA0 DUP13 ADD CALLDATALOAD SWAP1 DUP1 DUP3 GT ISZERO PUSH2 0x2FE3 JUMPI PUSH1 0x0 DUP1 REVERT JUMPDEST POP PUSH2 0x2FF0 DUP14 DUP3 DUP15 ADD PUSH2 0x2889 JUMP JUMPDEST SWAP2 POP DUP1 SWAP5 POP POP DUP1 SWAP3 POP POP PUSH1 0xC0 DUP12 ADD CALLDATALOAD SWAP1 POP SWAP3 SWAP6 SWAP9 SWAP12 SWAP2 SWAP5 SWAP8 SWAP11 POP SWAP3 SWAP6 SWAP9 POP JUMP JUMPDEST PUSH1 0x0 DUP1 PUSH1 0x0 DUP1 PUSH1 0x0 DUP1 PUSH1 0x0 PUSH1 0xA0 DUP9 DUP11 SUB SLT ISZERO PUSH2 0x302B JUMPI PUSH1 0x0 DUP1 REVERT JUMPDEST DUP8 CALLDATALOAD SWAP7 POP PUSH1 0x20 DUP9 ADD CALLDATALOAD PUSH1 0x1 PUSH1 0x1 PUSH1 0x40 SHL SUB DUP1 DUP3 GT ISZERO PUSH2 0x3049 JUMPI PUSH1 0x0 DUP1 REVERT JUMPDEST PUSH2 0x3055 DUP12 DUP4 DUP13 ADD PUSH2 0x2889 JUMP JUMPDEST SWAP1 SWAP9 POP SWAP7 POP PUSH1 0x40 DUP11 ADD CALLDATALOAD SWAP2 POP DUP1 DUP3 GT ISZERO PUSH2 0x306E JUMPI PUSH1 0x0 DUP1 REVERT JUMPDEST POP PUSH2 0x307B DUP11 DUP3 DUP12 ADD PUSH2 0x2889 JUMP JUMPDEST SWAP1 SWAP6 POP SWAP4 POP POP PUSH1 0x60 DUP9 ADD CALLDATALOAD PUSH2 0x308F DUP2 PUSH2 0x2C64 JUMP JUMPDEST DUP1 SWAP3 POP POP PUSH1 0x80 DUP9 ADD CALLDATALOAD SWAP1 POP SWAP3 SWAP6 SWAP9 SWAP2 SWAP5 SWAP8 POP SWAP3 SWAP6 POP JUMP JUMPDEST PUSH1 0x0 DUP1 PUSH1 0x40 DUP4 DUP6 SUB SLT ISZERO PUSH2 0x30B9 JUMPI PUSH1 0x0 DUP1 REVERT JUMPDEST DUP3 CALLDATALOAD PUSH1 0x1 PUSH1 0x1 PUSH1 0x40 SHL SUB DUP1 DUP3 GT ISZERO PUSH2 0x30D0 JUMPI PUSH1 0x0 DUP1 REVERT JUMPDEST PUSH2 0x30DC DUP7 DUP4 DUP8 ADD PUSH2 0x2B30 JUMP JUMPDEST SWAP4 POP PUSH1 0x20 DUP6 ADD CALLDATALOAD SWAP2 POP DUP1 DUP3 GT ISZERO PUSH2 0x30F2 JUMPI PUSH1 0x0 DUP1 REVERT JUMPDEST POP PUSH2 0x30FF DUP6 DUP3 DUP7 ADD PUSH2 0x2B30 JUMP JUMPDEST SWAP2 POP POP SWAP3 POP SWAP3 SWAP1 POP JUMP JUMPDEST PUSH1 0x40 DUP2 MSTORE PUSH1 0x0 PUSH2 0x311C PUSH1 0x40 DUP4 ADD DUP6 PUSH2 0x2DEA JUMP JUMPDEST DUP3 DUP2 SUB PUSH1 0x20 DUP5 ADD MSTORE PUSH2 0x312E DUP2 DUP6 PUSH2 0x2DEA JUMP JUMPDEST SWAP6 SWAP5 POP POP POP POP POP JUMP JUMPDEST DUP1 CALLDATALOAD PUSH2 0x3142 DUP2 PUSH2 0x2C64 JUMP JUMPDEST SWAP2 SWAP1 POP JUMP JUMPDEST PUSH1 0x0 DUP1 PUSH1 0x0 PUSH1 0x60 DUP5 DUP7 SUB SLT ISZERO PUSH2 0x315C JUMPI PUSH1 0x0 DUP1 REVERT JUMPDEST DUP4 CALLDATALOAD PUSH1 0x1 PUSH1 0x1 PUSH1 0x40 SHL SUB DUP2 GT ISZERO PUSH2 0x3172 JUMPI PUSH1 0x0 DUP1 REVERT JUMPDEST PUSH2 0x317E DUP7 DUP3 DUP8 ADD PUSH2 0x2B30 JUMP JUMPDEST SWAP4 POP POP PUSH1 0x20 DUP5 ADD CALLDATALOAD PUSH2 0x318F DUP2 PUSH2 0x2C64 JUMP JUMPDEST SWAP3 SWAP6 SWAP3 SWAP5 POP POP POP PUSH1 0x40 SWAP2 SWAP1 SWAP2 ADD CALLDATALOAD SWAP1 JUMP JUMPDEST DUP2 DUP4 DUP3 CALLDATACOPY PUSH1 0x0 SWAP2 ADD SWAP1 DUP2 MSTORE SWAP2 SWAP1 POP JUMP JUMPDEST DUP2 DUP4 MSTORE DUP2 DUP2 PUSH1 0x20 DUP6 ADD CALLDATACOPY POP PUSH1 0x0 DUP3 DUP3 ADD PUSH1 0x20 SWAP1 DUP2 ADD SWAP2 SWAP1 SWAP2 MSTORE PUSH1 0x1F SWAP1 SWAP2 ADD PUSH1 0x1F NOT AND SWAP1 SWAP2 ADD ADD SWAP1 JUMP JUMPDEST PUSH1 0x60 DUP2 MSTORE PUSH1 0x0 PUSH2 0x31ED PUSH1 0x60 DUP4 ADD DUP9 DUP11 PUSH2 0x31B0 JUMP JUMPDEST DUP3 DUP2 SUB PUSH1 0x20 DUP5 ADD MSTORE PUSH2 0x3200 DUP2 DUP8 DUP10 PUSH2 0x31B0 JUMP JUMPDEST SWAP1 POP DUP3 DUP2 SUB PUSH1 0x40 DUP5 ADD MSTORE PUSH2 0x3215 DUP2 DUP6 DUP8 PUSH2 0x31B0 JUMP JUMPDEST SWAP10 SWAP9 POP POP POP POP POP POP POP POP POP JUMP JUMPDEST PUSH1 0x80 DUP2 MSTORE PUSH1 0x0 PUSH2 0x3236 PUSH1 0x80 DUP4 ADD DUP10 DUP12 PUSH2 0x31B0 JUMP JUMPDEST DUP3 DUP2 SUB PUSH1 0x20 DUP5 ADD MSTORE PUSH2 0x3249 DUP2 DUP9 DUP11 PUSH2 0x31B0 JUMP JUMPDEST SWAP1 POP DUP3 DUP2 SUB PUSH1 0x40 DUP5 ADD MSTORE PUSH2 0x325E DUP2 DUP7 DUP9 PUSH2 0x31B0 JUMP JUMPDEST SWAP2 POP POP DUP3 PUSH1 0x60 DUP4 ADD MSTORE SWAP9 SWAP8 POP POP POP POP POP POP POP POP JUMP JUMPDEST PUSH1 0x0 DUP1 PUSH1 0x40 DUP4 DUP6 SUB SLT ISZERO PUSH2 0x3286 JUMPI PUSH1 0x0 DUP1 REVERT JUMPDEST DUP3 CALLDATALOAD PUSH1 0x1 PUSH1 0x1 PUSH1 0x40 SHL SUB DUP2 GT ISZERO PUSH2 0x329C JUMPI PUSH1 0x0 DUP1 REVERT JUMPDEST PUSH2 0x32A8 DUP6 DUP3 DUP7 ADD PUSH2 0x2B30 JUMP JUMPDEST SWAP6 PUSH1 0x20 SWAP5 SWAP1 SWAP5 ADD CALLDATALOAD SWAP5 POP POP POP POP JUMP JUMPDEST PUSH4 0x4E487B71 PUSH1 0xE0 SHL PUSH1 0x0 MSTORE PUSH1 0x21 PUSH1 0x4 MSTORE PUSH1 0x24 PUSH1 0x0 REVERT JUMPDEST PUSH1 0x0 DUP3 MLOAD PUSH2 0x32DF DUP2 DUP5 PUSH1 0x20 DUP8 ADD PUSH2 0x2DC6 JUMP JUMPDEST SWAP2 SWAP1 SWAP2 ADD SWAP3 SWAP2 POP POP JUMP JUMPDEST PUSH1 0x0 PUSH1 0x20 DUP3 DUP5 SUB SLT ISZERO PUSH2 0x32FB JUMPI PUSH1 0x0 DUP1 REVERT JUMPDEST POP MLOAD SWAP2 SWAP1 POP JUMP JUMPDEST PUSH1 0x1 PUSH1 0x1 PUSH1 0xA0 SHL SUB DUP4 AND DUP2 MSTORE PUSH1 0x40 PUSH1 0x20 DUP3 ADD DUP2 SWAP1 MSTORE PUSH1 0x0 SWAP1 PUSH2 0x2BBA SWAP1 DUP4 ADD DUP5 PUSH2 0x2DEA JUMP JUMPDEST DUP1 MLOAD DUP1 ISZERO ISZERO DUP2 EQ PUSH2 0x3142 JUMPI PUSH1 0x0 DUP1 REVERT JUMPDEST PUSH1 0x0 PUSH2 0x3344 PUSH2 0x2B4F DUP5 PUSH2 0x2B09 JUMP JUMPDEST SWAP1 POP DUP3 DUP2 MSTORE DUP4 DUP4 DUP4 ADD GT ISZERO PUSH2 0x3358 JUMPI PUSH1 0x0 DUP1 REVERT JUMPDEST PUSH2 0x23D5 DUP4 PUSH1 0x20 DUP4 ADD DUP5 PUSH2 0x2DC6 JUMP JUMPDEST PUSH1 0x0 DUP3 PUSH1 0x1F DUP4 ADD SLT PUSH2 0x3377 JUMPI PUSH1 0x0 DUP1 REVERT JUMPDEST PUSH2 0x23D5 DUP4 DUP4 MLOAD PUSH1 0x20 DUP6 ADD PUSH2 0x3336 JUMP JUMPDEST PUSH1 0x0 DUP1 PUSH1 0x40 DUP4 DUP6 SUB SLT ISZERO PUSH2 0x3399 JUMPI PUSH1 0x0 DUP1 REVERT JUMPDEST PUSH2 0x33A2 DUP4 PUSH2 0x3326 JUMP JUMPDEST SWAP2 POP PUSH1 0x20 DUP4 ADD MLOAD PUSH1 0x1 PUSH1 0x1 PUSH1 0x40 SHL SUB DUP2 GT ISZERO PUSH2 0x33BD JUMPI PUSH1 0x0 DUP1 REVERT JUMPDEST PUSH2 0x30FF DUP6 DUP3 DUP7 ADD PUSH2 0x3366 JUMP JUMPDEST PUSH1 0x0 PUSH1 0x20 DUP3 DUP5 SUB SLT ISZERO PUSH2 0x33DB JUMPI PUSH1 0x0 DUP1 REVERT JUMPDEST PUSH2 0x23D5 DUP3 PUSH2 0x3326 JUMP JUMPDEST PUSH1 0x0 DUP1 PUSH1 0x0 DUP1 PUSH1 0x0 DUP1 PUSH1 0x0 DUP1 PUSH2 0x100 DUP10 DUP12 SUB SLT ISZERO PUSH2 0x3401 JUMPI PUSH1 0x0 DUP1 REVERT JUMPDEST DUP9 CALLDATALOAD PUSH1 0x1 PUSH1 0x1 PUSH1 0x40 SHL SUB DUP1 DUP3 GT ISZERO PUSH2 0x3418 JUMPI PUSH1 0x0 DUP1 REVERT JUMPDEST PUSH2 0x3424 DUP13 DUP4 DUP14 ADD PUSH2 0x2B30 JUMP JUMPDEST SWAP10 POP PUSH1 0x20 DUP12 ADD CALLDATALOAD SWAP2 POP DUP1 DUP3 GT ISZERO PUSH2 0x343A JUMPI PUSH1 0x0 DUP1 REVERT JUMPDEST PUSH2 0x3446 DUP13 DUP4 DUP14 ADD PUSH2 0x2B30 JUMP JUMPDEST SWAP9 POP PUSH2 0x3454 PUSH1 0x40 DUP13 ADD PUSH2 0x3137 JUMP JUMPDEST SWAP8 POP PUSH1 0x60 DUP12 ADD CALLDATALOAD SWAP7 POP PUSH1 0x80 DUP12 ADD CALLDATALOAD SWAP2 POP DUP1 DUP3 GT ISZERO PUSH2 0x3471 JUMPI PUSH1 0x0 DUP1 REVERT JUMPDEST POP PUSH2 0x347E DUP12 DUP3 DUP13 ADD PUSH2 0x2B30 JUMP JUMPDEST SWAP9 SWAP12 SWAP8 SWAP11 POP SWAP6 SWAP9 SWAP5 SWAP8 SWAP7 PUSH1 0xA0 DUP7 ADD CALLDATALOAD SWAP7 POP PUSH1 0xC0 DUP7 ADD CALLDATALOAD SWAP6 PUSH1 0xE0 ADD CALLDATALOAD SWAP5 POP SWAP3 POP POP POP JUMP JUMPDEST PUSH1 0xC0 DUP2 MSTORE PUSH1 0x0 PUSH2 0x34B4 PUSH1 0xC0 DUP4 ADD DUP10 PUSH2 0x2DEA JUMP JUMPDEST DUP3 DUP2 SUB PUSH1 0x20 DUP5 ADD MSTORE PUSH2 0x34C6 DUP2 DUP10 PUSH2 0x2DEA JUMP JUMPDEST SWAP1 POP DUP3 DUP2 SUB PUSH1 0x40 DUP5 ADD MSTORE PUSH2 0x34DA DUP2 DUP9 PUSH2 0x2DEA JUMP JUMPDEST PUSH1 0x60 DUP5 ADD SWAP7 SWAP1 SWAP7 MSTORE POP POP PUSH1 0x80 DUP2 ADD SWAP3 SWAP1 SWAP3 MSTORE PUSH1 0xA0 SWAP1 SWAP2 ADD MSTORE SWAP4 SWAP3 POP POP POP JUMP JUMPDEST PUSH4 0x4E487B71 PUSH1 0xE0 SHL PUSH1 0x0 MSTORE PUSH1 0x32 PUSH1 0x4 MSTORE PUSH1 0x24 PUSH1 0x0 REVERT JUMPDEST PUSH1 0x0 DUP1 DUP4 CALLDATALOAD PUSH1 0x1E NOT DUP5 CALLDATASIZE SUB ADD DUP2 SLT PUSH2 0x3526 JUMPI PUSH1 0x0 DUP1 REVERT JUMPDEST DUP4 ADD DUP1 CALLDATALOAD SWAP2 POP PUSH1 0x1 PUSH1 0x1 PUSH1 0x40 SHL SUB DUP3 GT ISZERO PUSH2 0x3540 JUMPI PUSH1 0x0 DUP1 REVERT JUMPDEST PUSH1 0x20 ADD SWAP2 POP CALLDATASIZE DUP2 SWAP1 SUB DUP3 SGT ISZERO PUSH2 0x28CA JUMPI PUSH1 0x0 DUP1 REVERT JUMPDEST DUP3 DUP2 MSTORE PUSH1 0x40 PUSH1 0x20 DUP3 ADD MSTORE PUSH1 0x0 PUSH2 0x2BBA PUSH1 0x40 DUP4 ADD DUP5 PUSH2 0x2DEA JUMP JUMPDEST PUSH1 0x0 DUP1 PUSH1 0x0 DUP1 PUSH1 0x0 DUP1 PUSH1 0xC0 DUP8 DUP10 SUB SLT ISZERO PUSH2 0x3587 JUMPI PUSH1 0x0 DUP1 REVERT JUMPDEST DUP7 CALLDATALOAD PUSH1 0x1 PUSH1 0x1 PUSH1 0x40 SHL SUB DUP1 DUP3 GT ISZERO PUSH2 0x359E JUMPI PUSH1 0x0 DUP1 REVERT JUMPDEST PUSH2 0x35AA DUP11 DUP4 DUP12 ADD PUSH2 0x2B30 JUMP JUMPDEST SWAP8 POP PUSH1 0x20 DUP10 ADD CALLDATALOAD SWAP2 POP DUP1 DUP3 GT ISZERO PUSH2 0x35C0 JUMPI PUSH1 0x0 DUP1 REVERT JUMPDEST POP PUSH2 0x35CD DUP10 DUP3 DUP11 ADD PUSH2 0x2B30 JUMP JUMPDEST SWAP6 POP POP PUSH1 0x40 DUP8 ADD CALLDATALOAD PUSH1 0xFF DUP2 AND DUP2 EQ PUSH2 0x35E4 JUMPI PUSH1 0x0 DUP1 REVERT JUMPDEST SWAP4 POP PUSH1 0x60 DUP8 ADD CALLDATALOAD SWAP3 POP PUSH1 0x80 DUP8 ADD CALLDATALOAD PUSH2 0x35FB DUP2 PUSH2 0x2C64 JUMP JUMPDEST DUP1 SWAP3 POP POP PUSH1 0xA0 DUP8 ADD CALLDATALOAD SWAP1 POP SWAP3 SWAP6 POP SWAP3 SWAP6 POP SWAP3 SWAP6 JUMP JUMPDEST PUSH1 0xA0 DUP2 MSTORE PUSH1 0x0 PUSH2 0x3623 PUSH1 0xA0 DUP4 ADD DUP9 PUSH2 0x2DEA JUMP JUMPDEST DUP3 DUP2 SUB PUSH1 0x20 DUP5 ADD MSTORE PUSH2 0x3635 DUP2 DUP9 PUSH2 0x2DEA JUMP JUMPDEST PUSH1 0xFF SWAP7 SWAP1 SWAP7 AND PUSH1 0x40 DUP5 ADD MSTORE POP POP PUSH1 0x60 DUP2 ADD SWAP3 SWAP1 SWAP3 MSTORE PUSH1 0x80 SWAP1 SWAP2 ADD MSTORE SWAP3 SWAP2 POP POP JUMP JUMPDEST PUSH1 0x0 PUSH1 0x20 DUP3 DUP5 SUB SLT ISZERO PUSH2 0x3668 JUMPI PUSH1 0x0 DUP1 REVERT JUMPDEST DUP2 MLOAD PUSH2 0x23D5 DUP2 PUSH2 0x2C64 JUMP JUMPDEST PUSH1 0x40 DUP2 MSTORE PUSH1 0x0 PUSH2 0x3686 PUSH1 0x40 DUP4 ADD DUP6 PUSH2 0x2DEA JUMP JUMPDEST SWAP1 POP PUSH1 0x1 DUP1 PUSH1 0xA0 SHL SUB DUP4 AND PUSH1 0x20 DUP4 ADD MSTORE SWAP4 SWAP3 POP POP POP JUMP JUMPDEST PUSH1 0x20 DUP2 MSTORE PUSH1 0x0 PUSH2 0x2BBA PUSH1 0x20 DUP4 ADD DUP5 DUP7 PUSH2 0x31B0 JUMP JUMPDEST PUSH1 0x1 DUP2 DUP2 SHR SWAP1 DUP3 AND DUP1 PUSH2 0x36C5 JUMPI PUSH1 0x7F DUP3 AND SWAP2 POP JUMPDEST PUSH1 0x20 DUP3 LT DUP2 SUB PUSH2 0x36E5 JUMPI PUSH4 0x4E487B71 PUSH1 0xE0 SHL PUSH1 0x0 MSTORE PUSH1 0x22 PUSH1 0x4 MSTORE PUSH1 0x24 PUSH1 0x0 REVERT JUMPDEST POP SWAP2 SWAP1 POP JUMP JUMPDEST PUSH1 0x0 DUP1 PUSH1 0x0 PUSH1 0x60 DUP5 DUP7 SUB SLT ISZERO PUSH2 0x3700 JUMPI PUSH1 0x0 DUP1 REVERT JUMPDEST DUP4 CALLDATALOAD PUSH2 0x370B DUP2 PUSH2 0x2C64 JUMP JUMPDEST SWAP3 POP PUSH1 0x20 DUP5 ADD CALLDATALOAD PUSH2 0x371B DUP2 PUSH2 0x2C64 JUMP JUMPDEST SWAP2 POP PUSH1 0x40 DUP5 ADD CALLDATALOAD PUSH1 0x1 PUSH1 0x1 PUSH1 0x40 SHL SUB DUP2 GT ISZERO PUSH2 0x3736 JUMPI PUSH1 0x0 DUP1 REVERT JUMPDEST PUSH2 0x3742 DUP7 DUP3 DUP8 ADD PUSH2 0x2B30 JUMP JUMPDEST SWAP2 POP POP SWAP3 POP SWAP3 POP SWAP3 JUMP JUMPDEST PUSH1 0xA0 DUP2 MSTORE PUSH1 0x0 PUSH2 0x3760 PUSH1 0xA0 DUP4 ADD DUP12 DUP14 PUSH2 0x31B0 JUMP JUMPDEST DUP3 DUP2 SUB PUSH1 0x20 DUP5 ADD MSTORE PUSH2 0x3773 DUP2 DUP11 DUP13 PUSH2 0x31B0 JUMP JUMPDEST SWAP1 POP DUP3 DUP2 SUB PUSH1 0x40 DUP5 ADD MSTORE PUSH2 0x3788 DUP2 DUP9 DUP11 PUSH2 0x31B0 JUMP JUMPDEST SWAP1 POP DUP3 DUP2 SUB PUSH1 0x60 DUP5 ADD MSTORE PUSH2 0x379D DUP2 DUP7 DUP9 PUSH2 0x31B0 JUMP JUMPDEST SWAP2 POP POP DUP3 PUSH1 0x80 DUP4 ADD MSTORE SWAP11 SWAP10 POP POP POP POP POP POP POP POP POP POP JUMP JUMPDEST PUSH1 0x0 DUP3 PUSH2 0x37D1 JUMPI PUSH4 0x4E487B71 PUSH1 0xE0 SHL PUSH1 0x0 MSTORE PUSH1 0x12 PUSH1 0x4 MSTORE PUSH1 0x24 PUSH1 0x0 REVERT JUMPDEST POP DIV SWAP1 JUMP JUMPDEST PUSH1 0x0 PUSH1 0x1 PUSH1 0x1 PUSH1 0x40 SHL SUB DUP3 GT ISZERO PUSH2 0x37EF JUMPI PUSH2 0x37EF PUSH2 0x2AC3 JUMP JUMPDEST POP PUSH1 0x5 SHL PUSH1 0x20 ADD SWAP1 JUMP JUMPDEST PUSH1 0x0 DUP3 PUSH1 0x1F DUP4 ADD SLT PUSH2 0x380A JUMPI PUSH1 0x0 DUP1 REVERT JUMPDEST DUP2 MLOAD PUSH1 0x20 PUSH2 0x381A PUSH2 0x2B4F DUP4 PUSH2 0x37D6 JUMP JUMPDEST DUP3 DUP2 MSTORE PUSH1 0x5 SWAP3 SWAP1 SWAP3 SHL DUP5 ADD DUP2 ADD SWAP2 DUP2 DUP2 ADD SWAP1 DUP7 DUP5 GT ISZERO PUSH2 0x3839 JUMPI PUSH1 0x0 DUP1 REVERT JUMPDEST DUP3 DUP7 ADD JUMPDEST DUP5 DUP2 LT ISZERO PUSH2 0xFD8 JUMPI DUP1 MLOAD PUSH1 0x1 PUSH1 0x1 PUSH1 0x40 SHL SUB DUP2 GT ISZERO PUSH2 0x385C JUMPI PUSH1 0x0 DUP1 DUP2 REVERT JUMPDEST DUP8 ADD PUSH1 0x3F DUP2 ADD DUP10 SGT PUSH2 0x386E JUMPI PUSH1 0x0 DUP1 DUP2 REVERT JUMPDEST PUSH2 0x387F DUP10 DUP7 DUP4 ADD MLOAD PUSH1 0x40 DUP5 ADD PUSH2 0x3336 JUMP JUMPDEST DUP5 MSTORE POP SWAP2 DUP4 ADD SWAP2 DUP4 ADD PUSH2 0x383D JUMP JUMPDEST PUSH1 0x0 DUP3 PUSH1 0x1F DUP4 ADD SLT PUSH2 0x389E JUMPI PUSH1 0x0 DUP1 REVERT JUMPDEST DUP2 MLOAD PUSH1 0x20 PUSH2 0x38AE PUSH2 0x2B4F DUP4 PUSH2 0x37D6 JUMP JUMPDEST DUP3 DUP2 MSTORE PUSH1 0x5 SWAP3 SWAP1 SWAP3 SHL DUP5 ADD DUP2 ADD SWAP2 DUP2 DUP2 ADD SWAP1 DUP7 DUP5 GT ISZERO PUSH2 0x38CD JUMPI PUSH1 0x0 DUP1 REVERT JUMPDEST DUP3 DUP7 ADD JUMPDEST DUP5 DUP2 LT ISZERO PUSH2 0xFD8 JUMPI DUP1 MLOAD PUSH1 0x1 PUSH1 0x1 PUSH1 0x40 SHL SUB DUP2 GT ISZERO PUSH2 0x38F0 JUMPI PUSH1 0x0 DUP1 DUP2 REVERT JUMPDEST PUSH2 0x38FE DUP10 DUP7 DUP4 DUP12 ADD ADD PUSH2 0x3366 JUMP JUMPDEST DUP5 MSTORE POP SWAP2 DUP4 ADD SWAP2 DUP4 ADD PUSH2 0x38D1 JUMP JUMPDEST PUSH1 0x0 DUP1 PUSH1 0x0 DUP1 PUSH1 0x80 DUP6 DUP8 SUB SLT ISZERO PUSH2 0x3922 JUMPI PUSH1 0x0 DUP1 REVERT JUMPDEST DUP5 MLOAD SWAP4 POP PUSH1 0x20 DUP1 DUP7 ADD MLOAD PUSH1 0x1 PUSH1 0x1 PUSH1 0x40 SHL SUB DUP1 DUP3 GT ISZERO PUSH2 0x3941 JUMPI PUSH1 0x0 DUP1 REVERT JUMPDEST DUP2 DUP9 ADD SWAP2 POP DUP9 PUSH1 0x1F DUP4 ADD SLT PUSH2 0x3955 JUMPI PUSH1 0x0 DUP1 REVERT JUMPDEST DUP2 MLOAD PUSH2 0x3963 PUSH2 0x2B4F DUP3 PUSH2 0x37D6 JUMP JUMPDEST DUP2 DUP2 MSTORE PUSH1 0x5 SWAP2 SWAP1 SWAP2 SHL DUP4 ADD DUP5 ADD SWAP1 DUP5 DUP2 ADD SWAP1 DUP12 DUP4 GT ISZERO PUSH2 0x3982 JUMPI PUSH1 0x0 DUP1 REVERT JUMPDEST SWAP4 DUP6 ADD SWAP4 JUMPDEST DUP3 DUP6 LT ISZERO PUSH2 0x39A0 JUMPI DUP5 MLOAD DUP3 MSTORE SWAP4 DUP6 ADD SWAP4 SWAP1 DUP6 ADD SWAP1 PUSH2 0x3987 JUMP JUMPDEST PUSH1 0x40 DUP12 ADD MLOAD SWAP1 SWAP9 POP SWAP5 POP POP POP DUP1 DUP4 GT ISZERO PUSH2 0x39B9 JUMPI PUSH1 0x0 DUP1 REVERT JUMPDEST PUSH2 0x39C5 DUP10 DUP5 DUP11 ADD PUSH2 0x37F9 JUMP JUMPDEST SWAP5 POP PUSH1 0x60 DUP9 ADD MLOAD SWAP3 POP DUP1 DUP4 GT ISZERO PUSH2 0x39DB JUMPI PUSH1 0x0 DUP1 REVERT JUMPDEST POP POP PUSH2 0x39E9 DUP8 DUP3 DUP9 ADD PUSH2 0x388D JUMP JUMPDEST SWAP2 POP POP SWAP3 SWAP6 SWAP2 SWAP5 POP SWAP3 POP JUMP JUMPDEST PUSH1 0x0 DUP3 DUP3 MLOAD DUP1 DUP6 MSTORE PUSH1 0x20 DUP1 DUP7 ADD SWAP6 POP PUSH1 0x20 DUP3 PUSH1 0x5 SHL DUP5 ADD ADD PUSH1 0x20 DUP7 ADD PUSH1 0x0 JUMPDEST DUP5 DUP2 LT ISZERO PUSH2 0x3A42 JUMPI PUSH1 0x1F NOT DUP7 DUP5 SUB ADD DUP10 MSTORE PUSH2 0x3A30 DUP4 DUP4 MLOAD PUSH2 0x2DEA JUMP JUMPDEST SWAP9 DUP5 ADD SWAP9 SWAP3 POP SWAP1 DUP4 ADD SWAP1 PUSH1 0x1 ADD PUSH2 0x3A14 JUMP JUMPDEST POP SWAP1 SWAP8 SWAP7 POP POP POP POP POP POP POP JUMP JUMPDEST PUSH1 0x0 PUSH1 0x80 DUP3 ADD DUP7 DUP4 MSTORE PUSH1 0x20 PUSH1 0x80 DUP2 DUP6 ADD MSTORE DUP2 DUP8 MLOAD DUP1 DUP5 MSTORE PUSH1 0xA0 DUP7 ADD SWAP2 POP DUP3 DUP10 ADD SWAP4 POP PUSH1 0x0 JUMPDEST DUP2 DUP2 LT ISZERO PUSH2 0x3A90 JUMPI DUP5 MLOAD DUP4 MSTORE SWAP4 DUP4 ADD SWAP4 SWAP2 DUP4 ADD SWAP2 PUSH1 0x1 ADD PUSH2 0x3A74 JUMP JUMPDEST POP POP DUP5 DUP2 SUB PUSH1 0x40 DUP7 ADD MSTORE DUP7 MLOAD DUP1 DUP3 MSTORE DUP3 DUP3 ADD SWAP4 POP PUSH1 0x5 DUP2 SWAP1 SHL DUP3 ADD DUP4 ADD DUP4 DUP10 ADD PUSH1 0x0 JUMPDEST DUP4 DUP2 LT ISZERO PUSH2 0x3AE1 JUMPI PUSH1 0x1F NOT DUP6 DUP5 SUB ADD DUP8 MSTORE PUSH2 0x3ACF DUP4 DUP4 MLOAD PUSH2 0x2DEA JUMP JUMPDEST SWAP7 DUP7 ADD SWAP7 SWAP3 POP SWAP1 DUP6 ADD SWAP1 PUSH1 0x1 ADD PUSH2 0x3AB3 JUMP JUMPDEST POP POP DUP7 DUP2 SUB PUSH1 0x60 DUP9 ADD MSTORE PUSH2 0x1B77 DUP2 DUP10 PUSH2 0x39F5 JUMP JUMPDEST PUSH1 0x0 DUP1 PUSH1 0x0 DUP1 PUSH1 0x0 DUP1 PUSH1 0xC0 DUP8 DUP10 SUB SLT ISZERO PUSH2 0x3B0E JUMPI PUSH1 0x0 DUP1 REVERT JUMPDEST DUP7 CALLDATALOAD PUSH1 0x1 PUSH1 0x1 PUSH1 0x40 SHL SUB DUP1 DUP3 GT ISZERO PUSH2 0x3B25 JUMPI PUSH1 0x0 DUP1 REVERT JUMPDEST PUSH2 0x3B31 DUP11 DUP4 DUP12 ADD PUSH2 0x2B30 JUMP JUMPDEST SWAP8 POP PUSH1 0x20 DUP10 ADD CALLDATALOAD SWAP2 POP DUP1 DUP3 GT ISZERO PUSH2 0x3B47 JUMPI PUSH1 0x0 DUP1 REVERT JUMPDEST POP PUSH2 0x3B54 DUP10 DUP3 DUP11 ADD PUSH2 0x2B30 JUMP JUMPDEST SWAP6 POP POP PUSH1 0x40 DUP8 ADD CALLDATALOAD PUSH2 0x3B65 DUP2 PUSH2 0x2C64 JUMP JUMPDEST SWAP6 SWAP9 SWAP5 SWAP8 POP SWAP5 SWAP6 PUSH1 0x60 DUP2 ADD CALLDATALOAD SWAP6 POP PUSH1 0x80 DUP2 ADD CALLDATALOAD SWAP5 PUSH1 0xA0 SWAP1 SWAP2 ADD CALLDATALOAD SWAP4 POP SWAP2 POP POP JUMP JUMPDEST PUSH1 0x80 DUP2 MSTORE PUSH1 0x0 PUSH2 0x3B99 PUSH1 0x80 DUP4 ADD DUP8 PUSH2 0x2DEA JUMP JUMPDEST DUP3 DUP2 SUB PUSH1 0x20 DUP5 ADD MSTORE PUSH2 0x3BAB DUP2 DUP8 PUSH2 0x2DEA JUMP JUMPDEST PUSH1 0x40 DUP5 ADD SWAP6 SWAP1 SWAP6 MSTORE POP POP PUSH1 0x60 ADD MSTORE SWAP3 SWAP2 POP POP JUMP JUMPDEST DUP1 DUP3 ADD DUP1 DUP3 GT ISZERO PUSH2 0x8FF JUMPI PUSH4 0x4E487B71 PUSH1 0xE0 SHL PUSH1 0x0 MSTORE PUSH1 0x11 PUSH1 0x4 MSTORE PUSH1 0x24 PUSH1 0x0 REVERT JUMPDEST PUSH1 0x0 PUSH2 0x100 DUP11 DUP4 MSTORE DUP10 PUSH1 0x20 DUP5 ADD MSTORE DUP1 PUSH1 0x40 DUP5 ADD MSTORE PUSH2 0x3C00 DUP2 DUP5 ADD DUP11 PUSH2 0x2DEA JUMP JUMPDEST SWAP1 POP DUP3 DUP2 SUB PUSH1 0x60 DUP5 ADD MSTORE PUSH2 0x3C14 DUP2 DUP10 PUSH2 0x2DEA JUMP JUMPDEST PUSH1 0x1 PUSH1 0x1 PUSH1 0xA0 SHL SUB DUP9 AND PUSH1 0x80 DUP6 ADD MSTORE PUSH1 0xA0 DUP5 ADD DUP8 SWAP1 MSTORE DUP4 DUP2 SUB PUSH1 0xC0 DUP6 ADD MSTORE SWAP1 POP PUSH2 0x3C3E DUP2 DUP7 PUSH2 0x2DEA JUMP JUMPDEST SWAP2 POP POP DUP3 PUSH1 0xE0 DUP4 ADD MSTORE SWAP10 SWAP9 POP POP POP POP POP POP POP POP POP JUMP JUMPDEST DUP3 DUP2 MSTORE PUSH1 0x0 DUP3 MLOAD PUSH2 0x3C6C DUP2 PUSH1 0x20 DUP6 ADD PUSH1 0x20 DUP8 ADD PUSH2 0x2DC6 JUMP JUMPDEST SWAP2 SWAP1 SWAP2 ADD PUSH1 0x20 ADD SWAP4 SWAP3 POP POP POP JUMP JUMPDEST DUP7 DUP2 MSTORE DUP6 PUSH1 0x20 DUP3 ADD MSTORE PUSH1 0xC0 PUSH1 0x40 DUP3 ADD MSTORE PUSH1 0x0 PUSH2 0x3C99 PUSH1 0xC0 DUP4 ADD DUP8 PUSH2 0x2DEA JUMP JUMPDEST DUP3 DUP2 SUB PUSH1 0x60 DUP5 ADD MSTORE PUSH2 0x3CAB DUP2 DUP8 PUSH2 0x2DEA JUMP JUMPDEST PUSH1 0x1 PUSH1 0x1 PUSH1 0xA0 SHL SUB SWAP6 SWAP1 SWAP6 AND PUSH1 0x80 DUP5 ADD MSTORE POP POP PUSH1 0xA0 ADD MSTORE SWAP5 SWAP4 POP POP POP POP JUMP JUMPDEST PUSH1 0x40 DUP2 MSTORE PUSH1 0x0 PUSH2 0x3CDD PUSH1 0x40 DUP4 ADD DUP6 PUSH2 0x2DEA JUMP JUMPDEST SWAP1 POP DUP3 PUSH1 0x20 DUP4 ADD MSTORE SWAP4 SWAP3 POP POP POP JUMP JUMPDEST DUP4 DUP2 MSTORE PUSH1 0x60 PUSH1 0x20 DUP3 ADD MSTORE PUSH1 0x0 PUSH2 0x3D05 PUSH1 0x60 DUP4 ADD DUP6 PUSH2 0x2DEA JUMP JUMPDEST SWAP1 POP DUP3 PUSH1 0x40 DUP4 ADD MSTORE SWAP5 SWAP4 POP POP POP POP JUMP INVALID PUSH1 0x80 PUSH1 0x40 MSTORE PUSH1 0x1 PUSH1 0x0 SSTORE CALLVALUE DUP1 ISZERO PUSH2 0x15 JUMPI PUSH1 0x0 DUP1 REVERT JUMPDEST POP PUSH2 0x2D3 DUP1 PUSH2 0x25 PUSH1 0x0 CODECOPY PUSH1 0x0 RETURN INVALID PUSH1 0x80 PUSH1 0x40 MSTORE CALLVALUE DUP1 ISZERO PUSH2 0x10 JUMPI PUSH1 0x0 DUP1 REVERT JUMPDEST POP PUSH1 0x4 CALLDATASIZE LT PUSH2 0x35 JUMPI PUSH1 0x0 CALLDATALOAD PUSH1 0xE0 SHR DUP1 PUSH3 0xF55D9D EQ PUSH2 0x3A JUMPI DUP1 PUSH4 0x1CFF79CD EQ PUSH2 0x4F JUMPI JUMPDEST PUSH1 0x0 DUP1 REVERT JUMPDEST PUSH2 0x4D PUSH2 0x48 CALLDATASIZE PUSH1 0x4 PUSH2 0x18F JUMP JUMPDEST PUSH2 0x79 JUMP JUMPDEST STOP JUMPDEST PUSH2 0x62 PUSH2 0x5D CALLDATASIZE PUSH1 0x4 PUSH2 0x1B1 JUMP JUMPDEST PUSH2 0xAD JUMP JUMPDEST PUSH1 0x40 MLOAD PUSH2 0x70 SWAP3 SWAP2 SWAP1 PUSH2 0x234 JUMP JUMPDEST PUSH1 0x40 MLOAD DUP1 SWAP2 SUB SWAP1 RETURN JUMPDEST PUSH1 0x2 PUSH1 0x0 SLOAD SUB PUSH2 0x9C JUMPI PUSH1 0x40 MLOAD PUSH4 0xCAA30F55 PUSH1 0xE0 SHL DUP2 MSTORE PUSH1 0x4 ADD PUSH1 0x40 MLOAD DUP1 SWAP2 SUB SWAP1 REVERT JUMPDEST PUSH1 0x2 PUSH1 0x0 SSTORE PUSH1 0x1 PUSH1 0x1 PUSH1 0xA0 SHL SUB DUP2 AND SELFDESTRUCT JUMPDEST PUSH1 0x0 PUSH1 0x60 PUSH1 0x2 PUSH1 0x0 SLOAD SUB PUSH2 0xD4 JUMPI PUSH1 0x40 MLOAD PUSH4 0xCAA30F55 PUSH1 0xE0 SHL DUP2 MSTORE PUSH1 0x4 ADD PUSH1 0x40 MLOAD DUP1 SWAP2 SUB SWAP1 REVERT JUMPDEST PUSH1 0x2 PUSH1 0x0 SWAP1 DUP2 SSTORE PUSH1 0x1 PUSH1 0x1 PUSH1 0xA0 SHL SUB DUP7 AND EXTCODESIZE SWAP1 SUB PUSH2 0x105 JUMPI PUSH1 0x40 MLOAD PUSH4 0x6F7C43F1 PUSH1 0xE0 SHL DUP2 MSTORE PUSH1 0x4 ADD PUSH1 0x40 MLOAD DUP1 SWAP2 SUB SWAP1 REVERT JUMPDEST DUP5 PUSH1 0x1 PUSH1 0x1 PUSH1 0xA0 SHL SUB AND DUP5 DUP5 PUSH1 0x40 MLOAD PUSH2 0x11F SWAP3 SWAP2 SWAP1 PUSH2 0x28D JUMP JUMPDEST PUSH1 0x0 PUSH1 0x40 MLOAD DUP1 DUP4 SUB DUP2 PUSH1 0x0 DUP7 GAS CALL SWAP2 POP POP RETURNDATASIZE DUP1 PUSH1 0x0 DUP2 EQ PUSH2 0x15C JUMPI PUSH1 0x40 MLOAD SWAP2 POP PUSH1 0x1F NOT PUSH1 0x3F RETURNDATASIZE ADD AND DUP3 ADD PUSH1 0x40 MSTORE RETURNDATASIZE DUP3 MSTORE RETURNDATASIZE PUSH1 0x0 PUSH1 0x20 DUP5 ADD RETURNDATACOPY PUSH2 0x161 JUMP JUMPDEST PUSH1 0x60 SWAP2 POP JUMPDEST POP PUSH1 0x1 PUSH1 0x0 SSTORE SWAP1 SWAP7 SWAP1 SWAP6 POP SWAP4 POP POP POP POP JUMP JUMPDEST DUP1 CALLDATALOAD PUSH1 0x1 PUSH1 0x1 PUSH1 0xA0 SHL SUB DUP2 AND DUP2 EQ PUSH2 0x18A JUMPI PUSH1 0x0 DUP1 REVERT JUMPDEST SWAP2 SWAP1 POP JUMP JUMPDEST PUSH1 0x0 PUSH1 0x20 DUP3 DUP5 SUB SLT ISZERO PUSH2 0x1A1 JUMPI PUSH1 0x0 DUP1 REVERT JUMPDEST PUSH2 0x1AA DUP3 PUSH2 0x173 JUMP JUMPDEST SWAP4 SWAP3 POP POP POP JUMP JUMPDEST PUSH1 0x0 DUP1 PUSH1 0x0 PUSH1 0x40 DUP5 DUP7 SUB SLT ISZERO PUSH2 0x1C6 JUMPI PUSH1 0x0 DUP1 REVERT JUMPDEST PUSH2 0x1CF DUP5 PUSH2 0x173 JUMP JUMPDEST SWAP3 POP PUSH1 0x20 DUP5 ADD CALLDATALOAD PUSH8 0xFFFFFFFFFFFFFFFF DUP1 DUP3 GT ISZERO PUSH2 0x1EC JUMPI PUSH1 0x0 DUP1 REVERT JUMPDEST DUP2 DUP7 ADD SWAP2 POP DUP7 PUSH1 0x1F DUP4 ADD SLT PUSH2 0x200 JUMPI PUSH1 0x0 DUP1 REVERT JUMPDEST DUP2 CALLDATALOAD DUP2 DUP2 GT ISZERO PUSH2 0x20F JUMPI PUSH1 0x0 DUP1 REVERT JUMPDEST DUP8 PUSH1 0x20 DUP3 DUP6 ADD ADD GT ISZERO PUSH2 0x221 JUMPI PUSH1 0x0 DUP1 REVERT JUMPDEST PUSH1 0x20 DUP4 ADD SWAP5 POP DUP1 SWAP4 POP POP POP POP SWAP3 POP SWAP3 POP SWAP3 JUMP JUMPDEST DUP3 ISZERO ISZERO DUP2 MSTORE PUSH1 0x0 PUSH1 0x20 PUSH1 0x40 PUSH1 0x20 DUP5 ADD MSTORE DUP4 MLOAD DUP1 PUSH1 0x40 DUP6 ADD MSTORE PUSH1 0x0 JUMPDEST DUP2 DUP2 LT ISZERO PUSH2 0x26B JUMPI DUP6 DUP2 ADD DUP4 ADD MLOAD DUP6 DUP3 ADD PUSH1 0x60 ADD MSTORE DUP3 ADD PUSH2 0x24F JUMP JUMPDEST POP PUSH1 0x0 PUSH1 0x60 DUP3 DUP7 ADD ADD MSTORE PUSH1 0x60 PUSH1 0x1F NOT PUSH1 0x1F DUP4 ADD AND DUP6 ADD ADD SWAP3 POP POP POP SWAP4 SWAP3 POP POP POP JUMP JUMPDEST DUP2 DUP4 DUP3 CALLDATACOPY PUSH1 0x0 SWAP2 ADD SWAP1 DUP2 MSTORE SWAP2 SWAP1 POP JUMP INVALID LOG2 PUSH5 0x6970667358 0x22 SLT KECCAK256 MOD 0xF9 0xD3 PUSH31 0xE977C070AB0BEED5622642ADAA8CF7C371495D427AB33E342FDD4AC164736F PUSH13 0x63430008180033763ABA2A0416 KECCAK256 0xDE 0x24 0xED BLOCKHASH 0xA8 0x1F NUMBER DUP12 0xFB 0xD3 0xC9 0x2C SLOAD DUP2 SWAP6 CALLVALUE ADDMOD REVERT DUP9 CALLDATACOPY DUP3 DUP6 PUSH26 0x5ADDABEA6FD3DB56A6E6D0242111B43EBB13D1C42709651C032C PUSH25 0x94962023A1F909627F0C11732837B3240A2DE89C0B63435128 DUP7 0xDD POP SWAP8 DUP12 SWAP10 0xC7 PUSH11 0x68C6416A4D92A264697066 PUSH20 0x582212208F1202FEAB1C22DE859BBAE7E74E6920 0xD2 0xA9 0xD3 DUP11 0xE SWAP3 PUSH0 0xA7 0xAC SELFBALANCE 0xE2 EXTCODECOPY CALLCODE 0xD7 LOG1 0x4F PUSH5 0x736F6C6343 STOP ADDMOD XOR STOP CALLER "},"methodIdentifiers":{"allTokensFrozen()":"aa1e1f0a","approveContractCall(bytes,bytes32)":"fbe0a31b","approveContractCallWithMint(bytes,bytes32)":"585a9fd4","authModule()":"64940c56","burnToken(bytes,bytes32)":"4656ae2e","callContract(string,string,bytes)":"1c92115f","callContractWithToken(string,string,bytes,string,uint256)":"b5417084","contractId()":"8291286c","deployToken(bytes,bytes32)":"886a625d","execute(bytes)":"09c5eabe","execute1(bytes)":"bd217dab","execute2(bytes)":"224c9778","execute3(bytes)":"7c13c8a1","execute4(bytes)":"d4066976","getAddress(bytes32)":"21f8a721","getBool(bytes32)":"7ae1cfca","getBytes(bytes32)":"c031a180","getInt(bytes32)":"dc97d962","getString(bytes32)":"986e791a","getUint(bytes32)":"bd02d0f5","governance()":"5aa6e675","implementation()":"5c60da1b","isCommandExecuted(bytes32)":"d26ff210","isContractCallAndMintApproved(bytes32,string,string,address,bytes32,string,uint256)":"bc00c216","isContractCallApproved(bytes32,string,string,address,bytes32)":"f6a5f9f5","mintLimiter()":"c82fe87a","mintToken(bytes,bytes32)":"146e2d78","sendToken(string,string,string,uint256)":"26ef699d","setTokenMintLimits(string[],uint256[])":"67ace8eb","setup(bytes)":"9ded06df","tokenAddresses(string)":"935b13f6","tokenDeployer()":"2a2dae0a","tokenFrozen(string)":"7b1b769e","tokenMintAmount(string)":"cec7b359","tokenMintLimit(string)":"269eb65e","transferGovernance(address)":"d38bfff4","transferMintLimiter(address)":"41d8f26b","transferOperatorship(bytes,bytes32)":"97b87ba6","upgrade(address,bytes32,bytes)":"a3499c73","validateContractCall(bytes32,string,string,bytes32)":"5f6970c3","validateContractCallAndMint(bytes32,string,string,bytes32,string,uint256)":"1876eed9"}}}}}