{"contracts/axelar/AxelarAuthWeighted.sol":{"AxelarAuthWeighted":{"abi":[{"inputs":[{"internalType":"bytes[]","name":"recentOperators","type":"bytes[]"}],"stateMutability":"nonpayable","type":"constructor"},{"inputs":[],"name":"DuplicateOperators","type":"error"},{"inputs":[],"name":"InvalidOperators","type":"error"},{"inputs":[],"name":"InvalidOwner","type":"error"},{"inputs":[],"name":"InvalidOwnerAddress","type":"error"},{"inputs":[],"name":"InvalidS","type":"error"},{"inputs":[],"name":"InvalidSignature","type":"error"},{"inputs":[],"name":"InvalidSignatureLength","type":"error"},{"inputs":[],"name":"InvalidThreshold","type":"error"},{"inputs":[],"name":"InvalidV","type":"error"},{"inputs":[],"name":"InvalidWeights","type":"error"},{"inputs":[],"name":"LowSignaturesWeight","type":"error"},{"inputs":[],"name":"MalformedSigners","type":"error"},{"inputs":[],"name":"NotOwner","type":"error"},{"anonymous":false,"inputs":[{"indexed":false,"internalType":"address[]","name":"newOperators","type":"address[]"},{"indexed":false,"internalType":"uint256[]","name":"newWeights","type":"uint256[]"},{"indexed":false,"internalType":"uint256","name":"newThreshold","type":"uint256"}],"name":"OperatorshipTransferred","type":"event"},{"anonymous":false,"inputs":[{"indexed":true,"internalType":"address","name":"newOwner","type":"address"}],"name":"OwnershipTransferStarted","type":"event"},{"anonymous":false,"inputs":[{"indexed":true,"internalType":"address","name":"newOwner","type":"address"}],"name":"OwnershipTransferred","type":"event"},{"inputs":[],"name":"acceptOwnership","outputs":[],"stateMutability":"nonpayable","type":"function"},{"inputs":[],"name":"currentEpoch","outputs":[{"internalType":"uint256","name":"","type":"uint256"}],"stateMutability":"view","type":"function"},{"inputs":[{"internalType":"bytes32","name":"","type":"bytes32"}],"name":"epochForHash","outputs":[{"internalType":"uint256","name":"","type":"uint256"}],"stateMutability":"view","type":"function"},{"inputs":[{"internalType":"uint256","name":"","type":"uint256"}],"name":"hashForEpoch","outputs":[{"internalType":"bytes32","name":"","type":"bytes32"}],"stateMutability":"view","type":"function"},{"inputs":[],"name":"owner","outputs":[{"internalType":"address","name":"owner_","type":"address"}],"stateMutability":"view","type":"function"},{"inputs":[],"name":"pendingOwner","outputs":[{"internalType":"address","name":"owner_","type":"address"}],"stateMutability":"view","type":"function"},{"inputs":[{"internalType":"address","name":"newOwner","type":"address"}],"name":"proposeOwnership","outputs":[],"stateMutability":"nonpayable","type":"function"},{"inputs":[{"internalType":"bytes","name":"params","type":"bytes"}],"name":"transferOperatorship","outputs":[],"stateMutability":"nonpayable","type":"function"},{"inputs":[{"internalType":"address","name":"newOwner","type":"address"}],"name":"transferOwnership","outputs":[],"stateMutability":"nonpayable","type":"function"},{"inputs":[{"internalType":"bytes32","name":"messageHash","type":"bytes32"},{"internalType":"bytes","name":"proof","type":"bytes"}],"name":"validateProof","outputs":[{"internalType":"bool","name":"","type":"bool"}],"stateMutability":"view","type":"function"}],"evm":{"bytecode":{"linkReferences":{},"object":"60806040523480156200001157600080fd5b50604051620016f4380380620016f48339810160408190526200003491620003f9565b3362000040816200008e565b50805160005b8181101562000085576200007c83828151811062000068576200006862000530565b60200260200101516200013260201b60201c565b60010162000046565b50505062000757565b6001600160a01b038116620000b657604051633649397d60e21b815260040160405180910390fd5b6040516001600160a01b038216907f04dba622d284ed0014ee4b9a6a68386be1a4c08a4913ae272de89199cc68616390600090a27f02016836a56b71f0d02689e69e326f4f4c1b9057164ef592671cf0d37c8040c05560007f9855384122b55936fbfb8ca5120e63c6537a1ac40caf6ae33502b3c5da8c87d155565b6000806000838060200190518101906200014d9190620005b7565b825182519396509194509250908115806200017057506200016e85620002da565b155b156200018f57604051630849699d60e11b815260040160405180910390fd5b818114620001b05760405163108cef9d60e31b815260040160405180910390fd5b6000805b82811015620001f257858181518110620001d257620001d262000530565b602002602001015182620001e791906200069e565b9150600101620001b4565b508315806200020057508381105b156200021f5760405163aabd5a0960e01b815260040160405180910390fd5b86516020808901919091206000818152600290925260409091205415620002595760405163adda47f760e01b815260040160405180910390fd5b600080546200026a9060016200069e565b6000818155818152600160209081526040808320869055858352600290915290819020829055519091507f05b53362d4afea7533e835bd99f6c0f2c251e2f08b5c461734829516519dd5ac90620002c7908a908a908a90620006c6565b60405180910390a1505050505050505050565b805160009081838183620002f257620002f262000530565b6020026020010151905060006001600160a01b0316816001600160a01b03160362000321575060009392505050565b60015b828110156200037f57600085828151811062000344576200034462000530565b60200260200101519050806001600160a01b0316836001600160a01b031610620003745750600095945050505050565b915060010162000324565b506001949350505050565b634e487b7160e01b600052604160045260246000fd5b604051601f8201601f191681016001600160401b0381118282101715620003cb57620003cb6200038a565b604052919050565b60006001600160401b03821115620003ef57620003ef6200038a565b5060051b60200190565b600060208083850312156200040d57600080fd5b82516001600160401b03808211156200042557600080fd5b8185019150601f86601f8401126200043c57600080fd5b8251620004536200044d82620003d3565b620003a0565b81815260059190911b840185019085810190898311156200047357600080fd5b8686015b838110156200052257805186811115620004915760008081fd5b8701603f81018c13620004a45760008081fd5b8881015187811115620004bb57620004bb6200038a565b620004ce818801601f19168b01620003a0565b81815260408e81848601011115620004e65760008081fd5b60005b8381101562000506578481018201518382018e01528c01620004e9565b505060009181018b019190915284525091870191870162000477565b509998505050505050505050565b634e487b7160e01b600052603260045260246000fd5b600082601f8301126200055857600080fd5b815160206200056b6200044d83620003d3565b8083825260208201915060208460051b8701019350868411156200058e57600080fd5b602086015b84811015620005ac578051835291830191830162000593565b509695505050505050565b600080600060608486031215620005cd57600080fd5b83516001600160401b0380821115620005e557600080fd5b818601915086601f830112620005fa57600080fd5b815160206200060d6200044d83620003d3565b82815260059290921b8401810191818101908a8411156200062d57600080fd5b948201945b83861015620006645785516001600160a01b0381168114620006545760008081fd5b8252948201949082019062000632565b918901519197509093505050808211156200067e57600080fd5b506200068d8682870162000546565b925050604084015190509250925092565b80820180821115620006c057634e487b7160e01b600052601160045260246000fd5b92915050565b606080825284519082018190526000906020906080840190828801845b828110156200070a5781516001600160a01b031684529284019290840190600101620006e3565b5050508381038285015285518082528683019183019060005b81811015620007415783518352928401929184019160010162000723565b5050809350505050826040830152949350505050565b610f8d80620007676000396000f3fe608060405234801561001057600080fd5b506004361061009e5760003560e01c8063ba6742e511610066578063ba6742e514610128578063d289d1cb14610148578063e30c39781461015b578063f1501c8914610170578063f2fde38b1461019057600080fd5b8063710bf322146100a357806373e3d66a146100b857806376671808146100e057806379ba5097146100f75780638da5cb5b146100ff575b600080fd5b6100b66100b1366004610929565b6101a3565b005b6100cb6100c6366004610996565b61024e565b60405190151581526020015b60405180910390f35b6100e960005481565b6040519081526020016100d7565b6100b66102fa565b600080516020610f18833981519152545b6040516001600160a01b0390911681526020016100d7565b6100e96101363660046109e2565b60016020526000908152604090205481565b6100b66101563660046109fb565b610349565b600080516020610f3883398151915254610110565b6100e961017e3660046109e2565b60026020526000908152604090205481565b6100b661019e366004610929565b6103ca565b336101ba600080516020610f188339815191525490565b6001600160a01b0316146101e1576040516330cd747160e01b815260040160405180910390fd5b6001600160a01b03811661020857604051633649397d60e21b815260040160405180910390fd5b6040516001600160a01b038216907fd9be0e8e07417e00f2521db636cb53e316fd288f5051f16d2aa2bf0c3938a87690600090a2600080516020610f3883398151915255565b60008080808061026086880188610bfc565b9350935093509350600084848460405160200161027f93929190610cec565b60408051601f198184030181529181528151602092830120600081815260029093529082205491549092508115806102c1575060106102be8383610d8f565b10155b156102df57604051630849699d60e11b815260040160405180910390fd5b6102ec8b88888888610408565b149998505050505050505050565b6000610312600080516020610f388339815191525490565b90506001600160a01b038116331461033d576040516349e27cff60e01b815260040160405180910390fd5b6103468161051e565b50565b33610360600080516020610f188339815191525490565b6001600160a01b031614610387576040516330cd747160e01b815260040160405180910390fd5b6103c682828080601f01602080910402602001604051908101604052809392919081815260200183838082843760009201919091525061059d92505050565b5050565b336103e1600080516020610f188339815191525490565b6001600160a01b03161461033d576040516330cd747160e01b815260040160405180910390fd5b83518151600080805b838110156104fd57600061043e8b88848151811061043157610431610da8565b6020026020010151610730565b90505b858410801561047b575089848151811061045d5761045d610da8565b60200260200101516001600160a01b0316816001600160a01b031614155b156104905761048984610dbe565b9350610441565b8584036104b05760405163c6fb539360e01b815260040160405180910390fd5b8884815181106104c2576104c2610da8565b6020026020010151836104d59190610dd7565b92508783106104e957505050505050610517565b6104f284610dbe565b935050600101610411565b50604051630407644b60e31b815260040160405180910390fd5b5050505050565b6001600160a01b03811661054557604051633649397d60e21b815260040160405180910390fd5b6040516001600160a01b038216907f04dba622d284ed0014ee4b9a6a68386be1a4c08a4913ae272de89199cc68616390600090a2600080516020610f18833981519152556000600080516020610f3883398151915255565b6000806000838060200190518101906105b69190610e49565b825182519396509194509250908115806105d657506105d48561086e565b155b156105f457604051630849699d60e11b815260040160405180910390fd5b8181146106145760405163108cef9d60e31b815260040160405180910390fd5b6000805b8281101561064f5785818151811061063257610632610da8565b6020026020010151826106459190610dd7565b9150600101610618565b5083158061065c57508381105b1561067a5760405163aabd5a0960e01b815260040160405180910390fd5b865160208089019190912060008181526002909252604090912054156106b35760405163adda47f760e01b815260040160405180910390fd5b600080546106c2906001610dd7565b6000818155818152600160209081526040808320869055858352600290915290819020829055519091507f05b53362d4afea7533e835bd99f6c0f2c251e2f08b5c461734829516519dd5ac9061071d908a908a908a90610cec565b60405180910390a1505050505050505050565b6000815160411461075457604051634be6321b60e01b815260040160405180910390fd5b60208201516040830151606084015160001a7f7fffffffffffffffffffffffffffffff5d576e7357a4501ddfe92f46681b20a08211156107a7576040516308183ce960e31b815260040160405180910390fd5b8060ff16601b141580156107bf57508060ff16601c14155b156107dd5760405163119bce3960e01b815260040160405180910390fd5b6040805160008082526020820180845289905260ff841692820192909252606081018590526080810184905260019060a0016020604051602081039080840390855afa158015610831573d6000803e3d6000fd5b505050602060405103519450846001600160a01b03160361086557604051638baa579f60e01b815260040160405180910390fd5b50505092915050565b80516000908183818361088357610883610da8565b6020026020010151905060006001600160a01b0316816001600160a01b0316036108b1575060009392505050565b60015b828110156109095760008582815181106108d0576108d0610da8565b60200260200101519050806001600160a01b0316836001600160a01b0316106108ff5750600095945050505050565b91506001016108b4565b506001949350505050565b6001600160a01b038116811461034657600080fd5b60006020828403121561093b57600080fd5b813561094681610914565b9392505050565b60008083601f84011261095f57600080fd5b50813567ffffffffffffffff81111561097757600080fd5b60208301915083602082850101111561098f57600080fd5b9250929050565b6000806000604084860312156109ab57600080fd5b83359250602084013567ffffffffffffffff8111156109c957600080fd5b6109d58682870161094d565b9497909650939450505050565b6000602082840312156109f457600080fd5b5035919050565b60008060208385031215610a0e57600080fd5b823567ffffffffffffffff811115610a2557600080fd5b610a318582860161094d565b90969095509350505050565b634e487b7160e01b600052604160045260246000fd5b604051601f8201601f1916810167ffffffffffffffff81118282101715610a7c57610a7c610a3d565b604052919050565b600067ffffffffffffffff821115610a9e57610a9e610a3d565b5060051b60200190565b600082601f830112610ab957600080fd5b81356020610ace610ac983610a84565b610a53565b8083825260208201915060208460051b870101935086841115610af057600080fd5b602086015b84811015610b0c5780358352918301918301610af5565b509695505050505050565b6000601f83601f840112610b2a57600080fd5b82356020610b3a610ac983610a84565b82815260059290921b85018101918181019087841115610b5957600080fd5b8287015b84811015610bf057803567ffffffffffffffff80821115610b7e5760008081fd5b818a0191508a603f830112610b935760008081fd5b85820135604082821115610ba957610ba9610a3d565b610bba828b01601f19168901610a53565b92508183528c81838601011115610bd15760008081fd5b8181850189850137506000908201870152845250918301918301610b5d565b50979650505050505050565b60008060008060808587031215610c1257600080fd5b843567ffffffffffffffff80821115610c2a57600080fd5b818701915087601f830112610c3e57600080fd5b81356020610c4e610ac983610a84565b82815260059290921b8401810191818101908b841115610c6d57600080fd5b948201945b83861015610c94578535610c8581610914565b82529482019490820190610c72565b98505088013592505080821115610caa57600080fd5b610cb688838901610aa8565b9450604087013593506060870135915080821115610cd357600080fd5b50610ce087828801610b17565b91505092959194509250565b606080825284519082018190526000906020906080840190828801845b82811015610d2e5781516001600160a01b031684529284019290840190600101610d09565b5050508381038285015285518082528683019183019060005b81811015610d6357835183529284019291840191600101610d47565b5050809350505050826040830152949350505050565b634e487b7160e01b600052601160045260246000fd5b81810381811115610da257610da2610d79565b92915050565b634e487b7160e01b600052603260045260246000fd5b600060018201610dd057610dd0610d79565b5060010190565b80820180821115610da257610da2610d79565b600082601f830112610dfb57600080fd5b81516020610e0b610ac983610a84565b8083825260208201915060208460051b870101935086841115610e2d57600080fd5b602086015b84811015610b0c5780518352918301918301610e32565b600080600060608486031215610e5e57600080fd5b835167ffffffffffffffff80821115610e7657600080fd5b818601915086601f830112610e8a57600080fd5b81516020610e9a610ac983610a84565b82815260059290921b8401810191818101908a841115610eb957600080fd5b948201945b83861015610ee0578551610ed181610914565b82529482019490820190610ebe565b91890151919750909350505080821115610ef957600080fd5b50610f0686828701610dea565b92505060408401519050925092509256fe02016836a56b71f0d02689e69e326f4f4c1b9057164ef592671cf0d37c8040c09855384122b55936fbfb8ca5120e63c6537a1ac40caf6ae33502b3c5da8c87d1a2646970667358221220c0418563a5e5aa8e19a6257464d75aa3ed5db59583354db13b08b21c3b8dbd5364736f6c63430008180033","opcodes":"PUSH1 0x80 PUSH1 0x40 MSTORE CALLVALUE DUP1 ISZERO PUSH3 0x11 JUMPI PUSH1 0x0 DUP1 REVERT JUMPDEST POP PUSH1 0x40 MLOAD PUSH3 0x16F4 CODESIZE SUB DUP1 PUSH3 0x16F4 DUP4 CODECOPY DUP2 ADD PUSH1 0x40 DUP2 SWAP1 MSTORE PUSH3 0x34 SWAP2 PUSH3 0x3F9 JUMP JUMPDEST CALLER PUSH3 0x40 DUP2 PUSH3 0x8E JUMP JUMPDEST POP DUP1 MLOAD PUSH1 0x0 JUMPDEST DUP2 DUP2 LT ISZERO PUSH3 0x85 JUMPI PUSH3 0x7C DUP4 DUP3 DUP2 MLOAD DUP2 LT PUSH3 0x68 JUMPI PUSH3 0x68 PUSH3 0x530 JUMP JUMPDEST PUSH1 0x20 MUL PUSH1 0x20 ADD ADD MLOAD PUSH3 0x132 PUSH1 0x20 SHL PUSH1 0x20 SHR JUMP JUMPDEST PUSH1 0x1 ADD PUSH3 0x46 JUMP JUMPDEST POP POP POP PUSH3 0x757 JUMP JUMPDEST PUSH1 0x1 PUSH1 0x1 PUSH1 0xA0 SHL SUB DUP2 AND PUSH3 0xB6 JUMPI PUSH1 0x40 MLOAD PUSH4 0x3649397D PUSH1 0xE2 SHL DUP2 MSTORE PUSH1 0x4 ADD PUSH1 0x40 MLOAD DUP1 SWAP2 SUB SWAP1 REVERT JUMPDEST PUSH1 0x40 MLOAD PUSH1 0x1 PUSH1 0x1 PUSH1 0xA0 SHL SUB DUP3 AND SWAP1 PUSH32 0x4DBA622D284ED0014EE4B9A6A68386BE1A4C08A4913AE272DE89199CC686163 SWAP1 PUSH1 0x0 SWAP1 LOG2 PUSH32 0x2016836A56B71F0D02689E69E326F4F4C1B9057164EF592671CF0D37C8040C0 SSTORE PUSH1 0x0 PUSH32 0x9855384122B55936FBFB8CA5120E63C6537A1AC40CAF6AE33502B3C5DA8C87D1 SSTORE JUMP JUMPDEST PUSH1 0x0 DUP1 PUSH1 0x0 DUP4 DUP1 PUSH1 0x20 ADD SWAP1 MLOAD DUP2 ADD SWAP1 PUSH3 0x14D SWAP2 SWAP1 PUSH3 0x5B7 JUMP JUMPDEST DUP3 MLOAD DUP3 MLOAD SWAP4 SWAP7 POP SWAP2 SWAP5 POP SWAP3 POP SWAP1 DUP2 ISZERO DUP1 PUSH3 0x170 JUMPI POP PUSH3 0x16E DUP6 PUSH3 0x2DA JUMP JUMPDEST ISZERO JUMPDEST ISZERO PUSH3 0x18F JUMPI PUSH1 0x40 MLOAD PUSH4 0x849699D PUSH1 0xE1 SHL DUP2 MSTORE PUSH1 0x4 ADD PUSH1 0x40 MLOAD DUP1 SWAP2 SUB SWAP1 REVERT JUMPDEST DUP2 DUP2 EQ PUSH3 0x1B0 JUMPI PUSH1 0x40 MLOAD PUSH4 0x108CEF9D PUSH1 0xE3 SHL DUP2 MSTORE PUSH1 0x4 ADD PUSH1 0x40 MLOAD DUP1 SWAP2 SUB SWAP1 REVERT JUMPDEST PUSH1 0x0 DUP1 JUMPDEST DUP3 DUP2 LT ISZERO PUSH3 0x1F2 JUMPI DUP6 DUP2 DUP2 MLOAD DUP2 LT PUSH3 0x1D2 JUMPI PUSH3 0x1D2 PUSH3 0x530 JUMP JUMPDEST PUSH1 0x20 MUL PUSH1 0x20 ADD ADD MLOAD DUP3 PUSH3 0x1E7 SWAP2 SWAP1 PUSH3 0x69E JUMP JUMPDEST SWAP2 POP PUSH1 0x1 ADD PUSH3 0x1B4 JUMP JUMPDEST POP DUP4 ISZERO DUP1 PUSH3 0x200 JUMPI POP DUP4 DUP2 LT JUMPDEST ISZERO PUSH3 0x21F JUMPI PUSH1 0x40 MLOAD PUSH4 0xAABD5A09 PUSH1 0xE0 SHL DUP2 MSTORE PUSH1 0x4 ADD PUSH1 0x40 MLOAD DUP1 SWAP2 SUB SWAP1 REVERT JUMPDEST DUP7 MLOAD PUSH1 0x20 DUP1 DUP10 ADD SWAP2 SWAP1 SWAP2 KECCAK256 PUSH1 0x0 DUP2 DUP2 MSTORE PUSH1 0x2 SWAP1 SWAP3 MSTORE PUSH1 0x40 SWAP1 SWAP2 KECCAK256 SLOAD ISZERO PUSH3 0x259 JUMPI PUSH1 0x40 MLOAD PUSH4 0xADDA47F7 PUSH1 0xE0 SHL DUP2 MSTORE PUSH1 0x4 ADD PUSH1 0x40 MLOAD DUP1 SWAP2 SUB SWAP1 REVERT JUMPDEST PUSH1 0x0 DUP1 SLOAD PUSH3 0x26A SWAP1 PUSH1 0x1 PUSH3 0x69E JUMP JUMPDEST PUSH1 0x0 DUP2 DUP2 SSTORE DUP2 DUP2 MSTORE PUSH1 0x1 PUSH1 0x20 SWAP1 DUP2 MSTORE PUSH1 0x40 DUP1 DUP4 KECCAK256 DUP7 SWAP1 SSTORE DUP6 DUP4 MSTORE PUSH1 0x2 SWAP1 SWAP2 MSTORE SWAP1 DUP2 SWAP1 KECCAK256 DUP3 SWAP1 SSTORE MLOAD SWAP1 SWAP2 POP PUSH32 0x5B53362D4AFEA7533E835BD99F6C0F2C251E2F08B5C461734829516519DD5AC SWAP1 PUSH3 0x2C7 SWAP1 DUP11 SWAP1 DUP11 SWAP1 DUP11 SWAP1 PUSH3 0x6C6 JUMP JUMPDEST PUSH1 0x40 MLOAD DUP1 SWAP2 SUB SWAP1 LOG1 POP POP POP POP POP POP POP POP POP JUMP JUMPDEST DUP1 MLOAD PUSH1 0x0 SWAP1 DUP2 DUP4 DUP2 DUP4 PUSH3 0x2F2 JUMPI PUSH3 0x2F2 PUSH3 0x530 JUMP JUMPDEST PUSH1 0x20 MUL PUSH1 0x20 ADD ADD MLOAD SWAP1 POP PUSH1 0x0 PUSH1 0x1 PUSH1 0x1 PUSH1 0xA0 SHL SUB AND DUP2 PUSH1 0x1 PUSH1 0x1 PUSH1 0xA0 SHL SUB AND SUB PUSH3 0x321 JUMPI POP PUSH1 0x0 SWAP4 SWAP3 POP POP POP JUMP JUMPDEST PUSH1 0x1 JUMPDEST DUP3 DUP2 LT ISZERO PUSH3 0x37F JUMPI PUSH1 0x0 DUP6 DUP3 DUP2 MLOAD DUP2 LT PUSH3 0x344 JUMPI PUSH3 0x344 PUSH3 0x530 JUMP JUMPDEST PUSH1 0x20 MUL PUSH1 0x20 ADD ADD MLOAD SWAP1 POP DUP1 PUSH1 0x1 PUSH1 0x1 PUSH1 0xA0 SHL SUB AND DUP4 PUSH1 0x1 PUSH1 0x1 PUSH1 0xA0 SHL SUB AND LT PUSH3 0x374 JUMPI POP PUSH1 0x0 SWAP6 SWAP5 POP POP POP POP POP JUMP JUMPDEST SWAP2 POP PUSH1 0x1 ADD PUSH3 0x324 JUMP JUMPDEST POP PUSH1 0x1 SWAP5 SWAP4 POP POP POP POP JUMP JUMPDEST PUSH4 0x4E487B71 PUSH1 0xE0 SHL PUSH1 0x0 MSTORE PUSH1 0x41 PUSH1 0x4 MSTORE PUSH1 0x24 PUSH1 0x0 REVERT JUMPDEST PUSH1 0x40 MLOAD PUSH1 0x1F DUP3 ADD PUSH1 0x1F NOT AND DUP2 ADD PUSH1 0x1 PUSH1 0x1 PUSH1 0x40 SHL SUB DUP2 GT DUP3 DUP3 LT OR ISZERO PUSH3 0x3CB JUMPI PUSH3 0x3CB PUSH3 0x38A JUMP JUMPDEST PUSH1 0x40 MSTORE SWAP2 SWAP1 POP JUMP JUMPDEST PUSH1 0x0 PUSH1 0x1 PUSH1 0x1 PUSH1 0x40 SHL SUB DUP3 GT ISZERO PUSH3 0x3EF JUMPI PUSH3 0x3EF PUSH3 0x38A JUMP JUMPDEST POP PUSH1 0x5 SHL PUSH1 0x20 ADD SWAP1 JUMP JUMPDEST PUSH1 0x0 PUSH1 0x20 DUP1 DUP4 DUP6 SUB SLT ISZERO PUSH3 0x40D JUMPI PUSH1 0x0 DUP1 REVERT JUMPDEST DUP3 MLOAD PUSH1 0x1 PUSH1 0x1 PUSH1 0x40 SHL SUB DUP1 DUP3 GT ISZERO PUSH3 0x425 JUMPI PUSH1 0x0 DUP1 REVERT JUMPDEST DUP2 DUP6 ADD SWAP2 POP PUSH1 0x1F DUP7 PUSH1 0x1F DUP5 ADD SLT PUSH3 0x43C JUMPI PUSH1 0x0 DUP1 REVERT JUMPDEST DUP3 MLOAD PUSH3 0x453 PUSH3 0x44D DUP3 PUSH3 0x3D3 JUMP JUMPDEST PUSH3 0x3A0 JUMP JUMPDEST DUP2 DUP2 MSTORE PUSH1 0x5 SWAP2 SWAP1 SWAP2 SHL DUP5 ADD DUP6 ADD SWAP1 DUP6 DUP2 ADD SWAP1 DUP10 DUP4 GT ISZERO PUSH3 0x473 JUMPI PUSH1 0x0 DUP1 REVERT JUMPDEST DUP7 DUP7 ADD JUMPDEST DUP4 DUP2 LT ISZERO PUSH3 0x522 JUMPI DUP1 MLOAD DUP7 DUP2 GT ISZERO PUSH3 0x491 JUMPI PUSH1 0x0 DUP1 DUP2 REVERT JUMPDEST DUP8 ADD PUSH1 0x3F DUP2 ADD DUP13 SGT PUSH3 0x4A4 JUMPI PUSH1 0x0 DUP1 DUP2 REVERT JUMPDEST DUP9 DUP2 ADD MLOAD DUP8 DUP2 GT ISZERO PUSH3 0x4BB JUMPI PUSH3 0x4BB PUSH3 0x38A JUMP JUMPDEST PUSH3 0x4CE DUP2 DUP9 ADD PUSH1 0x1F NOT AND DUP12 ADD PUSH3 0x3A0 JUMP JUMPDEST DUP2 DUP2 MSTORE PUSH1 0x40 DUP15 DUP2 DUP5 DUP7 ADD ADD GT ISZERO PUSH3 0x4E6 JUMPI PUSH1 0x0 DUP1 DUP2 REVERT JUMPDEST PUSH1 0x0 JUMPDEST DUP4 DUP2 LT ISZERO PUSH3 0x506 JUMPI DUP5 DUP2 ADD DUP3 ADD MLOAD DUP4 DUP3 ADD DUP15 ADD MSTORE DUP13 ADD PUSH3 0x4E9 JUMP JUMPDEST POP POP PUSH1 0x0 SWAP2 DUP2 ADD DUP12 ADD SWAP2 SWAP1 SWAP2 MSTORE DUP5 MSTORE POP SWAP2 DUP8 ADD SWAP2 DUP8 ADD PUSH3 0x477 JUMP JUMPDEST POP SWAP10 SWAP9 POP POP POP POP POP POP POP POP POP JUMP JUMPDEST PUSH4 0x4E487B71 PUSH1 0xE0 SHL PUSH1 0x0 MSTORE PUSH1 0x32 PUSH1 0x4 MSTORE PUSH1 0x24 PUSH1 0x0 REVERT JUMPDEST PUSH1 0x0 DUP3 PUSH1 0x1F DUP4 ADD SLT PUSH3 0x558 JUMPI PUSH1 0x0 DUP1 REVERT JUMPDEST DUP2 MLOAD PUSH1 0x20 PUSH3 0x56B PUSH3 0x44D DUP4 PUSH3 0x3D3 JUMP JUMPDEST DUP1 DUP4 DUP3 MSTORE PUSH1 0x20 DUP3 ADD SWAP2 POP PUSH1 0x20 DUP5 PUSH1 0x5 SHL DUP8 ADD ADD SWAP4 POP DUP7 DUP5 GT ISZERO PUSH3 0x58E JUMPI PUSH1 0x0 DUP1 REVERT JUMPDEST PUSH1 0x20 DUP7 ADD JUMPDEST DUP5 DUP2 LT ISZERO PUSH3 0x5AC JUMPI DUP1 MLOAD DUP4 MSTORE SWAP2 DUP4 ADD SWAP2 DUP4 ADD PUSH3 0x593 JUMP JUMPDEST POP SWAP7 SWAP6 POP POP POP POP POP POP JUMP JUMPDEST PUSH1 0x0 DUP1 PUSH1 0x0 PUSH1 0x60 DUP5 DUP7 SUB SLT ISZERO PUSH3 0x5CD JUMPI PUSH1 0x0 DUP1 REVERT JUMPDEST DUP4 MLOAD PUSH1 0x1 PUSH1 0x1 PUSH1 0x40 SHL SUB DUP1 DUP3 GT ISZERO PUSH3 0x5E5 JUMPI PUSH1 0x0 DUP1 REVERT JUMPDEST DUP2 DUP7 ADD SWAP2 POP DUP7 PUSH1 0x1F DUP4 ADD SLT PUSH3 0x5FA JUMPI PUSH1 0x0 DUP1 REVERT JUMPDEST DUP2 MLOAD PUSH1 0x20 PUSH3 0x60D PUSH3 0x44D DUP4 PUSH3 0x3D3 JUMP JUMPDEST DUP3 DUP2 MSTORE PUSH1 0x5 SWAP3 SWAP1 SWAP3 SHL DUP5 ADD DUP2 ADD SWAP2 DUP2 DUP2 ADD SWAP1 DUP11 DUP5 GT ISZERO PUSH3 0x62D JUMPI PUSH1 0x0 DUP1 REVERT JUMPDEST SWAP5 DUP3 ADD SWAP5 JUMPDEST DUP4 DUP7 LT ISZERO PUSH3 0x664 JUMPI DUP6 MLOAD PUSH1 0x1 PUSH1 0x1 PUSH1 0xA0 SHL SUB DUP2 AND DUP2 EQ PUSH3 0x654 JUMPI PUSH1 0x0 DUP1 DUP2 REVERT JUMPDEST DUP3 MSTORE SWAP5 DUP3 ADD SWAP5 SWAP1 DUP3 ADD SWAP1 PUSH3 0x632 JUMP JUMPDEST SWAP2 DUP10 ADD MLOAD SWAP2 SWAP8 POP SWAP1 SWAP4 POP POP POP DUP1 DUP3 GT ISZERO PUSH3 0x67E JUMPI PUSH1 0x0 DUP1 REVERT JUMPDEST POP PUSH3 0x68D DUP7 DUP3 DUP8 ADD PUSH3 0x546 JUMP JUMPDEST SWAP3 POP POP PUSH1 0x40 DUP5 ADD MLOAD SWAP1 POP SWAP3 POP SWAP3 POP SWAP3 JUMP JUMPDEST DUP1 DUP3 ADD DUP1 DUP3 GT ISZERO PUSH3 0x6C0 JUMPI PUSH4 0x4E487B71 PUSH1 0xE0 SHL PUSH1 0x0 MSTORE PUSH1 0x11 PUSH1 0x4 MSTORE PUSH1 0x24 PUSH1 0x0 REVERT JUMPDEST SWAP3 SWAP2 POP POP JUMP JUMPDEST PUSH1 0x60 DUP1 DUP3 MSTORE DUP5 MLOAD SWAP1 DUP3 ADD DUP2 SWAP1 MSTORE PUSH1 0x0 SWAP1 PUSH1 0x20 SWAP1 PUSH1 0x80 DUP5 ADD SWAP1 DUP3 DUP9 ADD DUP5 JUMPDEST DUP3 DUP2 LT ISZERO PUSH3 0x70A JUMPI DUP2 MLOAD PUSH1 0x1 PUSH1 0x1 PUSH1 0xA0 SHL SUB AND DUP5 MSTORE SWAP3 DUP5 ADD SWAP3 SWAP1 DUP5 ADD SWAP1 PUSH1 0x1 ADD PUSH3 0x6E3 JUMP JUMPDEST POP POP POP DUP4 DUP2 SUB DUP3 DUP6 ADD MSTORE DUP6 MLOAD DUP1 DUP3 MSTORE DUP7 DUP4 ADD SWAP2 DUP4 ADD SWAP1 PUSH1 0x0 JUMPDEST DUP2 DUP2 LT ISZERO PUSH3 0x741 JUMPI DUP4 MLOAD DUP4 MSTORE SWAP3 DUP5 ADD SWAP3 SWAP2 DUP5 ADD SWAP2 PUSH1 0x1 ADD PUSH3 0x723 JUMP JUMPDEST POP POP DUP1 SWAP4 POP POP POP POP DUP3 PUSH1 0x40 DUP4 ADD MSTORE SWAP5 SWAP4 POP POP POP POP JUMP JUMPDEST PUSH2 0xF8D DUP1 PUSH3 0x767 PUSH1 0x0 CODECOPY PUSH1 0x0 RETURN INVALID PUSH1 0x80 PUSH1 0x40 MSTORE CALLVALUE DUP1 ISZERO PUSH2 0x10 JUMPI PUSH1 0x0 DUP1 REVERT JUMPDEST POP PUSH1 0x4 CALLDATASIZE LT PUSH2 0x9E JUMPI PUSH1 0x0 CALLDATALOAD PUSH1 0xE0 SHR DUP1 PUSH4 0xBA6742E5 GT PUSH2 0x66 JUMPI DUP1 PUSH4 0xBA6742E5 EQ PUSH2 0x128 JUMPI DUP1 PUSH4 0xD289D1CB EQ PUSH2 0x148 JUMPI DUP1 PUSH4 0xE30C3978 EQ PUSH2 0x15B JUMPI DUP1 PUSH4 0xF1501C89 EQ PUSH2 0x170 JUMPI DUP1 PUSH4 0xF2FDE38B EQ PUSH2 0x190 JUMPI PUSH1 0x0 DUP1 REVERT JUMPDEST DUP1 PUSH4 0x710BF322 EQ PUSH2 0xA3 JUMPI DUP1 PUSH4 0x73E3D66A EQ PUSH2 0xB8 JUMPI DUP1 PUSH4 0x76671808 EQ PUSH2 0xE0 JUMPI DUP1 PUSH4 0x79BA5097 EQ PUSH2 0xF7 JUMPI DUP1 PUSH4 0x8DA5CB5B EQ PUSH2 0xFF JUMPI JUMPDEST PUSH1 0x0 DUP1 REVERT JUMPDEST PUSH2 0xB6 PUSH2 0xB1 CALLDATASIZE PUSH1 0x4 PUSH2 0x929 JUMP JUMPDEST PUSH2 0x1A3 JUMP JUMPDEST STOP JUMPDEST PUSH2 0xCB PUSH2 0xC6 CALLDATASIZE PUSH1 0x4 PUSH2 0x996 JUMP JUMPDEST PUSH2 0x24E JUMP JUMPDEST PUSH1 0x40 MLOAD SWAP1 ISZERO ISZERO DUP2 MSTORE PUSH1 0x20 ADD JUMPDEST PUSH1 0x40 MLOAD DUP1 SWAP2 SUB SWAP1 RETURN JUMPDEST PUSH2 0xE9 PUSH1 0x0 SLOAD DUP2 JUMP JUMPDEST PUSH1 0x40 MLOAD SWAP1 DUP2 MSTORE PUSH1 0x20 ADD PUSH2 0xD7 JUMP JUMPDEST PUSH2 0xB6 PUSH2 0x2FA JUMP JUMPDEST PUSH1 0x0 DUP1 MLOAD PUSH1 0x20 PUSH2 0xF18 DUP4 CODECOPY DUP2 MLOAD SWAP2 MSTORE SLOAD JUMPDEST PUSH1 0x40 MLOAD PUSH1 0x1 PUSH1 0x1 PUSH1 0xA0 SHL SUB SWAP1 SWAP2 AND DUP2 MSTORE PUSH1 0x20 ADD PUSH2 0xD7 JUMP JUMPDEST PUSH2 0xE9 PUSH2 0x136 CALLDATASIZE PUSH1 0x4 PUSH2 0x9E2 JUMP JUMPDEST PUSH1 0x1 PUSH1 0x20 MSTORE PUSH1 0x0 SWAP1 DUP2 MSTORE PUSH1 0x40 SWAP1 KECCAK256 SLOAD DUP2 JUMP JUMPDEST PUSH2 0xB6 PUSH2 0x156 CALLDATASIZE PUSH1 0x4 PUSH2 0x9FB JUMP JUMPDEST PUSH2 0x349 JUMP JUMPDEST PUSH1 0x0 DUP1 MLOAD PUSH1 0x20 PUSH2 0xF38 DUP4 CODECOPY DUP2 MLOAD SWAP2 MSTORE SLOAD PUSH2 0x110 JUMP JUMPDEST PUSH2 0xE9 PUSH2 0x17E CALLDATASIZE PUSH1 0x4 PUSH2 0x9E2 JUMP JUMPDEST PUSH1 0x2 PUSH1 0x20 MSTORE PUSH1 0x0 SWAP1 DUP2 MSTORE PUSH1 0x40 SWAP1 KECCAK256 SLOAD DUP2 JUMP JUMPDEST PUSH2 0xB6 PUSH2 0x19E CALLDATASIZE PUSH1 0x4 PUSH2 0x929 JUMP JUMPDEST PUSH2 0x3CA JUMP JUMPDEST CALLER PUSH2 0x1BA PUSH1 0x0 DUP1 MLOAD PUSH1 0x20 PUSH2 0xF18 DUP4 CODECOPY DUP2 MLOAD SWAP2 MSTORE SLOAD SWAP1 JUMP JUMPDEST PUSH1 0x1 PUSH1 0x1 PUSH1 0xA0 SHL SUB AND EQ PUSH2 0x1E1 JUMPI PUSH1 0x40 MLOAD PUSH4 0x30CD7471 PUSH1 0xE0 SHL DUP2 MSTORE PUSH1 0x4 ADD PUSH1 0x40 MLOAD DUP1 SWAP2 SUB SWAP1 REVERT JUMPDEST PUSH1 0x1 PUSH1 0x1 PUSH1 0xA0 SHL SUB DUP2 AND PUSH2 0x208 JUMPI PUSH1 0x40 MLOAD PUSH4 0x3649397D PUSH1 0xE2 SHL DUP2 MSTORE PUSH1 0x4 ADD PUSH1 0x40 MLOAD DUP1 SWAP2 SUB SWAP1 REVERT JUMPDEST PUSH1 0x40 MLOAD PUSH1 0x1 PUSH1 0x1 PUSH1 0xA0 SHL SUB DUP3 AND SWAP1 PUSH32 0xD9BE0E8E07417E00F2521DB636CB53E316FD288F5051F16D2AA2BF0C3938A876 SWAP1 PUSH1 0x0 SWAP1 LOG2 PUSH1 0x0 DUP1 MLOAD PUSH1 0x20 PUSH2 0xF38 DUP4 CODECOPY DUP2 MLOAD SWAP2 MSTORE SSTORE JUMP JUMPDEST PUSH1 0x0 DUP1 DUP1 DUP1 DUP1 PUSH2 0x260 DUP7 DUP9 ADD DUP9 PUSH2 0xBFC JUMP JUMPDEST SWAP4 POP SWAP4 POP SWAP4 POP SWAP4 POP PUSH1 0x0 DUP5 DUP5 DUP5 PUSH1 0x40 MLOAD PUSH1 0x20 ADD PUSH2 0x27F SWAP4 SWAP3 SWAP2 SWAP1 PUSH2 0xCEC JUMP JUMPDEST PUSH1 0x40 DUP1 MLOAD PUSH1 0x1F NOT DUP2 DUP5 SUB ADD DUP2 MSTORE SWAP2 DUP2 MSTORE DUP2 MLOAD PUSH1 0x20 SWAP3 DUP4 ADD KECCAK256 PUSH1 0x0 DUP2 DUP2 MSTORE PUSH1 0x2 SWAP1 SWAP4 MSTORE SWAP1 DUP3 KECCAK256 SLOAD SWAP2 SLOAD SWAP1 SWAP3 POP DUP2 ISZERO DUP1 PUSH2 0x2C1 JUMPI POP PUSH1 0x10 PUSH2 0x2BE DUP4 DUP4 PUSH2 0xD8F JUMP JUMPDEST LT ISZERO JUMPDEST ISZERO PUSH2 0x2DF JUMPI PUSH1 0x40 MLOAD PUSH4 0x849699D PUSH1 0xE1 SHL DUP2 MSTORE PUSH1 0x4 ADD PUSH1 0x40 MLOAD DUP1 SWAP2 SUB SWAP1 REVERT JUMPDEST PUSH2 0x2EC DUP12 DUP9 DUP9 DUP9 DUP9 PUSH2 0x408 JUMP JUMPDEST EQ SWAP10 SWAP9 POP POP POP POP POP POP POP POP POP JUMP JUMPDEST PUSH1 0x0 PUSH2 0x312 PUSH1 0x0 DUP1 MLOAD PUSH1 0x20 PUSH2 0xF38 DUP4 CODECOPY DUP2 MLOAD SWAP2 MSTORE SLOAD SWAP1 JUMP JUMPDEST SWAP1 POP PUSH1 0x1 PUSH1 0x1 PUSH1 0xA0 SHL SUB DUP2 AND CALLER EQ PUSH2 0x33D JUMPI PUSH1 0x40 MLOAD PUSH4 0x49E27CFF PUSH1 0xE0 SHL DUP2 MSTORE PUSH1 0x4 ADD PUSH1 0x40 MLOAD DUP1 SWAP2 SUB SWAP1 REVERT JUMPDEST PUSH2 0x346 DUP2 PUSH2 0x51E JUMP JUMPDEST POP JUMP JUMPDEST CALLER PUSH2 0x360 PUSH1 0x0 DUP1 MLOAD PUSH1 0x20 PUSH2 0xF18 DUP4 CODECOPY DUP2 MLOAD SWAP2 MSTORE SLOAD SWAP1 JUMP JUMPDEST PUSH1 0x1 PUSH1 0x1 PUSH1 0xA0 SHL SUB AND EQ PUSH2 0x387 JUMPI PUSH1 0x40 MLOAD PUSH4 0x30CD7471 PUSH1 0xE0 SHL DUP2 MSTORE PUSH1 0x4 ADD PUSH1 0x40 MLOAD DUP1 SWAP2 SUB SWAP1 REVERT JUMPDEST PUSH2 0x3C6 DUP3 DUP3 DUP1 DUP1 PUSH1 0x1F ADD PUSH1 0x20 DUP1 SWAP2 DIV MUL PUSH1 0x20 ADD PUSH1 0x40 MLOAD SWAP1 DUP2 ADD PUSH1 0x40 MSTORE DUP1 SWAP4 SWAP3 SWAP2 SWAP1 DUP2 DUP2 MSTORE PUSH1 0x20 ADD DUP4 DUP4 DUP1 DUP3 DUP5 CALLDATACOPY PUSH1 0x0 SWAP3 ADD SWAP2 SWAP1 SWAP2 MSTORE POP PUSH2 0x59D SWAP3 POP POP POP JUMP JUMPDEST POP POP JUMP JUMPDEST CALLER PUSH2 0x3E1 PUSH1 0x0 DUP1 MLOAD PUSH1 0x20 PUSH2 0xF18 DUP4 CODECOPY DUP2 MLOAD SWAP2 MSTORE SLOAD SWAP1 JUMP JUMPDEST PUSH1 0x1 PUSH1 0x1 PUSH1 0xA0 SHL SUB AND EQ PUSH2 0x33D JUMPI PUSH1 0x40 MLOAD PUSH4 0x30CD7471 PUSH1 0xE0 SHL DUP2 MSTORE PUSH1 0x4 ADD PUSH1 0x40 MLOAD DUP1 SWAP2 SUB SWAP1 REVERT JUMPDEST DUP4 MLOAD DUP2 MLOAD PUSH1 0x0 DUP1 DUP1 JUMPDEST DUP4 DUP2 LT ISZERO PUSH2 0x4FD JUMPI PUSH1 0x0 PUSH2 0x43E DUP12 DUP9 DUP5 DUP2 MLOAD DUP2 LT PUSH2 0x431 JUMPI PUSH2 0x431 PUSH2 0xDA8 JUMP JUMPDEST PUSH1 0x20 MUL PUSH1 0x20 ADD ADD MLOAD PUSH2 0x730 JUMP JUMPDEST SWAP1 POP JUMPDEST DUP6 DUP5 LT DUP1 ISZERO PUSH2 0x47B JUMPI POP DUP10 DUP5 DUP2 MLOAD DUP2 LT PUSH2 0x45D JUMPI PUSH2 0x45D PUSH2 0xDA8 JUMP JUMPDEST PUSH1 0x20 MUL PUSH1 0x20 ADD ADD MLOAD PUSH1 0x1 PUSH1 0x1 PUSH1 0xA0 SHL SUB AND DUP2 PUSH1 0x1 PUSH1 0x1 PUSH1 0xA0 SHL SUB AND EQ ISZERO JUMPDEST ISZERO PUSH2 0x490 JUMPI PUSH2 0x489 DUP5 PUSH2 0xDBE JUMP JUMPDEST SWAP4 POP PUSH2 0x441 JUMP JUMPDEST DUP6 DUP5 SUB PUSH2 0x4B0 JUMPI PUSH1 0x40 MLOAD PUSH4 0xC6FB5393 PUSH1 0xE0 SHL DUP2 MSTORE PUSH1 0x4 ADD PUSH1 0x40 MLOAD DUP1 SWAP2 SUB SWAP1 REVERT JUMPDEST DUP9 DUP5 DUP2 MLOAD DUP2 LT PUSH2 0x4C2 JUMPI PUSH2 0x4C2 PUSH2 0xDA8 JUMP JUMPDEST PUSH1 0x20 MUL PUSH1 0x20 ADD ADD MLOAD DUP4 PUSH2 0x4D5 SWAP2 SWAP1 PUSH2 0xDD7 JUMP JUMPDEST SWAP3 POP DUP8 DUP4 LT PUSH2 0x4E9 JUMPI POP POP POP POP POP POP PUSH2 0x517 JUMP JUMPDEST PUSH2 0x4F2 DUP5 PUSH2 0xDBE JUMP JUMPDEST SWAP4 POP POP PUSH1 0x1 ADD PUSH2 0x411 JUMP JUMPDEST POP PUSH1 0x40 MLOAD PUSH4 0x407644B PUSH1 0xE3 SHL DUP2 MSTORE PUSH1 0x4 ADD PUSH1 0x40 MLOAD DUP1 SWAP2 SUB SWAP1 REVERT JUMPDEST POP POP POP POP POP JUMP JUMPDEST PUSH1 0x1 PUSH1 0x1 PUSH1 0xA0 SHL SUB DUP2 AND PUSH2 0x545 JUMPI PUSH1 0x40 MLOAD PUSH4 0x3649397D PUSH1 0xE2 SHL DUP2 MSTORE PUSH1 0x4 ADD PUSH1 0x40 MLOAD DUP1 SWAP2 SUB SWAP1 REVERT JUMPDEST PUSH1 0x40 MLOAD PUSH1 0x1 PUSH1 0x1 PUSH1 0xA0 SHL SUB DUP3 AND SWAP1 PUSH32 0x4DBA622D284ED0014EE4B9A6A68386BE1A4C08A4913AE272DE89199CC686163 SWAP1 PUSH1 0x0 SWAP1 LOG2 PUSH1 0x0 DUP1 MLOAD PUSH1 0x20 PUSH2 0xF18 DUP4 CODECOPY DUP2 MLOAD SWAP2 MSTORE SSTORE PUSH1 0x0 PUSH1 0x0 DUP1 MLOAD PUSH1 0x20 PUSH2 0xF38 DUP4 CODECOPY DUP2 MLOAD SWAP2 MSTORE SSTORE JUMP JUMPDEST PUSH1 0x0 DUP1 PUSH1 0x0 DUP4 DUP1 PUSH1 0x20 ADD SWAP1 MLOAD DUP2 ADD SWAP1 PUSH2 0x5B6 SWAP2 SWAP1 PUSH2 0xE49 JUMP JUMPDEST DUP3 MLOAD DUP3 MLOAD SWAP4 SWAP7 POP SWAP2 SWAP5 POP SWAP3 POP SWAP1 DUP2 ISZERO DUP1 PUSH2 0x5D6 JUMPI POP PUSH2 0x5D4 DUP6 PUSH2 0x86E JUMP JUMPDEST ISZERO JUMPDEST ISZERO PUSH2 0x5F4 JUMPI PUSH1 0x40 MLOAD PUSH4 0x849699D PUSH1 0xE1 SHL DUP2 MSTORE PUSH1 0x4 ADD PUSH1 0x40 MLOAD DUP1 SWAP2 SUB SWAP1 REVERT JUMPDEST DUP2 DUP2 EQ PUSH2 0x614 JUMPI PUSH1 0x40 MLOAD PUSH4 0x108CEF9D PUSH1 0xE3 SHL DUP2 MSTORE PUSH1 0x4 ADD PUSH1 0x40 MLOAD DUP1 SWAP2 SUB SWAP1 REVERT JUMPDEST PUSH1 0x0 DUP1 JUMPDEST DUP3 DUP2 LT ISZERO PUSH2 0x64F JUMPI DUP6 DUP2 DUP2 MLOAD DUP2 LT PUSH2 0x632 JUMPI PUSH2 0x632 PUSH2 0xDA8 JUMP JUMPDEST PUSH1 0x20 MUL PUSH1 0x20 ADD ADD MLOAD DUP3 PUSH2 0x645 SWAP2 SWAP1 PUSH2 0xDD7 JUMP JUMPDEST SWAP2 POP PUSH1 0x1 ADD PUSH2 0x618 JUMP JUMPDEST POP DUP4 ISZERO DUP1 PUSH2 0x65C JUMPI POP DUP4 DUP2 LT JUMPDEST ISZERO PUSH2 0x67A JUMPI PUSH1 0x40 MLOAD PUSH4 0xAABD5A09 PUSH1 0xE0 SHL DUP2 MSTORE PUSH1 0x4 ADD PUSH1 0x40 MLOAD DUP1 SWAP2 SUB SWAP1 REVERT JUMPDEST DUP7 MLOAD PUSH1 0x20 DUP1 DUP10 ADD SWAP2 SWAP1 SWAP2 KECCAK256 PUSH1 0x0 DUP2 DUP2 MSTORE PUSH1 0x2 SWAP1 SWAP3 MSTORE PUSH1 0x40 SWAP1 SWAP2 KECCAK256 SLOAD ISZERO PUSH2 0x6B3 JUMPI PUSH1 0x40 MLOAD PUSH4 0xADDA47F7 PUSH1 0xE0 SHL DUP2 MSTORE PUSH1 0x4 ADD PUSH1 0x40 MLOAD DUP1 SWAP2 SUB SWAP1 REVERT JUMPDEST PUSH1 0x0 DUP1 SLOAD PUSH2 0x6C2 SWAP1 PUSH1 0x1 PUSH2 0xDD7 JUMP JUMPDEST PUSH1 0x0 DUP2 DUP2 SSTORE DUP2 DUP2 MSTORE PUSH1 0x1 PUSH1 0x20 SWAP1 DUP2 MSTORE PUSH1 0x40 DUP1 DUP4 KECCAK256 DUP7 SWAP1 SSTORE DUP6 DUP4 MSTORE PUSH1 0x2 SWAP1 SWAP2 MSTORE SWAP1 DUP2 SWAP1 KECCAK256 DUP3 SWAP1 SSTORE MLOAD SWAP1 SWAP2 POP PUSH32 0x5B53362D4AFEA7533E835BD99F6C0F2C251E2F08B5C461734829516519DD5AC SWAP1 PUSH2 0x71D SWAP1 DUP11 SWAP1 DUP11 SWAP1 DUP11 SWAP1 PUSH2 0xCEC JUMP JUMPDEST PUSH1 0x40 MLOAD DUP1 SWAP2 SUB SWAP1 LOG1 POP POP POP POP POP POP POP POP POP JUMP JUMPDEST PUSH1 0x0 DUP2 MLOAD PUSH1 0x41 EQ PUSH2 0x754 JUMPI PUSH1 0x40 MLOAD PUSH4 0x4BE6321B PUSH1 0xE0 SHL DUP2 MSTORE PUSH1 0x4 ADD PUSH1 0x40 MLOAD DUP1 SWAP2 SUB SWAP1 REVERT JUMPDEST PUSH1 0x20 DUP3 ADD MLOAD PUSH1 0x40 DUP4 ADD MLOAD PUSH1 0x60 DUP5 ADD MLOAD PUSH1 0x0 BYTE PUSH32 0x7FFFFFFFFFFFFFFFFFFFFFFFFFFFFFFF5D576E7357A4501DDFE92F46681B20A0 DUP3 GT ISZERO PUSH2 0x7A7 JUMPI PUSH1 0x40 MLOAD PUSH4 0x8183CE9 PUSH1 0xE3 SHL DUP2 MSTORE PUSH1 0x4 ADD PUSH1 0x40 MLOAD DUP1 SWAP2 SUB SWAP1 REVERT JUMPDEST DUP1 PUSH1 0xFF AND PUSH1 0x1B EQ ISZERO DUP1 ISZERO PUSH2 0x7BF JUMPI POP DUP1 PUSH1 0xFF AND PUSH1 0x1C EQ ISZERO JUMPDEST ISZERO PUSH2 0x7DD JUMPI PUSH1 0x40 MLOAD PUSH4 0x119BCE39 PUSH1 0xE0 SHL DUP2 MSTORE PUSH1 0x4 ADD PUSH1 0x40 MLOAD DUP1 SWAP2 SUB SWAP1 REVERT JUMPDEST PUSH1 0x40 DUP1 MLOAD PUSH1 0x0 DUP1 DUP3 MSTORE PUSH1 0x20 DUP3 ADD DUP1 DUP5 MSTORE DUP10 SWAP1 MSTORE PUSH1 0xFF DUP5 AND SWAP3 DUP3 ADD SWAP3 SWAP1 SWAP3 MSTORE PUSH1 0x60 DUP2 ADD DUP6 SWAP1 MSTORE PUSH1 0x80 DUP2 ADD DUP5 SWAP1 MSTORE PUSH1 0x1 SWAP1 PUSH1 0xA0 ADD PUSH1 0x20 PUSH1 0x40 MLOAD PUSH1 0x20 DUP2 SUB SWAP1 DUP1 DUP5 SUB SWAP1 DUP6 GAS STATICCALL ISZERO DUP1 ISZERO PUSH2 0x831 JUMPI RETURNDATASIZE PUSH1 0x0 DUP1 RETURNDATACOPY RETURNDATASIZE PUSH1 0x0 REVERT JUMPDEST POP POP POP PUSH1 0x20 PUSH1 0x40 MLOAD SUB MLOAD SWAP5 POP DUP5 PUSH1 0x1 PUSH1 0x1 PUSH1 0xA0 SHL SUB AND SUB PUSH2 0x865 JUMPI PUSH1 0x40 MLOAD PUSH4 0x8BAA579F PUSH1 0xE0 SHL DUP2 MSTORE PUSH1 0x4 ADD PUSH1 0x40 MLOAD DUP1 SWAP2 SUB SWAP1 REVERT JUMPDEST POP POP POP SWAP3 SWAP2 POP POP JUMP JUMPDEST DUP1 MLOAD PUSH1 0x0 SWAP1 DUP2 DUP4 DUP2 DUP4 PUSH2 0x883 JUMPI PUSH2 0x883 PUSH2 0xDA8 JUMP JUMPDEST PUSH1 0x20 MUL PUSH1 0x20 ADD ADD MLOAD SWAP1 POP PUSH1 0x0 PUSH1 0x1 PUSH1 0x1 PUSH1 0xA0 SHL SUB AND DUP2 PUSH1 0x1 PUSH1 0x1 PUSH1 0xA0 SHL SUB AND SUB PUSH2 0x8B1 JUMPI POP PUSH1 0x0 SWAP4 SWAP3 POP POP POP JUMP JUMPDEST PUSH1 0x1 JUMPDEST DUP3 DUP2 LT ISZERO PUSH2 0x909 JUMPI PUSH1 0x0 DUP6 DUP3 DUP2 MLOAD DUP2 LT PUSH2 0x8D0 JUMPI PUSH2 0x8D0 PUSH2 0xDA8 JUMP JUMPDEST PUSH1 0x20 MUL PUSH1 0x20 ADD ADD MLOAD SWAP1 POP DUP1 PUSH1 0x1 PUSH1 0x1 PUSH1 0xA0 SHL SUB AND DUP4 PUSH1 0x1 PUSH1 0x1 PUSH1 0xA0 SHL SUB AND LT PUSH2 0x8FF JUMPI POP PUSH1 0x0 SWAP6 SWAP5 POP POP POP POP POP JUMP JUMPDEST SWAP2 POP PUSH1 0x1 ADD PUSH2 0x8B4 JUMP JUMPDEST POP PUSH1 0x1 SWAP5 SWAP4 POP POP POP POP JUMP JUMPDEST PUSH1 0x1 PUSH1 0x1 PUSH1 0xA0 SHL SUB DUP2 AND DUP2 EQ PUSH2 0x346 JUMPI PUSH1 0x0 DUP1 REVERT JUMPDEST PUSH1 0x0 PUSH1 0x20 DUP3 DUP5 SUB SLT ISZERO PUSH2 0x93B JUMPI PUSH1 0x0 DUP1 REVERT JUMPDEST DUP2 CALLDATALOAD PUSH2 0x946 DUP2 PUSH2 0x914 JUMP JUMPDEST SWAP4 SWAP3 POP POP POP JUMP JUMPDEST PUSH1 0x0 DUP1 DUP4 PUSH1 0x1F DUP5 ADD SLT PUSH2 0x95F JUMPI PUSH1 0x0 DUP1 REVERT JUMPDEST POP DUP2 CALLDATALOAD PUSH8 0xFFFFFFFFFFFFFFFF DUP2 GT ISZERO PUSH2 0x977 JUMPI PUSH1 0x0 DUP1 REVERT JUMPDEST PUSH1 0x20 DUP4 ADD SWAP2 POP DUP4 PUSH1 0x20 DUP3 DUP6 ADD ADD GT ISZERO PUSH2 0x98F JUMPI PUSH1 0x0 DUP1 REVERT JUMPDEST SWAP3 POP SWAP3 SWAP1 POP JUMP JUMPDEST PUSH1 0x0 DUP1 PUSH1 0x0 PUSH1 0x40 DUP5 DUP7 SUB SLT ISZERO PUSH2 0x9AB JUMPI PUSH1 0x0 DUP1 REVERT JUMPDEST DUP4 CALLDATALOAD SWAP3 POP PUSH1 0x20 DUP5 ADD CALLDATALOAD PUSH8 0xFFFFFFFFFFFFFFFF DUP2 GT ISZERO PUSH2 0x9C9 JUMPI PUSH1 0x0 DUP1 REVERT JUMPDEST PUSH2 0x9D5 DUP7 DUP3 DUP8 ADD PUSH2 0x94D JUMP JUMPDEST SWAP5 SWAP8 SWAP1 SWAP7 POP SWAP4 SWAP5 POP POP POP POP JUMP JUMPDEST PUSH1 0x0 PUSH1 0x20 DUP3 DUP5 SUB SLT ISZERO PUSH2 0x9F4 JUMPI PUSH1 0x0 DUP1 REVERT JUMPDEST POP CALLDATALOAD SWAP2 SWAP1 POP JUMP JUMPDEST PUSH1 0x0 DUP1 PUSH1 0x20 DUP4 DUP6 SUB SLT ISZERO PUSH2 0xA0E JUMPI PUSH1 0x0 DUP1 REVERT JUMPDEST DUP3 CALLDATALOAD PUSH8 0xFFFFFFFFFFFFFFFF DUP2 GT ISZERO PUSH2 0xA25 JUMPI PUSH1 0x0 DUP1 REVERT JUMPDEST PUSH2 0xA31 DUP6 DUP3 DUP7 ADD PUSH2 0x94D JUMP JUMPDEST SWAP1 SWAP7 SWAP1 SWAP6 POP SWAP4 POP POP POP POP JUMP JUMPDEST PUSH4 0x4E487B71 PUSH1 0xE0 SHL PUSH1 0x0 MSTORE PUSH1 0x41 PUSH1 0x4 MSTORE PUSH1 0x24 PUSH1 0x0 REVERT JUMPDEST PUSH1 0x40 MLOAD PUSH1 0x1F DUP3 ADD PUSH1 0x1F NOT AND DUP2 ADD PUSH8 0xFFFFFFFFFFFFFFFF DUP2 GT DUP3 DUP3 LT OR ISZERO PUSH2 0xA7C JUMPI PUSH2 0xA7C PUSH2 0xA3D JUMP JUMPDEST PUSH1 0x40 MSTORE SWAP2 SWAP1 POP JUMP JUMPDEST PUSH1 0x0 PUSH8 0xFFFFFFFFFFFFFFFF DUP3 GT ISZERO PUSH2 0xA9E JUMPI PUSH2 0xA9E PUSH2 0xA3D JUMP JUMPDEST POP PUSH1 0x5 SHL PUSH1 0x20 ADD SWAP1 JUMP JUMPDEST PUSH1 0x0 DUP3 PUSH1 0x1F DUP4 ADD SLT PUSH2 0xAB9 JUMPI PUSH1 0x0 DUP1 REVERT JUMPDEST DUP2 CALLDATALOAD PUSH1 0x20 PUSH2 0xACE PUSH2 0xAC9 DUP4 PUSH2 0xA84 JUMP JUMPDEST PUSH2 0xA53 JUMP JUMPDEST DUP1 DUP4 DUP3 MSTORE PUSH1 0x20 DUP3 ADD SWAP2 POP PUSH1 0x20 DUP5 PUSH1 0x5 SHL DUP8 ADD ADD SWAP4 POP DUP7 DUP5 GT ISZERO PUSH2 0xAF0 JUMPI PUSH1 0x0 DUP1 REVERT JUMPDEST PUSH1 0x20 DUP7 ADD JUMPDEST DUP5 DUP2 LT ISZERO PUSH2 0xB0C JUMPI DUP1 CALLDATALOAD DUP4 MSTORE SWAP2 DUP4 ADD SWAP2 DUP4 ADD PUSH2 0xAF5 JUMP JUMPDEST POP SWAP7 SWAP6 POP POP POP POP POP POP JUMP JUMPDEST PUSH1 0x0 PUSH1 0x1F DUP4 PUSH1 0x1F DUP5 ADD SLT PUSH2 0xB2A JUMPI PUSH1 0x0 DUP1 REVERT JUMPDEST DUP3 CALLDATALOAD PUSH1 0x20 PUSH2 0xB3A PUSH2 0xAC9 DUP4 PUSH2 0xA84 JUMP JUMPDEST DUP3 DUP2 MSTORE PUSH1 0x5 SWAP3 SWAP1 SWAP3 SHL DUP6 ADD DUP2 ADD SWAP2 DUP2 DUP2 ADD SWAP1 DUP8 DUP5 GT ISZERO PUSH2 0xB59 JUMPI PUSH1 0x0 DUP1 REVERT JUMPDEST DUP3 DUP8 ADD JUMPDEST DUP5 DUP2 LT ISZERO PUSH2 0xBF0 JUMPI DUP1 CALLDATALOAD PUSH8 0xFFFFFFFFFFFFFFFF DUP1 DUP3 GT ISZERO PUSH2 0xB7E JUMPI PUSH1 0x0 DUP1 DUP2 REVERT JUMPDEST DUP2 DUP11 ADD SWAP2 POP DUP11 PUSH1 0x3F DUP4 ADD SLT PUSH2 0xB93 JUMPI PUSH1 0x0 DUP1 DUP2 REVERT JUMPDEST DUP6 DUP3 ADD CALLDATALOAD PUSH1 0x40 DUP3 DUP3 GT ISZERO PUSH2 0xBA9 JUMPI PUSH2 0xBA9 PUSH2 0xA3D JUMP JUMPDEST PUSH2 0xBBA DUP3 DUP12 ADD PUSH1 0x1F NOT AND DUP10 ADD PUSH2 0xA53 JUMP JUMPDEST SWAP3 POP DUP2 DUP4 MSTORE DUP13 DUP2 DUP4 DUP7 ADD ADD GT ISZERO PUSH2 0xBD1 JUMPI PUSH1 0x0 DUP1 DUP2 REVERT JUMPDEST DUP2 DUP2 DUP6 ADD DUP10 DUP6 ADD CALLDATACOPY POP PUSH1 0x0 SWAP1 DUP3 ADD DUP8 ADD MSTORE DUP5 MSTORE POP SWAP2 DUP4 ADD SWAP2 DUP4 ADD PUSH2 0xB5D JUMP JUMPDEST POP SWAP8 SWAP7 POP POP POP POP POP POP POP JUMP JUMPDEST PUSH1 0x0 DUP1 PUSH1 0x0 DUP1 PUSH1 0x80 DUP6 DUP8 SUB SLT ISZERO PUSH2 0xC12 JUMPI PUSH1 0x0 DUP1 REVERT JUMPDEST DUP5 CALLDATALOAD PUSH8 0xFFFFFFFFFFFFFFFF DUP1 DUP3 GT ISZERO PUSH2 0xC2A JUMPI PUSH1 0x0 DUP1 REVERT JUMPDEST DUP2 DUP8 ADD SWAP2 POP DUP8 PUSH1 0x1F DUP4 ADD SLT PUSH2 0xC3E JUMPI PUSH1 0x0 DUP1 REVERT JUMPDEST DUP2 CALLDATALOAD PUSH1 0x20 PUSH2 0xC4E PUSH2 0xAC9 DUP4 PUSH2 0xA84 JUMP JUMPDEST DUP3 DUP2 MSTORE PUSH1 0x5 SWAP3 SWAP1 SWAP3 SHL DUP5 ADD DUP2 ADD SWAP2 DUP2 DUP2 ADD SWAP1 DUP12 DUP5 GT ISZERO PUSH2 0xC6D JUMPI PUSH1 0x0 DUP1 REVERT JUMPDEST SWAP5 DUP3 ADD SWAP5 JUMPDEST DUP4 DUP7 LT ISZERO PUSH2 0xC94 JUMPI DUP6 CALLDATALOAD PUSH2 0xC85 DUP2 PUSH2 0x914 JUMP JUMPDEST DUP3 MSTORE SWAP5 DUP3 ADD SWAP5 SWAP1 DUP3 ADD SWAP1 PUSH2 0xC72 JUMP JUMPDEST SWAP9 POP POP DUP9 ADD CALLDATALOAD SWAP3 POP POP DUP1 DUP3 GT ISZERO PUSH2 0xCAA JUMPI PUSH1 0x0 DUP1 REVERT JUMPDEST PUSH2 0xCB6 DUP9 DUP4 DUP10 ADD PUSH2 0xAA8 JUMP JUMPDEST SWAP5 POP PUSH1 0x40 DUP8 ADD CALLDATALOAD SWAP4 POP PUSH1 0x60 DUP8 ADD CALLDATALOAD SWAP2 POP DUP1 DUP3 GT ISZERO PUSH2 0xCD3 JUMPI PUSH1 0x0 DUP1 REVERT JUMPDEST POP PUSH2 0xCE0 DUP8 DUP3 DUP9 ADD PUSH2 0xB17 JUMP JUMPDEST SWAP2 POP POP SWAP3 SWAP6 SWAP2 SWAP5 POP SWAP3 POP JUMP JUMPDEST PUSH1 0x60 DUP1 DUP3 MSTORE DUP5 MLOAD SWAP1 DUP3 ADD DUP2 SWAP1 MSTORE PUSH1 0x0 SWAP1 PUSH1 0x20 SWAP1 PUSH1 0x80 DUP5 ADD SWAP1 DUP3 DUP9 ADD DUP5 JUMPDEST DUP3 DUP2 LT ISZERO PUSH2 0xD2E JUMPI DUP2 MLOAD PUSH1 0x1 PUSH1 0x1 PUSH1 0xA0 SHL SUB AND DUP5 MSTORE SWAP3 DUP5 ADD SWAP3 SWAP1 DUP5 ADD SWAP1 PUSH1 0x1 ADD PUSH2 0xD09 JUMP JUMPDEST POP POP POP DUP4 DUP2 SUB DUP3 DUP6 ADD MSTORE DUP6 MLOAD DUP1 DUP3 MSTORE DUP7 DUP4 ADD SWAP2 DUP4 ADD SWAP1 PUSH1 0x0 JUMPDEST DUP2 DUP2 LT ISZERO PUSH2 0xD63 JUMPI DUP4 MLOAD DUP4 MSTORE SWAP3 DUP5 ADD SWAP3 SWAP2 DUP5 ADD SWAP2 PUSH1 0x1 ADD PUSH2 0xD47 JUMP JUMPDEST POP POP DUP1 SWAP4 POP POP POP POP DUP3 PUSH1 0x40 DUP4 ADD MSTORE SWAP5 SWAP4 POP POP POP POP JUMP JUMPDEST PUSH4 0x4E487B71 PUSH1 0xE0 SHL PUSH1 0x0 MSTORE PUSH1 0x11 PUSH1 0x4 MSTORE PUSH1 0x24 PUSH1 0x0 REVERT JUMPDEST DUP2 DUP2 SUB DUP2 DUP2 GT ISZERO PUSH2 0xDA2 JUMPI PUSH2 0xDA2 PUSH2 0xD79 JUMP JUMPDEST SWAP3 SWAP2 POP POP JUMP JUMPDEST PUSH4 0x4E487B71 PUSH1 0xE0 SHL PUSH1 0x0 MSTORE PUSH1 0x32 PUSH1 0x4 MSTORE PUSH1 0x24 PUSH1 0x0 REVERT JUMPDEST PUSH1 0x0 PUSH1 0x1 DUP3 ADD PUSH2 0xDD0 JUMPI PUSH2 0xDD0 PUSH2 0xD79 JUMP JUMPDEST POP PUSH1 0x1 ADD SWAP1 JUMP JUMPDEST DUP1 DUP3 ADD DUP1 DUP3 GT ISZERO PUSH2 0xDA2 JUMPI PUSH2 0xDA2 PUSH2 0xD79 JUMP JUMPDEST PUSH1 0x0 DUP3 PUSH1 0x1F DUP4 ADD SLT PUSH2 0xDFB JUMPI PUSH1 0x0 DUP1 REVERT JUMPDEST DUP2 MLOAD PUSH1 0x20 PUSH2 0xE0B PUSH2 0xAC9 DUP4 PUSH2 0xA84 JUMP JUMPDEST DUP1 DUP4 DUP3 MSTORE PUSH1 0x20 DUP3 ADD SWAP2 POP PUSH1 0x20 DUP5 PUSH1 0x5 SHL DUP8 ADD ADD SWAP4 POP DUP7 DUP5 GT ISZERO PUSH2 0xE2D JUMPI PUSH1 0x0 DUP1 REVERT JUMPDEST PUSH1 0x20 DUP7 ADD JUMPDEST DUP5 DUP2 LT ISZERO PUSH2 0xB0C JUMPI DUP1 MLOAD DUP4 MSTORE SWAP2 DUP4 ADD SWAP2 DUP4 ADD PUSH2 0xE32 JUMP JUMPDEST PUSH1 0x0 DUP1 PUSH1 0x0 PUSH1 0x60 DUP5 DUP7 SUB SLT ISZERO PUSH2 0xE5E JUMPI PUSH1 0x0 DUP1 REVERT JUMPDEST DUP4 MLOAD PUSH8 0xFFFFFFFFFFFFFFFF DUP1 DUP3 GT ISZERO PUSH2 0xE76 JUMPI PUSH1 0x0 DUP1 REVERT JUMPDEST DUP2 DUP7 ADD SWAP2 POP DUP7 PUSH1 0x1F DUP4 ADD SLT PUSH2 0xE8A JUMPI PUSH1 0x0 DUP1 REVERT JUMPDEST DUP2 MLOAD PUSH1 0x20 PUSH2 0xE9A PUSH2 0xAC9 DUP4 PUSH2 0xA84 JUMP JUMPDEST DUP3 DUP2 MSTORE PUSH1 0x5 SWAP3 SWAP1 SWAP3 SHL DUP5 ADD DUP2 ADD SWAP2 DUP2 DUP2 ADD SWAP1 DUP11 DUP5 GT ISZERO PUSH2 0xEB9 JUMPI PUSH1 0x0 DUP1 REVERT JUMPDEST SWAP5 DUP3 ADD SWAP5 JUMPDEST DUP4 DUP7 LT ISZERO PUSH2 0xEE0 JUMPI DUP6 MLOAD PUSH2 0xED1 DUP2 PUSH2 0x914 JUMP JUMPDEST DUP3 MSTORE SWAP5 DUP3 ADD SWAP5 SWAP1 DUP3 ADD SWAP1 PUSH2 0xEBE JUMP JUMPDEST SWAP2 DUP10 ADD MLOAD SWAP2 SWAP8 POP SWAP1 SWAP4 POP POP POP DUP1 DUP3 GT ISZERO PUSH2 0xEF9 JUMPI PUSH1 0x0 DUP1 REVERT JUMPDEST POP PUSH2 0xF06 DUP7 DUP3 DUP8 ADD PUSH2 0xDEA JUMP JUMPDEST SWAP3 POP POP PUSH1 0x40 DUP5 ADD MLOAD SWAP1 POP SWAP3 POP SWAP3 POP SWAP3 JUMP INVALID MUL ADD PUSH9 0x36A56B71F0D02689E6 SWAP15 ORIGIN PUSH16 0x4F4C1B9057164EF592671CF0D37C8040 0xC0 SWAP9 SSTORE CODESIZE COINBASE 0x22 0xB5 MSIZE CALLDATASIZE 0xFB 0xFB DUP13 0xA5 SLT 0xE PUSH4 0xC6537A1A 0xC4 0xC 0xAF PUSH11 0xE33502B3C5DA8C87D1A264 PUSH10 0x70667358221220C04185 PUSH4 0xA5E5AA8E NOT 0xA6 0x25 PUSH21 0x64D75AA3ED5DB59583354DB13B08B21C3B8DBD5364 PUSH20 0x6F6C634300081800330000000000000000000000 "},"methodIdentifiers":{"acceptOwnership()":"79ba5097","currentEpoch()":"76671808","epochForHash(bytes32)":"f1501c89","hashForEpoch(uint256)":"ba6742e5","owner()":"8da5cb5b","pendingOwner()":"e30c3978","proposeOwnership(address)":"710bf322","transferOperatorship(bytes)":"d289d1cb","transferOwnership(address)":"f2fde38b","validateProof(bytes32,bytes)":"73e3d66a"}}}}}