{"contracts/CallContract.sol":{"CallContract":{"abi":[{"inputs":[{"internalType":"address","name":"_gateway","type":"address"},{"internalType":"address","name":"_gasReceiver","type":"address"}],"stateMutability":"nonpayable","type":"constructor"},{"inputs":[],"name":"InvalidAddress","type":"error"},{"inputs":[],"name":"NotApprovedByGateway","type":"error"},{"anonymous":false,"inputs":[{"indexed":false,"internalType":"string","name":"_from","type":"string"},{"indexed":false,"internalType":"string","name":"_message","type":"string"}],"name":"Executed","type":"event"},{"inputs":[{"internalType":"bytes32","name":"commandId","type":"bytes32"},{"internalType":"string","name":"sourceChain","type":"string"},{"internalType":"string","name":"sourceAddress","type":"string"},{"internalType":"bytes","name":"payload","type":"bytes"}],"name":"execute","outputs":[],"stateMutability":"nonpayable","type":"function"},{"inputs":[{"internalType":"bytes32","name":"commandId","type":"bytes32"},{"internalType":"string","name":"sourceChain","type":"string"},{"internalType":"string","name":"sourceAddress","type":"string"},{"internalType":"bytes","name":"payload","type":"bytes"},{"internalType":"string","name":"tokenSymbol","type":"string"},{"internalType":"uint256","name":"amount","type":"uint256"}],"name":"executeWithToken","outputs":[],"stateMutability":"nonpayable","type":"function"},{"inputs":[],"name":"gasService","outputs":[{"internalType":"contract IAxelarGasService","name":"","type":"address"}],"stateMutability":"view","type":"function"},{"inputs":[],"name":"gateway","outputs":[{"internalType":"contract IAxelarGateway","name":"","type":"address"}],"stateMutability":"view","type":"function"},{"inputs":[],"name":"message","outputs":[{"internalType":"string","name":"","type":"string"}],"stateMutability":"view","type":"function"},{"inputs":[{"internalType":"string","name":"destinationChain","type":"string"},{"internalType":"string","name":"destinationAddress","type":"string"},{"internalType":"string","name":"_message","type":"string"}],"name":"setRemoteValue","outputs":[],"stateMutability":"payable","type":"function"},{"inputs":[],"name":"sourceAddress","outputs":[{"internalType":"string","name":"","type":"string"}],"stateMutability":"view","type":"function"},{"inputs":[],"name":"sourceChain","outputs":[{"internalType":"string","name":"","type":"string"}],"stateMutability":"view","type":"function"}],"evm":{"bytecode":{"linkReferences":{},"object":"60c060405234801561001057600080fd5b50604051610f4c380380610f4c83398101604081905261002f9161008b565b816001600160a01b0381166100575760405163e6c4247b60e01b815260040160405180910390fd5b6001600160a01b039081166080521660a052506100be565b80516001600160a01b038116811461008657600080fd5b919050565b6000806040838503121561009e57600080fd5b6100a78361006f565b91506100b56020840161006f565b90509250929050565b60805160a051610e4e6100fe60003960008181610147015261048f0152600081816092015281816101d70152818161034801526105180152610e4e6000f3fe60806040526004361061007b5760003560e01c80636a22d8cc1161004e5780636a22d8cc1461013557806380d3269714610169578063b0fa84441461017c578063e21f37ce1461019157600080fd5b8063116191b6146100805780631a98b2e0146100d15780631c6ffa46146100f35780634916065814610115575b600080fd5b34801561008c57600080fd5b506100b47f000000000000000000000000000000000000000000000000000000000000000081565b6040516001600160a01b0390911681526020015b60405180910390f35b3480156100dd57600080fd5b506100f16100ec366004610662565b6101a6565b005b3480156100ff57600080fd5b50610108610289565b6040516100c89190610782565b34801561012157600080fd5b506100f161013036600461079c565b610317565b34801561014157600080fd5b506100b47f000000000000000000000000000000000000000000000000000000000000000081565b6100f1610177366004610840565b6103ff565b34801561018857600080fd5b50610108610586565b34801561019d57600080fd5b50610108610593565b600085856040516101b89291906108da565b604051908190038120631876eed960e01b825291506001600160a01b037f00000000000000000000000000000000000000000000000000000000000000001690631876eed99061021c908e908e908e908e908e9089908d908d908d90600401610913565b6020604051808303816000875af115801561023b573d6000803e3d6000fd5b505050506040513d601f19601f8201168201806040525081019061025f9190610972565b61027c57604051631403112d60e21b815260040160405180910390fd5b5050505050505050505050565b6001805461029690610994565b80601f01602080910402602001604051908101604052809291908181526020018280546102c290610994565b801561030f5780601f106102e45761010080835404028352916020019161030f565b820191906000526020600020905b8154815290600101906020018083116102f257829003601f168201915b505050505081565b600082826040516103299291906108da565b604051908190038120635f6970c360e01b825291506001600160a01b037f00000000000000000000000000000000000000000000000000000000000000001690635f6970c390610387908b908b908b908b908b9089906004016109ce565b6020604051808303816000875af11580156103a6573d6000803e3d6000fd5b505050506040513d601f19601f820116820180604052508101906103ca9190610972565b6103e757604051631403112d60e21b815260040160405180910390fd5b6103f58787878787876105a0565b5050505050505050565b600034116104535760405162461bcd60e51b815260206004820152601760248201527f476173207061796d656e74206973207265717569726564000000000000000000604482015260640160405180910390fd5b60008282604051602001610468929190610a0f565b60408051601f1981840301815290829052630c93e3bb60e01b825291506001600160a01b037f00000000000000000000000000000000000000000000000000000000000000001690630c93e3bb9034906104d29030908c908c908c908c908a903390600401610a2b565b6000604051808303818588803b1580156104eb57600080fd5b505af11580156104ff573d6000803e3d6000fd5b5050604051631c92115f60e01b81526001600160a01b037f0000000000000000000000000000000000000000000000000000000000000000169350631c92115f925061055891508a908a908a908a908890600401610a8d565b600060405180830381600087803b15801561057257600080fd5b505af115801561027c573d6000803e3d6000fd5b6002805461029690610994565b6000805461029690610994565b6105ac81830183610aea565b6000906105b99082610bec565b5060016105c7868883610cac565b5060026105d5848683610cac565b507f0d97a9033491f569feb4c72abf12722b227eec24ee13547bec3654f8663ff71160026000604051610609929190610dea565b60405180910390a1505050505050565b60008083601f84011261062b57600080fd5b50813567ffffffffffffffff81111561064357600080fd5b60208301915083602082850101111561065b57600080fd5b9250929050565b60008060008060008060008060008060c08b8d03121561068157600080fd5b8a35995060208b013567ffffffffffffffff808211156106a057600080fd5b6106ac8e838f01610619565b909b50995060408d01359150808211156106c557600080fd5b6106d18e838f01610619565b909950975060608d01359150808211156106ea57600080fd5b6106f68e838f01610619565b909750955060808d013591508082111561070f57600080fd5b5061071c8d828e01610619565b9150809450508092505060a08b013590509295989b9194979a5092959850565b6000815180845260005b8181101561076257602081850181015186830182015201610746565b506000602082860101526020601f19601f83011685010191505092915050565b602081526000610795602083018461073c565b9392505050565b60008060008060008060006080888a0312156107b757600080fd5b87359650602088013567ffffffffffffffff808211156107d657600080fd5b6107e28b838c01610619565b909850965060408a01359150808211156107fb57600080fd5b6108078b838c01610619565b909650945060608a013591508082111561082057600080fd5b5061082d8a828b01610619565b989b979a50959850939692959293505050565b6000806000806000806060878903121561085957600080fd5b863567ffffffffffffffff8082111561087157600080fd5b61087d8a838b01610619565b9098509650602089013591508082111561089657600080fd5b6108a28a838b01610619565b909650945060408901359150808211156108bb57600080fd5b506108c889828a01610619565b979a9699509497509295939492505050565b8183823760009101908152919050565b81835281816020850137506000828201602090810191909152601f909101601f19169091010190565b89815260c06020820152600061092d60c083018a8c6108ea565b828103604084015261094081898b6108ea565b9050866060840152828103608084015261095b8186886108ea565b9150508260a08301529a9950505050505050505050565b60006020828403121561098457600080fd5b8151801515811461079557600080fd5b600181811c908216806109a857607f821691505b6020821081036109c857634e487b7160e01b600052602260045260246000fd5b50919050565b8681526080602082015260006109e86080830187896108ea565b82810360408401526109fb8186886108ea565b915050826060830152979650505050505050565b602081526000610a236020830184866108ea565b949350505050565b600060018060a01b03808a16835260a06020840152610a4e60a08401898b6108ea565b8381036040850152610a6181888a6108ea565b90508381036060850152610a75818761073c565b92505080841660808401525098975050505050505050565b606081526000610aa16060830187896108ea565b8281036020840152610ab48186886108ea565b90508281036040840152610ac8818561073c565b98975050505050505050565b634e487b7160e01b600052604160045260246000fd5b600060208284031215610afc57600080fd5b813567ffffffffffffffff80821115610b1457600080fd5b818401915084601f830112610b2857600080fd5b813581811115610b3a57610b3a610ad4565b604051601f8201601f19908116603f01168101908382118183101715610b6257610b62610ad4565b81604052828152876020848701011115610b7b57600080fd5b826020860160208301376000928101602001929092525095945050505050565b601f821115610be7576000816000526020600020601f850160051c81016020861015610bc45750805b601f850160051c820191505b81811015610be357828155600101610bd0565b5050505b505050565b815167ffffffffffffffff811115610c0657610c06610ad4565b610c1a81610c148454610994565b84610b9b565b602080601f831160018114610c4f5760008415610c375750858301515b600019600386901b1c1916600185901b178555610be3565b600085815260208120601f198616915b82811015610c7e57888601518255948401946001909101908401610c5f565b5085821015610c9c5787850151600019600388901b60f8161c191681555b5050505050600190811b01905550565b67ffffffffffffffff831115610cc457610cc4610ad4565b610cd883610cd28354610994565b83610b9b565b6000601f841160018114610d0c5760008515610cf45750838201355b600019600387901b1c1916600186901b178355610d66565b600083815260209020601f19861690835b82811015610d3d5786850135825560209485019460019092019101610d1d565b5086821015610d5a5760001960f88860031b161c19848701351681555b505060018560011b0183555b5050505050565b60008154610d7a81610994565b808552602060018381168015610d975760018114610db157610ddf565b60ff1985168884015283151560051b880183019550610ddf565b866000528260002060005b85811015610dd75781548a8201860152908301908401610dbc565b890184019650505b505050505092915050565b604081526000610dfd6040830185610d6d565b8281036020840152610e0f8185610d6d565b9594505050505056fea26469706673582212205a5f67a7907b8d3c0876f5482f4552962254e61636693ef99b4b8d5fbee650f064736f6c63430008180033","opcodes":"PUSH1 0xC0 PUSH1 0x40 MSTORE CALLVALUE DUP1 ISZERO PUSH2 0x10 JUMPI PUSH1 0x0 DUP1 REVERT JUMPDEST POP PUSH1 0x40 MLOAD PUSH2 0xF4C CODESIZE SUB DUP1 PUSH2 0xF4C DUP4 CODECOPY DUP2 ADD PUSH1 0x40 DUP2 SWAP1 MSTORE PUSH2 0x2F SWAP2 PUSH2 0x8B JUMP JUMPDEST DUP2 PUSH1 0x1 PUSH1 0x1 PUSH1 0xA0 SHL SUB DUP2 AND PUSH2 0x57 JUMPI PUSH1 0x40 MLOAD PUSH4 0xE6C4247B PUSH1 0xE0 SHL DUP2 MSTORE PUSH1 0x4 ADD PUSH1 0x40 MLOAD DUP1 SWAP2 SUB SWAP1 REVERT JUMPDEST PUSH1 0x1 PUSH1 0x1 PUSH1 0xA0 SHL SUB SWAP1 DUP2 AND PUSH1 0x80 MSTORE AND PUSH1 0xA0 MSTORE POP PUSH2 0xBE JUMP JUMPDEST DUP1 MLOAD PUSH1 0x1 PUSH1 0x1 PUSH1 0xA0 SHL SUB DUP2 AND DUP2 EQ PUSH2 0x86 JUMPI PUSH1 0x0 DUP1 REVERT JUMPDEST SWAP2 SWAP1 POP JUMP JUMPDEST PUSH1 0x0 DUP1 PUSH1 0x40 DUP4 DUP6 SUB SLT ISZERO PUSH2 0x9E JUMPI PUSH1 0x0 DUP1 REVERT JUMPDEST PUSH2 0xA7 DUP4 PUSH2 0x6F JUMP JUMPDEST SWAP2 POP PUSH2 0xB5 PUSH1 0x20 DUP5 ADD PUSH2 0x6F JUMP JUMPDEST SWAP1 POP SWAP3 POP SWAP3 SWAP1 POP JUMP JUMPDEST PUSH1 0x80 MLOAD PUSH1 0xA0 MLOAD PUSH2 0xE4E PUSH2 0xFE PUSH1 0x0 CODECOPY PUSH1 0x0 DUP2 DUP2 PUSH2 0x147 ADD MSTORE PUSH2 0x48F ADD MSTORE PUSH1 0x0 DUP2 DUP2 PUSH1 0x92 ADD MSTORE DUP2 DUP2 PUSH2 0x1D7 ADD MSTORE DUP2 DUP2 PUSH2 0x348 ADD MSTORE PUSH2 0x518 ADD MSTORE PUSH2 0xE4E PUSH1 0x0 RETURN INVALID PUSH1 0x80 PUSH1 0x40 MSTORE PUSH1 0x4 CALLDATASIZE LT PUSH2 0x7B JUMPI PUSH1 0x0 CALLDATALOAD PUSH1 0xE0 SHR DUP1 PUSH4 0x6A22D8CC GT PUSH2 0x4E JUMPI DUP1 PUSH4 0x6A22D8CC EQ PUSH2 0x135 JUMPI DUP1 PUSH4 0x80D32697 EQ PUSH2 0x169 JUMPI DUP1 PUSH4 0xB0FA8444 EQ PUSH2 0x17C JUMPI DUP1 PUSH4 0xE21F37CE EQ PUSH2 0x191 JUMPI PUSH1 0x0 DUP1 REVERT JUMPDEST DUP1 PUSH4 0x116191B6 EQ PUSH2 0x80 JUMPI DUP1 PUSH4 0x1A98B2E0 EQ PUSH2 0xD1 JUMPI DUP1 PUSH4 0x1C6FFA46 EQ PUSH2 0xF3 JUMPI DUP1 PUSH4 0x49160658 EQ PUSH2 0x115 JUMPI JUMPDEST PUSH1 0x0 DUP1 REVERT JUMPDEST CALLVALUE DUP1 ISZERO PUSH2 0x8C JUMPI PUSH1 0x0 DUP1 REVERT JUMPDEST POP PUSH2 0xB4 PUSH32 0x0 DUP2 JUMP JUMPDEST PUSH1 0x40 MLOAD PUSH1 0x1 PUSH1 0x1 PUSH1 0xA0 SHL SUB SWAP1 SWAP2 AND DUP2 MSTORE PUSH1 0x20 ADD JUMPDEST PUSH1 0x40 MLOAD DUP1 SWAP2 SUB SWAP1 RETURN JUMPDEST CALLVALUE DUP1 ISZERO PUSH2 0xDD JUMPI PUSH1 0x0 DUP1 REVERT JUMPDEST POP PUSH2 0xF1 PUSH2 0xEC CALLDATASIZE PUSH1 0x4 PUSH2 0x662 JUMP JUMPDEST PUSH2 0x1A6 JUMP JUMPDEST STOP JUMPDEST CALLVALUE DUP1 ISZERO PUSH2 0xFF JUMPI PUSH1 0x0 DUP1 REVERT JUMPDEST POP PUSH2 0x108 PUSH2 0x289 JUMP JUMPDEST PUSH1 0x40 MLOAD PUSH2 0xC8 SWAP2 SWAP1 PUSH2 0x782 JUMP JUMPDEST CALLVALUE DUP1 ISZERO PUSH2 0x121 JUMPI PUSH1 0x0 DUP1 REVERT JUMPDEST POP PUSH2 0xF1 PUSH2 0x130 CALLDATASIZE PUSH1 0x4 PUSH2 0x79C JUMP JUMPDEST PUSH2 0x317 JUMP JUMPDEST CALLVALUE DUP1 ISZERO PUSH2 0x141 JUMPI PUSH1 0x0 DUP1 REVERT JUMPDEST POP PUSH2 0xB4 PUSH32 0x0 DUP2 JUMP JUMPDEST PUSH2 0xF1 PUSH2 0x177 CALLDATASIZE PUSH1 0x4 PUSH2 0x840 JUMP JUMPDEST PUSH2 0x3FF JUMP JUMPDEST CALLVALUE DUP1 ISZERO PUSH2 0x188 JUMPI PUSH1 0x0 DUP1 REVERT JUMPDEST POP PUSH2 0x108 PUSH2 0x586 JUMP JUMPDEST CALLVALUE DUP1 ISZERO PUSH2 0x19D JUMPI PUSH1 0x0 DUP1 REVERT JUMPDEST POP PUSH2 0x108 PUSH2 0x593 JUMP JUMPDEST PUSH1 0x0 DUP6 DUP6 PUSH1 0x40 MLOAD PUSH2 0x1B8 SWAP3 SWAP2 SWAP1 PUSH2 0x8DA JUMP JUMPDEST PUSH1 0x40 MLOAD SWAP1 DUP2 SWAP1 SUB DUP2 KECCAK256 PUSH4 0x1876EED9 PUSH1 0xE0 SHL DUP3 MSTORE SWAP2 POP PUSH1 0x1 PUSH1 0x1 PUSH1 0xA0 SHL SUB PUSH32 0x0 AND SWAP1 PUSH4 0x1876EED9 SWAP1 PUSH2 0x21C SWAP1 DUP15 SWAP1 DUP15 SWAP1 DUP15 SWAP1 DUP15 SWAP1 DUP15 SWAP1 DUP10 SWAP1 DUP14 SWAP1 DUP14 SWAP1 DUP14 SWAP1 PUSH1 0x4 ADD PUSH2 0x913 JUMP JUMPDEST PUSH1 0x20 PUSH1 0x40 MLOAD DUP1 DUP4 SUB DUP2 PUSH1 0x0 DUP8 GAS CALL ISZERO DUP1 ISZERO PUSH2 0x23B JUMPI RETURNDATASIZE PUSH1 0x0 DUP1 RETURNDATACOPY RETURNDATASIZE PUSH1 0x0 REVERT JUMPDEST POP POP POP POP PUSH1 0x40 MLOAD RETURNDATASIZE PUSH1 0x1F NOT PUSH1 0x1F DUP3 ADD AND DUP3 ADD DUP1 PUSH1 0x40 MSTORE POP DUP2 ADD SWAP1 PUSH2 0x25F SWAP2 SWAP1 PUSH2 0x972 JUMP JUMPDEST PUSH2 0x27C JUMPI PUSH1 0x40 MLOAD PUSH4 0x1403112D PUSH1 0xE2 SHL DUP2 MSTORE PUSH1 0x4 ADD PUSH1 0x40 MLOAD DUP1 SWAP2 SUB SWAP1 REVERT JUMPDEST POP POP POP POP POP POP POP POP POP POP POP JUMP JUMPDEST PUSH1 0x1 DUP1 SLOAD PUSH2 0x296 SWAP1 PUSH2 0x994 JUMP JUMPDEST DUP1 PUSH1 0x1F ADD PUSH1 0x20 DUP1 SWAP2 DIV MUL PUSH1 0x20 ADD PUSH1 0x40 MLOAD SWAP1 DUP2 ADD PUSH1 0x40 MSTORE DUP1 SWAP3 SWAP2 SWAP1 DUP2 DUP2 MSTORE PUSH1 0x20 ADD DUP3 DUP1 SLOAD PUSH2 0x2C2 SWAP1 PUSH2 0x994 JUMP JUMPDEST DUP1 ISZERO PUSH2 0x30F JUMPI DUP1 PUSH1 0x1F LT PUSH2 0x2E4 JUMPI PUSH2 0x100 DUP1 DUP4 SLOAD DIV MUL DUP4 MSTORE SWAP2 PUSH1 0x20 ADD SWAP2 PUSH2 0x30F JUMP JUMPDEST DUP3 ADD SWAP2 SWAP1 PUSH1 0x0 MSTORE PUSH1 0x20 PUSH1 0x0 KECCAK256 SWAP1 JUMPDEST DUP2 SLOAD DUP2 MSTORE SWAP1 PUSH1 0x1 ADD SWAP1 PUSH1 0x20 ADD DUP1 DUP4 GT PUSH2 0x2F2 JUMPI DUP3 SWAP1 SUB PUSH1 0x1F AND DUP3 ADD SWAP2 JUMPDEST POP POP POP POP POP DUP2 JUMP JUMPDEST PUSH1 0x0 DUP3 DUP3 PUSH1 0x40 MLOAD PUSH2 0x329 SWAP3 SWAP2 SWAP1 PUSH2 0x8DA JUMP JUMPDEST PUSH1 0x40 MLOAD SWAP1 DUP2 SWAP1 SUB DUP2 KECCAK256 PUSH4 0x5F6970C3 PUSH1 0xE0 SHL DUP3 MSTORE SWAP2 POP PUSH1 0x1 PUSH1 0x1 PUSH1 0xA0 SHL SUB PUSH32 0x0 AND SWAP1 PUSH4 0x5F6970C3 SWAP1 PUSH2 0x387 SWAP1 DUP12 SWAP1 DUP12 SWAP1 DUP12 SWAP1 DUP12 SWAP1 DUP12 SWAP1 DUP10 SWAP1 PUSH1 0x4 ADD PUSH2 0x9CE JUMP JUMPDEST PUSH1 0x20 PUSH1 0x40 MLOAD DUP1 DUP4 SUB DUP2 PUSH1 0x0 DUP8 GAS CALL ISZERO DUP1 ISZERO PUSH2 0x3A6 JUMPI RETURNDATASIZE PUSH1 0x0 DUP1 RETURNDATACOPY RETURNDATASIZE PUSH1 0x0 REVERT JUMPDEST POP POP POP POP PUSH1 0x40 MLOAD RETURNDATASIZE PUSH1 0x1F NOT PUSH1 0x1F DUP3 ADD AND DUP3 ADD DUP1 PUSH1 0x40 MSTORE POP DUP2 ADD SWAP1 PUSH2 0x3CA SWAP2 SWAP1 PUSH2 0x972 JUMP JUMPDEST PUSH2 0x3E7 JUMPI PUSH1 0x40 MLOAD PUSH4 0x1403112D PUSH1 0xE2 SHL DUP2 MSTORE PUSH1 0x4 ADD PUSH1 0x40 MLOAD DUP1 SWAP2 SUB SWAP1 REVERT JUMPDEST PUSH2 0x3F5 DUP8 DUP8 DUP8 DUP8 DUP8 DUP8 PUSH2 0x5A0 JUMP JUMPDEST POP POP POP POP POP POP POP POP JUMP JUMPDEST PUSH1 0x0 CALLVALUE GT PUSH2 0x453 JUMPI PUSH1 0x40 MLOAD PUSH3 0x461BCD PUSH1 0xE5 SHL DUP2 MSTORE PUSH1 0x20 PUSH1 0x4 DUP3 ADD MSTORE PUSH1 0x17 PUSH1 0x24 DUP3 ADD MSTORE PUSH32 0x476173207061796D656E74206973207265717569726564000000000000000000 PUSH1 0x44 DUP3 ADD MSTORE PUSH1 0x64 ADD PUSH1 0x40 MLOAD DUP1 SWAP2 SUB SWAP1 REVERT JUMPDEST PUSH1 0x0 DUP3 DUP3 PUSH1 0x40 MLOAD PUSH1 0x20 ADD PUSH2 0x468 SWAP3 SWAP2 SWAP1 PUSH2 0xA0F JUMP JUMPDEST PUSH1 0x40 DUP1 MLOAD PUSH1 0x1F NOT DUP2 DUP5 SUB ADD DUP2 MSTORE SWAP1 DUP3 SWAP1 MSTORE PUSH4 0xC93E3BB PUSH1 0xE0 SHL DUP3 MSTORE SWAP2 POP PUSH1 0x1 PUSH1 0x1 PUSH1 0xA0 SHL SUB PUSH32 0x0 AND SWAP1 PUSH4 0xC93E3BB SWAP1 CALLVALUE SWAP1 PUSH2 0x4D2 SWAP1 ADDRESS SWAP1 DUP13 SWAP1 DUP13 SWAP1 DUP13 SWAP1 DUP13 SWAP1 DUP11 SWAP1 CALLER SWAP1 PUSH1 0x4 ADD PUSH2 0xA2B JUMP JUMPDEST PUSH1 0x0 PUSH1 0x40 MLOAD DUP1 DUP4 SUB DUP2 DUP6 DUP9 DUP1 EXTCODESIZE ISZERO DUP1 ISZERO PUSH2 0x4EB JUMPI PUSH1 0x0 DUP1 REVERT JUMPDEST POP GAS CALL ISZERO DUP1 ISZERO PUSH2 0x4FF JUMPI RETURNDATASIZE PUSH1 0x0 DUP1 RETURNDATACOPY RETURNDATASIZE PUSH1 0x0 REVERT JUMPDEST POP POP PUSH1 0x40 MLOAD PUSH4 0x1C92115F PUSH1 0xE0 SHL DUP2 MSTORE PUSH1 0x1 PUSH1 0x1 PUSH1 0xA0 SHL SUB PUSH32 0x0 AND SWAP4 POP PUSH4 0x1C92115F SWAP3 POP PUSH2 0x558 SWAP2 POP DUP11 SWAP1 DUP11 SWAP1 DUP11 SWAP1 DUP11 SWAP1 DUP9 SWAP1 PUSH1 0x4 ADD PUSH2 0xA8D JUMP JUMPDEST PUSH1 0x0 PUSH1 0x40 MLOAD DUP1 DUP4 SUB DUP2 PUSH1 0x0 DUP8 DUP1 EXTCODESIZE ISZERO DUP1 ISZERO PUSH2 0x572 JUMPI PUSH1 0x0 DUP1 REVERT JUMPDEST POP GAS CALL ISZERO DUP1 ISZERO PUSH2 0x27C JUMPI RETURNDATASIZE PUSH1 0x0 DUP1 RETURNDATACOPY RETURNDATASIZE PUSH1 0x0 REVERT JUMPDEST PUSH1 0x2 DUP1 SLOAD PUSH2 0x296 SWAP1 PUSH2 0x994 JUMP JUMPDEST PUSH1 0x0 DUP1 SLOAD PUSH2 0x296 SWAP1 PUSH2 0x994 JUMP JUMPDEST PUSH2 0x5AC DUP2 DUP4 ADD DUP4 PUSH2 0xAEA JUMP JUMPDEST PUSH1 0x0 SWAP1 PUSH2 0x5B9 SWAP1 DUP3 PUSH2 0xBEC JUMP JUMPDEST POP PUSH1 0x1 PUSH2 0x5C7 DUP7 DUP9 DUP4 PUSH2 0xCAC JUMP JUMPDEST POP PUSH1 0x2 PUSH2 0x5D5 DUP5 DUP7 DUP4 PUSH2 0xCAC JUMP JUMPDEST POP PUSH32 0xD97A9033491F569FEB4C72ABF12722B227EEC24EE13547BEC3654F8663FF711 PUSH1 0x2 PUSH1 0x0 PUSH1 0x40 MLOAD PUSH2 0x609 SWAP3 SWAP2 SWAP1 PUSH2 0xDEA JUMP JUMPDEST PUSH1 0x40 MLOAD DUP1 SWAP2 SUB SWAP1 LOG1 POP POP POP POP POP POP JUMP JUMPDEST PUSH1 0x0 DUP1 DUP4 PUSH1 0x1F DUP5 ADD SLT PUSH2 0x62B JUMPI PUSH1 0x0 DUP1 REVERT JUMPDEST POP DUP2 CALLDATALOAD PUSH8 0xFFFFFFFFFFFFFFFF DUP2 GT ISZERO PUSH2 0x643 JUMPI PUSH1 0x0 DUP1 REVERT JUMPDEST PUSH1 0x20 DUP4 ADD SWAP2 POP DUP4 PUSH1 0x20 DUP3 DUP6 ADD ADD GT ISZERO PUSH2 0x65B JUMPI PUSH1 0x0 DUP1 REVERT JUMPDEST SWAP3 POP SWAP3 SWAP1 POP JUMP JUMPDEST PUSH1 0x0 DUP1 PUSH1 0x0 DUP1 PUSH1 0x0 DUP1 PUSH1 0x0 DUP1 PUSH1 0x0 DUP1 PUSH1 0xC0 DUP12 DUP14 SUB SLT ISZERO PUSH2 0x681 JUMPI PUSH1 0x0 DUP1 REVERT JUMPDEST DUP11 CALLDATALOAD SWAP10 POP PUSH1 0x20 DUP12 ADD CALLDATALOAD PUSH8 0xFFFFFFFFFFFFFFFF DUP1 DUP3 GT ISZERO PUSH2 0x6A0 JUMPI PUSH1 0x0 DUP1 REVERT JUMPDEST PUSH2 0x6AC DUP15 DUP4 DUP16 ADD PUSH2 0x619 JUMP JUMPDEST SWAP1 SWAP12 POP SWAP10 POP PUSH1 0x40 DUP14 ADD CALLDATALOAD SWAP2 POP DUP1 DUP3 GT ISZERO PUSH2 0x6C5 JUMPI PUSH1 0x0 DUP1 REVERT JUMPDEST PUSH2 0x6D1 DUP15 DUP4 DUP16 ADD PUSH2 0x619 JUMP JUMPDEST SWAP1 SWAP10 POP SWAP8 POP PUSH1 0x60 DUP14 ADD CALLDATALOAD SWAP2 POP DUP1 DUP3 GT ISZERO PUSH2 0x6EA JUMPI PUSH1 0x0 DUP1 REVERT JUMPDEST PUSH2 0x6F6 DUP15 DUP4 DUP16 ADD PUSH2 0x619 JUMP JUMPDEST SWAP1 SWAP8 POP SWAP6 POP PUSH1 0x80 DUP14 ADD CALLDATALOAD SWAP2 POP DUP1 DUP3 GT ISZERO PUSH2 0x70F JUMPI PUSH1 0x0 DUP1 REVERT JUMPDEST POP PUSH2 0x71C DUP14 DUP3 DUP15 ADD PUSH2 0x619 JUMP JUMPDEST SWAP2 POP DUP1 SWAP5 POP POP DUP1 SWAP3 POP POP PUSH1 0xA0 DUP12 ADD CALLDATALOAD SWAP1 POP SWAP3 SWAP6 SWAP9 SWAP12 SWAP2 SWAP5 SWAP8 SWAP11 POP SWAP3 SWAP6 SWAP9 POP JUMP JUMPDEST PUSH1 0x0 DUP2 MLOAD DUP1 DUP5 MSTORE PUSH1 0x0 JUMPDEST DUP2 DUP2 LT ISZERO PUSH2 0x762 JUMPI PUSH1 0x20 DUP2 DUP6 ADD DUP2 ADD MLOAD DUP7 DUP4 ADD DUP3 ADD MSTORE ADD PUSH2 0x746 JUMP JUMPDEST POP PUSH1 0x0 PUSH1 0x20 DUP3 DUP7 ADD ADD MSTORE PUSH1 0x20 PUSH1 0x1F NOT PUSH1 0x1F DUP4 ADD AND DUP6 ADD ADD SWAP2 POP POP SWAP3 SWAP2 POP POP JUMP JUMPDEST PUSH1 0x20 DUP2 MSTORE PUSH1 0x0 PUSH2 0x795 PUSH1 0x20 DUP4 ADD DUP5 PUSH2 0x73C JUMP JUMPDEST SWAP4 SWAP3 POP POP POP JUMP JUMPDEST PUSH1 0x0 DUP1 PUSH1 0x0 DUP1 PUSH1 0x0 DUP1 PUSH1 0x0 PUSH1 0x80 DUP9 DUP11 SUB SLT ISZERO PUSH2 0x7B7 JUMPI PUSH1 0x0 DUP1 REVERT JUMPDEST DUP8 CALLDATALOAD SWAP7 POP PUSH1 0x20 DUP9 ADD CALLDATALOAD PUSH8 0xFFFFFFFFFFFFFFFF DUP1 DUP3 GT ISZERO PUSH2 0x7D6 JUMPI PUSH1 0x0 DUP1 REVERT JUMPDEST PUSH2 0x7E2 DUP12 DUP4 DUP13 ADD PUSH2 0x619 JUMP JUMPDEST SWAP1 SWAP9 POP SWAP7 POP PUSH1 0x40 DUP11 ADD CALLDATALOAD SWAP2 POP DUP1 DUP3 GT ISZERO PUSH2 0x7FB JUMPI PUSH1 0x0 DUP1 REVERT JUMPDEST PUSH2 0x807 DUP12 DUP4 DUP13 ADD PUSH2 0x619 JUMP JUMPDEST SWAP1 SWAP7 POP SWAP5 POP PUSH1 0x60 DUP11 ADD CALLDATALOAD SWAP2 POP DUP1 DUP3 GT ISZERO PUSH2 0x820 JUMPI PUSH1 0x0 DUP1 REVERT JUMPDEST POP PUSH2 0x82D DUP11 DUP3 DUP12 ADD PUSH2 0x619 JUMP JUMPDEST SWAP9 SWAP12 SWAP8 SWAP11 POP SWAP6 SWAP9 POP SWAP4 SWAP7 SWAP3 SWAP6 SWAP3 SWAP4 POP POP POP JUMP JUMPDEST PUSH1 0x0 DUP1 PUSH1 0x0 DUP1 PUSH1 0x0 DUP1 PUSH1 0x60 DUP8 DUP10 SUB SLT ISZERO PUSH2 0x859 JUMPI PUSH1 0x0 DUP1 REVERT JUMPDEST DUP7 CALLDATALOAD PUSH8 0xFFFFFFFFFFFFFFFF DUP1 DUP3 GT ISZERO PUSH2 0x871 JUMPI PUSH1 0x0 DUP1 REVERT JUMPDEST PUSH2 0x87D DUP11 DUP4 DUP12 ADD PUSH2 0x619 JUMP JUMPDEST SWAP1 SWAP9 POP SWAP7 POP PUSH1 0x20 DUP10 ADD CALLDATALOAD SWAP2 POP DUP1 DUP3 GT ISZERO PUSH2 0x896 JUMPI PUSH1 0x0 DUP1 REVERT JUMPDEST PUSH2 0x8A2 DUP11 DUP4 DUP12 ADD PUSH2 0x619 JUMP JUMPDEST SWAP1 SWAP7 POP SWAP5 POP PUSH1 0x40 DUP10 ADD CALLDATALOAD SWAP2 POP DUP1 DUP3 GT ISZERO PUSH2 0x8BB JUMPI PUSH1 0x0 DUP1 REVERT JUMPDEST POP PUSH2 0x8C8 DUP10 DUP3 DUP11 ADD PUSH2 0x619 JUMP JUMPDEST SWAP8 SWAP11 SWAP7 SWAP10 POP SWAP5 SWAP8 POP SWAP3 SWAP6 SWAP4 SWAP5 SWAP3 POP POP POP JUMP JUMPDEST DUP2 DUP4 DUP3 CALLDATACOPY PUSH1 0x0 SWAP2 ADD SWAP1 DUP2 MSTORE SWAP2 SWAP1 POP JUMP JUMPDEST DUP2 DUP4 MSTORE DUP2 DUP2 PUSH1 0x20 DUP6 ADD CALLDATACOPY POP PUSH1 0x0 DUP3 DUP3 ADD PUSH1 0x20 SWAP1 DUP2 ADD SWAP2 SWAP1 SWAP2 MSTORE PUSH1 0x1F SWAP1 SWAP2 ADD PUSH1 0x1F NOT AND SWAP1 SWAP2 ADD ADD SWAP1 JUMP JUMPDEST DUP10 DUP2 MSTORE PUSH1 0xC0 PUSH1 0x20 DUP3 ADD MSTORE PUSH1 0x0 PUSH2 0x92D PUSH1 0xC0 DUP4 ADD DUP11 DUP13 PUSH2 0x8EA JUMP JUMPDEST DUP3 DUP2 SUB PUSH1 0x40 DUP5 ADD MSTORE PUSH2 0x940 DUP2 DUP10 DUP12 PUSH2 0x8EA JUMP JUMPDEST SWAP1 POP DUP7 PUSH1 0x60 DUP5 ADD MSTORE DUP3 DUP2 SUB PUSH1 0x80 DUP5 ADD MSTORE PUSH2 0x95B DUP2 DUP7 DUP9 PUSH2 0x8EA JUMP JUMPDEST SWAP2 POP POP DUP3 PUSH1 0xA0 DUP4 ADD MSTORE SWAP11 SWAP10 POP POP POP POP POP POP POP POP POP POP JUMP JUMPDEST PUSH1 0x0 PUSH1 0x20 DUP3 DUP5 SUB SLT ISZERO PUSH2 0x984 JUMPI PUSH1 0x0 DUP1 REVERT JUMPDEST DUP2 MLOAD DUP1 ISZERO ISZERO DUP2 EQ PUSH2 0x795 JUMPI PUSH1 0x0 DUP1 REVERT JUMPDEST PUSH1 0x1 DUP2 DUP2 SHR SWAP1 DUP3 AND DUP1 PUSH2 0x9A8 JUMPI PUSH1 0x7F DUP3 AND SWAP2 POP JUMPDEST PUSH1 0x20 DUP3 LT DUP2 SUB PUSH2 0x9C8 JUMPI PUSH4 0x4E487B71 PUSH1 0xE0 SHL PUSH1 0x0 MSTORE PUSH1 0x22 PUSH1 0x4 MSTORE PUSH1 0x24 PUSH1 0x0 REVERT JUMPDEST POP SWAP2 SWAP1 POP JUMP JUMPDEST DUP7 DUP2 MSTORE PUSH1 0x80 PUSH1 0x20 DUP3 ADD MSTORE PUSH1 0x0 PUSH2 0x9E8 PUSH1 0x80 DUP4 ADD DUP8 DUP10 PUSH2 0x8EA JUMP JUMPDEST DUP3 DUP2 SUB PUSH1 0x40 DUP5 ADD MSTORE PUSH2 0x9FB DUP2 DUP7 DUP9 PUSH2 0x8EA JUMP JUMPDEST SWAP2 POP POP DUP3 PUSH1 0x60 DUP4 ADD MSTORE SWAP8 SWAP7 POP POP POP POP POP POP POP JUMP JUMPDEST PUSH1 0x20 DUP2 MSTORE PUSH1 0x0 PUSH2 0xA23 PUSH1 0x20 DUP4 ADD DUP5 DUP7 PUSH2 0x8EA JUMP JUMPDEST SWAP5 SWAP4 POP POP POP POP JUMP JUMPDEST PUSH1 0x0 PUSH1 0x1 DUP1 PUSH1 0xA0 SHL SUB DUP1 DUP11 AND DUP4 MSTORE PUSH1 0xA0 PUSH1 0x20 DUP5 ADD MSTORE PUSH2 0xA4E PUSH1 0xA0 DUP5 ADD DUP10 DUP12 PUSH2 0x8EA JUMP JUMPDEST DUP4 DUP2 SUB PUSH1 0x40 DUP6 ADD MSTORE PUSH2 0xA61 DUP2 DUP9 DUP11 PUSH2 0x8EA JUMP JUMPDEST SWAP1 POP DUP4 DUP2 SUB PUSH1 0x60 DUP6 ADD MSTORE PUSH2 0xA75 DUP2 DUP8 PUSH2 0x73C JUMP JUMPDEST SWAP3 POP POP DUP1 DUP5 AND PUSH1 0x80 DUP5 ADD MSTORE POP SWAP9 SWAP8 POP POP POP POP POP POP POP POP JUMP JUMPDEST PUSH1 0x60 DUP2 MSTORE PUSH1 0x0 PUSH2 0xAA1 PUSH1 0x60 DUP4 ADD DUP8 DUP10 PUSH2 0x8EA JUMP JUMPDEST DUP3 DUP2 SUB PUSH1 0x20 DUP5 ADD MSTORE PUSH2 0xAB4 DUP2 DUP7 DUP9 PUSH2 0x8EA JUMP JUMPDEST SWAP1 POP DUP3 DUP2 SUB PUSH1 0x40 DUP5 ADD MSTORE PUSH2 0xAC8 DUP2 DUP6 PUSH2 0x73C JUMP JUMPDEST SWAP9 SWAP8 POP POP POP POP POP POP POP POP JUMP JUMPDEST PUSH4 0x4E487B71 PUSH1 0xE0 SHL PUSH1 0x0 MSTORE PUSH1 0x41 PUSH1 0x4 MSTORE PUSH1 0x24 PUSH1 0x0 REVERT JUMPDEST PUSH1 0x0 PUSH1 0x20 DUP3 DUP5 SUB SLT ISZERO PUSH2 0xAFC JUMPI PUSH1 0x0 DUP1 REVERT JUMPDEST DUP2 CALLDATALOAD PUSH8 0xFFFFFFFFFFFFFFFF DUP1 DUP3 GT ISZERO PUSH2 0xB14 JUMPI PUSH1 0x0 DUP1 REVERT JUMPDEST DUP2 DUP5 ADD SWAP2 POP DUP5 PUSH1 0x1F DUP4 ADD SLT PUSH2 0xB28 JUMPI PUSH1 0x0 DUP1 REVERT JUMPDEST DUP2 CALLDATALOAD DUP2 DUP2 GT ISZERO PUSH2 0xB3A JUMPI PUSH2 0xB3A PUSH2 0xAD4 JUMP JUMPDEST PUSH1 0x40 MLOAD PUSH1 0x1F DUP3 ADD PUSH1 0x1F NOT SWAP1 DUP2 AND PUSH1 0x3F ADD AND DUP2 ADD SWAP1 DUP4 DUP3 GT DUP2 DUP4 LT OR ISZERO PUSH2 0xB62 JUMPI PUSH2 0xB62 PUSH2 0xAD4 JUMP JUMPDEST DUP2 PUSH1 0x40 MSTORE DUP3 DUP2 MSTORE DUP8 PUSH1 0x20 DUP5 DUP8 ADD ADD GT ISZERO PUSH2 0xB7B JUMPI PUSH1 0x0 DUP1 REVERT JUMPDEST DUP3 PUSH1 0x20 DUP7 ADD PUSH1 0x20 DUP4 ADD CALLDATACOPY PUSH1 0x0 SWAP3 DUP2 ADD PUSH1 0x20 ADD SWAP3 SWAP1 SWAP3 MSTORE POP SWAP6 SWAP5 POP POP POP POP POP JUMP JUMPDEST PUSH1 0x1F DUP3 GT ISZERO PUSH2 0xBE7 JUMPI PUSH1 0x0 DUP2 PUSH1 0x0 MSTORE PUSH1 0x20 PUSH1 0x0 KECCAK256 PUSH1 0x1F DUP6 ADD PUSH1 0x5 SHR DUP2 ADD PUSH1 0x20 DUP7 LT ISZERO PUSH2 0xBC4 JUMPI POP DUP1 JUMPDEST PUSH1 0x1F DUP6 ADD PUSH1 0x5 SHR DUP3 ADD SWAP2 POP JUMPDEST DUP2 DUP2 LT ISZERO PUSH2 0xBE3 JUMPI DUP3 DUP2 SSTORE PUSH1 0x1 ADD PUSH2 0xBD0 JUMP JUMPDEST POP POP POP JUMPDEST POP POP POP JUMP JUMPDEST DUP2 MLOAD PUSH8 0xFFFFFFFFFFFFFFFF DUP2 GT ISZERO PUSH2 0xC06 JUMPI PUSH2 0xC06 PUSH2 0xAD4 JUMP JUMPDEST PUSH2 0xC1A DUP2 PUSH2 0xC14 DUP5 SLOAD PUSH2 0x994 JUMP JUMPDEST DUP5 PUSH2 0xB9B JUMP JUMPDEST PUSH1 0x20 DUP1 PUSH1 0x1F DUP4 GT PUSH1 0x1 DUP2 EQ PUSH2 0xC4F JUMPI PUSH1 0x0 DUP5 ISZERO PUSH2 0xC37 JUMPI POP DUP6 DUP4 ADD MLOAD JUMPDEST PUSH1 0x0 NOT PUSH1 0x3 DUP7 SWAP1 SHL SHR NOT AND PUSH1 0x1 DUP6 SWAP1 SHL OR DUP6 SSTORE PUSH2 0xBE3 JUMP JUMPDEST PUSH1 0x0 DUP6 DUP2 MSTORE PUSH1 0x20 DUP2 KECCAK256 PUSH1 0x1F NOT DUP7 AND SWAP2 JUMPDEST DUP3 DUP2 LT ISZERO PUSH2 0xC7E JUMPI DUP9 DUP7 ADD MLOAD DUP3 SSTORE SWAP5 DUP5 ADD SWAP5 PUSH1 0x1 SWAP1 SWAP2 ADD SWAP1 DUP5 ADD PUSH2 0xC5F JUMP JUMPDEST POP DUP6 DUP3 LT ISZERO PUSH2 0xC9C JUMPI DUP8 DUP6 ADD MLOAD PUSH1 0x0 NOT PUSH1 0x3 DUP9 SWAP1 SHL PUSH1 0xF8 AND SHR NOT AND DUP2 SSTORE JUMPDEST POP POP POP POP POP PUSH1 0x1 SWAP1 DUP2 SHL ADD SWAP1 SSTORE POP JUMP JUMPDEST PUSH8 0xFFFFFFFFFFFFFFFF DUP4 GT ISZERO PUSH2 0xCC4 JUMPI PUSH2 0xCC4 PUSH2 0xAD4 JUMP JUMPDEST PUSH2 0xCD8 DUP4 PUSH2 0xCD2 DUP4 SLOAD PUSH2 0x994 JUMP JUMPDEST DUP4 PUSH2 0xB9B JUMP JUMPDEST PUSH1 0x0 PUSH1 0x1F DUP5 GT PUSH1 0x1 DUP2 EQ PUSH2 0xD0C JUMPI PUSH1 0x0 DUP6 ISZERO PUSH2 0xCF4 JUMPI POP DUP4 DUP3 ADD CALLDATALOAD JUMPDEST PUSH1 0x0 NOT PUSH1 0x3 DUP8 SWAP1 SHL SHR NOT AND PUSH1 0x1 DUP7 SWAP1 SHL OR DUP4 SSTORE PUSH2 0xD66 JUMP JUMPDEST PUSH1 0x0 DUP4 DUP2 MSTORE PUSH1 0x20 SWAP1 KECCAK256 PUSH1 0x1F NOT DUP7 AND SWAP1 DUP4 JUMPDEST DUP3 DUP2 LT ISZERO PUSH2 0xD3D JUMPI DUP7 DUP6 ADD CALLDATALOAD DUP3 SSTORE PUSH1 0x20 SWAP5 DUP6 ADD SWAP5 PUSH1 0x1 SWAP1 SWAP3 ADD SWAP2 ADD PUSH2 0xD1D JUMP JUMPDEST POP DUP7 DUP3 LT ISZERO PUSH2 0xD5A JUMPI PUSH1 0x0 NOT PUSH1 0xF8 DUP9 PUSH1 0x3 SHL AND SHR NOT DUP5 DUP8 ADD CALLDATALOAD AND DUP2 SSTORE JUMPDEST POP POP PUSH1 0x1 DUP6 PUSH1 0x1 SHL ADD DUP4 SSTORE JUMPDEST POP POP POP POP POP JUMP JUMPDEST PUSH1 0x0 DUP2 SLOAD PUSH2 0xD7A DUP2 PUSH2 0x994 JUMP JUMPDEST DUP1 DUP6 MSTORE PUSH1 0x20 PUSH1 0x1 DUP4 DUP2 AND DUP1 ISZERO PUSH2 0xD97 JUMPI PUSH1 0x1 DUP2 EQ PUSH2 0xDB1 JUMPI PUSH2 0xDDF JUMP JUMPDEST PUSH1 0xFF NOT DUP6 AND DUP9 DUP5 ADD MSTORE DUP4 ISZERO ISZERO PUSH1 0x5 SHL DUP9 ADD DUP4 ADD SWAP6 POP PUSH2 0xDDF JUMP JUMPDEST DUP7 PUSH1 0x0 MSTORE DUP3 PUSH1 0x0 KECCAK256 PUSH1 0x0 JUMPDEST DUP6 DUP2 LT ISZERO PUSH2 0xDD7 JUMPI DUP2 SLOAD DUP11 DUP3 ADD DUP7 ADD MSTORE SWAP1 DUP4 ADD SWAP1 DUP5 ADD PUSH2 0xDBC JUMP JUMPDEST DUP10 ADD DUP5 ADD SWAP7 POP POP JUMPDEST POP POP POP POP POP SWAP3 SWAP2 POP POP JUMP JUMPDEST PUSH1 0x40 DUP2 MSTORE PUSH1 0x0 PUSH2 0xDFD PUSH1 0x40 DUP4 ADD DUP6 PUSH2 0xD6D JUMP JUMPDEST DUP3 DUP2 SUB PUSH1 0x20 DUP5 ADD MSTORE PUSH2 0xE0F DUP2 DUP6 PUSH2 0xD6D JUMP JUMPDEST SWAP6 SWAP5 POP POP POP POP POP JUMP INVALID LOG2 PUSH5 0x6970667358 0x22 SLT KECCAK256 GAS PUSH0 PUSH8 0xA7907B8D3C0876F5 BASEFEE 0x2F GASLIMIT MSTORE SWAP7 0x22 SLOAD 0xE6 AND CALLDATASIZE PUSH10 0x3EF99B4B8D5FBEE650F0 PUSH5 0x736F6C6343 STOP ADDMOD XOR STOP CALLER "},"methodIdentifiers":{"execute(bytes32,string,string,bytes)":"49160658","executeWithToken(bytes32,string,string,bytes,string,uint256)":"1a98b2e0","gasService()":"6a22d8cc","gateway()":"116191b6","message()":"e21f37ce","setRemoteValue(string,string,string)":"80d32697","sourceAddress()":"b0fa8444","sourceChain()":"1c6ffa46"}}}}}