{"contracts/lens/MarketLens.sol":{"MarketLens":{"abi":[{"inputs":[{"internalType":"contract ICauldronV2","name":"cauldron","type":"address"}],"name":"getBorrowFee","outputs":[{"internalType":"uint256","name":"","type":"uint256"}],"stateMutability":"view","type":"function"},{"inputs":[{"internalType":"contract ICauldronV2","name":"cauldron","type":"address"}],"name":"getCollateralPrice","outputs":[{"internalType":"uint256","name":"","type":"uint256"}],"stateMutability":"view","type":"function"},{"inputs":[{"internalType":"contract ICauldronV2","name":"cauldron","type":"address"},{"internalType":"address","name":"account","type":"address"},{"internalType":"bool","name":"isStable","type":"bool"}],"name":"getHealthFactor","outputs":[{"internalType":"uint256","name":"","type":"uint256"}],"stateMutability":"view","type":"function"},{"inputs":[{"internalType":"contract ICauldronV2","name":"cauldron","type":"address"}],"name":"getInterestPerYear","outputs":[{"internalType":"uint64","name":"","type":"uint64"}],"stateMutability":"view","type":"function"},{"inputs":[{"internalType":"contract ICauldronV2","name":"cauldron","type":"address"}],"name":"getLiquidationFee","outputs":[{"internalType":"uint256","name":"","type":"uint256"}],"stateMutability":"view","type":"function"},{"inputs":[{"internalType":"contract ICauldronV2","name":"cauldron","type":"address"}],"name":"getMarketInfoCauldronV2","outputs":[{"components":[{"internalType":"address","name":"cauldron","type":"address"},{"internalType":"uint256","name":"borrowFee","type":"uint256"},{"internalType":"uint256","name":"maximumCollateralRatio","type":"uint256"},{"internalType":"uint256","name":"liquidationFee","type":"uint256"},{"internalType":"uint256","name":"interestPerYear","type":"uint256"},{"internalType":"uint256","name":"marketMaxBorrow","type":"uint256"},{"internalType":"uint256","name":"userMaxBorrow","type":"uint256"},{"internalType":"uint256","name":"totalBorrowed","type":"uint256"},{"internalType":"uint256","name":"oracleExchangeRate","type":"uint256"},{"internalType":"uint256","name":"collateralPrice","type":"uint256"},{"components":[{"internalType":"uint256","name":"amount","type":"uint256"},{"internalType":"uint256","name":"value","type":"uint256"}],"internalType":"struct MarketLens.AmountValue","name":"totalCollateral","type":"tuple"}],"internalType":"struct MarketLens.MarketInfo","name":"","type":"tuple"}],"stateMutability":"view","type":"function"},{"inputs":[{"internalType":"contract ICauldronV3","name":"cauldron","type":"address"}],"name":"getMarketInfoCauldronV3","outputs":[{"components":[{"internalType":"address","name":"cauldron","type":"address"},{"internalType":"uint256","name":"borrowFee","type":"uint256"},{"internalType":"uint256","name":"maximumCollateralRatio","type":"uint256"},{"internalType":"uint256","name":"liquidationFee","type":"uint256"},{"internalType":"uint256","name":"interestPerYear","type":"uint256"},{"internalType":"uint256","name":"marketMaxBorrow","type":"uint256"},{"internalType":"uint256","name":"userMaxBorrow","type":"uint256"},{"internalType":"uint256","name":"totalBorrowed","type":"uint256"},{"internalType":"uint256","name":"oracleExchangeRate","type":"uint256"},{"internalType":"uint256","name":"collateralPrice","type":"uint256"},{"components":[{"internalType":"uint256","name":"amount","type":"uint256"},{"internalType":"uint256","name":"value","type":"uint256"}],"internalType":"struct MarketLens.AmountValue","name":"totalCollateral","type":"tuple"}],"internalType":"struct MarketLens.MarketInfo","name":"marketInfo","type":"tuple"}],"stateMutability":"view","type":"function"},{"inputs":[{"internalType":"contract ICauldronV2","name":"cauldron","type":"address"}],"name":"getMaxMarketBorrowForCauldronV2","outputs":[{"internalType":"uint256","name":"","type":"uint256"}],"stateMutability":"view","type":"function"},{"inputs":[{"internalType":"contract ICauldronV3","name":"cauldron","type":"address"}],"name":"getMaxMarketBorrowForCauldronV3","outputs":[{"internalType":"uint256","name":"","type":"uint256"}],"stateMutability":"view","type":"function"},{"inputs":[{"internalType":"contract ICauldronV2","name":"cauldron","type":"address"}],"name":"getMaxUserBorrowForCauldronV2","outputs":[{"internalType":"uint256","name":"","type":"uint256"}],"stateMutability":"view","type":"function"},{"inputs":[{"internalType":"contract ICauldronV3","name":"cauldron","type":"address"}],"name":"getMaxUserBorrowForCauldronV3","outputs":[{"internalType":"uint256","name":"","type":"uint256"}],"stateMutability":"view","type":"function"},{"inputs":[{"internalType":"contract ICauldronV2","name":"cauldron","type":"address"}],"name":"getMaximumCollateralRatio","outputs":[{"internalType":"uint256","name":"","type":"uint256"}],"stateMutability":"view","type":"function"},{"inputs":[{"internalType":"contract ICauldronV2","name":"cauldron","type":"address"}],"name":"getOracleExchangeRate","outputs":[{"internalType":"uint256","name":"","type":"uint256"}],"stateMutability":"view","type":"function"},{"inputs":[{"internalType":"contract IBentoBoxV1","name":"bentoBox","type":"address"},{"internalType":"contract IERC20","name":"token","type":"address"},{"internalType":"address","name":"account","type":"address"}],"name":"getTokenInBentoBox","outputs":[{"internalType":"uint256","name":"share","type":"uint256"},{"internalType":"uint256","name":"amount","type":"uint256"}],"stateMutability":"view","type":"function"},{"inputs":[{"internalType":"contract ICauldronV2","name":"cauldron","type":"address"}],"name":"getTotalBorrowed","outputs":[{"internalType":"uint256","name":"","type":"uint256"}],"stateMutability":"view","type":"function"},{"inputs":[{"internalType":"contract ICauldronV2","name":"cauldron","type":"address"}],"name":"getTotalCollateral","outputs":[{"components":[{"internalType":"uint256","name":"amount","type":"uint256"},{"internalType":"uint256","name":"value","type":"uint256"}],"internalType":"struct MarketLens.AmountValue","name":"","type":"tuple"}],"stateMutability":"view","type":"function"},{"inputs":[{"internalType":"contract ICauldronV2","name":"cauldron","type":"address"},{"internalType":"address","name":"account","type":"address"}],"name":"getUserBorrow","outputs":[{"internalType":"uint256","name":"","type":"uint256"}],"stateMutability":"view","type":"function"},{"inputs":[{"internalType":"contract ICauldronV2","name":"cauldron","type":"address"},{"internalType":"address","name":"account","type":"address"}],"name":"getUserCollateral","outputs":[{"components":[{"internalType":"uint256","name":"amount","type":"uint256"},{"internalType":"uint256","name":"value","type":"uint256"}],"internalType":"struct MarketLens.AmountValue","name":"","type":"tuple"}],"stateMutability":"view","type":"function"},{"inputs":[{"internalType":"contract ICauldronV2","name":"cauldron","type":"address"},{"internalType":"address","name":"account","type":"address"}],"name":"getUserLiquidationPrice","outputs":[{"internalType":"uint256","name":"liquidationPrice","type":"uint256"}],"stateMutability":"view","type":"function"},{"inputs":[{"internalType":"contract ICauldronV2","name":"cauldron","type":"address"},{"internalType":"address","name":"account","type":"address"}],"name":"getUserLtv","outputs":[{"internalType":"uint256","name":"ltvBps","type":"uint256"}],"stateMutability":"view","type":"function"},{"inputs":[{"internalType":"contract ICauldronV2","name":"cauldron","type":"address"},{"internalType":"address","name":"account","type":"address"}],"name":"getUserMaxBorrow","outputs":[{"internalType":"uint256","name":"","type":"uint256"}],"stateMutability":"view","type":"function"},{"inputs":[{"internalType":"contract ICauldronV2","name":"cauldron","type":"address"},{"internalType":"address","name":"account","type":"address"}],"name":"getUserPosition","outputs":[{"components":[{"internalType":"address","name":"cauldron","type":"address"},{"internalType":"address","name":"account","type":"address"},{"internalType":"uint256","name":"ltvBps","type":"uint256"},{"internalType":"uint256","name":"healthFactor","type":"uint256"},{"internalType":"uint256","name":"borrowValue","type":"uint256"},{"components":[{"internalType":"uint256","name":"amount","type":"uint256"},{"internalType":"uint256","name":"value","type":"uint256"}],"internalType":"struct MarketLens.AmountValue","name":"collateral","type":"tuple"},{"internalType":"uint256","name":"liquidationPrice","type":"uint256"}],"internalType":"struct MarketLens.UserPosition","name":"","type":"tuple"}],"stateMutability":"view","type":"function"},{"inputs":[{"internalType":"contract ICauldronV2","name":"cauldron","type":"address"},{"internalType":"address[]","name":"accounts","type":"address[]"}],"name":"getUserPositions","outputs":[{"components":[{"internalType":"address","name":"cauldron","type":"address"},{"internalType":"address","name":"account","type":"address"},{"internalType":"uint256","name":"ltvBps","type":"uint256"},{"internalType":"uint256","name":"healthFactor","type":"uint256"},{"internalType":"uint256","name":"borrowValue","type":"uint256"},{"components":[{"internalType":"uint256","name":"amount","type":"uint256"},{"internalType":"uint256","name":"value","type":"uint256"}],"internalType":"struct MarketLens.AmountValue","name":"collateral","type":"tuple"},{"internalType":"uint256","name":"liquidationPrice","type":"uint256"}],"internalType":"struct MarketLens.UserPosition[]","name":"positions","type":"tuple[]"}],"stateMutability":"view","type":"function"}],"evm":{"bytecode":{"linkReferences":{},"object":"608060405234801561001057600080fd5b506120b2806100206000396000f3fe608060405234801561001057600080fd5b506004361061014d5760003560e01c806392a576e6116100c3578063cdb596441161007c578063cdb59644146102d5578063d33a2491146102e8578063d9630993146102fb578063dc6f1caa1461030e578063ee3b1eb914610336578063f79a987a1461035657600080fd5b806392a576e61461025c5780639406aea11461027c578063945ebb911461028f578063a55e8668146102a2578063bbd1b02814610210578063c1cd378f146102b557600080fd5b806360a98b801161011557806360a98b80146101dd57806361acf8d5146101fd57806366e3a4541461021057806373d0456014610223578063842126351461023657806387426a841461024957600080fd5b80631e713a37146101525780633548ada014610178578063397938dd146101a457806342d3fd08146101b757806351a40994146101ca575b600080fd5b61016561016036600461190d565b610369565b6040519081526020015b60405180910390f35b61018b610186366004611946565b610382565b60405167ffffffffffffffff909116815260200161016f565b6101656101b2366004611963565b6103fb565b6101656101c536600461190d565b61042e565b6101656101d8366004611946565b610446565b6101f06101eb366004611946565b610457565b60405161016f91906119b3565b61016561020b366004611946565b61064a565b61016561021e366004611946565b6106d9565b610165610231366004611946565b6106e4565b610165610244366004611946565b610781565b610165610257366004611946565b61079c565b61026f61026a36600461190d565b61081b565b60405161016f9190611a2c565b61016561028a366004611946565b6108a9565b61016561029d366004611946565b6108b4565b6101f06102b036600461190d565b6109cd565b6102c86102c3366004611946565b610a09565b60405161016f9190611a3b565b6101656102e336600461190d565b610ac5565b6101656102f636600461190d565b610ad1565b6102c8610309366004611946565b610b0a565b61032161031c366004611ad0565b610b3e565b6040805192835260208301919091520161016f565b610349610344366004611b10565b610c33565b60405161016f9190611b98565b610165610364366004611946565b610ced565b60006103758383610d34565b5093979650505050505050565b600080826001600160a01b031663b27c0e746040518163ffffffff1660e01b8152600401606060405180830381865afa1580156103c3573d6000803e3d6000fd5b505050506040513d601f19601f820116820180604052508101906103e79190611c1b565b925050506103f481610f06565b9392505050565b6000806104088585610d34565b505050509150508261041a5780610425565b61042581600a611c74565b95945050505050565b600061043a8383610d34565b50979650505050505050565b600061045182610f22565b92915050565b60408051808201909152600080825260208201526000826001600160a01b0316636b2ace876040518163ffffffff1660e01b8152600401602060405180830381865afa1580156104ab573d6000803e3d6000fd5b505050506040513d601f19601f820116820180604052508101906104cf9190611c8b565b90506000816001600160a01b03166356623118856001600160a01b031663d8dfeb456040518163ffffffff1660e01b8152600401602060405180830381865afa158015610520573d6000803e3d6000fd5b505050506040513d601f19601f820116820180604052508101906105449190611c8b565b866001600160a01b031663473e3ce76040518163ffffffff1660e01b8152600401602060405180830381865afa158015610582573d6000803e3d6000fd5b505050506040513d601f19601f820116820180604052508101906105a69190611ca8565b60006040518463ffffffff1660e01b81526004016105c693929190611cc1565b602060405180830381865afa1580156105e3573d6000803e3d6000fd5b505050506040513d601f19601f820116820180604052508101906106079190611ca8565b90506000610614856108a9565b610626670de0b6b3a764000084611c74565b6106309190611cfa565b604080518082019091529283526020830152509392505050565b600080620186a0836001600160a01b0316636ec097fb6040518163ffffffff1660e01b8152600401602060405180830381865afa15801561068f573d6000803e3d6000fd5b505050506040513d601f19601f820116820180604052508101906106b39190611ca8565b6106bd9190611d0e565b9050620186a06106cf61271083611c74565b6103f49190611cfa565b600061045182610fbd565b600080826001600160a01b031663e551d11d6040518163ffffffff1660e01b81526004016040805180830381865afa158015610724573d6000803e3d6000fd5b505050506040513d601f19601f820116820180604052508101906107489190611d21565b506001600160801b03169050600061075f84610fbd565b905060006107758361077087610781565b611175565b9050610425828261118f565b600061078c826111a5565b516001600160801b031692915050565b6000620186a0612710836001600160a01b031663aba024f46040518163ffffffff1660e01b8152600401602060405180830381865afa1580156107e3573d6000803e3d6000fd5b505050506040513d601f19601f820116820180604052508101906108079190611ca8565b6108119190611c74565b6104519190611cfa565b61082361180e565b6000806000806000806108368989610d34565b9550955095509550955095506040518060e001604052808a6001600160a01b03168152602001896001600160a01b03168152602001878152602001868152602001858152602001604051806040016040528084815260200186815250815260200183815250965050505050505092915050565b600061045182611321565b6000806000836001600160a01b031663e551d11d6040518163ffffffff1660e01b81526004016040805180830381865afa1580156108f6573d6000803e3d6000fd5b505050506040513d601f19601f8201168201806040525081019061091a9190611d21565b604080516003808252608082019092526001600160801b0393841695509190921692506000916020820160608036833701905050905061095985610fbd565b8160008151811061096c5761096c611d6a565b6020026020010181815250506109858361077087610781565b8160018151811061099857610998611d6a565b60200260200101818152505081816002815181106109b8576109b8611d6a565b60200260200101818152505061042581611460565b60408051808201909152600080825260208201526000806109ee85856114dd565b60408051808201909152918252602082015295945050505050565b610a11611878565b604051806101600160405280836001600160a01b03168152602001610a358461079c565b8152602001610a4384610ced565b8152602001610a518461064a565b8152602001610a5f84610382565b67ffffffffffffffff168152602001610a77846106d9565b8152602001610a85846106d9565b8152602001610a9384610781565b8152602001610aa1846108a9565b8152602001610aaf84610446565b8152602001610abd84610457565b905292915050565b60006103f483836116bb565b600080610ade84846114dd565b915050620186a0610aee85610ced565b610af89083611c74565b610b029190611cfa565b949350505050565b610b12611878565b610b1b82610a09565b9050610b26826106e4565b60a0820152610b34826108b4565b60c0820152919050565b604051633de222bb60e21b81526001600160a01b0383811660048301528281166024830152600091829186169063f7888aec90604401602060405180830381865afa158015610b91573d6000803e3d6000fd5b505050506040513d601f19601f82011682018060405250810190610bb59190611ca8565b604051630acc462360e31b81526001600160a01b03871690635662311890610be69088908790600090600401611cc1565b602060405180830381865afa158015610c03573d6000803e3d6000fd5b505050506040513d601f19601f82011682018060405250810190610c279190611ca8565b91509150935093915050565b60608167ffffffffffffffff811115610c4e57610c4e611d54565b604051908082528060200260200182016040528015610c8757816020015b610c7461180e565b815260200190600190039081610c6c5790505b50905060005b82811015610ce557610cc085858584818110610cab57610cab611d6a565b905060200201602081019061026a9190611946565b828281518110610cd257610cd2611d6a565b6020908102919091010152600101610c8d565b509392505050565b6000620186a0612710836001600160a01b031663c7ee2a7b6040518163ffffffff1660e01b8152600401602060405180830381865afa1580156107e3573d6000803e3d6000fd5b600080600080600080610d4788886114dd565b93509050610d5588886116bb565b93508215610efc5782610d6a61271086611c74565b610d749190611cfa565b95506000886001600160a01b031663c7ee2a7b6040518163ffffffff1660e01b8152600401602060405180830381865afa158015610db6573d6000803e3d6000fd5b505050506040513d601f19601f82011682018060405250810190610dda9190611ca8565b90506000896001600160a01b031663d8dfeb456040518163ffffffff1660e01b8152600401602060405180830381865afa158015610e1c573d6000803e3d6000fd5b505050506040513d601f19601f82011682018060405250810190610e409190611c8b565b90506000610e56826001600160a01b0316611756565b610e6190600a611e64565b9050670de0b6b3a76400008484610e79600285611e64565b610e83908b611c74565b610e9090620186a0611c74565b610e9a9190611cfa565b610ea49190611cfa565b610eae9190611cfa565b9450610ef6670de0b6b3a7640000610ec7600284611e64565b610ed08e611321565b610ee289670de0b6b3a7640000611c74565b610eec9190611c74565b6107709190611cfa565b97505050505b9295509295509295565b60006312e337ee610f18836064611e73565b6104519190611e97565b600080826001600160a01b031663d8dfeb456040518163ffffffff1660e01b8152600401602060405180830381865afa158015610f63573d6000803e3d6000fd5b505050506040513d601f19601f82011682018060405250810190610f879190611c8b565b90506000610f9d826001600160a01b0316611756565b610fa890600a611e64565b9050610fb384611321565b610af88280611c74565b600080826001600160a01b0316636b2ace876040518163ffffffff1660e01b8152600401602060405180830381865afa158015610ffe573d6000803e3d6000fd5b505050506040513d601f19601f820116820180604052508101906110229190611c8b565b90506000836001600160a01b0316639b352ae16040518163ffffffff1660e01b8152600401602060405180830381865afa158015611064573d6000803e3d6000fd5b505050506040513d601f19601f820116820180604052508101906110889190611c8b565b604051633de222bb60e21b81526001600160a01b038083166004830152868116602483015291925060009184169063f7888aec90604401602060405180830381865afa1580156110dc573d6000803e3d6000fd5b505050506040513d601f19601f820116820180604052508101906111009190611ca8565b604051630acc462360e31b81529091506001600160a01b038416906356623118906111349085908590600090600401611cc1565b602060405180830381865afa158015611151573d6000803e3d6000fd5b505050506040513d601f19601f820116820180604052508101906104259190611ca8565b60008183116111855760006103f4565b6103f48284611d0e565b600081831061119e57816103f4565b5090919050565b6040805180820190915260008082526020820152816001600160a01b0316638285ef406040518163ffffffff1660e01b81526004016040805180830381865afa1580156111f6573d6000803e3d6000fd5b505050506040513d601f19601f8201168201806040525081019061121a9190611ebe565b9050600080836001600160a01b031663b27c0e746040518163ffffffff1660e01b8152600401606060405180830381865afa15801561125d573d6000803e3d6000fd5b505050506040513d601f19601f820116820180604052508101906112819190611c1b565b925050915060008267ffffffffffffffff164261129e9190611d0e565b905080158015906112bb575060208401516001600160801b031615155b1561131957670de0b6b3a7640000818367ffffffffffffffff1686600001516001600160801b03166112ed9190611c74565b6112f79190611c74565b6113019190611cfa565b845161130d9190611f19565b6001600160801b031684525b505050919050565b600080826001600160a01b0316637dc0d1d06040518163ffffffff1660e01b8152600401602060405180830381865afa158015611362573d6000803e3d6000fd5b505050506040513d601f19601f820116820180604052508101906113869190611c8b565b90506000836001600160a01b03166374645ff36040518163ffffffff1660e01b8152600401600060405180830381865afa1580156113c8573d6000803e3d6000fd5b505050506040513d6000823e601f3d908101601f191682016040526113f09190810190611f5d565b604051630d39bbef60e41b81529091506001600160a01b0383169063d39bbef09061141f90849060040161200a565b602060405180830381865afa15801561143c573d6000803e3d6000fd5b505050506040513d601f19601f82011682018060405250810190610b029190611ca8565b6000808260008151811061147657611476611d6a565b602002602001015190506000600190505b83518110156114d657818482815181106114a3576114a3611d6a565b602002602001015110156114ce578381815181106114c3576114c3611d6a565b602002602001015191505b600101611487565b5092915050565b6000806000846001600160a01b0316636b2ace876040518163ffffffff1660e01b8152600401602060405180830381865afa158015611520573d6000803e3d6000fd5b505050506040513d601f19601f820116820180604052508101906115449190611c8b565b604051631c9e379b60e01b81526001600160a01b038681166004830152919250600091871690631c9e379b90602401602060405180830381865afa158015611590573d6000803e3d6000fd5b505050506040513d601f19601f820116820180604052508101906115b49190611ca8565b9050816001600160a01b03166356623118876001600160a01b031663d8dfeb456040518163ffffffff1660e01b8152600401602060405180830381865afa158015611603573d6000803e3d6000fd5b505050506040513d601f19601f820116820180604052508101906116279190611c8b565b8360006040518463ffffffff1660e01b815260040161164893929190611cc1565b602060405180830381865afa158015611665573d6000803e3d6000fd5b505050506040513d601f19601f820116820180604052508101906116899190611ca8565b935061169486611321565b6116a6670de0b6b3a764000086611c74565b6116b09190611cfa565b925050509250929050565b6000806116c7846111a5565b602081015181516040516324720b1f60e11b81526001600160a01b0387811660048301529394506001600160801b039283169392909116918716906348e4163e90602401602060405180830381865afa158015611728573d6000803e3d6000fd5b505050506040513d601f19601f8201168201806040525081019061174c9190611ca8565b610af89190611c74565b60408051600481526024810182526020810180516001600160e01b031663313ce56760e01b1790529051600091829182916001600160a01b0386169161179c919061203d565b600060405180830381855afa9150503d80600081146117d7576040519150601f19603f3d011682016040523d82523d6000602084013e6117dc565b606091505b50915091508180156117ef575080516020145b6117fa576012610b02565b80806020019051810190610b029190612059565b6040518060e0016040528060006001600160a01b0316815260200160006001600160a01b0316815260200160008152602001600081526020016000815260200161186b604051806040016040528060008152602001600081525090565b8152602001600081525090565b60405180610160016040528060006001600160a01b031681526020016000815260200160008152602001600081526020016000815260200160008152602001600081526020016000815260200160008152602001600081526020016118f0604051806040016040528060008152602001600081525090565b905290565b6001600160a01b038116811461190a57600080fd5b50565b6000806040838503121561192057600080fd5b823561192b816118f5565b9150602083013561193b816118f5565b809150509250929050565b60006020828403121561195857600080fd5b81356103f4816118f5565b60008060006060848603121561197857600080fd5b8335611983816118f5565b92506020840135611993816118f5565b9150604084013580151581146119a857600080fd5b809150509250925092565b815181526020808301519082015260408101610451565b60018060a01b038082511683528060208301511660208401525060408101516040830152606081015160608301526080810151608083015260a0810151611a1e60a084018280518252602090810151910152565b5060c0015160e09190910152565b610100810161045182846119ca565b81516001600160a01b0316815261018081016020830151602083015260408301516040830152606083015160608301526080830151608083015260a083015160a083015260c083015160c083015260e083015160e083015261010080840151818401525061012080840151818401525061014080840151611ac88285018280518252602090810151910152565b505092915050565b600080600060608486031215611ae557600080fd5b8335611af0816118f5565b92506020840135611b00816118f5565b915060408401356119a8816118f5565b600080600060408486031215611b2557600080fd5b8335611b30816118f5565b9250602084013567ffffffffffffffff80821115611b4d57600080fd5b818601915086601f830112611b6157600080fd5b813581811115611b7057600080fd5b8760208260051b8501011115611b8557600080fd5b6020830194508093505050509250925092565b6020808252825182820181905260009190848201906040850190845b81811015611bdb57611bc78385516119ca565b928401926101009290920191600101611bb4565b50909695505050505050565b805167ffffffffffffffff81168114611bff57600080fd5b919050565b80516001600160801b0381168114611bff57600080fd5b600080600060608486031215611c3057600080fd5b611c3984611be7565b9250611c4760208501611c04565b9150611c5560408501611be7565b90509250925092565b634e487b7160e01b600052601160045260246000fd5b808202811582820484141761045157610451611c5e565b600060208284031215611c9d57600080fd5b81516103f4816118f5565b600060208284031215611cba57600080fd5b5051919050565b6001600160a01b0393909316835260208301919091521515604082015260600190565b634e487b7160e01b600052601260045260246000fd5b600082611d0957611d09611ce4565b500490565b8181038181111561045157610451611c5e565b60008060408385031215611d3457600080fd5b611d3d83611c04565b9150611d4b60208401611c04565b90509250929050565b634e487b7160e01b600052604160045260246000fd5b634e487b7160e01b600052603260045260246000fd5b600181815b80851115611dbb578160001904821115611da157611da1611c5e565b80851615611dae57918102915b93841c9390800290611d85565b509250929050565b600082611dd257506001610451565b81611ddf57506000610451565b8160018114611df55760028114611dff57611e1b565b6001915050610451565b60ff841115611e1057611e10611c5e565b50506001821b610451565b5060208310610133831016604e8410600b8410161715611e3e575081810a610451565b611e488383611d80565b8060001904821115611e5c57611e5c611c5e565b029392505050565b60006103f460ff841683611dc3565b67ffffffffffffffff818116838216028082169190828114611ac857611ac8611c5e565b600067ffffffffffffffff80841680611eb257611eb2611ce4565b92169190910492915050565b600060408284031215611ed057600080fd5b6040516040810181811067ffffffffffffffff82111715611ef357611ef3611d54565b604052611eff83611c04565b8152611f0d60208401611c04565b60208201529392505050565b6001600160801b038181168382160190808211156114d6576114d6611c5e565b60005b83811015611f54578181015183820152602001611f3c565b50506000910152565b600060208284031215611f6f57600080fd5b815167ffffffffffffffff80821115611f8757600080fd5b818401915084601f830112611f9b57600080fd5b815181811115611fad57611fad611d54565b604051601f8201601f19908116603f01168101908382118183101715611fd557611fd5611d54565b81604052828152876020848701011115611fee57600080fd5b611fff836020830160208801611f39565b979650505050505050565b6020815260008251806020840152612029816040850160208701611f39565b601f01601f19169190910160400192915050565b6000825161204f818460208701611f39565b9190910192915050565b60006020828403121561206b57600080fd5b815160ff811681146103f457600080fdfea26469706673582212203cedd076f2bf4378cff17a0c48770ccbffc846be94527b71681aeacf897d963a64736f6c63430008180033","opcodes":"PUSH1 0x80 PUSH1 0x40 MSTORE CALLVALUE DUP1 ISZERO PUSH2 0x10 JUMPI PUSH1 0x0 DUP1 REVERT JUMPDEST POP PUSH2 0x20B2 DUP1 PUSH2 0x20 PUSH1 0x0 CODECOPY PUSH1 0x0 RETURN INVALID PUSH1 0x80 PUSH1 0x40 MSTORE CALLVALUE DUP1 ISZERO PUSH2 0x10 JUMPI PUSH1 0x0 DUP1 REVERT JUMPDEST POP PUSH1 0x4 CALLDATASIZE LT PUSH2 0x14D JUMPI PUSH1 0x0 CALLDATALOAD PUSH1 0xE0 SHR DUP1 PUSH4 0x92A576E6 GT PUSH2 0xC3 JUMPI DUP1 PUSH4 0xCDB59644 GT PUSH2 0x7C JUMPI DUP1 PUSH4 0xCDB59644 EQ PUSH2 0x2D5 JUMPI DUP1 PUSH4 0xD33A2491 EQ PUSH2 0x2E8 JUMPI DUP1 PUSH4 0xD9630993 EQ PUSH2 0x2FB JUMPI DUP1 PUSH4 0xDC6F1CAA EQ PUSH2 0x30E JUMPI DUP1 PUSH4 0xEE3B1EB9 EQ PUSH2 0x336 JUMPI DUP1 PUSH4 0xF79A987A EQ PUSH2 0x356 JUMPI PUSH1 0x0 DUP1 REVERT JUMPDEST DUP1 PUSH4 0x92A576E6 EQ PUSH2 0x25C JUMPI DUP1 PUSH4 0x9406AEA1 EQ PUSH2 0x27C JUMPI DUP1 PUSH4 0x945EBB91 EQ PUSH2 0x28F JUMPI DUP1 PUSH4 0xA55E8668 EQ PUSH2 0x2A2 JUMPI DUP1 PUSH4 0xBBD1B028 EQ PUSH2 0x210 JUMPI DUP1 PUSH4 0xC1CD378F EQ PUSH2 0x2B5 JUMPI PUSH1 0x0 DUP1 REVERT JUMPDEST DUP1 PUSH4 0x60A98B80 GT PUSH2 0x115 JUMPI DUP1 PUSH4 0x60A98B80 EQ PUSH2 0x1DD JUMPI DUP1 PUSH4 0x61ACF8D5 EQ PUSH2 0x1FD JUMPI DUP1 PUSH4 0x66E3A454 EQ PUSH2 0x210 JUMPI DUP1 PUSH4 0x73D04560 EQ PUSH2 0x223 JUMPI DUP1 PUSH4 0x84212635 EQ PUSH2 0x236 JUMPI DUP1 PUSH4 0x87426A84 EQ PUSH2 0x249 JUMPI PUSH1 0x0 DUP1 REVERT JUMPDEST DUP1 PUSH4 0x1E713A37 EQ PUSH2 0x152 JUMPI DUP1 PUSH4 0x3548ADA0 EQ PUSH2 0x178 JUMPI DUP1 PUSH4 0x397938DD EQ PUSH2 0x1A4 JUMPI DUP1 PUSH4 0x42D3FD08 EQ PUSH2 0x1B7 JUMPI DUP1 PUSH4 0x51A40994 EQ PUSH2 0x1CA JUMPI JUMPDEST PUSH1 0x0 DUP1 REVERT JUMPDEST PUSH2 0x165 PUSH2 0x160 CALLDATASIZE PUSH1 0x4 PUSH2 0x190D JUMP JUMPDEST PUSH2 0x369 JUMP JUMPDEST PUSH1 0x40 MLOAD SWAP1 DUP2 MSTORE PUSH1 0x20 ADD JUMPDEST PUSH1 0x40 MLOAD DUP1 SWAP2 SUB SWAP1 RETURN JUMPDEST PUSH2 0x18B PUSH2 0x186 CALLDATASIZE PUSH1 0x4 PUSH2 0x1946 JUMP JUMPDEST PUSH2 0x382 JUMP JUMPDEST PUSH1 0x40 MLOAD PUSH8 0xFFFFFFFFFFFFFFFF SWAP1 SWAP2 AND DUP2 MSTORE PUSH1 0x20 ADD PUSH2 0x16F JUMP JUMPDEST PUSH2 0x165 PUSH2 0x1B2 CALLDATASIZE PUSH1 0x4 PUSH2 0x1963 JUMP JUMPDEST PUSH2 0x3FB JUMP JUMPDEST PUSH2 0x165 PUSH2 0x1C5 CALLDATASIZE PUSH1 0x4 PUSH2 0x190D JUMP JUMPDEST PUSH2 0x42E JUMP JUMPDEST PUSH2 0x165 PUSH2 0x1D8 CALLDATASIZE PUSH1 0x4 PUSH2 0x1946 JUMP JUMPDEST PUSH2 0x446 JUMP JUMPDEST PUSH2 0x1F0 PUSH2 0x1EB CALLDATASIZE PUSH1 0x4 PUSH2 0x1946 JUMP JUMPDEST PUSH2 0x457 JUMP JUMPDEST PUSH1 0x40 MLOAD PUSH2 0x16F SWAP2 SWAP1 PUSH2 0x19B3 JUMP JUMPDEST PUSH2 0x165 PUSH2 0x20B CALLDATASIZE PUSH1 0x4 PUSH2 0x1946 JUMP JUMPDEST PUSH2 0x64A JUMP JUMPDEST PUSH2 0x165 PUSH2 0x21E CALLDATASIZE PUSH1 0x4 PUSH2 0x1946 JUMP JUMPDEST PUSH2 0x6D9 JUMP JUMPDEST PUSH2 0x165 PUSH2 0x231 CALLDATASIZE PUSH1 0x4 PUSH2 0x1946 JUMP JUMPDEST PUSH2 0x6E4 JUMP JUMPDEST PUSH2 0x165 PUSH2 0x244 CALLDATASIZE PUSH1 0x4 PUSH2 0x1946 JUMP JUMPDEST PUSH2 0x781 JUMP JUMPDEST PUSH2 0x165 PUSH2 0x257 CALLDATASIZE PUSH1 0x4 PUSH2 0x1946 JUMP JUMPDEST PUSH2 0x79C JUMP JUMPDEST PUSH2 0x26F PUSH2 0x26A CALLDATASIZE PUSH1 0x4 PUSH2 0x190D JUMP JUMPDEST PUSH2 0x81B JUMP JUMPDEST PUSH1 0x40 MLOAD PUSH2 0x16F SWAP2 SWAP1 PUSH2 0x1A2C JUMP JUMPDEST PUSH2 0x165 PUSH2 0x28A CALLDATASIZE PUSH1 0x4 PUSH2 0x1946 JUMP JUMPDEST PUSH2 0x8A9 JUMP JUMPDEST PUSH2 0x165 PUSH2 0x29D CALLDATASIZE PUSH1 0x4 PUSH2 0x1946 JUMP JUMPDEST PUSH2 0x8B4 JUMP JUMPDEST PUSH2 0x1F0 PUSH2 0x2B0 CALLDATASIZE PUSH1 0x4 PUSH2 0x190D JUMP JUMPDEST PUSH2 0x9CD JUMP JUMPDEST PUSH2 0x2C8 PUSH2 0x2C3 CALLDATASIZE PUSH1 0x4 PUSH2 0x1946 JUMP JUMPDEST PUSH2 0xA09 JUMP JUMPDEST PUSH1 0x40 MLOAD PUSH2 0x16F SWAP2 SWAP1 PUSH2 0x1A3B JUMP JUMPDEST PUSH2 0x165 PUSH2 0x2E3 CALLDATASIZE PUSH1 0x4 PUSH2 0x190D JUMP JUMPDEST PUSH2 0xAC5 JUMP JUMPDEST PUSH2 0x165 PUSH2 0x2F6 CALLDATASIZE PUSH1 0x4 PUSH2 0x190D JUMP JUMPDEST PUSH2 0xAD1 JUMP JUMPDEST PUSH2 0x2C8 PUSH2 0x309 CALLDATASIZE PUSH1 0x4 PUSH2 0x1946 JUMP JUMPDEST PUSH2 0xB0A JUMP JUMPDEST PUSH2 0x321 PUSH2 0x31C CALLDATASIZE PUSH1 0x4 PUSH2 0x1AD0 JUMP JUMPDEST PUSH2 0xB3E JUMP JUMPDEST PUSH1 0x40 DUP1 MLOAD SWAP3 DUP4 MSTORE PUSH1 0x20 DUP4 ADD SWAP2 SWAP1 SWAP2 MSTORE ADD PUSH2 0x16F JUMP JUMPDEST PUSH2 0x349 PUSH2 0x344 CALLDATASIZE PUSH1 0x4 PUSH2 0x1B10 JUMP JUMPDEST PUSH2 0xC33 JUMP JUMPDEST PUSH1 0x40 MLOAD PUSH2 0x16F SWAP2 SWAP1 PUSH2 0x1B98 JUMP JUMPDEST PUSH2 0x165 PUSH2 0x364 CALLDATASIZE PUSH1 0x4 PUSH2 0x1946 JUMP JUMPDEST PUSH2 0xCED JUMP JUMPDEST PUSH1 0x0 PUSH2 0x375 DUP4 DUP4 PUSH2 0xD34 JUMP JUMPDEST POP SWAP4 SWAP8 SWAP7 POP POP POP POP POP POP POP JUMP JUMPDEST PUSH1 0x0 DUP1 DUP3 PUSH1 0x1 PUSH1 0x1 PUSH1 0xA0 SHL SUB AND PUSH4 0xB27C0E74 PUSH1 0x40 MLOAD DUP2 PUSH4 0xFFFFFFFF AND PUSH1 0xE0 SHL DUP2 MSTORE PUSH1 0x4 ADD PUSH1 0x60 PUSH1 0x40 MLOAD DUP1 DUP4 SUB DUP2 DUP7 GAS STATICCALL ISZERO DUP1 ISZERO PUSH2 0x3C3 JUMPI RETURNDATASIZE PUSH1 0x0 DUP1 RETURNDATACOPY RETURNDATASIZE PUSH1 0x0 REVERT JUMPDEST POP POP POP POP PUSH1 0x40 MLOAD RETURNDATASIZE PUSH1 0x1F NOT PUSH1 0x1F DUP3 ADD AND DUP3 ADD DUP1 PUSH1 0x40 MSTORE POP DUP2 ADD SWAP1 PUSH2 0x3E7 SWAP2 SWAP1 PUSH2 0x1C1B JUMP JUMPDEST SWAP3 POP POP POP PUSH2 0x3F4 DUP2 PUSH2 0xF06 JUMP JUMPDEST SWAP4 SWAP3 POP POP POP JUMP JUMPDEST PUSH1 0x0 DUP1 PUSH2 0x408 DUP6 DUP6 PUSH2 0xD34 JUMP JUMPDEST POP POP POP POP SWAP2 POP POP DUP3 PUSH2 0x41A JUMPI DUP1 PUSH2 0x425 JUMP JUMPDEST PUSH2 0x425 DUP2 PUSH1 0xA PUSH2 0x1C74 JUMP JUMPDEST SWAP6 SWAP5 POP POP POP POP POP JUMP JUMPDEST PUSH1 0x0 PUSH2 0x43A DUP4 DUP4 PUSH2 0xD34 JUMP JUMPDEST POP SWAP8 SWAP7 POP POP POP POP POP POP POP JUMP JUMPDEST PUSH1 0x0 PUSH2 0x451 DUP3 PUSH2 0xF22 JUMP JUMPDEST SWAP3 SWAP2 POP POP JUMP JUMPDEST PUSH1 0x40 DUP1 MLOAD DUP1 DUP3 ADD SWAP1 SWAP2 MSTORE PUSH1 0x0 DUP1 DUP3 MSTORE PUSH1 0x20 DUP3 ADD MSTORE PUSH1 0x0 DUP3 PUSH1 0x1 PUSH1 0x1 PUSH1 0xA0 SHL SUB AND PUSH4 0x6B2ACE87 PUSH1 0x40 MLOAD DUP2 PUSH4 0xFFFFFFFF AND PUSH1 0xE0 SHL DUP2 MSTORE PUSH1 0x4 ADD PUSH1 0x20 PUSH1 0x40 MLOAD DUP1 DUP4 SUB DUP2 DUP7 GAS STATICCALL ISZERO DUP1 ISZERO PUSH2 0x4AB JUMPI RETURNDATASIZE PUSH1 0x0 DUP1 RETURNDATACOPY RETURNDATASIZE PUSH1 0x0 REVERT JUMPDEST POP POP POP POP PUSH1 0x40 MLOAD RETURNDATASIZE PUSH1 0x1F NOT PUSH1 0x1F DUP3 ADD AND DUP3 ADD DUP1 PUSH1 0x40 MSTORE POP DUP2 ADD SWAP1 PUSH2 0x4CF SWAP2 SWAP1 PUSH2 0x1C8B JUMP JUMPDEST SWAP1 POP PUSH1 0x0 DUP2 PUSH1 0x1 PUSH1 0x1 PUSH1 0xA0 SHL SUB AND PUSH4 0x56623118 DUP6 PUSH1 0x1 PUSH1 0x1 PUSH1 0xA0 SHL SUB AND PUSH4 0xD8DFEB45 PUSH1 0x40 MLOAD DUP2 PUSH4 0xFFFFFFFF AND PUSH1 0xE0 SHL DUP2 MSTORE PUSH1 0x4 ADD PUSH1 0x20 PUSH1 0x40 MLOAD DUP1 DUP4 SUB DUP2 DUP7 GAS STATICCALL ISZERO DUP1 ISZERO PUSH2 0x520 JUMPI RETURNDATASIZE PUSH1 0x0 DUP1 RETURNDATACOPY RETURNDATASIZE PUSH1 0x0 REVERT JUMPDEST POP POP POP POP PUSH1 0x40 MLOAD RETURNDATASIZE PUSH1 0x1F NOT PUSH1 0x1F DUP3 ADD AND DUP3 ADD DUP1 PUSH1 0x40 MSTORE POP DUP2 ADD SWAP1 PUSH2 0x544 SWAP2 SWAP1 PUSH2 0x1C8B JUMP JUMPDEST DUP7 PUSH1 0x1 PUSH1 0x1 PUSH1 0xA0 SHL SUB AND PUSH4 0x473E3CE7 PUSH1 0x40 MLOAD DUP2 PUSH4 0xFFFFFFFF AND PUSH1 0xE0 SHL DUP2 MSTORE PUSH1 0x4 ADD PUSH1 0x20 PUSH1 0x40 MLOAD DUP1 DUP4 SUB DUP2 DUP7 GAS STATICCALL ISZERO DUP1 ISZERO PUSH2 0x582 JUMPI RETURNDATASIZE PUSH1 0x0 DUP1 RETURNDATACOPY RETURNDATASIZE PUSH1 0x0 REVERT JUMPDEST POP POP POP POP PUSH1 0x40 MLOAD RETURNDATASIZE PUSH1 0x1F NOT PUSH1 0x1F DUP3 ADD AND DUP3 ADD DUP1 PUSH1 0x40 MSTORE POP DUP2 ADD SWAP1 PUSH2 0x5A6 SWAP2 SWAP1 PUSH2 0x1CA8 JUMP JUMPDEST PUSH1 0x0 PUSH1 0x40 MLOAD DUP5 PUSH4 0xFFFFFFFF AND PUSH1 0xE0 SHL DUP2 MSTORE PUSH1 0x4 ADD PUSH2 0x5C6 SWAP4 SWAP3 SWAP2 SWAP1 PUSH2 0x1CC1 JUMP JUMPDEST PUSH1 0x20 PUSH1 0x40 MLOAD DUP1 DUP4 SUB DUP2 DUP7 GAS STATICCALL ISZERO DUP1 ISZERO PUSH2 0x5E3 JUMPI RETURNDATASIZE PUSH1 0x0 DUP1 RETURNDATACOPY RETURNDATASIZE PUSH1 0x0 REVERT JUMPDEST POP POP POP POP PUSH1 0x40 MLOAD RETURNDATASIZE PUSH1 0x1F NOT PUSH1 0x1F DUP3 ADD AND DUP3 ADD DUP1 PUSH1 0x40 MSTORE POP DUP2 ADD SWAP1 PUSH2 0x607 SWAP2 SWAP1 PUSH2 0x1CA8 JUMP JUMPDEST SWAP1 POP PUSH1 0x0 PUSH2 0x614 DUP6 PUSH2 0x8A9 JUMP JUMPDEST PUSH2 0x626 PUSH8 0xDE0B6B3A7640000 DUP5 PUSH2 0x1C74 JUMP JUMPDEST PUSH2 0x630 SWAP2 SWAP1 PUSH2 0x1CFA JUMP JUMPDEST PUSH1 0x40 DUP1 MLOAD DUP1 DUP3 ADD SWAP1 SWAP2 MSTORE SWAP3 DUP4 MSTORE PUSH1 0x20 DUP4 ADD MSTORE POP SWAP4 SWAP3 POP POP POP JUMP JUMPDEST PUSH1 0x0 DUP1 PUSH3 0x186A0 DUP4 PUSH1 0x1 PUSH1 0x1 PUSH1 0xA0 SHL SUB AND PUSH4 0x6EC097FB PUSH1 0x40 MLOAD DUP2 PUSH4 0xFFFFFFFF AND PUSH1 0xE0 SHL DUP2 MSTORE PUSH1 0x4 ADD PUSH1 0x20 PUSH1 0x40 MLOAD DUP1 DUP4 SUB DUP2 DUP7 GAS STATICCALL ISZERO DUP1 ISZERO PUSH2 0x68F JUMPI RETURNDATASIZE PUSH1 0x0 DUP1 RETURNDATACOPY RETURNDATASIZE PUSH1 0x0 REVERT JUMPDEST POP POP POP POP PUSH1 0x40 MLOAD RETURNDATASIZE PUSH1 0x1F NOT PUSH1 0x1F DUP3 ADD AND DUP3 ADD DUP1 PUSH1 0x40 MSTORE POP DUP2 ADD SWAP1 PUSH2 0x6B3 SWAP2 SWAP1 PUSH2 0x1CA8 JUMP JUMPDEST PUSH2 0x6BD SWAP2 SWAP1 PUSH2 0x1D0E JUMP JUMPDEST SWAP1 POP PUSH3 0x186A0 PUSH2 0x6CF PUSH2 0x2710 DUP4 PUSH2 0x1C74 JUMP JUMPDEST PUSH2 0x3F4 SWAP2 SWAP1 PUSH2 0x1CFA JUMP JUMPDEST PUSH1 0x0 PUSH2 0x451 DUP3 PUSH2 0xFBD JUMP JUMPDEST PUSH1 0x0 DUP1 DUP3 PUSH1 0x1 PUSH1 0x1 PUSH1 0xA0 SHL SUB AND PUSH4 0xE551D11D PUSH1 0x40 MLOAD DUP2 PUSH4 0xFFFFFFFF AND PUSH1 0xE0 SHL DUP2 MSTORE PUSH1 0x4 ADD PUSH1 0x40 DUP1 MLOAD DUP1 DUP4 SUB DUP2 DUP7 GAS STATICCALL ISZERO DUP1 ISZERO PUSH2 0x724 JUMPI RETURNDATASIZE PUSH1 0x0 DUP1 RETURNDATACOPY RETURNDATASIZE PUSH1 0x0 REVERT JUMPDEST POP POP POP POP PUSH1 0x40 MLOAD RETURNDATASIZE PUSH1 0x1F NOT PUSH1 0x1F DUP3 ADD AND DUP3 ADD DUP1 PUSH1 0x40 MSTORE POP DUP2 ADD SWAP1 PUSH2 0x748 SWAP2 SWAP1 PUSH2 0x1D21 JUMP JUMPDEST POP PUSH1 0x1 PUSH1 0x1 PUSH1 0x80 SHL SUB AND SWAP1 POP PUSH1 0x0 PUSH2 0x75F DUP5 PUSH2 0xFBD JUMP JUMPDEST SWAP1 POP PUSH1 0x0 PUSH2 0x775 DUP4 PUSH2 0x770 DUP8 PUSH2 0x781 JUMP JUMPDEST PUSH2 0x1175 JUMP JUMPDEST SWAP1 POP PUSH2 0x425 DUP3 DUP3 PUSH2 0x118F JUMP JUMPDEST PUSH1 0x0 PUSH2 0x78C DUP3 PUSH2 0x11A5 JUMP JUMPDEST MLOAD PUSH1 0x1 PUSH1 0x1 PUSH1 0x80 SHL SUB AND SWAP3 SWAP2 POP POP JUMP JUMPDEST PUSH1 0x0 PUSH3 0x186A0 PUSH2 0x2710 DUP4 PUSH1 0x1 PUSH1 0x1 PUSH1 0xA0 SHL SUB AND PUSH4 0xABA024F4 PUSH1 0x40 MLOAD DUP2 PUSH4 0xFFFFFFFF AND PUSH1 0xE0 SHL DUP2 MSTORE PUSH1 0x4 ADD PUSH1 0x20 PUSH1 0x40 MLOAD DUP1 DUP4 SUB DUP2 DUP7 GAS STATICCALL ISZERO DUP1 ISZERO PUSH2 0x7E3 JUMPI RETURNDATASIZE PUSH1 0x0 DUP1 RETURNDATACOPY RETURNDATASIZE PUSH1 0x0 REVERT JUMPDEST POP POP POP POP PUSH1 0x40 MLOAD RETURNDATASIZE PUSH1 0x1F NOT PUSH1 0x1F DUP3 ADD AND DUP3 ADD DUP1 PUSH1 0x40 MSTORE POP DUP2 ADD SWAP1 PUSH2 0x807 SWAP2 SWAP1 PUSH2 0x1CA8 JUMP JUMPDEST PUSH2 0x811 SWAP2 SWAP1 PUSH2 0x1C74 JUMP JUMPDEST PUSH2 0x451 SWAP2 SWAP1 PUSH2 0x1CFA JUMP JUMPDEST PUSH2 0x823 PUSH2 0x180E JUMP JUMPDEST PUSH1 0x0 DUP1 PUSH1 0x0 DUP1 PUSH1 0x0 DUP1 PUSH2 0x836 DUP10 DUP10 PUSH2 0xD34 JUMP JUMPDEST SWAP6 POP SWAP6 POP SWAP6 POP SWAP6 POP SWAP6 POP SWAP6 POP PUSH1 0x40 MLOAD DUP1 PUSH1 0xE0 ADD PUSH1 0x40 MSTORE DUP1 DUP11 PUSH1 0x1 PUSH1 0x1 PUSH1 0xA0 SHL SUB AND DUP2 MSTORE PUSH1 0x20 ADD DUP10 PUSH1 0x1 PUSH1 0x1 PUSH1 0xA0 SHL SUB AND DUP2 MSTORE PUSH1 0x20 ADD DUP8 DUP2 MSTORE PUSH1 0x20 ADD DUP7 DUP2 MSTORE PUSH1 0x20 ADD DUP6 DUP2 MSTORE PUSH1 0x20 ADD PUSH1 0x40 MLOAD DUP1 PUSH1 0x40 ADD PUSH1 0x40 MSTORE DUP1 DUP5 DUP2 MSTORE PUSH1 0x20 ADD DUP7 DUP2 MSTORE POP DUP2 MSTORE PUSH1 0x20 ADD DUP4 DUP2 MSTORE POP SWAP7 POP POP POP POP POP POP POP SWAP3 SWAP2 POP POP JUMP JUMPDEST PUSH1 0x0 PUSH2 0x451 DUP3 PUSH2 0x1321 JUMP JUMPDEST PUSH1 0x0 DUP1 PUSH1 0x0 DUP4 PUSH1 0x1 PUSH1 0x1 PUSH1 0xA0 SHL SUB AND PUSH4 0xE551D11D PUSH1 0x40 MLOAD DUP2 PUSH4 0xFFFFFFFF AND PUSH1 0xE0 SHL DUP2 MSTORE PUSH1 0x4 ADD PUSH1 0x40 DUP1 MLOAD DUP1 DUP4 SUB DUP2 DUP7 GAS STATICCALL ISZERO DUP1 ISZERO PUSH2 0x8F6 JUMPI RETURNDATASIZE PUSH1 0x0 DUP1 RETURNDATACOPY RETURNDATASIZE PUSH1 0x0 REVERT JUMPDEST POP POP POP POP PUSH1 0x40 MLOAD RETURNDATASIZE PUSH1 0x1F NOT PUSH1 0x1F DUP3 ADD AND DUP3 ADD DUP1 PUSH1 0x40 MSTORE POP DUP2 ADD SWAP1 PUSH2 0x91A SWAP2 SWAP1 PUSH2 0x1D21 JUMP JUMPDEST PUSH1 0x40 DUP1 MLOAD PUSH1 0x3 DUP1 DUP3 MSTORE PUSH1 0x80 DUP3 ADD SWAP1 SWAP3 MSTORE PUSH1 0x1 PUSH1 0x1 PUSH1 0x80 SHL SUB SWAP4 DUP5 AND SWAP6 POP SWAP2 SWAP1 SWAP3 AND SWAP3 POP PUSH1 0x0 SWAP2 PUSH1 0x20 DUP3 ADD PUSH1 0x60 DUP1 CALLDATASIZE DUP4 CALLDATACOPY ADD SWAP1 POP POP SWAP1 POP PUSH2 0x959 DUP6 PUSH2 0xFBD JUMP JUMPDEST DUP2 PUSH1 0x0 DUP2 MLOAD DUP2 LT PUSH2 0x96C JUMPI PUSH2 0x96C PUSH2 0x1D6A JUMP JUMPDEST PUSH1 0x20 MUL PUSH1 0x20 ADD ADD DUP2 DUP2 MSTORE POP POP PUSH2 0x985 DUP4 PUSH2 0x770 DUP8 PUSH2 0x781 JUMP JUMPDEST DUP2 PUSH1 0x1 DUP2 MLOAD DUP2 LT PUSH2 0x998 JUMPI PUSH2 0x998 PUSH2 0x1D6A JUMP JUMPDEST PUSH1 0x20 MUL PUSH1 0x20 ADD ADD DUP2 DUP2 MSTORE POP POP DUP2 DUP2 PUSH1 0x2 DUP2 MLOAD DUP2 LT PUSH2 0x9B8 JUMPI PUSH2 0x9B8 PUSH2 0x1D6A JUMP JUMPDEST PUSH1 0x20 MUL PUSH1 0x20 ADD ADD DUP2 DUP2 MSTORE POP POP PUSH2 0x425 DUP2 PUSH2 0x1460 JUMP JUMPDEST PUSH1 0x40 DUP1 MLOAD DUP1 DUP3 ADD SWAP1 SWAP2 MSTORE PUSH1 0x0 DUP1 DUP3 MSTORE PUSH1 0x20 DUP3 ADD MSTORE PUSH1 0x0 DUP1 PUSH2 0x9EE DUP6 DUP6 PUSH2 0x14DD JUMP JUMPDEST PUSH1 0x40 DUP1 MLOAD DUP1 DUP3 ADD SWAP1 SWAP2 MSTORE SWAP2 DUP3 MSTORE PUSH1 0x20 DUP3 ADD MSTORE SWAP6 SWAP5 POP POP POP POP POP JUMP JUMPDEST PUSH2 0xA11 PUSH2 0x1878 JUMP JUMPDEST PUSH1 0x40 MLOAD DUP1 PUSH2 0x160 ADD PUSH1 0x40 MSTORE DUP1 DUP4 PUSH1 0x1 PUSH1 0x1 PUSH1 0xA0 SHL SUB AND DUP2 MSTORE PUSH1 0x20 ADD PUSH2 0xA35 DUP5 PUSH2 0x79C JUMP JUMPDEST DUP2 MSTORE PUSH1 0x20 ADD PUSH2 0xA43 DUP5 PUSH2 0xCED JUMP JUMPDEST DUP2 MSTORE PUSH1 0x20 ADD PUSH2 0xA51 DUP5 PUSH2 0x64A JUMP JUMPDEST DUP2 MSTORE PUSH1 0x20 ADD PUSH2 0xA5F DUP5 PUSH2 0x382 JUMP JUMPDEST PUSH8 0xFFFFFFFFFFFFFFFF AND DUP2 MSTORE PUSH1 0x20 ADD PUSH2 0xA77 DUP5 PUSH2 0x6D9 JUMP JUMPDEST DUP2 MSTORE PUSH1 0x20 ADD PUSH2 0xA85 DUP5 PUSH2 0x6D9 JUMP JUMPDEST DUP2 MSTORE PUSH1 0x20 ADD PUSH2 0xA93 DUP5 PUSH2 0x781 JUMP JUMPDEST DUP2 MSTORE PUSH1 0x20 ADD PUSH2 0xAA1 DUP5 PUSH2 0x8A9 JUMP JUMPDEST DUP2 MSTORE PUSH1 0x20 ADD PUSH2 0xAAF DUP5 PUSH2 0x446 JUMP JUMPDEST DUP2 MSTORE PUSH1 0x20 ADD PUSH2 0xABD DUP5 PUSH2 0x457 JUMP JUMPDEST SWAP1 MSTORE SWAP3 SWAP2 POP POP JUMP JUMPDEST PUSH1 0x0 PUSH2 0x3F4 DUP4 DUP4 PUSH2 0x16BB JUMP JUMPDEST PUSH1 0x0 DUP1 PUSH2 0xADE DUP5 DUP5 PUSH2 0x14DD JUMP JUMPDEST SWAP2 POP POP PUSH3 0x186A0 PUSH2 0xAEE DUP6 PUSH2 0xCED JUMP JUMPDEST PUSH2 0xAF8 SWAP1 DUP4 PUSH2 0x1C74 JUMP JUMPDEST PUSH2 0xB02 SWAP2 SWAP1 PUSH2 0x1CFA JUMP JUMPDEST SWAP5 SWAP4 POP POP POP POP JUMP JUMPDEST PUSH2 0xB12 PUSH2 0x1878 JUMP JUMPDEST PUSH2 0xB1B DUP3 PUSH2 0xA09 JUMP JUMPDEST SWAP1 POP PUSH2 0xB26 DUP3 PUSH2 0x6E4 JUMP JUMPDEST PUSH1 0xA0 DUP3 ADD MSTORE PUSH2 0xB34 DUP3 PUSH2 0x8B4 JUMP JUMPDEST PUSH1 0xC0 DUP3 ADD MSTORE SWAP2 SWAP1 POP JUMP JUMPDEST PUSH1 0x40 MLOAD PUSH4 0x3DE222BB PUSH1 0xE2 SHL DUP2 MSTORE PUSH1 0x1 PUSH1 0x1 PUSH1 0xA0 SHL SUB DUP4 DUP2 AND PUSH1 0x4 DUP4 ADD MSTORE DUP3 DUP2 AND PUSH1 0x24 DUP4 ADD MSTORE PUSH1 0x0 SWAP2 DUP3 SWAP2 DUP7 AND SWAP1 PUSH4 0xF7888AEC SWAP1 PUSH1 0x44 ADD PUSH1 0x20 PUSH1 0x40 MLOAD DUP1 DUP4 SUB DUP2 DUP7 GAS STATICCALL ISZERO DUP1 ISZERO PUSH2 0xB91 JUMPI RETURNDATASIZE PUSH1 0x0 DUP1 RETURNDATACOPY RETURNDATASIZE PUSH1 0x0 REVERT JUMPDEST POP POP POP POP PUSH1 0x40 MLOAD RETURNDATASIZE PUSH1 0x1F NOT PUSH1 0x1F DUP3 ADD AND DUP3 ADD DUP1 PUSH1 0x40 MSTORE POP DUP2 ADD SWAP1 PUSH2 0xBB5 SWAP2 SWAP1 PUSH2 0x1CA8 JUMP JUMPDEST PUSH1 0x40 MLOAD PUSH4 0xACC4623 PUSH1 0xE3 SHL DUP2 MSTORE PUSH1 0x1 PUSH1 0x1 PUSH1 0xA0 SHL SUB DUP8 AND SWAP1 PUSH4 0x56623118 SWAP1 PUSH2 0xBE6 SWAP1 DUP9 SWAP1 DUP8 SWAP1 PUSH1 0x0 SWAP1 PUSH1 0x4 ADD PUSH2 0x1CC1 JUMP JUMPDEST PUSH1 0x20 PUSH1 0x40 MLOAD DUP1 DUP4 SUB DUP2 DUP7 GAS STATICCALL ISZERO DUP1 ISZERO PUSH2 0xC03 JUMPI RETURNDATASIZE PUSH1 0x0 DUP1 RETURNDATACOPY RETURNDATASIZE PUSH1 0x0 REVERT JUMPDEST POP POP POP POP PUSH1 0x40 MLOAD RETURNDATASIZE PUSH1 0x1F NOT PUSH1 0x1F DUP3 ADD AND DUP3 ADD DUP1 PUSH1 0x40 MSTORE POP DUP2 ADD SWAP1 PUSH2 0xC27 SWAP2 SWAP1 PUSH2 0x1CA8 JUMP JUMPDEST SWAP2 POP SWAP2 POP SWAP4 POP SWAP4 SWAP2 POP POP JUMP JUMPDEST PUSH1 0x60 DUP2 PUSH8 0xFFFFFFFFFFFFFFFF DUP2 GT ISZERO PUSH2 0xC4E JUMPI PUSH2 0xC4E PUSH2 0x1D54 JUMP JUMPDEST PUSH1 0x40 MLOAD SWAP1 DUP1 DUP3 MSTORE DUP1 PUSH1 0x20 MUL PUSH1 0x20 ADD DUP3 ADD PUSH1 0x40 MSTORE DUP1 ISZERO PUSH2 0xC87 JUMPI DUP2 PUSH1 0x20 ADD JUMPDEST PUSH2 0xC74 PUSH2 0x180E JUMP JUMPDEST DUP2 MSTORE PUSH1 0x20 ADD SWAP1 PUSH1 0x1 SWAP1 SUB SWAP1 DUP2 PUSH2 0xC6C JUMPI SWAP1 POP JUMPDEST POP SWAP1 POP PUSH1 0x0 JUMPDEST DUP3 DUP2 LT ISZERO PUSH2 0xCE5 JUMPI PUSH2 0xCC0 DUP6 DUP6 DUP6 DUP5 DUP2 DUP2 LT PUSH2 0xCAB JUMPI PUSH2 0xCAB PUSH2 0x1D6A JUMP JUMPDEST SWAP1 POP PUSH1 0x20 MUL ADD PUSH1 0x20 DUP2 ADD SWAP1 PUSH2 0x26A SWAP2 SWAP1 PUSH2 0x1946 JUMP JUMPDEST DUP3 DUP3 DUP2 MLOAD DUP2 LT PUSH2 0xCD2 JUMPI PUSH2 0xCD2 PUSH2 0x1D6A JUMP JUMPDEST PUSH1 0x20 SWAP1 DUP2 MUL SWAP2 SWAP1 SWAP2 ADD ADD MSTORE PUSH1 0x1 ADD PUSH2 0xC8D JUMP JUMPDEST POP SWAP4 SWAP3 POP POP POP JUMP JUMPDEST PUSH1 0x0 PUSH3 0x186A0 PUSH2 0x2710 DUP4 PUSH1 0x1 PUSH1 0x1 PUSH1 0xA0 SHL SUB AND PUSH4 0xC7EE2A7B PUSH1 0x40 MLOAD DUP2 PUSH4 0xFFFFFFFF AND PUSH1 0xE0 SHL DUP2 MSTORE PUSH1 0x4 ADD PUSH1 0x20 PUSH1 0x40 MLOAD DUP1 DUP4 SUB DUP2 DUP7 GAS STATICCALL ISZERO DUP1 ISZERO PUSH2 0x7E3 JUMPI RETURNDATASIZE PUSH1 0x0 DUP1 RETURNDATACOPY RETURNDATASIZE PUSH1 0x0 REVERT JUMPDEST PUSH1 0x0 DUP1 PUSH1 0x0 DUP1 PUSH1 0x0 DUP1 PUSH2 0xD47 DUP9 DUP9 PUSH2 0x14DD JUMP JUMPDEST SWAP4 POP SWAP1 POP PUSH2 0xD55 DUP9 DUP9 PUSH2 0x16BB JUMP JUMPDEST SWAP4 POP DUP3 ISZERO PUSH2 0xEFC JUMPI DUP3 PUSH2 0xD6A PUSH2 0x2710 DUP7 PUSH2 0x1C74 JUMP JUMPDEST PUSH2 0xD74 SWAP2 SWAP1 PUSH2 0x1CFA JUMP JUMPDEST SWAP6 POP PUSH1 0x0 DUP9 PUSH1 0x1 PUSH1 0x1 PUSH1 0xA0 SHL SUB AND PUSH4 0xC7EE2A7B PUSH1 0x40 MLOAD DUP2 PUSH4 0xFFFFFFFF AND PUSH1 0xE0 SHL DUP2 MSTORE PUSH1 0x4 ADD PUSH1 0x20 PUSH1 0x40 MLOAD DUP1 DUP4 SUB DUP2 DUP7 GAS STATICCALL ISZERO DUP1 ISZERO PUSH2 0xDB6 JUMPI RETURNDATASIZE PUSH1 0x0 DUP1 RETURNDATACOPY RETURNDATASIZE PUSH1 0x0 REVERT JUMPDEST POP POP POP POP PUSH1 0x40 MLOAD RETURNDATASIZE PUSH1 0x1F NOT PUSH1 0x1F DUP3 ADD AND DUP3 ADD DUP1 PUSH1 0x40 MSTORE POP DUP2 ADD SWAP1 PUSH2 0xDDA SWAP2 SWAP1 PUSH2 0x1CA8 JUMP JUMPDEST SWAP1 POP PUSH1 0x0 DUP10 PUSH1 0x1 PUSH1 0x1 PUSH1 0xA0 SHL SUB AND PUSH4 0xD8DFEB45 PUSH1 0x40 MLOAD DUP2 PUSH4 0xFFFFFFFF AND PUSH1 0xE0 SHL DUP2 MSTORE PUSH1 0x4 ADD PUSH1 0x20 PUSH1 0x40 MLOAD DUP1 DUP4 SUB DUP2 DUP7 GAS STATICCALL ISZERO DUP1 ISZERO PUSH2 0xE1C JUMPI RETURNDATASIZE PUSH1 0x0 DUP1 RETURNDATACOPY RETURNDATASIZE PUSH1 0x0 REVERT JUMPDEST POP POP POP POP PUSH1 0x40 MLOAD RETURNDATASIZE PUSH1 0x1F NOT PUSH1 0x1F DUP3 ADD AND DUP3 ADD DUP1 PUSH1 0x40 MSTORE POP DUP2 ADD SWAP1 PUSH2 0xE40 SWAP2 SWAP1 PUSH2 0x1C8B JUMP JUMPDEST SWAP1 POP PUSH1 0x0 PUSH2 0xE56 DUP3 PUSH1 0x1 PUSH1 0x1 PUSH1 0xA0 SHL SUB AND PUSH2 0x1756 JUMP JUMPDEST PUSH2 0xE61 SWAP1 PUSH1 0xA PUSH2 0x1E64 JUMP JUMPDEST SWAP1 POP PUSH8 0xDE0B6B3A7640000 DUP5 DUP5 PUSH2 0xE79 PUSH1 0x2 DUP6 PUSH2 0x1E64 JUMP JUMPDEST PUSH2 0xE83 SWAP1 DUP12 PUSH2 0x1C74 JUMP JUMPDEST PUSH2 0xE90 SWAP1 PUSH3 0x186A0 PUSH2 0x1C74 JUMP JUMPDEST PUSH2 0xE9A SWAP2 SWAP1 PUSH2 0x1CFA JUMP JUMPDEST PUSH2 0xEA4 SWAP2 SWAP1 PUSH2 0x1CFA JUMP JUMPDEST PUSH2 0xEAE SWAP2 SWAP1 PUSH2 0x1CFA JUMP JUMPDEST SWAP5 POP PUSH2 0xEF6 PUSH8 0xDE0B6B3A7640000 PUSH2 0xEC7 PUSH1 0x2 DUP5 PUSH2 0x1E64 JUMP JUMPDEST PUSH2 0xED0 DUP15 PUSH2 0x1321 JUMP JUMPDEST PUSH2 0xEE2 DUP10 PUSH8 0xDE0B6B3A7640000 PUSH2 0x1C74 JUMP JUMPDEST PUSH2 0xEEC SWAP2 SWAP1 PUSH2 0x1C74 JUMP JUMPDEST PUSH2 0x770 SWAP2 SWAP1 PUSH2 0x1CFA JUMP JUMPDEST SWAP8 POP POP POP POP JUMPDEST SWAP3 SWAP6 POP SWAP3 SWAP6 POP SWAP3 SWAP6 JUMP JUMPDEST PUSH1 0x0 PUSH4 0x12E337EE PUSH2 0xF18 DUP4 PUSH1 0x64 PUSH2 0x1E73 JUMP JUMPDEST PUSH2 0x451 SWAP2 SWAP1 PUSH2 0x1E97 JUMP JUMPDEST PUSH1 0x0 DUP1 DUP3 PUSH1 0x1 PUSH1 0x1 PUSH1 0xA0 SHL SUB AND PUSH4 0xD8DFEB45 PUSH1 0x40 MLOAD DUP2 PUSH4 0xFFFFFFFF AND PUSH1 0xE0 SHL DUP2 MSTORE PUSH1 0x4 ADD PUSH1 0x20 PUSH1 0x40 MLOAD DUP1 DUP4 SUB DUP2 DUP7 GAS STATICCALL ISZERO DUP1 ISZERO PUSH2 0xF63 JUMPI RETURNDATASIZE PUSH1 0x0 DUP1 RETURNDATACOPY RETURNDATASIZE PUSH1 0x0 REVERT JUMPDEST POP POP POP POP PUSH1 0x40 MLOAD RETURNDATASIZE PUSH1 0x1F NOT PUSH1 0x1F DUP3 ADD AND DUP3 ADD DUP1 PUSH1 0x40 MSTORE POP DUP2 ADD SWAP1 PUSH2 0xF87 SWAP2 SWAP1 PUSH2 0x1C8B JUMP JUMPDEST SWAP1 POP PUSH1 0x0 PUSH2 0xF9D DUP3 PUSH1 0x1 PUSH1 0x1 PUSH1 0xA0 SHL SUB AND PUSH2 0x1756 JUMP JUMPDEST PUSH2 0xFA8 SWAP1 PUSH1 0xA PUSH2 0x1E64 JUMP JUMPDEST SWAP1 POP PUSH2 0xFB3 DUP5 PUSH2 0x1321 JUMP JUMPDEST PUSH2 0xAF8 DUP3 DUP1 PUSH2 0x1C74 JUMP JUMPDEST PUSH1 0x0 DUP1 DUP3 PUSH1 0x1 PUSH1 0x1 PUSH1 0xA0 SHL SUB AND PUSH4 0x6B2ACE87 PUSH1 0x40 MLOAD DUP2 PUSH4 0xFFFFFFFF AND PUSH1 0xE0 SHL DUP2 MSTORE PUSH1 0x4 ADD PUSH1 0x20 PUSH1 0x40 MLOAD DUP1 DUP4 SUB DUP2 DUP7 GAS STATICCALL ISZERO DUP1 ISZERO PUSH2 0xFFE JUMPI RETURNDATASIZE PUSH1 0x0 DUP1 RETURNDATACOPY RETURNDATASIZE PUSH1 0x0 REVERT JUMPDEST POP POP POP POP PUSH1 0x40 MLOAD RETURNDATASIZE PUSH1 0x1F NOT PUSH1 0x1F DUP3 ADD AND DUP3 ADD DUP1 PUSH1 0x40 MSTORE POP DUP2 ADD SWAP1 PUSH2 0x1022 SWAP2 SWAP1 PUSH2 0x1C8B JUMP JUMPDEST SWAP1 POP PUSH1 0x0 DUP4 PUSH1 0x1 PUSH1 0x1 PUSH1 0xA0 SHL SUB AND PUSH4 0x9B352AE1 PUSH1 0x40 MLOAD DUP2 PUSH4 0xFFFFFFFF AND PUSH1 0xE0 SHL DUP2 MSTORE PUSH1 0x4 ADD PUSH1 0x20 PUSH1 0x40 MLOAD DUP1 DUP4 SUB DUP2 DUP7 GAS STATICCALL ISZERO DUP1 ISZERO PUSH2 0x1064 JUMPI RETURNDATASIZE PUSH1 0x0 DUP1 RETURNDATACOPY RETURNDATASIZE PUSH1 0x0 REVERT JUMPDEST POP POP POP POP PUSH1 0x40 MLOAD RETURNDATASIZE PUSH1 0x1F NOT PUSH1 0x1F DUP3 ADD AND DUP3 ADD DUP1 PUSH1 0x40 MSTORE POP DUP2 ADD SWAP1 PUSH2 0x1088 SWAP2 SWAP1 PUSH2 0x1C8B JUMP JUMPDEST PUSH1 0x40 MLOAD PUSH4 0x3DE222BB PUSH1 0xE2 SHL DUP2 MSTORE PUSH1 0x1 PUSH1 0x1 PUSH1 0xA0 SHL SUB DUP1 DUP4 AND PUSH1 0x4 DUP4 ADD MSTORE DUP7 DUP2 AND PUSH1 0x24 DUP4 ADD MSTORE SWAP2 SWAP3 POP PUSH1 0x0 SWAP2 DUP5 AND SWAP1 PUSH4 0xF7888AEC SWAP1 PUSH1 0x44 ADD PUSH1 0x20 PUSH1 0x40 MLOAD DUP1 DUP4 SUB DUP2 DUP7 GAS STATICCALL ISZERO DUP1 ISZERO PUSH2 0x10DC JUMPI RETURNDATASIZE PUSH1 0x0 DUP1 RETURNDATACOPY RETURNDATASIZE PUSH1 0x0 REVERT JUMPDEST POP POP POP POP PUSH1 0x40 MLOAD RETURNDATASIZE PUSH1 0x1F NOT PUSH1 0x1F DUP3 ADD AND DUP3 ADD DUP1 PUSH1 0x40 MSTORE POP DUP2 ADD SWAP1 PUSH2 0x1100 SWAP2 SWAP1 PUSH2 0x1CA8 JUMP JUMPDEST PUSH1 0x40 MLOAD PUSH4 0xACC4623 PUSH1 0xE3 SHL DUP2 MSTORE SWAP1 SWAP2 POP PUSH1 0x1 PUSH1 0x1 PUSH1 0xA0 SHL SUB DUP5 AND SWAP1 PUSH4 0x56623118 SWAP1 PUSH2 0x1134 SWAP1 DUP6 SWAP1 DUP6 SWAP1 PUSH1 0x0 SWAP1 PUSH1 0x4 ADD PUSH2 0x1CC1 JUMP JUMPDEST PUSH1 0x20 PUSH1 0x40 MLOAD DUP1 DUP4 SUB DUP2 DUP7 GAS STATICCALL ISZERO DUP1 ISZERO PUSH2 0x1151 JUMPI RETURNDATASIZE PUSH1 0x0 DUP1 RETURNDATACOPY RETURNDATASIZE PUSH1 0x0 REVERT JUMPDEST POP POP POP POP PUSH1 0x40 MLOAD RETURNDATASIZE PUSH1 0x1F NOT PUSH1 0x1F DUP3 ADD AND DUP3 ADD DUP1 PUSH1 0x40 MSTORE POP DUP2 ADD SWAP1 PUSH2 0x425 SWAP2 SWAP1 PUSH2 0x1CA8 JUMP JUMPDEST PUSH1 0x0 DUP2 DUP4 GT PUSH2 0x1185 JUMPI PUSH1 0x0 PUSH2 0x3F4 JUMP JUMPDEST PUSH2 0x3F4 DUP3 DUP5 PUSH2 0x1D0E JUMP JUMPDEST PUSH1 0x0 DUP2 DUP4 LT PUSH2 0x119E JUMPI DUP2 PUSH2 0x3F4 JUMP JUMPDEST POP SWAP1 SWAP2 SWAP1 POP JUMP JUMPDEST PUSH1 0x40 DUP1 MLOAD DUP1 DUP3 ADD SWAP1 SWAP2 MSTORE PUSH1 0x0 DUP1 DUP3 MSTORE PUSH1 0x20 DUP3 ADD MSTORE DUP2 PUSH1 0x1 PUSH1 0x1 PUSH1 0xA0 SHL SUB AND PUSH4 0x8285EF40 PUSH1 0x40 MLOAD DUP2 PUSH4 0xFFFFFFFF AND PUSH1 0xE0 SHL DUP2 MSTORE PUSH1 0x4 ADD PUSH1 0x40 DUP1 MLOAD DUP1 DUP4 SUB DUP2 DUP7 GAS STATICCALL ISZERO DUP1 ISZERO PUSH2 0x11F6 JUMPI RETURNDATASIZE PUSH1 0x0 DUP1 RETURNDATACOPY RETURNDATASIZE PUSH1 0x0 REVERT JUMPDEST POP POP POP POP PUSH1 0x40 MLOAD RETURNDATASIZE PUSH1 0x1F NOT PUSH1 0x1F DUP3 ADD AND DUP3 ADD DUP1 PUSH1 0x40 MSTORE POP DUP2 ADD SWAP1 PUSH2 0x121A SWAP2 SWAP1 PUSH2 0x1EBE JUMP JUMPDEST SWAP1 POP PUSH1 0x0 DUP1 DUP4 PUSH1 0x1 PUSH1 0x1 PUSH1 0xA0 SHL SUB AND PUSH4 0xB27C0E74 PUSH1 0x40 MLOAD DUP2 PUSH4 0xFFFFFFFF AND PUSH1 0xE0 SHL DUP2 MSTORE PUSH1 0x4 ADD PUSH1 0x60 PUSH1 0x40 MLOAD DUP1 DUP4 SUB DUP2 DUP7 GAS STATICCALL ISZERO DUP1 ISZERO PUSH2 0x125D JUMPI RETURNDATASIZE PUSH1 0x0 DUP1 RETURNDATACOPY RETURNDATASIZE PUSH1 0x0 REVERT JUMPDEST POP POP POP POP PUSH1 0x40 MLOAD RETURNDATASIZE PUSH1 0x1F NOT PUSH1 0x1F DUP3 ADD AND DUP3 ADD DUP1 PUSH1 0x40 MSTORE POP DUP2 ADD SWAP1 PUSH2 0x1281 SWAP2 SWAP1 PUSH2 0x1C1B JUMP JUMPDEST SWAP3 POP POP SWAP2 POP PUSH1 0x0 DUP3 PUSH8 0xFFFFFFFFFFFFFFFF AND TIMESTAMP PUSH2 0x129E SWAP2 SWAP1 PUSH2 0x1D0E JUMP JUMPDEST SWAP1 POP DUP1 ISZERO DUP1 ISZERO SWAP1 PUSH2 0x12BB JUMPI POP PUSH1 0x20 DUP5 ADD MLOAD PUSH1 0x1 PUSH1 0x1 PUSH1 0x80 SHL SUB AND ISZERO ISZERO JUMPDEST ISZERO PUSH2 0x1319 JUMPI PUSH8 0xDE0B6B3A7640000 DUP2 DUP4 PUSH8 0xFFFFFFFFFFFFFFFF AND DUP7 PUSH1 0x0 ADD MLOAD PUSH1 0x1 PUSH1 0x1 PUSH1 0x80 SHL SUB AND PUSH2 0x12ED SWAP2 SWAP1 PUSH2 0x1C74 JUMP JUMPDEST PUSH2 0x12F7 SWAP2 SWAP1 PUSH2 0x1C74 JUMP JUMPDEST PUSH2 0x1301 SWAP2 SWAP1 PUSH2 0x1CFA JUMP JUMPDEST DUP5 MLOAD PUSH2 0x130D SWAP2 SWAP1 PUSH2 0x1F19 JUMP JUMPDEST PUSH1 0x1 PUSH1 0x1 PUSH1 0x80 SHL SUB AND DUP5 MSTORE JUMPDEST POP POP POP SWAP2 SWAP1 POP JUMP JUMPDEST PUSH1 0x0 DUP1 DUP3 PUSH1 0x1 PUSH1 0x1 PUSH1 0xA0 SHL SUB AND PUSH4 0x7DC0D1D0 PUSH1 0x40 MLOAD DUP2 PUSH4 0xFFFFFFFF AND PUSH1 0xE0 SHL DUP2 MSTORE PUSH1 0x4 ADD PUSH1 0x20 PUSH1 0x40 MLOAD DUP1 DUP4 SUB DUP2 DUP7 GAS STATICCALL ISZERO DUP1 ISZERO PUSH2 0x1362 JUMPI RETURNDATASIZE PUSH1 0x0 DUP1 RETURNDATACOPY RETURNDATASIZE PUSH1 0x0 REVERT JUMPDEST POP POP POP POP PUSH1 0x40 MLOAD RETURNDATASIZE PUSH1 0x1F NOT PUSH1 0x1F DUP3 ADD AND DUP3 ADD DUP1 PUSH1 0x40 MSTORE POP DUP2 ADD SWAP1 PUSH2 0x1386 SWAP2 SWAP1 PUSH2 0x1C8B JUMP JUMPDEST SWAP1 POP PUSH1 0x0 DUP4 PUSH1 0x1 PUSH1 0x1 PUSH1 0xA0 SHL SUB AND PUSH4 0x74645FF3 PUSH1 0x40 MLOAD DUP2 PUSH4 0xFFFFFFFF AND PUSH1 0xE0 SHL DUP2 MSTORE PUSH1 0x4 ADD PUSH1 0x0 PUSH1 0x40 MLOAD DUP1 DUP4 SUB DUP2 DUP7 GAS STATICCALL ISZERO DUP1 ISZERO PUSH2 0x13C8 JUMPI RETURNDATASIZE PUSH1 0x0 DUP1 RETURNDATACOPY RETURNDATASIZE PUSH1 0x0 REVERT JUMPDEST POP POP POP POP PUSH1 0x40 MLOAD RETURNDATASIZE PUSH1 0x0 DUP3 RETURNDATACOPY PUSH1 0x1F RETURNDATASIZE SWAP1 DUP2 ADD PUSH1 0x1F NOT AND DUP3 ADD PUSH1 0x40 MSTORE PUSH2 0x13F0 SWAP2 SWAP1 DUP2 ADD SWAP1 PUSH2 0x1F5D JUMP JUMPDEST PUSH1 0x40 MLOAD PUSH4 0xD39BBEF PUSH1 0xE4 SHL DUP2 MSTORE SWAP1 SWAP2 POP PUSH1 0x1 PUSH1 0x1 PUSH1 0xA0 SHL SUB DUP4 AND SWAP1 PUSH4 0xD39BBEF0 SWAP1 PUSH2 0x141F SWAP1 DUP5 SWAP1 PUSH1 0x4 ADD PUSH2 0x200A JUMP JUMPDEST PUSH1 0x20 PUSH1 0x40 MLOAD DUP1 DUP4 SUB DUP2 DUP7 GAS STATICCALL ISZERO DUP1 ISZERO PUSH2 0x143C JUMPI RETURNDATASIZE PUSH1 0x0 DUP1 RETURNDATACOPY RETURNDATASIZE PUSH1 0x0 REVERT JUMPDEST POP POP POP POP PUSH1 0x40 MLOAD RETURNDATASIZE PUSH1 0x1F NOT PUSH1 0x1F DUP3 ADD AND DUP3 ADD DUP1 PUSH1 0x40 MSTORE POP DUP2 ADD SWAP1 PUSH2 0xB02 SWAP2 SWAP1 PUSH2 0x1CA8 JUMP JUMPDEST PUSH1 0x0 DUP1 DUP3 PUSH1 0x0 DUP2 MLOAD DUP2 LT PUSH2 0x1476 JUMPI PUSH2 0x1476 PUSH2 0x1D6A JUMP JUMPDEST PUSH1 0x20 MUL PUSH1 0x20 ADD ADD MLOAD SWAP1 POP PUSH1 0x0 PUSH1 0x1 SWAP1 POP JUMPDEST DUP4 MLOAD DUP2 LT ISZERO PUSH2 0x14D6 JUMPI DUP2 DUP5 DUP3 DUP2 MLOAD DUP2 LT PUSH2 0x14A3 JUMPI PUSH2 0x14A3 PUSH2 0x1D6A JUMP JUMPDEST PUSH1 0x20 MUL PUSH1 0x20 ADD ADD MLOAD LT ISZERO PUSH2 0x14CE JUMPI DUP4 DUP2 DUP2 MLOAD DUP2 LT PUSH2 0x14C3 JUMPI PUSH2 0x14C3 PUSH2 0x1D6A JUMP JUMPDEST PUSH1 0x20 MUL PUSH1 0x20 ADD ADD MLOAD SWAP2 POP JUMPDEST PUSH1 0x1 ADD PUSH2 0x1487 JUMP JUMPDEST POP SWAP3 SWAP2 POP POP JUMP JUMPDEST PUSH1 0x0 DUP1 PUSH1 0x0 DUP5 PUSH1 0x1 PUSH1 0x1 PUSH1 0xA0 SHL SUB AND PUSH4 0x6B2ACE87 PUSH1 0x40 MLOAD DUP2 PUSH4 0xFFFFFFFF AND PUSH1 0xE0 SHL DUP2 MSTORE PUSH1 0x4 ADD PUSH1 0x20 PUSH1 0x40 MLOAD DUP1 DUP4 SUB DUP2 DUP7 GAS STATICCALL ISZERO DUP1 ISZERO PUSH2 0x1520 JUMPI RETURNDATASIZE PUSH1 0x0 DUP1 RETURNDATACOPY RETURNDATASIZE PUSH1 0x0 REVERT JUMPDEST POP POP POP POP PUSH1 0x40 MLOAD RETURNDATASIZE PUSH1 0x1F NOT PUSH1 0x1F DUP3 ADD AND DUP3 ADD DUP1 PUSH1 0x40 MSTORE POP DUP2 ADD SWAP1 PUSH2 0x1544 SWAP2 SWAP1 PUSH2 0x1C8B JUMP JUMPDEST PUSH1 0x40 MLOAD PUSH4 0x1C9E379B PUSH1 0xE0 SHL DUP2 MSTORE PUSH1 0x1 PUSH1 0x1 PUSH1 0xA0 SHL SUB DUP7 DUP2 AND PUSH1 0x4 DUP4 ADD MSTORE SWAP2 SWAP3 POP PUSH1 0x0 SWAP2 DUP8 AND SWAP1 PUSH4 0x1C9E379B SWAP1 PUSH1 0x24 ADD PUSH1 0x20 PUSH1 0x40 MLOAD DUP1 DUP4 SUB DUP2 DUP7 GAS STATICCALL ISZERO DUP1 ISZERO PUSH2 0x1590 JUMPI RETURNDATASIZE PUSH1 0x0 DUP1 RETURNDATACOPY RETURNDATASIZE PUSH1 0x0 REVERT JUMPDEST POP POP POP POP PUSH1 0x40 MLOAD RETURNDATASIZE PUSH1 0x1F NOT PUSH1 0x1F DUP3 ADD AND DUP3 ADD DUP1 PUSH1 0x40 MSTORE POP DUP2 ADD SWAP1 PUSH2 0x15B4 SWAP2 SWAP1 PUSH2 0x1CA8 JUMP JUMPDEST SWAP1 POP DUP2 PUSH1 0x1 PUSH1 0x1 PUSH1 0xA0 SHL SUB AND PUSH4 0x56623118 DUP8 PUSH1 0x1 PUSH1 0x1 PUSH1 0xA0 SHL SUB AND PUSH4 0xD8DFEB45 PUSH1 0x40 MLOAD DUP2 PUSH4 0xFFFFFFFF AND PUSH1 0xE0 SHL DUP2 MSTORE PUSH1 0x4 ADD PUSH1 0x20 PUSH1 0x40 MLOAD DUP1 DUP4 SUB DUP2 DUP7 GAS STATICCALL ISZERO DUP1 ISZERO PUSH2 0x1603 JUMPI RETURNDATASIZE PUSH1 0x0 DUP1 RETURNDATACOPY RETURNDATASIZE PUSH1 0x0 REVERT JUMPDEST POP POP POP POP PUSH1 0x40 MLOAD RETURNDATASIZE PUSH1 0x1F NOT PUSH1 0x1F DUP3 ADD AND DUP3 ADD DUP1 PUSH1 0x40 MSTORE POP DUP2 ADD SWAP1 PUSH2 0x1627 SWAP2 SWAP1 PUSH2 0x1C8B JUMP JUMPDEST DUP4 PUSH1 0x0 PUSH1 0x40 MLOAD DUP5 PUSH4 0xFFFFFFFF AND PUSH1 0xE0 SHL DUP2 MSTORE PUSH1 0x4 ADD PUSH2 0x1648 SWAP4 SWAP3 SWAP2 SWAP1 PUSH2 0x1CC1 JUMP JUMPDEST PUSH1 0x20 PUSH1 0x40 MLOAD DUP1 DUP4 SUB DUP2 DUP7 GAS STATICCALL ISZERO DUP1 ISZERO PUSH2 0x1665 JUMPI RETURNDATASIZE PUSH1 0x0 DUP1 RETURNDATACOPY RETURNDATASIZE PUSH1 0x0 REVERT JUMPDEST POP POP POP POP PUSH1 0x40 MLOAD RETURNDATASIZE PUSH1 0x1F NOT PUSH1 0x1F DUP3 ADD AND DUP3 ADD DUP1 PUSH1 0x40 MSTORE POP DUP2 ADD SWAP1 PUSH2 0x1689 SWAP2 SWAP1 PUSH2 0x1CA8 JUMP JUMPDEST SWAP4 POP PUSH2 0x1694 DUP7 PUSH2 0x1321 JUMP JUMPDEST PUSH2 0x16A6 PUSH8 0xDE0B6B3A7640000 DUP7 PUSH2 0x1C74 JUMP JUMPDEST PUSH2 0x16B0 SWAP2 SWAP1 PUSH2 0x1CFA JUMP JUMPDEST SWAP3 POP POP POP SWAP3 POP SWAP3 SWAP1 POP JUMP JUMPDEST PUSH1 0x0 DUP1 PUSH2 0x16C7 DUP5 PUSH2 0x11A5 JUMP JUMPDEST PUSH1 0x20 DUP2 ADD MLOAD DUP2 MLOAD PUSH1 0x40 MLOAD PUSH4 0x24720B1F PUSH1 0xE1 SHL DUP2 MSTORE PUSH1 0x1 PUSH1 0x1 PUSH1 0xA0 SHL SUB DUP8 DUP2 AND PUSH1 0x4 DUP4 ADD MSTORE SWAP4 SWAP5 POP PUSH1 0x1 PUSH1 0x1 PUSH1 0x80 SHL SUB SWAP3 DUP4 AND SWAP4 SWAP3 SWAP1 SWAP2 AND SWAP2 DUP8 AND SWAP1 PUSH4 0x48E4163E SWAP1 PUSH1 0x24 ADD PUSH1 0x20 PUSH1 0x40 MLOAD DUP1 DUP4 SUB DUP2 DUP7 GAS STATICCALL ISZERO DUP1 ISZERO PUSH2 0x1728 JUMPI RETURNDATASIZE PUSH1 0x0 DUP1 RETURNDATACOPY RETURNDATASIZE PUSH1 0x0 REVERT JUMPDEST POP POP POP POP PUSH1 0x40 MLOAD RETURNDATASIZE PUSH1 0x1F NOT PUSH1 0x1F DUP3 ADD AND DUP3 ADD DUP1 PUSH1 0x40 MSTORE POP DUP2 ADD SWAP1 PUSH2 0x174C SWAP2 SWAP1 PUSH2 0x1CA8 JUMP JUMPDEST PUSH2 0xAF8 SWAP2 SWAP1 PUSH2 0x1C74 JUMP JUMPDEST PUSH1 0x40 DUP1 MLOAD PUSH1 0x4 DUP2 MSTORE PUSH1 0x24 DUP2 ADD DUP3 MSTORE PUSH1 0x20 DUP2 ADD DUP1 MLOAD PUSH1 0x1 PUSH1 0x1 PUSH1 0xE0 SHL SUB AND PUSH4 0x313CE567 PUSH1 0xE0 SHL OR SWAP1 MSTORE SWAP1 MLOAD PUSH1 0x0 SWAP2 DUP3 SWAP2 DUP3 SWAP2 PUSH1 0x1 PUSH1 0x1 PUSH1 0xA0 SHL SUB DUP7 AND SWAP2 PUSH2 0x179C SWAP2 SWAP1 PUSH2 0x203D JUMP JUMPDEST PUSH1 0x0 PUSH1 0x40 MLOAD DUP1 DUP4 SUB DUP2 DUP6 GAS STATICCALL SWAP2 POP POP RETURNDATASIZE DUP1 PUSH1 0x0 DUP2 EQ PUSH2 0x17D7 JUMPI PUSH1 0x40 MLOAD SWAP2 POP PUSH1 0x1F NOT PUSH1 0x3F RETURNDATASIZE ADD AND DUP3 ADD PUSH1 0x40 MSTORE RETURNDATASIZE DUP3 MSTORE RETURNDATASIZE PUSH1 0x0 PUSH1 0x20 DUP5 ADD RETURNDATACOPY PUSH2 0x17DC JUMP JUMPDEST PUSH1 0x60 SWAP2 POP JUMPDEST POP SWAP2 POP SWAP2 POP DUP2 DUP1 ISZERO PUSH2 0x17EF JUMPI POP DUP1 MLOAD PUSH1 0x20 EQ JUMPDEST PUSH2 0x17FA JUMPI PUSH1 0x12 PUSH2 0xB02 JUMP JUMPDEST DUP1 DUP1 PUSH1 0x20 ADD SWAP1 MLOAD DUP2 ADD SWAP1 PUSH2 0xB02 SWAP2 SWAP1 PUSH2 0x2059 JUMP JUMPDEST PUSH1 0x40 MLOAD DUP1 PUSH1 0xE0 ADD PUSH1 0x40 MSTORE DUP1 PUSH1 0x0 PUSH1 0x1 PUSH1 0x1 PUSH1 0xA0 SHL SUB AND DUP2 MSTORE PUSH1 0x20 ADD PUSH1 0x0 PUSH1 0x1 PUSH1 0x1 PUSH1 0xA0 SHL SUB AND DUP2 MSTORE PUSH1 0x20 ADD PUSH1 0x0 DUP2 MSTORE PUSH1 0x20 ADD PUSH1 0x0 DUP2 MSTORE PUSH1 0x20 ADD PUSH1 0x0 DUP2 MSTORE PUSH1 0x20 ADD PUSH2 0x186B PUSH1 0x40 MLOAD DUP1 PUSH1 0x40 ADD PUSH1 0x40 MSTORE DUP1 PUSH1 0x0 DUP2 MSTORE PUSH1 0x20 ADD PUSH1 0x0 DUP2 MSTORE POP SWAP1 JUMP JUMPDEST DUP2 MSTORE PUSH1 0x20 ADD PUSH1 0x0 DUP2 MSTORE POP SWAP1 JUMP JUMPDEST PUSH1 0x40 MLOAD DUP1 PUSH2 0x160 ADD PUSH1 0x40 MSTORE DUP1 PUSH1 0x0 PUSH1 0x1 PUSH1 0x1 PUSH1 0xA0 SHL SUB AND DUP2 MSTORE PUSH1 0x20 ADD PUSH1 0x0 DUP2 MSTORE PUSH1 0x20 ADD PUSH1 0x0 DUP2 MSTORE PUSH1 0x20 ADD PUSH1 0x0 DUP2 MSTORE PUSH1 0x20 ADD PUSH1 0x0 DUP2 MSTORE PUSH1 0x20 ADD PUSH1 0x0 DUP2 MSTORE PUSH1 0x20 ADD PUSH1 0x0 DUP2 MSTORE PUSH1 0x20 ADD PUSH1 0x0 DUP2 MSTORE PUSH1 0x20 ADD PUSH1 0x0 DUP2 MSTORE PUSH1 0x20 ADD PUSH1 0x0 DUP2 MSTORE PUSH1 0x20 ADD PUSH2 0x18F0 PUSH1 0x40 MLOAD DUP1 PUSH1 0x40 ADD PUSH1 0x40 MSTORE DUP1 PUSH1 0x0 DUP2 MSTORE PUSH1 0x20 ADD PUSH1 0x0 DUP2 MSTORE POP SWAP1 JUMP JUMPDEST SWAP1 MSTORE SWAP1 JUMP JUMPDEST PUSH1 0x1 PUSH1 0x1 PUSH1 0xA0 SHL SUB DUP2 AND DUP2 EQ PUSH2 0x190A JUMPI PUSH1 0x0 DUP1 REVERT JUMPDEST POP JUMP JUMPDEST PUSH1 0x0 DUP1 PUSH1 0x40 DUP4 DUP6 SUB SLT ISZERO PUSH2 0x1920 JUMPI PUSH1 0x0 DUP1 REVERT JUMPDEST DUP3 CALLDATALOAD PUSH2 0x192B DUP2 PUSH2 0x18F5 JUMP JUMPDEST SWAP2 POP PUSH1 0x20 DUP4 ADD CALLDATALOAD PUSH2 0x193B DUP2 PUSH2 0x18F5 JUMP JUMPDEST DUP1 SWAP2 POP POP SWAP3 POP SWAP3 SWAP1 POP JUMP JUMPDEST PUSH1 0x0 PUSH1 0x20 DUP3 DUP5 SUB SLT ISZERO PUSH2 0x1958 JUMPI PUSH1 0x0 DUP1 REVERT JUMPDEST DUP2 CALLDATALOAD PUSH2 0x3F4 DUP2 PUSH2 0x18F5 JUMP JUMPDEST PUSH1 0x0 DUP1 PUSH1 0x0 PUSH1 0x60 DUP5 DUP7 SUB SLT ISZERO PUSH2 0x1978 JUMPI PUSH1 0x0 DUP1 REVERT JUMPDEST DUP4 CALLDATALOAD PUSH2 0x1983 DUP2 PUSH2 0x18F5 JUMP JUMPDEST SWAP3 POP PUSH1 0x20 DUP5 ADD CALLDATALOAD PUSH2 0x1993 DUP2 PUSH2 0x18F5 JUMP JUMPDEST SWAP2 POP PUSH1 0x40 DUP5 ADD CALLDATALOAD DUP1 ISZERO ISZERO DUP2 EQ PUSH2 0x19A8 JUMPI PUSH1 0x0 DUP1 REVERT JUMPDEST DUP1 SWAP2 POP POP SWAP3 POP SWAP3 POP SWAP3 JUMP JUMPDEST DUP2 MLOAD DUP2 MSTORE PUSH1 0x20 DUP1 DUP4 ADD MLOAD SWAP1 DUP3 ADD MSTORE PUSH1 0x40 DUP2 ADD PUSH2 0x451 JUMP JUMPDEST PUSH1 0x1 DUP1 PUSH1 0xA0 SHL SUB DUP1 DUP3 MLOAD AND DUP4 MSTORE DUP1 PUSH1 0x20 DUP4 ADD MLOAD AND PUSH1 0x20 DUP5 ADD MSTORE POP PUSH1 0x40 DUP2 ADD MLOAD PUSH1 0x40 DUP4 ADD MSTORE PUSH1 0x60 DUP2 ADD MLOAD PUSH1 0x60 DUP4 ADD MSTORE PUSH1 0x80 DUP2 ADD MLOAD PUSH1 0x80 DUP4 ADD MSTORE PUSH1 0xA0 DUP2 ADD MLOAD PUSH2 0x1A1E PUSH1 0xA0 DUP5 ADD DUP3 DUP1 MLOAD DUP3 MSTORE PUSH1 0x20 SWAP1 DUP2 ADD MLOAD SWAP2 ADD MSTORE JUMP JUMPDEST POP PUSH1 0xC0 ADD MLOAD PUSH1 0xE0 SWAP2 SWAP1 SWAP2 ADD MSTORE JUMP JUMPDEST PUSH2 0x100 DUP2 ADD PUSH2 0x451 DUP3 DUP5 PUSH2 0x19CA JUMP JUMPDEST DUP2 MLOAD PUSH1 0x1 PUSH1 0x1 PUSH1 0xA0 SHL SUB AND DUP2 MSTORE PUSH2 0x180 DUP2 ADD PUSH1 0x20 DUP4 ADD MLOAD PUSH1 0x20 DUP4 ADD MSTORE PUSH1 0x40 DUP4 ADD MLOAD PUSH1 0x40 DUP4 ADD MSTORE PUSH1 0x60 DUP4 ADD MLOAD PUSH1 0x60 DUP4 ADD MSTORE PUSH1 0x80 DUP4 ADD MLOAD PUSH1 0x80 DUP4 ADD MSTORE PUSH1 0xA0 DUP4 ADD MLOAD PUSH1 0xA0 DUP4 ADD MSTORE PUSH1 0xC0 DUP4 ADD MLOAD PUSH1 0xC0 DUP4 ADD MSTORE PUSH1 0xE0 DUP4 ADD MLOAD PUSH1 0xE0 DUP4 ADD MSTORE PUSH2 0x100 DUP1 DUP5 ADD MLOAD DUP2 DUP5 ADD MSTORE POP PUSH2 0x120 DUP1 DUP5 ADD MLOAD DUP2 DUP5 ADD MSTORE POP PUSH2 0x140 DUP1 DUP5 ADD MLOAD PUSH2 0x1AC8 DUP3 DUP6 ADD DUP3 DUP1 MLOAD DUP3 MSTORE PUSH1 0x20 SWAP1 DUP2 ADD MLOAD SWAP2 ADD MSTORE JUMP JUMPDEST POP POP SWAP3 SWAP2 POP POP JUMP JUMPDEST PUSH1 0x0 DUP1 PUSH1 0x0 PUSH1 0x60 DUP5 DUP7 SUB SLT ISZERO PUSH2 0x1AE5 JUMPI PUSH1 0x0 DUP1 REVERT JUMPDEST DUP4 CALLDATALOAD PUSH2 0x1AF0 DUP2 PUSH2 0x18F5 JUMP JUMPDEST SWAP3 POP PUSH1 0x20 DUP5 ADD CALLDATALOAD PUSH2 0x1B00 DUP2 PUSH2 0x18F5 JUMP JUMPDEST SWAP2 POP PUSH1 0x40 DUP5 ADD CALLDATALOAD PUSH2 0x19A8 DUP2 PUSH2 0x18F5 JUMP JUMPDEST PUSH1 0x0 DUP1 PUSH1 0x0 PUSH1 0x40 DUP5 DUP7 SUB SLT ISZERO PUSH2 0x1B25 JUMPI PUSH1 0x0 DUP1 REVERT JUMPDEST DUP4 CALLDATALOAD PUSH2 0x1B30 DUP2 PUSH2 0x18F5 JUMP JUMPDEST SWAP3 POP PUSH1 0x20 DUP5 ADD CALLDATALOAD PUSH8 0xFFFFFFFFFFFFFFFF DUP1 DUP3 GT ISZERO PUSH2 0x1B4D JUMPI PUSH1 0x0 DUP1 REVERT JUMPDEST DUP2 DUP7 ADD SWAP2 POP DUP7 PUSH1 0x1F DUP4 ADD SLT PUSH2 0x1B61 JUMPI PUSH1 0x0 DUP1 REVERT JUMPDEST DUP2 CALLDATALOAD DUP2 DUP2 GT ISZERO PUSH2 0x1B70 JUMPI PUSH1 0x0 DUP1 REVERT JUMPDEST DUP8 PUSH1 0x20 DUP3 PUSH1 0x5 SHL DUP6 ADD ADD GT ISZERO PUSH2 0x1B85 JUMPI PUSH1 0x0 DUP1 REVERT JUMPDEST PUSH1 0x20 DUP4 ADD SWAP5 POP DUP1 SWAP4 POP POP POP POP SWAP3 POP SWAP3 POP SWAP3 JUMP JUMPDEST PUSH1 0x20 DUP1 DUP3 MSTORE DUP3 MLOAD DUP3 DUP3 ADD DUP2 SWAP1 MSTORE PUSH1 0x0 SWAP2 SWAP1 DUP5 DUP3 ADD SWAP1 PUSH1 0x40 DUP6 ADD SWAP1 DUP5 JUMPDEST DUP2 DUP2 LT ISZERO PUSH2 0x1BDB JUMPI PUSH2 0x1BC7 DUP4 DUP6 MLOAD PUSH2 0x19CA JUMP JUMPDEST SWAP3 DUP5 ADD SWAP3 PUSH2 0x100 SWAP3 SWAP1 SWAP3 ADD SWAP2 PUSH1 0x1 ADD PUSH2 0x1BB4 JUMP JUMPDEST POP SWAP1 SWAP7 SWAP6 POP POP POP POP POP POP JUMP JUMPDEST DUP1 MLOAD PUSH8 0xFFFFFFFFFFFFFFFF DUP2 AND DUP2 EQ PUSH2 0x1BFF JUMPI PUSH1 0x0 DUP1 REVERT JUMPDEST SWAP2 SWAP1 POP JUMP JUMPDEST DUP1 MLOAD PUSH1 0x1 PUSH1 0x1 PUSH1 0x80 SHL SUB DUP2 AND DUP2 EQ PUSH2 0x1BFF JUMPI PUSH1 0x0 DUP1 REVERT JUMPDEST PUSH1 0x0 DUP1 PUSH1 0x0 PUSH1 0x60 DUP5 DUP7 SUB SLT ISZERO PUSH2 0x1C30 JUMPI PUSH1 0x0 DUP1 REVERT JUMPDEST PUSH2 0x1C39 DUP5 PUSH2 0x1BE7 JUMP JUMPDEST SWAP3 POP PUSH2 0x1C47 PUSH1 0x20 DUP6 ADD PUSH2 0x1C04 JUMP JUMPDEST SWAP2 POP PUSH2 0x1C55 PUSH1 0x40 DUP6 ADD PUSH2 0x1BE7 JUMP JUMPDEST SWAP1 POP SWAP3 POP SWAP3 POP SWAP3 JUMP JUMPDEST PUSH4 0x4E487B71 PUSH1 0xE0 SHL PUSH1 0x0 MSTORE PUSH1 0x11 PUSH1 0x4 MSTORE PUSH1 0x24 PUSH1 0x0 REVERT JUMPDEST DUP1 DUP3 MUL DUP2 ISZERO DUP3 DUP3 DIV DUP5 EQ OR PUSH2 0x451 JUMPI PUSH2 0x451 PUSH2 0x1C5E JUMP JUMPDEST PUSH1 0x0 PUSH1 0x20 DUP3 DUP5 SUB SLT ISZERO PUSH2 0x1C9D JUMPI PUSH1 0x0 DUP1 REVERT JUMPDEST DUP2 MLOAD PUSH2 0x3F4 DUP2 PUSH2 0x18F5 JUMP JUMPDEST PUSH1 0x0 PUSH1 0x20 DUP3 DUP5 SUB SLT ISZERO PUSH2 0x1CBA JUMPI PUSH1 0x0 DUP1 REVERT JUMPDEST POP MLOAD SWAP2 SWAP1 POP JUMP JUMPDEST PUSH1 0x1 PUSH1 0x1 PUSH1 0xA0 SHL SUB SWAP4 SWAP1 SWAP4 AND DUP4 MSTORE PUSH1 0x20 DUP4 ADD SWAP2 SWAP1 SWAP2 MSTORE ISZERO ISZERO PUSH1 0x40 DUP3 ADD MSTORE PUSH1 0x60 ADD SWAP1 JUMP JUMPDEST PUSH4 0x4E487B71 PUSH1 0xE0 SHL PUSH1 0x0 MSTORE PUSH1 0x12 PUSH1 0x4 MSTORE PUSH1 0x24 PUSH1 0x0 REVERT JUMPDEST PUSH1 0x0 DUP3 PUSH2 0x1D09 JUMPI PUSH2 0x1D09 PUSH2 0x1CE4 JUMP JUMPDEST POP DIV SWAP1 JUMP JUMPDEST DUP2 DUP2 SUB DUP2 DUP2 GT ISZERO PUSH2 0x451 JUMPI PUSH2 0x451 PUSH2 0x1C5E JUMP JUMPDEST PUSH1 0x0 DUP1 PUSH1 0x40 DUP4 DUP6 SUB SLT ISZERO PUSH2 0x1D34 JUMPI PUSH1 0x0 DUP1 REVERT JUMPDEST PUSH2 0x1D3D DUP4 PUSH2 0x1C04 JUMP JUMPDEST SWAP2 POP PUSH2 0x1D4B PUSH1 0x20 DUP5 ADD PUSH2 0x1C04 JUMP JUMPDEST SWAP1 POP SWAP3 POP SWAP3 SWAP1 POP JUMP JUMPDEST PUSH4 0x4E487B71 PUSH1 0xE0 SHL PUSH1 0x0 MSTORE PUSH1 0x41 PUSH1 0x4 MSTORE PUSH1 0x24 PUSH1 0x0 REVERT JUMPDEST PUSH4 0x4E487B71 PUSH1 0xE0 SHL PUSH1 0x0 MSTORE PUSH1 0x32 PUSH1 0x4 MSTORE PUSH1 0x24 PUSH1 0x0 REVERT JUMPDEST PUSH1 0x1 DUP2 DUP2 JUMPDEST DUP1 DUP6 GT ISZERO PUSH2 0x1DBB JUMPI DUP2 PUSH1 0x0 NOT DIV DUP3 GT ISZERO PUSH2 0x1DA1 JUMPI PUSH2 0x1DA1 PUSH2 0x1C5E JUMP JUMPDEST DUP1 DUP6 AND ISZERO PUSH2 0x1DAE JUMPI SWAP2 DUP2 MUL SWAP2 JUMPDEST SWAP4 DUP5 SHR SWAP4 SWAP1 DUP1 MUL SWAP1 PUSH2 0x1D85 JUMP JUMPDEST POP SWAP3 POP SWAP3 SWAP1 POP JUMP JUMPDEST PUSH1 0x0 DUP3 PUSH2 0x1DD2 JUMPI POP PUSH1 0x1 PUSH2 0x451 JUMP JUMPDEST DUP2 PUSH2 0x1DDF JUMPI POP PUSH1 0x0 PUSH2 0x451 JUMP JUMPDEST DUP2 PUSH1 0x1 DUP2 EQ PUSH2 0x1DF5 JUMPI PUSH1 0x2 DUP2 EQ PUSH2 0x1DFF JUMPI PUSH2 0x1E1B JUMP JUMPDEST PUSH1 0x1 SWAP2 POP POP PUSH2 0x451 JUMP JUMPDEST PUSH1 0xFF DUP5 GT ISZERO PUSH2 0x1E10 JUMPI PUSH2 0x1E10 PUSH2 0x1C5E JUMP JUMPDEST POP POP PUSH1 0x1 DUP3 SHL PUSH2 0x451 JUMP JUMPDEST POP PUSH1 0x20 DUP4 LT PUSH2 0x133 DUP4 LT AND PUSH1 0x4E DUP5 LT PUSH1 0xB DUP5 LT AND OR ISZERO PUSH2 0x1E3E JUMPI POP DUP2 DUP2 EXP PUSH2 0x451 JUMP JUMPDEST PUSH2 0x1E48 DUP4 DUP4 PUSH2 0x1D80 JUMP JUMPDEST DUP1 PUSH1 0x0 NOT DIV DUP3 GT ISZERO PUSH2 0x1E5C JUMPI PUSH2 0x1E5C PUSH2 0x1C5E JUMP JUMPDEST MUL SWAP4 SWAP3 POP POP POP JUMP JUMPDEST PUSH1 0x0 PUSH2 0x3F4 PUSH1 0xFF DUP5 AND DUP4 PUSH2 0x1DC3 JUMP JUMPDEST PUSH8 0xFFFFFFFFFFFFFFFF DUP2 DUP2 AND DUP4 DUP3 AND MUL DUP1 DUP3 AND SWAP2 SWAP1 DUP3 DUP2 EQ PUSH2 0x1AC8 JUMPI PUSH2 0x1AC8 PUSH2 0x1C5E JUMP JUMPDEST PUSH1 0x0 PUSH8 0xFFFFFFFFFFFFFFFF DUP1 DUP5 AND DUP1 PUSH2 0x1EB2 JUMPI PUSH2 0x1EB2 PUSH2 0x1CE4 JUMP JUMPDEST SWAP3 AND SWAP2 SWAP1 SWAP2 DIV SWAP3 SWAP2 POP POP JUMP JUMPDEST PUSH1 0x0 PUSH1 0x40 DUP3 DUP5 SUB SLT ISZERO PUSH2 0x1ED0 JUMPI PUSH1 0x0 DUP1 REVERT JUMPDEST PUSH1 0x40 MLOAD PUSH1 0x40 DUP2 ADD DUP2 DUP2 LT PUSH8 0xFFFFFFFFFFFFFFFF DUP3 GT OR ISZERO PUSH2 0x1EF3 JUMPI PUSH2 0x1EF3 PUSH2 0x1D54 JUMP JUMPDEST PUSH1 0x40 MSTORE PUSH2 0x1EFF DUP4 PUSH2 0x1C04 JUMP JUMPDEST DUP2 MSTORE PUSH2 0x1F0D PUSH1 0x20 DUP5 ADD PUSH2 0x1C04 JUMP JUMPDEST PUSH1 0x20 DUP3 ADD MSTORE SWAP4 SWAP3 POP POP POP JUMP JUMPDEST PUSH1 0x1 PUSH1 0x1 PUSH1 0x80 SHL SUB DUP2 DUP2 AND DUP4 DUP3 AND ADD SWAP1 DUP1 DUP3 GT ISZERO PUSH2 0x14D6 JUMPI PUSH2 0x14D6 PUSH2 0x1C5E JUMP JUMPDEST PUSH1 0x0 JUMPDEST DUP4 DUP2 LT ISZERO PUSH2 0x1F54 JUMPI DUP2 DUP2 ADD MLOAD DUP4 DUP3 ADD MSTORE PUSH1 0x20 ADD PUSH2 0x1F3C JUMP JUMPDEST POP POP PUSH1 0x0 SWAP2 ADD MSTORE JUMP JUMPDEST PUSH1 0x0 PUSH1 0x20 DUP3 DUP5 SUB SLT ISZERO PUSH2 0x1F6F JUMPI PUSH1 0x0 DUP1 REVERT JUMPDEST DUP2 MLOAD PUSH8 0xFFFFFFFFFFFFFFFF DUP1 DUP3 GT ISZERO PUSH2 0x1F87 JUMPI PUSH1 0x0 DUP1 REVERT JUMPDEST DUP2 DUP5 ADD SWAP2 POP DUP5 PUSH1 0x1F DUP4 ADD SLT PUSH2 0x1F9B JUMPI PUSH1 0x0 DUP1 REVERT JUMPDEST DUP2 MLOAD DUP2 DUP2 GT ISZERO PUSH2 0x1FAD JUMPI PUSH2 0x1FAD PUSH2 0x1D54 JUMP JUMPDEST PUSH1 0x40 MLOAD PUSH1 0x1F DUP3 ADD PUSH1 0x1F NOT SWAP1 DUP2 AND PUSH1 0x3F ADD AND DUP2 ADD SWAP1 DUP4 DUP3 GT DUP2 DUP4 LT OR ISZERO PUSH2 0x1FD5 JUMPI PUSH2 0x1FD5 PUSH2 0x1D54 JUMP JUMPDEST DUP2 PUSH1 0x40 MSTORE DUP3 DUP2 MSTORE DUP8 PUSH1 0x20 DUP5 DUP8 ADD ADD GT ISZERO PUSH2 0x1FEE JUMPI PUSH1 0x0 DUP1 REVERT JUMPDEST PUSH2 0x1FFF DUP4 PUSH1 0x20 DUP4 ADD PUSH1 0x20 DUP9 ADD PUSH2 0x1F39 JUMP JUMPDEST SWAP8 SWAP7 POP POP POP POP POP POP POP JUMP JUMPDEST PUSH1 0x20 DUP2 MSTORE PUSH1 0x0 DUP3 MLOAD DUP1 PUSH1 0x20 DUP5 ADD MSTORE PUSH2 0x2029 DUP2 PUSH1 0x40 DUP6 ADD PUSH1 0x20 DUP8 ADD PUSH2 0x1F39 JUMP JUMPDEST PUSH1 0x1F ADD PUSH1 0x1F NOT AND SWAP2 SWAP1 SWAP2 ADD PUSH1 0x40 ADD SWAP3 SWAP2 POP POP JUMP JUMPDEST PUSH1 0x0 DUP3 MLOAD PUSH2 0x204F DUP2 DUP5 PUSH1 0x20 DUP8 ADD PUSH2 0x1F39 JUMP JUMPDEST SWAP2 SWAP1 SWAP2 ADD SWAP3 SWAP2 POP POP JUMP JUMPDEST PUSH1 0x0 PUSH1 0x20 DUP3 DUP5 SUB SLT ISZERO PUSH2 0x206B JUMPI PUSH1 0x0 DUP1 REVERT JUMPDEST DUP2 MLOAD PUSH1 0xFF DUP2 AND DUP2 EQ PUSH2 0x3F4 JUMPI PUSH1 0x0 DUP1 REVERT INVALID LOG2 PUSH5 0x6970667358 0x22 SLT KECCAK256 EXTCODECOPY 0xED 0xD0 PUSH23 0xF2BF4378CFF17A0C48770CCBFFC846BE94527B71681AEA 0xCF DUP10 PUSH30 0x963A64736F6C634300081800330000000000000000000000000000000000 "},"methodIdentifiers":{"getBorrowFee(address)":"87426a84","getCollateralPrice(address)":"51a40994","getHealthFactor(address,address,bool)":"397938dd","getInterestPerYear(address)":"3548ada0","getLiquidationFee(address)":"61acf8d5","getMarketInfoCauldronV2(address)":"c1cd378f","getMarketInfoCauldronV3(address)":"d9630993","getMaxMarketBorrowForCauldronV2(address)":"66e3a454","getMaxMarketBorrowForCauldronV3(address)":"73d04560","getMaxUserBorrowForCauldronV2(address)":"bbd1b028","getMaxUserBorrowForCauldronV3(address)":"945ebb91","getMaximumCollateralRatio(address)":"f79a987a","getOracleExchangeRate(address)":"9406aea1","getTokenInBentoBox(address,address,address)":"dc6f1caa","getTotalBorrowed(address)":"84212635","getTotalCollateral(address)":"60a98b80","getUserBorrow(address,address)":"cdb59644","getUserCollateral(address,address)":"a55e8668","getUserLiquidationPrice(address,address)":"42d3fd08","getUserLtv(address,address)":"1e713a37","getUserMaxBorrow(address,address)":"d33a2491","getUserPosition(address,address)":"92a576e6","getUserPositions(address,address[])":"ee3b1eb9"}}}}}