{
  "_format": "hh-sol-artifact-1",
  "contractName": "MasterContractManager",
  "sourceName": "contracts/mixins/MasterContractManager.sol",
  "abi": [
    {
      "inputs": [],
      "stateMutability": "nonpayable",
      "type": "constructor"
    },
    {
      "anonymous": false,
      "inputs": [
        {
          "indexed": true,
          "internalType": "address",
          "name": "masterContract",
          "type": "address"
        },
        {
          "indexed": false,
          "internalType": "bytes",
          "name": "data",
          "type": "bytes"
        },
        {
          "indexed": true,
          "internalType": "address",
          "name": "cloneAddress",
          "type": "address"
        }
      ],
      "name": "LogDeploy",
      "type": "event"
    },
    {
      "anonymous": false,
      "inputs": [
        {
          "indexed": true,
          "internalType": "address",
          "name": "protocol",
          "type": "address"
        }
      ],
      "name": "LogRegisterProtocol",
      "type": "event"
    },
    {
      "anonymous": false,
      "inputs": [
        {
          "indexed": true,
          "internalType": "address",
          "name": "masterContract",
          "type": "address"
        },
        {
          "indexed": true,
          "internalType": "address",
          "name": "user",
          "type": "address"
        },
        {
          "indexed": false,
          "internalType": "bool",
          "name": "approved",
          "type": "bool"
        }
      ],
      "name": "LogSetMasterContractApproval",
      "type": "event"
    },
    {
      "anonymous": false,
      "inputs": [
        {
          "indexed": true,
          "internalType": "address",
          "name": "market",
          "type": "address"
        },
        {
          "indexed": true,
          "internalType": "address",
          "name": "masterContract",
          "type": "address"
        }
      ],
      "name": "LogSetMasterContractOf",
      "type": "event"
    },
    {
      "anonymous": false,
      "inputs": [
        {
          "indexed": true,
          "internalType": "address",
          "name": "masterContract",
          "type": "address"
        },
        {
          "indexed": false,
          "internalType": "bool",
          "name": "approved",
          "type": "bool"
        }
      ],
      "name": "LogWhiteListMasterContract",
      "type": "event"
    },
    {
      "anonymous": false,
      "inputs": [
        {
          "indexed": true,
          "internalType": "address",
          "name": "previousOwner",
          "type": "address"
        },
        {
          "indexed": true,
          "internalType": "address",
          "name": "newOwner",
          "type": "address"
        }
      ],
      "name": "OwnershipTransferred",
      "type": "event"
    },
    {
      "inputs": [],
      "name": "DOMAIN_SEPARATOR",
      "outputs": [
        {
          "internalType": "bytes32",
          "name": "",
          "type": "bytes32"
        }
      ],
      "stateMutability": "view",
      "type": "function"
    },
    {
      "inputs": [],
      "name": "claimOwnership",
      "outputs": [],
      "stateMutability": "nonpayable",
      "type": "function"
    },
    {
      "inputs": [
        {
          "internalType": "address",
          "name": "",
          "type": "address"
        },
        {
          "internalType": "uint256",
          "name": "",
          "type": "uint256"
        }
      ],
      "name": "clonesOf",
      "outputs": [
        {
          "internalType": "address",
          "name": "",
          "type": "address"
        }
      ],
      "stateMutability": "view",
      "type": "function"
    },
    {
      "inputs": [
        {
          "internalType": "address",
          "name": "masterContract",
          "type": "address"
        }
      ],
      "name": "clonesOfCount",
      "outputs": [
        {
          "internalType": "uint256",
          "name": "cloneCount",
          "type": "uint256"
        }
      ],
      "stateMutability": "view",
      "type": "function"
    },
    {
      "inputs": [
        {
          "internalType": "address",
          "name": "masterContract",
          "type": "address"
        },
        {
          "internalType": "bytes",
          "name": "data",
          "type": "bytes"
        },
        {
          "internalType": "bool",
          "name": "useCreate2",
          "type": "bool"
        }
      ],
      "name": "deploy",
      "outputs": [
        {
          "internalType": "address",
          "name": "cloneAddress",
          "type": "address"
        }
      ],
      "stateMutability": "payable",
      "type": "function"
    },
    {
      "inputs": [
        {
          "internalType": "address",
          "name": "",
          "type": "address"
        },
        {
          "internalType": "address",
          "name": "",
          "type": "address"
        }
      ],
      "name": "masterContractApproved",
      "outputs": [
        {
          "internalType": "bool",
          "name": "",
          "type": "bool"
        }
      ],
      "stateMutability": "view",
      "type": "function"
    },
    {
      "inputs": [
        {
          "internalType": "address",
          "name": "",
          "type": "address"
        }
      ],
      "name": "masterContractOf",
      "outputs": [
        {
          "internalType": "address",
          "name": "",
          "type": "address"
        }
      ],
      "stateMutability": "view",
      "type": "function"
    },
    {
      "inputs": [
        {
          "internalType": "address",
          "name": "",
          "type": "address"
        }
      ],
      "name": "nonces",
      "outputs": [
        {
          "internalType": "uint256",
          "name": "",
          "type": "uint256"
        }
      ],
      "stateMutability": "view",
      "type": "function"
    },
    {
      "inputs": [],
      "name": "owner",
      "outputs": [
        {
          "internalType": "address",
          "name": "",
          "type": "address"
        }
      ],
      "stateMutability": "view",
      "type": "function"
    },
    {
      "inputs": [],
      "name": "pendingOwner",
      "outputs": [
        {
          "internalType": "address",
          "name": "",
          "type": "address"
        }
      ],
      "stateMutability": "view",
      "type": "function"
    },
    {
      "inputs": [],
      "name": "registerProtocol",
      "outputs": [],
      "stateMutability": "nonpayable",
      "type": "function"
    },
    {
      "inputs": [
        {
          "internalType": "address",
          "name": "user",
          "type": "address"
        },
        {
          "internalType": "address",
          "name": "masterContract",
          "type": "address"
        },
        {
          "internalType": "bool",
          "name": "approved",
          "type": "bool"
        },
        {
          "internalType": "uint8",
          "name": "v",
          "type": "uint8"
        },
        {
          "internalType": "bytes32",
          "name": "r",
          "type": "bytes32"
        },
        {
          "internalType": "bytes32",
          "name": "s",
          "type": "bytes32"
        }
      ],
      "name": "setMasterContractApproval",
      "outputs": [],
      "stateMutability": "nonpayable",
      "type": "function"
    },
    {
      "inputs": [
        {
          "internalType": "address",
          "name": "market",
          "type": "address"
        },
        {
          "internalType": "address",
          "name": "masterContract",
          "type": "address"
        }
      ],
      "name": "setMasterContractOf",
      "outputs": [],
      "stateMutability": "nonpayable",
      "type": "function"
    },
    {
      "inputs": [
        {
          "internalType": "address",
          "name": "newOwner",
          "type": "address"
        },
        {
          "internalType": "bool",
          "name": "direct",
          "type": "bool"
        },
        {
          "internalType": "bool",
          "name": "renounce",
          "type": "bool"
        }
      ],
      "name": "transferOwnership",
      "outputs": [],
      "stateMutability": "nonpayable",
      "type": "function"
    },
    {
      "inputs": [
        {
          "internalType": "address",
          "name": "masterContract",
          "type": "address"
        },
        {
          "internalType": "bool",
          "name": "approved",
          "type": "bool"
        }
      ],
      "name": "whitelistMasterContract",
      "outputs": [],
      "stateMutability": "nonpayable",
      "type": "function"
    },
    {
      "inputs": [
        {
          "internalType": "address",
          "name": "",
          "type": "address"
        }
      ],
      "name": "whitelistedMasterContracts",
      "outputs": [
        {
          "internalType": "bool",
          "name": "",
          "type": "bool"
        }
      ],
      "stateMutability": "view",
      "type": "function"
    }
  ],
  "bytecode": "0x60c060405234801561001057600080fd5b50600080546001600160a01b0319163390811782556040519091907f8be0079c531659141344cd1fd0a4f28419497f9722a3daafe3b4186f6b6457e0908290a34660a0818152604080517f8cad95687ba82c2ce50e74f7b754645e5117c3a5bec8151c0726d5857980a8666020808301919091527fd7df266aff736d415a9dc14b4158201d612e70d75b9c7f4e375ccfd20aa5166f828401526060820185905230608080840191909152835180840390910181529190930190915280519101206080525060805160a0516111836100f960003960006106c40152600061076b01526111836000f3fe6080604052600436106100f35760003560e01c80638da5cb5b1161008a578063bafe4f1411610059578063bafe4f14146102bf578063c0a47c93146102f5578063e30c397814610315578063fba96be81461033557600080fd5b80638da5cb5b1461022f5780638fd436541461024f57806391e0eab51461026f578063aee4d1b2146102aa57600080fd5b80634e71e0c8116100c65780634e71e0c8146101ad578063733a9d7c146101c25780637c6a68a5146101e25780637ecebe001461020257600080fd5b8063078dfbe7146100f857806312a90c8a1461011a5780631f54245b1461015f5780633644e5151461018a575b600080fd5b34801561010457600080fd5b50610118610113366004610ec2565b61036b565b005b34801561012657600080fd5b5061014a610135366004610f05565b60056020526000908152604090205460ff1681565b60405190151581526020015b60405180910390f35b61017261016d366004610f27565b6104af565b6040516001600160a01b039091168152602001610156565b34801561019657600080fd5b5061019f6106bf565b604051908152602001610156565b3480156101b957600080fd5b50610118610791565b3480156101ce57600080fd5b506101186101dd366004610fbb565b61084e565b3480156101ee57600080fd5b506101186101fd366004610fee565b61095d565b34801561020e57600080fd5b5061019f61021d366004610f05565b60066020526000908152604090205481565b34801561023b57600080fd5b50600054610172906001600160a01b031681565b34801561025b57600080fd5b5061017261026a366004611018565b6109b4565b34801561027b57600080fd5b5061014a61028a366004610fee565b600460209081526000928352604080842090915290825290205460ff1681565b3480156102b657600080fd5b506101186109ec565b3480156102cb57600080fd5b506101726102da366004610f05565b6002602052600090815260409020546001600160a01b031681565b34801561030157600080fd5b50610118610310366004611042565b610a33565b34801561032157600080fd5b50600154610172906001600160a01b031681565b34801561034157600080fd5b5061019f610350366004610f05565b6001600160a01b031660009081526003602052604090205490565b6000546001600160a01b031633146103ca5760405162461bcd60e51b815260206004820181905260248201527f4f776e61626c653a2063616c6c6572206973206e6f7420746865206f776e657260448201526064015b60405180910390fd5b811561048d576001600160a01b0383161515806103e45750805b6104285760405162461bcd60e51b81526020600482015260156024820152744f776e61626c653a207a65726f206164647265737360581b60448201526064016103c1565b600080546040516001600160a01b03808716939216917f8be0079c531659141344cd1fd0a4f28419497f9722a3daafe3b4186f6b6457e091a3600080546001600160a01b0385166001600160a01b031991821617909155600180549091169055505050565b600180546001600160a01b0385166001600160a01b0319909116179055505050565b60006001600160a01b0385166105075760405162461bcd60e51b815260206004820181905260248201527f426f72696e67466163746f72793a204e6f206d6173746572436f6e747261637460448201526064016103c1565b606085901b821561057957600085856040516105249291906110b0565b60405180910390209050604051733d602d80600a3d3981f3363d3d373d3d3d363d7360601b81528260148201526e5af43d82803e903d91602b57fd5bf360881b6028820152816037826000f5935050506105be565b604051733d602d80600a3d3981f3363d3d373d3d3d363d7360601b81528160148201526e5af43d82803e903d91602b57fd5bf360881b60288201526037816000f09250505b6001600160a01b0380831660008181526002602090815260408083208054958c166001600160a01b0319968716811790915583526003825280832080546001810182559084529190922001805490931682179092559051631377d1f560e21b8152634ddf47d490349061063790899089906004016110c0565b6000604051808303818588803b15801561065057600080fd5b505af1158015610664573d6000803e3d6000fd5b5050505050816001600160a01b0316866001600160a01b03167fd62166f3c2149208e51788b1401cc356bf5da1fc6c7886a32e18570f57d88b3b87876040516106ae9291906110c0565b60405180910390a350949350505050565b6000467f0000000000000000000000000000000000000000000000000000000000000000811461076957604080517f8cad95687ba82c2ce50e74f7b754645e5117c3a5bec8151c0726d5857980a8666020808301919091527fd7df266aff736d415a9dc14b4158201d612e70d75b9c7f4e375ccfd20aa5166f8284015260608201849052306080808401919091528351808403909101815260a0909201909252805191012061078b565b7f00000000000000000000000000000000000000000000000000000000000000005b91505090565b6001546001600160a01b03163381146107ec5760405162461bcd60e51b815260206004820181905260248201527f4f776e61626c653a2063616c6c657220213d2070656e64696e67206f776e657260448201526064016103c1565b600080546040516001600160a01b03808516939216917f8be0079c531659141344cd1fd0a4f28419497f9722a3daafe3b4186f6b6457e091a3600080546001600160a01b039092166001600160a01b0319928316179055600180549091169055565b6000546001600160a01b031633146108a85760405162461bcd60e51b815260206004820181905260248201527f4f776e61626c653a2063616c6c6572206973206e6f7420746865206f776e657260448201526064016103c1565b6001600160a01b0382166108fe5760405162461bcd60e51b815260206004820152601c60248201527f4d6173746572434d67723a2043616e6e6f7420617070726f766520300000000060448201526064016103c1565b6001600160a01b038216600081815260056020908152604091829020805460ff191685151590811790915591519182527f31a1e0eac44b54ac6c2a2efa87e92c83405ffcf33fceef02a7bca695130e2600910160405180910390a25050565b6001600160a01b0382811660008181526002602052604080822080546001600160a01b0319169486169485179055517fbb53a9740cbbd53a27910dec388f565018e47603b00e7c858fd73db68f9a515f9190a35050565b600360205281600052604060002081815481106109d057600080fd5b6000918252602090912001546001600160a01b03169150829050565b3360008181526002602052604080822080546001600160a01b03191684179055517fdfb44ffabf0d3a8f650d3ce43eff98f6d050e7ea1a396d5794f014e7dadabacb9190a2565b6001600160a01b038516610a895760405162461bcd60e51b815260206004820152601b60248201527f4d6173746572434d67723a206d617374657243206e6f7420736574000000000060448201526064016103c1565b81158015610a95575080155b8015610aa2575060ff8316155b15610bd4576001600160a01b0386163314610aff5760405162461bcd60e51b815260206004820152601b60248201527f4d6173746572434d67723a2075736572206e6f742073656e646572000000000060448201526064016103c1565b6001600160a01b038681166000908152600260205260409020541615610b675760405162461bcd60e51b815260206004820152601960248201527f4d6173746572434d67723a207573657220697320636c6f6e650000000000000060448201526064016103c1565b6001600160a01b03851660009081526005602052604090205460ff16610bcf5760405162461bcd60e51b815260206004820152601b60248201527f4d6173746572434d67723a206e6f742077686974656c6973746564000000000060448201526064016103c1565b610e26565b6001600160a01b038616610c2a5760405162461bcd60e51b815260206004820152601c60248201527f4d6173746572434d67723a20557365722063616e6e6f7420626520300000000060448201526064016103c1565b600060405180604001604052806002815260200161190160f01b815250610c4f6106bf565b7f1962bc9f5484cb7a998701b81090e966ee1fce5771af884cceee7c081b14ade287610c9b577fb426802f1f7dc850a7b6b38805edea2442f3992878a9ab985abfe8091d95d0b1610cbd565b7f422ac5323fe049241dee67716229a1cc1bc7b313b23dfe3ef6d42ab177a3b2845b6001600160a01b038b16600090815260066020526040812080548d928d928d9291610ce7836110ef565b909155506040805160208101979097528601949094526001600160a01b03928316606086015291166080840152151560a083015260c082015260e00160405160208183030381529060405280519060200120604051602001610d4b93929190611116565b60408051601f198184030181528282528051602091820120600080855291840180845281905260ff88169284019290925260608301869052608083018590529092509060019060a0016020604051602081039080840390855afa158015610db6573d6000803e3d6000fd5b505050602060405103519050876001600160a01b0316816001600160a01b031614610e235760405162461bcd60e51b815260206004820152601d60248201527f4d6173746572434d67723a20496e76616c6964205369676e617475726500000060448201526064016103c1565b50505b6001600160a01b038581166000818152600460209081526040808320948b1680845294825291829020805460ff191689151590811790915591519182527f5f6ebb64ba012a851c6f014e6cad458ddf213d1512049b31cd06365c2b059257910160405180910390a3505050505050565b80356001600160a01b0381168114610ead57600080fd5b919050565b80358015158114610ead57600080fd5b600080600060608486031215610ed757600080fd5b610ee084610e96565b9250610eee60208501610eb2565b9150610efc60408501610eb2565b90509250925092565b600060208284031215610f1757600080fd5b610f2082610e96565b9392505050565b60008060008060608587031215610f3d57600080fd5b610f4685610e96565b9350602085013567ffffffffffffffff80821115610f6357600080fd5b818701915087601f830112610f7757600080fd5b813581811115610f8657600080fd5b886020828501011115610f9857600080fd5b602083019550809450505050610fb060408601610eb2565b905092959194509250565b60008060408385031215610fce57600080fd5b610fd783610e96565b9150610fe560208401610eb2565b90509250929050565b6000806040838503121561100157600080fd5b61100a83610e96565b9150610fe560208401610e96565b6000806040838503121561102b57600080fd5b61103483610e96565b946020939093013593505050565b60008060008060008060c0878903121561105b57600080fd5b61106487610e96565b955061107260208801610e96565b945061108060408801610eb2565b9350606087013560ff8116811461109657600080fd5b9598949750929560808101359460a0909101359350915050565b8183823760009101908152919050565b60208152816020820152818360408301376000818301604090810191909152601f909201601f19160101919050565b60006001820161110f57634e487b7160e01b600052601160045260246000fd5b5060010190565b6000845160005b81811015611137576020818801810151858301520161111d565b509190910192835250602082015260400191905056fea2646970667358221220389477f3947c0768f1de7644dfd6ef64be7ab4020adcef6e80818826cc516b6264736f6c63430008180033",
  "linkReferences": {},
  "deployedLinkReferences": {}
}