{
  "_format": "hh-sol-artifact-1",
  "contractName": "MasterContractManager",
  "sourceName": "contracts/mixins/MasterContractManager.sol",
  "abi": [
    {
      "inputs": [],
      "stateMutability": "nonpayable",
      "type": "constructor"
    },
    {
      "anonymous": false,
      "inputs": [
        {
          "indexed": true,
          "internalType": "address",
          "name": "masterContract",
          "type": "address"
        },
        {
          "indexed": false,
          "internalType": "bytes",
          "name": "data",
          "type": "bytes"
        },
        {
          "indexed": true,
          "internalType": "address",
          "name": "cloneAddress",
          "type": "address"
        }
      ],
      "name": "LogDeploy",
      "type": "event"
    },
    {
      "anonymous": false,
      "inputs": [
        {
          "indexed": true,
          "internalType": "address",
          "name": "protocol",
          "type": "address"
        }
      ],
      "name": "LogRegisterProtocol",
      "type": "event"
    },
    {
      "anonymous": false,
      "inputs": [
        {
          "indexed": true,
          "internalType": "address",
          "name": "masterContract",
          "type": "address"
        },
        {
          "indexed": true,
          "internalType": "address",
          "name": "user",
          "type": "address"
        },
        {
          "indexed": false,
          "internalType": "bool",
          "name": "approved",
          "type": "bool"
        }
      ],
      "name": "LogSetMasterContractApproval",
      "type": "event"
    },
    {
      "anonymous": false,
      "inputs": [
        {
          "indexed": true,
          "internalType": "address",
          "name": "masterContract",
          "type": "address"
        },
        {
          "indexed": false,
          "internalType": "bool",
          "name": "approved",
          "type": "bool"
        }
      ],
      "name": "LogWhiteListMasterContract",
      "type": "event"
    },
    {
      "anonymous": false,
      "inputs": [
        {
          "indexed": true,
          "internalType": "address",
          "name": "previousOwner",
          "type": "address"
        },
        {
          "indexed": true,
          "internalType": "address",
          "name": "newOwner",
          "type": "address"
        }
      ],
      "name": "OwnershipTransferred",
      "type": "event"
    },
    {
      "inputs": [],
      "name": "DOMAIN_SEPARATOR",
      "outputs": [
        {
          "internalType": "bytes32",
          "name": "",
          "type": "bytes32"
        }
      ],
      "stateMutability": "view",
      "type": "function"
    },
    {
      "inputs": [],
      "name": "claimOwnership",
      "outputs": [],
      "stateMutability": "nonpayable",
      "type": "function"
    },
    {
      "inputs": [
        {
          "internalType": "address",
          "name": "",
          "type": "address"
        },
        {
          "internalType": "uint256",
          "name": "",
          "type": "uint256"
        }
      ],
      "name": "clonesOf",
      "outputs": [
        {
          "internalType": "address",
          "name": "",
          "type": "address"
        }
      ],
      "stateMutability": "view",
      "type": "function"
    },
    {
      "inputs": [
        {
          "internalType": "address",
          "name": "masterContract",
          "type": "address"
        }
      ],
      "name": "clonesOfCount",
      "outputs": [
        {
          "internalType": "uint256",
          "name": "cloneCount",
          "type": "uint256"
        }
      ],
      "stateMutability": "view",
      "type": "function"
    },
    {
      "inputs": [
        {
          "internalType": "address",
          "name": "masterContract",
          "type": "address"
        },
        {
          "internalType": "bytes",
          "name": "data",
          "type": "bytes"
        },
        {
          "internalType": "bool",
          "name": "useCreate2",
          "type": "bool"
        }
      ],
      "name": "deploy",
      "outputs": [
        {
          "internalType": "address",
          "name": "cloneAddress",
          "type": "address"
        }
      ],
      "stateMutability": "payable",
      "type": "function"
    },
    {
      "inputs": [
        {
          "internalType": "address",
          "name": "",
          "type": "address"
        },
        {
          "internalType": "address",
          "name": "",
          "type": "address"
        }
      ],
      "name": "masterContractApproved",
      "outputs": [
        {
          "internalType": "bool",
          "name": "",
          "type": "bool"
        }
      ],
      "stateMutability": "view",
      "type": "function"
    },
    {
      "inputs": [
        {
          "internalType": "address",
          "name": "",
          "type": "address"
        }
      ],
      "name": "masterContractOf",
      "outputs": [
        {
          "internalType": "address",
          "name": "",
          "type": "address"
        }
      ],
      "stateMutability": "view",
      "type": "function"
    },
    {
      "inputs": [
        {
          "internalType": "address",
          "name": "",
          "type": "address"
        }
      ],
      "name": "nonces",
      "outputs": [
        {
          "internalType": "uint256",
          "name": "",
          "type": "uint256"
        }
      ],
      "stateMutability": "view",
      "type": "function"
    },
    {
      "inputs": [],
      "name": "owner",
      "outputs": [
        {
          "internalType": "address",
          "name": "",
          "type": "address"
        }
      ],
      "stateMutability": "view",
      "type": "function"
    },
    {
      "inputs": [],
      "name": "pendingOwner",
      "outputs": [
        {
          "internalType": "address",
          "name": "",
          "type": "address"
        }
      ],
      "stateMutability": "view",
      "type": "function"
    },
    {
      "inputs": [],
      "name": "registerProtocol",
      "outputs": [],
      "stateMutability": "nonpayable",
      "type": "function"
    },
    {
      "inputs": [
        {
          "internalType": "address",
          "name": "user",
          "type": "address"
        },
        {
          "internalType": "address",
          "name": "masterContract",
          "type": "address"
        },
        {
          "internalType": "bool",
          "name": "approved",
          "type": "bool"
        },
        {
          "internalType": "uint8",
          "name": "v",
          "type": "uint8"
        },
        {
          "internalType": "bytes32",
          "name": "r",
          "type": "bytes32"
        },
        {
          "internalType": "bytes32",
          "name": "s",
          "type": "bytes32"
        }
      ],
      "name": "setMasterContractApproval",
      "outputs": [],
      "stateMutability": "nonpayable",
      "type": "function"
    },
    {
      "inputs": [
        {
          "internalType": "address",
          "name": "newOwner",
          "type": "address"
        },
        {
          "internalType": "bool",
          "name": "direct",
          "type": "bool"
        },
        {
          "internalType": "bool",
          "name": "renounce",
          "type": "bool"
        }
      ],
      "name": "transferOwnership",
      "outputs": [],
      "stateMutability": "nonpayable",
      "type": "function"
    },
    {
      "inputs": [
        {
          "internalType": "address",
          "name": "masterContract",
          "type": "address"
        },
        {
          "internalType": "bool",
          "name": "approved",
          "type": "bool"
        }
      ],
      "name": "whitelistMasterContract",
      "outputs": [],
      "stateMutability": "nonpayable",
      "type": "function"
    },
    {
      "inputs": [
        {
          "internalType": "address",
          "name": "",
          "type": "address"
        }
      ],
      "name": "whitelistedMasterContracts",
      "outputs": [
        {
          "internalType": "bool",
          "name": "",
          "type": "bool"
        }
      ],
      "stateMutability": "view",
      "type": "function"
    }
  ],
  "bytecode": "0x60c060405234801561001057600080fd5b50600080546001600160a01b0319163390811782556040519091907f8be0079c531659141344cd1fd0a4f28419497f9722a3daafe3b4186f6b6457e0908290a34660a0818152604080517f8cad95687ba82c2ce50e74f7b754645e5117c3a5bec8151c0726d5857980a8666020808301919091527fd7df266aff736d415a9dc14b4158201d612e70d75b9c7f4e375ccfd20aa5166f828401526060820185905230608080840191909152835180840390910181529190930190915280519101206080525060805160a0516111326100f960003960006106990152600061074001526111326000f3fe6080604052600436106100e85760003560e01c80638da5cb5b1161008a578063bafe4f1411610059578063bafe4f1414610294578063c0a47c93146102ca578063e30c3978146102ea578063fba96be81461030a57600080fd5b80638da5cb5b146102045780638fd436541461022457806391e0eab514610244578063aee4d1b21461027f57600080fd5b80633644e515116100c65780633644e5151461017f5780634e71e0c8146101a2578063733a9d7c146101b75780637ecebe00146101d757600080fd5b8063078dfbe7146100ed57806312a90c8a1461010f5780631f54245b14610154575b600080fd5b3480156100f957600080fd5b5061010d610108366004610e71565b610340565b005b34801561011b57600080fd5b5061013f61012a366004610eb4565b60056020526000908152604090205460ff1681565b60405190151581526020015b60405180910390f35b610167610162366004610ed6565b610484565b6040516001600160a01b03909116815260200161014b565b34801561018b57600080fd5b50610194610694565b60405190815260200161014b565b3480156101ae57600080fd5b5061010d610766565b3480156101c357600080fd5b5061010d6101d2366004610f6a565b610823565b3480156101e357600080fd5b506101946101f2366004610eb4565b60066020526000908152604090205481565b34801561021057600080fd5b50600054610167906001600160a01b031681565b34801561023057600080fd5b5061016761023f366004610f9d565b610932565b34801561025057600080fd5b5061013f61025f366004610fc7565b600460209081526000928352604080842090915290825290205460ff1681565b34801561028b57600080fd5b5061010d61096a565b3480156102a057600080fd5b506101676102af366004610eb4565b6002602052600090815260409020546001600160a01b031681565b3480156102d657600080fd5b5061010d6102e5366004610ff1565b6109b1565b3480156102f657600080fd5b50600154610167906001600160a01b031681565b34801561031657600080fd5b50610194610325366004610eb4565b6001600160a01b031660009081526003602052604090205490565b6000546001600160a01b0316331461039f5760405162461bcd60e51b815260206004820181905260248201527f4f776e61626c653a2063616c6c6572206973206e6f7420746865206f776e657260448201526064015b60405180910390fd5b8115610462576001600160a01b0383161515806103b95750805b6103fd5760405162461bcd60e51b81526020600482015260156024820152744f776e61626c653a207a65726f206164647265737360581b6044820152606401610396565b600080546040516001600160a01b03808716939216917f8be0079c531659141344cd1fd0a4f28419497f9722a3daafe3b4186f6b6457e091a3600080546001600160a01b0385166001600160a01b031991821617909155600180549091169055505050565b600180546001600160a01b0385166001600160a01b0319909116179055505050565b60006001600160a01b0385166104dc5760405162461bcd60e51b815260206004820181905260248201527f426f72696e67466163746f72793a204e6f206d6173746572436f6e74726163746044820152606401610396565b606085901b821561054e57600085856040516104f992919061105f565b60405180910390209050604051733d602d80600a3d3981f3363d3d373d3d3d363d7360601b81528260148201526e5af43d82803e903d91602b57fd5bf360881b6028820152816037826000f593505050610593565b604051733d602d80600a3d3981f3363d3d373d3d3d363d7360601b81528160148201526e5af43d82803e903d91602b57fd5bf360881b60288201526037816000f09250505b6001600160a01b0380831660008181526002602090815260408083208054958c166001600160a01b0319968716811790915583526003825280832080546001810182559084529190922001805490931682179092559051631377d1f560e21b8152634ddf47d490349061060c908990899060040161106f565b6000604051808303818588803b15801561062557600080fd5b505af1158015610639573d6000803e3d6000fd5b5050505050816001600160a01b0316866001600160a01b03167fd62166f3c2149208e51788b1401cc356bf5da1fc6c7886a32e18570f57d88b3b878760405161068392919061106f565b60405180910390a350949350505050565b6000467f0000000000000000000000000000000000000000000000000000000000000000811461073e57604080517f8cad95687ba82c2ce50e74f7b754645e5117c3a5bec8151c0726d5857980a8666020808301919091527fd7df266aff736d415a9dc14b4158201d612e70d75b9c7f4e375ccfd20aa5166f8284015260608201849052306080808401919091528351808403909101815260a09092019092528051910120610760565b7f00000000000000000000000000000000000000000000000000000000000000005b91505090565b6001546001600160a01b03163381146107c15760405162461bcd60e51b815260206004820181905260248201527f4f776e61626c653a2063616c6c657220213d2070656e64696e67206f776e65726044820152606401610396565b600080546040516001600160a01b03808516939216917f8be0079c531659141344cd1fd0a4f28419497f9722a3daafe3b4186f6b6457e091a3600080546001600160a01b039092166001600160a01b0319928316179055600180549091169055565b6000546001600160a01b0316331461087d5760405162461bcd60e51b815260206004820181905260248201527f4f776e61626c653a2063616c6c6572206973206e6f7420746865206f776e65726044820152606401610396565b6001600160a01b0382166108d35760405162461bcd60e51b815260206004820152601c60248201527f4d6173746572434d67723a2043616e6e6f7420617070726f76652030000000006044820152606401610396565b6001600160a01b038216600081815260056020908152604091829020805460ff191685151590811790915591519182527f31a1e0eac44b54ac6c2a2efa87e92c83405ffcf33fceef02a7bca695130e2600910160405180910390a25050565b6003602052816000526040600020818154811061094e57600080fd5b6000918252602090912001546001600160a01b03169150829050565b3360008181526002602052604080822080546001600160a01b03191684179055517fdfb44ffabf0d3a8f650d3ce43eff98f6d050e7ea1a396d5794f014e7dadabacb9190a2565b6001600160a01b038516610a075760405162461bcd60e51b815260206004820152601b60248201527f4d6173746572434d67723a206d617374657243206e6f742073657400000000006044820152606401610396565b81158015610a13575080155b8015610a20575060ff8316155b15610b52576001600160a01b0386163314610a7d5760405162461bcd60e51b815260206004820152601b60248201527f4d6173746572434d67723a2075736572206e6f742073656e64657200000000006044820152606401610396565b6001600160a01b038681166000908152600260205260409020541615610ae55760405162461bcd60e51b815260206004820152601960248201527f4d6173746572434d67723a207573657220697320636c6f6e65000000000000006044820152606401610396565b6001600160a01b03851660009081526005602052604090205460ff16610b4d5760405162461bcd60e51b815260206004820152601b60248201527f4d6173746572434d67723a206e6f742077686974656c697374656400000000006044820152606401610396565b610da4565b6001600160a01b038616610ba85760405162461bcd60e51b815260206004820152601c60248201527f4d6173746572434d67723a20557365722063616e6e6f742062652030000000006044820152606401610396565b600060405180604001604052806002815260200161190160f01b815250610bcd610694565b7f1962bc9f5484cb7a998701b81090e966ee1fce5771af884cceee7c081b14ade287610c19577fb426802f1f7dc850a7b6b38805edea2442f3992878a9ab985abfe8091d95d0b1610c3b565b7f422ac5323fe049241dee67716229a1cc1bc7b313b23dfe3ef6d42ab177a3b2845b6001600160a01b038b16600090815260066020526040812080548d928d928d9291610c658361109e565b909155506040805160208101979097528601949094526001600160a01b03928316606086015291166080840152151560a083015260c082015260e00160405160208183030381529060405280519060200120604051602001610cc9939291906110c5565b60408051601f198184030181528282528051602091820120600080855291840180845281905260ff88169284019290925260608301869052608083018590529092509060019060a0016020604051602081039080840390855afa158015610d34573d6000803e3d6000fd5b505050602060405103519050876001600160a01b0316816001600160a01b031614610da15760405162461bcd60e51b815260206004820152601d60248201527f4d6173746572434d67723a20496e76616c6964205369676e61747572650000006044820152606401610396565b50505b83610db0576000610db2565b845b6001600160a01b03878116600081815260026020908152604080832080546001600160a01b0319169686169690961790955592891680825260048452848220838352845290849020805460ff19168915159081179091559351938452909290917f5f6ebb64ba012a851c6f014e6cad458ddf213d1512049b31cd06365c2b059257910160405180910390a3505050505050565b80356001600160a01b0381168114610e5c57600080fd5b919050565b80358015158114610e5c57600080fd5b600080600060608486031215610e8657600080fd5b610e8f84610e45565b9250610e9d60208501610e61565b9150610eab60408501610e61565b90509250925092565b600060208284031215610ec657600080fd5b610ecf82610e45565b9392505050565b60008060008060608587031215610eec57600080fd5b610ef585610e45565b9350602085013567ffffffffffffffff80821115610f1257600080fd5b818701915087601f830112610f2657600080fd5b813581811115610f3557600080fd5b886020828501011115610f4757600080fd5b602083019550809450505050610f5f60408601610e61565b905092959194509250565b60008060408385031215610f7d57600080fd5b610f8683610e45565b9150610f9460208401610e61565b90509250929050565b60008060408385031215610fb057600080fd5b610fb983610e45565b946020939093013593505050565b60008060408385031215610fda57600080fd5b610fe383610e45565b9150610f9460208401610e45565b60008060008060008060c0878903121561100a57600080fd5b61101387610e45565b955061102160208801610e45565b945061102f60408801610e61565b9350606087013560ff8116811461104557600080fd5b9598949750929560808101359460a0909101359350915050565b8183823760009101908152919050565b60208152816020820152818360408301376000818301604090810191909152601f909201601f19160101919050565b6000600182016110be57634e487b7160e01b600052601160045260246000fd5b5060010190565b6000845160005b818110156110e657602081880181015185830152016110cc565b509190910192835250602082015260400191905056fea26469706673582212205acdb86e940ef4ccc606b0f76c554d00574caa449eeed40c387b4af30c0159c264736f6c63430008180033",
  "linkReferences": {},
  "deployedLinkReferences": {}
}