{
  "_format": "hh-sol-artifact-1",
  "contractName": "BurnContract",
  "sourceName": "contracts/BurnContract.sol",
  "abi": [
    {
      "inputs": [
        {
          "internalType": "address",
          "name": "_gateway",
          "type": "address"
        },
        {
          "internalType": "address",
          "name": "_gasReceiver",
          "type": "address"
        },
        {
          "internalType": "address",
          "name": "_sBTC",
          "type": "address"
        }
      ],
      "stateMutability": "nonpayable",
      "type": "constructor"
    },
    {
      "inputs": [],
      "name": "InvalidAddress",
      "type": "error"
    },
    {
      "inputs": [],
      "name": "NotApprovedByGateway",
      "type": "error"
    },
    {
      "anonymous": false,
      "inputs": [
        {
          "indexed": false,
          "internalType": "address",
          "name": "_from",
          "type": "address"
        },
        {
          "indexed": false,
          "internalType": "uint256",
          "name": "_amount",
          "type": "uint256"
        }
      ],
      "name": "Burned",
      "type": "event"
    },
    {
      "anonymous": false,
      "inputs": [
        {
          "indexed": false,
          "internalType": "string",
          "name": "_from",
          "type": "string"
        },
        {
          "indexed": false,
          "internalType": "string",
          "name": "_to",
          "type": "string"
        }
      ],
      "name": "Executed",
      "type": "event"
    },
    {
      "anonymous": false,
      "inputs": [
        {
          "indexed": true,
          "internalType": "address",
          "name": "previousOwner",
          "type": "address"
        },
        {
          "indexed": true,
          "internalType": "address",
          "name": "newOwner",
          "type": "address"
        }
      ],
      "name": "OwnershipTransferred",
      "type": "event"
    },
    {
      "inputs": [
        {
          "internalType": "string",
          "name": "destinationChain",
          "type": "string"
        },
        {
          "internalType": "string",
          "name": "destinationTxHash",
          "type": "string"
        },
        {
          "internalType": "uint256",
          "name": "_amount",
          "type": "uint256"
        },
        {
          "internalType": "string",
          "name": "stakerAddress",
          "type": "string"
        }
      ],
      "name": "callBurn",
      "outputs": [],
      "stateMutability": "nonpayable",
      "type": "function"
    },
    {
      "inputs": [],
      "name": "claimOwnership",
      "outputs": [],
      "stateMutability": "nonpayable",
      "type": "function"
    },
    {
      "inputs": [
        {
          "internalType": "bytes32",
          "name": "commandId",
          "type": "bytes32"
        },
        {
          "internalType": "string",
          "name": "sourceChain",
          "type": "string"
        },
        {
          "internalType": "string",
          "name": "sourceAddress",
          "type": "string"
        },
        {
          "internalType": "bytes",
          "name": "payload",
          "type": "bytes"
        }
      ],
      "name": "execute",
      "outputs": [],
      "stateMutability": "nonpayable",
      "type": "function"
    },
    {
      "inputs": [
        {
          "internalType": "bytes32",
          "name": "commandId",
          "type": "bytes32"
        },
        {
          "internalType": "string",
          "name": "sourceChain",
          "type": "string"
        },
        {
          "internalType": "string",
          "name": "sourceAddress",
          "type": "string"
        },
        {
          "internalType": "bytes",
          "name": "payload",
          "type": "bytes"
        },
        {
          "internalType": "string",
          "name": "tokenSymbol",
          "type": "string"
        },
        {
          "internalType": "uint256",
          "name": "amount",
          "type": "uint256"
        }
      ],
      "name": "executeWithToken",
      "outputs": [],
      "stateMutability": "nonpayable",
      "type": "function"
    },
    {
      "inputs": [],
      "name": "gasService",
      "outputs": [
        {
          "internalType": "contract IAxelarGasService",
          "name": "",
          "type": "address"
        }
      ],
      "stateMutability": "view",
      "type": "function"
    },
    {
      "inputs": [],
      "name": "gateway",
      "outputs": [
        {
          "internalType": "contract IAxelarGateway",
          "name": "",
          "type": "address"
        }
      ],
      "stateMutability": "view",
      "type": "function"
    },
    {
      "inputs": [],
      "name": "owner",
      "outputs": [
        {
          "internalType": "address",
          "name": "",
          "type": "address"
        }
      ],
      "stateMutability": "view",
      "type": "function"
    },
    {
      "inputs": [],
      "name": "pendingOwner",
      "outputs": [
        {
          "internalType": "address",
          "name": "",
          "type": "address"
        }
      ],
      "stateMutability": "view",
      "type": "function"
    },
    {
      "inputs": [],
      "name": "sbtc",
      "outputs": [
        {
          "internalType": "contract sBTC",
          "name": "",
          "type": "address"
        }
      ],
      "stateMutability": "view",
      "type": "function"
    },
    {
      "inputs": [],
      "name": "sourceAddress",
      "outputs": [
        {
          "internalType": "string",
          "name": "",
          "type": "string"
        }
      ],
      "stateMutability": "view",
      "type": "function"
    },
    {
      "inputs": [],
      "name": "sourceChain",
      "outputs": [
        {
          "internalType": "string",
          "name": "",
          "type": "string"
        }
      ],
      "stateMutability": "view",
      "type": "function"
    },
    {
      "inputs": [
        {
          "internalType": "address",
          "name": "newOwner",
          "type": "address"
        },
        {
          "internalType": "bool",
          "name": "direct",
          "type": "bool"
        },
        {
          "internalType": "bool",
          "name": "renounce",
          "type": "bool"
        }
      ],
      "name": "transferOwnership",
      "outputs": [],
      "stateMutability": "nonpayable",
      "type": "function"
    }
  ],
  "bytecode": "0x60c060405234801561001057600080fd5b50604051620012d1380380620012d1833981016040819052610031916100e9565b826001600160a01b0381166100595760405163e6c4247b60e01b815260040160405180910390fd5b6001600160a01b0316608052600080546001600160a01b0319163390811782556040519091907f8be0079c531659141344cd1fd0a4f28419497f9722a3daafe3b4186f6b6457e0908290a36001600160a01b0391821660a052600280546001600160a01b031916919092161790555061012c565b80516001600160a01b03811681146100e457600080fd5b919050565b6000806000606084860312156100fe57600080fd5b610107846100cd565b9250610115602085016100cd565b9150610123604085016100cd565b90509250925092565b60805160a05161116b62000166600039600061015a01526000818160d301528181610344015281816104b50152610907015261116b6000f3fe608060405234801561001057600080fd5b50600436106100b45760003560e01c80636a22d8cc116100715780636a22d8cc146101555780638da5cb5b1461017c578063a94c71bc1461018f578063b0fa8444146101a2578063ddc2b238146101aa578063e30c3978146101bd57600080fd5b8063078dfbe7146100b9578063116191b6146100ce5780631a98b2e0146101125780631c6ffa4614610125578063491606581461013a5780634e71e0c81461014d575b600080fd5b6100cc6100c7366004610a0d565b6101d0565b005b6100f57f000000000000000000000000000000000000000000000000000000000000000081565b6040516001600160a01b0390911681526020015b60405180910390f35b6100cc610120366004610aad565b610313565b61012d6103f6565b6040516101099190610bcd565b6100cc610148366004610be7565b610484565b6100cc61056c565b6100f57f000000000000000000000000000000000000000000000000000000000000000081565b6000546100f5906001600160a01b031681565b6100cc61019d366004610c8b565b610629565b61012d610980565b6002546100f5906001600160a01b031681565b6001546100f5906001600160a01b031681565b6000546001600160a01b0316331461022f5760405162461bcd60e51b815260206004820181905260248201527f4f776e61626c653a2063616c6c6572206973206e6f7420746865206f776e657260448201526064015b60405180910390fd5b81156102f2576001600160a01b0383161515806102495750805b61028d5760405162461bcd60e51b81526020600482015260156024820152744f776e61626c653a207a65726f206164647265737360581b6044820152606401610226565b600080546040516001600160a01b03808716939216917f8be0079c531659141344cd1fd0a4f28419497f9722a3daafe3b4186f6b6457e091a3600080546001600160a01b0385166001600160a01b031991821617909155600180549091169055505050565b600180546001600160a01b0319166001600160a01b0385161790555b505050565b60008585604051610325929190610d0f565b604051908190038120631876eed960e01b825291506001600160a01b037f00000000000000000000000000000000000000000000000000000000000000001690631876eed990610389908e908e908e908e908e9089908d908d908d90600401610d48565b6020604051808303816000875af11580156103a8573d6000803e3d6000fd5b505050506040513d601f19601f820116820180604052508101906103cc9190610da7565b6103e957604051631403112d60e21b815260040160405180910390fd5b5050505050505050505050565b6003805461040390610dc4565b80601f016020809104026020016040519081016040528092919081815260200182805461042f90610dc4565b801561047c5780601f106104515761010080835404028352916020019161047c565b820191906000526020600020905b81548152906001019060200180831161045f57829003601f168201915b505050505081565b60008282604051610496929190610d0f565b604051908190038120635f6970c360e01b825291506001600160a01b037f00000000000000000000000000000000000000000000000000000000000000001690635f6970c3906104f4908b908b908b908b908b908990600401610dfe565b6020604051808303816000875af1158015610513573d6000803e3d6000fd5b505050506040513d601f19601f820116820180604052508101906105379190610da7565b61055457604051631403112d60e21b815260040160405180910390fd5b61056287878787878761098d565b5050505050505050565b6001546001600160a01b03163381146105c75760405162461bcd60e51b815260206004820181905260248201527f4f776e61626c653a2063616c6c657220213d2070656e64696e67206f776e65726044820152606401610226565b600080546040516001600160a01b03808516939216917f8be0079c531659141344cd1fd0a4f28419497f9722a3daafe3b4186f6b6457e091a3600080546001600160a01b039092166001600160a01b0319928316179055600180549091169055565b6000831161068d5760405162461bcd60e51b815260206004820152602b60248201527f4275726e436f6e74726163743a20616d6f756e74206d7573742062652067726560448201526a061746572207468616e20360ac1b6064820152608401610226565b6002546040516370a0823160e01b81523360048201526001600160a01b03909116906370a0823190602401602060405180830381865afa1580156106d5573d6000803e3d6000fd5b505050506040513d601f19601f820116820180604052508101906106f99190610e3f565b8311156107535760405162461bcd60e51b815260206004820152602260248201527f4275726e436f6e74726163743a20696e73756666696369656e742062616c616e604482015261636560f01b6064820152608401610226565b806107b75760405162461bcd60e51b815260206004820152602e60248201527f4275726e436f6e74726163743a207374616b65722061646472657373206d757360448201526d74206e6f7420626520656d70747960901b6064820152608401610226565b6002546040516323b872dd60e01b8152336004820152306024820152604481018590526001600160a01b03909116906323b872dd906064016020604051808303816000875af115801561080e573d6000803e3d6000fd5b505050506040513d601f19601f820116820180604052508101906108329190610da7565b50600254604051630852cd8d60e31b8152600481018590526001600160a01b03909116906342966c6890602401600060405180830381600087803b15801561087957600080fd5b505af115801561088d573d6000803e3d6000fd5b505060408051338152602081018790527f696de425f79f4a40bc6d2122ca50507f0efbeabbff86a84871b7196ab8ea8df7935001905060405180910390a1600082826040516020016108e0929190610e58565b60408051601f1981840301815290829052631c92115f60e01b825291506001600160a01b037f00000000000000000000000000000000000000000000000000000000000000001690631c92115f90610944908b908b908b908b908890600401610e74565b600060405180830381600087803b15801561095e57600080fd5b505af1158015610972573d6000803e3d6000fd5b505050505050505050505050565b6004805461040390610dc4565b600061099b82840184610ed1565b905060036109aa878983610fd2565b5060046109b8858783610fd2565b507f0d97a9033491f569feb4c72abf12722b227eec24ee13547bec3654f8663ff7116004826040516109eb929190611093565b60405180910390a150505050505050565b8015158114610a0a57600080fd5b50565b600080600060608486031215610a2257600080fd5b83356001600160a01b0381168114610a3957600080fd5b92506020840135610a49816109fc565b91506040840135610a59816109fc565b809150509250925092565b60008083601f840112610a7657600080fd5b50813567ffffffffffffffff811115610a8e57600080fd5b602083019150836020828501011115610aa657600080fd5b9250929050565b60008060008060008060008060008060c08b8d031215610acc57600080fd5b8a35995060208b013567ffffffffffffffff80821115610aeb57600080fd5b610af78e838f01610a64565b909b50995060408d0135915080821115610b1057600080fd5b610b1c8e838f01610a64565b909950975060608d0135915080821115610b3557600080fd5b610b418e838f01610a64565b909750955060808d0135915080821115610b5a57600080fd5b50610b678d828e01610a64565b9150809450508092505060a08b013590509295989b9194979a5092959850565b6000815180845260005b81811015610bad57602081850181015186830182015201610b91565b506000602082860101526020601f19601f83011685010191505092915050565b602081526000610be06020830184610b87565b9392505050565b60008060008060008060006080888a031215610c0257600080fd5b87359650602088013567ffffffffffffffff80821115610c2157600080fd5b610c2d8b838c01610a64565b909850965060408a0135915080821115610c4657600080fd5b610c528b838c01610a64565b909650945060608a0135915080821115610c6b57600080fd5b50610c788a828b01610a64565b989b979a50959850939692959293505050565b60008060008060008060006080888a031215610ca657600080fd5b873567ffffffffffffffff80821115610cbe57600080fd5b610cca8b838c01610a64565b909950975060208a0135915080821115610ce357600080fd5b610cef8b838c01610a64565b909750955060408a0135945060608a0135915080821115610c6b57600080fd5b8183823760009101908152919050565b81835281816020850137506000828201602090810191909152601f909101601f19169091010190565b89815260c060208201526000610d6260c083018a8c610d1f565b8281036040840152610d7581898b610d1f565b90508660608401528281036080840152610d90818688610d1f565b9150508260a08301529a9950505050505050505050565b600060208284031215610db957600080fd5b8151610be0816109fc565b600181811c90821680610dd857607f821691505b602082108103610df857634e487b7160e01b600052602260045260246000fd5b50919050565b868152608060208201526000610e18608083018789610d1f565b8281036040840152610e2b818688610d1f565b915050826060830152979650505050505050565b600060208284031215610e5157600080fd5b5051919050565b602081526000610e6c602083018486610d1f565b949350505050565b606081526000610e88606083018789610d1f565b8281036020840152610e9b818688610d1f565b90508281036040840152610eaf8185610b87565b98975050505050505050565b634e487b7160e01b600052604160045260246000fd5b600060208284031215610ee357600080fd5b813567ffffffffffffffff80821115610efb57600080fd5b818401915084601f830112610f0f57600080fd5b813581811115610f2157610f21610ebb565b604051601f8201601f19908116603f01168101908382118183101715610f4957610f49610ebb565b81604052828152876020848701011115610f6257600080fd5b826020860160208301376000928101602001929092525095945050505050565b601f82111561030e576000816000526020600020601f850160051c81016020861015610fab5750805b601f850160051c820191505b81811015610fca57828155600101610fb7565b505050505050565b67ffffffffffffffff831115610fea57610fea610ebb565b610ffe83610ff88354610dc4565b83610f82565b6000601f841160018114611032576000851561101a5750838201355b600019600387901b1c1916600186901b17835561108c565b600083815260209020601f19861690835b828110156110635786850135825560209485019460019092019101611043565b50868210156110805760001960f88860031b161c19848701351681555b505060018560011b0183555b5050505050565b6040815260008084546110a581610dc4565b80604086015260606001808416600081146110c757600181146110e357611115565b60ff1985166060890152606084151560051b8901019550611115565b8960005260208060002060005b8681101561110b5781548b82018701529084019082016110f0565b8a01606001975050505b5050505050828103602084015261112c8185610b87565b9594505050505056fea2646970667358221220167aec1f5ecac8b4c809f17831656cf09647df0bf188e620a8cdacb7ac9aa7f064736f6c63430008180033",
  "linkReferences": {},
  "deployedLinkReferences": {}
}