{
  "_format": "hh-sol-artifact-1",
  "contractName": "BurnContract",
  "sourceName": "contracts/BurnContract.sol",
  "abi": [
    {
      "inputs": [
        {
          "internalType": "address",
          "name": "_gateway",
          "type": "address"
        },
        {
          "internalType": "address",
          "name": "_gasReceiver",
          "type": "address"
        },
        {
          "internalType": "address",
          "name": "_sBTC",
          "type": "address"
        }
      ],
      "stateMutability": "nonpayable",
      "type": "constructor"
    },
    {
      "inputs": [],
      "name": "InvalidAddress",
      "type": "error"
    },
    {
      "inputs": [],
      "name": "NotApprovedByGateway",
      "type": "error"
    },
    {
      "anonymous": false,
      "inputs": [
        {
          "indexed": false,
          "internalType": "string",
          "name": "_from",
          "type": "string"
        },
        {
          "indexed": false,
          "internalType": "string",
          "name": "_to",
          "type": "string"
        }
      ],
      "name": "Executed",
      "type": "event"
    },
    {
      "anonymous": false,
      "inputs": [
        {
          "indexed": true,
          "internalType": "address",
          "name": "previousOwner",
          "type": "address"
        },
        {
          "indexed": true,
          "internalType": "address",
          "name": "newOwner",
          "type": "address"
        }
      ],
      "name": "OwnershipTransferred",
      "type": "event"
    },
    {
      "inputs": [
        {
          "internalType": "string",
          "name": "destinationChain",
          "type": "string"
        },
        {
          "internalType": "string",
          "name": "destinationTxHash",
          "type": "string"
        },
        {
          "internalType": "uint256",
          "name": "_amount",
          "type": "uint256"
        },
        {
          "internalType": "string",
          "name": "stakerAddress",
          "type": "string"
        }
      ],
      "name": "callBurn",
      "outputs": [],
      "stateMutability": "nonpayable",
      "type": "function"
    },
    {
      "inputs": [],
      "name": "claimOwnership",
      "outputs": [],
      "stateMutability": "nonpayable",
      "type": "function"
    },
    {
      "inputs": [
        {
          "internalType": "bytes32",
          "name": "commandId",
          "type": "bytes32"
        },
        {
          "internalType": "string",
          "name": "sourceChain",
          "type": "string"
        },
        {
          "internalType": "string",
          "name": "sourceAddress",
          "type": "string"
        },
        {
          "internalType": "bytes",
          "name": "payload",
          "type": "bytes"
        }
      ],
      "name": "execute",
      "outputs": [],
      "stateMutability": "nonpayable",
      "type": "function"
    },
    {
      "inputs": [
        {
          "internalType": "bytes32",
          "name": "commandId",
          "type": "bytes32"
        },
        {
          "internalType": "string",
          "name": "sourceChain",
          "type": "string"
        },
        {
          "internalType": "string",
          "name": "sourceAddress",
          "type": "string"
        },
        {
          "internalType": "bytes",
          "name": "payload",
          "type": "bytes"
        },
        {
          "internalType": "string",
          "name": "tokenSymbol",
          "type": "string"
        },
        {
          "internalType": "uint256",
          "name": "amount",
          "type": "uint256"
        }
      ],
      "name": "executeWithToken",
      "outputs": [],
      "stateMutability": "nonpayable",
      "type": "function"
    },
    {
      "inputs": [],
      "name": "gasService",
      "outputs": [
        {
          "internalType": "contract IAxelarGasService",
          "name": "",
          "type": "address"
        }
      ],
      "stateMutability": "view",
      "type": "function"
    },
    {
      "inputs": [],
      "name": "gateway",
      "outputs": [
        {
          "internalType": "contract IAxelarGateway",
          "name": "",
          "type": "address"
        }
      ],
      "stateMutability": "view",
      "type": "function"
    },
    {
      "inputs": [],
      "name": "owner",
      "outputs": [
        {
          "internalType": "address",
          "name": "",
          "type": "address"
        }
      ],
      "stateMutability": "view",
      "type": "function"
    },
    {
      "inputs": [],
      "name": "pendingOwner",
      "outputs": [
        {
          "internalType": "address",
          "name": "",
          "type": "address"
        }
      ],
      "stateMutability": "view",
      "type": "function"
    },
    {
      "inputs": [],
      "name": "sbtc",
      "outputs": [
        {
          "internalType": "contract sBTC",
          "name": "",
          "type": "address"
        }
      ],
      "stateMutability": "view",
      "type": "function"
    },
    {
      "inputs": [],
      "name": "sourceAddress",
      "outputs": [
        {
          "internalType": "string",
          "name": "",
          "type": "string"
        }
      ],
      "stateMutability": "view",
      "type": "function"
    },
    {
      "inputs": [],
      "name": "sourceChain",
      "outputs": [
        {
          "internalType": "string",
          "name": "",
          "type": "string"
        }
      ],
      "stateMutability": "view",
      "type": "function"
    },
    {
      "inputs": [
        {
          "internalType": "address",
          "name": "newOwner",
          "type": "address"
        }
      ],
      "name": "transferMintOwnership",
      "outputs": [],
      "stateMutability": "nonpayable",
      "type": "function"
    },
    {
      "inputs": [
        {
          "internalType": "address",
          "name": "newOwner",
          "type": "address"
        },
        {
          "internalType": "bool",
          "name": "direct",
          "type": "bool"
        },
        {
          "internalType": "bool",
          "name": "renounce",
          "type": "bool"
        }
      ],
      "name": "transferOwnership",
      "outputs": [],
      "stateMutability": "nonpayable",
      "type": "function"
    }
  ],
  "bytecode": "0x60c060405234801561001057600080fd5b5060405161127138038061127183398101604081905261002f916100e7565b826001600160a01b0381166100575760405163e6c4247b60e01b815260040160405180910390fd5b6001600160a01b0316608052600080546001600160a01b0319163390811782556040519091907f8be0079c531659141344cd1fd0a4f28419497f9722a3daafe3b4186f6b6457e0908290a36001600160a01b0391821660a052600280546001600160a01b031916919092161790555061012a565b80516001600160a01b03811681146100e257600080fd5b919050565b6000806000606084860312156100fc57600080fd5b610105846100cb565b9250610113602085016100cb565b9150610121604085016100cb565b90509250925092565b60805160a05161110e610163600039600061018801526000818160ee0152818161043c015281816105ad015261089b015261110e6000f3fe608060405234801561001057600080fd5b50600436106100cf5760003560e01c80634e71e0c81161008c578063a94c71bc11610066578063a94c71bc146101bd578063b0fa8444146101d0578063ddc2b238146101d8578063e30c3978146101eb57600080fd5b80634e71e0c81461017b5780636a22d8cc146101835780638da5cb5b146101aa57600080fd5b8063078dfbe7146100d4578063116191b6146100e95780631861355b1461012d5780631a98b2e0146101405780631c6ffa46146101535780634916065814610168575b600080fd5b6100e76100e23660046109bd565b6101fe565b005b6101107f000000000000000000000000000000000000000000000000000000000000000081565b6040516001600160a01b0390911681526020015b60405180910390f35b6100e761013b366004610a06565b610341565b6100e761014e366004610a71565b61040b565b61015b6104ee565b6040516101249190610b91565b6100e7610176366004610ba4565b61057c565b6100e7610664565b6101107f000000000000000000000000000000000000000000000000000000000000000081565b600054610110906001600160a01b031681565b6100e76101cb366004610c48565b610721565b61015b610914565b600254610110906001600160a01b031681565b600154610110906001600160a01b031681565b6000546001600160a01b0316331461025d5760405162461bcd60e51b815260206004820181905260248201527f4f776e61626c653a2063616c6c6572206973206e6f7420746865206f776e657260448201526064015b60405180910390fd5b8115610320576001600160a01b0383161515806102775750805b6102bb5760405162461bcd60e51b81526020600482015260156024820152744f776e61626c653a207a65726f206164647265737360581b6044820152606401610254565b600080546040516001600160a01b03808716939216917f8be0079c531659141344cd1fd0a4f28419497f9722a3daafe3b4186f6b6457e091a3600080546001600160a01b0385166001600160a01b031991821617909155600180549091169055505050565b600180546001600160a01b0319166001600160a01b0385161790555b505050565b6000546001600160a01b0316331461039b5760405162461bcd60e51b815260206004820181905260248201527f4f776e61626c653a2063616c6c6572206973206e6f7420746865206f776e65726044820152606401610254565b60025460405163078dfbe760e01b81526001600160a01b03838116600483015260016024830152600060448301529091169063078dfbe790606401600060405180830381600087803b1580156103f057600080fd5b505af1158015610404573d6000803e3d6000fd5b5050505050565b6000858560405161041d929190610ccc565b604051908190038120631876eed960e01b825291506001600160a01b037f00000000000000000000000000000000000000000000000000000000000000001690631876eed990610481908e908e908e908e908e9089908d908d908d90600401610d05565b6020604051808303816000875af11580156104a0573d6000803e3d6000fd5b505050506040513d601f19601f820116820180604052508101906104c49190610d64565b6104e157604051631403112d60e21b815260040160405180910390fd5b5050505050505050505050565b600380546104fb90610d81565b80601f016020809104026020016040519081016040528092919081815260200182805461052790610d81565b80156105745780601f1061054957610100808354040283529160200191610574565b820191906000526020600020905b81548152906001019060200180831161055757829003601f168201915b505050505081565b6000828260405161058e929190610ccc565b604051908190038120635f6970c360e01b825291506001600160a01b037f00000000000000000000000000000000000000000000000000000000000000001690635f6970c3906105ec908b908b908b908b908b908990600401610dbb565b6020604051808303816000875af115801561060b573d6000803e3d6000fd5b505050506040513d601f19601f8201168201806040525081019061062f9190610d64565b61064c57604051631403112d60e21b815260040160405180910390fd5b61065a878787878787610921565b5050505050505050565b6001546001600160a01b03163381146106bf5760405162461bcd60e51b815260206004820181905260248201527f4f776e61626c653a2063616c6c657220213d2070656e64696e67206f776e65726044820152606401610254565b600080546040516001600160a01b03808516939216917f8be0079c531659141344cd1fd0a4f28419497f9722a3daafe3b4186f6b6457e091a3600080546001600160a01b039092166001600160a01b0319928316179055600180549091169055565b600083116107855760405162461bcd60e51b815260206004820152602b60248201527f4275726e436f6e74726163743a20616d6f756e74206d7573742062652067726560448201526a061746572207468616e20360ac1b6064820152608401610254565b6002546040516323b872dd60e01b8152336004820152306024820152604481018590526001600160a01b03909116906323b872dd906064016020604051808303816000875af11580156107dc573d6000803e3d6000fd5b505050506040513d601f19601f820116820180604052508101906108009190610d64565b50600254604051630852cd8d60e31b8152600481018590526001600160a01b03909116906342966c6890602401600060405180830381600087803b15801561084757600080fd5b505af115801561085b573d6000803e3d6000fd5b5050505060008282604051602001610874929190610dfc565b60408051601f1981840301815290829052631c92115f60e01b825291506001600160a01b037f00000000000000000000000000000000000000000000000000000000000000001690631c92115f906108d8908b908b908b908b908890600401610e18565b600060405180830381600087803b1580156108f257600080fd5b505af1158015610906573d6000803e3d6000fd5b505050505050505050505050565b600480546104fb90610d81565b600061092f82840184610e75565b9050600361093e878983610f76565b50600461094c858783610f76565b507f0d97a9033491f569feb4c72abf12722b227eec24ee13547bec3654f8663ff71160048260405161097f929190611036565b60405180910390a150505050505050565b80356001600160a01b03811681146109a757600080fd5b919050565b80151581146109ba57600080fd5b50565b6000806000606084860312156109d257600080fd5b6109db84610990565b925060208401356109eb816109ac565b915060408401356109fb816109ac565b809150509250925092565b600060208284031215610a1857600080fd5b610a2182610990565b9392505050565b60008083601f840112610a3a57600080fd5b50813567ffffffffffffffff811115610a5257600080fd5b602083019150836020828501011115610a6a57600080fd5b9250929050565b60008060008060008060008060008060c08b8d031215610a9057600080fd5b8a35995060208b013567ffffffffffffffff80821115610aaf57600080fd5b610abb8e838f01610a28565b909b50995060408d0135915080821115610ad457600080fd5b610ae08e838f01610a28565b909950975060608d0135915080821115610af957600080fd5b610b058e838f01610a28565b909750955060808d0135915080821115610b1e57600080fd5b50610b2b8d828e01610a28565b9150809450508092505060a08b013590509295989b9194979a5092959850565b6000815180845260005b81811015610b7157602081850181015186830182015201610b55565b506000602082860101526020601f19601f83011685010191505092915050565b602081526000610a216020830184610b4b565b60008060008060008060006080888a031215610bbf57600080fd5b87359650602088013567ffffffffffffffff80821115610bde57600080fd5b610bea8b838c01610a28565b909850965060408a0135915080821115610c0357600080fd5b610c0f8b838c01610a28565b909650945060608a0135915080821115610c2857600080fd5b50610c358a828b01610a28565b989b979a50959850939692959293505050565b60008060008060008060006080888a031215610c6357600080fd5b873567ffffffffffffffff80821115610c7b57600080fd5b610c878b838c01610a28565b909950975060208a0135915080821115610ca057600080fd5b610cac8b838c01610a28565b909750955060408a0135945060608a0135915080821115610c2857600080fd5b8183823760009101908152919050565b81835281816020850137506000828201602090810191909152601f909101601f19169091010190565b89815260c060208201526000610d1f60c083018a8c610cdc565b8281036040840152610d3281898b610cdc565b90508660608401528281036080840152610d4d818688610cdc565b9150508260a08301529a9950505050505050505050565b600060208284031215610d7657600080fd5b8151610a21816109ac565b600181811c90821680610d9557607f821691505b602082108103610db557634e487b7160e01b600052602260045260246000fd5b50919050565b868152608060208201526000610dd5608083018789610cdc565b8281036040840152610de8818688610cdc565b915050826060830152979650505050505050565b602081526000610e10602083018486610cdc565b949350505050565b606081526000610e2c606083018789610cdc565b8281036020840152610e3f818688610cdc565b90508281036040840152610e538185610b4b565b98975050505050505050565b634e487b7160e01b600052604160045260246000fd5b600060208284031215610e8757600080fd5b813567ffffffffffffffff80821115610e9f57600080fd5b818401915084601f830112610eb357600080fd5b813581811115610ec557610ec5610e5f565b604051601f8201601f19908116603f01168101908382118183101715610eed57610eed610e5f565b81604052828152876020848701011115610f0657600080fd5b826020860160208301376000928101602001929092525095945050505050565b601f82111561033c576000816000526020600020601f850160051c81016020861015610f4f5750805b601f850160051c820191505b81811015610f6e57828155600101610f5b565b505050505050565b67ffffffffffffffff831115610f8e57610f8e610e5f565b610fa283610f9c8354610d81565b83610f26565b6000601f841160018114610fd65760008515610fbe5750838201355b600019600387901b1c1916600186901b178355610404565b600083815260209020601f19861690835b828110156110075786850135825560209485019460019092019101610fe7565b50868210156110245760001960f88860031b161c19848701351681555b505060018560011b0183555050505050565b60408152600080845461104881610d81565b806040860152606060018084166000811461106a5760018114611086576110b8565b60ff1985166060890152606084151560051b89010195506110b8565b8960005260208060002060005b868110156110ae5781548b8201870152908401908201611093565b8a01606001975050505b505050505082810360208401526110cf8185610b4b565b9594505050505056fea264697066735822122073c463e8750d6d705708f9b6b4b523185c47e1343f736216bc2eb1f2083ec77f64736f6c63430008180033",
  "linkReferences": {},
  "deployedLinkReferences": {}
}