{
  "_format": "hh-sol-artifact-1",
  "contractName": "AxelarAuthWeighted",
  "sourceName": "contracts/axelar/AxelarAuthWeighted.sol",
  "abi": [
    {
      "inputs": [
        {
          "internalType": "bytes[]",
          "name": "recentOperators",
          "type": "bytes[]"
        }
      ],
      "stateMutability": "nonpayable",
      "type": "constructor"
    },
    {
      "inputs": [],
      "name": "DuplicateOperators",
      "type": "error"
    },
    {
      "inputs": [],
      "name": "InvalidOperators",
      "type": "error"
    },
    {
      "inputs": [],
      "name": "InvalidOwner",
      "type": "error"
    },
    {
      "inputs": [],
      "name": "InvalidOwnerAddress",
      "type": "error"
    },
    {
      "inputs": [],
      "name": "InvalidS",
      "type": "error"
    },
    {
      "inputs": [],
      "name": "InvalidSignature",
      "type": "error"
    },
    {
      "inputs": [],
      "name": "InvalidSignatureLength",
      "type": "error"
    },
    {
      "inputs": [],
      "name": "InvalidThreshold",
      "type": "error"
    },
    {
      "inputs": [],
      "name": "InvalidV",
      "type": "error"
    },
    {
      "inputs": [],
      "name": "InvalidWeights",
      "type": "error"
    },
    {
      "inputs": [],
      "name": "LowSignaturesWeight",
      "type": "error"
    },
    {
      "inputs": [],
      "name": "MalformedSigners",
      "type": "error"
    },
    {
      "inputs": [],
      "name": "NotOwner",
      "type": "error"
    },
    {
      "anonymous": false,
      "inputs": [
        {
          "indexed": false,
          "internalType": "address[]",
          "name": "newOperators",
          "type": "address[]"
        },
        {
          "indexed": false,
          "internalType": "uint256[]",
          "name": "newWeights",
          "type": "uint256[]"
        },
        {
          "indexed": false,
          "internalType": "uint256",
          "name": "newThreshold",
          "type": "uint256"
        }
      ],
      "name": "OperatorshipTransferred",
      "type": "event"
    },
    {
      "anonymous": false,
      "inputs": [
        {
          "indexed": true,
          "internalType": "address",
          "name": "newOwner",
          "type": "address"
        }
      ],
      "name": "OwnershipTransferStarted",
      "type": "event"
    },
    {
      "anonymous": false,
      "inputs": [
        {
          "indexed": true,
          "internalType": "address",
          "name": "newOwner",
          "type": "address"
        }
      ],
      "name": "OwnershipTransferred",
      "type": "event"
    },
    {
      "inputs": [],
      "name": "acceptOwnership",
      "outputs": [],
      "stateMutability": "nonpayable",
      "type": "function"
    },
    {
      "inputs": [],
      "name": "currentEpoch",
      "outputs": [
        {
          "internalType": "uint256",
          "name": "",
          "type": "uint256"
        }
      ],
      "stateMutability": "view",
      "type": "function"
    },
    {
      "inputs": [
        {
          "internalType": "bytes32",
          "name": "",
          "type": "bytes32"
        }
      ],
      "name": "epochForHash",
      "outputs": [
        {
          "internalType": "uint256",
          "name": "",
          "type": "uint256"
        }
      ],
      "stateMutability": "view",
      "type": "function"
    },
    {
      "inputs": [
        {
          "internalType": "uint256",
          "name": "",
          "type": "uint256"
        }
      ],
      "name": "hashForEpoch",
      "outputs": [
        {
          "internalType": "bytes32",
          "name": "",
          "type": "bytes32"
        }
      ],
      "stateMutability": "view",
      "type": "function"
    },
    {
      "inputs": [],
      "name": "owner",
      "outputs": [
        {
          "internalType": "address",
          "name": "owner_",
          "type": "address"
        }
      ],
      "stateMutability": "view",
      "type": "function"
    },
    {
      "inputs": [],
      "name": "pendingOwner",
      "outputs": [
        {
          "internalType": "address",
          "name": "owner_",
          "type": "address"
        }
      ],
      "stateMutability": "view",
      "type": "function"
    },
    {
      "inputs": [
        {
          "internalType": "address",
          "name": "newOwner",
          "type": "address"
        }
      ],
      "name": "proposeOwnership",
      "outputs": [],
      "stateMutability": "nonpayable",
      "type": "function"
    },
    {
      "inputs": [
        {
          "internalType": "bytes",
          "name": "params",
          "type": "bytes"
        }
      ],
      "name": "transferOperatorship",
      "outputs": [],
      "stateMutability": "nonpayable",
      "type": "function"
    },
    {
      "inputs": [
        {
          "internalType": "address",
          "name": "newOwner",
          "type": "address"
        }
      ],
      "name": "transferOwnership",
      "outputs": [],
      "stateMutability": "nonpayable",
      "type": "function"
    },
    {
      "inputs": [
        {
          "internalType": "bytes32",
          "name": "messageHash",
          "type": "bytes32"
        },
        {
          "internalType": "bytes",
          "name": "proof",
          "type": "bytes"
        }
      ],
      "name": "validateProof",
      "outputs": [
        {
          "internalType": "bool",
          "name": "",
          "type": "bool"
        }
      ],
      "stateMutability": "view",
      "type": "function"
    }
  ],
  "bytecode": "0x60806040523480156200001157600080fd5b50604051620016f4380380620016f48339810160408190526200003491620003f9565b3362000040816200008e565b50805160005b8181101562000085576200007c83828151811062000068576200006862000530565b60200260200101516200013260201b60201c565b60010162000046565b50505062000757565b6001600160a01b038116620000b657604051633649397d60e21b815260040160405180910390fd5b6040516001600160a01b038216907f04dba622d284ed0014ee4b9a6a68386be1a4c08a4913ae272de89199cc68616390600090a27f02016836a56b71f0d02689e69e326f4f4c1b9057164ef592671cf0d37c8040c05560007f9855384122b55936fbfb8ca5120e63c6537a1ac40caf6ae33502b3c5da8c87d155565b6000806000838060200190518101906200014d9190620005b7565b825182519396509194509250908115806200017057506200016e85620002da565b155b156200018f57604051630849699d60e11b815260040160405180910390fd5b818114620001b05760405163108cef9d60e31b815260040160405180910390fd5b6000805b82811015620001f257858181518110620001d257620001d262000530565b602002602001015182620001e791906200069e565b9150600101620001b4565b508315806200020057508381105b156200021f5760405163aabd5a0960e01b815260040160405180910390fd5b86516020808901919091206000818152600290925260409091205415620002595760405163adda47f760e01b815260040160405180910390fd5b600080546200026a9060016200069e565b6000818155818152600160209081526040808320869055858352600290915290819020829055519091507f05b53362d4afea7533e835bd99f6c0f2c251e2f08b5c461734829516519dd5ac90620002c7908a908a908a90620006c6565b60405180910390a1505050505050505050565b805160009081838183620002f257620002f262000530565b6020026020010151905060006001600160a01b0316816001600160a01b03160362000321575060009392505050565b60015b828110156200037f57600085828151811062000344576200034462000530565b60200260200101519050806001600160a01b0316836001600160a01b031610620003745750600095945050505050565b915060010162000324565b506001949350505050565b634e487b7160e01b600052604160045260246000fd5b604051601f8201601f191681016001600160401b0381118282101715620003cb57620003cb6200038a565b604052919050565b60006001600160401b03821115620003ef57620003ef6200038a565b5060051b60200190565b600060208083850312156200040d57600080fd5b82516001600160401b03808211156200042557600080fd5b8185019150601f86601f8401126200043c57600080fd5b8251620004536200044d82620003d3565b620003a0565b81815260059190911b840185019085810190898311156200047357600080fd5b8686015b838110156200052257805186811115620004915760008081fd5b8701603f81018c13620004a45760008081fd5b8881015187811115620004bb57620004bb6200038a565b620004ce818801601f19168b01620003a0565b81815260408e81848601011115620004e65760008081fd5b60005b8381101562000506578481018201518382018e01528c01620004e9565b505060009181018b019190915284525091870191870162000477565b509998505050505050505050565b634e487b7160e01b600052603260045260246000fd5b600082601f8301126200055857600080fd5b815160206200056b6200044d83620003d3565b8083825260208201915060208460051b8701019350868411156200058e57600080fd5b602086015b84811015620005ac578051835291830191830162000593565b509695505050505050565b600080600060608486031215620005cd57600080fd5b83516001600160401b0380821115620005e557600080fd5b818601915086601f830112620005fa57600080fd5b815160206200060d6200044d83620003d3565b82815260059290921b8401810191818101908a8411156200062d57600080fd5b948201945b83861015620006645785516001600160a01b0381168114620006545760008081fd5b8252948201949082019062000632565b918901519197509093505050808211156200067e57600080fd5b506200068d8682870162000546565b925050604084015190509250925092565b80820180821115620006c057634e487b7160e01b600052601160045260246000fd5b92915050565b606080825284519082018190526000906020906080840190828801845b828110156200070a5781516001600160a01b031684529284019290840190600101620006e3565b5050508381038285015285518082528683019183019060005b81811015620007415783518352928401929184019160010162000723565b5050809350505050826040830152949350505050565b610f8d80620007676000396000f3fe608060405234801561001057600080fd5b506004361061009e5760003560e01c8063ba6742e511610066578063ba6742e514610128578063d289d1cb14610148578063e30c39781461015b578063f1501c8914610170578063f2fde38b1461019057600080fd5b8063710bf322146100a357806373e3d66a146100b857806376671808146100e057806379ba5097146100f75780638da5cb5b146100ff575b600080fd5b6100b66100b1366004610929565b6101a3565b005b6100cb6100c6366004610996565b61024e565b60405190151581526020015b60405180910390f35b6100e960005481565b6040519081526020016100d7565b6100b66102fa565b600080516020610f18833981519152545b6040516001600160a01b0390911681526020016100d7565b6100e96101363660046109e2565b60016020526000908152604090205481565b6100b66101563660046109fb565b610349565b600080516020610f3883398151915254610110565b6100e961017e3660046109e2565b60026020526000908152604090205481565b6100b661019e366004610929565b6103ca565b336101ba600080516020610f188339815191525490565b6001600160a01b0316146101e1576040516330cd747160e01b815260040160405180910390fd5b6001600160a01b03811661020857604051633649397d60e21b815260040160405180910390fd5b6040516001600160a01b038216907fd9be0e8e07417e00f2521db636cb53e316fd288f5051f16d2aa2bf0c3938a87690600090a2600080516020610f3883398151915255565b60008080808061026086880188610bfc565b9350935093509350600084848460405160200161027f93929190610cec565b60408051601f198184030181529181528151602092830120600081815260029093529082205491549092508115806102c1575060106102be8383610d8f565b10155b156102df57604051630849699d60e11b815260040160405180910390fd5b6102ec8b88888888610408565b149998505050505050505050565b6000610312600080516020610f388339815191525490565b90506001600160a01b038116331461033d576040516349e27cff60e01b815260040160405180910390fd5b6103468161051e565b50565b33610360600080516020610f188339815191525490565b6001600160a01b031614610387576040516330cd747160e01b815260040160405180910390fd5b6103c682828080601f01602080910402602001604051908101604052809392919081815260200183838082843760009201919091525061059d92505050565b5050565b336103e1600080516020610f188339815191525490565b6001600160a01b03161461033d576040516330cd747160e01b815260040160405180910390fd5b83518151600080805b838110156104fd57600061043e8b88848151811061043157610431610da8565b6020026020010151610730565b90505b858410801561047b575089848151811061045d5761045d610da8565b60200260200101516001600160a01b0316816001600160a01b031614155b156104905761048984610dbe565b9350610441565b8584036104b05760405163c6fb539360e01b815260040160405180910390fd5b8884815181106104c2576104c2610da8565b6020026020010151836104d59190610dd7565b92508783106104e957505050505050610517565b6104f284610dbe565b935050600101610411565b50604051630407644b60e31b815260040160405180910390fd5b5050505050565b6001600160a01b03811661054557604051633649397d60e21b815260040160405180910390fd5b6040516001600160a01b038216907f04dba622d284ed0014ee4b9a6a68386be1a4c08a4913ae272de89199cc68616390600090a2600080516020610f18833981519152556000600080516020610f3883398151915255565b6000806000838060200190518101906105b69190610e49565b825182519396509194509250908115806105d657506105d48561086e565b155b156105f457604051630849699d60e11b815260040160405180910390fd5b8181146106145760405163108cef9d60e31b815260040160405180910390fd5b6000805b8281101561064f5785818151811061063257610632610da8565b6020026020010151826106459190610dd7565b9150600101610618565b5083158061065c57508381105b1561067a5760405163aabd5a0960e01b815260040160405180910390fd5b865160208089019190912060008181526002909252604090912054156106b35760405163adda47f760e01b815260040160405180910390fd5b600080546106c2906001610dd7565b6000818155818152600160209081526040808320869055858352600290915290819020829055519091507f05b53362d4afea7533e835bd99f6c0f2c251e2f08b5c461734829516519dd5ac9061071d908a908a908a90610cec565b60405180910390a1505050505050505050565b6000815160411461075457604051634be6321b60e01b815260040160405180910390fd5b60208201516040830151606084015160001a7f7fffffffffffffffffffffffffffffff5d576e7357a4501ddfe92f46681b20a08211156107a7576040516308183ce960e31b815260040160405180910390fd5b8060ff16601b141580156107bf57508060ff16601c14155b156107dd5760405163119bce3960e01b815260040160405180910390fd5b6040805160008082526020820180845289905260ff841692820192909252606081018590526080810184905260019060a0016020604051602081039080840390855afa158015610831573d6000803e3d6000fd5b505050602060405103519450846001600160a01b03160361086557604051638baa579f60e01b815260040160405180910390fd5b50505092915050565b80516000908183818361088357610883610da8565b6020026020010151905060006001600160a01b0316816001600160a01b0316036108b1575060009392505050565b60015b828110156109095760008582815181106108d0576108d0610da8565b60200260200101519050806001600160a01b0316836001600160a01b0316106108ff5750600095945050505050565b91506001016108b4565b506001949350505050565b6001600160a01b038116811461034657600080fd5b60006020828403121561093b57600080fd5b813561094681610914565b9392505050565b60008083601f84011261095f57600080fd5b50813567ffffffffffffffff81111561097757600080fd5b60208301915083602082850101111561098f57600080fd5b9250929050565b6000806000604084860312156109ab57600080fd5b83359250602084013567ffffffffffffffff8111156109c957600080fd5b6109d58682870161094d565b9497909650939450505050565b6000602082840312156109f457600080fd5b5035919050565b60008060208385031215610a0e57600080fd5b823567ffffffffffffffff811115610a2557600080fd5b610a318582860161094d565b90969095509350505050565b634e487b7160e01b600052604160045260246000fd5b604051601f8201601f1916810167ffffffffffffffff81118282101715610a7c57610a7c610a3d565b604052919050565b600067ffffffffffffffff821115610a9e57610a9e610a3d565b5060051b60200190565b600082601f830112610ab957600080fd5b81356020610ace610ac983610a84565b610a53565b8083825260208201915060208460051b870101935086841115610af057600080fd5b602086015b84811015610b0c5780358352918301918301610af5565b509695505050505050565b6000601f83601f840112610b2a57600080fd5b82356020610b3a610ac983610a84565b82815260059290921b85018101918181019087841115610b5957600080fd5b8287015b84811015610bf057803567ffffffffffffffff80821115610b7e5760008081fd5b818a0191508a603f830112610b935760008081fd5b85820135604082821115610ba957610ba9610a3d565b610bba828b01601f19168901610a53565b92508183528c81838601011115610bd15760008081fd5b8181850189850137506000908201870152845250918301918301610b5d565b50979650505050505050565b60008060008060808587031215610c1257600080fd5b843567ffffffffffffffff80821115610c2a57600080fd5b818701915087601f830112610c3e57600080fd5b81356020610c4e610ac983610a84565b82815260059290921b8401810191818101908b841115610c6d57600080fd5b948201945b83861015610c94578535610c8581610914565b82529482019490820190610c72565b98505088013592505080821115610caa57600080fd5b610cb688838901610aa8565b9450604087013593506060870135915080821115610cd357600080fd5b50610ce087828801610b17565b91505092959194509250565b606080825284519082018190526000906020906080840190828801845b82811015610d2e5781516001600160a01b031684529284019290840190600101610d09565b5050508381038285015285518082528683019183019060005b81811015610d6357835183529284019291840191600101610d47565b5050809350505050826040830152949350505050565b634e487b7160e01b600052601160045260246000fd5b81810381811115610da257610da2610d79565b92915050565b634e487b7160e01b600052603260045260246000fd5b600060018201610dd057610dd0610d79565b5060010190565b80820180821115610da257610da2610d79565b600082601f830112610dfb57600080fd5b81516020610e0b610ac983610a84565b8083825260208201915060208460051b870101935086841115610e2d57600080fd5b602086015b84811015610b0c5780518352918301918301610e32565b600080600060608486031215610e5e57600080fd5b835167ffffffffffffffff80821115610e7657600080fd5b818601915086601f830112610e8a57600080fd5b81516020610e9a610ac983610a84565b82815260059290921b8401810191818101908a841115610eb957600080fd5b948201945b83861015610ee0578551610ed181610914565b82529482019490820190610ebe565b91890151919750909350505080821115610ef957600080fd5b50610f0686828701610dea565b92505060408401519050925092509256fe02016836a56b71f0d02689e69e326f4f4c1b9057164ef592671cf0d37c8040c09855384122b55936fbfb8ca5120e63c6537a1ac40caf6ae33502b3c5da8c87d1a2646970667358221220c0418563a5e5aa8e19a6257464d75aa3ed5db59583354db13b08b21c3b8dbd5364736f6c63430008180033",
  "linkReferences": {},
  "deployedLinkReferences": {}
}