{
  "_format": "hh-sol-artifact-1",
  "contractName": "ScalarToken",
  "sourceName": "contracts/ScalarToken.sol",
  "abi": [
    {
      "anonymous": false,
      "inputs": [
        {
          "indexed": true,
          "internalType": "address",
          "name": "owner",
          "type": "address"
        },
        {
          "indexed": true,
          "internalType": "address",
          "name": "spender",
          "type": "address"
        },
        {
          "indexed": false,
          "internalType": "uint256",
          "name": "value",
          "type": "uint256"
        }
      ],
      "name": "Approval",
      "type": "event"
    },
    {
      "anonymous": false,
      "inputs": [
        {
          "indexed": true,
          "internalType": "address",
          "name": "previousOwner",
          "type": "address"
        },
        {
          "indexed": true,
          "internalType": "address",
          "name": "newOwner",
          "type": "address"
        }
      ],
      "name": "OwnershipTransferred",
      "type": "event"
    },
    {
      "anonymous": false,
      "inputs": [
        {
          "indexed": true,
          "internalType": "address",
          "name": "from",
          "type": "address"
        },
        {
          "indexed": true,
          "internalType": "address",
          "name": "to",
          "type": "address"
        },
        {
          "indexed": false,
          "internalType": "uint256",
          "name": "value",
          "type": "uint256"
        }
      ],
      "name": "Transfer",
      "type": "event"
    },
    {
      "inputs": [],
      "name": "DOMAIN_SEPARATOR",
      "outputs": [
        {
          "internalType": "bytes32",
          "name": "",
          "type": "bytes32"
        }
      ],
      "stateMutability": "view",
      "type": "function"
    },
    {
      "inputs": [
        {
          "internalType": "address",
          "name": "",
          "type": "address"
        },
        {
          "internalType": "address",
          "name": "",
          "type": "address"
        }
      ],
      "name": "allowance",
      "outputs": [
        {
          "internalType": "uint256",
          "name": "",
          "type": "uint256"
        }
      ],
      "stateMutability": "view",
      "type": "function"
    },
    {
      "inputs": [
        {
          "internalType": "address",
          "name": "spender",
          "type": "address"
        },
        {
          "internalType": "uint256",
          "name": "amount",
          "type": "uint256"
        }
      ],
      "name": "approve",
      "outputs": [
        {
          "internalType": "bool",
          "name": "",
          "type": "bool"
        }
      ],
      "stateMutability": "nonpayable",
      "type": "function"
    },
    {
      "inputs": [
        {
          "internalType": "address",
          "name": "",
          "type": "address"
        }
      ],
      "name": "balanceOf",
      "outputs": [
        {
          "internalType": "uint256",
          "name": "",
          "type": "uint256"
        }
      ],
      "stateMutability": "view",
      "type": "function"
    },
    {
      "inputs": [
        {
          "internalType": "uint256",
          "name": "amount",
          "type": "uint256"
        }
      ],
      "name": "burn",
      "outputs": [],
      "stateMutability": "nonpayable",
      "type": "function"
    },
    {
      "inputs": [],
      "name": "claimOwnership",
      "outputs": [],
      "stateMutability": "nonpayable",
      "type": "function"
    },
    {
      "inputs": [],
      "name": "decimals",
      "outputs": [
        {
          "internalType": "uint8",
          "name": "",
          "type": "uint8"
        }
      ],
      "stateMutability": "view",
      "type": "function"
    },
    {
      "inputs": [
        {
          "internalType": "address",
          "name": "to",
          "type": "address"
        },
        {
          "internalType": "uint256",
          "name": "amount",
          "type": "uint256"
        }
      ],
      "name": "mint",
      "outputs": [],
      "stateMutability": "nonpayable",
      "type": "function"
    },
    {
      "inputs": [],
      "name": "name",
      "outputs": [
        {
          "internalType": "string",
          "name": "",
          "type": "string"
        }
      ],
      "stateMutability": "view",
      "type": "function"
    },
    {
      "inputs": [
        {
          "internalType": "address",
          "name": "",
          "type": "address"
        }
      ],
      "name": "nonces",
      "outputs": [
        {
          "internalType": "uint256",
          "name": "",
          "type": "uint256"
        }
      ],
      "stateMutability": "view",
      "type": "function"
    },
    {
      "inputs": [],
      "name": "owner",
      "outputs": [
        {
          "internalType": "address",
          "name": "",
          "type": "address"
        }
      ],
      "stateMutability": "view",
      "type": "function"
    },
    {
      "inputs": [],
      "name": "pendingOwner",
      "outputs": [
        {
          "internalType": "address",
          "name": "",
          "type": "address"
        }
      ],
      "stateMutability": "view",
      "type": "function"
    },
    {
      "inputs": [
        {
          "internalType": "address",
          "name": "owner_",
          "type": "address"
        },
        {
          "internalType": "address",
          "name": "spender",
          "type": "address"
        },
        {
          "internalType": "uint256",
          "name": "value",
          "type": "uint256"
        },
        {
          "internalType": "uint256",
          "name": "deadline",
          "type": "uint256"
        },
        {
          "internalType": "uint8",
          "name": "v",
          "type": "uint8"
        },
        {
          "internalType": "bytes32",
          "name": "r",
          "type": "bytes32"
        },
        {
          "internalType": "bytes32",
          "name": "s",
          "type": "bytes32"
        }
      ],
      "name": "permit",
      "outputs": [],
      "stateMutability": "nonpayable",
      "type": "function"
    },
    {
      "inputs": [],
      "name": "symbol",
      "outputs": [
        {
          "internalType": "string",
          "name": "",
          "type": "string"
        }
      ],
      "stateMutability": "view",
      "type": "function"
    },
    {
      "inputs": [],
      "name": "totalSupply",
      "outputs": [
        {
          "internalType": "uint256",
          "name": "",
          "type": "uint256"
        }
      ],
      "stateMutability": "view",
      "type": "function"
    },
    {
      "inputs": [
        {
          "internalType": "address",
          "name": "to",
          "type": "address"
        },
        {
          "internalType": "uint256",
          "name": "amount",
          "type": "uint256"
        }
      ],
      "name": "transfer",
      "outputs": [
        {
          "internalType": "bool",
          "name": "",
          "type": "bool"
        }
      ],
      "stateMutability": "nonpayable",
      "type": "function"
    },
    {
      "inputs": [
        {
          "internalType": "address",
          "name": "from",
          "type": "address"
        },
        {
          "internalType": "address",
          "name": "to",
          "type": "address"
        },
        {
          "internalType": "uint256",
          "name": "amount",
          "type": "uint256"
        }
      ],
      "name": "transferFrom",
      "outputs": [
        {
          "internalType": "bool",
          "name": "",
          "type": "bool"
        }
      ],
      "stateMutability": "nonpayable",
      "type": "function"
    },
    {
      "inputs": [
        {
          "internalType": "address",
          "name": "newOwner",
          "type": "address"
        },
        {
          "internalType": "bool",
          "name": "direct",
          "type": "bool"
        },
        {
          "internalType": "bool",
          "name": "renounce",
          "type": "bool"
        }
      ],
      "name": "transferOwnership",
      "outputs": [],
      "stateMutability": "nonpayable",
      "type": "function"
    }
  ],
  "bytecode": "0x60c060405234801561001057600080fd5b504660a081905261007490604080517f47e79534a245952e8b16893a336b85a3d9ea9fa8c573f3d803afb92a794692186020820152908101829052306060820152600090608001604051602081830303815290604052805190602001209050919050565b608052600380546001600160a01b031916339081179091556040516000907f8be0079c531659141344cd1fd0a4f28419497f9722a3daafe3b4186f6b6457e0908290a360805160a0516110c66100dc6000396000610cfe01526000610d2f01526110c66000f3fe608060405234801561001057600080fd5b50600436106101165760003560e01c80634e71e0c8116100a257806395d89b411161007157806395d89b4114610279578063a9059cbb1461029b578063d505accf146102ae578063dd62ed3e146102c1578063e30c3978146102ec57600080fd5b80634e71e0c81461020657806370a082311461020e5780637ecebe001461022e5780638da5cb5b1461024e57600080fd5b806323b872dd116100e957806323b872dd146101ab578063313ce567146101be5780633644e515146101d857806340c10f19146101e057806342966c68146101f357600080fd5b806306fdde031461011b578063078dfbe71461015c578063095ea7b31461017157806318160ddd14610194575b600080fd5b6101466040518060400160405280600c81526020016b29b1b0b630b9102a37b5b2b760a11b81525081565b6040516101539190610e0b565b60405180910390f35b61016f61016a366004610e6a565b6102ff565b005b61018461017f366004610ead565b610444565b6040519015158152602001610153565b61019d60055481565b604051908152602001610153565b6101846101b9366004610ed7565b6104b1565b6101c6601281565b60405160ff9091168152602001610153565b61019d6106bd565b61016f6101ee366004610ead565b6106cc565b61016f610201366004610f13565b6107ed565b61016f6108a4565b61019d61021c366004610f2c565b60006020819052908152604090205481565b61019d61023c366004610f2c565b60026020526000908152604090205481565b600354610261906001600160a01b031681565b6040516001600160a01b039091168152602001610153565b6101466040518060400160405280600381526020016253544b60e81b81525081565b6101846102a9366004610ead565b610962565b61016f6102bc366004610f4e565b610aa7565b61019d6102cf366004610fc1565b600160209081526000928352604080842090915290825290205481565b600454610261906001600160a01b031681565b6003546001600160a01b0316331461035e5760405162461bcd60e51b815260206004820181905260248201527f4f776e61626c653a2063616c6c6572206973206e6f7420746865206f776e657260448201526064015b60405180910390fd5b8115610422576001600160a01b0383161515806103785750805b6103bc5760405162461bcd60e51b81526020600482015260156024820152744f776e61626c653a207a65726f206164647265737360581b6044820152606401610355565b6003546040516001600160a01b038086169216907f8be0079c531659141344cd1fd0a4f28419497f9722a3daafe3b4186f6b6457e090600090a3600380546001600160a01b0385166001600160a01b031991821617909155600480549091169055505050565b600480546001600160a01b0385166001600160a01b0319909116179055505050565b3360008181526001602090815260408083206001600160a01b038716808552925280832085905551919290917f8c5be1e5ebec7d5bd14f71427d1e84f3dd0314c0f7b2291e5b200ac8c7c3b9259061049f9086815260200190565b60405180910390a35060015b92915050565b60008115610678576001600160a01b0384166000908152602081905260409020548281101561051b5760405162461bcd60e51b815260206004820152601660248201527545524332303a2062616c616e636520746f6f206c6f7760501b6044820152606401610355565b836001600160a01b0316856001600160a01b031614610676576001600160a01b038516600090815260016020908152604080832033845290915290205460001981146105e057838110156105b15760405162461bcd60e51b815260206004820152601860248201527f45524332303a20616c6c6f77616e636520746f6f206c6f7700000000000000006044820152606401610355565b6105bb848261100a565b6001600160a01b03871660009081526001602090815260408083203384529091529020555b6001600160a01b03851661062f5760405162461bcd60e51b815260206004820152601660248201527545524332303a206e6f207a65726f206164647265737360501b6044820152606401610355565b610639848361100a565b6001600160a01b03808816600090815260208190526040808220939093559087168152908120805486929061066f90849061101d565b9091555050505b505b826001600160a01b0316846001600160a01b0316600080516020611071833981519152846040516106ab91815260200190565b60405180910390a35060019392505050565b60006106c7610cfa565b905090565b6003546001600160a01b031633146107265760405162461bcd60e51b815260206004820181905260248201527f4f776e61626c653a2063616c6c6572206973206e6f7420746865206f776e65726044820152606401610355565b6001600160a01b03821661077c5760405162461bcd60e51b815260206004820152601c60248201527f4d494d3a206e6f206d696e7420746f207a65726f2061646472657373000000006044820152606401610355565b8060055461078a919061101d565b6005556001600160a01b038216600090815260208190526040812080548392906107b590849061101d565b90915550506040518181526001600160a01b038316906000906000805160206110718339815191529060200160405180910390a35050565b3360009081526020819052604090205481111561083e5760405162461bcd60e51b815260206004820152600f60248201526e09a929a7440dcdee840cadcdeeaced608b1b6044820152606401610355565b336000908152602081905260408120805483929061085d90849061100a565b925050819055508060056000828254610876919061100a565b909155505060405181815260009033906000805160206110718339815191529060200160405180910390a350565b6004546001600160a01b03163381146108ff5760405162461bcd60e51b815260206004820181905260248201527f4f776e61626c653a2063616c6c657220213d2070656e64696e67206f776e65726044820152606401610355565b6003546040516001600160a01b038084169216907f8be0079c531659141344cd1fd0a4f28419497f9722a3daafe3b4186f6b6457e090600090a3600380546001600160a01b039092166001600160a01b0319928316179055600480549091169055565b60008115158061097a5750336001600160a01b038416145b15610a7c5733600090815260208190526040902054828110156109d85760405162461bcd60e51b815260206004820152601660248201527545524332303a2062616c616e636520746f6f206c6f7760501b6044820152606401610355565b336001600160a01b03851614610a7a576001600160a01b038416610a375760405162461bcd60e51b815260206004820152601660248201527545524332303a206e6f207a65726f206164647265737360501b6044820152606401610355565b610a41838261100a565b33600090815260208190526040808220929092556001600160a01b03861681529081208054859290610a7490849061101d565b90915550505b505b6040518281526001600160a01b0384169033906000805160206110718339815191529060200161049f565b6001600160a01b038716610afd5760405162461bcd60e51b815260206004820152601860248201527f45524332303a204f776e65722063616e6e6f74206265203000000000000000006044820152606401610355565b834210610b3d5760405162461bcd60e51b815260206004820152600e60248201526d115490cc8c0e88115e1c1a5c995960921b6044820152606401610355565b6001600160a01b03871660008181526002602052604081208054600192610be7927f6e71edae12b1b97f4d1f60370fef10105fa2faae0126114a169c64845d6126c9928d928d928d9291610b9083611030565b909155506040805160208101969096526001600160a01b0394851690860152929091166060840152608083015260a082015260c0810188905260e00160405160208183030381529060405280519060200120610d51565b6040805160008152602081018083529290925260ff871690820152606081018590526080810184905260a0016020604051602081039080840390855afa158015610c35573d6000803e3d6000fd5b505050602060405103516001600160a01b031614610c955760405162461bcd60e51b815260206004820152601860248201527f45524332303a20496e76616c6964205369676e617475726500000000000000006044820152606401610355565b6001600160a01b038781166000818152600160209081526040808320948b168084529482529182902089905590518881527f8c5be1e5ebec7d5bd14f71427d1e84f3dd0314c0f7b2291e5b200ac8c7c3b925910160405180910390a350505050505050565b60007f00000000000000000000000000000000000000000000000000000000000000004614610d2c576106c746610da6565b507f000000000000000000000000000000000000000000000000000000000000000090565b600060405180604001604052806002815260200161190160f01b815250610d76610cfa565b83604051602001610d8993929190611049565b604051602081830303815290604052805190602001209050919050565b604080517f47e79534a245952e8b16893a336b85a3d9ea9fa8c573f3d803afb92a794692186020820152908101829052306060820152600090608001610d89565b60005b83811015610e02578181015183820152602001610dea565b50506000910152565b6020815260008251806020840152610e2a816040850160208701610de7565b601f01601f19169190910160400192915050565b80356001600160a01b0381168114610e5557600080fd5b919050565b80358015158114610e5557600080fd5b600080600060608486031215610e7f57600080fd5b610e8884610e3e565b9250610e9660208501610e5a565b9150610ea460408501610e5a565b90509250925092565b60008060408385031215610ec057600080fd5b610ec983610e3e565b946020939093013593505050565b600080600060608486031215610eec57600080fd5b610ef584610e3e565b9250610f0360208501610e3e565b9150604084013590509250925092565b600060208284031215610f2557600080fd5b5035919050565b600060208284031215610f3e57600080fd5b610f4782610e3e565b9392505050565b600080600080600080600060e0888a031215610f6957600080fd5b610f7288610e3e565b9650610f8060208901610e3e565b95506040880135945060608801359350608088013560ff81168114610fa457600080fd5b9699959850939692959460a0840135945060c09093013592915050565b60008060408385031215610fd457600080fd5b610fdd83610e3e565b9150610feb60208401610e3e565b90509250929050565b634e487b7160e01b600052601160045260246000fd5b818103818111156104ab576104ab610ff4565b808201808211156104ab576104ab610ff4565b60006001820161104257611042610ff4565b5060010190565b6000845161105b818460208901610de7565b9190910192835250602082015260400191905056feddf252ad1be2c89b69c2b068fc378daa952ba7f163c4a11628f55a4df523b3efa2646970667358221220e3b7816c292c8657e819c742c183d5db7c3f4d4e7e0bdd550708e51023dd173e64736f6c63430008180033",
  "linkReferences": {},
  "deployedLinkReferences": {}
}