{
  "_format": "hh-sol-artifact-1",
  "contractName": "MintContract",
  "sourceName": "contracts/MintContract.sol",
  "abi": [
    {
      "inputs": [
        {
          "internalType": "address",
          "name": "_gateway",
          "type": "address"
        },
        {
          "internalType": "address",
          "name": "_gasReceiver",
          "type": "address"
        },
        {
          "internalType": "address",
          "name": "_sBTC",
          "type": "address"
        }
      ],
      "stateMutability": "nonpayable",
      "type": "constructor"
    },
    {
      "inputs": [],
      "name": "InvalidAddress",
      "type": "error"
    },
    {
      "inputs": [],
      "name": "NotApprovedByGateway",
      "type": "error"
    },
    {
      "anonymous": false,
      "inputs": [
        {
          "indexed": false,
          "internalType": "string",
          "name": "_from",
          "type": "string"
        },
        {
          "indexed": false,
          "internalType": "address",
          "name": "_to",
          "type": "address"
        },
        {
          "indexed": false,
          "internalType": "uint256",
          "name": "_amount",
          "type": "uint256"
        }
      ],
      "name": "Executed",
      "type": "event"
    },
    {
      "anonymous": false,
      "inputs": [
        {
          "indexed": true,
          "internalType": "address",
          "name": "previousOwner",
          "type": "address"
        },
        {
          "indexed": true,
          "internalType": "address",
          "name": "newOwner",
          "type": "address"
        }
      ],
      "name": "OwnershipTransferred",
      "type": "event"
    },
    {
      "inputs": [],
      "name": "claimOwnership",
      "outputs": [],
      "stateMutability": "nonpayable",
      "type": "function"
    },
    {
      "inputs": [
        {
          "internalType": "bytes32",
          "name": "commandId",
          "type": "bytes32"
        },
        {
          "internalType": "string",
          "name": "sourceChain",
          "type": "string"
        },
        {
          "internalType": "string",
          "name": "sourceAddress",
          "type": "string"
        },
        {
          "internalType": "bytes",
          "name": "payload",
          "type": "bytes"
        }
      ],
      "name": "execute",
      "outputs": [],
      "stateMutability": "nonpayable",
      "type": "function"
    },
    {
      "inputs": [
        {
          "internalType": "bytes32",
          "name": "commandId",
          "type": "bytes32"
        },
        {
          "internalType": "string",
          "name": "sourceChain",
          "type": "string"
        },
        {
          "internalType": "string",
          "name": "sourceAddress",
          "type": "string"
        },
        {
          "internalType": "bytes",
          "name": "payload",
          "type": "bytes"
        },
        {
          "internalType": "string",
          "name": "tokenSymbol",
          "type": "string"
        },
        {
          "internalType": "uint256",
          "name": "amount",
          "type": "uint256"
        }
      ],
      "name": "executeWithToken",
      "outputs": [],
      "stateMutability": "nonpayable",
      "type": "function"
    },
    {
      "inputs": [],
      "name": "gasService",
      "outputs": [
        {
          "internalType": "contract IAxelarGasService",
          "name": "",
          "type": "address"
        }
      ],
      "stateMutability": "view",
      "type": "function"
    },
    {
      "inputs": [],
      "name": "gateway",
      "outputs": [
        {
          "internalType": "contract IAxelarGateway",
          "name": "",
          "type": "address"
        }
      ],
      "stateMutability": "view",
      "type": "function"
    },
    {
      "inputs": [],
      "name": "owner",
      "outputs": [
        {
          "internalType": "address",
          "name": "",
          "type": "address"
        }
      ],
      "stateMutability": "view",
      "type": "function"
    },
    {
      "inputs": [],
      "name": "pendingOwner",
      "outputs": [
        {
          "internalType": "address",
          "name": "",
          "type": "address"
        }
      ],
      "stateMutability": "view",
      "type": "function"
    },
    {
      "inputs": [],
      "name": "sbtc",
      "outputs": [
        {
          "internalType": "contract sBTC",
          "name": "",
          "type": "address"
        }
      ],
      "stateMutability": "view",
      "type": "function"
    },
    {
      "inputs": [],
      "name": "sourceAddress",
      "outputs": [
        {
          "internalType": "string",
          "name": "",
          "type": "string"
        }
      ],
      "stateMutability": "view",
      "type": "function"
    },
    {
      "inputs": [],
      "name": "sourceChain",
      "outputs": [
        {
          "internalType": "string",
          "name": "",
          "type": "string"
        }
      ],
      "stateMutability": "view",
      "type": "function"
    },
    {
      "inputs": [
        {
          "internalType": "address",
          "name": "newOwner",
          "type": "address"
        }
      ],
      "name": "transferMintOwnership",
      "outputs": [],
      "stateMutability": "nonpayable",
      "type": "function"
    },
    {
      "inputs": [
        {
          "internalType": "address",
          "name": "newOwner",
          "type": "address"
        },
        {
          "internalType": "bool",
          "name": "direct",
          "type": "bool"
        },
        {
          "internalType": "bool",
          "name": "renounce",
          "type": "bool"
        }
      ],
      "name": "transferOwnership",
      "outputs": [],
      "stateMutability": "nonpayable",
      "type": "function"
    }
  ],
  "bytecode": "0x60c060405234801561001057600080fd5b50604051610f41380380610f4183398101604081905261002f916100e7565b826001600160a01b0381166100575760405163e6c4247b60e01b815260040160405180910390fd5b6001600160a01b0316608052600080546001600160a01b0319163390811782556040519091907f8be0079c531659141344cd1fd0a4f28419497f9722a3daafe3b4186f6b6457e0908290a36001600160a01b0391821660a052600280546001600160a01b031916919092161790555061012a565b80516001600160a01b03811681146100e257600080fd5b919050565b6000806000606084860312156100fc57600080fd5b610105846100cb565b9250610113602085016100cb565b9150610121604085016100cb565b90509250925092565b60805160a051610de561015c600039600061016d01526000818160d30152818161040e015261057f0152610de56000f3fe608060405234801561001057600080fd5b50600436106100b45760003560e01c80634e71e0c8116100715780634e71e0c8146101605780636a22d8cc146101685780638da5cb5b1461018f578063b0fa8444146101a2578063ddc2b238146101aa578063e30c3978146101bd57600080fd5b8063078dfbe7146100b9578063116191b6146100ce5780631861355b146101125780631a98b2e0146101255780631c6ffa4614610138578063491606581461014d575b600080fd5b6100cc6100c7366004610802565b6101d0565b005b6100f57f000000000000000000000000000000000000000000000000000000000000000081565b6040516001600160a01b0390911681526020015b60405180910390f35b6100cc61012036600461084d565b610313565b6100cc6101333660046108ba565b6103dd565b6101406104c0565b6040516101099190610994565b6100cc61015b3660046109e3565b61054e565b6100cc610636565b6100f57f000000000000000000000000000000000000000000000000000000000000000081565b6000546100f5906001600160a01b031681565b6101406106f3565b6002546100f5906001600160a01b031681565b6001546100f5906001600160a01b031681565b6000546001600160a01b0316331461022f5760405162461bcd60e51b815260206004820181905260248201527f4f776e61626c653a2063616c6c6572206973206e6f7420746865206f776e657260448201526064015b60405180910390fd5b81156102f2576001600160a01b0383161515806102495750805b61028d5760405162461bcd60e51b81526020600482015260156024820152744f776e61626c653a207a65726f206164647265737360581b6044820152606401610226565b600080546040516001600160a01b03808716939216917f8be0079c531659141344cd1fd0a4f28419497f9722a3daafe3b4186f6b6457e091a3600080546001600160a01b0385166001600160a01b031991821617909155600180549091169055505050565b600180546001600160a01b0319166001600160a01b0385161790555b505050565b6000546001600160a01b0316331461036d5760405162461bcd60e51b815260206004820181905260248201527f4f776e61626c653a2063616c6c6572206973206e6f7420746865206f776e65726044820152606401610226565b60025460405163078dfbe760e01b81526001600160a01b03838116600483015260016024830152600060448301529091169063078dfbe790606401600060405180830381600087803b1580156103c257600080fd5b505af11580156103d6573d6000803e3d6000fd5b5050505050565b600085856040516103ef929190610a87565b604051908190038120631876eed960e01b825291506001600160a01b037f00000000000000000000000000000000000000000000000000000000000000001690631876eed990610453908e908e908e908e908e9089908d908d908d90600401610ac0565b6020604051808303816000875af1158015610472573d6000803e3d6000fd5b505050506040513d601f19601f820116820180604052508101906104969190610b1f565b6104b357604051631403112d60e21b815260040160405180910390fd5b5050505050505050505050565b600380546104cd90610b3c565b80601f01602080910402602001604051908101604052809291908181526020018280546104f990610b3c565b80156105465780601f1061051b57610100808354040283529160200191610546565b820191906000526020600020905b81548152906001019060200180831161052957829003601f168201915b505050505081565b60008282604051610560929190610a87565b604051908190038120635f6970c360e01b825291506001600160a01b037f00000000000000000000000000000000000000000000000000000000000000001690635f6970c3906105be908b908b908b908b908b908990600401610b76565b6020604051808303816000875af11580156105dd573d6000803e3d6000fd5b505050506040513d601f19601f820116820180604052508101906106019190610b1f565b61061e57604051631403112d60e21b815260040160405180910390fd5b61062c878787878787610700565b5050505050505050565b6001546001600160a01b03163381146106915760405162461bcd60e51b815260206004820181905260248201527f4f776e61626c653a2063616c6c657220213d2070656e64696e67206f776e65726044820152606401610226565b600080546040516001600160a01b03808516939216917f8be0079c531659141344cd1fd0a4f28419497f9722a3daafe3b4186f6b6457e091a3600080546001600160a01b039092166001600160a01b0319928316179055600180549091169055565b600480546104cd90610b3c565b60008061070f83850185610bb7565b90925090506003610721888a83610c49565b50600461072f868883610c49565b506002546040516340c10f1960e01b81526001600160a01b03848116600483015260248201849052909116906340c10f1990604401600060405180830381600087803b15801561077e57600080fd5b505af1158015610792573d6000803e3d6000fd5b505050507f35c9d1c471140d2d35073c53f8ef5236a338b00c7fe7c444783ac195f769d981600483836040516107ca93929190610d09565b60405180910390a15050505050505050565b6001600160a01b03811681146107f157600080fd5b50565b80151581146107f157600080fd5b60008060006060848603121561081757600080fd5b8335610822816107dc565b92506020840135610832816107f4565b91506040840135610842816107f4565b809150509250925092565b60006020828403121561085f57600080fd5b813561086a816107dc565b9392505050565b60008083601f84011261088357600080fd5b50813567ffffffffffffffff81111561089b57600080fd5b6020830191508360208285010111156108b357600080fd5b9250929050565b60008060008060008060008060008060c08b8d0312156108d957600080fd5b8a35995060208b013567ffffffffffffffff808211156108f857600080fd5b6109048e838f01610871565b909b50995060408d013591508082111561091d57600080fd5b6109298e838f01610871565b909950975060608d013591508082111561094257600080fd5b61094e8e838f01610871565b909750955060808d013591508082111561096757600080fd5b506109748d828e01610871565b9150809450508092505060a08b013590509295989b9194979a5092959850565b60006020808352835180602085015260005b818110156109c2578581018301518582016040015282016109a6565b506000604082860101526040601f19601f8301168501019250505092915050565b60008060008060008060006080888a0312156109fe57600080fd5b87359650602088013567ffffffffffffffff80821115610a1d57600080fd5b610a298b838c01610871565b909850965060408a0135915080821115610a4257600080fd5b610a4e8b838c01610871565b909650945060608a0135915080821115610a6757600080fd5b50610a748a828b01610871565b989b979a50959850939692959293505050565b8183823760009101908152919050565b81835281816020850137506000828201602090810191909152601f909101601f19169091010190565b89815260c060208201526000610ada60c083018a8c610a97565b8281036040840152610aed81898b610a97565b90508660608401528281036080840152610b08818688610a97565b9150508260a08301529a9950505050505050505050565b600060208284031215610b3157600080fd5b815161086a816107f4565b600181811c90821680610b5057607f821691505b602082108103610b7057634e487b7160e01b600052602260045260246000fd5b50919050565b868152608060208201526000610b90608083018789610a97565b8281036040840152610ba3818688610a97565b915050826060830152979650505050505050565b60008060408385031215610bca57600080fd5b8235610bd5816107dc565b946020939093013593505050565b634e487b7160e01b600052604160045260246000fd5b601f82111561030e576000816000526020600020601f850160051c81016020861015610c225750805b601f850160051c820191505b81811015610c4157828155600101610c2e565b505050505050565b67ffffffffffffffff831115610c6157610c61610be3565b610c7583610c6f8354610b3c565b83610bf9565b6000601f841160018114610ca95760008515610c915750838201355b600019600387901b1c1916600186901b1783556103d6565b600083815260209020601f19861690835b82811015610cda5786850135825560209485019460019092019101610cba565b5086821015610cf75760001960f88860031b161c19848701351681555b505060018560011b0183555050505050565b606081526000808554610d1b81610b3c565b8060608601526080600180841660008114610d3d5760018114610d5957610d8b565b60ff1985166080890152608084151560051b8901019550610d8b565b8a60005260208060002060005b86811015610d815781548b8201870152908401908201610d66565b8a01608001975050505b505050506001600160a01b038616602085015250905082604083015294935050505056fea26469706673582212205991396b96a409d9cd6e35d0e803dc7eec9592a42a5abe3d4d374bfcb88d0ad164736f6c63430008180033",
  "linkReferences": {},
  "deployedLinkReferences": {}
}