{
  "_format": "hh-sol-artifact-1",
  "contractName": "MintContract",
  "sourceName": "contracts/MintContract.sol",
  "abi": [
    {
      "inputs": [
        {
          "internalType": "address",
          "name": "_gateway",
          "type": "address"
        },
        {
          "internalType": "address",
          "name": "_gasReceiver",
          "type": "address"
        },
        {
          "internalType": "address",
          "name": "_sBTC",
          "type": "address"
        }
      ],
      "stateMutability": "nonpayable",
      "type": "constructor"
    },
    {
      "inputs": [],
      "name": "InvalidAddress",
      "type": "error"
    },
    {
      "inputs": [],
      "name": "NotApprovedByGateway",
      "type": "error"
    },
    {
      "anonymous": false,
      "inputs": [
        {
          "indexed": false,
          "internalType": "string",
          "name": "_from",
          "type": "string"
        },
        {
          "indexed": false,
          "internalType": "string",
          "name": "_message",
          "type": "string"
        }
      ],
      "name": "Executed",
      "type": "event"
    },
    {
      "anonymous": false,
      "inputs": [
        {
          "indexed": true,
          "internalType": "address",
          "name": "previousOwner",
          "type": "address"
        },
        {
          "indexed": true,
          "internalType": "address",
          "name": "newOwner",
          "type": "address"
        }
      ],
      "name": "OwnershipTransferred",
      "type": "event"
    },
    {
      "inputs": [],
      "name": "claimOwnership",
      "outputs": [],
      "stateMutability": "nonpayable",
      "type": "function"
    },
    {
      "inputs": [
        {
          "internalType": "bytes32",
          "name": "commandId",
          "type": "bytes32"
        },
        {
          "internalType": "string",
          "name": "sourceChain",
          "type": "string"
        },
        {
          "internalType": "string",
          "name": "sourceAddress",
          "type": "string"
        },
        {
          "internalType": "bytes",
          "name": "payload",
          "type": "bytes"
        }
      ],
      "name": "execute",
      "outputs": [],
      "stateMutability": "nonpayable",
      "type": "function"
    },
    {
      "inputs": [
        {
          "internalType": "bytes32",
          "name": "commandId",
          "type": "bytes32"
        },
        {
          "internalType": "string",
          "name": "sourceChain",
          "type": "string"
        },
        {
          "internalType": "string",
          "name": "sourceAddress",
          "type": "string"
        },
        {
          "internalType": "bytes",
          "name": "payload",
          "type": "bytes"
        },
        {
          "internalType": "string",
          "name": "tokenSymbol",
          "type": "string"
        },
        {
          "internalType": "uint256",
          "name": "amount",
          "type": "uint256"
        }
      ],
      "name": "executeWithToken",
      "outputs": [],
      "stateMutability": "nonpayable",
      "type": "function"
    },
    {
      "inputs": [],
      "name": "gasService",
      "outputs": [
        {
          "internalType": "contract IAxelarGasService",
          "name": "",
          "type": "address"
        }
      ],
      "stateMutability": "view",
      "type": "function"
    },
    {
      "inputs": [],
      "name": "gateway",
      "outputs": [
        {
          "internalType": "contract IAxelarGateway",
          "name": "",
          "type": "address"
        }
      ],
      "stateMutability": "view",
      "type": "function"
    },
    {
      "inputs": [],
      "name": "message",
      "outputs": [
        {
          "internalType": "string",
          "name": "",
          "type": "string"
        }
      ],
      "stateMutability": "view",
      "type": "function"
    },
    {
      "inputs": [],
      "name": "owner",
      "outputs": [
        {
          "internalType": "address",
          "name": "",
          "type": "address"
        }
      ],
      "stateMutability": "view",
      "type": "function"
    },
    {
      "inputs": [],
      "name": "pendingOwner",
      "outputs": [
        {
          "internalType": "address",
          "name": "",
          "type": "address"
        }
      ],
      "stateMutability": "view",
      "type": "function"
    },
    {
      "inputs": [],
      "name": "sbtc",
      "outputs": [
        {
          "internalType": "contract sBTC",
          "name": "",
          "type": "address"
        }
      ],
      "stateMutability": "view",
      "type": "function"
    },
    {
      "inputs": [
        {
          "internalType": "string",
          "name": "destinationChain",
          "type": "string"
        },
        {
          "internalType": "string",
          "name": "destinationAddress",
          "type": "string"
        },
        {
          "internalType": "string",
          "name": "_message",
          "type": "string"
        }
      ],
      "name": "setRemoteValue",
      "outputs": [],
      "stateMutability": "payable",
      "type": "function"
    },
    {
      "inputs": [],
      "name": "sourceAddress",
      "outputs": [
        {
          "internalType": "string",
          "name": "",
          "type": "string"
        }
      ],
      "stateMutability": "view",
      "type": "function"
    },
    {
      "inputs": [],
      "name": "sourceChain",
      "outputs": [
        {
          "internalType": "string",
          "name": "",
          "type": "string"
        }
      ],
      "stateMutability": "view",
      "type": "function"
    },
    {
      "inputs": [
        {
          "internalType": "address",
          "name": "newOwner",
          "type": "address"
        }
      ],
      "name": "transferMintOwnership",
      "outputs": [],
      "stateMutability": "nonpayable",
      "type": "function"
    },
    {
      "inputs": [
        {
          "internalType": "address",
          "name": "newOwner",
          "type": "address"
        },
        {
          "internalType": "bool",
          "name": "direct",
          "type": "bool"
        },
        {
          "internalType": "bool",
          "name": "renounce",
          "type": "bool"
        }
      ],
      "name": "transferOwnership",
      "outputs": [],
      "stateMutability": "nonpayable",
      "type": "function"
    }
  ],
  "bytecode": "0x60c06040523480156200001157600080fd5b5060405162001430380380620014308339810160408190526200003491620000ef565b826001600160a01b0381166200005d5760405163e6c4247b60e01b815260040160405180910390fd5b6001600160a01b0316608052600080546001600160a01b0319163390811782556040519091907f8be0079c531659141344cd1fd0a4f28419497f9722a3daafe3b4186f6b6457e0908290a36001600160a01b0391821660a052600280546001600160a01b031916919092161790555062000139565b80516001600160a01b0381168114620000ea57600080fd5b919050565b6000806000606084860312156200010557600080fd5b6200011084620000d2565b92506200012060208501620000d2565b91506200013060408501620000d2565b90509250925092565b60805160a0516112b56200017b600039600081816101fe015261086c015260008181610116015281816104fb0152818161066c01526108f501526112b56000f3fe6080604052600436106100dd5760003560e01c80636a22d8cc1161007f578063b0fa844411610059578063b0fa844414610253578063ddc2b23814610268578063e21f37ce14610288578063e30c39781461029d57600080fd5b80636a22d8cc146101ec57806380d32697146102205780638da5cb5b1461023357600080fd5b80631a98b2e0116100bb5780631a98b2e0146101755780631c6ffa461461019557806349160658146101b75780634e71e0c8146101d757600080fd5b8063078dfbe7146100e2578063116191b6146101045780631861355b14610155575b600080fd5b3480156100ee57600080fd5b506101026100fd366004610a23565b6102bd565b005b34801561011057600080fd5b506101387f000000000000000000000000000000000000000000000000000000000000000081565b6040516001600160a01b0390911681526020015b60405180910390f35b34801561016157600080fd5b50610102610170366004610a6c565b610400565b34801561018157600080fd5b50610102610190366004610ad7565b6104ca565b3480156101a157600080fd5b506101aa6105ad565b60405161014c9190610bf7565b3480156101c357600080fd5b506101026101d2366004610c0a565b61063b565b3480156101e357600080fd5b50610102610723565b3480156101f857600080fd5b506101387f000000000000000000000000000000000000000000000000000000000000000081565b61010261022e366004610cae565b6107e0565b34801561023f57600080fd5b50600054610138906001600160a01b031681565b34801561025f57600080fd5b506101aa610963565b34801561027457600080fd5b50600254610138906001600160a01b031681565b34801561029457600080fd5b506101aa610970565b3480156102a957600080fd5b50600154610138906001600160a01b031681565b6000546001600160a01b0316331461031c5760405162461bcd60e51b815260206004820181905260248201527f4f776e61626c653a2063616c6c6572206973206e6f7420746865206f776e657260448201526064015b60405180910390fd5b81156103df576001600160a01b0383161515806103365750805b61037a5760405162461bcd60e51b81526020600482015260156024820152744f776e61626c653a207a65726f206164647265737360581b6044820152606401610313565b600080546040516001600160a01b03808716939216917f8be0079c531659141344cd1fd0a4f28419497f9722a3daafe3b4186f6b6457e091a3600080546001600160a01b0385166001600160a01b031991821617909155600180549091169055505050565b600180546001600160a01b0319166001600160a01b0385161790555b505050565b6000546001600160a01b0316331461045a5760405162461bcd60e51b815260206004820181905260248201527f4f776e61626c653a2063616c6c6572206973206e6f7420746865206f776e65726044820152606401610313565b60025460405163078dfbe760e01b81526001600160a01b03838116600483015260016024830152600060448301529091169063078dfbe790606401600060405180830381600087803b1580156104af57600080fd5b505af11580156104c3573d6000803e3d6000fd5b5050505050565b600085856040516104dc929190610d48565b604051908190038120631876eed960e01b825291506001600160a01b037f00000000000000000000000000000000000000000000000000000000000000001690631876eed990610540908e908e908e908e908e9089908d908d908d90600401610d81565b6020604051808303816000875af115801561055f573d6000803e3d6000fd5b505050506040513d601f19601f820116820180604052508101906105839190610de0565b6105a057604051631403112d60e21b815260040160405180910390fd5b5050505050505050505050565b600480546105ba90610dfd565b80601f01602080910402602001604051908101604052809291908181526020018280546105e690610dfd565b80156106335780601f1061060857610100808354040283529160200191610633565b820191906000526020600020905b81548152906001019060200180831161061657829003601f168201915b505050505081565b6000828260405161064d929190610d48565b604051908190038120635f6970c360e01b825291506001600160a01b037f00000000000000000000000000000000000000000000000000000000000000001690635f6970c3906106ab908b908b908b908b908b908990600401610e37565b6020604051808303816000875af11580156106ca573d6000803e3d6000fd5b505050506040513d601f19601f820116820180604052508101906106ee9190610de0565b61070b57604051631403112d60e21b815260040160405180910390fd5b61071987878787878761097d565b5050505050505050565b6001546001600160a01b031633811461077e5760405162461bcd60e51b815260206004820181905260248201527f4f776e61626c653a2063616c6c657220213d2070656e64696e67206f776e65726044820152606401610313565b600080546040516001600160a01b03808516939216917f8be0079c531659141344cd1fd0a4f28419497f9722a3daafe3b4186f6b6457e091a3600080546001600160a01b039092166001600160a01b0319928316179055600180549091169055565b600034116108305760405162461bcd60e51b815260206004820152601760248201527f476173207061796d656e742069732072657175697265640000000000000000006044820152606401610313565b60008282604051602001610845929190610e78565b60408051601f1981840301815290829052630c93e3bb60e01b825291506001600160a01b037f00000000000000000000000000000000000000000000000000000000000000001690630c93e3bb9034906108af9030908c908c908c908c908a903390600401610e94565b6000604051808303818588803b1580156108c857600080fd5b505af11580156108dc573d6000803e3d6000fd5b5050604051631c92115f60e01b81526001600160a01b037f0000000000000000000000000000000000000000000000000000000000000000169350631c92115f925061093591508a908a908a908a908890600401610ef6565b600060405180830381600087803b15801561094f57600080fd5b505af11580156105a0573d6000803e3d6000fd5b600580546105ba90610dfd565b600380546105ba90610dfd565b61098981830183610f53565b6003906109969082611054565b5060046109a4868883611114565b5060056109b2848683611114565b507f0d97a9033491f569feb4c72abf12722b227eec24ee13547bec3654f8663ff711600560036040516109e6929190611251565b60405180910390a1505050505050565b80356001600160a01b0381168114610a0d57600080fd5b919050565b8015158114610a2057600080fd5b50565b600080600060608486031215610a3857600080fd5b610a41846109f6565b92506020840135610a5181610a12565b91506040840135610a6181610a12565b809150509250925092565b600060208284031215610a7e57600080fd5b610a87826109f6565b9392505050565b60008083601f840112610aa057600080fd5b50813567ffffffffffffffff811115610ab857600080fd5b602083019150836020828501011115610ad057600080fd5b9250929050565b60008060008060008060008060008060c08b8d031215610af657600080fd5b8a35995060208b013567ffffffffffffffff80821115610b1557600080fd5b610b218e838f01610a8e565b909b50995060408d0135915080821115610b3a57600080fd5b610b468e838f01610a8e565b909950975060608d0135915080821115610b5f57600080fd5b610b6b8e838f01610a8e565b909750955060808d0135915080821115610b8457600080fd5b50610b918d828e01610a8e565b9150809450508092505060a08b013590509295989b9194979a5092959850565b6000815180845260005b81811015610bd757602081850181015186830182015201610bbb565b506000602082860101526020601f19601f83011685010191505092915050565b602081526000610a876020830184610bb1565b60008060008060008060006080888a031215610c2557600080fd5b87359650602088013567ffffffffffffffff80821115610c4457600080fd5b610c508b838c01610a8e565b909850965060408a0135915080821115610c6957600080fd5b610c758b838c01610a8e565b909650945060608a0135915080821115610c8e57600080fd5b50610c9b8a828b01610a8e565b989b979a50959850939692959293505050565b60008060008060008060608789031215610cc757600080fd5b863567ffffffffffffffff80821115610cdf57600080fd5b610ceb8a838b01610a8e565b90985096506020890135915080821115610d0457600080fd5b610d108a838b01610a8e565b90965094506040890135915080821115610d2957600080fd5b50610d3689828a01610a8e565b979a9699509497509295939492505050565b8183823760009101908152919050565b81835281816020850137506000828201602090810191909152601f909101601f19169091010190565b89815260c060208201526000610d9b60c083018a8c610d58565b8281036040840152610dae81898b610d58565b90508660608401528281036080840152610dc9818688610d58565b9150508260a08301529a9950505050505050505050565b600060208284031215610df257600080fd5b8151610a8781610a12565b600181811c90821680610e1157607f821691505b602082108103610e3157634e487b7160e01b600052602260045260246000fd5b50919050565b868152608060208201526000610e51608083018789610d58565b8281036040840152610e64818688610d58565b915050826060830152979650505050505050565b602081526000610e8c602083018486610d58565b949350505050565b600060018060a01b03808a16835260a06020840152610eb760a08401898b610d58565b8381036040850152610eca81888a610d58565b90508381036060850152610ede8187610bb1565b92505080841660808401525098975050505050505050565b606081526000610f0a606083018789610d58565b8281036020840152610f1d818688610d58565b90508281036040840152610f318185610bb1565b98975050505050505050565b634e487b7160e01b600052604160045260246000fd5b600060208284031215610f6557600080fd5b813567ffffffffffffffff80821115610f7d57600080fd5b818401915084601f830112610f9157600080fd5b813581811115610fa357610fa3610f3d565b604051601f8201601f19908116603f01168101908382118183101715610fcb57610fcb610f3d565b81604052828152876020848701011115610fe457600080fd5b826020860160208301376000928101602001929092525095945050505050565b601f8211156103fb576000816000526020600020601f850160051c8101602086101561102d5750805b601f850160051c820191505b8181101561104c57828155600101611039565b505050505050565b815167ffffffffffffffff81111561106e5761106e610f3d565b6110828161107c8454610dfd565b84611004565b602080601f8311600181146110b7576000841561109f5750858301515b600019600386901b1c1916600185901b17855561104c565b600085815260208120601f198616915b828110156110e6578886015182559484019460019091019084016110c7565b50858210156111045787850151600019600388901b60f8161c191681555b5050505050600190811b01905550565b67ffffffffffffffff83111561112c5761112c610f3d565b6111408361113a8354610dfd565b83611004565b6000601f841160018114611174576000851561115c5750838201355b600019600387901b1c1916600186901b1783556104c3565b600083815260209020601f19861690835b828110156111a55786850135825560209485019460019092019101611185565b50868210156111c25760001960f88860031b161c19848701351681555b505060018560011b0183555050505050565b600081546111e181610dfd565b8085526020600183811680156111fe576001811461121857611246565b60ff1985168884015283151560051b880183019550611246565b866000528260002060005b8581101561123e5781548a8201860152908301908401611223565b890184019650505b505050505092915050565b60408152600061126460408301856111d4565b828103602084015261127681856111d4565b9594505050505056fea2646970667358221220c03ecda5fb50023b2009e33b21ddd22bbde4f9690332f052de9c3e4358b0227e64736f6c63430008180033",
  "linkReferences": {},
  "deployedLinkReferences": {}
}