{
  "_format": "hh-sol-artifact-1",
  "contractName": "MintContract",
  "sourceName": "contracts/MintContract.sol",
  "abi": [
    {
      "inputs": [
        {
          "internalType": "address",
          "name": "_gateway",
          "type": "address"
        },
        {
          "internalType": "address",
          "name": "_gasReceiver",
          "type": "address"
        },
        {
          "internalType": "address",
          "name": "_sBTC",
          "type": "address"
        }
      ],
      "stateMutability": "nonpayable",
      "type": "constructor"
    },
    {
      "inputs": [],
      "name": "InvalidAddress",
      "type": "error"
    },
    {
      "inputs": [],
      "name": "NotApprovedByGateway",
      "type": "error"
    },
    {
      "anonymous": false,
      "inputs": [
        {
          "indexed": false,
          "internalType": "string",
          "name": "_from",
          "type": "string"
        },
        {
          "indexed": false,
          "internalType": "address",
          "name": "_to",
          "type": "address"
        },
        {
          "indexed": false,
          "internalType": "uint256",
          "name": "_amount",
          "type": "uint256"
        }
      ],
      "name": "Executed",
      "type": "event"
    },
    {
      "anonymous": false,
      "inputs": [
        {
          "indexed": true,
          "internalType": "address",
          "name": "previousOwner",
          "type": "address"
        },
        {
          "indexed": true,
          "internalType": "address",
          "name": "newOwner",
          "type": "address"
        }
      ],
      "name": "OwnershipTransferred",
      "type": "event"
    },
    {
      "inputs": [
        {
          "internalType": "string",
          "name": "destinationChain",
          "type": "string"
        },
        {
          "internalType": "string",
          "name": "destinationAddress",
          "type": "string"
        },
        {
          "internalType": "address",
          "name": "_to",
          "type": "address"
        },
        {
          "internalType": "uint256",
          "name": "_amount",
          "type": "uint256"
        }
      ],
      "name": "callMint",
      "outputs": [],
      "stateMutability": "payable",
      "type": "function"
    },
    {
      "inputs": [],
      "name": "claimOwnership",
      "outputs": [],
      "stateMutability": "nonpayable",
      "type": "function"
    },
    {
      "inputs": [
        {
          "internalType": "bytes32",
          "name": "commandId",
          "type": "bytes32"
        },
        {
          "internalType": "string",
          "name": "sourceChain",
          "type": "string"
        },
        {
          "internalType": "string",
          "name": "sourceAddress",
          "type": "string"
        },
        {
          "internalType": "bytes",
          "name": "payload",
          "type": "bytes"
        }
      ],
      "name": "execute",
      "outputs": [],
      "stateMutability": "nonpayable",
      "type": "function"
    },
    {
      "inputs": [
        {
          "internalType": "bytes32",
          "name": "commandId",
          "type": "bytes32"
        },
        {
          "internalType": "string",
          "name": "sourceChain",
          "type": "string"
        },
        {
          "internalType": "string",
          "name": "sourceAddress",
          "type": "string"
        },
        {
          "internalType": "bytes",
          "name": "payload",
          "type": "bytes"
        },
        {
          "internalType": "string",
          "name": "tokenSymbol",
          "type": "string"
        },
        {
          "internalType": "uint256",
          "name": "amount",
          "type": "uint256"
        }
      ],
      "name": "executeWithToken",
      "outputs": [],
      "stateMutability": "nonpayable",
      "type": "function"
    },
    {
      "inputs": [],
      "name": "gasService",
      "outputs": [
        {
          "internalType": "contract IAxelarGasService",
          "name": "",
          "type": "address"
        }
      ],
      "stateMutability": "view",
      "type": "function"
    },
    {
      "inputs": [],
      "name": "gateway",
      "outputs": [
        {
          "internalType": "contract IAxelarGateway",
          "name": "",
          "type": "address"
        }
      ],
      "stateMutability": "view",
      "type": "function"
    },
    {
      "inputs": [],
      "name": "owner",
      "outputs": [
        {
          "internalType": "address",
          "name": "",
          "type": "address"
        }
      ],
      "stateMutability": "view",
      "type": "function"
    },
    {
      "inputs": [],
      "name": "pendingOwner",
      "outputs": [
        {
          "internalType": "address",
          "name": "",
          "type": "address"
        }
      ],
      "stateMutability": "view",
      "type": "function"
    },
    {
      "inputs": [],
      "name": "sbtc",
      "outputs": [
        {
          "internalType": "contract sBTC",
          "name": "",
          "type": "address"
        }
      ],
      "stateMutability": "view",
      "type": "function"
    },
    {
      "inputs": [],
      "name": "sourceAddress",
      "outputs": [
        {
          "internalType": "string",
          "name": "",
          "type": "string"
        }
      ],
      "stateMutability": "view",
      "type": "function"
    },
    {
      "inputs": [],
      "name": "sourceChain",
      "outputs": [
        {
          "internalType": "string",
          "name": "",
          "type": "string"
        }
      ],
      "stateMutability": "view",
      "type": "function"
    },
    {
      "inputs": [
        {
          "internalType": "address",
          "name": "newOwner",
          "type": "address"
        }
      ],
      "name": "transferMintOwnership",
      "outputs": [],
      "stateMutability": "nonpayable",
      "type": "function"
    },
    {
      "inputs": [
        {
          "internalType": "address",
          "name": "newOwner",
          "type": "address"
        },
        {
          "internalType": "bool",
          "name": "direct",
          "type": "bool"
        },
        {
          "internalType": "bool",
          "name": "renounce",
          "type": "bool"
        }
      ],
      "name": "transferOwnership",
      "outputs": [],
      "stateMutability": "nonpayable",
      "type": "function"
    }
  ],
  "bytecode": "0x60c060405234801561001057600080fd5b50604051620012cd380380620012cd833981016040819052610031916100e9565b826001600160a01b0381166100595760405163e6c4247b60e01b815260040160405180910390fd5b6001600160a01b0316608052600080546001600160a01b0319163390811782556040519091907f8be0079c531659141344cd1fd0a4f28419497f9722a3daafe3b4186f6b6457e0908290a36001600160a01b0391821660a052600280546001600160a01b031916919092161790555061012c565b80516001600160a01b03811681146100e457600080fd5b919050565b6000806000606084860312156100fe57600080fd5b610107846100cd565b9250610115602085016100cd565b9150610123604085016100cd565b90509250925092565b60805160a0516111606200016d600039600081816101f6015261069301526000818160fb015281816104cb0152818161071c01526107bb01526111606000f3fe6080604052600436106100c25760003560e01c8063491606581161007f5780638da5cb5b116100595780638da5cb5b14610218578063b0fa844414610238578063ddc2b2381461024d578063e30c39781461026d57600080fd5b806349160658146101af5780634e71e0c8146101cf5780636a22d8cc146101e457600080fd5b8063078dfbe7146100c7578063116191b6146100e95780631861355b1461013a5780631a98b2e01461015a5780631c6ffa461461017a57806328dd63b61461019c575b600080fd5b3480156100d357600080fd5b506100e76100e2366004610a3e565b61028d565b005b3480156100f557600080fd5b5061011d7f000000000000000000000000000000000000000000000000000000000000000081565b6040516001600160a01b0390911681526020015b60405180910390f35b34801561014657600080fd5b506100e7610155366004610a89565b6103d0565b34801561016657600080fd5b506100e7610175366004610af6565b61049a565b34801561018657600080fd5b5061018f61057d565b6040516101319190610c16565b6100e76101aa366004610c29565b61060b565b3480156101bb57600080fd5b506100e76101ca366004610cb5565b61078a565b3480156101db57600080fd5b506100e7610872565b3480156101f057600080fd5b5061011d7f000000000000000000000000000000000000000000000000000000000000000081565b34801561022457600080fd5b5060005461011d906001600160a01b031681565b34801561024457600080fd5b5061018f61092f565b34801561025957600080fd5b5060025461011d906001600160a01b031681565b34801561027957600080fd5b5060015461011d906001600160a01b031681565b6000546001600160a01b031633146102ec5760405162461bcd60e51b815260206004820181905260248201527f4f776e61626c653a2063616c6c6572206973206e6f7420746865206f776e657260448201526064015b60405180910390fd5b81156103af576001600160a01b0383161515806103065750805b61034a5760405162461bcd60e51b81526020600482015260156024820152744f776e61626c653a207a65726f206164647265737360581b60448201526064016102e3565b600080546040516001600160a01b03808716939216917f8be0079c531659141344cd1fd0a4f28419497f9722a3daafe3b4186f6b6457e091a3600080546001600160a01b0385166001600160a01b031991821617909155600180549091169055505050565b600180546001600160a01b0319166001600160a01b0385161790555b505050565b6000546001600160a01b0316331461042a5760405162461bcd60e51b815260206004820181905260248201527f4f776e61626c653a2063616c6c6572206973206e6f7420746865206f776e657260448201526064016102e3565b60025460405163078dfbe760e01b81526001600160a01b03838116600483015260016024830152600060448301529091169063078dfbe790606401600060405180830381600087803b15801561047f57600080fd5b505af1158015610493573d6000803e3d6000fd5b5050505050565b600085856040516104ac929190610d59565b604051908190038120631876eed960e01b825291506001600160a01b037f00000000000000000000000000000000000000000000000000000000000000001690631876eed990610510908e908e908e908e908e9089908d908d908d90600401610d92565b6020604051808303816000875af115801561052f573d6000803e3d6000fd5b505050506040513d601f19601f820116820180604052508101906105539190610df1565b61057057604051631403112d60e21b815260040160405180910390fd5b5050505050505050505050565b6003805461058a90610e0e565b80601f01602080910402602001604051908101604052809291908181526020018280546105b690610e0e565b80156106035780601f106105d857610100808354040283529160200191610603565b820191906000526020600020905b8154815290600101906020018083116105e657829003601f168201915b505050505081565b6000341161065b5760405162461bcd60e51b815260206004820152601760248201527f476173207061796d656e7420697320726571756972656400000000000000000060448201526064016102e3565b604080516001600160a01b0384811660208301528183018490528251808303840181526060830193849052630c93e3bb60e01b9093527f00000000000000000000000000000000000000000000000000000000000000001690630c93e3bb9034906106d69030908c908c908c908c908a903390606401610e48565b6000604051808303818588803b1580156106ef57600080fd5b505af1158015610703573d6000803e3d6000fd5b5050604051631c92115f60e01b81526001600160a01b037f0000000000000000000000000000000000000000000000000000000000000000169350631c92115f925061075c91508a908a908a908a908890600401610eaa565b600060405180830381600087803b15801561077657600080fd5b505af1158015610570573d6000803e3d6000fd5b6000828260405161079c929190610d59565b604051908190038120635f6970c360e01b825291506001600160a01b037f00000000000000000000000000000000000000000000000000000000000000001690635f6970c3906107fa908b908b908b908b908b908990600401610ef1565b6020604051808303816000875af1158015610819573d6000803e3d6000fd5b505050506040513d601f19601f8201168201806040525081019061083d9190610df1565b61085a57604051631403112d60e21b815260040160405180910390fd5b61086887878787878761093c565b5050505050505050565b6001546001600160a01b03163381146108cd5760405162461bcd60e51b815260206004820181905260248201527f4f776e61626c653a2063616c6c657220213d2070656e64696e67206f776e657260448201526064016102e3565b600080546040516001600160a01b03808516939216917f8be0079c531659141344cd1fd0a4f28419497f9722a3daafe3b4186f6b6457e091a3600080546001600160a01b039092166001600160a01b0319928316179055600180549091169055565b6004805461058a90610e0e565b60008061094b83850185610f32565b9092509050600361095d888a83610fc4565b50600461096b868883610fc4565b506002546040516340c10f1960e01b81526001600160a01b03848116600483015260248201849052909116906340c10f1990604401600060405180830381600087803b1580156109ba57600080fd5b505af11580156109ce573d6000803e3d6000fd5b505050507f35c9d1c471140d2d35073c53f8ef5236a338b00c7fe7c444783ac195f769d98160048383604051610a0693929190611084565b60405180910390a15050505050505050565b6001600160a01b0381168114610a2d57600080fd5b50565b8015158114610a2d57600080fd5b600080600060608486031215610a5357600080fd5b8335610a5e81610a18565b92506020840135610a6e81610a30565b91506040840135610a7e81610a30565b809150509250925092565b600060208284031215610a9b57600080fd5b8135610aa681610a18565b9392505050565b60008083601f840112610abf57600080fd5b50813567ffffffffffffffff811115610ad757600080fd5b602083019150836020828501011115610aef57600080fd5b9250929050565b60008060008060008060008060008060c08b8d031215610b1557600080fd5b8a35995060208b013567ffffffffffffffff80821115610b3457600080fd5b610b408e838f01610aad565b909b50995060408d0135915080821115610b5957600080fd5b610b658e838f01610aad565b909950975060608d0135915080821115610b7e57600080fd5b610b8a8e838f01610aad565b909750955060808d0135915080821115610ba357600080fd5b50610bb08d828e01610aad565b9150809450508092505060a08b013590509295989b9194979a5092959850565b6000815180845260005b81811015610bf657602081850181015186830182015201610bda565b506000602082860101526020601f19601f83011685010191505092915050565b602081526000610aa66020830184610bd0565b60008060008060008060808789031215610c4257600080fd5b863567ffffffffffffffff80821115610c5a57600080fd5b610c668a838b01610aad565b90985096506020890135915080821115610c7f57600080fd5b50610c8c89828a01610aad565b9095509350506040870135610ca081610a18565b80925050606087013590509295509295509295565b60008060008060008060006080888a031215610cd057600080fd5b87359650602088013567ffffffffffffffff80821115610cef57600080fd5b610cfb8b838c01610aad565b909850965060408a0135915080821115610d1457600080fd5b610d208b838c01610aad565b909650945060608a0135915080821115610d3957600080fd5b50610d468a828b01610aad565b989b979a50959850939692959293505050565b8183823760009101908152919050565b81835281816020850137506000828201602090810191909152601f909101601f19169091010190565b89815260c060208201526000610dac60c083018a8c610d69565b8281036040840152610dbf81898b610d69565b90508660608401528281036080840152610dda818688610d69565b9150508260a08301529a9950505050505050505050565b600060208284031215610e0357600080fd5b8151610aa681610a30565b600181811c90821680610e2257607f821691505b602082108103610e4257634e487b7160e01b600052602260045260246000fd5b50919050565b600060018060a01b03808a16835260a06020840152610e6b60a08401898b610d69565b8381036040850152610e7e81888a610d69565b90508381036060850152610e928187610bd0565b92505080841660808401525098975050505050505050565b606081526000610ebe606083018789610d69565b8281036020840152610ed1818688610d69565b90508281036040840152610ee58185610bd0565b98975050505050505050565b868152608060208201526000610f0b608083018789610d69565b8281036040840152610f1e818688610d69565b915050826060830152979650505050505050565b60008060408385031215610f4557600080fd5b8235610f5081610a18565b946020939093013593505050565b634e487b7160e01b600052604160045260246000fd5b601f8211156103cb576000816000526020600020601f850160051c81016020861015610f9d5750805b601f850160051c820191505b81811015610fbc57828155600101610fa9565b505050505050565b67ffffffffffffffff831115610fdc57610fdc610f5e565b610ff083610fea8354610e0e565b83610f74565b6000601f841160018114611024576000851561100c5750838201355b600019600387901b1c1916600186901b178355610493565b600083815260209020601f19861690835b828110156110555786850135825560209485019460019092019101611035565b50868210156110725760001960f88860031b161c19848701351681555b505060018560011b0183555050505050565b60608152600080855461109681610e0e565b80606086015260806001808416600081146110b857600181146110d457611106565b60ff1985166080890152608084151560051b8901019550611106565b8a60005260208060002060005b868110156110fc5781548b82018701529084019082016110e1565b8a01608001975050505b505050506001600160a01b038616602085015250905082604083015294935050505056fea2646970667358221220051d3db85b69f3bbc943e35b589e4eec2d61236980df5c95d25b6181483d420c64736f6c63430008180033",
  "linkReferences": {},
  "deployedLinkReferences": {}
}