{
  "_format": "hh-sol-artifact-1",
  "contractName": "CauldronFactory",
  "sourceName": "contracts/CauldronFactory.sol",
  "abi": [
    {
      "inputs": [
        {
          "internalType": "address",
          "name": "_masterContract",
          "type": "address"
        }
      ],
      "stateMutability": "nonpayable",
      "type": "constructor"
    },
    {
      "inputs": [],
      "name": "ERC1167FailedCreateClone",
      "type": "error"
    },
    {
      "anonymous": false,
      "inputs": [
        {
          "indexed": true,
          "internalType": "address",
          "name": "clone",
          "type": "address"
        }
      ],
      "name": "CauldronCloned",
      "type": "event"
    },
    {
      "inputs": [
        {
          "internalType": "bytes",
          "name": "data",
          "type": "bytes"
        }
      ],
      "name": "createCauldron",
      "outputs": [
        {
          "internalType": "address",
          "name": "",
          "type": "address"
        }
      ],
      "stateMutability": "nonpayable",
      "type": "function"
    },
    {
      "inputs": [],
      "name": "masterContract",
      "outputs": [
        {
          "internalType": "address",
          "name": "",
          "type": "address"
        }
      ],
      "stateMutability": "view",
      "type": "function"
    }
  ],
  "bytecode": "0x60a060405234801561001057600080fd5b5060405161033438038061033483398101604081905261002f91610040565b6001600160a01b0316608052610070565b60006020828403121561005257600080fd5b81516001600160a01b038116811461006957600080fd5b9392505050565b6080516102a461009060003960008181606f0152609901526102a46000f3fe608060405234801561001057600080fd5b50600436106100365760003560e01c8063b9989b4d1461003b578063cd446e221461006a575b600080fd5b61004e6100493660046101cd565b610091565b6040516001600160a01b03909116815260200160405180910390f35b61004e7f000000000000000000000000000000000000000000000000000000000000000081565b6000806100bd7f000000000000000000000000000000000000000000000000000000000000000061015b565b604051631377d1f560e21b81529091506001600160a01b03821690634ddf47d4906100ee908790879060040161023f565b600060405180830381600087803b15801561010857600080fd5b505af115801561011c573d6000803e3d6000fd5b50506040516001600160a01b03841692507fb5c50dadaa3d0417c46caf72d56a5ceaf3e3da4eb96aab8c0ebb3f14474ff93d9150600090a29392505050565b6000763d602d80600a3d3981f3363d3d373d3d3d363d730000008260601b60e81c176000526e5af43d82803e903d91602b57fd5bf38260781b17602052603760096000f090506001600160a01b0381166101c8576040516330be1a3d60e21b815260040160405180910390fd5b919050565b600080602083850312156101e057600080fd5b823567ffffffffffffffff808211156101f857600080fd5b818501915085601f83011261020c57600080fd5b81358181111561021b57600080fd5b86602082850101111561022d57600080fd5b60209290920196919550909350505050565b60208152816020820152818360408301376000818301604090810191909152601f909201601f1916010191905056fea2646970667358221220e43e77c1b41df3b819eafc1e9a78fa06f0abfb974b7a933e44e62d8a53410c2664736f6c63430008180033",
  "linkReferences": {},
  "deployedLinkReferences": {}
}