{
  "_format": "hh-sol-artifact-1",
  "contractName": "WETH",
  "sourceName": "contracts/WETH.sol",
  "abi": [
    {
      "inputs": [],
      "stateMutability": "nonpayable",
      "type": "constructor"
    },
    {
      "inputs": [
        {
          "internalType": "address",
          "name": "spender",
          "type": "address"
        },
        {
          "internalType": "uint256",
          "name": "allowance",
          "type": "uint256"
        },
        {
          "internalType": "uint256",
          "name": "needed",
          "type": "uint256"
        }
      ],
      "name": "ERC20InsufficientAllowance",
      "type": "error"
    },
    {
      "inputs": [
        {
          "internalType": "address",
          "name": "sender",
          "type": "address"
        },
        {
          "internalType": "uint256",
          "name": "balance",
          "type": "uint256"
        },
        {
          "internalType": "uint256",
          "name": "needed",
          "type": "uint256"
        }
      ],
      "name": "ERC20InsufficientBalance",
      "type": "error"
    },
    {
      "inputs": [
        {
          "internalType": "address",
          "name": "approver",
          "type": "address"
        }
      ],
      "name": "ERC20InvalidApprover",
      "type": "error"
    },
    {
      "inputs": [
        {
          "internalType": "address",
          "name": "receiver",
          "type": "address"
        }
      ],
      "name": "ERC20InvalidReceiver",
      "type": "error"
    },
    {
      "inputs": [
        {
          "internalType": "address",
          "name": "sender",
          "type": "address"
        }
      ],
      "name": "ERC20InvalidSender",
      "type": "error"
    },
    {
      "inputs": [
        {
          "internalType": "address",
          "name": "spender",
          "type": "address"
        }
      ],
      "name": "ERC20InvalidSpender",
      "type": "error"
    },
    {
      "anonymous": false,
      "inputs": [
        {
          "indexed": true,
          "internalType": "address",
          "name": "owner",
          "type": "address"
        },
        {
          "indexed": true,
          "internalType": "address",
          "name": "spender",
          "type": "address"
        },
        {
          "indexed": false,
          "internalType": "uint256",
          "name": "value",
          "type": "uint256"
        }
      ],
      "name": "Approval",
      "type": "event"
    },
    {
      "anonymous": false,
      "inputs": [
        {
          "indexed": true,
          "internalType": "address",
          "name": "from",
          "type": "address"
        },
        {
          "indexed": true,
          "internalType": "address",
          "name": "to",
          "type": "address"
        },
        {
          "indexed": false,
          "internalType": "uint256",
          "name": "value",
          "type": "uint256"
        }
      ],
      "name": "Transfer",
      "type": "event"
    },
    {
      "inputs": [
        {
          "internalType": "address",
          "name": "owner",
          "type": "address"
        },
        {
          "internalType": "address",
          "name": "spender",
          "type": "address"
        }
      ],
      "name": "allowance",
      "outputs": [
        {
          "internalType": "uint256",
          "name": "",
          "type": "uint256"
        }
      ],
      "stateMutability": "view",
      "type": "function"
    },
    {
      "inputs": [
        {
          "internalType": "address",
          "name": "spender",
          "type": "address"
        },
        {
          "internalType": "uint256",
          "name": "value",
          "type": "uint256"
        }
      ],
      "name": "approve",
      "outputs": [
        {
          "internalType": "bool",
          "name": "",
          "type": "bool"
        }
      ],
      "stateMutability": "nonpayable",
      "type": "function"
    },
    {
      "inputs": [
        {
          "internalType": "address",
          "name": "account",
          "type": "address"
        }
      ],
      "name": "balanceOf",
      "outputs": [
        {
          "internalType": "uint256",
          "name": "",
          "type": "uint256"
        }
      ],
      "stateMutability": "view",
      "type": "function"
    },
    {
      "inputs": [],
      "name": "decimals",
      "outputs": [
        {
          "internalType": "uint8",
          "name": "",
          "type": "uint8"
        }
      ],
      "stateMutability": "view",
      "type": "function"
    },
    {
      "inputs": [],
      "name": "deposit",
      "outputs": [],
      "stateMutability": "payable",
      "type": "function"
    },
    {
      "inputs": [
        {
          "internalType": "address",
          "name": "account",
          "type": "address"
        },
        {
          "internalType": "uint256",
          "name": "amount",
          "type": "uint256"
        }
      ],
      "name": "mint",
      "outputs": [],
      "stateMutability": "nonpayable",
      "type": "function"
    },
    {
      "inputs": [],
      "name": "name",
      "outputs": [
        {
          "internalType": "string",
          "name": "",
          "type": "string"
        }
      ],
      "stateMutability": "view",
      "type": "function"
    },
    {
      "inputs": [],
      "name": "symbol",
      "outputs": [
        {
          "internalType": "string",
          "name": "",
          "type": "string"
        }
      ],
      "stateMutability": "view",
      "type": "function"
    },
    {
      "inputs": [],
      "name": "totalSupply",
      "outputs": [
        {
          "internalType": "uint256",
          "name": "",
          "type": "uint256"
        }
      ],
      "stateMutability": "view",
      "type": "function"
    },
    {
      "inputs": [
        {
          "internalType": "address",
          "name": "to",
          "type": "address"
        },
        {
          "internalType": "uint256",
          "name": "value",
          "type": "uint256"
        }
      ],
      "name": "transfer",
      "outputs": [
        {
          "internalType": "bool",
          "name": "",
          "type": "bool"
        }
      ],
      "stateMutability": "nonpayable",
      "type": "function"
    },
    {
      "inputs": [
        {
          "internalType": "address",
          "name": "from",
          "type": "address"
        },
        {
          "internalType": "address",
          "name": "to",
          "type": "address"
        },
        {
          "internalType": "uint256",
          "name": "value",
          "type": "uint256"
        }
      ],
      "name": "transferFrom",
      "outputs": [
        {
          "internalType": "bool",
          "name": "",
          "type": "bool"
        }
      ],
      "stateMutability": "nonpayable",
      "type": "function"
    },
    {
      "inputs": [
        {
          "internalType": "uint256",
          "name": "amount",
          "type": "uint256"
        }
      ],
      "name": "withdraw",
      "outputs": [],
      "stateMutability": "nonpayable",
      "type": "function"
    },
    {
      "stateMutability": "payable",
      "type": "receive"
    }
  ],
  "bytecode": "0x608060405234801561001057600080fd5b506040518060400160405280600d81526020016c2bb930b83832b21022ba3432b960991b815250604051806040016040528060048152602001630ae8aa8960e31b81525081600390816100639190610119565b5060046100708282610119565b5050506101d8565b634e487b7160e01b600052604160045260246000fd5b600181811c908216806100a257607f821691505b6020821081036100c257634e487b7160e01b600052602260045260246000fd5b50919050565b601f821115610114576000816000526020600020601f850160051c810160208610156100f15750805b601f850160051c820191505b81811015610110578281556001016100fd565b5050505b505050565b81516001600160401b0381111561013257610132610078565b61014681610140845461008e565b846100c8565b602080601f83116001811461017b57600084156101635750858301515b600019600386901b1c1916600185901b178555610110565b600085815260208120601f198616915b828110156101aa5788860151825594840194600190910190840161018b565b50858210156101c85787850151600019600388901b60f8161c191681555b5050505050600190811b01905550565b610a0580620001e86000396000f3fe6080604052600436106100ab5760003560e01c806340c10f191161006457806340c10f191461019557806370a08231146101b557806395d89b41146101eb578063a9059cbb14610200578063d0e30db014610220578063dd62ed3e1461022857600080fd5b806306fdde03146100bf578063095ea7b3146100ea57806318160ddd1461011a57806323b872dd146101395780632e1a7d4d14610159578063313ce5671461017957600080fd5b366100ba576100b861026e565b005b600080fd5b3480156100cb57600080fd5b506100d46102a8565b6040516100e19190610847565b60405180910390f35b3480156100f657600080fd5b5061010a61010536600461087d565b61033a565b60405190151581526020016100e1565b34801561012657600080fd5b506002545b6040519081526020016100e1565b34801561014557600080fd5b5061010a6101543660046108a7565b610354565b34801561016557600080fd5b506100b86101743660046108e3565b610378565b34801561018557600080fd5b50604051601281526020016100e1565b3480156101a157600080fd5b506100b86101b036600461087d565b61040e565b3480156101c157600080fd5b5061012b6101d03660046108fc565b6001600160a01b031660009081526020819052604090205490565b3480156101f757600080fd5b506100d4610418565b34801561020c57600080fd5b5061010a61021b36600461087d565b610427565b6100b861026e565b34801561023457600080fd5b5061012b610243366004610917565b6001600160a01b03918216600090815260016020908152604080832093909416825291909152205490565b61029c6040518060400160405280600c81526020016b036b9b39739b2b73232b91d160a51b81525033610435565b6102a6333461047a565b565b6060600380546102b79061094a565b80601f01602080910402602001604051908101604052809291908181526020018280546102e39061094a565b80156103305780601f1061030557610100808354040283529160200191610330565b820191906000526020600020905b81548152906001019060200180831161031357829003601f168201915b5050505050905090565b6000336103488185856104b0565b60019150505b92915050565b6000336103628582856104c2565b61036d858585610540565b506001949350505050565b336000908152602081905260409020548111156103d35760405162461bcd60e51b8152602060048201526014602482015273496e73756666696369656e742062616c616e636560601b60448201526064015b60405180910390fd5b6103dd338261059f565b604051339082156108fc029083906000818181858888f1935050505015801561040a573d6000803e3d6000fd5b5050565b61040a828261047a565b6060600480546102b79061094a565b600033610348818585610540565b61040a828260405160240161044b929190610984565b60408051601f198184030181529190526020810180516001600160e01b031663319af33360e01b1790526105d5565b6001600160a01b0382166104a45760405163ec442f0560e01b8152600060048201526024016103ca565b61040a600083836105e1565b6104bd838383600161070b565b505050565b6001600160a01b03838116600090815260016020908152604080832093861683529290522054600019811461053a578181101561052b57604051637dc7a0d960e11b81526001600160a01b038416600482015260248101829052604481018390526064016103ca565b61053a8484848403600061070b565b50505050565b6001600160a01b03831661056a57604051634b637e8f60e11b8152600060048201526024016103ca565b6001600160a01b0382166105945760405163ec442f0560e01b8152600060048201526024016103ca565b6104bd8383836105e1565b6001600160a01b0382166105c957604051634b637e8f60e11b8152600060048201526024016103ca565b61040a826000836105e1565b6105de816107e0565b50565b6001600160a01b03831661060c57806002600082825461060191906109ae565b9091555061067e9050565b6001600160a01b0383166000908152602081905260409020548181101561065f5760405163391434e360e21b81526001600160a01b038516600482015260248101829052604481018390526064016103ca565b6001600160a01b03841660009081526020819052604090209082900390555b6001600160a01b03821661069a576002805482900390556106b9565b6001600160a01b03821660009081526020819052604090208054820190555b816001600160a01b0316836001600160a01b03167fddf252ad1be2c89b69c2b068fc378daa952ba7f163c4a11628f55a4df523b3ef836040516106fe91815260200190565b60405180910390a3505050565b6001600160a01b0384166107355760405163e602df0560e01b8152600060048201526024016103ca565b6001600160a01b03831661075f57604051634a1406b160e11b8152600060048201526024016103ca565b6001600160a01b038085166000908152600160209081526040808320938716835292905220829055801561053a57826001600160a01b0316846001600160a01b03167f8c5be1e5ebec7d5bd14f71427d1e84f3dd0314c0f7b2291e5b200ac8c7c3b925846040516107d291815260200190565b60405180910390a350505050565b60006a636f6e736f6c652e6c6f679050600080835160208501845afa505050565b6000815180845260005b818110156108275760208185018101518683018201520161080b565b506000602082860101526020601f19601f83011685010191505092915050565b60208152600061085a6020830184610801565b9392505050565b80356001600160a01b038116811461087857600080fd5b919050565b6000806040838503121561089057600080fd5b61089983610861565b946020939093013593505050565b6000806000606084860312156108bc57600080fd5b6108c584610861565b92506108d360208501610861565b9150604084013590509250925092565b6000602082840312156108f557600080fd5b5035919050565b60006020828403121561090e57600080fd5b61085a82610861565b6000806040838503121561092a57600080fd5b61093383610861565b915061094160208401610861565b90509250929050565b600181811c9082168061095e57607f821691505b60208210810361097e57634e487b7160e01b600052602260045260246000fd5b50919050565b6040815260006109976040830185610801565b905060018060a01b03831660208301529392505050565b8082018082111561034e57634e487b7160e01b600052601160045260246000fdfea2646970667358221220365c2ec254642d91d99a92033e9e917d525debdc175fd0ae24c61bff76e5299564736f6c63430008180033",
  "linkReferences": {},
  "deployedLinkReferences": {}
}