{
  "_format": "hh-sol-artifact-1",
  "contractName": "CallContract",
  "sourceName": "contracts/CallContract.sol",
  "abi": [
    {
      "inputs": [
        {
          "internalType": "address",
          "name": "_gateway",
          "type": "address"
        },
        {
          "internalType": "address",
          "name": "_gasReceiver",
          "type": "address"
        }
      ],
      "stateMutability": "nonpayable",
      "type": "constructor"
    },
    {
      "inputs": [],
      "name": "InvalidAddress",
      "type": "error"
    },
    {
      "inputs": [],
      "name": "NotApprovedByGateway",
      "type": "error"
    },
    {
      "anonymous": false,
      "inputs": [
        {
          "indexed": false,
          "internalType": "bytes32",
          "name": "commandId",
          "type": "bytes32"
        },
        {
          "indexed": false,
          "internalType": "string",
          "name": "sourceChain",
          "type": "string"
        },
        {
          "indexed": false,
          "internalType": "string",
          "name": "sourceAddress",
          "type": "string"
        },
        {
          "indexed": false,
          "internalType": "bytes32",
          "name": "payloadHash",
          "type": "bytes32"
        },
        {
          "indexed": false,
          "internalType": "address",
          "name": "contractAddress",
          "type": "address"
        }
      ],
      "name": "ExecuteCall",
      "type": "event"
    },
    {
      "anonymous": false,
      "inputs": [
        {
          "indexed": false,
          "internalType": "string",
          "name": "_from",
          "type": "string"
        },
        {
          "indexed": false,
          "internalType": "string",
          "name": "_message",
          "type": "string"
        }
      ],
      "name": "Executed",
      "type": "event"
    },
    {
      "inputs": [
        {
          "internalType": "bytes32",
          "name": "commandId",
          "type": "bytes32"
        },
        {
          "internalType": "string",
          "name": "sourceChain",
          "type": "string"
        },
        {
          "internalType": "string",
          "name": "sourceAddress",
          "type": "string"
        },
        {
          "internalType": "bytes",
          "name": "payload",
          "type": "bytes"
        }
      ],
      "name": "execute",
      "outputs": [],
      "stateMutability": "nonpayable",
      "type": "function"
    },
    {
      "inputs": [
        {
          "internalType": "bytes32",
          "name": "commandId",
          "type": "bytes32"
        },
        {
          "internalType": "string",
          "name": "sourceChain",
          "type": "string"
        },
        {
          "internalType": "string",
          "name": "sourceAddress",
          "type": "string"
        },
        {
          "internalType": "bytes",
          "name": "payload",
          "type": "bytes"
        },
        {
          "internalType": "string",
          "name": "tokenSymbol",
          "type": "string"
        },
        {
          "internalType": "uint256",
          "name": "amount",
          "type": "uint256"
        }
      ],
      "name": "executeWithToken",
      "outputs": [],
      "stateMutability": "nonpayable",
      "type": "function"
    },
    {
      "inputs": [],
      "name": "gasService",
      "outputs": [
        {
          "internalType": "contract IAxelarGasService",
          "name": "",
          "type": "address"
        }
      ],
      "stateMutability": "view",
      "type": "function"
    },
    {
      "inputs": [],
      "name": "gateway",
      "outputs": [
        {
          "internalType": "contract IAxelarGateway",
          "name": "",
          "type": "address"
        }
      ],
      "stateMutability": "view",
      "type": "function"
    },
    {
      "inputs": [],
      "name": "message",
      "outputs": [
        {
          "internalType": "string",
          "name": "",
          "type": "string"
        }
      ],
      "stateMutability": "view",
      "type": "function"
    },
    {
      "inputs": [
        {
          "internalType": "bytes32",
          "name": "commandId",
          "type": "bytes32"
        },
        {
          "internalType": "string",
          "name": "_sourceChain",
          "type": "string"
        },
        {
          "internalType": "string",
          "name": "_sourceAddress",
          "type": "string"
        },
        {
          "internalType": "bytes",
          "name": "payload",
          "type": "bytes"
        }
      ],
      "name": "myExecute",
      "outputs": [],
      "stateMutability": "nonpayable",
      "type": "function"
    },
    {
      "inputs": [
        {
          "internalType": "string",
          "name": "destinationChain",
          "type": "string"
        },
        {
          "internalType": "string",
          "name": "destinationAddress",
          "type": "string"
        },
        {
          "internalType": "string",
          "name": "_message",
          "type": "string"
        }
      ],
      "name": "setRemoteValue",
      "outputs": [],
      "stateMutability": "payable",
      "type": "function"
    },
    {
      "inputs": [],
      "name": "sourceAddress",
      "outputs": [
        {
          "internalType": "string",
          "name": "",
          "type": "string"
        }
      ],
      "stateMutability": "view",
      "type": "function"
    },
    {
      "inputs": [],
      "name": "sourceChain",
      "outputs": [
        {
          "internalType": "string",
          "name": "",
          "type": "string"
        }
      ],
      "stateMutability": "view",
      "type": "function"
    }
  ],
  "bytecode": "0x60c060405234801561001057600080fd5b506040516110f13803806110f183398101604081905261002f9161008b565b816001600160a01b0381166100575760405163e6c4247b60e01b815260040160405180910390fd5b6001600160a01b039081166080521660a052506100be565b80516001600160a01b038116811461008657600080fd5b919050565b6000806040838503121561009e57600080fd5b6100a78361006f565b91506100b56020840161006f565b90509250929050565b60805160a051610fec6101056000396000818161017201526105db015260008181609d015281816102020152818161032d0152818161049e01526106640152610fec6000f3fe6080604052600436106100865760003560e01c8063491606581161005957806349160658146101405780636a22d8cc1461016057806380d3269714610194578063b0fa8444146101a7578063e21f37ce146101bc57600080fd5b8063116191b61461008b578063199ff582146100dc5780631a98b2e0146100fe5780631c6ffa461461011e575b600080fd5b34801561009757600080fd5b506100bf7f000000000000000000000000000000000000000000000000000000000000000081565b6040516001600160a01b0390911681526020015b60405180910390f35b3480156100e857600080fd5b506100fc6100f73660046107ae565b6101d1565b005b34801561010a57600080fd5b506100fc610119366004610852565b6102fc565b34801561012a57600080fd5b506101336103df565b6040516100d39190610972565b34801561014c57600080fd5b506100fc61015b3660046107ae565b61046d565b34801561016c57600080fd5b506100bf7f000000000000000000000000000000000000000000000000000000000000000081565b6100fc6101a236600461098c565b61054b565b3480156101b357600080fd5b506101336106d2565b3480156101c857600080fd5b506101336106df565b600082826040516101e3929190610a26565b604051908190038120635f6970c360e01b825291506001600160a01b037f00000000000000000000000000000000000000000000000000000000000000001690635f6970c390610241908b908b908b908b908b908990600401610a5f565b6020604051808303816000875af1158015610260573d6000803e3d6000fd5b505050506040513d601f19601f820116820180604052508101906102849190610aa0565b6102a157604051631403112d60e21b815260040160405180910390fd5b7f4674607d689a35e60a0b8375cb6a86fd246533d9e2837fcb1479e0c28f1ed2cc888888888886306040516102dc9796959493929190610ac2565b60405180910390a16102f28787878787876106ec565b5050505050505050565b6000858560405161030e929190610a26565b604051908190038120631876eed960e01b825291506001600160a01b037f00000000000000000000000000000000000000000000000000000000000000001690631876eed990610372908e908e908e908e908e9089908d908d908d90600401610b14565b6020604051808303816000875af1158015610391573d6000803e3d6000fd5b505050506040513d601f19601f820116820180604052508101906103b59190610aa0565b6103d257604051631403112d60e21b815260040160405180910390fd5b5050505050505050505050565b600180546103ec90610b73565b80601f016020809104026020016040519081016040528092919081815260200182805461041890610b73565b80156104655780601f1061043a57610100808354040283529160200191610465565b820191906000526020600020905b81548152906001019060200180831161044857829003601f168201915b505050505081565b6000828260405161047f929190610a26565b604051908190038120635f6970c360e01b825291506001600160a01b037f00000000000000000000000000000000000000000000000000000000000000001690635f6970c3906104dd908b908b908b908b908b908990600401610a5f565b6020604051808303816000875af11580156104fc573d6000803e3d6000fd5b505050506040513d601f19601f820116820180604052508101906105209190610aa0565b61053d57604051631403112d60e21b815260040160405180910390fd5b6102f28787878787876106ec565b6000341161059f5760405162461bcd60e51b815260206004820152601760248201527f476173207061796d656e74206973207265717569726564000000000000000000604482015260640160405180910390fd5b600082826040516020016105b4929190610bad565b60408051601f1981840301815290829052630c93e3bb60e01b825291506001600160a01b037f00000000000000000000000000000000000000000000000000000000000000001690630c93e3bb90349061061e9030908c908c908c908c908a903390600401610bc9565b6000604051808303818588803b15801561063757600080fd5b505af115801561064b573d6000803e3d6000fd5b5050604051631c92115f60e01b81526001600160a01b037f0000000000000000000000000000000000000000000000000000000000000000169350631c92115f92506106a491508a908a908a908a908890600401610c2b565b600060405180830381600087803b1580156106be57600080fd5b505af11580156103d2573d6000803e3d6000fd5b600280546103ec90610b73565b600080546103ec90610b73565b6106f881830183610c88565b6000906107059082610d8a565b506001610713868883610e4a565b506002610721848683610e4a565b507f0d97a9033491f569feb4c72abf12722b227eec24ee13547bec3654f8663ff71160026000604051610755929190610f88565b60405180910390a1505050505050565b60008083601f84011261077757600080fd5b50813567ffffffffffffffff81111561078f57600080fd5b6020830191508360208285010111156107a757600080fd5b9250929050565b60008060008060008060006080888a0312156107c957600080fd5b87359650602088013567ffffffffffffffff808211156107e857600080fd5b6107f48b838c01610765565b909850965060408a013591508082111561080d57600080fd5b6108198b838c01610765565b909650945060608a013591508082111561083257600080fd5b5061083f8a828b01610765565b989b979a50959850939692959293505050565b60008060008060008060008060008060c08b8d03121561087157600080fd5b8a35995060208b013567ffffffffffffffff8082111561089057600080fd5b61089c8e838f01610765565b909b50995060408d01359150808211156108b557600080fd5b6108c18e838f01610765565b909950975060608d01359150808211156108da57600080fd5b6108e68e838f01610765565b909750955060808d01359150808211156108ff57600080fd5b5061090c8d828e01610765565b9150809450508092505060a08b013590509295989b9194979a5092959850565b6000815180845260005b8181101561095257602081850181015186830182015201610936565b506000602082860101526020601f19601f83011685010191505092915050565b602081526000610985602083018461092c565b9392505050565b600080600080600080606087890312156109a557600080fd5b863567ffffffffffffffff808211156109bd57600080fd5b6109c98a838b01610765565b909850965060208901359150808211156109e257600080fd5b6109ee8a838b01610765565b90965094506040890135915080821115610a0757600080fd5b50610a1489828a01610765565b979a9699509497509295939492505050565b8183823760009101908152919050565b81835281816020850137506000828201602090810191909152601f909101601f19169091010190565b868152608060208201526000610a79608083018789610a36565b8281036040840152610a8c818688610a36565b915050826060830152979650505050505050565b600060208284031215610ab257600080fd5b8151801515811461098557600080fd5b87815260a060208201526000610adc60a08301888a610a36565b8281036040840152610aef818789610a36565b606084019590955250506001600160a01b039190911660809091015295945050505050565b89815260c060208201526000610b2e60c083018a8c610a36565b8281036040840152610b4181898b610a36565b90508660608401528281036080840152610b5c818688610a36565b9150508260a08301529a9950505050505050505050565b600181811c90821680610b8757607f821691505b602082108103610ba757634e487b7160e01b600052602260045260246000fd5b50919050565b602081526000610bc1602083018486610a36565b949350505050565b600060018060a01b03808a16835260a06020840152610bec60a08401898b610a36565b8381036040850152610bff81888a610a36565b90508381036060850152610c13818761092c565b92505080841660808401525098975050505050505050565b606081526000610c3f606083018789610a36565b8281036020840152610c52818688610a36565b90508281036040840152610c66818561092c565b98975050505050505050565b634e487b7160e01b600052604160045260246000fd5b600060208284031215610c9a57600080fd5b813567ffffffffffffffff80821115610cb257600080fd5b818401915084601f830112610cc657600080fd5b813581811115610cd857610cd8610c72565b604051601f8201601f19908116603f01168101908382118183101715610d0057610d00610c72565b81604052828152876020848701011115610d1957600080fd5b826020860160208301376000928101602001929092525095945050505050565b601f821115610d85576000816000526020600020601f850160051c81016020861015610d625750805b601f850160051c820191505b81811015610d8157828155600101610d6e565b5050505b505050565b815167ffffffffffffffff811115610da457610da4610c72565b610db881610db28454610b73565b84610d39565b602080601f831160018114610ded5760008415610dd55750858301515b600019600386901b1c1916600185901b178555610d81565b600085815260208120601f198616915b82811015610e1c57888601518255948401946001909101908401610dfd565b5085821015610e3a5787850151600019600388901b60f8161c191681555b5050505050600190811b01905550565b67ffffffffffffffff831115610e6257610e62610c72565b610e7683610e708354610b73565b83610d39565b6000601f841160018114610eaa5760008515610e925750838201355b600019600387901b1c1916600186901b178355610f04565b600083815260209020601f19861690835b82811015610edb5786850135825560209485019460019092019101610ebb565b5086821015610ef85760001960f88860031b161c19848701351681555b505060018560011b0183555b5050505050565b60008154610f1881610b73565b808552602060018381168015610f355760018114610f4f57610f7d565b60ff1985168884015283151560051b880183019550610f7d565b866000528260002060005b85811015610f755781548a8201860152908301908401610f5a565b890184019650505b505050505092915050565b604081526000610f9b6040830185610f0b565b8281036020840152610fad8185610f0b565b9594505050505056fea264697066735822122056d231663b478e20d46fe91bdca58550e4fee9019add709c8acbd7798ed2080464736f6c63430008180033",
  "linkReferences": {},
  "deployedLinkReferences": {}
}