{
  "_format": "hh-sol-artifact-1",
  "contractName": "BaseBoringBatchable",
  "sourceName": "lib/BoringSolidity/contracts/BoringBatchable.sol",
  "abi": [
    {
      "inputs": [
        {
          "internalType": "bytes",
          "name": "innerError",
          "type": "bytes"
        }
      ],
      "name": "BatchError",
      "type": "error"
    },
    {
      "inputs": [
        {
          "internalType": "bytes[]",
          "name": "calls",
          "type": "bytes[]"
        },
        {
          "internalType": "bool",
          "name": "revertOnFail",
          "type": "bool"
        }
      ],
      "name": "batch",
      "outputs": [],
      "stateMutability": "payable",
      "type": "function"
    }
  ],
  "bytecode": "0x608060405234801561001057600080fd5b506103aa806100206000396000f3fe60806040526004361061001e5760003560e01c8063d2423b5114610023575b600080fd5b610036610031366004610148565b610038565b005b60005b828110156100e15760008030868685818110610059576100596101d3565b905060200281019061006b91906101e9565b604051610079929190610237565b600060405180830381855af49150503d80600081146100b4576040519150601f19603f3d011682016040523d82523d6000602084013e6100b9565b606091505b5091509150811580156100c95750835b156100d7576100d7816100e7565b505060010161003b565b50505050565b604481511015610115578060405163d935448560e01b815260040161010c9190610297565b60405180910390fd5b6004810190508080602001905181019061012f91906102c7565b60405162461bcd60e51b815260040161010c9190610297565b60008060006040848603121561015d57600080fd5b833567ffffffffffffffff8082111561017557600080fd5b818601915086601f83011261018957600080fd5b81358181111561019857600080fd5b8760208260051b85010111156101ad57600080fd5b6020928301955093505084013580151581146101c857600080fd5b809150509250925092565b634e487b7160e01b600052603260045260246000fd5b6000808335601e1984360301811261020057600080fd5b83018035915067ffffffffffffffff82111561021b57600080fd5b60200191503681900382131561023057600080fd5b9250929050565b8183823760009101908152919050565b60005b8381101561026257818101518382015260200161024a565b50506000910152565b60008151808452610283816020860160208601610247565b601f01601f19169290920160200192915050565b6020815260006102aa602083018461026b565b9392505050565b634e487b7160e01b600052604160045260246000fd5b6000602082840312156102d957600080fd5b815167ffffffffffffffff808211156102f157600080fd5b818401915084601f83011261030557600080fd5b815181811115610317576103176102b1565b604051601f8201601f19908116603f0116810190838211818310171561033f5761033f6102b1565b8160405282815287602084870101111561035857600080fd5b610369836020830160208801610247565b97965050505050505056fea2646970667358221220d52773667390fbed30bcd1b3b790db63dd6f56657ba1cb9c989881d6d9dc7e9864736f6c63430008180033",
  "linkReferences": {},
  "deployedLinkReferences": {}
}