{
  "_format": "hh-sol-artifact-1",
  "contractName": "BoringBatchable",
  "sourceName": "lib/BoringSolidity/contracts/BoringBatchable.sol",
  "abi": [
    {
      "inputs": [
        {
          "internalType": "bytes",
          "name": "innerError",
          "type": "bytes"
        }
      ],
      "name": "BatchError",
      "type": "error"
    },
    {
      "inputs": [
        {
          "internalType": "bytes[]",
          "name": "calls",
          "type": "bytes[]"
        },
        {
          "internalType": "bool",
          "name": "revertOnFail",
          "type": "bool"
        }
      ],
      "name": "batch",
      "outputs": [],
      "stateMutability": "payable",
      "type": "function"
    },
    {
      "inputs": [
        {
          "internalType": "contract IERC20",
          "name": "token",
          "type": "address"
        },
        {
          "internalType": "address",
          "name": "from",
          "type": "address"
        },
        {
          "internalType": "address",
          "name": "to",
          "type": "address"
        },
        {
          "internalType": "uint256",
          "name": "amount",
          "type": "uint256"
        },
        {
          "internalType": "uint256",
          "name": "deadline",
          "type": "uint256"
        },
        {
          "internalType": "uint8",
          "name": "v",
          "type": "uint8"
        },
        {
          "internalType": "bytes32",
          "name": "r",
          "type": "bytes32"
        },
        {
          "internalType": "bytes32",
          "name": "s",
          "type": "bytes32"
        }
      ],
      "name": "permitToken",
      "outputs": [],
      "stateMutability": "nonpayable",
      "type": "function"
    }
  ],
  "bytecode": "0x608060405234801561001057600080fd5b50610508806100206000396000f3fe6080604052600436106100295760003560e01c80637c516e941461002e578063d2423b5114610050575b600080fd5b34801561003a57600080fd5b5061004e61004936600461021d565b610063565b005b61004e61005e3660046102a6565b6100f5565b60405163d505accf60e01b81526001600160a01b0388811660048301528781166024830152604482018790526064820186905260ff8516608483015260a4820184905260c4820183905289169063d505accf9060e401600060405180830381600087803b1580156100d357600080fd5b505af11580156100e7573d6000803e3d6000fd5b505050505050505050505050565b60005b8281101561019e576000803086868581811061011657610116610331565b90506020028101906101289190610347565b604051610136929190610395565b600060405180830381855af49150503d8060008114610171576040519150601f19603f3d011682016040523d82523d6000602084013e610176565b606091505b5091509150811580156101865750835b1561019457610194816101a4565b50506001016100f8565b50505050565b6044815110156101d2578060405163d935448560e01b81526004016101c991906103f5565b60405180910390fd5b600481019050808060200190518101906101ec9190610425565b60405162461bcd60e51b81526004016101c991906103f5565b6001600160a01b038116811461021a57600080fd5b50565b600080600080600080600080610100898b03121561023a57600080fd5b883561024581610205565b9750602089013561025581610205565b9650604089013561026581610205565b9550606089013594506080890135935060a089013560ff8116811461028957600080fd5b979a969950949793969295929450505060c08201359160e0013590565b6000806000604084860312156102bb57600080fd5b833567ffffffffffffffff808211156102d357600080fd5b818601915086601f8301126102e757600080fd5b8135818111156102f657600080fd5b8760208260051b850101111561030b57600080fd5b60209283019550935050840135801515811461032657600080fd5b809150509250925092565b634e487b7160e01b600052603260045260246000fd5b6000808335601e1984360301811261035e57600080fd5b83018035915067ffffffffffffffff82111561037957600080fd5b60200191503681900382131561038e57600080fd5b9250929050565b8183823760009101908152919050565b60005b838110156103c05781810151838201526020016103a8565b50506000910152565b600081518084526103e18160208601602086016103a5565b601f01601f19169290920160200192915050565b60208152600061040860208301846103c9565b9392505050565b634e487b7160e01b600052604160045260246000fd5b60006020828403121561043757600080fd5b815167ffffffffffffffff8082111561044f57600080fd5b818401915084601f83011261046357600080fd5b8151818111156104755761047561040f565b604051601f8201601f19908116603f0116810190838211818310171561049d5761049d61040f565b816040528281528760208487010111156104b657600080fd5b6104c78360208301602088016103a5565b97965050505050505056fea2646970667358221220b1ecd2c74c2d3be3827053dd0062daecda27e009ce44e45c9f902b3d71bfd97264736f6c63430008180033",
  "linkReferences": {},
  "deployedLinkReferences": {}
}