{
  "_format": "hh-sol-artifact-1",
  "contractName": "ScalarCoin",
  "sourceName": "contracts/ScalarCoin.sol",
  "abi": [
    {
      "anonymous": false,
      "inputs": [
        {
          "indexed": true,
          "internalType": "address",
          "name": "owner",
          "type": "address"
        },
        {
          "indexed": true,
          "internalType": "address",
          "name": "spender",
          "type": "address"
        },
        {
          "indexed": false,
          "internalType": "uint256",
          "name": "value",
          "type": "uint256"
        }
      ],
      "name": "Approval",
      "type": "event"
    },
    {
      "anonymous": false,
      "inputs": [
        {
          "indexed": true,
          "internalType": "address",
          "name": "previousOwner",
          "type": "address"
        },
        {
          "indexed": true,
          "internalType": "address",
          "name": "newOwner",
          "type": "address"
        }
      ],
      "name": "OwnershipTransferred",
      "type": "event"
    },
    {
      "anonymous": false,
      "inputs": [
        {
          "indexed": true,
          "internalType": "address",
          "name": "from",
          "type": "address"
        },
        {
          "indexed": true,
          "internalType": "address",
          "name": "to",
          "type": "address"
        },
        {
          "indexed": false,
          "internalType": "uint256",
          "name": "value",
          "type": "uint256"
        }
      ],
      "name": "Transfer",
      "type": "event"
    },
    {
      "inputs": [],
      "name": "DOMAIN_SEPARATOR",
      "outputs": [
        {
          "internalType": "bytes32",
          "name": "",
          "type": "bytes32"
        }
      ],
      "stateMutability": "view",
      "type": "function"
    },
    {
      "inputs": [
        {
          "internalType": "address",
          "name": "",
          "type": "address"
        },
        {
          "internalType": "address",
          "name": "",
          "type": "address"
        }
      ],
      "name": "allowance",
      "outputs": [
        {
          "internalType": "uint256",
          "name": "",
          "type": "uint256"
        }
      ],
      "stateMutability": "view",
      "type": "function"
    },
    {
      "inputs": [
        {
          "internalType": "address",
          "name": "spender",
          "type": "address"
        },
        {
          "internalType": "uint256",
          "name": "amount",
          "type": "uint256"
        }
      ],
      "name": "approve",
      "outputs": [
        {
          "internalType": "bool",
          "name": "",
          "type": "bool"
        }
      ],
      "stateMutability": "nonpayable",
      "type": "function"
    },
    {
      "inputs": [
        {
          "internalType": "address",
          "name": "",
          "type": "address"
        }
      ],
      "name": "balanceOf",
      "outputs": [
        {
          "internalType": "uint256",
          "name": "",
          "type": "uint256"
        }
      ],
      "stateMutability": "view",
      "type": "function"
    },
    {
      "inputs": [
        {
          "internalType": "uint256",
          "name": "amount",
          "type": "uint256"
        }
      ],
      "name": "burn",
      "outputs": [],
      "stateMutability": "nonpayable",
      "type": "function"
    },
    {
      "inputs": [],
      "name": "claimOwnership",
      "outputs": [],
      "stateMutability": "nonpayable",
      "type": "function"
    },
    {
      "inputs": [],
      "name": "decimals",
      "outputs": [
        {
          "internalType": "uint8",
          "name": "",
          "type": "uint8"
        }
      ],
      "stateMutability": "view",
      "type": "function"
    },
    {
      "inputs": [
        {
          "internalType": "address",
          "name": "to",
          "type": "address"
        },
        {
          "internalType": "uint256",
          "name": "amount",
          "type": "uint256"
        }
      ],
      "name": "mint",
      "outputs": [],
      "stateMutability": "nonpayable",
      "type": "function"
    },
    {
      "inputs": [
        {
          "internalType": "address",
          "name": "clone",
          "type": "address"
        },
        {
          "internalType": "uint256",
          "name": "amount",
          "type": "uint256"
        },
        {
          "internalType": "contract IBentoBoxV1",
          "name": "bentoBox",
          "type": "address"
        }
      ],
      "name": "mintToBentoBox",
      "outputs": [],
      "stateMutability": "nonpayable",
      "type": "function"
    },
    {
      "inputs": [],
      "name": "name",
      "outputs": [
        {
          "internalType": "string",
          "name": "",
          "type": "string"
        }
      ],
      "stateMutability": "view",
      "type": "function"
    },
    {
      "inputs": [
        {
          "internalType": "address",
          "name": "",
          "type": "address"
        }
      ],
      "name": "nonces",
      "outputs": [
        {
          "internalType": "uint256",
          "name": "",
          "type": "uint256"
        }
      ],
      "stateMutability": "view",
      "type": "function"
    },
    {
      "inputs": [],
      "name": "owner",
      "outputs": [
        {
          "internalType": "address",
          "name": "",
          "type": "address"
        }
      ],
      "stateMutability": "view",
      "type": "function"
    },
    {
      "inputs": [],
      "name": "pendingOwner",
      "outputs": [
        {
          "internalType": "address",
          "name": "",
          "type": "address"
        }
      ],
      "stateMutability": "view",
      "type": "function"
    },
    {
      "inputs": [
        {
          "internalType": "address",
          "name": "owner_",
          "type": "address"
        },
        {
          "internalType": "address",
          "name": "spender",
          "type": "address"
        },
        {
          "internalType": "uint256",
          "name": "value",
          "type": "uint256"
        },
        {
          "internalType": "uint256",
          "name": "deadline",
          "type": "uint256"
        },
        {
          "internalType": "uint8",
          "name": "v",
          "type": "uint8"
        },
        {
          "internalType": "bytes32",
          "name": "r",
          "type": "bytes32"
        },
        {
          "internalType": "bytes32",
          "name": "s",
          "type": "bytes32"
        }
      ],
      "name": "permit",
      "outputs": [],
      "stateMutability": "nonpayable",
      "type": "function"
    },
    {
      "inputs": [],
      "name": "symbol",
      "outputs": [
        {
          "internalType": "string",
          "name": "",
          "type": "string"
        }
      ],
      "stateMutability": "view",
      "type": "function"
    },
    {
      "inputs": [],
      "name": "totalSupply",
      "outputs": [
        {
          "internalType": "uint256",
          "name": "",
          "type": "uint256"
        }
      ],
      "stateMutability": "view",
      "type": "function"
    },
    {
      "inputs": [
        {
          "internalType": "address",
          "name": "to",
          "type": "address"
        },
        {
          "internalType": "uint256",
          "name": "amount",
          "type": "uint256"
        }
      ],
      "name": "transfer",
      "outputs": [
        {
          "internalType": "bool",
          "name": "",
          "type": "bool"
        }
      ],
      "stateMutability": "nonpayable",
      "type": "function"
    },
    {
      "inputs": [
        {
          "internalType": "address",
          "name": "from",
          "type": "address"
        },
        {
          "internalType": "address",
          "name": "to",
          "type": "address"
        },
        {
          "internalType": "uint256",
          "name": "amount",
          "type": "uint256"
        }
      ],
      "name": "transferFrom",
      "outputs": [
        {
          "internalType": "bool",
          "name": "",
          "type": "bool"
        }
      ],
      "stateMutability": "nonpayable",
      "type": "function"
    },
    {
      "inputs": [
        {
          "internalType": "address",
          "name": "newOwner",
          "type": "address"
        },
        {
          "internalType": "bool",
          "name": "direct",
          "type": "bool"
        },
        {
          "internalType": "bool",
          "name": "renounce",
          "type": "bool"
        }
      ],
      "name": "transferOwnership",
      "outputs": [],
      "stateMutability": "nonpayable",
      "type": "function"
    }
  ],
  "bytecode": "0x60c060405234801561001057600080fd5b504660a081905261007490604080517f47e79534a245952e8b16893a336b85a3d9ea9fa8c573f3d803afb92a794692186020820152908101829052306060820152600090608001604051602081830303815290604052805190602001209050919050565b608052600380546001600160a01b031916339081179091556040516000907f8be0079c531659141344cd1fd0a4f28419497f9722a3daafe3b4186f6b6457e0908290a360805160a0516111f96100dc6000396000610d8001526000610db101526111f96000f3fe608060405234801561001057600080fd5b50600436106101215760003560e01c80634e71e0c8116100ad57806395d89b411161007157806395d89b4114610296578063a9059cbb146102b8578063d505accf146102cb578063dd62ed3e146102de578063e30c39781461030957600080fd5b80634e71e0c81461021057806369e402651461021857806370a082311461022b5780637ecebe001461024b5780638da5cb5b1461026b57600080fd5b806323b872dd116100f457806323b872dd146101b5578063313ce567146101c85780633644e515146101e257806340c10f19146101ea57806342966c68146101fd57600080fd5b806306fdde0314610126578063078dfbe714610166578063095ea7b31461017b57806318160ddd1461019e575b600080fd5b6101506040518060400160405280600b81526020016a29b1b0b630b91021b7b4b760a91b81525081565b60405161015d9190610e8d565b60405180910390f35b610179610174366004610eed565b61031c565b005b61018e610189366004610f32565b610435565b604051901515815260200161015d565b6101a760055481565b60405190815260200161015d565b61018e6101c3366004610f5e565b6104a2565b6101d0601281565b60405160ff909116815260200161015d565b6101a76106ae565b6101796101f8366004610f32565b6106bd565b61017961020b366004610f9f565b6107ae565b610179610865565b610179610226366004610fb8565b610923565b6101a7610239366004610ffa565b60006020819052908152604090205481565b6101a7610259366004610ffa565b60026020526000908152604090205481565b60035461027e906001600160a01b031681565b6040516001600160a01b03909116815260200161015d565b6101506040518060400160405280600381526020016214d0d360ea1b81525081565b61018e6102c6366004610f32565b6109e4565b6101796102d936600461101e565b610b29565b6101a76102ec366004611095565b600160209081526000928352604080842090915290825290205481565b60045461027e906001600160a01b031681565b6003546001600160a01b0316331461034f5760405162461bcd60e51b8152600401610346906110ce565b60405180910390fd5b8115610413576001600160a01b0383161515806103695750805b6103ad5760405162461bcd60e51b81526020600482015260156024820152744f776e61626c653a207a65726f206164647265737360581b6044820152606401610346565b6003546040516001600160a01b038086169216907f8be0079c531659141344cd1fd0a4f28419497f9722a3daafe3b4186f6b6457e090600090a3600380546001600160a01b0385166001600160a01b031991821617909155600480549091169055505050565b600480546001600160a01b0385166001600160a01b0319909116179055505050565b3360008181526001602090815260408083206001600160a01b038716808552925280832085905551919290917f8c5be1e5ebec7d5bd14f71427d1e84f3dd0314c0f7b2291e5b200ac8c7c3b925906104909086815260200190565b60405180910390a35060015b92915050565b60008115610669576001600160a01b0384166000908152602081905260409020548281101561050c5760405162461bcd60e51b815260206004820152601660248201527545524332303a2062616c616e636520746f6f206c6f7760501b6044820152606401610346565b836001600160a01b0316856001600160a01b031614610667576001600160a01b038516600090815260016020908152604080832033845290915290205460001981146105d157838110156105a25760405162461bcd60e51b815260206004820152601860248201527f45524332303a20616c6c6f77616e636520746f6f206c6f7700000000000000006044820152606401610346565b6105ac8482611119565b6001600160a01b03871660009081526001602090815260408083203384529091529020555b6001600160a01b0385166106205760405162461bcd60e51b815260206004820152601660248201527545524332303a206e6f207a65726f206164647265737360501b6044820152606401610346565b61062a8483611119565b6001600160a01b03808816600090815260208190526040808220939093559087168152908120805486929061066090849061112c565b9091555050505b505b826001600160a01b0316846001600160a01b03166000805160206111a48339815191528460405161069c91815260200190565b60405180910390a35060019392505050565b60006106b8610d7c565b905090565b6003546001600160a01b031633146106e75760405162461bcd60e51b8152600401610346906110ce565b6001600160a01b03821661073d5760405162461bcd60e51b815260206004820152601c60248201527f53434c3a206e6f206d696e7420746f207a65726f2061646472657373000000006044820152606401610346565b8060055461074b919061112c565b6005556001600160a01b0382166000908152602081905260408120805483929061077690849061112c565b90915550506040518181526001600160a01b038316906000906000805160206111a48339815191529060200160405180910390a35050565b336000908152602081905260409020548111156107ff5760405162461bcd60e51b815260206004820152600f60248201526e0a686987440dcdee840cadcdeeaced608b1b6044820152606401610346565b336000908152602081905260408120805483929061081e908490611119565b9250508190555080600560008282546108379190611119565b909155505060405181815260009033906000805160206111a48339815191529060200160405180910390a350565b6004546001600160a01b03163381146108c05760405162461bcd60e51b815260206004820181905260248201527f4f776e61626c653a2063616c6c657220213d2070656e64696e67206f776e65726044820152606401610346565b6003546040516001600160a01b038084169216907f8be0079c531659141344cd1fd0a4f28419497f9722a3daafe3b4186f6b6457e090600090a3600380546001600160a01b039092166001600160a01b0319928316179055600480549091169055565b6003546001600160a01b0316331461094d5760405162461bcd60e51b8152600401610346906110ce565b61095781836106bd565b60405162ae511b60e21b81523060048201526001600160a01b038281166024830181905290851660448301526064820184905260006084830152906302b9446c9060a40160408051808303816000875af11580156109b9573d6000803e3d6000fd5b505050506040513d601f19601f820116820180604052508101906109dd919061113f565b5050505050565b6000811515806109fc5750336001600160a01b038416145b15610afe573360009081526020819052604090205482811015610a5a5760405162461bcd60e51b815260206004820152601660248201527545524332303a2062616c616e636520746f6f206c6f7760501b6044820152606401610346565b336001600160a01b03851614610afc576001600160a01b038416610ab95760405162461bcd60e51b815260206004820152601660248201527545524332303a206e6f207a65726f206164647265737360501b6044820152606401610346565b610ac38382611119565b33600090815260208190526040808220929092556001600160a01b03861681529081208054859290610af690849061112c565b90915550505b505b6040518281526001600160a01b0384169033906000805160206111a483398151915290602001610490565b6001600160a01b038716610b7f5760405162461bcd60e51b815260206004820152601860248201527f45524332303a204f776e65722063616e6e6f74206265203000000000000000006044820152606401610346565b834210610bbf5760405162461bcd60e51b815260206004820152600e60248201526d115490cc8c0e88115e1c1a5c995960921b6044820152606401610346565b6001600160a01b03871660008181526002602052604081208054600192610c69927f6e71edae12b1b97f4d1f60370fef10105fa2faae0126114a169c64845d6126c9928d928d928d9291610c1283611163565b909155506040805160208101969096526001600160a01b0394851690860152929091166060840152608083015260a082015260c0810188905260e00160405160208183030381529060405280519060200120610dd3565b6040805160008152602081018083529290925260ff871690820152606081018590526080810184905260a0016020604051602081039080840390855afa158015610cb7573d6000803e3d6000fd5b505050602060405103516001600160a01b031614610d175760405162461bcd60e51b815260206004820152601860248201527f45524332303a20496e76616c6964205369676e617475726500000000000000006044820152606401610346565b6001600160a01b038781166000818152600160209081526040808320948b168084529482529182902089905590518881527f8c5be1e5ebec7d5bd14f71427d1e84f3dd0314c0f7b2291e5b200ac8c7c3b925910160405180910390a350505050505050565b60007f00000000000000000000000000000000000000000000000000000000000000004614610dae576106b846610e28565b507f000000000000000000000000000000000000000000000000000000000000000090565b600060405180604001604052806002815260200161190160f01b815250610df8610d7c565b83604051602001610e0b9392919061117c565b604051602081830303815290604052805190602001209050919050565b604080517f47e79534a245952e8b16893a336b85a3d9ea9fa8c573f3d803afb92a794692186020820152908101829052306060820152600090608001610e0b565b60005b83811015610e84578181015183820152602001610e6c565b50506000910152565b6020815260008251806020840152610eac816040850160208701610e69565b601f01601f19169190910160400192915050565b6001600160a01b0381168114610ed557600080fd5b50565b80358015158114610ee857600080fd5b919050565b600080600060608486031215610f0257600080fd5b8335610f0d81610ec0565b9250610f1b60208501610ed8565b9150610f2960408501610ed8565b90509250925092565b60008060408385031215610f4557600080fd5b8235610f5081610ec0565b946020939093013593505050565b600080600060608486031215610f7357600080fd5b8335610f7e81610ec0565b92506020840135610f8e81610ec0565b929592945050506040919091013590565b600060208284031215610fb157600080fd5b5035919050565b600080600060608486031215610fcd57600080fd5b8335610fd881610ec0565b9250602084013591506040840135610fef81610ec0565b809150509250925092565b60006020828403121561100c57600080fd5b813561101781610ec0565b9392505050565b600080600080600080600060e0888a03121561103957600080fd5b873561104481610ec0565b9650602088013561105481610ec0565b95506040880135945060608801359350608088013560ff8116811461107857600080fd5b9699959850939692959460a0840135945060c09093013592915050565b600080604083850312156110a857600080fd5b82356110b381610ec0565b915060208301356110c381610ec0565b809150509250929050565b6020808252818101527f4f776e61626c653a2063616c6c6572206973206e6f7420746865206f776e6572604082015260600190565b634e487b7160e01b600052601160045260246000fd5b8181038181111561049c5761049c611103565b8082018082111561049c5761049c611103565b6000806040838503121561115257600080fd5b505080516020909101519092909150565b60006001820161117557611175611103565b5060010190565b6000845161118e818460208901610e69565b9190910192835250602082015260400191905056feddf252ad1be2c89b69c2b068fc378daa952ba7f163c4a11628f55a4df523b3efa264697066735822122097c3162184eadbe990eb222299fc327ed9f8d0d2e94646f1ac8e25eecc34d75564736f6c63430008180033",
  "linkReferences": {},
  "deployedLinkReferences": {}
}