{
  "_format": "hh-sol-artifact-1",
  "contractName": "FixedPriceOracle",
  "sourceName": "contracts/oracles/FixedPriceOracle.sol",
  "abi": [
    {
      "inputs": [
        {
          "internalType": "string",
          "name": "_desc",
          "type": "string"
        },
        {
          "internalType": "uint256",
          "name": "_price",
          "type": "uint256"
        },
        {
          "internalType": "uint8",
          "name": "_decimals",
          "type": "uint8"
        }
      ],
      "stateMutability": "nonpayable",
      "type": "constructor"
    },
    {
      "anonymous": false,
      "inputs": [
        {
          "indexed": false,
          "internalType": "uint256",
          "name": "price",
          "type": "uint256"
        }
      ],
      "name": "LogPriceChanged",
      "type": "event"
    },
    {
      "anonymous": false,
      "inputs": [
        {
          "indexed": true,
          "internalType": "address",
          "name": "user",
          "type": "address"
        },
        {
          "indexed": true,
          "internalType": "address",
          "name": "newOwner",
          "type": "address"
        }
      ],
      "name": "OwnershipTransferred",
      "type": "event"
    },
    {
      "inputs": [],
      "name": "decimals",
      "outputs": [
        {
          "internalType": "uint8",
          "name": "",
          "type": "uint8"
        }
      ],
      "stateMutability": "view",
      "type": "function"
    },
    {
      "inputs": [],
      "name": "desc",
      "outputs": [
        {
          "internalType": "string",
          "name": "",
          "type": "string"
        }
      ],
      "stateMutability": "view",
      "type": "function"
    },
    {
      "inputs": [
        {
          "internalType": "bytes",
          "name": "",
          "type": "bytes"
        }
      ],
      "name": "get",
      "outputs": [
        {
          "internalType": "bool",
          "name": "",
          "type": "bool"
        },
        {
          "internalType": "uint256",
          "name": "",
          "type": "uint256"
        }
      ],
      "stateMutability": "view",
      "type": "function"
    },
    {
      "inputs": [
        {
          "internalType": "bytes",
          "name": "",
          "type": "bytes"
        }
      ],
      "name": "name",
      "outputs": [
        {
          "internalType": "string",
          "name": "",
          "type": "string"
        }
      ],
      "stateMutability": "view",
      "type": "function"
    },
    {
      "inputs": [],
      "name": "owner",
      "outputs": [
        {
          "internalType": "address",
          "name": "",
          "type": "address"
        }
      ],
      "stateMutability": "view",
      "type": "function"
    },
    {
      "inputs": [
        {
          "internalType": "bytes",
          "name": "",
          "type": "bytes"
        }
      ],
      "name": "peek",
      "outputs": [
        {
          "internalType": "bool",
          "name": "",
          "type": "bool"
        },
        {
          "internalType": "uint256",
          "name": "",
          "type": "uint256"
        }
      ],
      "stateMutability": "view",
      "type": "function"
    },
    {
      "inputs": [
        {
          "internalType": "bytes",
          "name": "data",
          "type": "bytes"
        }
      ],
      "name": "peekSpot",
      "outputs": [
        {
          "internalType": "uint256",
          "name": "rate",
          "type": "uint256"
        }
      ],
      "stateMutability": "view",
      "type": "function"
    },
    {
      "inputs": [],
      "name": "price",
      "outputs": [
        {
          "internalType": "uint256",
          "name": "",
          "type": "uint256"
        }
      ],
      "stateMutability": "view",
      "type": "function"
    },
    {
      "inputs": [
        {
          "internalType": "uint256",
          "name": "_price",
          "type": "uint256"
        }
      ],
      "name": "setPrice",
      "outputs": [],
      "stateMutability": "nonpayable",
      "type": "function"
    },
    {
      "inputs": [
        {
          "internalType": "bytes",
          "name": "",
          "type": "bytes"
        }
      ],
      "name": "symbol",
      "outputs": [
        {
          "internalType": "string",
          "name": "",
          "type": "string"
        }
      ],
      "stateMutability": "view",
      "type": "function"
    },
    {
      "inputs": [
        {
          "internalType": "address",
          "name": "newOwner",
          "type": "address"
        }
      ],
      "name": "transferOwnership",
      "outputs": [],
      "stateMutability": "nonpayable",
      "type": "function"
    }
  ],
  "bytecode": "0x60a060405234801561001057600080fd5b506040516108a43803806108a483398101604081905261002f916100bb565b600080546001600160a01b031916339081178255604051909182917f8be0079c531659141344cd1fd0a4f28419497f9722a3daafe3b4186f6b6457e0908290a350600261007c8482610229565b5060019190915560ff16608052506102e8565b634e487b7160e01b600052604160045260246000fd5b805160ff811681146100b657600080fd5b919050565b6000806000606084860312156100d057600080fd5b83516001600160401b03808211156100e757600080fd5b818601915086601f8301126100fb57600080fd5b81518181111561010d5761010d61008f565b604051601f8201601f19908116603f011681019083821181831017156101355761013561008f565b8160405282815260209350898484870101111561015157600080fd5b600091505b828210156101735784820184015181830185015290830190610156565b60008484830101528097505050508086015193505050610195604085016100a5565b90509250925092565b600181811c908216806101b257607f821691505b6020821081036101d257634e487b7160e01b600052602260045260246000fd5b50919050565b601f821115610224576000816000526020600020601f850160051c810160208610156102015750805b601f850160051c820191505b818110156102205782815560010161020d565b5050505b505050565b81516001600160401b038111156102425761024261008f565b61025681610250845461019e565b846101d8565b602080601f83116001811461028b57600084156102735750858301515b600019600386901b1c1916600185901b178555610220565b600085815260208120601f198616915b828110156102ba5788860151825594840194600190910190840161029b565b50858210156102d85787850151600019600388901b60f8161c191681555b5050505050600190811b01905550565b6080516105a2610302600039600060b301526105a26000f3fe608060405234801561001057600080fd5b50600436106100a95760003560e01c8063c699c4d611610071578063c699c4d614610158578063d39bbef01461016b578063d568866c14610158578063d6d7d5251461017e578063eeb8a8d31461017e578063f2fde38b146101a857600080fd5b8063313ce567146100ae57806355f150f1146100ec5780638da5cb5b1461010157806391b7f5ed1461012c578063a035b1fe14610141575b600080fd5b6100d57f000000000000000000000000000000000000000000000000000000000000000081565b60405160ff90911681526020015b60405180910390f35b6100f46101bb565b6040516100e39190610428565b600054610114906001600160a01b031681565b6040516001600160a01b0390911681526020016100e3565b61013f61013a366004610477565b610249565b005b61014a60015481565b6040519081526020016100e3565b6100f4610166366004610490565b6102d2565b61014a610179366004610490565b610367565b61019161018c366004610490565b61037b565b6040805192151583526020830191909152016100e3565b61013f6101b6366004610502565b610394565b600280546101c890610532565b80601f01602080910402602001604051908101604052809291908181526020018280546101f490610532565b80156102415780601f1061021657610100808354040283529160200191610241565b820191906000526020600020905b81548152906001019060200180831161022457829003601f168201915b505050505081565b6000546001600160a01b031633146102975760405162461bcd60e51b815260206004820152600c60248201526b15539055551213d49256915160a21b60448201526064015b60405180910390fd5b60018190556040518181527f693a60d4f4c0fd261f9652741abdbe7c0ff84599e0b9f1629c9a97e710082e449060200160405180910390a150565b6060600280546102e190610532565b80601f016020809104026020016040519081016040528092919081815260200182805461030d90610532565b801561035a5780601f1061032f5761010080835404028352916020019161035a565b820191906000526020600020905b81548152906001019060200180831161033d57829003601f168201915b5050505050905092915050565b6000610373838361037b565b949350505050565b600080600161038960015490565b915091509250929050565b6000546001600160a01b031633146103dd5760405162461bcd60e51b815260206004820152600c60248201526b15539055551213d49256915160a21b604482015260640161028e565b600080546001600160a01b0319166001600160a01b0383169081178255604051909133917f8be0079c531659141344cd1fd0a4f28419497f9722a3daafe3b4186f6b6457e09190a350565b60006020808352835180602085015260005b818110156104565785810183015185820160400152820161043a565b506000604082860101526040601f19601f8301168501019250505092915050565b60006020828403121561048957600080fd5b5035919050565b600080602083850312156104a357600080fd5b823567ffffffffffffffff808211156104bb57600080fd5b818501915085601f8301126104cf57600080fd5b8135818111156104de57600080fd5b8660208285010111156104f057600080fd5b60209290920196919550909350505050565b60006020828403121561051457600080fd5b81356001600160a01b038116811461052b57600080fd5b9392505050565b600181811c9082168061054657607f821691505b60208210810361056657634e487b7160e01b600052602260045260246000fd5b5091905056fea26469706673582212201e7c71dda03b11001b2ab68885d88a6b73b5595e47f114049e2396e8be8bf42664736f6c63430008180033",
  "linkReferences": {},
  "deployedLinkReferences": {}
}