{
  "_format": "hh-sol-artifact-1",
  "contractName": "MarketLens",
  "sourceName": "contracts/lens/MarketLens.sol",
  "abi": [
    {
      "inputs": [
        {
          "internalType": "contract ICauldronV2",
          "name": "cauldron",
          "type": "address"
        }
      ],
      "name": "getBorrowFee",
      "outputs": [
        {
          "internalType": "uint256",
          "name": "",
          "type": "uint256"
        }
      ],
      "stateMutability": "view",
      "type": "function"
    },
    {
      "inputs": [
        {
          "internalType": "contract ICauldronV2",
          "name": "cauldron",
          "type": "address"
        }
      ],
      "name": "getCollateralPrice",
      "outputs": [
        {
          "internalType": "uint256",
          "name": "",
          "type": "uint256"
        }
      ],
      "stateMutability": "view",
      "type": "function"
    },
    {
      "inputs": [
        {
          "internalType": "contract ICauldronV2",
          "name": "cauldron",
          "type": "address"
        },
        {
          "internalType": "address",
          "name": "account",
          "type": "address"
        },
        {
          "internalType": "bool",
          "name": "isStable",
          "type": "bool"
        }
      ],
      "name": "getHealthFactor",
      "outputs": [
        {
          "internalType": "uint256",
          "name": "",
          "type": "uint256"
        }
      ],
      "stateMutability": "view",
      "type": "function"
    },
    {
      "inputs": [
        {
          "internalType": "contract ICauldronV2",
          "name": "cauldron",
          "type": "address"
        }
      ],
      "name": "getInterestPerYear",
      "outputs": [
        {
          "internalType": "uint64",
          "name": "",
          "type": "uint64"
        }
      ],
      "stateMutability": "view",
      "type": "function"
    },
    {
      "inputs": [
        {
          "internalType": "contract ICauldronV2",
          "name": "cauldron",
          "type": "address"
        }
      ],
      "name": "getLiquidationFee",
      "outputs": [
        {
          "internalType": "uint256",
          "name": "",
          "type": "uint256"
        }
      ],
      "stateMutability": "view",
      "type": "function"
    },
    {
      "inputs": [
        {
          "internalType": "contract ICauldronV2",
          "name": "cauldron",
          "type": "address"
        }
      ],
      "name": "getMarketInfoCauldronV2",
      "outputs": [
        {
          "components": [
            {
              "internalType": "address",
              "name": "cauldron",
              "type": "address"
            },
            {
              "internalType": "uint256",
              "name": "borrowFee",
              "type": "uint256"
            },
            {
              "internalType": "uint256",
              "name": "maximumCollateralRatio",
              "type": "uint256"
            },
            {
              "internalType": "uint256",
              "name": "liquidationFee",
              "type": "uint256"
            },
            {
              "internalType": "uint256",
              "name": "interestPerYear",
              "type": "uint256"
            },
            {
              "internalType": "uint256",
              "name": "marketMaxBorrow",
              "type": "uint256"
            },
            {
              "internalType": "uint256",
              "name": "userMaxBorrow",
              "type": "uint256"
            },
            {
              "internalType": "uint256",
              "name": "totalBorrowed",
              "type": "uint256"
            },
            {
              "internalType": "uint256",
              "name": "oracleExchangeRate",
              "type": "uint256"
            },
            {
              "internalType": "uint256",
              "name": "collateralPrice",
              "type": "uint256"
            },
            {
              "components": [
                {
                  "internalType": "uint256",
                  "name": "amount",
                  "type": "uint256"
                },
                {
                  "internalType": "uint256",
                  "name": "value",
                  "type": "uint256"
                }
              ],
              "internalType": "struct MarketLens.AmountValue",
              "name": "totalCollateral",
              "type": "tuple"
            }
          ],
          "internalType": "struct MarketLens.MarketInfo",
          "name": "",
          "type": "tuple"
        }
      ],
      "stateMutability": "view",
      "type": "function"
    },
    {
      "inputs": [
        {
          "internalType": "contract ICauldronV3",
          "name": "cauldron",
          "type": "address"
        }
      ],
      "name": "getMarketInfoCauldronV3",
      "outputs": [
        {
          "components": [
            {
              "internalType": "address",
              "name": "cauldron",
              "type": "address"
            },
            {
              "internalType": "uint256",
              "name": "borrowFee",
              "type": "uint256"
            },
            {
              "internalType": "uint256",
              "name": "maximumCollateralRatio",
              "type": "uint256"
            },
            {
              "internalType": "uint256",
              "name": "liquidationFee",
              "type": "uint256"
            },
            {
              "internalType": "uint256",
              "name": "interestPerYear",
              "type": "uint256"
            },
            {
              "internalType": "uint256",
              "name": "marketMaxBorrow",
              "type": "uint256"
            },
            {
              "internalType": "uint256",
              "name": "userMaxBorrow",
              "type": "uint256"
            },
            {
              "internalType": "uint256",
              "name": "totalBorrowed",
              "type": "uint256"
            },
            {
              "internalType": "uint256",
              "name": "oracleExchangeRate",
              "type": "uint256"
            },
            {
              "internalType": "uint256",
              "name": "collateralPrice",
              "type": "uint256"
            },
            {
              "components": [
                {
                  "internalType": "uint256",
                  "name": "amount",
                  "type": "uint256"
                },
                {
                  "internalType": "uint256",
                  "name": "value",
                  "type": "uint256"
                }
              ],
              "internalType": "struct MarketLens.AmountValue",
              "name": "totalCollateral",
              "type": "tuple"
            }
          ],
          "internalType": "struct MarketLens.MarketInfo",
          "name": "marketInfo",
          "type": "tuple"
        }
      ],
      "stateMutability": "view",
      "type": "function"
    },
    {
      "inputs": [
        {
          "internalType": "contract ICauldronV2",
          "name": "cauldron",
          "type": "address"
        }
      ],
      "name": "getMaxMarketBorrowForCauldronV2",
      "outputs": [
        {
          "internalType": "uint256",
          "name": "",
          "type": "uint256"
        }
      ],
      "stateMutability": "view",
      "type": "function"
    },
    {
      "inputs": [
        {
          "internalType": "contract ICauldronV3",
          "name": "cauldron",
          "type": "address"
        }
      ],
      "name": "getMaxMarketBorrowForCauldronV3",
      "outputs": [
        {
          "internalType": "uint256",
          "name": "",
          "type": "uint256"
        }
      ],
      "stateMutability": "view",
      "type": "function"
    },
    {
      "inputs": [
        {
          "internalType": "contract ICauldronV2",
          "name": "cauldron",
          "type": "address"
        }
      ],
      "name": "getMaxUserBorrowForCauldronV2",
      "outputs": [
        {
          "internalType": "uint256",
          "name": "",
          "type": "uint256"
        }
      ],
      "stateMutability": "view",
      "type": "function"
    },
    {
      "inputs": [
        {
          "internalType": "contract ICauldronV3",
          "name": "cauldron",
          "type": "address"
        }
      ],
      "name": "getMaxUserBorrowForCauldronV3",
      "outputs": [
        {
          "internalType": "uint256",
          "name": "",
          "type": "uint256"
        }
      ],
      "stateMutability": "view",
      "type": "function"
    },
    {
      "inputs": [
        {
          "internalType": "contract ICauldronV2",
          "name": "cauldron",
          "type": "address"
        }
      ],
      "name": "getMaximumCollateralRatio",
      "outputs": [
        {
          "internalType": "uint256",
          "name": "",
          "type": "uint256"
        }
      ],
      "stateMutability": "view",
      "type": "function"
    },
    {
      "inputs": [
        {
          "internalType": "contract ICauldronV2",
          "name": "cauldron",
          "type": "address"
        }
      ],
      "name": "getOracleExchangeRate",
      "outputs": [
        {
          "internalType": "uint256",
          "name": "",
          "type": "uint256"
        }
      ],
      "stateMutability": "view",
      "type": "function"
    },
    {
      "inputs": [
        {
          "internalType": "contract IBentoBoxV1",
          "name": "bentoBox",
          "type": "address"
        },
        {
          "internalType": "contract IERC20",
          "name": "token",
          "type": "address"
        },
        {
          "internalType": "address",
          "name": "account",
          "type": "address"
        }
      ],
      "name": "getTokenInBentoBox",
      "outputs": [
        {
          "internalType": "uint256",
          "name": "share",
          "type": "uint256"
        },
        {
          "internalType": "uint256",
          "name": "amount",
          "type": "uint256"
        }
      ],
      "stateMutability": "view",
      "type": "function"
    },
    {
      "inputs": [
        {
          "internalType": "contract ICauldronV2",
          "name": "cauldron",
          "type": "address"
        }
      ],
      "name": "getTotalBorrowed",
      "outputs": [
        {
          "internalType": "uint256",
          "name": "",
          "type": "uint256"
        }
      ],
      "stateMutability": "view",
      "type": "function"
    },
    {
      "inputs": [
        {
          "internalType": "contract ICauldronV2",
          "name": "cauldron",
          "type": "address"
        }
      ],
      "name": "getTotalCollateral",
      "outputs": [
        {
          "components": [
            {
              "internalType": "uint256",
              "name": "amount",
              "type": "uint256"
            },
            {
              "internalType": "uint256",
              "name": "value",
              "type": "uint256"
            }
          ],
          "internalType": "struct MarketLens.AmountValue",
          "name": "",
          "type": "tuple"
        }
      ],
      "stateMutability": "view",
      "type": "function"
    },
    {
      "inputs": [
        {
          "internalType": "contract ICauldronV2",
          "name": "cauldron",
          "type": "address"
        },
        {
          "internalType": "address",
          "name": "account",
          "type": "address"
        }
      ],
      "name": "getUserBorrow",
      "outputs": [
        {
          "internalType": "uint256",
          "name": "",
          "type": "uint256"
        }
      ],
      "stateMutability": "view",
      "type": "function"
    },
    {
      "inputs": [
        {
          "internalType": "contract ICauldronV2",
          "name": "cauldron",
          "type": "address"
        },
        {
          "internalType": "address",
          "name": "account",
          "type": "address"
        }
      ],
      "name": "getUserCollateral",
      "outputs": [
        {
          "components": [
            {
              "internalType": "uint256",
              "name": "amount",
              "type": "uint256"
            },
            {
              "internalType": "uint256",
              "name": "value",
              "type": "uint256"
            }
          ],
          "internalType": "struct MarketLens.AmountValue",
          "name": "",
          "type": "tuple"
        }
      ],
      "stateMutability": "view",
      "type": "function"
    },
    {
      "inputs": [
        {
          "internalType": "contract ICauldronV2",
          "name": "cauldron",
          "type": "address"
        },
        {
          "internalType": "address",
          "name": "account",
          "type": "address"
        }
      ],
      "name": "getUserLiquidationPrice",
      "outputs": [
        {
          "internalType": "uint256",
          "name": "liquidationPrice",
          "type": "uint256"
        }
      ],
      "stateMutability": "view",
      "type": "function"
    },
    {
      "inputs": [
        {
          "internalType": "contract ICauldronV2",
          "name": "cauldron",
          "type": "address"
        },
        {
          "internalType": "address",
          "name": "account",
          "type": "address"
        }
      ],
      "name": "getUserLtv",
      "outputs": [
        {
          "internalType": "uint256",
          "name": "ltvBps",
          "type": "uint256"
        }
      ],
      "stateMutability": "view",
      "type": "function"
    },
    {
      "inputs": [
        {
          "internalType": "contract ICauldronV2",
          "name": "cauldron",
          "type": "address"
        },
        {
          "internalType": "address",
          "name": "account",
          "type": "address"
        }
      ],
      "name": "getUserMaxBorrow",
      "outputs": [
        {
          "internalType": "uint256",
          "name": "",
          "type": "uint256"
        }
      ],
      "stateMutability": "view",
      "type": "function"
    },
    {
      "inputs": [
        {
          "internalType": "contract ICauldronV2",
          "name": "cauldron",
          "type": "address"
        },
        {
          "internalType": "address",
          "name": "account",
          "type": "address"
        }
      ],
      "name": "getUserPosition",
      "outputs": [
        {
          "components": [
            {
              "internalType": "address",
              "name": "cauldron",
              "type": "address"
            },
            {
              "internalType": "address",
              "name": "account",
              "type": "address"
            },
            {
              "internalType": "uint256",
              "name": "ltvBps",
              "type": "uint256"
            },
            {
              "internalType": "uint256",
              "name": "healthFactor",
              "type": "uint256"
            },
            {
              "internalType": "uint256",
              "name": "borrowValue",
              "type": "uint256"
            },
            {
              "components": [
                {
                  "internalType": "uint256",
                  "name": "amount",
                  "type": "uint256"
                },
                {
                  "internalType": "uint256",
                  "name": "value",
                  "type": "uint256"
                }
              ],
              "internalType": "struct MarketLens.AmountValue",
              "name": "collateral",
              "type": "tuple"
            },
            {
              "internalType": "uint256",
              "name": "liquidationPrice",
              "type": "uint256"
            }
          ],
          "internalType": "struct MarketLens.UserPosition",
          "name": "",
          "type": "tuple"
        }
      ],
      "stateMutability": "view",
      "type": "function"
    },
    {
      "inputs": [
        {
          "internalType": "contract ICauldronV2",
          "name": "cauldron",
          "type": "address"
        },
        {
          "internalType": "address[]",
          "name": "accounts",
          "type": "address[]"
        }
      ],
      "name": "getUserPositions",
      "outputs": [
        {
          "components": [
            {
              "internalType": "address",
              "name": "cauldron",
              "type": "address"
            },
            {
              "internalType": "address",
              "name": "account",
              "type": "address"
            },
            {
              "internalType": "uint256",
              "name": "ltvBps",
              "type": "uint256"
            },
            {
              "internalType": "uint256",
              "name": "healthFactor",
              "type": "uint256"
            },
            {
              "internalType": "uint256",
              "name": "borrowValue",
              "type": "uint256"
            },
            {
              "components": [
                {
                  "internalType": "uint256",
                  "name": "amount",
                  "type": "uint256"
                },
                {
                  "internalType": "uint256",
                  "name": "value",
                  "type": "uint256"
                }
              ],
              "internalType": "struct MarketLens.AmountValue",
              "name": "collateral",
              "type": "tuple"
            },
            {
              "internalType": "uint256",
              "name": "liquidationPrice",
              "type": "uint256"
            }
          ],
          "internalType": "struct MarketLens.UserPosition[]",
          "name": "positions",
          "type": "tuple[]"
        }
      ],
      "stateMutability": "view",
      "type": "function"
    }
  ],
  "bytecode": "0x608060405234801561001057600080fd5b506120b2806100206000396000f3fe608060405234801561001057600080fd5b506004361061014d5760003560e01c806392a576e6116100c3578063cdb596441161007c578063cdb59644146102d5578063d33a2491146102e8578063d9630993146102fb578063dc6f1caa1461030e578063ee3b1eb914610336578063f79a987a1461035657600080fd5b806392a576e61461025c5780639406aea11461027c578063945ebb911461028f578063a55e8668146102a2578063bbd1b02814610210578063c1cd378f146102b557600080fd5b806360a98b801161011557806360a98b80146101dd57806361acf8d5146101fd57806366e3a4541461021057806373d0456014610223578063842126351461023657806387426a841461024957600080fd5b80631e713a37146101525780633548ada014610178578063397938dd146101a457806342d3fd08146101b757806351a40994146101ca575b600080fd5b61016561016036600461190d565b610369565b6040519081526020015b60405180910390f35b61018b610186366004611946565b610382565b60405167ffffffffffffffff909116815260200161016f565b6101656101b2366004611963565b6103fb565b6101656101c536600461190d565b61042e565b6101656101d8366004611946565b610446565b6101f06101eb366004611946565b610457565b60405161016f91906119b3565b61016561020b366004611946565b61064a565b61016561021e366004611946565b6106d9565b610165610231366004611946565b6106e4565b610165610244366004611946565b610781565b610165610257366004611946565b61079c565b61026f61026a36600461190d565b61081b565b60405161016f9190611a2c565b61016561028a366004611946565b6108a9565b61016561029d366004611946565b6108b4565b6101f06102b036600461190d565b6109cd565b6102c86102c3366004611946565b610a09565b60405161016f9190611a3b565b6101656102e336600461190d565b610ac5565b6101656102f636600461190d565b610ad1565b6102c8610309366004611946565b610b0a565b61032161031c366004611ad0565b610b3e565b6040805192835260208301919091520161016f565b610349610344366004611b10565b610c33565b60405161016f9190611b98565b610165610364366004611946565b610ced565b60006103758383610d34565b5093979650505050505050565b600080826001600160a01b031663b27c0e746040518163ffffffff1660e01b8152600401606060405180830381865afa1580156103c3573d6000803e3d6000fd5b505050506040513d601f19601f820116820180604052508101906103e79190611c1b565b925050506103f481610f06565b9392505050565b6000806104088585610d34565b505050509150508261041a5780610425565b61042581600a611c74565b95945050505050565b600061043a8383610d34565b50979650505050505050565b600061045182610f22565b92915050565b60408051808201909152600080825260208201526000826001600160a01b0316636b2ace876040518163ffffffff1660e01b8152600401602060405180830381865afa1580156104ab573d6000803e3d6000fd5b505050506040513d601f19601f820116820180604052508101906104cf9190611c8b565b90506000816001600160a01b03166356623118856001600160a01b031663d8dfeb456040518163ffffffff1660e01b8152600401602060405180830381865afa158015610520573d6000803e3d6000fd5b505050506040513d601f19601f820116820180604052508101906105449190611c8b565b866001600160a01b031663473e3ce76040518163ffffffff1660e01b8152600401602060405180830381865afa158015610582573d6000803e3d6000fd5b505050506040513d601f19601f820116820180604052508101906105a69190611ca8565b60006040518463ffffffff1660e01b81526004016105c693929190611cc1565b602060405180830381865afa1580156105e3573d6000803e3d6000fd5b505050506040513d601f19601f820116820180604052508101906106079190611ca8565b90506000610614856108a9565b610626670de0b6b3a764000084611c74565b6106309190611cfa565b604080518082019091529283526020830152509392505050565b600080620186a0836001600160a01b0316636ec097fb6040518163ffffffff1660e01b8152600401602060405180830381865afa15801561068f573d6000803e3d6000fd5b505050506040513d601f19601f820116820180604052508101906106b39190611ca8565b6106bd9190611d0e565b9050620186a06106cf61271083611c74565b6103f49190611cfa565b600061045182610fbd565b600080826001600160a01b031663e551d11d6040518163ffffffff1660e01b81526004016040805180830381865afa158015610724573d6000803e3d6000fd5b505050506040513d601f19601f820116820180604052508101906107489190611d21565b506001600160801b03169050600061075f84610fbd565b905060006107758361077087610781565b611175565b9050610425828261118f565b600061078c826111a5565b516001600160801b031692915050565b6000620186a0612710836001600160a01b031663aba024f46040518163ffffffff1660e01b8152600401602060405180830381865afa1580156107e3573d6000803e3d6000fd5b505050506040513d601f19601f820116820180604052508101906108079190611ca8565b6108119190611c74565b6104519190611cfa565b61082361180e565b6000806000806000806108368989610d34565b9550955095509550955095506040518060e001604052808a6001600160a01b03168152602001896001600160a01b03168152602001878152602001868152602001858152602001604051806040016040528084815260200186815250815260200183815250965050505050505092915050565b600061045182611321565b6000806000836001600160a01b031663e551d11d6040518163ffffffff1660e01b81526004016040805180830381865afa1580156108f6573d6000803e3d6000fd5b505050506040513d601f19601f8201168201806040525081019061091a9190611d21565b604080516003808252608082019092526001600160801b0393841695509190921692506000916020820160608036833701905050905061095985610fbd565b8160008151811061096c5761096c611d6a565b6020026020010181815250506109858361077087610781565b8160018151811061099857610998611d6a565b60200260200101818152505081816002815181106109b8576109b8611d6a565b60200260200101818152505061042581611460565b60408051808201909152600080825260208201526000806109ee85856114dd565b60408051808201909152918252602082015295945050505050565b610a11611878565b604051806101600160405280836001600160a01b03168152602001610a358461079c565b8152602001610a4384610ced565b8152602001610a518461064a565b8152602001610a5f84610382565b67ffffffffffffffff168152602001610a77846106d9565b8152602001610a85846106d9565b8152602001610a9384610781565b8152602001610aa1846108a9565b8152602001610aaf84610446565b8152602001610abd84610457565b905292915050565b60006103f483836116bb565b600080610ade84846114dd565b915050620186a0610aee85610ced565b610af89083611c74565b610b029190611cfa565b949350505050565b610b12611878565b610b1b82610a09565b9050610b26826106e4565b60a0820152610b34826108b4565b60c0820152919050565b604051633de222bb60e21b81526001600160a01b0383811660048301528281166024830152600091829186169063f7888aec90604401602060405180830381865afa158015610b91573d6000803e3d6000fd5b505050506040513d601f19601f82011682018060405250810190610bb59190611ca8565b604051630acc462360e31b81526001600160a01b03871690635662311890610be69088908790600090600401611cc1565b602060405180830381865afa158015610c03573d6000803e3d6000fd5b505050506040513d601f19601f82011682018060405250810190610c279190611ca8565b91509150935093915050565b60608167ffffffffffffffff811115610c4e57610c4e611d54565b604051908082528060200260200182016040528015610c8757816020015b610c7461180e565b815260200190600190039081610c6c5790505b50905060005b82811015610ce557610cc085858584818110610cab57610cab611d6a565b905060200201602081019061026a9190611946565b828281518110610cd257610cd2611d6a565b6020908102919091010152600101610c8d565b509392505050565b6000620186a0612710836001600160a01b031663c7ee2a7b6040518163ffffffff1660e01b8152600401602060405180830381865afa1580156107e3573d6000803e3d6000fd5b600080600080600080610d4788886114dd565b93509050610d5588886116bb565b93508215610efc5782610d6a61271086611c74565b610d749190611cfa565b95506000886001600160a01b031663c7ee2a7b6040518163ffffffff1660e01b8152600401602060405180830381865afa158015610db6573d6000803e3d6000fd5b505050506040513d601f19601f82011682018060405250810190610dda9190611ca8565b90506000896001600160a01b031663d8dfeb456040518163ffffffff1660e01b8152600401602060405180830381865afa158015610e1c573d6000803e3d6000fd5b505050506040513d601f19601f82011682018060405250810190610e409190611c8b565b90506000610e56826001600160a01b0316611756565b610e6190600a611e64565b9050670de0b6b3a76400008484610e79600285611e64565b610e83908b611c74565b610e9090620186a0611c74565b610e9a9190611cfa565b610ea49190611cfa565b610eae9190611cfa565b9450610ef6670de0b6b3a7640000610ec7600284611e64565b610ed08e611321565b610ee289670de0b6b3a7640000611c74565b610eec9190611c74565b6107709190611cfa565b97505050505b9295509295509295565b60006312e337ee610f18836064611e73565b6104519190611e97565b600080826001600160a01b031663d8dfeb456040518163ffffffff1660e01b8152600401602060405180830381865afa158015610f63573d6000803e3d6000fd5b505050506040513d601f19601f82011682018060405250810190610f879190611c8b565b90506000610f9d826001600160a01b0316611756565b610fa890600a611e64565b9050610fb384611321565b610af88280611c74565b600080826001600160a01b0316636b2ace876040518163ffffffff1660e01b8152600401602060405180830381865afa158015610ffe573d6000803e3d6000fd5b505050506040513d601f19601f820116820180604052508101906110229190611c8b565b90506000836001600160a01b0316639b352ae16040518163ffffffff1660e01b8152600401602060405180830381865afa158015611064573d6000803e3d6000fd5b505050506040513d601f19601f820116820180604052508101906110889190611c8b565b604051633de222bb60e21b81526001600160a01b038083166004830152868116602483015291925060009184169063f7888aec90604401602060405180830381865afa1580156110dc573d6000803e3d6000fd5b505050506040513d601f19601f820116820180604052508101906111009190611ca8565b604051630acc462360e31b81529091506001600160a01b038416906356623118906111349085908590600090600401611cc1565b602060405180830381865afa158015611151573d6000803e3d6000fd5b505050506040513d601f19601f820116820180604052508101906104259190611ca8565b60008183116111855760006103f4565b6103f48284611d0e565b600081831061119e57816103f4565b5090919050565b6040805180820190915260008082526020820152816001600160a01b0316638285ef406040518163ffffffff1660e01b81526004016040805180830381865afa1580156111f6573d6000803e3d6000fd5b505050506040513d601f19601f8201168201806040525081019061121a9190611ebe565b9050600080836001600160a01b031663b27c0e746040518163ffffffff1660e01b8152600401606060405180830381865afa15801561125d573d6000803e3d6000fd5b505050506040513d601f19601f820116820180604052508101906112819190611c1b565b925050915060008267ffffffffffffffff164261129e9190611d0e565b905080158015906112bb575060208401516001600160801b031615155b1561131957670de0b6b3a7640000818367ffffffffffffffff1686600001516001600160801b03166112ed9190611c74565b6112f79190611c74565b6113019190611cfa565b845161130d9190611f19565b6001600160801b031684525b505050919050565b600080826001600160a01b0316637dc0d1d06040518163ffffffff1660e01b8152600401602060405180830381865afa158015611362573d6000803e3d6000fd5b505050506040513d601f19601f820116820180604052508101906113869190611c8b565b90506000836001600160a01b03166374645ff36040518163ffffffff1660e01b8152600401600060405180830381865afa1580156113c8573d6000803e3d6000fd5b505050506040513d6000823e601f3d908101601f191682016040526113f09190810190611f5d565b604051630d39bbef60e41b81529091506001600160a01b0383169063d39bbef09061141f90849060040161200a565b602060405180830381865afa15801561143c573d6000803e3d6000fd5b505050506040513d601f19601f82011682018060405250810190610b029190611ca8565b6000808260008151811061147657611476611d6a565b602002602001015190506000600190505b83518110156114d657818482815181106114a3576114a3611d6a565b602002602001015110156114ce578381815181106114c3576114c3611d6a565b602002602001015191505b600101611487565b5092915050565b6000806000846001600160a01b0316636b2ace876040518163ffffffff1660e01b8152600401602060405180830381865afa158015611520573d6000803e3d6000fd5b505050506040513d601f19601f820116820180604052508101906115449190611c8b565b604051631c9e379b60e01b81526001600160a01b038681166004830152919250600091871690631c9e379b90602401602060405180830381865afa158015611590573d6000803e3d6000fd5b505050506040513d601f19601f820116820180604052508101906115b49190611ca8565b9050816001600160a01b03166356623118876001600160a01b031663d8dfeb456040518163ffffffff1660e01b8152600401602060405180830381865afa158015611603573d6000803e3d6000fd5b505050506040513d601f19601f820116820180604052508101906116279190611c8b565b8360006040518463ffffffff1660e01b815260040161164893929190611cc1565b602060405180830381865afa158015611665573d6000803e3d6000fd5b505050506040513d601f19601f820116820180604052508101906116899190611ca8565b935061169486611321565b6116a6670de0b6b3a764000086611c74565b6116b09190611cfa565b925050509250929050565b6000806116c7846111a5565b602081015181516040516324720b1f60e11b81526001600160a01b0387811660048301529394506001600160801b039283169392909116918716906348e4163e90602401602060405180830381865afa158015611728573d6000803e3d6000fd5b505050506040513d601f19601f8201168201806040525081019061174c9190611ca8565b610af89190611c74565b60408051600481526024810182526020810180516001600160e01b031663313ce56760e01b1790529051600091829182916001600160a01b0386169161179c919061203d565b600060405180830381855afa9150503d80600081146117d7576040519150601f19603f3d011682016040523d82523d6000602084013e6117dc565b606091505b50915091508180156117ef575080516020145b6117fa576012610b02565b80806020019051810190610b029190612059565b6040518060e0016040528060006001600160a01b0316815260200160006001600160a01b0316815260200160008152602001600081526020016000815260200161186b604051806040016040528060008152602001600081525090565b8152602001600081525090565b60405180610160016040528060006001600160a01b031681526020016000815260200160008152602001600081526020016000815260200160008152602001600081526020016000815260200160008152602001600081526020016118f0604051806040016040528060008152602001600081525090565b905290565b6001600160a01b038116811461190a57600080fd5b50565b6000806040838503121561192057600080fd5b823561192b816118f5565b9150602083013561193b816118f5565b809150509250929050565b60006020828403121561195857600080fd5b81356103f4816118f5565b60008060006060848603121561197857600080fd5b8335611983816118f5565b92506020840135611993816118f5565b9150604084013580151581146119a857600080fd5b809150509250925092565b815181526020808301519082015260408101610451565b60018060a01b038082511683528060208301511660208401525060408101516040830152606081015160608301526080810151608083015260a0810151611a1e60a084018280518252602090810151910152565b5060c0015160e09190910152565b610100810161045182846119ca565b81516001600160a01b0316815261018081016020830151602083015260408301516040830152606083015160608301526080830151608083015260a083015160a083015260c083015160c083015260e083015160e083015261010080840151818401525061012080840151818401525061014080840151611ac88285018280518252602090810151910152565b505092915050565b600080600060608486031215611ae557600080fd5b8335611af0816118f5565b92506020840135611b00816118f5565b915060408401356119a8816118f5565b600080600060408486031215611b2557600080fd5b8335611b30816118f5565b9250602084013567ffffffffffffffff80821115611b4d57600080fd5b818601915086601f830112611b6157600080fd5b813581811115611b7057600080fd5b8760208260051b8501011115611b8557600080fd5b6020830194508093505050509250925092565b6020808252825182820181905260009190848201906040850190845b81811015611bdb57611bc78385516119ca565b928401926101009290920191600101611bb4565b50909695505050505050565b805167ffffffffffffffff81168114611bff57600080fd5b919050565b80516001600160801b0381168114611bff57600080fd5b600080600060608486031215611c3057600080fd5b611c3984611be7565b9250611c4760208501611c04565b9150611c5560408501611be7565b90509250925092565b634e487b7160e01b600052601160045260246000fd5b808202811582820484141761045157610451611c5e565b600060208284031215611c9d57600080fd5b81516103f4816118f5565b600060208284031215611cba57600080fd5b5051919050565b6001600160a01b0393909316835260208301919091521515604082015260600190565b634e487b7160e01b600052601260045260246000fd5b600082611d0957611d09611ce4565b500490565b8181038181111561045157610451611c5e565b60008060408385031215611d3457600080fd5b611d3d83611c04565b9150611d4b60208401611c04565b90509250929050565b634e487b7160e01b600052604160045260246000fd5b634e487b7160e01b600052603260045260246000fd5b600181815b80851115611dbb578160001904821115611da157611da1611c5e565b80851615611dae57918102915b93841c9390800290611d85565b509250929050565b600082611dd257506001610451565b81611ddf57506000610451565b8160018114611df55760028114611dff57611e1b565b6001915050610451565b60ff841115611e1057611e10611c5e565b50506001821b610451565b5060208310610133831016604e8410600b8410161715611e3e575081810a610451565b611e488383611d80565b8060001904821115611e5c57611e5c611c5e565b029392505050565b60006103f460ff841683611dc3565b67ffffffffffffffff818116838216028082169190828114611ac857611ac8611c5e565b600067ffffffffffffffff80841680611eb257611eb2611ce4565b92169190910492915050565b600060408284031215611ed057600080fd5b6040516040810181811067ffffffffffffffff82111715611ef357611ef3611d54565b604052611eff83611c04565b8152611f0d60208401611c04565b60208201529392505050565b6001600160801b038181168382160190808211156114d6576114d6611c5e565b60005b83811015611f54578181015183820152602001611f3c565b50506000910152565b600060208284031215611f6f57600080fd5b815167ffffffffffffffff80821115611f8757600080fd5b818401915084601f830112611f9b57600080fd5b815181811115611fad57611fad611d54565b604051601f8201601f19908116603f01168101908382118183101715611fd557611fd5611d54565b81604052828152876020848701011115611fee57600080fd5b611fff836020830160208801611f39565b979650505050505050565b6020815260008251806020840152612029816040850160208701611f39565b601f01601f19169190910160400192915050565b6000825161204f818460208701611f39565b9190910192915050565b60006020828403121561206b57600080fd5b815160ff811681146103f457600080fdfea26469706673582212203cedd076f2bf4378cff17a0c48770ccbffc846be94527b71681aeacf897d963a64736f6c63430008180033",
  "linkReferences": {},
  "deployedLinkReferences": {}
}