{
  "_format": "hh-sol-artifact-1",
  "contractName": "AxelarGateway",
  "sourceName": "contracts/axelar/AxelarGateway.sol",
  "abi": [
    {
      "inputs": [
        {
          "internalType": "address",
          "name": "authModule_",
          "type": "address"
        },
        {
          "internalType": "address",
          "name": "tokenDeployer_",
          "type": "address"
        }
      ],
      "stateMutability": "nonpayable",
      "type": "constructor"
    },
    {
      "inputs": [
        {
          "internalType": "string",
          "name": "symbol",
          "type": "string"
        }
      ],
      "name": "BurnFailed",
      "type": "error"
    },
    {
      "inputs": [
        {
          "internalType": "string",
          "name": "symbol",
          "type": "string"
        }
      ],
      "name": "ExceedMintLimit",
      "type": "error"
    },
    {
      "inputs": [],
      "name": "InvalidAmount",
      "type": "error"
    },
    {
      "inputs": [],
      "name": "InvalidAuthModule",
      "type": "error"
    },
    {
      "inputs": [],
      "name": "InvalidChainId",
      "type": "error"
    },
    {
      "inputs": [],
      "name": "InvalidCodeHash",
      "type": "error"
    },
    {
      "inputs": [],
      "name": "InvalidCommands",
      "type": "error"
    },
    {
      "inputs": [],
      "name": "InvalidGovernance",
      "type": "error"
    },
    {
      "inputs": [],
      "name": "InvalidImplementation",
      "type": "error"
    },
    {
      "inputs": [],
      "name": "InvalidMintLimiter",
      "type": "error"
    },
    {
      "inputs": [],
      "name": "InvalidSetMintLimitsParams",
      "type": "error"
    },
    {
      "inputs": [],
      "name": "InvalidTokenDeployer",
      "type": "error"
    },
    {
      "inputs": [
        {
          "internalType": "string",
          "name": "symbol",
          "type": "string"
        }
      ],
      "name": "MintFailed",
      "type": "error"
    },
    {
      "inputs": [],
      "name": "NotGovernance",
      "type": "error"
    },
    {
      "inputs": [],
      "name": "NotMintLimiter",
      "type": "error"
    },
    {
      "inputs": [],
      "name": "NotProxy",
      "type": "error"
    },
    {
      "inputs": [],
      "name": "NotSelf",
      "type": "error"
    },
    {
      "inputs": [],
      "name": "SetupFailed",
      "type": "error"
    },
    {
      "inputs": [
        {
          "internalType": "string",
          "name": "symbol",
          "type": "string"
        }
      ],
      "name": "TokenAlreadyExists",
      "type": "error"
    },
    {
      "inputs": [
        {
          "internalType": "address",
          "name": "token",
          "type": "address"
        }
      ],
      "name": "TokenContractDoesNotExist",
      "type": "error"
    },
    {
      "inputs": [
        {
          "internalType": "string",
          "name": "symbol",
          "type": "string"
        }
      ],
      "name": "TokenDeployFailed",
      "type": "error"
    },
    {
      "inputs": [
        {
          "internalType": "string",
          "name": "symbol",
          "type": "string"
        }
      ],
      "name": "TokenDoesNotExist",
      "type": "error"
    },
    {
      "inputs": [],
      "name": "TokenTransferFailed",
      "type": "error"
    },
    {
      "anonymous": false,
      "inputs": [
        {
          "indexed": true,
          "internalType": "address",
          "name": "sender",
          "type": "address"
        },
        {
          "indexed": false,
          "internalType": "string",
          "name": "destinationChain",
          "type": "string"
        },
        {
          "indexed": false,
          "internalType": "string",
          "name": "destinationContractAddress",
          "type": "string"
        },
        {
          "indexed": true,
          "internalType": "bytes32",
          "name": "payloadHash",
          "type": "bytes32"
        },
        {
          "indexed": false,
          "internalType": "bytes",
          "name": "payload",
          "type": "bytes"
        }
      ],
      "name": "ContractCall",
      "type": "event"
    },
    {
      "anonymous": false,
      "inputs": [
        {
          "indexed": true,
          "internalType": "bytes32",
          "name": "commandId",
          "type": "bytes32"
        },
        {
          "indexed": false,
          "internalType": "string",
          "name": "sourceChain",
          "type": "string"
        },
        {
          "indexed": false,
          "internalType": "string",
          "name": "sourceAddress",
          "type": "string"
        },
        {
          "indexed": true,
          "internalType": "address",
          "name": "contractAddress",
          "type": "address"
        },
        {
          "indexed": true,
          "internalType": "bytes32",
          "name": "payloadHash",
          "type": "bytes32"
        },
        {
          "indexed": false,
          "internalType": "bytes32",
          "name": "sourceTxHash",
          "type": "bytes32"
        },
        {
          "indexed": false,
          "internalType": "uint256",
          "name": "sourceEventIndex",
          "type": "uint256"
        }
      ],
      "name": "ContractCallApproved",
      "type": "event"
    },
    {
      "anonymous": false,
      "inputs": [
        {
          "indexed": true,
          "internalType": "bytes32",
          "name": "commandId",
          "type": "bytes32"
        },
        {
          "indexed": false,
          "internalType": "string",
          "name": "sourceChain",
          "type": "string"
        },
        {
          "indexed": false,
          "internalType": "string",
          "name": "sourceAddress",
          "type": "string"
        },
        {
          "indexed": true,
          "internalType": "address",
          "name": "contractAddress",
          "type": "address"
        },
        {
          "indexed": true,
          "internalType": "bytes32",
          "name": "payloadHash",
          "type": "bytes32"
        },
        {
          "indexed": false,
          "internalType": "string",
          "name": "symbol",
          "type": "string"
        },
        {
          "indexed": false,
          "internalType": "uint256",
          "name": "amount",
          "type": "uint256"
        },
        {
          "indexed": false,
          "internalType": "bytes32",
          "name": "sourceTxHash",
          "type": "bytes32"
        },
        {
          "indexed": false,
          "internalType": "uint256",
          "name": "sourceEventIndex",
          "type": "uint256"
        }
      ],
      "name": "ContractCallApprovedWithMint",
      "type": "event"
    },
    {
      "anonymous": false,
      "inputs": [
        {
          "indexed": true,
          "internalType": "bytes32",
          "name": "commandId",
          "type": "bytes32"
        }
      ],
      "name": "ContractCallExecuted",
      "type": "event"
    },
    {
      "anonymous": false,
      "inputs": [
        {
          "indexed": true,
          "internalType": "address",
          "name": "sender",
          "type": "address"
        },
        {
          "indexed": false,
          "internalType": "string",
          "name": "destinationChain",
          "type": "string"
        },
        {
          "indexed": false,
          "internalType": "string",
          "name": "destinationContractAddress",
          "type": "string"
        },
        {
          "indexed": true,
          "internalType": "bytes32",
          "name": "payloadHash",
          "type": "bytes32"
        },
        {
          "indexed": false,
          "internalType": "bytes",
          "name": "payload",
          "type": "bytes"
        },
        {
          "indexed": false,
          "internalType": "string",
          "name": "symbol",
          "type": "string"
        },
        {
          "indexed": false,
          "internalType": "uint256",
          "name": "amount",
          "type": "uint256"
        }
      ],
      "name": "ContractCallWithToken",
      "type": "event"
    },
    {
      "anonymous": false,
      "inputs": [
        {
          "indexed": true,
          "internalType": "bytes32",
          "name": "commandId",
          "type": "bytes32"
        }
      ],
      "name": "Executed",
      "type": "event"
    },
    {
      "anonymous": false,
      "inputs": [
        {
          "indexed": true,
          "internalType": "address",
          "name": "previousGovernance",
          "type": "address"
        },
        {
          "indexed": true,
          "internalType": "address",
          "name": "newGovernance",
          "type": "address"
        }
      ],
      "name": "GovernanceTransferred",
      "type": "event"
    },
    {
      "anonymous": false,
      "inputs": [
        {
          "indexed": true,
          "internalType": "address",
          "name": "previousGovernance",
          "type": "address"
        },
        {
          "indexed": true,
          "internalType": "address",
          "name": "newGovernance",
          "type": "address"
        }
      ],
      "name": "MintLimiterTransferred",
      "type": "event"
    },
    {
      "anonymous": false,
      "inputs": [
        {
          "indexed": false,
          "internalType": "bytes",
          "name": "newOperatorsData",
          "type": "bytes"
        }
      ],
      "name": "OperatorshipTransferred",
      "type": "event"
    },
    {
      "anonymous": false,
      "inputs": [
        {
          "indexed": false,
          "internalType": "string",
          "name": "symbol",
          "type": "string"
        },
        {
          "indexed": false,
          "internalType": "address",
          "name": "tokenAddresses",
          "type": "address"
        }
      ],
      "name": "TokenDeployed",
      "type": "event"
    },
    {
      "anonymous": false,
      "inputs": [
        {
          "indexed": false,
          "internalType": "string",
          "name": "symbol",
          "type": "string"
        },
        {
          "indexed": false,
          "internalType": "uint256",
          "name": "limit",
          "type": "uint256"
        }
      ],
      "name": "TokenMintLimitUpdated",
      "type": "event"
    },
    {
      "anonymous": false,
      "inputs": [
        {
          "indexed": true,
          "internalType": "address",
          "name": "sender",
          "type": "address"
        },
        {
          "indexed": false,
          "internalType": "string",
          "name": "destinationChain",
          "type": "string"
        },
        {
          "indexed": false,
          "internalType": "string",
          "name": "destinationAddress",
          "type": "string"
        },
        {
          "indexed": false,
          "internalType": "string",
          "name": "symbol",
          "type": "string"
        },
        {
          "indexed": false,
          "internalType": "uint256",
          "name": "amount",
          "type": "uint256"
        }
      ],
      "name": "TokenSent",
      "type": "event"
    },
    {
      "anonymous": false,
      "inputs": [
        {
          "indexed": true,
          "internalType": "address",
          "name": "implementation",
          "type": "address"
        }
      ],
      "name": "Upgraded",
      "type": "event"
    },
    {
      "inputs": [],
      "name": "allTokensFrozen",
      "outputs": [
        {
          "internalType": "bool",
          "name": "",
          "type": "bool"
        }
      ],
      "stateMutability": "pure",
      "type": "function"
    },
    {
      "inputs": [
        {
          "internalType": "bytes",
          "name": "params",
          "type": "bytes"
        },
        {
          "internalType": "bytes32",
          "name": "commandId",
          "type": "bytes32"
        }
      ],
      "name": "approveContractCall",
      "outputs": [],
      "stateMutability": "nonpayable",
      "type": "function"
    },
    {
      "inputs": [
        {
          "internalType": "bytes",
          "name": "params",
          "type": "bytes"
        },
        {
          "internalType": "bytes32",
          "name": "commandId",
          "type": "bytes32"
        }
      ],
      "name": "approveContractCallWithMint",
      "outputs": [],
      "stateMutability": "nonpayable",
      "type": "function"
    },
    {
      "inputs": [],
      "name": "authModule",
      "outputs": [
        {
          "internalType": "address",
          "name": "",
          "type": "address"
        }
      ],
      "stateMutability": "view",
      "type": "function"
    },
    {
      "inputs": [
        {
          "internalType": "bytes",
          "name": "params",
          "type": "bytes"
        },
        {
          "internalType": "bytes32",
          "name": "",
          "type": "bytes32"
        }
      ],
      "name": "burnToken",
      "outputs": [],
      "stateMutability": "nonpayable",
      "type": "function"
    },
    {
      "inputs": [
        {
          "internalType": "string",
          "name": "destinationChain",
          "type": "string"
        },
        {
          "internalType": "string",
          "name": "destinationContractAddress",
          "type": "string"
        },
        {
          "internalType": "bytes",
          "name": "payload",
          "type": "bytes"
        }
      ],
      "name": "callContract",
      "outputs": [],
      "stateMutability": "nonpayable",
      "type": "function"
    },
    {
      "inputs": [
        {
          "internalType": "string",
          "name": "destinationChain",
          "type": "string"
        },
        {
          "internalType": "string",
          "name": "destinationContractAddress",
          "type": "string"
        },
        {
          "internalType": "bytes",
          "name": "payload",
          "type": "bytes"
        },
        {
          "internalType": "string",
          "name": "symbol",
          "type": "string"
        },
        {
          "internalType": "uint256",
          "name": "amount",
          "type": "uint256"
        }
      ],
      "name": "callContractWithToken",
      "outputs": [],
      "stateMutability": "nonpayable",
      "type": "function"
    },
    {
      "inputs": [],
      "name": "contractId",
      "outputs": [
        {
          "internalType": "bytes32",
          "name": "",
          "type": "bytes32"
        }
      ],
      "stateMutability": "pure",
      "type": "function"
    },
    {
      "inputs": [
        {
          "internalType": "bytes",
          "name": "params",
          "type": "bytes"
        },
        {
          "internalType": "bytes32",
          "name": "",
          "type": "bytes32"
        }
      ],
      "name": "deployToken",
      "outputs": [],
      "stateMutability": "nonpayable",
      "type": "function"
    },
    {
      "inputs": [
        {
          "internalType": "bytes",
          "name": "input",
          "type": "bytes"
        }
      ],
      "name": "execute",
      "outputs": [],
      "stateMutability": "nonpayable",
      "type": "function"
    },
    {
      "inputs": [
        {
          "internalType": "bytes32",
          "name": "key",
          "type": "bytes32"
        }
      ],
      "name": "getAddress",
      "outputs": [
        {
          "internalType": "address",
          "name": "",
          "type": "address"
        }
      ],
      "stateMutability": "view",
      "type": "function"
    },
    {
      "inputs": [
        {
          "internalType": "bytes32",
          "name": "key",
          "type": "bytes32"
        }
      ],
      "name": "getBool",
      "outputs": [
        {
          "internalType": "bool",
          "name": "",
          "type": "bool"
        }
      ],
      "stateMutability": "view",
      "type": "function"
    },
    {
      "inputs": [
        {
          "internalType": "bytes32",
          "name": "key",
          "type": "bytes32"
        }
      ],
      "name": "getBytes",
      "outputs": [
        {
          "internalType": "bytes",
          "name": "",
          "type": "bytes"
        }
      ],
      "stateMutability": "view",
      "type": "function"
    },
    {
      "inputs": [
        {
          "internalType": "bytes32",
          "name": "key",
          "type": "bytes32"
        }
      ],
      "name": "getInt",
      "outputs": [
        {
          "internalType": "int256",
          "name": "",
          "type": "int256"
        }
      ],
      "stateMutability": "view",
      "type": "function"
    },
    {
      "inputs": [
        {
          "internalType": "bytes32",
          "name": "key",
          "type": "bytes32"
        }
      ],
      "name": "getString",
      "outputs": [
        {
          "internalType": "string",
          "name": "",
          "type": "string"
        }
      ],
      "stateMutability": "view",
      "type": "function"
    },
    {
      "inputs": [
        {
          "internalType": "bytes32",
          "name": "key",
          "type": "bytes32"
        }
      ],
      "name": "getUint",
      "outputs": [
        {
          "internalType": "uint256",
          "name": "",
          "type": "uint256"
        }
      ],
      "stateMutability": "view",
      "type": "function"
    },
    {
      "inputs": [],
      "name": "governance",
      "outputs": [
        {
          "internalType": "address",
          "name": "",
          "type": "address"
        }
      ],
      "stateMutability": "view",
      "type": "function"
    },
    {
      "inputs": [],
      "name": "implementation",
      "outputs": [
        {
          "internalType": "address",
          "name": "",
          "type": "address"
        }
      ],
      "stateMutability": "view",
      "type": "function"
    },
    {
      "inputs": [
        {
          "internalType": "bytes32",
          "name": "commandId",
          "type": "bytes32"
        }
      ],
      "name": "isCommandExecuted",
      "outputs": [
        {
          "internalType": "bool",
          "name": "",
          "type": "bool"
        }
      ],
      "stateMutability": "view",
      "type": "function"
    },
    {
      "inputs": [
        {
          "internalType": "bytes32",
          "name": "commandId",
          "type": "bytes32"
        },
        {
          "internalType": "string",
          "name": "sourceChain",
          "type": "string"
        },
        {
          "internalType": "string",
          "name": "sourceAddress",
          "type": "string"
        },
        {
          "internalType": "address",
          "name": "contractAddress",
          "type": "address"
        },
        {
          "internalType": "bytes32",
          "name": "payloadHash",
          "type": "bytes32"
        },
        {
          "internalType": "string",
          "name": "symbol",
          "type": "string"
        },
        {
          "internalType": "uint256",
          "name": "amount",
          "type": "uint256"
        }
      ],
      "name": "isContractCallAndMintApproved",
      "outputs": [
        {
          "internalType": "bool",
          "name": "",
          "type": "bool"
        }
      ],
      "stateMutability": "view",
      "type": "function"
    },
    {
      "inputs": [
        {
          "internalType": "bytes32",
          "name": "commandId",
          "type": "bytes32"
        },
        {
          "internalType": "string",
          "name": "sourceChain",
          "type": "string"
        },
        {
          "internalType": "string",
          "name": "sourceAddress",
          "type": "string"
        },
        {
          "internalType": "address",
          "name": "contractAddress",
          "type": "address"
        },
        {
          "internalType": "bytes32",
          "name": "payloadHash",
          "type": "bytes32"
        }
      ],
      "name": "isContractCallApproved",
      "outputs": [
        {
          "internalType": "bool",
          "name": "",
          "type": "bool"
        }
      ],
      "stateMutability": "view",
      "type": "function"
    },
    {
      "inputs": [],
      "name": "mintLimiter",
      "outputs": [
        {
          "internalType": "address",
          "name": "",
          "type": "address"
        }
      ],
      "stateMutability": "view",
      "type": "function"
    },
    {
      "inputs": [
        {
          "internalType": "bytes",
          "name": "params",
          "type": "bytes"
        },
        {
          "internalType": "bytes32",
          "name": "",
          "type": "bytes32"
        }
      ],
      "name": "mintToken",
      "outputs": [],
      "stateMutability": "nonpayable",
      "type": "function"
    },
    {
      "inputs": [
        {
          "internalType": "string",
          "name": "destinationChain",
          "type": "string"
        },
        {
          "internalType": "string",
          "name": "destinationAddress",
          "type": "string"
        },
        {
          "internalType": "string",
          "name": "symbol",
          "type": "string"
        },
        {
          "internalType": "uint256",
          "name": "amount",
          "type": "uint256"
        }
      ],
      "name": "sendToken",
      "outputs": [],
      "stateMutability": "nonpayable",
      "type": "function"
    },
    {
      "inputs": [
        {
          "internalType": "string[]",
          "name": "symbols",
          "type": "string[]"
        },
        {
          "internalType": "uint256[]",
          "name": "limits",
          "type": "uint256[]"
        }
      ],
      "name": "setTokenMintLimits",
      "outputs": [],
      "stateMutability": "nonpayable",
      "type": "function"
    },
    {
      "inputs": [
        {
          "internalType": "bytes",
          "name": "params",
          "type": "bytes"
        }
      ],
      "name": "setup",
      "outputs": [],
      "stateMutability": "nonpayable",
      "type": "function"
    },
    {
      "inputs": [
        {
          "internalType": "string",
          "name": "symbol",
          "type": "string"
        }
      ],
      "name": "tokenAddresses",
      "outputs": [
        {
          "internalType": "address",
          "name": "",
          "type": "address"
        }
      ],
      "stateMutability": "view",
      "type": "function"
    },
    {
      "inputs": [],
      "name": "tokenDeployer",
      "outputs": [
        {
          "internalType": "address",
          "name": "",
          "type": "address"
        }
      ],
      "stateMutability": "view",
      "type": "function"
    },
    {
      "inputs": [
        {
          "internalType": "string",
          "name": "",
          "type": "string"
        }
      ],
      "name": "tokenFrozen",
      "outputs": [
        {
          "internalType": "bool",
          "name": "",
          "type": "bool"
        }
      ],
      "stateMutability": "pure",
      "type": "function"
    },
    {
      "inputs": [
        {
          "internalType": "string",
          "name": "symbol",
          "type": "string"
        }
      ],
      "name": "tokenMintAmount",
      "outputs": [
        {
          "internalType": "uint256",
          "name": "",
          "type": "uint256"
        }
      ],
      "stateMutability": "view",
      "type": "function"
    },
    {
      "inputs": [
        {
          "internalType": "string",
          "name": "symbol",
          "type": "string"
        }
      ],
      "name": "tokenMintLimit",
      "outputs": [
        {
          "internalType": "uint256",
          "name": "",
          "type": "uint256"
        }
      ],
      "stateMutability": "view",
      "type": "function"
    },
    {
      "inputs": [
        {
          "internalType": "address",
          "name": "newGovernance",
          "type": "address"
        }
      ],
      "name": "transferGovernance",
      "outputs": [],
      "stateMutability": "nonpayable",
      "type": "function"
    },
    {
      "inputs": [
        {
          "internalType": "address",
          "name": "newMintLimiter",
          "type": "address"
        }
      ],
      "name": "transferMintLimiter",
      "outputs": [],
      "stateMutability": "nonpayable",
      "type": "function"
    },
    {
      "inputs": [
        {
          "internalType": "bytes",
          "name": "newOperatorsData",
          "type": "bytes"
        },
        {
          "internalType": "bytes32",
          "name": "",
          "type": "bytes32"
        }
      ],
      "name": "transferOperatorship",
      "outputs": [],
      "stateMutability": "nonpayable",
      "type": "function"
    },
    {
      "inputs": [
        {
          "internalType": "address",
          "name": "newImplementation",
          "type": "address"
        },
        {
          "internalType": "bytes32",
          "name": "newImplementationCodeHash",
          "type": "bytes32"
        },
        {
          "internalType": "bytes",
          "name": "setupParams",
          "type": "bytes"
        }
      ],
      "name": "upgrade",
      "outputs": [],
      "stateMutability": "nonpayable",
      "type": "function"
    },
    {
      "inputs": [
        {
          "internalType": "bytes32",
          "name": "commandId",
          "type": "bytes32"
        },
        {
          "internalType": "string",
          "name": "sourceChain",
          "type": "string"
        },
        {
          "internalType": "string",
          "name": "sourceAddress",
          "type": "string"
        },
        {
          "internalType": "bytes32",
          "name": "payloadHash",
          "type": "bytes32"
        }
      ],
      "name": "validateContractCall",
      "outputs": [
        {
          "internalType": "bool",
          "name": "valid",
          "type": "bool"
        }
      ],
      "stateMutability": "nonpayable",
      "type": "function"
    },
    {
      "inputs": [
        {
          "internalType": "bytes32",
          "name": "commandId",
          "type": "bytes32"
        },
        {
          "internalType": "string",
          "name": "sourceChain",
          "type": "string"
        },
        {
          "internalType": "string",
          "name": "sourceAddress",
          "type": "string"
        },
        {
          "internalType": "bytes32",
          "name": "payloadHash",
          "type": "bytes32"
        },
        {
          "internalType": "string",
          "name": "symbol",
          "type": "string"
        },
        {
          "internalType": "uint256",
          "name": "amount",
          "type": "uint256"
        }
      ],
      "name": "validateContractCallAndMint",
      "outputs": [
        {
          "internalType": "bool",
          "name": "valid",
          "type": "bool"
        }
      ],
      "stateMutability": "nonpayable",
      "type": "function"
    }
  ],
  "bytecode": "0x60e06040523480156200001157600080fd5b5060405162003fb538038062003fb58339810160408190526200003491620000c5565b306080526001600160a01b0382163b600003620000645760405163735326ab60e01b815260040160405180910390fd5b806001600160a01b03163b6000036200009057604051630c84dabf60e31b815260040160405180910390fd5b6001600160a01b0391821660a0521660c052620000fd565b80516001600160a01b0381168114620000c057600080fd5b919050565b60008060408385031215620000d957600080fd5b620000e483620000a8565b9150620000f460208401620000a8565b90509250929050565b60805160a05160c051613e6c62000149600039600081816102f3015261147b015260008181610376015281816105990152818161166f0152611864015260006117820152613e6c6000f3fe608060405234801561001057600080fd5b50600436106102275760003560e01c80638291286c11610130578063bc00c216116100b8578063d26ff2101161007c578063d26ff21014610502578063d38bfff414610515578063dc97d96214610528578063f6a5f9f514610548578063fbe0a31b1461055b57600080fd5b8063bc00c216146104a1578063bd02d0f5146104b4578063c031a180146104d4578063c82fe87a146104e7578063cec7b359146104ef57600080fd5b8063986e791a116100ff578063986e791a146104415780639ded06df14610461578063a3499c7314610474578063aa1e1f0a14610487578063b54170841461048e57600080fd5b80638291286c146103e2578063886a625d14610408578063935b13f61461041b57806397b87ba61461042e57600080fd5b80634656ae2e116101b35780635f6970c3116101825780635f6970c31461035e57806364940c561461037157806367ace8eb146103985780637ae1cfca146103ab5780637b1b769e146103ce57600080fd5b80634656ae2e14610328578063585a9fd41461033b5780635aa6e6751461034e5780635c60da1b1461035657600080fd5b806321f8a721116101fa57806321f8a7211461028f578063269eb65e146102ba57806326ef699d146102db5780632a2dae0a146102ee57806341d8f26b1461031557600080fd5b806309c5eabe1461022c578063146e2d78146102415780631876eed9146102545780631c92115f1461027c575b600080fd5b61023f61023a3660046127e8565b61056e565b005b61023f61024f366004612829565b6109a3565b610267610262366004612874565b6109cc565b60405190151581526020015b60405180910390f35b61023f61028a366004612928565b610b20565b6102a261029d3660046129c1565b610b8b565b6040516001600160a01b039091168152602001610273565b6102cd6102c8366004612a9d565b610ba6565b604051908152602001610273565b61023f6102e9366004612ad9565b610bba565b6102a27f000000000000000000000000000000000000000000000000000000000000000081565b61023f610323366004612b90565b610c52565b61023f610336366004612829565b610d03565b61023f610349366004612829565b6110a7565b6102a2611135565b6102a2611153565b61026761036c366004612bad565b61117e565b6102a27f000000000000000000000000000000000000000000000000000000000000000081565b61023f6103a6366004612c72565b611257565b6102676103b93660046129c1565b60009081526004602052604090205460ff1690565b6102676103dc366004612a9d565b50600090565b7fad2ae48b4d93c587cd1f0f8f269b84f57dbe98bbe5c61c4b6d324e6a667b36256102cd565b61023f610416366004612829565b6113cc565b6102a2610429366004612a9d565b611611565b61023f61043c366004612829565b61161f565b61045461044f3660046129c1565b6116dd565b6040516102739190612d2d565b61023f61046f3660046127e8565b61177f565b61023f610482366004612d40565b6118ce565b6000610267565b61023f61049c366004612d8f565b611af1565b6102676104af366004612e5a565b611ba7565b6102cd6104c23660046129c1565b60009081526020819052604090205490565b6104546104e23660046129c1565b611c7a565b6102a2611c97565b6102cd6104fd366004612a9d565b611cb0565b6102676105103660046129c1565b611cca565b61023f610523366004612b90565b611cd8565b6102cd6105363660046129c1565b60009081526005602052604090205490565b610267610556366004612f27565b611d4f565b61023f610569366004612829565b611dd8565b60008061057d83850185612fbd565b9150915060006105938380519060200120611e58565b905060007f00000000000000000000000000000000000000000000000000000000000000006001600160a01b03166373e3d66a83856040518363ffffffff1660e01b81526004016105e5929190613020565b6020604051808303816000875af1158015610604573d6000803e3d6000fd5b505050506040513d601f19601f82011682018060405250810190610628919061304e565b9050600060608060608780602001905181019061064591906131ef565b9296509094509250905046841461066f57604051633d23e4d160e11b815260040160405180910390fd5b8251825181141580610682575081518114155b156106a05760405163ca9a28f560e01b815260040160405180910390fd5b60005b818110156109955760008582815181106106bf576106bf6132d8565b602002602001015190506106d281611cca565b156106dd575061098d565b6000808684815181106106f2576106f26132d8565b602002602001015160405160200161070a91906132ee565b6040516020818303038152906040528051906020012090507f5763814b98a3aa86f212797af3273868b5dd6e2a532d764a79b98ca859e7bbad81036107585763886a625d60e01b915061087f565b7fec78d9c22c08bb9f0ecd5d95571ae83e3f22219c5a9278c3270691d50abfd91b810361078e5763028dc5af60e31b915061087f565b7f37ac16aabc4d87540e53151b2b716265cfd6b195db96a9daf8e893c829bbd23381036107c45763fbe0a31b60e01b915061087f565b7ff41504255b911b3042ee4f8786fdf7cf4bcf24ace033fa16af3c8574e025e43681036107fa57631616a7f560e21b915061087f565b7fda199c0e76f665e0450020791c7f8eacc75f3cdbace313272c28f93e5390b62c81036108305763232b571760e11b915061087f565b7fb460dcb6fd5797fc0e7ea0f13406c80d30702ba7f73a42bd91394775dcbca718810361087757896108645750505061098d565b60009950634bdc3dd360e11b915061087f565b50505061098d565b61088a836001611eac565b6000306001600160a01b0316838887815181106108a9576108a96132d8565b6020026020010151866040516024016108c392919061330a565b60408051601f198184030181529181526020820180516001600160e01b03166001600160e01b031990941693909317909252905161090191906132ee565b6000604051808303816000865af19150503d806000811461093e576040519150601f19603f3d011682016040523d82523d6000602084013e610943565b606091505b50509050801561097d5760405184907fa74c8847d513feba22a0f0cb38d53081abf97562cdb293926ba243689e7c41ca90600090a2610988565b610988846000611eac565b505050505b6001016106a3565b505050505050505050505050565b600080806109b385870187613337565b9250925092506109c4838383611ec2565b505050505050565b600080610a7d8b8b8b8080601f01602080910402602001604051908101604052809392919081815260200183838082843760009201919091525050604080516020601f8f018190048102820181019092528d815292508d91508c908190840183828082843760009201919091525050604080516020601f8d018190048102820181019092528b81523393508d9250908c908c90819084018382808284376000920191909152508c9250611fb7915050565b60008181526004602052604090205460ff16925090508115610b1257610aa481600061201b565b6040518b907f91057b069763121972ce22b18b2f319b1520dd4c72f1f94a6395e81ceaf63f4190600090a2610b1285858080601f016020809104026020016040519081016040528093929190818152602001838380828437600092019190915250339250879150611ec29050565b509998505050505050505050565b8181604051610b30929190613390565b6040518091039020336001600160a01b03167f30ae6cc78c27e651745bf2ad08a11de83910ac1e347a52f7ac898c0fbef94dae888888888888604051610b7b969594939291906133c9565b60405180910390a3505050505050565b6000908152600260205260409020546001600160a01b031690565b6000610bb46104c28361203b565b92915050565b610bfc3384848080601f016020809104026020016040519081016040528093929190818152602001838380828437600092019190915250869250612070915050565b336001600160a01b03167f651d93f66c4329630e8d0f62488eff599e3be484da587335e8dc0fcf4606272688888888888888604051610c419796959493929190613412565b60405180910390a250505050505050565b610c69600080516020613e17833981519152610b8b565b6001600160a01b0316336001600160a01b031614158015610cb25750610c9c600080516020613df7833981519152610b8b565b6001600160a01b0316336001600160a01b031614155b15610cd05760405163223aa83d60e11b815260040160405180910390fd5b6001600160a01b038116610cf7576040516335e75dcb60e21b815260040160405180910390fd5b610d0081612222565b50565b600080610d1284860186613463565b915091506000610d2183611611565b90506001600160a01b038116610d55578260405163395d09bf60e11b8152600401610d4c9190612d2d565b60405180910390fd5b6002610d6084612290565b6002811115610d7157610d716134a7565b03611045576000610e158360405180602001610d8c90612793565b601f1982820381018352601f909101166040819052610dae91906020016132ee565b60408051601f1981840301815282825280516020918201206001600160f81b0319848301526bffffffffffffffffffffffff193060601b16602185015260358401949094526055808401949094528151808403909401845260759092019052815191012090565b9050610e29816001600160a01b03166122af565b15610e375750505050505050565b600083604051610e4690612793565b8190604051809103906000f5905080158015610e66573d6000803e3d6000fd5b506040516370a0823160e01b81526001600160a01b038083166004830181905292935060009283929091631cff79cd91889163a9059cbb60e01b9130918416906370a0823190602401602060405180830381865afa158015610ecc573d6000803e3d6000fd5b505050506040513d601f19601f82011682018060405250810190610ef091906134bd565b6040516001600160a01b039092166024830152604482015260640160408051601f198184030181529181526020820180516001600160e01b03166001600160e01b03199485161790525160e085901b9092168252610f5192916004016134d6565b6000604051808303816000875af1158015610f70573d6000803e3d6000fd5b505050506040513d6000823e601f3d908101601f19168201604052610f9891908101906134fa565b91509150811580610fc55750805115801590610fc5575080806020019051810190610fc3919061304e565b155b15610fe5578660405163e217b0ad60e01b8152600401610d4c9190612d2d565b60405162f55d9d60e01b81523060048201526001600160a01b0384169062f55d9d90602401600060405180830381600087803b15801561102457600080fd5b505af1158015611038573d6000803e3d6000fd5b50505050505050506109c4565b6040516308a1eee160e01b8152600481018390526001600160a01b038216906308a1eee190602401600060405180830381600087803b15801561108757600080fd5b505af115801561109b573d6000803e3d6000fd5b50505050505050505050565b6000808080808080806110bc8a8c018c61353d565b975097509750975097509750975097506110db898989898989896122f2565b84866001600160a01b03168a7f9991faa1f435675159ffae64b66d7ecfdb55c29755869a18db8497b4392347e08b8b89898989604051611120969594939291906135fa565b60405180910390a45050505050505050505050565b600061114e600080516020613df7833981519152610b8b565b905090565b600061114e7f360894a13ba1a3210667c828492db98dca3e2076cc3735a920a3ca505d382bbc610b8b565b6000806111f98888888080601f01602080910402602001604051908101604052809392919081815260200183838082843760009201919091525050604080516020601f8c018190048102820181019092528a815292508a915089908190840183828082843760009201919091525033925089915061230b9050565b60008181526004602052604090205460ff1692509050811561124c5761122081600061201b565b60405188907f91057b069763121972ce22b18b2f319b1520dd4c72f1f94a6395e81ceaf63f4190600090a25b509695505050505050565b61126e600080516020613e17833981519152610b8b565b6001600160a01b0316336001600160a01b0316141580156112b757506112a1600080516020613df7833981519152610b8b565b6001600160a01b0316336001600160a01b031614155b156112d55760405163223aa83d60e11b815260040160405180910390fd5b828181146112f6576040516314a2275f60e01b815260040160405180910390fd5b60005b818110156109c4576000868683818110611315576113156132d8565b90506020028101906113279190613652565b8080601f0160208091040260200160405190810160405280939291908181526020018383808284376000920182905250939450889250879150859050818110611372576113726132d8565b90506020020135905060006001600160a01b031661138f83611611565b6001600160a01b0316036113b8578160405163395d09bf60e11b8152600401610d4c9190612d2d565b6113c28282612369565b50506001016112f9565b600080808080806113df888a018a613698565b95509550955095509550955060006001600160a01b03166113ff86611611565b6001600160a01b031614611428578460405163553f459960e11b8152600401610d4c9190612d2d565b6114328582612369565b6001600160a01b0382166115855760008560405160200161145391906132ee565b6040516020818303038152906040528051906020012090506114768660016123c1565b6000807f00000000000000000000000000000000000000000000000000000000000000006001600160a01b0316636fc95b3460e01b8a8a8a8a886040516024016114c495949392919061373a565b60408051601f198184030181529181526020820180516001600160e01b03166001600160e01b031990941693909317909252905161150291906132ee565b600060405180830381855af49150503d806000811461153d576040519150601f19603f3d011682016040523d82523d6000602084013e611542565b606091505b50915091508161156757876040516386d5274360e01b8152600401610d4c9190612d2d565b8080602001905181019061157b9190613780565b94505050506115c3565b6001600160a01b0382163b6115b8576040516362e66eef60e11b81526001600160a01b0383166004820152602401610d4c565b6115c38560026123c1565b7fbf90b5a1ec9763e8bf4b9245cef0c28db92bab309fc2c5177f17814f3824693885836040516115f492919061379d565b60405180910390a161160685836123f1565b505050505050505050565b6000610bb461029d83612403565b7f192e759e55f359cd9832b5c0c6e38e4b6df5c5ca33f3bd5c90738e865a52187283836040516116509291906137c7565b60405180910390a160405163d289d1cb60e01b81526001600160a01b037f0000000000000000000000000000000000000000000000000000000000000000169063d289d1cb906116a690869086906004016137c7565b600060405180830381600087803b1580156116c057600080fd5b505af11580156116d4573d6000803e3d6000fd5b50505050505050565b60008181526001602052604090208054606091906116fa906137db565b80601f0160208091040260200160405190810160405280929190818152602001828054611726906137db565b80156117735780601f1061174857610100808354040283529160200191611773565b820191906000526020600020905b81548152906001019060200180831161175657829003601f168201915b50505050509050919050565b307f00000000000000000000000000000000000000000000000000000000000000006001600160a01b0316036117c857604051635f886e9d60e11b815260040160405180910390fd5b600080806117d884860186613815565b919450925090506001600160a01b038316156117f7576117f783612438565b6001600160a01b0382161561180f5761180f82612222565b8051156118c7577f192e759e55f359cd9832b5c0c6e38e4b6df5c5ca33f3bd5c90738e865a521872816040516118459190612d2d565b60405180910390a160405163d289d1cb60e01b81526001600160a01b037f0000000000000000000000000000000000000000000000000000000000000000169063d289d1cb90611899908490600401612d2d565b600060405180830381600087803b1580156118b357600080fd5b505af1158015611606573d6000803e3d6000fd5b5050505050565b6118e5600080516020613df7833981519152610b8b565b6001600160a01b0316336001600160a01b03161461191657604051632d5be4cb60e21b815260040160405180910390fd5b836001600160a01b03163f8314611940576040516323e13ec960e21b815260040160405180910390fd5b836001600160a01b0316638291286c6040518163ffffffff1660e01b8152600401602060405180830381865afa15801561197e573d6000803e3d6000fd5b505050506040513d601f19601f820116820180604052508101906119a291906134bd565b7fad2ae48b4d93c587cd1f0f8f269b84f57dbe98bbe5c61c4b6d324e6a667b3625146119e15760405163340aafcd60e11b815260040160405180910390fd5b6040516001600160a01b038516907fbc7cd75a20ee27fd9adebab32041f755214dbc6bffa90cc0225b39da2e5c2d3b90600090a2611a1e846124a6565b8015611aeb576000846001600160a01b0316639ded06df60e01b8484604051602401611a4b9291906137c7565b60408051601f198184030181529181526020820180516001600160e01b03166001600160e01b0319909416939093179092529051611a8991906132ee565b600060405180830381855af49150503d8060008114611ac4576040519150601f19603f3d011682016040523d82523d6000602084013e611ac9565b606091505b50509050806118c7576040516397905dfb60e01b815260040160405180910390fd5b50505050565b611b333384848080601f016020809104026020016040519081016040528093929190818152602001838380828437600092019190915250869250612070915050565b8484604051611b43929190613390565b6040518091039020336001600160a01b03167f7e50569d26be643bda7757722291ec66b1be66d8283474ae3fab5a98f878a7a28b8b8b8b8b8b8b8b8b604051611b9499989796959493929190613876565b60405180910390a3505050505050505050565b6000611c6b6103b98c8c8c8080601f016020809104026020016040519081016040528093929190818152602001838380828437600081840152601f19601f820116905080830192505050505050508b8b8080601f01602080910402602001604051908101604052809392919081815260200183838082843760009201919091525050604080516020601f8d018190048102820181019092528b81528e93508d9250908c908c90819084018382808284376000920191909152508c9250611fb7915050565b9b9a5050505050505050505050565b60008181526003602052604090208054606091906116fa906137db565b600061114e600080516020613e17833981519152610b8b565b6000610bb46104c283611cc5615460426138de565b6124d0565b6000610bb46103b983612525565b611cef600080516020613df7833981519152610b8b565b6001600160a01b0316336001600160a01b031614611d2057604051632d5be4cb60e21b815260040160405180910390fd5b6001600160a01b038116611d46576040516218c61b60e21b815260040160405180910390fd5b610d0081612438565b6000611dcc6103b98989898080601f01602080910402602001604051908101604052809392919081815260200183838082843760009201919091525050604080516020601f8d018190048102820181019092528b815292508b91508a90819084018382808284376000920191909152508a925089915061230b9050565b98975050505050505050565b60008080808080611deb888a018a613900565b955095509550955095509550611e048787878787612560565b82846001600160a01b0316887f44e4f8f6bd682c5a3aeba93601ab07cb4d1f21b2aab1ae4880d9577919309aa489898787604051611e459493929190613991565b60405180910390a4505050505050505050565b6040517f19457468657265756d205369676e6564204d6573736167653a0a3332000000006020820152603c8101829052600090605c015b604051602081830303815290604052805190602001209050919050565b611ebe611eb883612525565b8261201b565b5050565b6000611ecd84611611565b90506001600160a01b038116611ef8578360405163395d09bf60e11b8152600401610d4c9190612d2d565b611f158483611f0687611cb0565b611f1091906139ca565b612570565b6002611f2085612290565b6002811115611f3157611f316134a7565b03611f4f57611f4a6001600160a01b03821684846125d7565b611aeb565b6040516340c10f1960e01b81526001600160a01b038481166004830152602482018490528216906340c10f1990604401600060405180830381600087803b158015611f9957600080fd5b505af1158015611fad573d6000803e3d6000fd5b5050505050505050565b60007fb7ad972b71475860613db3ba1fe699b886c878f9002a09250dc25e769eb19a1088888888888888604051602001611ff89897969594939291906139eb565b604051602081830303815290604052805190602001209050979650505050505050565b600091825260046020526040909120805460ff1916911515919091179055565b60007feee9348b4aaba3647b1612b2724f18e93b9299da26fb321c7b3fda135d7dea8782604051602001611e8f929190613a5f565b600061207b83611611565b90506001600160a01b0381166120a6578260405163395d09bf60e11b8152600401610d4c9190612d2d565b816000036120c75760405163162908e360e11b815260040160405180910390fd5b60006120d284612290565b905060028160028111156120e8576120e86134a7565b03612107576121026001600160a01b03831686308661263a565b6118c7565b600181600281111561211b5761211b6134a7565b0361217457604080516001600160a01b03878116602483015260448083018790528351808403909101815260649092019092526020810180516001600160e01b031663079cc67960e41b17905261210291841690612672565b604051630c7bb2bd60e21b8152600060048201526121f59086906001600160a01b038516906331eecaf490602401602060405180830381865afa1580156121bf573d6000803e3d6000fd5b505050506040513d601f19601f820116820180604052508101906121e39190613780565b6001600160a01b03851691908661263a565b6040516308a1eee160e01b8152600060048201526001600160a01b038316906308a1eee190602401611899565b6001600160a01b038116612243600080516020613e17833981519152610b8b565b6001600160a01b03167fa9303c860c5de3c0c866c354d281785c89778ac5ca2dffdf12841c45cd4e1e6e60405160405180910390a3610d00600080516020613e1783398151915282612730565b600061229e6104c28361275e565b6002811115610bb457610bb46134a7565b60006001600160a01b0382163f80158015906122eb57507fc5d2460186f7233c927e7db2dcc703c0e500b653ca82273b7bfad8045d85a4708114155b9392505050565b6116d461230488888888888888611fb7565b600161201b565b60007f07b0d4304f82012bd3b70b1d531c160e326067c90829e2a3d386722ad10b89c3868686868660405160200161234896959493929190613a85565b60405160208183030381529060405280519060200120905095945050505050565b7fd99446c1d76385bb5519ccfb5274abcfd5896dfc22405e40010fde217f018a18828260405161239a92919061330a565b60405180910390a1611ebe6123ae8361203b565b8260009182526020829052604090912055565b611ebe6123cd8361275e565b8260028111156123df576123df6134a7565b60009182526020829052604090912055565b611ebe6123fd83612403565b82612730565b60007fc4e632779a6a7838736dd7e5e6a0eadf171dd37dfb6230720e265576dfcf42bb82604051602001611e8f929190613a5f565b6001600160a01b038116612459600080516020613df7833981519152610b8b565b6001600160a01b03167f5f56bee8cffbe9a78652a74a60705edede02af10b0bbb888ca44b79a0d42ce8060405160405180910390a3610d00600080516020613df783398151915282612730565b610d007f360894a13ba1a3210667c828492db98dca3e2076cc3735a920a3ca505d382bbc82612730565b60007f2f8851fe0d6d537e552a4f25b7a3167d48eb1292622c71d84630a2a44757bced838360405160200161250793929190613ad5565b60405160208183030381529060405280519060200120905092915050565b604080517f957705a374326b30f4a1069c936d736cc9993ed6c820b4e0e2fd94a8beca0d1d6020820152908101829052600090606001611e8f565b6118c7612304868686868661230b565b600061257b83610ba6565b905060008111801561258c57508082115b156125ac578260405163037f60e560e01b8152600401610d4c9190612d2d565b6125d26125bf84611cc5615460426138de565b8360009182526020829052604090912055565b505050565b6040516001600160a01b0383166024820152604481018290526125d290849063a9059cbb60e01b906064015b60408051601f198184030181529190526020810180516001600160e01b03166001600160e01b031990931692909217909152612672565b6040516001600160a01b0380851660248301528316604482015260648101829052611aeb9085906323b872dd60e01b90608401612603565b600080836001600160a01b03168360405161268d91906132ee565b6000604051808303816000865af19150503d80600081146126ca576040519150601f19603f3d011682016040523d82523d6000602084013e6126cf565b606091505b509150915060008280156126fb5750815115806126fb5750818060200190518101906126fb919061304e565b905080158061271257506001600160a01b0385163b155b156118c75760405163022e258160e11b815260040160405180910390fd5b60009182526002602052604090912080546001600160a01b0319166001600160a01b03909216919091179055565b60007fa80d2259af55890618ec2eeb3ac72de4bdba22529bb14845d8a3d712d1c3f62182604051602001611e8f929190613a5f565b6102f880613aff83390190565b60008083601f8401126127b257600080fd5b5081356001600160401b038111156127c957600080fd5b6020830191508360208285010111156127e157600080fd5b9250929050565b600080602083850312156127fb57600080fd5b82356001600160401b0381111561281157600080fd5b61281d858286016127a0565b90969095509350505050565b60008060006040848603121561283e57600080fd5b83356001600160401b0381111561285457600080fd5b612860868287016127a0565b909790965060209590950135949350505050565b600080600080600080600080600060c08a8c03121561289257600080fd5b8935985060208a01356001600160401b03808211156128b057600080fd5b6128bc8d838e016127a0565b909a50985060408c01359150808211156128d557600080fd5b6128e18d838e016127a0565b909850965060608c0135955060808c013591508082111561290157600080fd5b5061290e8c828d016127a0565b9a9d999c50979a9699959894979660a00135949350505050565b6000806000806000806060878903121561294157600080fd5b86356001600160401b038082111561295857600080fd5b6129648a838b016127a0565b9098509650602089013591508082111561297d57600080fd5b6129898a838b016127a0565b909650945060408901359150808211156129a257600080fd5b506129af89828a016127a0565b979a9699509497509295939492505050565b6000602082840312156129d357600080fd5b5035919050565b634e487b7160e01b600052604160045260246000fd5b604051601f8201601f191681016001600160401b0381118282101715612a1857612a186129da565b604052919050565b60006001600160401b03821115612a3957612a396129da565b50601f01601f191660200190565b600082601f830112612a5857600080fd5b8135612a6b612a6682612a20565b6129f0565b818152846020838601011115612a8057600080fd5b816020850160208301376000918101602001919091529392505050565b600060208284031215612aaf57600080fd5b81356001600160401b03811115612ac557600080fd5b612ad184828501612a47565b949350505050565b60008060008060008060006080888a031215612af457600080fd5b87356001600160401b0380821115612b0b57600080fd5b612b178b838c016127a0565b909950975060208a0135915080821115612b3057600080fd5b612b3c8b838c016127a0565b909750955060408a0135915080821115612b5557600080fd5b50612b628a828b016127a0565b989b979a50959894979596606090950135949350505050565b6001600160a01b0381168114610d0057600080fd5b600060208284031215612ba257600080fd5b81356122eb81612b7b565b60008060008060008060808789031215612bc657600080fd5b8635955060208701356001600160401b0380821115612be457600080fd5b612bf08a838b016127a0565b90975095506040890135915080821115612c0957600080fd5b50612c1689828a016127a0565b979a9699509497949695606090950135949350505050565b60008083601f840112612c4057600080fd5b5081356001600160401b03811115612c5757600080fd5b6020830191508360208260051b85010111156127e157600080fd5b60008060008060408587031215612c8857600080fd5b84356001600160401b0380821115612c9f57600080fd5b612cab88838901612c2e565b90965094506020870135915080821115612cc457600080fd5b50612cd187828801612c2e565b95989497509550505050565b60005b83811015612cf8578181015183820152602001612ce0565b50506000910152565b60008151808452612d19816020860160208601612cdd565b601f01601f19169290920160200192915050565b6020815260006122eb6020830184612d01565b60008060008060608587031215612d5657600080fd5b8435612d6181612b7b565b93506020850135925060408501356001600160401b03811115612d8357600080fd5b612cd1878288016127a0565b600080600080600080600080600060a08a8c031215612dad57600080fd5b89356001600160401b0380821115612dc457600080fd5b612dd08d838e016127a0565b909b50995060208c0135915080821115612de957600080fd5b612df58d838e016127a0565b909950975060408c0135915080821115612e0e57600080fd5b612e1a8d838e016127a0565b909750955060608c0135915080821115612e3357600080fd5b50612e408c828d016127a0565b9a9d999c50979a9699959894979660800135949350505050565b60008060008060008060008060008060e08b8d031215612e7957600080fd5b8a35995060208b01356001600160401b0380821115612e9757600080fd5b612ea38e838f016127a0565b909b50995060408d0135915080821115612ebc57600080fd5b612ec88e838f016127a0565b909950975060608d01359150612edd82612b7b565b90955060808c0135945060a08c01359080821115612efa57600080fd5b50612f078d828e016127a0565b9150809450508092505060c08b013590509295989b9194979a5092959850565b600080600080600080600060a0888a031215612f4257600080fd5b8735965060208801356001600160401b0380821115612f6057600080fd5b612f6c8b838c016127a0565b909850965060408a0135915080821115612f8557600080fd5b50612f928a828b016127a0565b9095509350506060880135612fa681612b7b565b809250506080880135905092959891949750929550565b60008060408385031215612fd057600080fd5b82356001600160401b0380821115612fe757600080fd5b612ff386838701612a47565b9350602085013591508082111561300957600080fd5b5061301685828601612a47565b9150509250929050565b828152604060208201526000612ad16040830184612d01565b8051801515811461304957600080fd5b919050565b60006020828403121561306057600080fd5b6122eb82613039565b60006001600160401b03821115613082576130826129da565b5060051b60200190565b600061309a612a6684612a20565b90508281528383830111156130ae57600080fd5b6122eb836020830184612cdd565b600082601f8301126130cd57600080fd5b815160206130dd612a6683613069565b82815260059290921b840181019181810190868411156130fc57600080fd5b8286015b8481101561124c5780516001600160401b0381111561311f5760008081fd5b8701603f810189136131315760008081fd5b61314289868301516040840161308c565b845250918301918301613100565b600082601f83011261316157600080fd5b6122eb8383516020850161308c565b600082601f83011261318157600080fd5b81516020613191612a6683613069565b82815260059290921b840181019181810190868411156131b057600080fd5b8286015b8481101561124c5780516001600160401b038111156131d35760008081fd5b6131e18986838b0101613150565b8452509183019183016131b4565b6000806000806080858703121561320557600080fd5b845193506020808601516001600160401b038082111561322457600080fd5b818801915088601f83011261323857600080fd5b8151613246612a6682613069565b81815260059190911b8301840190848101908b83111561326557600080fd5b938501935b828510156132835784518252938501939085019061326a565b60408b0151909850945050508083111561329c57600080fd5b6132a889848a016130bc565b945060608801519250808311156132be57600080fd5b50506132cc87828801613170565b91505092959194509250565b634e487b7160e01b600052603260045260246000fd5b60008251613300818460208701612cdd565b9190910192915050565b60408152600061331d6040830185612d01565b90508260208301529392505050565b803561304981612b7b565b60008060006060848603121561334c57600080fd5b83356001600160401b0381111561336257600080fd5b61336e86828701612a47565b935050602084013561337f81612b7b565b929592945050506040919091013590565b8183823760009101908152919050565b81835281816020850137506000828201602090810191909152601f909101601f19169091010190565b6060815260006133dd60608301888a6133a0565b82810360208401526133f08187896133a0565b905082810360408401526134058185876133a0565b9998505050505050505050565b60808152600061342660808301898b6133a0565b828103602084015261343981888a6133a0565b9050828103604084015261344e8186886133a0565b91505082606083015298975050505050505050565b6000806040838503121561347657600080fd5b82356001600160401b0381111561348c57600080fd5b61349885828601612a47565b95602094909401359450505050565b634e487b7160e01b600052602160045260246000fd5b6000602082840312156134cf57600080fd5b5051919050565b6001600160a01b0383168152604060208201819052600090612ad190830184612d01565b6000806040838503121561350d57600080fd5b61351683613039565b915060208301516001600160401b0381111561353157600080fd5b61301685828601613150565b600080600080600080600080610100898b03121561355a57600080fd5b88356001600160401b038082111561357157600080fd5b61357d8c838d01612a47565b995060208b013591508082111561359357600080fd5b61359f8c838d01612a47565b98506135ad60408c0161332c565b975060608b0135965060808b01359150808211156135ca57600080fd5b506135d78b828c01612a47565b989b979a50959894979660a0860135965060c08601359560e00135945092505050565b60c08152600061360d60c0830189612d01565b828103602084015261361f8189612d01565b905082810360408401526136338188612d01565b60608401969096525050608081019290925260a0909101529392505050565b6000808335601e1984360301811261366957600080fd5b8301803591506001600160401b0382111561368357600080fd5b6020019150368190038213156127e157600080fd5b60008060008060008060c087890312156136b157600080fd5b86356001600160401b03808211156136c857600080fd5b6136d48a838b01612a47565b975060208901359150808211156136ea57600080fd5b506136f789828a01612a47565b955050604087013560ff8116811461370e57600080fd5b935060608701359250608087013561372581612b7b565b8092505060a087013590509295509295509295565b60a08152600061374d60a0830188612d01565b828103602084015261375f8188612d01565b60ff9690961660408401525050606081019290925260809091015292915050565b60006020828403121561379257600080fd5b81516122eb81612b7b565b6040815260006137b06040830185612d01565b905060018060a01b03831660208301529392505050565b602081526000612ad16020830184866133a0565b600181811c908216806137ef57607f821691505b60208210810361380f57634e487b7160e01b600052602260045260246000fd5b50919050565b60008060006060848603121561382a57600080fd5b833561383581612b7b565b9250602084013561384581612b7b565b915060408401356001600160401b0381111561386057600080fd5b61386c86828701612a47565b9150509250925092565b60a08152600061388a60a083018b8d6133a0565b828103602084015261389d818a8c6133a0565b905082810360408401526138b281888a6133a0565b905082810360608401526138c78186886133a0565b9150508260808301529a9950505050505050505050565b6000826138fb57634e487b7160e01b600052601260045260246000fd5b500490565b60008060008060008060c0878903121561391957600080fd5b86356001600160401b038082111561393057600080fd5b61393c8a838b01612a47565b9750602089013591508082111561395257600080fd5b5061395f89828a01612a47565b955050604087013561397081612b7b565b959894975094956060810135955060808101359460a0909101359350915050565b6080815260006139a46080830187612d01565b82810360208401526139b68187612d01565b604084019590955250506060015292915050565b80820180821115610bb457634e487b7160e01b600052601160045260246000fd5b60006101008a8352896020840152806040840152613a0b8184018a612d01565b90508281036060840152613a1f8189612d01565b6001600160a01b038816608085015260a0840187905283810360c08501529050613a498186612d01565b9150508260e08301529998505050505050505050565b82815260008251613a77816020850160208701612cdd565b919091016020019392505050565b86815285602082015260c060408201526000613aa460c0830187612d01565b8281036060840152613ab68187612d01565b6001600160a01b03959095166080840152505060a00152949350505050565b838152606060208201526000613aee6060830185612d01565b905082604083015294935050505056fe6080604052600160005534801561001557600080fd5b506102d3806100256000396000f3fe608060405234801561001057600080fd5b50600436106100355760003560e01c8062f55d9d1461003a5780631cff79cd1461004f575b600080fd5b61004d61004836600461018f565b610079565b005b61006261005d3660046101b1565b6100ad565b604051610070929190610234565b60405180910390f35b60026000540361009c5760405163caa30f5560e01b815260040160405180910390fd5b60026000556001600160a01b038116ff5b600060606002600054036100d45760405163caa30f5560e01b815260040160405180910390fd5b600260009081556001600160a01b0386163b900361010557604051636f7c43f160e01b815260040160405180910390fd5b846001600160a01b0316848460405161011f92919061028d565b6000604051808303816000865af19150503d806000811461015c576040519150601f19603f3d011682016040523d82523d6000602084013e610161565b606091505b50600160005590969095509350505050565b80356001600160a01b038116811461018a57600080fd5b919050565b6000602082840312156101a157600080fd5b6101aa82610173565b9392505050565b6000806000604084860312156101c657600080fd5b6101cf84610173565b9250602084013567ffffffffffffffff808211156101ec57600080fd5b818601915086601f83011261020057600080fd5b81358181111561020f57600080fd5b87602082850101111561022157600080fd5b6020830194508093505050509250925092565b82151581526000602060406020840152835180604085015260005b8181101561026b5785810183015185820160600152820161024f565b506000606082860101526060601f19601f830116850101925050509392505050565b818382376000910190815291905056fea264697066735822122006f9d37ee977c070ab0beed5622642adaa8cf7c371495d427ab33e342fdd4ac164736f6c63430008180033abea6fd3db56a6e6d0242111b43ebb13d1c42709651c032c7894962023a1f909627f0c11732837b3240a2de89c0b6343512886dd50978b99c76a68c6416a4d92a26469706673582212209bfc7d59bc61b3440550d399e39ea21a46b494b9db81ef5b97709fa348bf64fd64736f6c63430008180033",
  "linkReferences": {},
  "deployedLinkReferences": {}
}