{
  "_format": "hh-sol-artifact-1",
  "contractName": "AxelarGateway",
  "sourceName": "contracts/axelar/AxelarGateway.sol",
  "abi": [
    {
      "inputs": [
        {
          "internalType": "address",
          "name": "authModule_",
          "type": "address"
        },
        {
          "internalType": "address",
          "name": "tokenDeployer_",
          "type": "address"
        }
      ],
      "stateMutability": "nonpayable",
      "type": "constructor"
    },
    {
      "inputs": [
        {
          "internalType": "string",
          "name": "symbol",
          "type": "string"
        }
      ],
      "name": "BurnFailed",
      "type": "error"
    },
    {
      "inputs": [
        {
          "internalType": "string",
          "name": "symbol",
          "type": "string"
        }
      ],
      "name": "ExceedMintLimit",
      "type": "error"
    },
    {
      "inputs": [],
      "name": "InvalidAmount",
      "type": "error"
    },
    {
      "inputs": [],
      "name": "InvalidAuthModule",
      "type": "error"
    },
    {
      "inputs": [],
      "name": "InvalidChainId",
      "type": "error"
    },
    {
      "inputs": [],
      "name": "InvalidCodeHash",
      "type": "error"
    },
    {
      "inputs": [],
      "name": "InvalidCommands",
      "type": "error"
    },
    {
      "inputs": [],
      "name": "InvalidGovernance",
      "type": "error"
    },
    {
      "inputs": [],
      "name": "InvalidImplementation",
      "type": "error"
    },
    {
      "inputs": [],
      "name": "InvalidMintLimiter",
      "type": "error"
    },
    {
      "inputs": [],
      "name": "InvalidSetMintLimitsParams",
      "type": "error"
    },
    {
      "inputs": [],
      "name": "InvalidTokenDeployer",
      "type": "error"
    },
    {
      "inputs": [
        {
          "internalType": "string",
          "name": "symbol",
          "type": "string"
        }
      ],
      "name": "MintFailed",
      "type": "error"
    },
    {
      "inputs": [],
      "name": "NotGovernance",
      "type": "error"
    },
    {
      "inputs": [],
      "name": "NotMintLimiter",
      "type": "error"
    },
    {
      "inputs": [],
      "name": "NotProxy",
      "type": "error"
    },
    {
      "inputs": [],
      "name": "NotSelf",
      "type": "error"
    },
    {
      "inputs": [],
      "name": "SetupFailed",
      "type": "error"
    },
    {
      "inputs": [
        {
          "internalType": "string",
          "name": "symbol",
          "type": "string"
        }
      ],
      "name": "TokenAlreadyExists",
      "type": "error"
    },
    {
      "inputs": [
        {
          "internalType": "address",
          "name": "token",
          "type": "address"
        }
      ],
      "name": "TokenContractDoesNotExist",
      "type": "error"
    },
    {
      "inputs": [
        {
          "internalType": "string",
          "name": "symbol",
          "type": "string"
        }
      ],
      "name": "TokenDeployFailed",
      "type": "error"
    },
    {
      "inputs": [
        {
          "internalType": "string",
          "name": "symbol",
          "type": "string"
        }
      ],
      "name": "TokenDoesNotExist",
      "type": "error"
    },
    {
      "inputs": [],
      "name": "TokenTransferFailed",
      "type": "error"
    },
    {
      "anonymous": false,
      "inputs": [
        {
          "indexed": false,
          "internalType": "bytes4",
          "name": "commandSelector",
          "type": "bytes4"
        }
      ],
      "name": "CommandSelector",
      "type": "event"
    },
    {
      "anonymous": false,
      "inputs": [
        {
          "indexed": true,
          "internalType": "address",
          "name": "sender",
          "type": "address"
        },
        {
          "indexed": false,
          "internalType": "string",
          "name": "destinationChain",
          "type": "string"
        },
        {
          "indexed": false,
          "internalType": "string",
          "name": "destinationContractAddress",
          "type": "string"
        },
        {
          "indexed": true,
          "internalType": "bytes32",
          "name": "payloadHash",
          "type": "bytes32"
        },
        {
          "indexed": false,
          "internalType": "bytes",
          "name": "payload",
          "type": "bytes"
        }
      ],
      "name": "ContractCall",
      "type": "event"
    },
    {
      "anonymous": false,
      "inputs": [
        {
          "indexed": true,
          "internalType": "bytes32",
          "name": "commandId",
          "type": "bytes32"
        },
        {
          "indexed": false,
          "internalType": "string",
          "name": "sourceChain",
          "type": "string"
        },
        {
          "indexed": false,
          "internalType": "string",
          "name": "sourceAddress",
          "type": "string"
        },
        {
          "indexed": true,
          "internalType": "address",
          "name": "contractAddress",
          "type": "address"
        },
        {
          "indexed": true,
          "internalType": "bytes32",
          "name": "payloadHash",
          "type": "bytes32"
        },
        {
          "indexed": false,
          "internalType": "bytes32",
          "name": "sourceTxHash",
          "type": "bytes32"
        },
        {
          "indexed": false,
          "internalType": "uint256",
          "name": "sourceEventIndex",
          "type": "uint256"
        }
      ],
      "name": "ContractCallApproved",
      "type": "event"
    },
    {
      "anonymous": false,
      "inputs": [
        {
          "indexed": true,
          "internalType": "bytes32",
          "name": "commandId",
          "type": "bytes32"
        },
        {
          "indexed": false,
          "internalType": "string",
          "name": "sourceChain",
          "type": "string"
        },
        {
          "indexed": false,
          "internalType": "string",
          "name": "sourceAddress",
          "type": "string"
        },
        {
          "indexed": true,
          "internalType": "address",
          "name": "contractAddress",
          "type": "address"
        },
        {
          "indexed": true,
          "internalType": "bytes32",
          "name": "payloadHash",
          "type": "bytes32"
        },
        {
          "indexed": false,
          "internalType": "string",
          "name": "symbol",
          "type": "string"
        },
        {
          "indexed": false,
          "internalType": "uint256",
          "name": "amount",
          "type": "uint256"
        },
        {
          "indexed": false,
          "internalType": "bytes32",
          "name": "sourceTxHash",
          "type": "bytes32"
        },
        {
          "indexed": false,
          "internalType": "uint256",
          "name": "sourceEventIndex",
          "type": "uint256"
        }
      ],
      "name": "ContractCallApprovedWithMint",
      "type": "event"
    },
    {
      "anonymous": false,
      "inputs": [
        {
          "indexed": true,
          "internalType": "bytes32",
          "name": "commandId",
          "type": "bytes32"
        }
      ],
      "name": "ContractCallExecuted",
      "type": "event"
    },
    {
      "anonymous": false,
      "inputs": [
        {
          "indexed": true,
          "internalType": "address",
          "name": "sender",
          "type": "address"
        },
        {
          "indexed": false,
          "internalType": "string",
          "name": "destinationChain",
          "type": "string"
        },
        {
          "indexed": false,
          "internalType": "string",
          "name": "destinationContractAddress",
          "type": "string"
        },
        {
          "indexed": true,
          "internalType": "bytes32",
          "name": "payloadHash",
          "type": "bytes32"
        },
        {
          "indexed": false,
          "internalType": "bytes",
          "name": "payload",
          "type": "bytes"
        },
        {
          "indexed": false,
          "internalType": "string",
          "name": "symbol",
          "type": "string"
        },
        {
          "indexed": false,
          "internalType": "uint256",
          "name": "amount",
          "type": "uint256"
        }
      ],
      "name": "ContractCallWithToken",
      "type": "event"
    },
    {
      "anonymous": false,
      "inputs": [
        {
          "indexed": false,
          "internalType": "uint256",
          "name": "chainId",
          "type": "uint256"
        },
        {
          "indexed": false,
          "internalType": "bytes32[]",
          "name": "commandIds",
          "type": "bytes32[]"
        },
        {
          "indexed": false,
          "internalType": "string[]",
          "name": "commands",
          "type": "string[]"
        },
        {
          "indexed": false,
          "internalType": "bytes[]",
          "name": "params",
          "type": "bytes[]"
        }
      ],
      "name": "DecodedData",
      "type": "event"
    },
    {
      "anonymous": false,
      "inputs": [
        {
          "indexed": false,
          "internalType": "bytes",
          "name": "data",
          "type": "bytes"
        },
        {
          "indexed": false,
          "internalType": "bytes",
          "name": "proof",
          "type": "bytes"
        }
      ],
      "name": "DecodedParam",
      "type": "event"
    },
    {
      "anonymous": false,
      "inputs": [],
      "name": "ExecuteInit",
      "type": "event"
    },
    {
      "anonymous": false,
      "inputs": [
        {
          "indexed": true,
          "internalType": "bytes32",
          "name": "commandId",
          "type": "bytes32"
        }
      ],
      "name": "Executed",
      "type": "event"
    },
    {
      "anonymous": false,
      "inputs": [
        {
          "indexed": true,
          "internalType": "address",
          "name": "previousGovernance",
          "type": "address"
        },
        {
          "indexed": true,
          "internalType": "address",
          "name": "newGovernance",
          "type": "address"
        }
      ],
      "name": "GovernanceTransferred",
      "type": "event"
    },
    {
      "anonymous": false,
      "inputs": [
        {
          "indexed": true,
          "internalType": "address",
          "name": "previousGovernance",
          "type": "address"
        },
        {
          "indexed": true,
          "internalType": "address",
          "name": "newGovernance",
          "type": "address"
        }
      ],
      "name": "MintLimiterTransferred",
      "type": "event"
    },
    {
      "anonymous": false,
      "inputs": [
        {
          "indexed": false,
          "internalType": "bytes",
          "name": "newOperatorsData",
          "type": "bytes"
        }
      ],
      "name": "OperatorshipTransferred",
      "type": "event"
    },
    {
      "anonymous": false,
      "inputs": [],
      "name": "ProofValidated",
      "type": "event"
    },
    {
      "anonymous": false,
      "inputs": [],
      "name": "SetCommandSelectorSuccess",
      "type": "event"
    },
    {
      "anonymous": false,
      "inputs": [],
      "name": "SignMessageHash",
      "type": "event"
    },
    {
      "anonymous": false,
      "inputs": [
        {
          "indexed": false,
          "internalType": "string",
          "name": "symbol",
          "type": "string"
        },
        {
          "indexed": false,
          "internalType": "address",
          "name": "tokenAddresses",
          "type": "address"
        }
      ],
      "name": "TokenDeployed",
      "type": "event"
    },
    {
      "anonymous": false,
      "inputs": [
        {
          "indexed": false,
          "internalType": "string",
          "name": "symbol",
          "type": "string"
        },
        {
          "indexed": false,
          "internalType": "uint256",
          "name": "limit",
          "type": "uint256"
        }
      ],
      "name": "TokenMintLimitUpdated",
      "type": "event"
    },
    {
      "anonymous": false,
      "inputs": [
        {
          "indexed": true,
          "internalType": "address",
          "name": "sender",
          "type": "address"
        },
        {
          "indexed": false,
          "internalType": "string",
          "name": "destinationChain",
          "type": "string"
        },
        {
          "indexed": false,
          "internalType": "string",
          "name": "destinationAddress",
          "type": "string"
        },
        {
          "indexed": false,
          "internalType": "string",
          "name": "symbol",
          "type": "string"
        },
        {
          "indexed": false,
          "internalType": "uint256",
          "name": "amount",
          "type": "uint256"
        }
      ],
      "name": "TokenSent",
      "type": "event"
    },
    {
      "anonymous": false,
      "inputs": [
        {
          "indexed": true,
          "internalType": "address",
          "name": "implementation",
          "type": "address"
        }
      ],
      "name": "Upgraded",
      "type": "event"
    },
    {
      "inputs": [],
      "name": "allTokensFrozen",
      "outputs": [
        {
          "internalType": "bool",
          "name": "",
          "type": "bool"
        }
      ],
      "stateMutability": "pure",
      "type": "function"
    },
    {
      "inputs": [
        {
          "internalType": "bytes",
          "name": "params",
          "type": "bytes"
        },
        {
          "internalType": "bytes32",
          "name": "commandId",
          "type": "bytes32"
        }
      ],
      "name": "approveContractCall",
      "outputs": [],
      "stateMutability": "nonpayable",
      "type": "function"
    },
    {
      "inputs": [
        {
          "internalType": "bytes",
          "name": "params",
          "type": "bytes"
        },
        {
          "internalType": "bytes32",
          "name": "commandId",
          "type": "bytes32"
        }
      ],
      "name": "approveContractCallWithMint",
      "outputs": [],
      "stateMutability": "nonpayable",
      "type": "function"
    },
    {
      "inputs": [],
      "name": "authModule",
      "outputs": [
        {
          "internalType": "address",
          "name": "",
          "type": "address"
        }
      ],
      "stateMutability": "view",
      "type": "function"
    },
    {
      "inputs": [
        {
          "internalType": "bytes",
          "name": "params",
          "type": "bytes"
        },
        {
          "internalType": "bytes32",
          "name": "",
          "type": "bytes32"
        }
      ],
      "name": "burnToken",
      "outputs": [],
      "stateMutability": "nonpayable",
      "type": "function"
    },
    {
      "inputs": [
        {
          "internalType": "string",
          "name": "destinationChain",
          "type": "string"
        },
        {
          "internalType": "string",
          "name": "destinationContractAddress",
          "type": "string"
        },
        {
          "internalType": "bytes",
          "name": "payload",
          "type": "bytes"
        }
      ],
      "name": "callContract",
      "outputs": [],
      "stateMutability": "nonpayable",
      "type": "function"
    },
    {
      "inputs": [
        {
          "internalType": "string",
          "name": "destinationChain",
          "type": "string"
        },
        {
          "internalType": "string",
          "name": "destinationContractAddress",
          "type": "string"
        },
        {
          "internalType": "bytes",
          "name": "payload",
          "type": "bytes"
        },
        {
          "internalType": "string",
          "name": "symbol",
          "type": "string"
        },
        {
          "internalType": "uint256",
          "name": "amount",
          "type": "uint256"
        }
      ],
      "name": "callContractWithToken",
      "outputs": [],
      "stateMutability": "nonpayable",
      "type": "function"
    },
    {
      "inputs": [],
      "name": "contractId",
      "outputs": [
        {
          "internalType": "bytes32",
          "name": "",
          "type": "bytes32"
        }
      ],
      "stateMutability": "pure",
      "type": "function"
    },
    {
      "inputs": [
        {
          "internalType": "bytes",
          "name": "params",
          "type": "bytes"
        },
        {
          "internalType": "bytes32",
          "name": "",
          "type": "bytes32"
        }
      ],
      "name": "deployToken",
      "outputs": [],
      "stateMutability": "nonpayable",
      "type": "function"
    },
    {
      "inputs": [
        {
          "internalType": "bytes",
          "name": "input",
          "type": "bytes"
        }
      ],
      "name": "execute",
      "outputs": [],
      "stateMutability": "nonpayable",
      "type": "function"
    },
    {
      "inputs": [
        {
          "internalType": "bytes",
          "name": "input",
          "type": "bytes"
        }
      ],
      "name": "execute1",
      "outputs": [],
      "stateMutability": "nonpayable",
      "type": "function"
    },
    {
      "inputs": [
        {
          "internalType": "bytes",
          "name": "input",
          "type": "bytes"
        }
      ],
      "name": "execute2",
      "outputs": [],
      "stateMutability": "nonpayable",
      "type": "function"
    },
    {
      "inputs": [
        {
          "internalType": "bytes",
          "name": "input",
          "type": "bytes"
        }
      ],
      "name": "execute3",
      "outputs": [],
      "stateMutability": "nonpayable",
      "type": "function"
    },
    {
      "inputs": [
        {
          "internalType": "bytes",
          "name": "input",
          "type": "bytes"
        }
      ],
      "name": "execute4",
      "outputs": [],
      "stateMutability": "nonpayable",
      "type": "function"
    },
    {
      "inputs": [
        {
          "internalType": "bytes32",
          "name": "key",
          "type": "bytes32"
        }
      ],
      "name": "getAddress",
      "outputs": [
        {
          "internalType": "address",
          "name": "",
          "type": "address"
        }
      ],
      "stateMutability": "view",
      "type": "function"
    },
    {
      "inputs": [
        {
          "internalType": "bytes32",
          "name": "key",
          "type": "bytes32"
        }
      ],
      "name": "getBool",
      "outputs": [
        {
          "internalType": "bool",
          "name": "",
          "type": "bool"
        }
      ],
      "stateMutability": "view",
      "type": "function"
    },
    {
      "inputs": [
        {
          "internalType": "bytes32",
          "name": "key",
          "type": "bytes32"
        }
      ],
      "name": "getBytes",
      "outputs": [
        {
          "internalType": "bytes",
          "name": "",
          "type": "bytes"
        }
      ],
      "stateMutability": "view",
      "type": "function"
    },
    {
      "inputs": [
        {
          "internalType": "bytes32",
          "name": "key",
          "type": "bytes32"
        }
      ],
      "name": "getInt",
      "outputs": [
        {
          "internalType": "int256",
          "name": "",
          "type": "int256"
        }
      ],
      "stateMutability": "view",
      "type": "function"
    },
    {
      "inputs": [
        {
          "internalType": "bytes32",
          "name": "key",
          "type": "bytes32"
        }
      ],
      "name": "getString",
      "outputs": [
        {
          "internalType": "string",
          "name": "",
          "type": "string"
        }
      ],
      "stateMutability": "view",
      "type": "function"
    },
    {
      "inputs": [
        {
          "internalType": "bytes32",
          "name": "key",
          "type": "bytes32"
        }
      ],
      "name": "getUint",
      "outputs": [
        {
          "internalType": "uint256",
          "name": "",
          "type": "uint256"
        }
      ],
      "stateMutability": "view",
      "type": "function"
    },
    {
      "inputs": [],
      "name": "governance",
      "outputs": [
        {
          "internalType": "address",
          "name": "",
          "type": "address"
        }
      ],
      "stateMutability": "view",
      "type": "function"
    },
    {
      "inputs": [],
      "name": "implementation",
      "outputs": [
        {
          "internalType": "address",
          "name": "",
          "type": "address"
        }
      ],
      "stateMutability": "view",
      "type": "function"
    },
    {
      "inputs": [
        {
          "internalType": "bytes32",
          "name": "commandId",
          "type": "bytes32"
        }
      ],
      "name": "isCommandExecuted",
      "outputs": [
        {
          "internalType": "bool",
          "name": "",
          "type": "bool"
        }
      ],
      "stateMutability": "view",
      "type": "function"
    },
    {
      "inputs": [
        {
          "internalType": "bytes32",
          "name": "commandId",
          "type": "bytes32"
        },
        {
          "internalType": "string",
          "name": "sourceChain",
          "type": "string"
        },
        {
          "internalType": "string",
          "name": "sourceAddress",
          "type": "string"
        },
        {
          "internalType": "address",
          "name": "contractAddress",
          "type": "address"
        },
        {
          "internalType": "bytes32",
          "name": "payloadHash",
          "type": "bytes32"
        },
        {
          "internalType": "string",
          "name": "symbol",
          "type": "string"
        },
        {
          "internalType": "uint256",
          "name": "amount",
          "type": "uint256"
        }
      ],
      "name": "isContractCallAndMintApproved",
      "outputs": [
        {
          "internalType": "bool",
          "name": "",
          "type": "bool"
        }
      ],
      "stateMutability": "view",
      "type": "function"
    },
    {
      "inputs": [
        {
          "internalType": "bytes32",
          "name": "commandId",
          "type": "bytes32"
        },
        {
          "internalType": "string",
          "name": "sourceChain",
          "type": "string"
        },
        {
          "internalType": "string",
          "name": "sourceAddress",
          "type": "string"
        },
        {
          "internalType": "address",
          "name": "contractAddress",
          "type": "address"
        },
        {
          "internalType": "bytes32",
          "name": "payloadHash",
          "type": "bytes32"
        }
      ],
      "name": "isContractCallApproved",
      "outputs": [
        {
          "internalType": "bool",
          "name": "",
          "type": "bool"
        }
      ],
      "stateMutability": "view",
      "type": "function"
    },
    {
      "inputs": [],
      "name": "mintLimiter",
      "outputs": [
        {
          "internalType": "address",
          "name": "",
          "type": "address"
        }
      ],
      "stateMutability": "view",
      "type": "function"
    },
    {
      "inputs": [
        {
          "internalType": "bytes",
          "name": "params",
          "type": "bytes"
        },
        {
          "internalType": "bytes32",
          "name": "",
          "type": "bytes32"
        }
      ],
      "name": "mintToken",
      "outputs": [],
      "stateMutability": "nonpayable",
      "type": "function"
    },
    {
      "inputs": [
        {
          "internalType": "string",
          "name": "destinationChain",
          "type": "string"
        },
        {
          "internalType": "string",
          "name": "destinationAddress",
          "type": "string"
        },
        {
          "internalType": "string",
          "name": "symbol",
          "type": "string"
        },
        {
          "internalType": "uint256",
          "name": "amount",
          "type": "uint256"
        }
      ],
      "name": "sendToken",
      "outputs": [],
      "stateMutability": "nonpayable",
      "type": "function"
    },
    {
      "inputs": [
        {
          "internalType": "string[]",
          "name": "symbols",
          "type": "string[]"
        },
        {
          "internalType": "uint256[]",
          "name": "limits",
          "type": "uint256[]"
        }
      ],
      "name": "setTokenMintLimits",
      "outputs": [],
      "stateMutability": "nonpayable",
      "type": "function"
    },
    {
      "inputs": [
        {
          "internalType": "bytes",
          "name": "params",
          "type": "bytes"
        }
      ],
      "name": "setup",
      "outputs": [],
      "stateMutability": "nonpayable",
      "type": "function"
    },
    {
      "inputs": [
        {
          "internalType": "string",
          "name": "symbol",
          "type": "string"
        }
      ],
      "name": "tokenAddresses",
      "outputs": [
        {
          "internalType": "address",
          "name": "",
          "type": "address"
        }
      ],
      "stateMutability": "view",
      "type": "function"
    },
    {
      "inputs": [],
      "name": "tokenDeployer",
      "outputs": [
        {
          "internalType": "address",
          "name": "",
          "type": "address"
        }
      ],
      "stateMutability": "view",
      "type": "function"
    },
    {
      "inputs": [
        {
          "internalType": "string",
          "name": "",
          "type": "string"
        }
      ],
      "name": "tokenFrozen",
      "outputs": [
        {
          "internalType": "bool",
          "name": "",
          "type": "bool"
        }
      ],
      "stateMutability": "pure",
      "type": "function"
    },
    {
      "inputs": [
        {
          "internalType": "string",
          "name": "symbol",
          "type": "string"
        }
      ],
      "name": "tokenMintAmount",
      "outputs": [
        {
          "internalType": "uint256",
          "name": "",
          "type": "uint256"
        }
      ],
      "stateMutability": "view",
      "type": "function"
    },
    {
      "inputs": [
        {
          "internalType": "string",
          "name": "symbol",
          "type": "string"
        }
      ],
      "name": "tokenMintLimit",
      "outputs": [
        {
          "internalType": "uint256",
          "name": "",
          "type": "uint256"
        }
      ],
      "stateMutability": "view",
      "type": "function"
    },
    {
      "inputs": [
        {
          "internalType": "address",
          "name": "newGovernance",
          "type": "address"
        }
      ],
      "name": "transferGovernance",
      "outputs": [],
      "stateMutability": "nonpayable",
      "type": "function"
    },
    {
      "inputs": [
        {
          "internalType": "address",
          "name": "newMintLimiter",
          "type": "address"
        }
      ],
      "name": "transferMintLimiter",
      "outputs": [],
      "stateMutability": "nonpayable",
      "type": "function"
    },
    {
      "inputs": [
        {
          "internalType": "bytes",
          "name": "newOperatorsData",
          "type": "bytes"
        },
        {
          "internalType": "bytes32",
          "name": "",
          "type": "bytes32"
        }
      ],
      "name": "transferOperatorship",
      "outputs": [],
      "stateMutability": "nonpayable",
      "type": "function"
    },
    {
      "inputs": [
        {
          "internalType": "address",
          "name": "newImplementation",
          "type": "address"
        },
        {
          "internalType": "bytes32",
          "name": "newImplementationCodeHash",
          "type": "bytes32"
        },
        {
          "internalType": "bytes",
          "name": "setupParams",
          "type": "bytes"
        }
      ],
      "name": "upgrade",
      "outputs": [],
      "stateMutability": "nonpayable",
      "type": "function"
    },
    {
      "inputs": [
        {
          "internalType": "bytes32",
          "name": "commandId",
          "type": "bytes32"
        },
        {
          "internalType": "string",
          "name": "sourceChain",
          "type": "string"
        },
        {
          "internalType": "string",
          "name": "sourceAddress",
          "type": "string"
        },
        {
          "internalType": "bytes32",
          "name": "payloadHash",
          "type": "bytes32"
        }
      ],
      "name": "validateContractCall",
      "outputs": [
        {
          "internalType": "bool",
          "name": "valid",
          "type": "bool"
        }
      ],
      "stateMutability": "nonpayable",
      "type": "function"
    },
    {
      "inputs": [
        {
          "internalType": "bytes32",
          "name": "commandId",
          "type": "bytes32"
        },
        {
          "internalType": "string",
          "name": "sourceChain",
          "type": "string"
        },
        {
          "internalType": "string",
          "name": "sourceAddress",
          "type": "string"
        },
        {
          "internalType": "bytes32",
          "name": "payloadHash",
          "type": "bytes32"
        },
        {
          "internalType": "string",
          "name": "symbol",
          "type": "string"
        },
        {
          "internalType": "uint256",
          "name": "amount",
          "type": "uint256"
        }
      ],
      "name": "validateContractCallAndMint",
      "outputs": [
        {
          "internalType": "bool",
          "name": "valid",
          "type": "bool"
        }
      ],
      "stateMutability": "nonpayable",
      "type": "function"
    }
  ],
  "bytecode": "0x60e06040523480156200001157600080fd5b50604051620041f3380380620041f38339810160408190526200003491620000c5565b306080526001600160a01b0382163b600003620000645760405163735326ab60e01b815260040160405180910390fd5b806001600160a01b03163b6000036200009057604051630c84dabf60e31b815260040160405180910390fd5b6001600160a01b0391821660a0521660c052620000fd565b80516001600160a01b0381168114620000c057600080fd5b919050565b60008060408385031215620000d957600080fd5b620000e483620000a8565b9150620000f460208401620000a8565b90509250929050565b60805160a05160c0516140a3620001506000396000818161033201526113670152600081816103b5015281816111ea0152818161157b015281816117700152611d1a0152600061168e01526140a36000f3fe608060405234801561001057600080fd5b50600436106102535760003560e01c80638291286c11610146578063bd02d0f5116100c3578063d26ff21011610087578063d26ff21014610567578063d38bfff41461057a578063d40669761461058d578063dc97d962146105a0578063f6a5f9f5146105c0578063fbe0a31b146105d357600080fd5b8063bd02d0f514610506578063bd217dab14610526578063c031a18014610539578063c82fe87a1461054c578063cec7b3591461055457600080fd5b80639ded06df1161010a5780639ded06df146104b3578063a3499c73146104c6578063aa1e1f0a146104d9578063b5417084146104e0578063bc00c216146104f357600080fd5b80638291286c14610434578063886a625d1461045a578063935b13f61461046d57806397b87ba614610480578063986e791a1461049357600080fd5b80634656ae2e116101d457806364940c561161019857806364940c56146103b057806367ace8eb146103d75780637ae1cfca146103ea5780637b1b769e1461040d5780637c13c8a11461042157600080fd5b80634656ae2e14610367578063585a9fd41461037a5780635aa6e6751461038d5780635c60da1b146103955780635f6970c31461039d57600080fd5b8063224c97781161021b578063224c9778146102e6578063269eb65e146102f957806326ef699d1461031a5780632a2dae0a1461032d57806341d8f26b1461035457600080fd5b806309c5eabe14610258578063146e2d781461026d5780631876eed9146102805780631c92115f146102a857806321f8a721146102bb575b600080fd5b61026b6102663660046128d1565b6105e6565b005b61026b61027b366004612912565b61064f565b61029361028e36600461295d565b610698565b60405190151581526020015b60405180910390f35b61026b6102b6366004612a11565b6107ec565b6102ce6102c9366004612aaa565b610857565b6040516001600160a01b03909116815260200161029f565b61026b6102f43660046128d1565b610872565b61030c610307366004612b86565b6108f1565b60405190815260200161029f565b61026b610328366004612bc2565b610905565b6102ce7f000000000000000000000000000000000000000000000000000000000000000081565b61026b610362366004612c79565b61099d565b61026b610375366004612912565b610a4e565b61026b610388366004612912565b610e13565b6102ce610ec1565b6102ce610edf565b6102936103ab366004612c96565b610f0a565b6102ce7f000000000000000000000000000000000000000000000000000000000000000081565b61026b6103e5366004612d5b565b610fe3565b6102936103f8366004612aaa565b60009081526004602052604090205460ff1690565b61029361041b366004612b86565b50600090565b61026b61042f3660046128d1565b611158565b7fad2ae48b4d93c587cd1f0f8f269b84f57dbe98bbe5c61c4b6d324e6a667b362561030c565b61026b610468366004612912565b611298565b6102ce61047b366004612b86565b6114fd565b61026b61048e366004612912565b61150b565b6104a66104a1366004612aaa565b6115e9565b60405161029f9190612e16565b61026b6104c13660046128d1565b61168b565b61026b6104d4366004612e29565b6117da565b6000610293565b61026b6104ee366004612e78565b6119fd565b610293610501366004612f43565b611ab3565b61030c610514366004612aaa565b60009081526020819052604090205490565b61026b6105343660046128d1565b611b86565b6104a6610547366004612aaa565b611bb3565b6102ce611bd0565b61030c610562366004612b86565b611be9565b610293610575366004612aaa565b611c03565b61026b610588366004612c79565b611c11565b61026b61059b3660046128d1565b611c88565b61030c6105ae366004612aaa565b60009081526005602052604090205490565b6102936105ce366004613010565b611e2f565b61026b6105e1366004612912565b611eb8565b6040517fa3c3d77668df13d1773745f9954afb4b1a542aaab80e68867c90a432fbfb465e90600090a160008061061e838501856130a6565b9150915060008051602061400e8339815191528282604051610641929190613109565b60405180910390a150505050565b33301461066f576040516314e1dbf760e11b815260040160405180910390fd5b6000808061067f85870187613147565b925092509250610690838383611f58565b505050505050565b6000806107498b8b8b8080601f01602080910402602001604051908101604052809392919081815260200183838082843760009201919091525050604080516020601f8f018190048102820181019092528d815292508d91508c908190840183828082843760009201919091525050604080516020601f8d018190048102820181019092528b81523393508d9250908c908c90819084018382808284376000920191909152508c925061204d915050565b60008181526004602052604090205460ff169250905081156107de576107708160006120b1565b6040518b907f91057b069763121972ce22b18b2f319b1520dd4c72f1f94a6395e81ceaf63f4190600090a26107de85858080601f016020809104026020016040519081016040528093929190818152602001838380828437600092019190915250339250879150611f589050565b509998505050505050505050565b81816040516107fc9291906131a0565b6040518091039020336001600160a01b03167f30ae6cc78c27e651745bf2ad08a11de83910ac1e347a52f7ac898c0fbef94dae888888888888604051610847969594939291906131d9565b60405180910390a3505050505050565b6000908152600260205260409020546001600160a01b031690565b600080610881838501856130a6565b9150915060008051602061400e83398151915282826040516108a4929190613109565b60405180910390a160006108be83805190602001206120d1565b6040519091507f9879ae38939ec1d36131e8982fc792e91f2012293b0506bdf2176c6fe69a1dce90600090a15050505050565b60006108ff61051483612125565b92915050565b6109473384848080601f01602080910402602001604051908101604052809392919081815260200183838082843760009201919091525086925061215a915050565b336001600160a01b03167f651d93f66c4329630e8d0f62488eff599e3be484da587335e8dc0fcf460627268888888888888860405161098c9796959493929190613222565b60405180910390a250505050505050565b6109b460008051602061404e833981519152610857565b6001600160a01b0316336001600160a01b0316141580156109fd57506109e760008051602061402e833981519152610857565b6001600160a01b0316336001600160a01b031614155b15610a1b5760405163223aa83d60e11b815260040160405180910390fd5b6001600160a01b038116610a42576040516335e75dcb60e21b815260040160405180910390fd5b610a4b8161230c565b50565b333014610a6e576040516314e1dbf760e11b815260040160405180910390fd5b600080610a7d84860186613273565b915091506000610a8c836114fd565b90506001600160a01b038116610ac0578260405163395d09bf60e11b8152600401610ab79190612e16565b60405180910390fd5b6002610acb8461237a565b6002811115610adc57610adc6132b7565b03610db0576000610b808360405180602001610af79061287c565b601f1982820381018352601f909101166040819052610b1991906020016132cd565b60408051601f1981840301815282825280516020918201206001600160f81b0319848301526bffffffffffffffffffffffff193060601b16602185015260358401949094526055808401949094528151808403909401845260759092019052815191012090565b9050610b94816001600160a01b0316612399565b15610ba25750505050505050565b600083604051610bb19061287c565b8190604051809103906000f5905080158015610bd1573d6000803e3d6000fd5b506040516370a0823160e01b81526001600160a01b038083166004830181905292935060009283929091631cff79cd91889163a9059cbb60e01b9130918416906370a0823190602401602060405180830381865afa158015610c37573d6000803e3d6000fd5b505050506040513d601f19601f82011682018060405250810190610c5b91906132e9565b6040516001600160a01b039092166024830152604482015260640160408051601f198184030181529181526020820180516001600160e01b03166001600160e01b03199485161790525160e085901b9092168252610cbc9291600401613302565b6000604051808303816000875af1158015610cdb573d6000803e3d6000fd5b505050506040513d6000823e601f3d908101601f19168201604052610d039190810190613386565b91509150811580610d305750805115801590610d30575080806020019051810190610d2e91906133c9565b155b15610d50578660405163e217b0ad60e01b8152600401610ab79190612e16565b60405162f55d9d60e01b81523060048201526001600160a01b0384169062f55d9d90602401600060405180830381600087803b158015610d8f57600080fd5b505af1158015610da3573d6000803e3d6000fd5b5050505050505050610690565b6040516308a1eee160e01b8152600481018390526001600160a01b038216906308a1eee190602401600060405180830381600087803b158015610df257600080fd5b505af1158015610e06573d6000803e3d6000fd5b505050505050505b505050565b333014610e33576040516314e1dbf760e11b815260040160405180910390fd5b600080808080808080610e488a8c018c6133e4565b97509750975097509750975097509750610e67898989898989896123dc565b84866001600160a01b03168a7f9991faa1f435675159ffae64b66d7ecfdb55c29755869a18db8497b4392347e08b8b89898989604051610eac969594939291906134a1565b60405180910390a45050505050505050505050565b6000610eda60008051602061402e833981519152610857565b905090565b6000610eda7f360894a13ba1a3210667c828492db98dca3e2076cc3735a920a3ca505d382bbc610857565b600080610f858888888080601f01602080910402602001604051908101604052809392919081815260200183838082843760009201919091525050604080516020601f8c018190048102820181019092528a815292508a91508990819084018382808284376000920191909152503392508991506123f59050565b60008181526004602052604090205460ff16925090508115610fd857610fac8160006120b1565b60405188907f91057b069763121972ce22b18b2f319b1520dd4c72f1f94a6395e81ceaf63f4190600090a25b509695505050505050565b610ffa60008051602061404e833981519152610857565b6001600160a01b0316336001600160a01b031614158015611043575061102d60008051602061402e833981519152610857565b6001600160a01b0316336001600160a01b031614155b156110615760405163223aa83d60e11b815260040160405180910390fd5b82818114611082576040516314a2275f60e01b815260040160405180910390fd5b60005b818110156106905760008686838181106110a1576110a16134f9565b90506020028101906110b3919061350f565b8080601f01602080910402602001604051908101604052809392919081815260200183838082843760009201829052509394508892508791508590508181106110fe576110fe6134f9565b90506020020135905060006001600160a01b031661111b836114fd565b6001600160a01b031603611144578160405163395d09bf60e11b8152600401610ab79190612e16565b61114e8282612453565b5050600101611085565b600080611167838501856130a6565b9150915060008051602061400e833981519152828260405161118a929190613109565b60405180910390a160006111a483805190602001206120d1565b6040519091507f9879ae38939ec1d36131e8982fc792e91f2012293b0506bdf2176c6fe69a1dce90600090a16040516339f1eb3560e11b81526000906001600160a01b037f000000000000000000000000000000000000000000000000000000000000000016906373e3d66a906112219085908790600401613555565b6020604051808303816000875af1158015611240573d6000803e3d6000fd5b505050506040513d601f19601f8201168201806040525081019061126491906133c9565b6040519091507f0b3d9151590daf4dbc78d33d371aeeec2e0a87d154082dc641e6a70bfbd1cb4890600090a1505050505050565b3330146112b8576040516314e1dbf760e11b815260040160405180910390fd5b600080808080806112cb888a018a61356e565b95509550955095509550955060006001600160a01b03166112eb866114fd565b6001600160a01b031614611314578460405163553f459960e11b8152600401610ab79190612e16565b61131e8582612453565b6001600160a01b0382166114715760008560405160200161133f91906132cd565b6040516020818303038152906040528051906020012090506113628660016124af565b6000807f00000000000000000000000000000000000000000000000000000000000000006001600160a01b0316636fc95b3460e01b8a8a8a8a886040516024016113b0959493929190613610565b60408051601f198184030181529181526020820180516001600160e01b03166001600160e01b03199094169390931790925290516113ee91906132cd565b600060405180830381855af49150503d8060008114611429576040519150601f19603f3d011682016040523d82523d6000602084013e61142e565b606091505b50915091508161145357876040516386d5274360e01b8152600401610ab79190612e16565b808060200190518101906114679190613656565b94505050506114af565b6001600160a01b0382163b6114a4576040516362e66eef60e11b81526001600160a01b0383166004820152602401610ab7565b6114af8560026124af565b7fbf90b5a1ec9763e8bf4b9245cef0c28db92bab309fc2c5177f17814f3824693885836040516114e0929190613673565b60405180910390a16114f285836124df565b505050505050505050565b60006108ff6102c9836124f1565b33301461152b576040516314e1dbf760e11b815260040160405180910390fd5b7f192e759e55f359cd9832b5c0c6e38e4b6df5c5ca33f3bd5c90738e865a521872838360405161155c92919061369d565b60405180910390a160405163d289d1cb60e01b81526001600160a01b037f0000000000000000000000000000000000000000000000000000000000000000169063d289d1cb906115b2908690869060040161369d565b600060405180830381600087803b1580156115cc57600080fd5b505af11580156115e0573d6000803e3d6000fd5b50505050505050565b6000818152600160205260409020805460609190611606906136b1565b80601f0160208091040260200160405190810160405280929190818152602001828054611632906136b1565b801561167f5780601f106116545761010080835404028352916020019161167f565b820191906000526020600020905b81548152906001019060200180831161166257829003601f168201915b50505050509050919050565b307f00000000000000000000000000000000000000000000000000000000000000006001600160a01b0316036116d457604051635f886e9d60e11b815260040160405180910390fd5b600080806116e4848601866136eb565b919450925090506001600160a01b038316156117035761170383612526565b6001600160a01b0382161561171b5761171b8261230c565b8051156117d3577f192e759e55f359cd9832b5c0c6e38e4b6df5c5ca33f3bd5c90738e865a521872816040516117519190612e16565b60405180910390a160405163d289d1cb60e01b81526001600160a01b037f0000000000000000000000000000000000000000000000000000000000000000169063d289d1cb906117a5908490600401612e16565b600060405180830381600087803b1580156117bf57600080fd5b505af11580156114f2573d6000803e3d6000fd5b5050505050565b6117f160008051602061402e833981519152610857565b6001600160a01b0316336001600160a01b03161461182257604051632d5be4cb60e21b815260040160405180910390fd5b836001600160a01b03163f831461184c576040516323e13ec960e21b815260040160405180910390fd5b836001600160a01b0316638291286c6040518163ffffffff1660e01b8152600401602060405180830381865afa15801561188a573d6000803e3d6000fd5b505050506040513d601f19601f820116820180604052508101906118ae91906132e9565b7fad2ae48b4d93c587cd1f0f8f269b84f57dbe98bbe5c61c4b6d324e6a667b3625146118ed5760405163340aafcd60e11b815260040160405180910390fd5b6040516001600160a01b038516907fbc7cd75a20ee27fd9adebab32041f755214dbc6bffa90cc0225b39da2e5c2d3b90600090a261192a84612594565b80156119f7576000846001600160a01b0316639ded06df60e01b848460405160240161195792919061369d565b60408051601f198184030181529181526020820180516001600160e01b03166001600160e01b031990941693909317909252905161199591906132cd565b600060405180830381855af49150503d80600081146119d0576040519150601f19603f3d011682016040523d82523d6000602084013e6119d5565b606091505b50509050806117d3576040516397905dfb60e01b815260040160405180910390fd5b50505050565b611a3f3384848080601f01602080910402602001604051908101604052809392919081815260200183838082843760009201919091525086925061215a915050565b8484604051611a4f9291906131a0565b6040518091039020336001600160a01b03167f7e50569d26be643bda7757722291ec66b1be66d8283474ae3fab5a98f878a7a28b8b8b8b8b8b8b8b8b604051611aa09998979695949392919061374c565b60405180910390a3505050505050505050565b6000611b776103f88c8c8c8080601f016020809104026020016040519081016040528093929190818152602001838380828437600081840152601f19601f820116905080830192505050505050508b8b8080601f01602080910402602001604051908101604052809392919081815260200183838082843760009201919091525050604080516020601f8d018190048102820181019092528b81528e93508d9250908c908c90819084018382808284376000920191909152508c925061204d915050565b9b9a5050505050505050505050565b6040517fa3c3d77668df13d1773745f9954afb4b1a542aaab80e68867c90a432fbfb465e90600090a15050565b6000818152600360205260409020805460609190611606906136b1565b6000610eda60008051602061404e833981519152610857565b60006108ff61051483611bfe615460426137b4565b6125be565b60006108ff6103f883612613565b611c2860008051602061402e833981519152610857565b6001600160a01b0316336001600160a01b031614611c5957604051632d5be4cb60e21b815260040160405180910390fd5b6001600160a01b038116611c7f576040516218c61b60e21b815260040160405180910390fd5b610a4b81612526565b600080611c97838501856130a6565b9150915060008051602061400e8339815191528282604051611cba929190613109565b60405180910390a16000611cd483805190602001206120d1565b6040519091507f9879ae38939ec1d36131e8982fc792e91f2012293b0506bdf2176c6fe69a1dce90600090a16040516339f1eb3560e11b81526000906001600160a01b037f000000000000000000000000000000000000000000000000000000000000000016906373e3d66a90611d519085908790600401613555565b6020604051808303816000875af1158015611d70573d6000803e3d6000fd5b505050506040513d601f19601f82011682018060405250810190611d9491906133c9565b6040519091507f0b3d9151590daf4dbc78d33d371aeeec2e0a87d154082dc641e6a70bfbd1cb4890600090a16000606080606087806020019051810190611ddb919061390c565b604051939750919550935091507f699804160af1ffd7198bfc1d6ba8fb52d9bcc3700a6494e929a688b52eb7e1f090611e1b908690869086908690613a4f565b60405180910390a150505050505050505050565b6000611eac6103f88989898080601f01602080910402602001604051908101604052809392919081815260200183838082843760009201919091525050604080516020601f8d018190048102820181019092528b815292508b91508a90819084018382808284376000920191909152508a92508991506123f59050565b98975050505050505050565b333014611ed8576040516314e1dbf760e11b815260040160405180910390fd5b60008080808080611eeb888a018a613af5565b955095509550955095509550611f04878787878761264e565b82846001600160a01b0316887f44e4f8f6bd682c5a3aeba93601ab07cb4d1f21b2aab1ae4880d9577919309aa489898787604051611f459493929190613b86565b60405180910390a4505050505050505050565b6000611f63846114fd565b90506001600160a01b038116611f8e578360405163395d09bf60e11b8152600401610ab79190612e16565b611fab8483611f9c87611be9565b611fa69190613bbf565b61265e565b6002611fb68561237a565b6002811115611fc757611fc76132b7565b03611fe557611fe06001600160a01b03821684846126c0565b6119f7565b6040516340c10f1960e01b81526001600160a01b038481166004830152602482018490528216906340c10f1990604401600060405180830381600087803b15801561202f57600080fd5b505af1158015612043573d6000803e3d6000fd5b5050505050505050565b60007fb7ad972b71475860613db3ba1fe699b886c878f9002a09250dc25e769eb19a108888888888888860405160200161208e989796959493929190613be0565b604051602081830303815290604052805190602001209050979650505050505050565b600091825260046020526040909120805460ff1916911515919091179055565b6040517f19457468657265756d205369676e6564204d6573736167653a0a3332000000006020820152603c8101829052600090605c015b604051602081830303815290604052805190602001209050919050565b60007feee9348b4aaba3647b1612b2724f18e93b9299da26fb321c7b3fda135d7dea8782604051602001612108929190613c54565b6000612165836114fd565b90506001600160a01b038116612190578260405163395d09bf60e11b8152600401610ab79190612e16565b816000036121b15760405163162908e360e11b815260040160405180910390fd5b60006121bc8461237a565b905060028160028111156121d2576121d26132b7565b036121f1576121ec6001600160a01b038316863086612723565b6117d3565b6001816002811115612205576122056132b7565b0361225e57604080516001600160a01b03878116602483015260448083018790528351808403909101815260649092019092526020810180516001600160e01b031663079cc67960e41b1790526121ec9184169061275b565b604051630c7bb2bd60e21b8152600060048201526122df9086906001600160a01b038516906331eecaf490602401602060405180830381865afa1580156122a9573d6000803e3d6000fd5b505050506040513d601f19601f820116820180604052508101906122cd9190613656565b6001600160a01b038516919086612723565b6040516308a1eee160e01b8152600060048201526001600160a01b038316906308a1eee1906024016117a5565b6001600160a01b03811661232d60008051602061404e833981519152610857565b6001600160a01b03167fa9303c860c5de3c0c866c354d281785c89778ac5ca2dffdf12841c45cd4e1e6e60405160405180910390a3610a4b60008051602061404e83398151915282612819565b600061238861051483612847565b60028111156108ff576108ff6132b7565b60006001600160a01b0382163f80158015906123d557507fc5d2460186f7233c927e7db2dcc703c0e500b653ca82273b7bfad8045d85a4708114155b9392505050565b6115e06123ee8888888888888861204d565b60016120b1565b60007f07b0d4304f82012bd3b70b1d531c160e326067c90829e2a3d386722ad10b89c3868686868660405160200161243296959493929190613c7a565b60405160208183030381529060405280519060200120905095945050505050565b7fd99446c1d76385bb5519ccfb5274abcfd5896dfc22405e40010fde217f018a188282604051612484929190613cca565b60405180910390a16124ab61249883612125565b8260009182526020829052604090912055565b5050565b6124ab6124bb83612847565b8260028111156124cd576124cd6132b7565b60009182526020829052604090912055565b6124ab6124eb836124f1565b82612819565b60007fc4e632779a6a7838736dd7e5e6a0eadf171dd37dfb6230720e265576dfcf42bb82604051602001612108929190613c54565b6001600160a01b03811661254760008051602061402e833981519152610857565b6001600160a01b03167f5f56bee8cffbe9a78652a74a60705edede02af10b0bbb888ca44b79a0d42ce8060405160405180910390a3610a4b60008051602061402e83398151915282612819565b610a4b7f360894a13ba1a3210667c828492db98dca3e2076cc3735a920a3ca505d382bbc82612819565b60007f2f8851fe0d6d537e552a4f25b7a3167d48eb1292622c71d84630a2a44757bced83836040516020016125f593929190613cec565b60405160208183030381529060405280519060200120905092915050565b604080517f957705a374326b30f4a1069c936d736cc9993ed6c820b4e0e2fd94a8beca0d1d6020820152908101829052600090606001612108565b6117d36123ee86868686866123f5565b6000612669836108f1565b905060008111801561267a57508082115b1561269a578260405163037f60e560e01b8152600401610ab79190612e16565b610e0e6126ad84611bfe615460426137b4565b8360009182526020829052604090912055565b6040516001600160a01b038316602482015260448101829052610e0e90849063a9059cbb60e01b906064015b60408051601f198184030181529190526020810180516001600160e01b03166001600160e01b03199093169290921790915261275b565b6040516001600160a01b03808516602483015283166044820152606481018290526119f79085906323b872dd60e01b906084016126ec565b600080836001600160a01b03168360405161277691906132cd565b6000604051808303816000865af19150503d80600081146127b3576040519150601f19603f3d011682016040523d82523d6000602084013e6127b8565b606091505b509150915060008280156127e45750815115806127e45750818060200190518101906127e491906133c9565b90508015806127fb57506001600160a01b0385163b155b156117d35760405163022e258160e11b815260040160405180910390fd5b60009182526002602052604090912080546001600160a01b0319166001600160a01b03909216919091179055565b60007fa80d2259af55890618ec2eeb3ac72de4bdba22529bb14845d8a3d712d1c3f62182604051602001612108929190613c54565b6102f880613d1683390190565b60008083601f84011261289b57600080fd5b5081356001600160401b038111156128b257600080fd5b6020830191508360208285010111156128ca57600080fd5b9250929050565b600080602083850312156128e457600080fd5b82356001600160401b038111156128fa57600080fd5b61290685828601612889565b90969095509350505050565b60008060006040848603121561292757600080fd5b83356001600160401b0381111561293d57600080fd5b61294986828701612889565b909790965060209590950135949350505050565b600080600080600080600080600060c08a8c03121561297b57600080fd5b8935985060208a01356001600160401b038082111561299957600080fd5b6129a58d838e01612889565b909a50985060408c01359150808211156129be57600080fd5b6129ca8d838e01612889565b909850965060608c0135955060808c01359150808211156129ea57600080fd5b506129f78c828d01612889565b9a9d999c50979a9699959894979660a00135949350505050565b60008060008060008060608789031215612a2a57600080fd5b86356001600160401b0380821115612a4157600080fd5b612a4d8a838b01612889565b90985096506020890135915080821115612a6657600080fd5b612a728a838b01612889565b90965094506040890135915080821115612a8b57600080fd5b50612a9889828a01612889565b979a9699509497509295939492505050565b600060208284031215612abc57600080fd5b5035919050565b634e487b7160e01b600052604160045260246000fd5b604051601f8201601f191681016001600160401b0381118282101715612b0157612b01612ac3565b604052919050565b60006001600160401b03821115612b2257612b22612ac3565b50601f01601f191660200190565b600082601f830112612b4157600080fd5b8135612b54612b4f82612b09565b612ad9565b818152846020838601011115612b6957600080fd5b816020850160208301376000918101602001919091529392505050565b600060208284031215612b9857600080fd5b81356001600160401b03811115612bae57600080fd5b612bba84828501612b30565b949350505050565b60008060008060008060006080888a031215612bdd57600080fd5b87356001600160401b0380821115612bf457600080fd5b612c008b838c01612889565b909950975060208a0135915080821115612c1957600080fd5b612c258b838c01612889565b909750955060408a0135915080821115612c3e57600080fd5b50612c4b8a828b01612889565b989b979a50959894979596606090950135949350505050565b6001600160a01b0381168114610a4b57600080fd5b600060208284031215612c8b57600080fd5b81356123d581612c64565b60008060008060008060808789031215612caf57600080fd5b8635955060208701356001600160401b0380821115612ccd57600080fd5b612cd98a838b01612889565b90975095506040890135915080821115612cf257600080fd5b50612cff89828a01612889565b979a9699509497949695606090950135949350505050565b60008083601f840112612d2957600080fd5b5081356001600160401b03811115612d4057600080fd5b6020830191508360208260051b85010111156128ca57600080fd5b60008060008060408587031215612d7157600080fd5b84356001600160401b0380821115612d8857600080fd5b612d9488838901612d17565b90965094506020870135915080821115612dad57600080fd5b50612dba87828801612d17565b95989497509550505050565b60005b83811015612de1578181015183820152602001612dc9565b50506000910152565b60008151808452612e02816020860160208601612dc6565b601f01601f19169290920160200192915050565b6020815260006123d56020830184612dea565b60008060008060608587031215612e3f57600080fd5b8435612e4a81612c64565b93506020850135925060408501356001600160401b03811115612e6c57600080fd5b612dba87828801612889565b600080600080600080600080600060a08a8c031215612e9657600080fd5b89356001600160401b0380821115612ead57600080fd5b612eb98d838e01612889565b909b50995060208c0135915080821115612ed257600080fd5b612ede8d838e01612889565b909950975060408c0135915080821115612ef757600080fd5b612f038d838e01612889565b909750955060608c0135915080821115612f1c57600080fd5b50612f298c828d01612889565b9a9d999c50979a9699959894979660800135949350505050565b60008060008060008060008060008060e08b8d031215612f6257600080fd5b8a35995060208b01356001600160401b0380821115612f8057600080fd5b612f8c8e838f01612889565b909b50995060408d0135915080821115612fa557600080fd5b612fb18e838f01612889565b909950975060608d01359150612fc682612c64565b90955060808c0135945060a08c01359080821115612fe357600080fd5b50612ff08d828e01612889565b9150809450508092505060c08b013590509295989b9194979a5092959850565b600080600080600080600060a0888a03121561302b57600080fd5b8735965060208801356001600160401b038082111561304957600080fd5b6130558b838c01612889565b909850965060408a013591508082111561306e57600080fd5b5061307b8a828b01612889565b909550935050606088013561308f81612c64565b809250506080880135905092959891949750929550565b600080604083850312156130b957600080fd5b82356001600160401b03808211156130d057600080fd5b6130dc86838701612b30565b935060208501359150808211156130f257600080fd5b506130ff85828601612b30565b9150509250929050565b60408152600061311c6040830185612dea565b828103602084015261312e8185612dea565b95945050505050565b803561314281612c64565b919050565b60008060006060848603121561315c57600080fd5b83356001600160401b0381111561317257600080fd5b61317e86828701612b30565b935050602084013561318f81612c64565b929592945050506040919091013590565b8183823760009101908152919050565b81835281816020850137506000828201602090810191909152601f909101601f19169091010190565b6060815260006131ed60608301888a6131b0565b82810360208401526132008187896131b0565b905082810360408401526132158185876131b0565b9998505050505050505050565b60808152600061323660808301898b6131b0565b828103602084015261324981888a6131b0565b9050828103604084015261325e8186886131b0565b91505082606083015298975050505050505050565b6000806040838503121561328657600080fd5b82356001600160401b0381111561329c57600080fd5b6132a885828601612b30565b95602094909401359450505050565b634e487b7160e01b600052602160045260246000fd5b600082516132df818460208701612dc6565b9190910192915050565b6000602082840312156132fb57600080fd5b5051919050565b6001600160a01b0383168152604060208201819052600090612bba90830184612dea565b8051801515811461314257600080fd5b6000613344612b4f84612b09565b905082815283838301111561335857600080fd5b6123d5836020830184612dc6565b600082601f83011261337757600080fd5b6123d583835160208501613336565b6000806040838503121561339957600080fd5b6133a283613326565b915060208301516001600160401b038111156133bd57600080fd5b6130ff85828601613366565b6000602082840312156133db57600080fd5b6123d582613326565b600080600080600080600080610100898b03121561340157600080fd5b88356001600160401b038082111561341857600080fd5b6134248c838d01612b30565b995060208b013591508082111561343a57600080fd5b6134468c838d01612b30565b985061345460408c01613137565b975060608b0135965060808b013591508082111561347157600080fd5b5061347e8b828c01612b30565b989b979a50959894979660a0860135965060c08601359560e00135945092505050565b60c0815260006134b460c0830189612dea565b82810360208401526134c68189612dea565b905082810360408401526134da8188612dea565b60608401969096525050608081019290925260a0909101529392505050565b634e487b7160e01b600052603260045260246000fd5b6000808335601e1984360301811261352657600080fd5b8301803591506001600160401b0382111561354057600080fd5b6020019150368190038213156128ca57600080fd5b828152604060208201526000612bba6040830184612dea565b60008060008060008060c0878903121561358757600080fd5b86356001600160401b038082111561359e57600080fd5b6135aa8a838b01612b30565b975060208901359150808211156135c057600080fd5b506135cd89828a01612b30565b955050604087013560ff811681146135e457600080fd5b93506060870135925060808701356135fb81612c64565b8092505060a087013590509295509295509295565b60a08152600061362360a0830188612dea565b82810360208401526136358188612dea565b60ff9690961660408401525050606081019290925260809091015292915050565b60006020828403121561366857600080fd5b81516123d581612c64565b6040815260006136866040830185612dea565b905060018060a01b03831660208301529392505050565b602081526000612bba6020830184866131b0565b600181811c908216806136c557607f821691505b6020821081036136e557634e487b7160e01b600052602260045260246000fd5b50919050565b60008060006060848603121561370057600080fd5b833561370b81612c64565b9250602084013561371b81612c64565b915060408401356001600160401b0381111561373657600080fd5b61374286828701612b30565b9150509250925092565b60a08152600061376060a083018b8d6131b0565b8281036020840152613773818a8c6131b0565b9050828103604084015261378881888a6131b0565b9050828103606084015261379d8186886131b0565b9150508260808301529a9950505050505050505050565b6000826137d157634e487b7160e01b600052601260045260246000fd5b500490565b60006001600160401b038211156137ef576137ef612ac3565b5060051b60200190565b600082601f83011261380a57600080fd5b8151602061381a612b4f836137d6565b82815260059290921b8401810191818101908684111561383957600080fd5b8286015b84811015610fd85780516001600160401b0381111561385c5760008081fd5b8701603f8101891361386e5760008081fd5b61387f898683015160408401613336565b84525091830191830161383d565b600082601f83011261389e57600080fd5b815160206138ae612b4f836137d6565b82815260059290921b840181019181810190868411156138cd57600080fd5b8286015b84811015610fd85780516001600160401b038111156138f05760008081fd5b6138fe8986838b0101613366565b8452509183019183016138d1565b6000806000806080858703121561392257600080fd5b845193506020808601516001600160401b038082111561394157600080fd5b818801915088601f83011261395557600080fd5b8151613963612b4f826137d6565b81815260059190911b8301840190848101908b83111561398257600080fd5b938501935b828510156139a057845182529385019390850190613987565b60408b015190985094505050808311156139b957600080fd5b6139c589848a016137f9565b945060608801519250808311156139db57600080fd5b50506139e98782880161388d565b91505092959194509250565b60008282518085526020808601955060208260051b8401016020860160005b84811015613a4257601f19868403018952613a30838351612dea565b98840198925090830190600101613a14565b5090979650505050505050565b600060808201868352602060808185015281875180845260a086019150828901935060005b81811015613a9057845183529383019391830191600101613a74565b5050848103604086015286518082528282019350600581901b8201830183890160005b83811015613ae157601f19858403018752613acf838351612dea565b96860196925090850190600101613ab3565b50508681036060880152611b7781896139f5565b60008060008060008060c08789031215613b0e57600080fd5b86356001600160401b0380821115613b2557600080fd5b613b318a838b01612b30565b97506020890135915080821115613b4757600080fd5b50613b5489828a01612b30565b9550506040870135613b6581612c64565b959894975094956060810135955060808101359460a0909101359350915050565b608081526000613b996080830187612dea565b8281036020840152613bab8187612dea565b604084019590955250506060015292915050565b808201808211156108ff57634e487b7160e01b600052601160045260246000fd5b60006101008a8352896020840152806040840152613c008184018a612dea565b90508281036060840152613c148189612dea565b6001600160a01b038816608085015260a0840187905283810360c08501529050613c3e8186612dea565b9150508260e08301529998505050505050505050565b82815260008251613c6c816020850160208701612dc6565b919091016020019392505050565b86815285602082015260c060408201526000613c9960c0830187612dea565b8281036060840152613cab8187612dea565b6001600160a01b03959095166080840152505060a00152949350505050565b604081526000613cdd6040830185612dea565b90508260208301529392505050565b838152606060208201526000613d056060830185612dea565b905082604083015294935050505056fe6080604052600160005534801561001557600080fd5b506102d3806100256000396000f3fe608060405234801561001057600080fd5b50600436106100355760003560e01c8062f55d9d1461003a5780631cff79cd1461004f575b600080fd5b61004d61004836600461018f565b610079565b005b61006261005d3660046101b1565b6100ad565b604051610070929190610234565b60405180910390f35b60026000540361009c5760405163caa30f5560e01b815260040160405180910390fd5b60026000556001600160a01b038116ff5b600060606002600054036100d45760405163caa30f5560e01b815260040160405180910390fd5b600260009081556001600160a01b0386163b900361010557604051636f7c43f160e01b815260040160405180910390fd5b846001600160a01b0316848460405161011f92919061028d565b6000604051808303816000865af19150503d806000811461015c576040519150601f19603f3d011682016040523d82523d6000602084013e610161565b606091505b50600160005590969095509350505050565b80356001600160a01b038116811461018a57600080fd5b919050565b6000602082840312156101a157600080fd5b6101aa82610173565b9392505050565b6000806000604084860312156101c657600080fd5b6101cf84610173565b9250602084013567ffffffffffffffff808211156101ec57600080fd5b818601915086601f83011261020057600080fd5b81358181111561020f57600080fd5b87602082850101111561022157600080fd5b6020830194508093505050509250925092565b82151581526000602060406020840152835180604085015260005b8181101561026b5785810183015185820160600152820161024f565b506000606082860101526060601f19601f830116850101925050509392505050565b818382376000910190815291905056fea264697066735822122006f9d37ee977c070ab0beed5622642adaa8cf7c371495d427ab33e342fdd4ac164736f6c63430008180033763aba2a041620de24ed40a81f438bfbd3c92c5481953408fd88378285795addabea6fd3db56a6e6d0242111b43ebb13d1c42709651c032c7894962023a1f909627f0c11732837b3240a2de89c0b6343512886dd50978b99c76a68c6416a4d92a26469706673582212208f1202feab1c22de859bbae7e74e6920d2a9d38a0e925fa7ac47e23cf2d7a14f64736f6c63430008180033",
  "linkReferences": {},
  "deployedLinkReferences": {}
}