{
  "_format": "hh-sol-artifact-1",
  "contractName": "CauldronV4",
  "sourceName": "contracts/CauldronV4.sol",
  "abi": [
    {
      "inputs": [
        {
          "internalType": "contract IBentoBoxV1",
          "name": "bentoBox_",
          "type": "address"
        },
        {
          "internalType": "contract IERC20",
          "name": "magicInternetMoney_",
          "type": "address"
        }
      ],
      "stateMutability": "nonpayable",
      "type": "constructor"
    },
    {
      "inputs": [],
      "name": "ErrNotClone",
      "type": "error"
    },
    {
      "inputs": [],
      "name": "ErrOverflow",
      "type": "error"
    },
    {
      "anonymous": false,
      "inputs": [
        {
          "indexed": false,
          "internalType": "uint128",
          "name": "accruedAmount",
          "type": "uint128"
        }
      ],
      "name": "LogAccrue",
      "type": "event"
    },
    {
      "anonymous": false,
      "inputs": [
        {
          "indexed": true,
          "internalType": "address",
          "name": "from",
          "type": "address"
        },
        {
          "indexed": true,
          "internalType": "address",
          "name": "to",
          "type": "address"
        },
        {
          "indexed": false,
          "internalType": "uint256",
          "name": "share",
          "type": "uint256"
        }
      ],
      "name": "LogAddCollateral",
      "type": "event"
    },
    {
      "anonymous": false,
      "inputs": [
        {
          "indexed": true,
          "internalType": "address",
          "name": "from",
          "type": "address"
        },
        {
          "indexed": true,
          "internalType": "address",
          "name": "to",
          "type": "address"
        },
        {
          "indexed": false,
          "internalType": "uint256",
          "name": "amount",
          "type": "uint256"
        },
        {
          "indexed": false,
          "internalType": "uint256",
          "name": "part",
          "type": "uint256"
        }
      ],
      "name": "LogBorrow",
      "type": "event"
    },
    {
      "anonymous": false,
      "inputs": [
        {
          "indexed": false,
          "internalType": "uint256",
          "name": "previous",
          "type": "uint256"
        },
        {
          "indexed": false,
          "internalType": "uint256",
          "name": "current",
          "type": "uint256"
        }
      ],
      "name": "LogBorrowOpeningFeeChanged",
      "type": "event"
    },
    {
      "anonymous": false,
      "inputs": [
        {
          "indexed": true,
          "internalType": "address",
          "name": "account",
          "type": "address"
        },
        {
          "indexed": false,
          "internalType": "bool",
          "name": "blacklisted",
          "type": "bool"
        }
      ],
      "name": "LogChangeBlacklistedCallee",
      "type": "event"
    },
    {
      "anonymous": false,
      "inputs": [
        {
          "indexed": false,
          "internalType": "uint128",
          "name": "newLimit",
          "type": "uint128"
        },
        {
          "indexed": false,
          "internalType": "uint128",
          "name": "perAddressPart",
          "type": "uint128"
        }
      ],
      "name": "LogChangeBorrowLimit",
      "type": "event"
    },
    {
      "anonymous": false,
      "inputs": [
        {
          "indexed": false,
          "internalType": "uint256",
          "name": "previous",
          "type": "uint256"
        },
        {
          "indexed": false,
          "internalType": "uint256",
          "name": "current",
          "type": "uint256"
        }
      ],
      "name": "LogCollateralizationRateChanged",
      "type": "event"
    },
    {
      "anonymous": false,
      "inputs": [
        {
          "indexed": false,
          "internalType": "uint256",
          "name": "rate",
          "type": "uint256"
        }
      ],
      "name": "LogExchangeRate",
      "type": "event"
    },
    {
      "anonymous": false,
      "inputs": [
        {
          "indexed": true,
          "internalType": "address",
          "name": "newFeeTo",
          "type": "address"
        }
      ],
      "name": "LogFeeTo",
      "type": "event"
    },
    {
      "anonymous": false,
      "inputs": [
        {
          "indexed": false,
          "internalType": "uint64",
          "name": "oldInterestRate",
          "type": "uint64"
        },
        {
          "indexed": false,
          "internalType": "uint64",
          "name": "newInterestRate",
          "type": "uint64"
        }
      ],
      "name": "LogInterestChange",
      "type": "event"
    },
    {
      "anonymous": false,
      "inputs": [
        {
          "indexed": true,
          "internalType": "address",
          "name": "from",
          "type": "address"
        },
        {
          "indexed": true,
          "internalType": "address",
          "name": "user",
          "type": "address"
        },
        {
          "indexed": true,
          "internalType": "address",
          "name": "to",
          "type": "address"
        },
        {
          "indexed": false,
          "internalType": "uint256",
          "name": "collateralShare",
          "type": "uint256"
        },
        {
          "indexed": false,
          "internalType": "uint256",
          "name": "borrowAmount",
          "type": "uint256"
        },
        {
          "indexed": false,
          "internalType": "uint256",
          "name": "borrowPart",
          "type": "uint256"
        }
      ],
      "name": "LogLiquidation",
      "type": "event"
    },
    {
      "anonymous": false,
      "inputs": [
        {
          "indexed": false,
          "internalType": "uint256",
          "name": "previous",
          "type": "uint256"
        },
        {
          "indexed": false,
          "internalType": "uint256",
          "name": "current",
          "type": "uint256"
        }
      ],
      "name": "LogLiquidationMultiplierChanged",
      "type": "event"
    },
    {
      "anonymous": false,
      "inputs": [
        {
          "indexed": true,
          "internalType": "address",
          "name": "from",
          "type": "address"
        },
        {
          "indexed": true,
          "internalType": "address",
          "name": "to",
          "type": "address"
        },
        {
          "indexed": false,
          "internalType": "uint256",
          "name": "share",
          "type": "uint256"
        }
      ],
      "name": "LogRemoveCollateral",
      "type": "event"
    },
    {
      "anonymous": false,
      "inputs": [
        {
          "indexed": true,
          "internalType": "address",
          "name": "from",
          "type": "address"
        },
        {
          "indexed": true,
          "internalType": "address",
          "name": "to",
          "type": "address"
        },
        {
          "indexed": false,
          "internalType": "uint256",
          "name": "amount",
          "type": "uint256"
        },
        {
          "indexed": false,
          "internalType": "uint256",
          "name": "part",
          "type": "uint256"
        }
      ],
      "name": "LogRepay",
      "type": "event"
    },
    {
      "anonymous": false,
      "inputs": [
        {
          "indexed": true,
          "internalType": "address",
          "name": "feeTo",
          "type": "address"
        },
        {
          "indexed": false,
          "internalType": "uint256",
          "name": "feesEarnedFraction",
          "type": "uint256"
        }
      ],
      "name": "LogWithdrawFees",
      "type": "event"
    },
    {
      "anonymous": false,
      "inputs": [
        {
          "indexed": true,
          "internalType": "address",
          "name": "user",
          "type": "address"
        },
        {
          "indexed": true,
          "internalType": "address",
          "name": "newOwner",
          "type": "address"
        }
      ],
      "name": "OwnershipTransferred",
      "type": "event"
    },
    {
      "inputs": [],
      "name": "BORROW_OPENING_FEE",
      "outputs": [
        {
          "internalType": "uint256",
          "name": "",
          "type": "uint256"
        }
      ],
      "stateMutability": "view",
      "type": "function"
    },
    {
      "inputs": [],
      "name": "COLLATERIZATION_RATE",
      "outputs": [
        {
          "internalType": "uint256",
          "name": "",
          "type": "uint256"
        }
      ],
      "stateMutability": "view",
      "type": "function"
    },
    {
      "inputs": [],
      "name": "LIQUIDATION_MULTIPLIER",
      "outputs": [
        {
          "internalType": "uint256",
          "name": "",
          "type": "uint256"
        }
      ],
      "stateMutability": "view",
      "type": "function"
    },
    {
      "inputs": [],
      "name": "accrue",
      "outputs": [],
      "stateMutability": "nonpayable",
      "type": "function"
    },
    {
      "inputs": [],
      "name": "accrueInfo",
      "outputs": [
        {
          "internalType": "uint64",
          "name": "lastAccrued",
          "type": "uint64"
        },
        {
          "internalType": "uint128",
          "name": "feesEarned",
          "type": "uint128"
        },
        {
          "internalType": "uint64",
          "name": "INTEREST_PER_SECOND",
          "type": "uint64"
        }
      ],
      "stateMutability": "view",
      "type": "function"
    },
    {
      "inputs": [
        {
          "internalType": "address",
          "name": "to",
          "type": "address"
        },
        {
          "internalType": "bool",
          "name": "skim",
          "type": "bool"
        },
        {
          "internalType": "uint256",
          "name": "share",
          "type": "uint256"
        }
      ],
      "name": "addCollateral",
      "outputs": [],
      "stateMutability": "nonpayable",
      "type": "function"
    },
    {
      "inputs": [],
      "name": "bentoBox",
      "outputs": [
        {
          "internalType": "contract IBentoBoxV1",
          "name": "",
          "type": "address"
        }
      ],
      "stateMutability": "view",
      "type": "function"
    },
    {
      "inputs": [
        {
          "internalType": "address",
          "name": "",
          "type": "address"
        }
      ],
      "name": "blacklistedCallees",
      "outputs": [
        {
          "internalType": "bool",
          "name": "",
          "type": "bool"
        }
      ],
      "stateMutability": "view",
      "type": "function"
    },
    {
      "inputs": [
        {
          "internalType": "address",
          "name": "to",
          "type": "address"
        },
        {
          "internalType": "uint256",
          "name": "amount",
          "type": "uint256"
        }
      ],
      "name": "borrow",
      "outputs": [
        {
          "internalType": "uint256",
          "name": "part",
          "type": "uint256"
        },
        {
          "internalType": "uint256",
          "name": "share",
          "type": "uint256"
        }
      ],
      "stateMutability": "nonpayable",
      "type": "function"
    },
    {
      "inputs": [],
      "name": "borrowLimit",
      "outputs": [
        {
          "internalType": "uint128",
          "name": "total",
          "type": "uint128"
        },
        {
          "internalType": "uint128",
          "name": "borrowPartPerAddress",
          "type": "uint128"
        }
      ],
      "stateMutability": "view",
      "type": "function"
    },
    {
      "inputs": [
        {
          "internalType": "uint128",
          "name": "newBorrowLimit",
          "type": "uint128"
        },
        {
          "internalType": "uint128",
          "name": "perAddressPart",
          "type": "uint128"
        }
      ],
      "name": "changeBorrowLimit",
      "outputs": [],
      "stateMutability": "nonpayable",
      "type": "function"
    },
    {
      "inputs": [
        {
          "internalType": "uint64",
          "name": "newInterestRate",
          "type": "uint64"
        }
      ],
      "name": "changeInterestRate",
      "outputs": [],
      "stateMutability": "nonpayable",
      "type": "function"
    },
    {
      "inputs": [],
      "name": "collateral",
      "outputs": [
        {
          "internalType": "contract IERC20",
          "name": "",
          "type": "address"
        }
      ],
      "stateMutability": "view",
      "type": "function"
    },
    {
      "inputs": [
        {
          "internalType": "uint8[]",
          "name": "actions",
          "type": "uint8[]"
        },
        {
          "internalType": "uint256[]",
          "name": "values",
          "type": "uint256[]"
        },
        {
          "internalType": "bytes[]",
          "name": "datas",
          "type": "bytes[]"
        }
      ],
      "name": "cook",
      "outputs": [
        {
          "internalType": "uint256",
          "name": "value1",
          "type": "uint256"
        },
        {
          "internalType": "uint256",
          "name": "value2",
          "type": "uint256"
        }
      ],
      "stateMutability": "payable",
      "type": "function"
    },
    {
      "inputs": [],
      "name": "exchangeRate",
      "outputs": [
        {
          "internalType": "uint256",
          "name": "",
          "type": "uint256"
        }
      ],
      "stateMutability": "view",
      "type": "function"
    },
    {
      "inputs": [],
      "name": "feeTo",
      "outputs": [
        {
          "internalType": "address",
          "name": "",
          "type": "address"
        }
      ],
      "stateMutability": "view",
      "type": "function"
    },
    {
      "inputs": [
        {
          "internalType": "bytes",
          "name": "data",
          "type": "bytes"
        }
      ],
      "name": "init",
      "outputs": [],
      "stateMutability": "payable",
      "type": "function"
    },
    {
      "inputs": [
        {
          "internalType": "address",
          "name": "user",
          "type": "address"
        }
      ],
      "name": "isSolvent",
      "outputs": [
        {
          "internalType": "bool",
          "name": "",
          "type": "bool"
        }
      ],
      "stateMutability": "view",
      "type": "function"
    },
    {
      "inputs": [
        {
          "internalType": "address[]",
          "name": "users",
          "type": "address[]"
        },
        {
          "internalType": "uint256[]",
          "name": "maxBorrowParts",
          "type": "uint256[]"
        },
        {
          "internalType": "address",
          "name": "to",
          "type": "address"
        },
        {
          "internalType": "contract ISwapperV2",
          "name": "swapper",
          "type": "address"
        },
        {
          "internalType": "bytes",
          "name": "swapperData",
          "type": "bytes"
        }
      ],
      "name": "liquidate",
      "outputs": [],
      "stateMutability": "nonpayable",
      "type": "function"
    },
    {
      "inputs": [],
      "name": "magicInternetMoney",
      "outputs": [
        {
          "internalType": "contract IERC20",
          "name": "",
          "type": "address"
        }
      ],
      "stateMutability": "view",
      "type": "function"
    },
    {
      "inputs": [],
      "name": "masterContract",
      "outputs": [
        {
          "internalType": "contract CauldronV4",
          "name": "",
          "type": "address"
        }
      ],
      "stateMutability": "view",
      "type": "function"
    },
    {
      "inputs": [],
      "name": "oracle",
      "outputs": [
        {
          "internalType": "contract IOracle",
          "name": "",
          "type": "address"
        }
      ],
      "stateMutability": "view",
      "type": "function"
    },
    {
      "inputs": [],
      "name": "oracleData",
      "outputs": [
        {
          "internalType": "bytes",
          "name": "",
          "type": "bytes"
        }
      ],
      "stateMutability": "view",
      "type": "function"
    },
    {
      "inputs": [],
      "name": "owner",
      "outputs": [
        {
          "internalType": "address",
          "name": "",
          "type": "address"
        }
      ],
      "stateMutability": "view",
      "type": "function"
    },
    {
      "inputs": [
        {
          "internalType": "uint256",
          "name": "amount",
          "type": "uint256"
        }
      ],
      "name": "reduceSupply",
      "outputs": [],
      "stateMutability": "nonpayable",
      "type": "function"
    },
    {
      "inputs": [
        {
          "internalType": "address",
          "name": "to",
          "type": "address"
        },
        {
          "internalType": "uint256",
          "name": "share",
          "type": "uint256"
        }
      ],
      "name": "removeCollateral",
      "outputs": [],
      "stateMutability": "nonpayable",
      "type": "function"
    },
    {
      "inputs": [
        {
          "internalType": "address",
          "name": "to",
          "type": "address"
        },
        {
          "internalType": "bool",
          "name": "skim",
          "type": "bool"
        },
        {
          "internalType": "uint256",
          "name": "part",
          "type": "uint256"
        }
      ],
      "name": "repay",
      "outputs": [
        {
          "internalType": "uint256",
          "name": "amount",
          "type": "uint256"
        }
      ],
      "stateMutability": "nonpayable",
      "type": "function"
    },
    {
      "inputs": [
        {
          "internalType": "address",
          "name": "callee",
          "type": "address"
        },
        {
          "internalType": "bool",
          "name": "blacklisted",
          "type": "bool"
        }
      ],
      "name": "setBlacklistedCallee",
      "outputs": [],
      "stateMutability": "nonpayable",
      "type": "function"
    },
    {
      "inputs": [
        {
          "internalType": "uint256",
          "name": "_borrowOpeningFee",
          "type": "uint256"
        }
      ],
      "name": "setBorrowOpeningFee",
      "outputs": [],
      "stateMutability": "nonpayable",
      "type": "function"
    },
    {
      "inputs": [
        {
          "internalType": "uint256",
          "name": "_collateralizationRate",
          "type": "uint256"
        }
      ],
      "name": "setCollateralizationRate",
      "outputs": [],
      "stateMutability": "nonpayable",
      "type": "function"
    },
    {
      "inputs": [
        {
          "internalType": "address",
          "name": "newFeeTo",
          "type": "address"
        }
      ],
      "name": "setFeeTo",
      "outputs": [],
      "stateMutability": "nonpayable",
      "type": "function"
    },
    {
      "inputs": [
        {
          "internalType": "uint256",
          "name": "_liquidationMultiplier",
          "type": "uint256"
        }
      ],
      "name": "setLiquidationMultiplier",
      "outputs": [],
      "stateMutability": "nonpayable",
      "type": "function"
    },
    {
      "inputs": [],
      "name": "totalBorrow",
      "outputs": [
        {
          "internalType": "uint128",
          "name": "elastic",
          "type": "uint128"
        },
        {
          "internalType": "uint128",
          "name": "base",
          "type": "uint128"
        }
      ],
      "stateMutability": "view",
      "type": "function"
    },
    {
      "inputs": [],
      "name": "totalCollateralShare",
      "outputs": [
        {
          "internalType": "uint256",
          "name": "",
          "type": "uint256"
        }
      ],
      "stateMutability": "view",
      "type": "function"
    },
    {
      "inputs": [
        {
          "internalType": "address",
          "name": "newOwner",
          "type": "address"
        }
      ],
      "name": "transferOwnership",
      "outputs": [],
      "stateMutability": "nonpayable",
      "type": "function"
    },
    {
      "inputs": [],
      "name": "updateExchangeRate",
      "outputs": [
        {
          "internalType": "bool",
          "name": "updated",
          "type": "bool"
        },
        {
          "internalType": "uint256",
          "name": "rate",
          "type": "uint256"
        }
      ],
      "stateMutability": "nonpayable",
      "type": "function"
    },
    {
      "inputs": [
        {
          "internalType": "address",
          "name": "",
          "type": "address"
        }
      ],
      "name": "userBorrowPart",
      "outputs": [
        {
          "internalType": "uint256",
          "name": "",
          "type": "uint256"
        }
      ],
      "stateMutability": "view",
      "type": "function"
    },
    {
      "inputs": [
        {
          "internalType": "address",
          "name": "",
          "type": "address"
        }
      ],
      "name": "userCollateralShare",
      "outputs": [
        {
          "internalType": "uint256",
          "name": "",
          "type": "uint256"
        }
      ],
      "stateMutability": "view",
      "type": "function"
    },
    {
      "inputs": [],
      "name": "withdrawFees",
      "outputs": [],
      "stateMutability": "nonpayable",
      "type": "function"
    }
  ],
  "bytecode": "0x60e06040523480156200001157600080fd5b50604051620055763803806200557683398101604081905262000034916200016c565b600080546001600160a01b031916339081178255604051909182917f8be0079c531659141344cd1fd0a4f28419497f9722a3daafe3b4186f6b6457e0908290a3506001600160a01b03828116608081905290821660c0523060a08190526000828152600a602081815260408084208054600160ff199182168117909255958552818520805490961681179095558051638da5cb5b60e01b8152905194959294638da5cb5b926004808401939192918290030181865afa158015620000fc573d6000803e3d6000fd5b505050506040513d601f19601f82011682018060405250810190620001229190620001ab565b6001600160a01b031681526020810191909152604001600020805460ff191691151591909117905550620001d29050565b6001600160a01b03811681146200016957600080fd5b50565b600080604083850312156200018057600080fd5b82516200018d8162000153565b6020840151909250620001a08162000153565b809150509250929050565b600060208284031215620001be57600080fd5b8151620001cb8162000153565b9392505050565b60805160a05160c0516151fa6200037c600039600081816105bd01528181610c0b01528181610cbf01528181610fa701528181611a9e01528181611e9e0152818161200701528181612dbb01528181612eef01528181612fa80152818161305d015281816131a201528181613243015281816136d8015261378b0152600081816106bc015281816108e301528181610a1c01528181610b2d01528181610dd4015281816111390152818161121e01528181611ddf015281816121af015281816122a2015261256201526000818161046601528181610bd601528181610c9201528181610f7701528181611017015281816111080152818161163b0152818161181b015281816118f901528181611a6f01528181611ed801528181611fda015281816120fb01528181612354015281816128e101528181612d8e01528181612e4601528181612f7b0152818161303001528181613173015281816132140152818161326f015281816132f901528181613419015281816136a30152818161375e015281816138fe015281816139b401528181613a8101528181613eb50152613fee01526151fa6000f3fe6080604052600436106102305760003560e01c8063806234441161012e578063cd446e22116100ab578063f2fde38b1161006f578063f2fde38b14610769578063f46901ed14610789578063f7dad434146107a9578063f8ba4cff146107c9578063ff6ff84b146107de57600080fd5b8063cd446e22146106aa578063d8dfeb45146106de578063e551d11d146106fe578063ec7eb7e914610729578063eeae797b1461074957600080fd5b80639b352ae1116100f25780639b352ae1146105ab578063aba024f4146105df578063b27c0e74146105f5578063c7ee2a7b14610664578063cb0dc5481461067a57600080fd5b806380623444146104e05780638285ef4014610500578063860ffea11461054b578063876467f81461056b5780638da5cb5b1461058b57600080fd5b8063476343ee116101bc578063656f3d6411610180578063656f3d64146104415780636b2ace87146104545780636ec097fb1461048857806374645ff31461049e5780637dc0d1d0146104c057600080fd5b8063476343ee1461039757806348e4163e146103ac5780634b8a3529146103d95780634ddf47d41461040e5780635100b5671461042157600080fd5b80631cd4c966116102035780631cd4c966146102f95780631e35078e1461031b57806338b51ce11461033b5780633ba0b9a91461036b578063473e3ce71461038157600080fd5b8063017e7e581461023557806302ce728f1461027257806315294c401461029e5780631c9e379b146102cc575b600080fd5b34801561024157600080fd5b50600154610255906001600160a01b031681565b6040516001600160a01b0390911681526020015b60405180910390f35b34801561027e57600080fd5b506102876107fe565b604080519215158352602083019190915201610269565b3480156102aa57600080fd5b506102be6102b9366004614225565b6108c4565b604051908152602001610269565b3480156102d857600080fd5b506102be6102e7366004614266565b60086020526000908152604090205481565b34801561030557600080fd5b5061031961031436600461429f565b6108e1565b005b34801561032757600080fd5b506103196103363660046142ba565b610a1a565b34801561034757600080fd5b5061035b610356366004614266565b610b0d565b6040519015158152602001610269565b34801561037757600080fd5b506102be600b5481565b34801561038d57600080fd5b506102be60065481565b3480156103a357600080fd5b50610319610b21565b3480156103b857600080fd5b506102be6103c7366004614266565b60096020526000908152604090205481565b3480156103e557600080fd5b506103f96103f43660046142d3565b610d75565b60408051928352602083019190915201610269565b61031961041c3660046142ff565b610dca565b34801561042d57600080fd5b5061031961043c3660046142ba565b61121c565b6103f961044f3660046143bb565b61130f565b34801561046057600080fd5b506102557f000000000000000000000000000000000000000000000000000000000000000081565b34801561049457600080fd5b506102be600e5481565b3480156104aa57600080fd5b506104b3611d4f565b60405161026991906144a4565b3480156104cc57600080fd5b50600354610255906001600160a01b031681565b3480156104ec57600080fd5b506103196104fb3660046142ba565b611ddd565b34801561050c57600080fd5b5060075461052b906001600160801b0380821691600160801b90041682565b604080516001600160801b03938416815292909116602083015201610269565b34801561055757600080fd5b50610319610566366004614225565b612080565b34801561057757600080fd5b506103196105863660046142d3565b612163565b34801561059757600080fd5b50600054610255906001600160a01b031681565b3480156105b757600080fd5b506102557f000000000000000000000000000000000000000000000000000000000000000081565b3480156105eb57600080fd5b506102be600f5481565b34801561060157600080fd5b50600c54610632906001600160401b03808216916001600160801b03600160401b82041691600160c01b9091041683565b604080516001600160401b0394851681526001600160801b039093166020840152921691810191909152606001610269565b34801561067057600080fd5b506102be600d5481565b34801561068657600080fd5b5061035b610695366004614266565b600a6020526000908152604090205460ff1681565b3480156106b657600080fd5b506102557f000000000000000000000000000000000000000000000000000000000000000081565b3480156106ea57600080fd5b50600254610255906001600160a01b031681565b34801561070a57600080fd5b5060055461052b906001600160801b0380821691600160801b90041682565b34801561073557600080fd5b506103196107443660046142ba565b6121ad565b34801561075557600080fd5b506103196107643660046144b7565b6122a0565b34801561077557600080fd5b50610319610784366004614266565b612439565b34801561079557600080fd5b506103196107a4366004614266565b6124cd565b3480156107b557600080fd5b506103196107c4366004614505565b612560565b3480156107d557600080fd5b5061031961267b565b3480156107ea57600080fd5b506103196107f93660046146eb565b6128a1565b60035460405163d6d7d52560e01b815260009182916001600160a01b039091169063d6d7d525906108339060049081016147d6565b60408051808303816000875af1158015610851573d6000803e3d6000fd5b505050506040513d601f19601f820116820180604052508101906108759190614871565b909250905081156108bc57600b8190556040518181527f9f9192b5edb17356c524e08d9e025c8e2f6307e6ea52fb7968faa3081f51c3c89060200160405180910390a19091565b50600b549091565b60006108ce61267b565b6108d98484846130ca565b949350505050565b7f00000000000000000000000000000000000000000000000000000000000000006001600160a01b0316638da5cb5b6040518163ffffffff1660e01b8152600401602060405180830381865afa15801561093f573d6000803e3d6000fd5b505050506040513d601f19601f82011682018060405250810190610963919061489f565b6001600160a01b0316336001600160a01b03161461099c5760405162461bcd60e51b8152600401610993906148bc565b60405180910390fd5b6109a461267b565b600c5460408051600160c01b9092046001600160401b039081168352831660208301527f76bc92b92b7755bcb03b25070431a80435c4d3fbf91c6c81c0c0cc350f6b5c6a910160405180910390a1600c80546001600160401b03909216600160c01b026001600160c01b03909216919091179055565b7f00000000000000000000000000000000000000000000000000000000000000006001600160a01b0316638da5cb5b6040518163ffffffff1660e01b8152600401602060405180830381865afa158015610a78573d6000803e3d6000fd5b505050506040513d601f19601f82011682018060405250810190610a9c919061489f565b6001600160a01b0316336001600160a01b031614610acc5760405162461bcd60e51b8152600401610993906148bc565b600d5460408051918252602082018390527f57eec44a5232b75b6ec0bcc71b82495f7de44ea4279afe1aa3e867dd521a075e910160405180910390a1600d55565b6000610b1b82600b5461336c565b92915050565b610b2961267b565b60007f00000000000000000000000000000000000000000000000000000000000000006001600160a01b031663017e7e586040518163ffffffff1660e01b8152600401602060405180830381865afa158015610b89573d6000803e3d6000fd5b505050506040513d601f19601f82011682018060405250810190610bad919061489f565b600c54604051636d289ce560e11b8152919250600160401b90046001600160801b0316906000907f00000000000000000000000000000000000000000000000000000000000000006001600160a01b03169063da5139ca90610c37907f000000000000000000000000000000000000000000000000000000000000000090869086906004016148f3565b602060405180830381865afa158015610c54573d6000803e3d6000fd5b505050506040513d601f19601f82011682018060405250810190610c789190614916565b604051633c6340f360e21b81529091506001600160a01b037f0000000000000000000000000000000000000000000000000000000000000000169063f18d03cc90610ced907f00000000000000000000000000000000000000000000000000000000000000009030908890879060040161492f565b600060405180830381600087803b158015610d0757600080fd5b505af1158015610d1b573d6000803e3d6000fd5b5050600c8054600160401b600160c01b031916905550506040518281526001600160a01b038416907fbe641c3ffc44b2d6c184f023fa4ed7bda4b6ffa71e03b3c98ae0c776da1f17e79060200160405180910390a2505050565b600080610d8061267b565b610d8a84846134d4565b90925090506000610d996107fe565b915050610da6338261336c565b610dc25760405162461bcd60e51b815260040161099390614959565b509250929050565b6001600160a01b037f0000000000000000000000000000000000000000000000000000000000000000163003610e1357604051637e933e4b60e11b815260040160405180910390fd5b6002546001600160a01b031615610e6c5760405162461bcd60e51b815260206004820152601d60248201527f4361756c64726f6e3a20616c726561647920696e697469616c697a65640000006044820152606401610993565b610e7881830183614990565b600f819055600d829055600e839055600c80546001600160c01b0316600160c01b6001600160401b03871602179055600260006003816004610eba8a82614a65565b50815461010091820a6001600160a01b03818102199092169b8216029a909a17909155825491900a8089021990911698881602979097179096555050604080518082019091526001600160801b038082526020909101525050600019600555600254169050610f605760405162461bcd60e51b815260206004820152601260248201527121b0bab6323937b71d103130b2103830b4b960711b6044820152606401610993565b60405163095ea7b360e01b81526001600160a01b037f00000000000000000000000000000000000000000000000000000000000000008116600483015260001960248301527f0000000000000000000000000000000000000000000000000000000000000000169063095ea7b3906044016020604051808303816000875af1158015610ff0573d6000803e3d6000fd5b505050506040513d601f19601f820116820180604052508101906110149190614b24565b507f00000000000000000000000000000000000000000000000000000000000000006001600160a01b03166000818152600a602081815260408084208054600160ff1991821681179092553086528286208054909116821790558151638da5cb5b60e01b81529151909593949392638da5cb5b92600480820193918290030181865afa1580156110a8573d6000803e3d6000fd5b505050506040513d601f19601f820116820180604052508101906110cc919061489f565b6001600160a01b039081168252602082019290925260409081016000908120805460ff1916941515949094179093555163c0a47c9360e01b81527f00000000000000000000000000000000000000000000000000000000000000009091169163c0a47c93916111689130917f00000000000000000000000000000000000000000000000000000000000000009160019181908190600401614b41565b600060405180830381600087803b15801561118257600080fd5b505af1158015611196573d6000803e3d6000fd5b505060035460405163d6d7d52560e01b81526001600160a01b03909116925063d6d7d52591506111ca9060049081016147d6565b60408051808303816000875af11580156111e8573d6000803e3d6000fd5b505050506040513d601f19601f8201168201806040525081019061120c9190614871565b600b555061121861267b565b5050565b7f00000000000000000000000000000000000000000000000000000000000000006001600160a01b0316638da5cb5b6040518163ffffffff1660e01b8152600401602060405180830381865afa15801561127a573d6000803e3d6000fd5b505050506040513d601f19601f8201168201806040525081019061129e919061489f565b6001600160a01b0316336001600160a01b0316146112ce5760405162461bcd60e51b8152600401610993906148bc565b600f5460408051918252602082018390527f4216a3e7a11e36090889fb0df2992ee9a622c5e97f8498a468c2b3474fa1d3a0910160405180910390a1600f55565b6040805180820190915260008082526020820181905290819060005b88811015611d065760008a8a8381811061134757611347614b7a565b905060200201602081019061135c9190614b9f565b905082602001511580156113735750600a8160ff16105b156113885761138061267b565b600160208401525b60091960ff8216016113e85760008060008989868181106113ab576113ab614b7a565b90506020028101906113bd9190614bbc565b8101906113ca9190614c02565b9250925092506113e08282610566868c8c613843565b505050611cfd565b60011960ff82160161144e57600080600089898681811061140b5761140b614b7a565b905060200281019061141d9190614bbc565b81019061142a9190614c02565b9250925092506114458282611440868c8c613843565b6130ca565b50505050611cfd565b60031960ff8216016114b15760008088888581811061146f5761146f614b7a565b90506020028101906114819190614bbc565b81019061148e9190614c44565b915091506114a6816114a1848a8a613843565b61386a565b505060018352611cfd565b60041960ff82160161151a576000808888858181106114d2576114d2614b7a565b90506020028101906114e49190614bbc565b8101906114f19190614c44565b9150915061150981611504848a8a613843565b6134d4565b600187529097509550611cfd915050565b600a1960ff8216016115e757600080600089898681811061153d5761153d614b7a565b905060200281019061154f9190614bbc565b81019061155c9190614c69565b92509250925060008061156d6107fe565b9150915084158061157b5750815b801561158657508381115b8015611599575082158061159957508281105b6115dd5760405162461bcd60e51b81526020600482015260156024820152744361756c64726f6e3a2072617465206e6f74206f6b60581b6044820152606401610993565b5050505050611cfd565b60171960ff8216016116cc576000806000806000808c8c8981811061160e5761160e614b7a565b90506020028101906116209190614bbc565b81019061162d9190614c9e565b9550955095509550955095507f00000000000000000000000000000000000000000000000000000000000000006001600160a01b031663c0a47c938787878787876040518763ffffffff1660e01b815260040161168f96959493929190614b41565b600060405180830381600087803b1580156116a957600080fd5b505af11580156116bd573d6000803e3d6000fd5b50505050505050505050611cfd565b60131960ff821601611760576117568787848181106116ed576116ed614b7a565b90506020028101906116ff9190614bbc565b8080601f0160208091040260200160405190810160405280939291908181526020018383808284376000920191909152508d92508c915086905081811061174857611748614b7a565b905060200201358787613973565b9095509350611cfd565b60141960ff8216016117d15761175687878481811061178157611781614b7a565b90506020028101906117939190614bbc565b8080601f016020809104026020016040519081016040528093929190818152602001838380828437600092019190915250899250889150613a5a9050565b60151960ff8216016118af5760008060008989868181106117f4576117f4614b7a565b90506020028101906118069190614bbc565b8101906118139190614d0c565b9250925092507f00000000000000000000000000000000000000000000000000000000000000006001600160a01b031663f18d03cc843385611856868e8e613843565b6040518563ffffffff1660e01b8152600401611875949392919061492f565b600060405180830381600087803b15801561188f57600080fd5b505af11580156118a3573d6000803e3d6000fd5b50505050505050611cfd565b60161960ff8216016119495760008060008989868181106118d2576118d2614b7a565b90506020028101906118e49190614bbc565b8101906118f19190614d3c565b9250925092507f00000000000000000000000000000000000000000000000000000000000000006001600160a01b0316630fca8843843385856040518563ffffffff1660e01b81526004016118759493929190614db1565b601d1960ff821601611a2c576000806119d68b8b8681811061196d5761196d614b7a565b905060200201358a8a8781811061198657611986614b7a565b90506020028101906119989190614bbc565b8080601f0160208091040260200160405190810160405280939291908181526020018383808284376000920191909152508c92508b9150613b399050565b915091508060ff16600103611a0057818060200190518101906119f99190614916565b9650611a25565b8060ff16600203611a255781806020019051810190611a1f9190614e4c565b90975095505b5050611cfd565b60051960ff821601611b64576000878784818110611a4c57611a4c614b7a565b9050602002810190611a5e9190614bbc565b810190611a6b91906142ba565b90507f00000000000000000000000000000000000000000000000000000000000000006001600160a01b031663da5139ca7f0000000000000000000000000000000000000000000000000000000000000000611afb611acb858b8b613843565b604080518082019091526007546001600160801b038082168352600160801b909104166020820152906001613d0e565b60016040518463ffffffff1660e01b8152600401611b1b939291906148f3565b602060405180830381865afa158015611b38573d6000803e3d6000fd5b505050506040513d601f19601f82011682018060405250810190611b5c9190614916565b955050611cfd565b60061960ff821601611be3576000878784818110611b8457611b84614b7a565b9050602002810190611b969190614bbc565b810190611ba391906142ba565b9050611b5c611bb3828888613843565b604080518082019091526007546001600160801b038082168352600160801b909104166020820152906000613dac565b601e1960ff821601611c2057611c1b878784818110611c0457611c04614b7a565b9050602002810190611c169190614bbc565b613e21565b611cfd565b6000806000611ca584878e8e89818110611c3c57611c3c614b7a565b905060200201358d8d8a818110611c5557611c55614b7a565b9050602002810190611c679190614bbc565b8080601f0160208091040260200160405190810160405280939291908181526020018383808284376000920191909152508f92508e9150613e539050565b9250925092508095508160ff16600103611cd45782806020019051810190611ccd9190614916565b9750611cf9565b8160ff16600203611cf95782806020019051810190611cf39190614e4c565b90985096505b5050505b5060010161132b565b50805115611d43576000611d186107fe565b915050611d25338261336c565b611d415760405162461bcd60e51b815260040161099390614959565b505b50965096945050505050565b60048054611d5c9061479c565b80601f0160208091040260200160405190810160405280929190818152602001828054611d889061479c565b8015611dd55780601f10611daa57610100808354040283529160200191611dd5565b820191906000526020600020905b815481529060010190602001808311611db857829003601f168201915b505050505081565b7f00000000000000000000000000000000000000000000000000000000000000006001600160a01b0316638da5cb5b6040518163ffffffff1660e01b8152600401602060405180830381865afa158015611e3b573d6000803e3d6000fd5b505050506040513d601f19601f82011682018060405250810190611e5f919061489f565b6001600160a01b0316336001600160a01b031614611e8f5760405162461bcd60e51b8152600401610993906148bc565b604051633de222bb60e21b81527f00000000000000000000000000000000000000000000000000000000000000006001600160a01b0381811660048401523060248401526000927f00000000000000000000000000000000000000000000000000000000000000009190911691635662311891839063f7888aec90604401602060405180830381865afa158015611f2a573d6000803e3d6000fd5b505050506040513d601f19601f82011682018060405250810190611f4e9190614916565b60006040518463ffffffff1660e01b8152600401611f6e939291906148f3565b602060405180830381865afa158015611f8b573d6000803e3d6000fd5b505050506040513d601f19601f82011682018060405250810190611faf9190614916565b9050818111611fbe5780611fc0565b815b60405163097da6d360e41b81529092506001600160a01b037f000000000000000000000000000000000000000000000000000000000000000016906397da6d3090612038907f000000000000000000000000000000000000000000000000000000000000000090309033908890600090600401614e70565b60408051808303816000875af1158015612056573d6000803e3d6000fd5b505050506040513d601f19601f8201168201806040525081019061207a9190614e4c565b50505050565b6001600160a01b0383166000908152600860205260409020546120a39082613e78565b6001600160a01b0384166000908152600860205260409020556006546120c98183613e78565b6006556002546120e4906001600160a01b0316838386613e84565b836001600160a01b0316836120f9573361211b565b7f00000000000000000000000000000000000000000000000000000000000000005b6001600160a01b03167f9ed03113de523cebfe5e49d5f8e12894b1c0d42ce805990461726444c90eab878460405161215591815260200190565b60405180910390a350505050565b61216b61267b565b612175828261386a565b600061217f6107fe565b91505061218c338261336c565b6121a85760405162461bcd60e51b815260040161099390614959565b505050565b7f00000000000000000000000000000000000000000000000000000000000000006001600160a01b0316638da5cb5b6040518163ffffffff1660e01b8152600401602060405180830381865afa15801561220b573d6000803e3d6000fd5b505050506040513d601f19601f8201168201806040525081019061222f919061489f565b6001600160a01b0316336001600160a01b03161461225f5760405162461bcd60e51b8152600401610993906148bc565b600e5460408051918252602082018390527f4308679a9f572f4c8fc208e7d44e15ab655281fca9957589fdafa2791787b57a910160405180910390a1600e55565b7f00000000000000000000000000000000000000000000000000000000000000006001600160a01b0316638da5cb5b6040518163ffffffff1660e01b8152600401602060405180830381865afa1580156122fe573d6000803e3d6000fd5b505050506040513d601f19601f82011682018060405250810190612322919061489f565b6001600160a01b0316336001600160a01b0316146123525760405162461bcd60e51b8152600401610993906148bc565b7f00000000000000000000000000000000000000000000000000000000000000006001600160a01b0316826001600160a01b03161415801561239d57506001600160a01b0382163014155b6123da5760405162461bcd60e51b815260206004820152600e60248201526d696e76616c69642063616c6c656560901b6044820152606401610993565b6001600160a01b0382166000818152600a6020908152604091829020805460ff191685151590811790915591519182527fc5bd4365c17df9e09859dec0d4cd85d49349f6b2d710024a59a124925189615f910160405180910390a25050565b6000546001600160a01b031633146124825760405162461bcd60e51b815260206004820152600c60248201526b15539055551213d49256915160a21b6044820152606401610993565b600080546001600160a01b0319166001600160a01b0383169081178255604051909133917f8be0079c531659141344cd1fd0a4f28419497f9722a3daafe3b4186f6b6457e09190a350565b6000546001600160a01b031633146125165760405162461bcd60e51b815260206004820152600c60248201526b15539055551213d49256915160a21b6044820152606401610993565b600180546001600160a01b0319166001600160a01b0383169081179091556040517fcf1d3f17e521c635e0d20b8acba94ba170afc041d0546d46dafa09d3c9c19eb390600090a250565b7f00000000000000000000000000000000000000000000000000000000000000006001600160a01b0316638da5cb5b6040518163ffffffff1660e01b8152600401602060405180830381865afa1580156125be573d6000803e3d6000fd5b505050506040513d601f19601f820116820180604052508101906125e2919061489f565b6001600160a01b0316336001600160a01b0316146126125760405162461bcd60e51b8152600401610993906148bc565b6040805180820182526001600160801b038481168083529084166020928301819052600160801b810282176005558351918252918101919091527ff1fce436bc22563026222b3b2bdc088cb69d25192974264114df12ab812628f6910160405180910390a15050565b60408051606081018252600c546001600160401b038082168084526001600160801b03600160401b8404166020850152600160c01b9092041692820192909252906000906126c99042614eba565b9050806000036126d7575050565b6001600160401b0342168252604080518082019091526007546001600160801b038082168352600160801b909104166020820181905260000361276c5750508051600c805460208401516040909401516001600160401b03908116600160c01b026001600160c01b036001600160801b03909616600160401b026001600160c01b031990931691909416171792909216179055565b60006127c0670de0b6b3a76400006127b1856127ab88604001516001600160401b031687600001516001600160801b031661406190919063ffffffff16565b90614061565b6127bb9190614ecd565b61406d565b82519091506127d8906001600160801b03168261409b565b6001600160801b03908116835260208501516127f591168261409b565b6001600160801b0390811660208681018290528451858201518416600160801b02908416176007558651600c80546040808b01516001600160401b03908116600160c01b026001600160c01b03600160401b9098026001600160c01b031990941691909516179190911794909416919091179055905191831682527fee527de5e142bcc7fe0eddc4b9a04816d73f6307dd74f9204585910d60a8c083910160405180910390a150505050565b60006128ab6107fe565b9150506128b661267b565b600254604051634ffe34db60e01b81526001600160a01b0391821660048201526000918291829182917f000000000000000000000000000000000000000000000000000000000000000090911690634ffe34db906024016040805180830381865afa158015612929573d6000803e3d6000fd5b505050506040513d601f19601f8201168201806040525081019061294d9190614eef565b905060005b8a51811015612be85760008b828151811061296f5761296f614b7a565b60200260200101519050612983818861336c565b612bdf576001600160a01b0381166000908152600960205260408120548c5181908e90869081106129b6576129b6614b7a565b6020026020010151116129e2578c84815181106129d5576129d5614b7a565b60200260200101516129e4565b805b604080518082019091526007546001600160801b038082168352600160801b909104166020820152909250600090612a1d908483613d0e565b90506000612a65612a39670de0b6b3a7640000620186a0614f4d565b612a528d6127ab600e548761406190919063ffffffff16565b612a5c9190614ecd565b88906000613dac565b9050612a7183856140a7565b6001600160a01b038616600090815260096020908152604080832093909355600890522054612aa090826140a7565b6001600160a01b0386166000908152600860205260409020558d6001600160a01b0316856001600160a01b03167f8ad4d3ff00da092c7ad9a573ea4f5f6a3dffc6712dc06d3f78f49b862297c40283604051612afe91815260200190565b60405180910390a360408051838152602081018690526001600160a01b0387169133917fc8e512d8f188ca059984b5853d2bf653da902696b8512785b182b2c813789a6e910160405180910390a38d6001600160a01b0316856001600160a01b0316336001600160a01b03167f66b108dc29b952efc76dccea9b82dce6b59fab4d9af73d8dcc9789afcad5daf6848689604051612bae939291909283526020830191909152604082015260600190565b60405180910390a4612bc08a82613e78565b9950612bcc8983613e78565b9850612bd88885613e78565b9750505050505b50600101612952565b5082600003612c395760405162461bcd60e51b815260206004820152601960248201527f4361756c64726f6e3a20616c6c2061726520736f6c76656e74000000000000006044820152606401610993565b612c57612c458461406d565b6007546001600160801b0316906140b3565b600780546fffffffffffffffffffffffffffffffff19166001600160801b0392909216919091179055612ca5612c8c8361406d565b600754600160801b90046001600160801b0316906140b3565b600780546001600160801b03928316600160801b029216919091179055600654612ccf90856140a7565b60068190555060006064612d0b600a6127ab87620186a0612cfb600e548b61406190919063ffffffff16565b612d059190614ecd565b906140a7565b612d159190614ecd565b9050612d218482613e78565b9350612d48612d2f8261406d565b600c54600160401b90046001600160801b03169061409b565b600c80546001600160801b0392909216600160401b02600160401b600160c01b031990921691909117905550604051636d289ce560e11b81526000906001600160a01b037f0000000000000000000000000000000000000000000000000000000000000000169063da5139ca90612de8907f00000000000000000000000000000000000000000000000000000000000000009088906001906004016148f3565b602060405180830381865afa158015612e05573d6000803e3d6000fd5b505050506040513d601f19601f82011682018060405250810190612e299190614916565b600254604051633c6340f360e21b81529192506001600160a01b037f000000000000000000000000000000000000000000000000000000000000000081169263f18d03cc92612e8292169030908e908b9060040161492f565b600060405180830381600087803b158015612e9c57600080fd5b505af1158015612eb0573d6000803e3d6000fd5b505050506001600160a01b03881615612f645760025460405163a5d4096b60e01b81526001600160a01b038a81169263a5d4096b92612f1f92909116907f000000000000000000000000000000000000000000000000000000000000000090339087908c908f90600401614f64565b60408051808303816000875af1158015612f3d573d6000803e3d6000fd5b505050506040513d601f19601f82011682018060405250810190612f619190614e4c565b50505b604051636d289ce560e11b81526001600160a01b037f0000000000000000000000000000000000000000000000000000000000000000169063da5139ca90612fd5907f00000000000000000000000000000000000000000000000000000000000000009088906001906004016148f3565b602060405180830381865afa158015612ff2573d6000803e3d6000fd5b505050506040513d601f19601f820116820180604052508101906130169190614916565b604051633c6340f360e21b81529091506001600160a01b037f0000000000000000000000000000000000000000000000000000000000000000169063f18d03cc9061308b907f00000000000000000000000000000000000000000000000000000000000000009033903090879060040161492f565b600060405180830381600087803b1580156130a557600080fd5b505af11580156130b9573d6000803e3d6000fd5b505050505050505050505050505050565b604080518082019091526007546001600160801b038082168352600160801b909104166020820152600090613101908360016140bf565b81516020928301516001600160801b03908116600160801b029116176007556001600160a01b0386166000908152600990925260409091205490915061314790836140a7565b6001600160a01b03808616600090815260096020526040808220939093559151636d289ce560e11b81527f00000000000000000000000000000000000000000000000000000000000000009091169063da5139ca906131cf907f00000000000000000000000000000000000000000000000000000000000000009086906001906004016148f3565b602060405180830381865afa1580156131ec573d6000803e3d6000fd5b505050506040513d601f19601f820116820180604052508101906132109190614916565b90507f00000000000000000000000000000000000000000000000000000000000000006001600160a01b031663f18d03cc7f00000000000000000000000000000000000000000000000000000000000000008661326d573361328f565b7f00000000000000000000000000000000000000000000000000000000000000005b30856040518563ffffffff1660e01b81526004016132b0949392919061492f565b600060405180830381600087803b1580156132ca57600080fd5b505af11580156132de573d6000803e3d6000fd5b50505050846001600160a01b0316846132f75733613319565b7f00000000000000000000000000000000000000000000000000000000000000005b6001600160a01b03167fc8e512d8f188ca059984b5853d2bf653da902696b8512785b182b2c813789a6e848660405161335c929190918252602082015260400190565b60405180910390a3509392505050565b6001600160a01b038216600090815260096020526040812054808203613396576001915050610b1b565b6001600160a01b038416600090815260086020526040812054908190036133c257600092505050610b1b565b604080518082019091526007546001600160801b03808216808452600160801b9092041660208301819052906133ff9087906127ab908790614061565b6134099190614ecd565b600254600d546001600160a01b037f0000000000000000000000000000000000000000000000000000000000000000811692635662311892911690613467906127ab613460620186a0670de0b6b3a7640000614ecd565b8990614061565b60006040518463ffffffff1660e01b8152600401613487939291906148f3565b602060405180830381865afa1580156134a4573d6000803e3d6000fd5b505050506040513d601f19601f820116820180604052508101906134c89190614916565b10159695505050505050565b6000806000620186a06134f2600f548661406190919063ffffffff16565b6134fc9190614ecd565b905061353b61350b8583613e78565b604080518082019091526007546001600160801b038082168352600160801b909104166020820152906001614134565b81516020928301516001600160801b03908116600160801b90810292821683811760075560408051808201909152600554808516808352939004841696810196909652939750911690911711156135cb5760405162461bcd60e51b8152602060048201526014602482015273109bdc9c9bddc8131a5b5a5d081c995858da195960621b6044820152606401610993565b600c546135e890600160401b90046001600160801b03168361409b565b600c80546001600160801b0392909216600160401b02600160401b600160c01b03199092169190911790553360009081526009602052604081205461362d9086613e78565b905081602001516001600160801b03168111156136835760405162461bcd60e51b8152602060048201526014602482015273109bdc9c9bddc8131a5b5a5d081c995858da195960621b6044820152606401610993565b3360009081526009602052604080822083905551636d289ce560e11b81527f00000000000000000000000000000000000000000000000000000000000000006001600160a01b03169163da5139ca91613703917f0000000000000000000000000000000000000000000000000000000000000000918b91906004016148f3565b602060405180830381865afa158015613720573d6000803e3d6000fd5b505050506040513d601f19601f820116820180604052508101906137449190614916565b604051633c6340f360e21b81529094506001600160a01b037f0000000000000000000000000000000000000000000000000000000000000000169063f18d03cc906137b9907f00000000000000000000000000000000000000000000000000000000000000009030908c908a9060040161492f565b600060405180830381600087803b1580156137d357600080fd5b505af11580156137e7573d6000803e3d6000fd5b5050506001600160a01b0388169050337fb92cb6bca8e3270b9170930f03b17571e55791acdb1a0e9f339eec88bdb35e246138228987613e78565b60408051918252602082018a90520160405180910390a35050509250929050565b60008084121561386257600019841461385c57816108d9565b826108d9565b509192915050565b3360009081526008602052604090205461388490826140a7565b336000908152600860205260409020556006546138a190826140a7565b6006556040518181526001600160a01b0383169033907f8ad4d3ff00da092c7ad9a573ea4f5f6a3dffc6712dc06d3f78f49b862297c4029060200160405180910390a3600254604051633c6340f360e21b81526001600160a01b037f000000000000000000000000000000000000000000000000000000000000000081169263f18d03cc9261393d92919091169030908790879060040161492f565b600060405180830381600087803b15801561395757600080fd5b505af115801561396b573d6000803e3d6000fd5b505050505050565b600080600080600080898060200190518101906139909190614fb2565b93509350935093506139a3828989613843565b91506139b0818989613843565b90507f00000000000000000000000000000000000000000000000000000000000000006001600160a01b03166302b9446c8a86338787876040518763ffffffff1660e01b8152600401613a07959493929190614e70565b604080518083038185885af1158015613a24573d6000803e3d6000fd5b50505050506040513d601f19601f82011682018060405250810190613a499190614e4c565b955095505050505094509492505050565b60008060008060008088806020019051810190613a779190614fb2565b93509350935093507f00000000000000000000000000000000000000000000000000000000000000006001600160a01b03166397da6d30853386613abc878e8e613843565b613ac7878f8f613843565b6040518663ffffffff1660e01b8152600401613ae7959493929190614e70565b60408051808303816000875af1158015613b05573d6000803e3d6000fd5b505050506040513d601f19601f82011682018060405250810190613b299190614e4c565b9550955050505050935093915050565b606060008060008060008089806020019051810190613b589190615005565b94509450945094509450828015613b6d575081155b15613b9b578389604051602001613b859291906150c2565b6040516020818303038152906040529350613bf4565b82158015613ba65750815b15613bbe578388604051602001613b859291906150c2565b828015613bc85750815b15613bf457838989604051602001613be2939291906150e4565b60405160208183030381529060405293505b6001600160a01b0385166000908152600a602052604090205460ff1615613c545760405162461bcd60e51b815260206004820152601460248201527310d85d5b191c9bdb8e8818d85b89dd0818d85b1b60621b6044820152606401610993565b600080866001600160a01b03168d87604051613c70919061510b565b60006040518083038185875af1925050503d8060008114613cad576040519150601f19603f3d011682016040523d82523d6000602084013e613cb2565b606091505b509150915081613cfc5760405162461bcd60e51b815260206004820152601560248201527410d85d5b191c9bdb8e8818d85b1b0819985a5b1959605a1b6044820152606401610993565b9c919b50909950505050505050505050565b600083602001516001600160801b0316600003613d2c575081613da5565b602084015184516001600160801b0391821691613d4a911685614f4d565b613d549190614ecd565b9050818015613d9257508284600001516001600160801b031685602001516001600160801b031683613d869190614f4d565b613d909190614ecd565b105b15613da55780613da181615127565b9150505b9392505050565b82516000906001600160801b03168103613dc7575081613da5565b835160208501516001600160801b0391821691613de5911685614f4d565b613def9190614ecd565b9050818015613d9257508284602001516001600160801b031685600001516001600160801b031683613d869190614f4d565b600080808080613e33868801886146eb565b94509450945094509450613e4a85858585856128a1565b50505050505050565b6040805180820190915260008082526020820181905260609196509650969350505050565b6000613da58284615140565b8015613f7457604051633de222bb60e21b81526001600160a01b038581166004830152306024830152613f209184917f0000000000000000000000000000000000000000000000000000000000000000169063f7888aec90604401602060405180830381865afa158015613efc573d6000803e3d6000fd5b505050506040513d601f19601f82011682018060405250810190612d059190614916565b831115613f6f5760405162461bcd60e51b815260206004820152601760248201527f4361756c64726f6e3a20536b696d20746f6f206d7563680000000000000000006044820152606401610993565b61207a565b613fa46040518060400160405280600e81526020016d6d73672e73656e6465723a20257360901b81525033614195565b613fd760405180604001604052806011815260200170616464726573732874686973293a20257360781b81525030614195565b604051633c6340f360e21b81526001600160a01b037f0000000000000000000000000000000000000000000000000000000000000000169063f18d03cc9061402990879033903090899060040161492f565b600060405180830381600087803b15801561404357600080fd5b505af1158015614057573d6000803e3d6000fd5b5050505050505050565b6000613da58284614f4d565b60006001600160801b0382111561409757604051633b13fa2560e11b815260040160405180910390fd5b5090565b6000613da58284615153565b6000613da58284614eba565b6000613da5828461517a565b604080518082019091526000808252602082015260006140e0858585613d0e565b90506140eb8161406d565b855186906140fa90839061517a565b6001600160801b031690525061410f8461406d565b85602001818151614120919061517a565b6001600160801b0316905250939492505050565b60408051808201909152600080825260208201526000614155858585613dac565b90506141608461406d565b8551869061416f908390615153565b6001600160801b03169052506141848161406d565b856020018181516141209190615153565b61121882826040516024016141ab92919061519a565b60408051601f198184030181529190526020810180516001600160e01b031663319af33360e01b1790526141de816141e1565b50565b60006a636f6e736f6c652e6c6f679050600080835160208501845afa505050565b6001600160a01b03811681146141de57600080fd5b80151581146141de57600080fd5b60008060006060848603121561423a57600080fd5b833561424581614202565b9250602084013561425581614217565b929592945050506040919091013590565b60006020828403121561427857600080fd5b8135613da581614202565b80356001600160401b038116811461429a57600080fd5b919050565b6000602082840312156142b157600080fd5b613da582614283565b6000602082840312156142cc57600080fd5b5035919050565b600080604083850312156142e657600080fd5b82356142f181614202565b946020939093013593505050565b6000806020838503121561431257600080fd5b82356001600160401b038082111561432957600080fd5b818501915085601f83011261433d57600080fd5b81358181111561434c57600080fd5b86602082850101111561435e57600080fd5b60209290920196919550909350505050565b60008083601f84011261438257600080fd5b5081356001600160401b0381111561439957600080fd5b6020830191508360208260051b85010111156143b457600080fd5b9250929050565b600080600080600080606087890312156143d457600080fd5b86356001600160401b03808211156143eb57600080fd5b6143f78a838b01614370565b9098509650602089013591508082111561441057600080fd5b61441c8a838b01614370565b9096509450604089013591508082111561443557600080fd5b5061444289828a01614370565b979a9699509497509295939492505050565b60005b8381101561446f578181015183820152602001614457565b50506000910152565b60008151808452614490816020860160208601614454565b601f01601f19169290920160200192915050565b602081526000613da56020830184614478565b600080604083850312156144ca57600080fd5b82356144d581614202565b915060208301356144e581614217565b809150509250929050565b6001600160801b03811681146141de57600080fd5b6000806040838503121561451857600080fd5b8235614523816144f0565b915060208301356144e5816144f0565b634e487b7160e01b600052604160045260246000fd5b604051601f8201601f191681016001600160401b038111828210171561457157614571614533565b604052919050565b60006001600160401b0382111561459257614592614533565b5060051b60200190565b600082601f8301126145ad57600080fd5b813560206145c26145bd83614579565b614549565b8083825260208201915060208460051b8701019350868411156145e457600080fd5b602086015b848110156146095780356145fc81614202565b83529183019183016145e9565b509695505050505050565b600082601f83011261462557600080fd5b813560206146356145bd83614579565b8083825260208201915060208460051b87010193508684111561465757600080fd5b602086015b84811015614609578035835291830191830161465c565b60006001600160401b0382111561468c5761468c614533565b50601f01601f191660200190565b600082601f8301126146ab57600080fd5b81356146b96145bd82614673565b8181528460208386010111156146ce57600080fd5b816020850160208301376000918101602001919091529392505050565b600080600080600060a0868803121561470357600080fd5b85356001600160401b038082111561471a57600080fd5b61472689838a0161459c565b9650602088013591508082111561473c57600080fd5b61474889838a01614614565b95506040880135915061475a82614202565b90935060608701359061476c82614202565b9092506080870135908082111561478257600080fd5b5061478f8882890161469a565b9150509295509295909350565b600181811c908216806147b057607f821691505b6020821081036147d057634e487b7160e01b600052602260045260246000fd5b50919050565b60006020808352600084546147ea8161479c565b806020870152604060018084166000811461480c576001811461482857614858565b60ff19851660408a0152604084151560051b8a01019550614858565b89600052602060002060005b8581101561484f5781548b8201860152908301908801614834565b8a016040019650505b509398975050505050505050565b805161429a81614217565b6000806040838503121561488457600080fd5b825161488f81614217565b6020939093015192949293505050565b6000602082840312156148b157600080fd5b8151613da581614202565b60208082526017908201527f43616c6c6572206973206e6f7420746865206f776e6572000000000000000000604082015260600190565b6001600160a01b0393909316835260208301919091521515604082015260600190565b60006020828403121561492857600080fd5b5051919050565b6001600160a01b039485168152928416602084015292166040820152606081019190915260800190565b60208082526018908201527f4361756c64726f6e3a207573657220696e736f6c76656e740000000000000000604082015260600190565b600080600080600080600060e0888a0312156149ab57600080fd5b87356149b681614202565b965060208801356149c681614202565b955060408801356001600160401b038111156149e157600080fd5b6149ed8a828b0161469a565b9550506149fc60608901614283565b9699959850939660808101359560a0820135955060c0909101359350915050565b601f8211156121a8576000816000526020600020601f850160051c81016020861015614a465750805b601f850160051c820191505b8181101561396b57828155600101614a52565b81516001600160401b03811115614a7e57614a7e614533565b614a9281614a8c845461479c565b84614a1d565b602080601f831160018114614ac75760008415614aaf5750858301515b600019600386901b1c1916600185901b17855561396b565b600085815260208120601f198616915b82811015614af657888601518255948401946001909101908401614ad7565b5085821015614b145787850151600019600388901b60f8161c191681555b5050505050600190811b01905550565b600060208284031215614b3657600080fd5b8151613da581614217565b6001600160a01b039687168152949095166020850152911515604084015260ff166060830152608082015260a081019190915260c00190565b634e487b7160e01b600052603260045260246000fd5b60ff811681146141de57600080fd5b600060208284031215614bb157600080fd5b8135613da581614b90565b6000808335601e19843603018112614bd357600080fd5b8301803591506001600160401b03821115614bed57600080fd5b6020019150368190038213156143b457600080fd5b600080600060608486031215614c1757600080fd5b833592506020840135614c2981614202565b91506040840135614c3981614217565b809150509250925092565b60008060408385031215614c5757600080fd5b8235915060208301356144e581614202565b600080600060608486031215614c7e57600080fd5b8335614c8981614217565b95602085013595506040909401359392505050565b60008060008060008060c08789031215614cb757600080fd5b8635614cc281614202565b95506020870135614cd281614202565b94506040870135614ce281614217565b93506060870135614cf281614b90565b9598949750929560808101359460a0909101359350915050565b600080600060608486031215614d2157600080fd5b8335614d2c81614202565b9250602084013561425581614202565b600080600060608486031215614d5157600080fd5b8335614d5c81614202565b925060208401356001600160401b0380821115614d7857600080fd5b614d848783880161459c565b93506040860135915080821115614d9a57600080fd5b50614da786828701614614565b9150509250925092565b60006080820160018060a01b0380881684526020818816818601526080604086015282875180855260a087019150828901945060005b81811015614e05578551851683529483019491830191600101614de7565b5050858103606087015286518082529082019350915080860160005b83811015614e3d57815185529382019390820190600101614e21565b50929998505050505050505050565b60008060408385031215614e5f57600080fd5b505080516020909101519092909150565b6001600160a01b03958616815293851660208501529190931660408301526060820192909252608081019190915260a00190565b634e487b7160e01b600052601160045260246000fd5b81810381811115610b1b57610b1b614ea4565b600082614eea57634e487b7160e01b600052601260045260246000fd5b500490565b600060408284031215614f0157600080fd5b604051604081018181106001600160401b0382111715614f2357614f23614533565b6040528251614f31816144f0565b81526020830151614f41816144f0565b60208201529392505050565b8082028115828204841417610b1b57610b1b614ea4565b6001600160a01b038781168252868116602083015285166040820152606081018490526080810183905260c060a08201819052600090614fa690830184614478565b98975050505050505050565b60008060008060808587031215614fc857600080fd5b8451614fd381614202565b6020860151909450614fe481614202565b6040860151606090960151949790965092505050565b805161429a81614b90565b600080600080600060a0868803121561501d57600080fd5b855161502881614202565b60208701519095506001600160401b0381111561504457600080fd5b8601601f8101881361505557600080fd5b80516150636145bd82614673565b81815289602083850101111561507857600080fd5b615089826020830160208601614454565b955061509a91505060408701614866565b92506150a860608701614866565b91506150b660808701614ffa565b90509295509295909350565b600083516150d4818460208801614454565b9190910191825250602001919050565b600084516150f6818460208901614454565b91909101928352506020820152604001919050565b6000825161511d818460208701614454565b9190910192915050565b60006001820161513957615139614ea4565b5060010190565b80820180821115610b1b57610b1b614ea4565b6001600160801b0381811683821601908082111561517357615173614ea4565b5092915050565b6001600160801b0382811682821603908082111561517357615173614ea4565b6040815260006151ad6040830185614478565b905060018060a01b0383166020830152939250505056fea2646970667358221220101d7c9919e5de1a3c8b660d93cb42aebb61e6f0203787f34cffce74019c944364736f6c63430008180033",
  "linkReferences": {},
  "deployedLinkReferences": {}
}