{
  "_format": "hh-sol-artifact-1",
  "contractName": "AxelarGateway",
  "sourceName": "contracts/axelar/AxelarGateway.sol",
  "abi": [
    {
      "inputs": [
        {
          "internalType": "address",
          "name": "authModule_",
          "type": "address"
        },
        {
          "internalType": "address",
          "name": "tokenDeployer_",
          "type": "address"
        }
      ],
      "stateMutability": "nonpayable",
      "type": "constructor"
    },
    {
      "inputs": [
        {
          "internalType": "string",
          "name": "symbol",
          "type": "string"
        }
      ],
      "name": "BurnFailed",
      "type": "error"
    },
    {
      "inputs": [
        {
          "internalType": "string",
          "name": "symbol",
          "type": "string"
        }
      ],
      "name": "ExceedMintLimit",
      "type": "error"
    },
    {
      "inputs": [],
      "name": "InvalidAmount",
      "type": "error"
    },
    {
      "inputs": [],
      "name": "InvalidAuthModule",
      "type": "error"
    },
    {
      "inputs": [],
      "name": "InvalidChainId",
      "type": "error"
    },
    {
      "inputs": [],
      "name": "InvalidCodeHash",
      "type": "error"
    },
    {
      "inputs": [],
      "name": "InvalidCommands",
      "type": "error"
    },
    {
      "inputs": [],
      "name": "InvalidGovernance",
      "type": "error"
    },
    {
      "inputs": [],
      "name": "InvalidImplementation",
      "type": "error"
    },
    {
      "inputs": [],
      "name": "InvalidMintLimiter",
      "type": "error"
    },
    {
      "inputs": [],
      "name": "InvalidSetMintLimitsParams",
      "type": "error"
    },
    {
      "inputs": [],
      "name": "InvalidTokenDeployer",
      "type": "error"
    },
    {
      "inputs": [
        {
          "internalType": "string",
          "name": "symbol",
          "type": "string"
        }
      ],
      "name": "MintFailed",
      "type": "error"
    },
    {
      "inputs": [],
      "name": "NotGovernance",
      "type": "error"
    },
    {
      "inputs": [],
      "name": "NotMintLimiter",
      "type": "error"
    },
    {
      "inputs": [],
      "name": "NotProxy",
      "type": "error"
    },
    {
      "inputs": [],
      "name": "NotSelf",
      "type": "error"
    },
    {
      "inputs": [],
      "name": "SetupFailed",
      "type": "error"
    },
    {
      "inputs": [
        {
          "internalType": "string",
          "name": "symbol",
          "type": "string"
        }
      ],
      "name": "TokenAlreadyExists",
      "type": "error"
    },
    {
      "inputs": [
        {
          "internalType": "address",
          "name": "token",
          "type": "address"
        }
      ],
      "name": "TokenContractDoesNotExist",
      "type": "error"
    },
    {
      "inputs": [
        {
          "internalType": "string",
          "name": "symbol",
          "type": "string"
        }
      ],
      "name": "TokenDeployFailed",
      "type": "error"
    },
    {
      "inputs": [
        {
          "internalType": "string",
          "name": "symbol",
          "type": "string"
        }
      ],
      "name": "TokenDoesNotExist",
      "type": "error"
    },
    {
      "inputs": [],
      "name": "TokenTransferFailed",
      "type": "error"
    },
    {
      "anonymous": false,
      "inputs": [
        {
          "indexed": false,
          "internalType": "bytes4",
          "name": "commandSelector",
          "type": "bytes4"
        }
      ],
      "name": "CommandSelector",
      "type": "event"
    },
    {
      "anonymous": false,
      "inputs": [
        {
          "indexed": true,
          "internalType": "address",
          "name": "sender",
          "type": "address"
        },
        {
          "indexed": false,
          "internalType": "string",
          "name": "destinationChain",
          "type": "string"
        },
        {
          "indexed": false,
          "internalType": "string",
          "name": "destinationContractAddress",
          "type": "string"
        },
        {
          "indexed": true,
          "internalType": "bytes32",
          "name": "payloadHash",
          "type": "bytes32"
        },
        {
          "indexed": false,
          "internalType": "bytes",
          "name": "payload",
          "type": "bytes"
        }
      ],
      "name": "ContractCall",
      "type": "event"
    },
    {
      "anonymous": false,
      "inputs": [
        {
          "indexed": true,
          "internalType": "bytes32",
          "name": "commandId",
          "type": "bytes32"
        },
        {
          "indexed": false,
          "internalType": "string",
          "name": "sourceChain",
          "type": "string"
        },
        {
          "indexed": false,
          "internalType": "string",
          "name": "sourceAddress",
          "type": "string"
        },
        {
          "indexed": true,
          "internalType": "address",
          "name": "contractAddress",
          "type": "address"
        },
        {
          "indexed": true,
          "internalType": "bytes32",
          "name": "payloadHash",
          "type": "bytes32"
        },
        {
          "indexed": false,
          "internalType": "bytes32",
          "name": "sourceTxHash",
          "type": "bytes32"
        },
        {
          "indexed": false,
          "internalType": "uint256",
          "name": "sourceEventIndex",
          "type": "uint256"
        }
      ],
      "name": "ContractCallApproved",
      "type": "event"
    },
    {
      "anonymous": false,
      "inputs": [
        {
          "indexed": true,
          "internalType": "bytes32",
          "name": "commandId",
          "type": "bytes32"
        },
        {
          "indexed": false,
          "internalType": "string",
          "name": "sourceChain",
          "type": "string"
        },
        {
          "indexed": false,
          "internalType": "string",
          "name": "sourceAddress",
          "type": "string"
        },
        {
          "indexed": true,
          "internalType": "address",
          "name": "contractAddress",
          "type": "address"
        },
        {
          "indexed": true,
          "internalType": "bytes32",
          "name": "payloadHash",
          "type": "bytes32"
        },
        {
          "indexed": false,
          "internalType": "string",
          "name": "symbol",
          "type": "string"
        },
        {
          "indexed": false,
          "internalType": "uint256",
          "name": "amount",
          "type": "uint256"
        },
        {
          "indexed": false,
          "internalType": "bytes32",
          "name": "sourceTxHash",
          "type": "bytes32"
        },
        {
          "indexed": false,
          "internalType": "uint256",
          "name": "sourceEventIndex",
          "type": "uint256"
        }
      ],
      "name": "ContractCallApprovedWithMint",
      "type": "event"
    },
    {
      "anonymous": false,
      "inputs": [
        {
          "indexed": true,
          "internalType": "bytes32",
          "name": "commandId",
          "type": "bytes32"
        }
      ],
      "name": "ContractCallExecuted",
      "type": "event"
    },
    {
      "anonymous": false,
      "inputs": [
        {
          "indexed": true,
          "internalType": "address",
          "name": "sender",
          "type": "address"
        },
        {
          "indexed": false,
          "internalType": "string",
          "name": "destinationChain",
          "type": "string"
        },
        {
          "indexed": false,
          "internalType": "string",
          "name": "destinationContractAddress",
          "type": "string"
        },
        {
          "indexed": true,
          "internalType": "bytes32",
          "name": "payloadHash",
          "type": "bytes32"
        },
        {
          "indexed": false,
          "internalType": "bytes",
          "name": "payload",
          "type": "bytes"
        },
        {
          "indexed": false,
          "internalType": "string",
          "name": "symbol",
          "type": "string"
        },
        {
          "indexed": false,
          "internalType": "uint256",
          "name": "amount",
          "type": "uint256"
        }
      ],
      "name": "ContractCallWithToken",
      "type": "event"
    },
    {
      "anonymous": false,
      "inputs": [
        {
          "indexed": false,
          "internalType": "uint256",
          "name": "chainId",
          "type": "uint256"
        },
        {
          "indexed": false,
          "internalType": "bytes32[]",
          "name": "commandIds",
          "type": "bytes32[]"
        },
        {
          "indexed": false,
          "internalType": "string[]",
          "name": "commands",
          "type": "string[]"
        },
        {
          "indexed": false,
          "internalType": "bytes[]",
          "name": "params",
          "type": "bytes[]"
        }
      ],
      "name": "DecodedData",
      "type": "event"
    },
    {
      "anonymous": false,
      "inputs": [
        {
          "indexed": false,
          "internalType": "bytes",
          "name": "data",
          "type": "bytes"
        },
        {
          "indexed": false,
          "internalType": "bytes",
          "name": "proof",
          "type": "bytes"
        }
      ],
      "name": "DecodedParam",
      "type": "event"
    },
    {
      "anonymous": false,
      "inputs": [],
      "name": "ExecuteInit",
      "type": "event"
    },
    {
      "anonymous": false,
      "inputs": [
        {
          "indexed": true,
          "internalType": "bytes32",
          "name": "commandId",
          "type": "bytes32"
        }
      ],
      "name": "Executed",
      "type": "event"
    },
    {
      "anonymous": false,
      "inputs": [
        {
          "indexed": true,
          "internalType": "address",
          "name": "previousGovernance",
          "type": "address"
        },
        {
          "indexed": true,
          "internalType": "address",
          "name": "newGovernance",
          "type": "address"
        }
      ],
      "name": "GovernanceTransferred",
      "type": "event"
    },
    {
      "anonymous": false,
      "inputs": [
        {
          "indexed": true,
          "internalType": "address",
          "name": "previousGovernance",
          "type": "address"
        },
        {
          "indexed": true,
          "internalType": "address",
          "name": "newGovernance",
          "type": "address"
        }
      ],
      "name": "MintLimiterTransferred",
      "type": "event"
    },
    {
      "anonymous": false,
      "inputs": [
        {
          "indexed": false,
          "internalType": "bytes",
          "name": "newOperatorsData",
          "type": "bytes"
        }
      ],
      "name": "OperatorshipTransferred",
      "type": "event"
    },
    {
      "anonymous": false,
      "inputs": [],
      "name": "ProofValidated",
      "type": "event"
    },
    {
      "anonymous": false,
      "inputs": [],
      "name": "SetCommandSelectorSuccess",
      "type": "event"
    },
    {
      "anonymous": false,
      "inputs": [],
      "name": "SignMessageHash",
      "type": "event"
    },
    {
      "anonymous": false,
      "inputs": [
        {
          "indexed": false,
          "internalType": "string",
          "name": "symbol",
          "type": "string"
        },
        {
          "indexed": false,
          "internalType": "address",
          "name": "tokenAddresses",
          "type": "address"
        }
      ],
      "name": "TokenDeployed",
      "type": "event"
    },
    {
      "anonymous": false,
      "inputs": [
        {
          "indexed": false,
          "internalType": "string",
          "name": "symbol",
          "type": "string"
        },
        {
          "indexed": false,
          "internalType": "uint256",
          "name": "limit",
          "type": "uint256"
        }
      ],
      "name": "TokenMintLimitUpdated",
      "type": "event"
    },
    {
      "anonymous": false,
      "inputs": [
        {
          "indexed": true,
          "internalType": "address",
          "name": "sender",
          "type": "address"
        },
        {
          "indexed": false,
          "internalType": "string",
          "name": "destinationChain",
          "type": "string"
        },
        {
          "indexed": false,
          "internalType": "string",
          "name": "destinationAddress",
          "type": "string"
        },
        {
          "indexed": false,
          "internalType": "string",
          "name": "symbol",
          "type": "string"
        },
        {
          "indexed": false,
          "internalType": "uint256",
          "name": "amount",
          "type": "uint256"
        }
      ],
      "name": "TokenSent",
      "type": "event"
    },
    {
      "anonymous": false,
      "inputs": [
        {
          "indexed": true,
          "internalType": "address",
          "name": "implementation",
          "type": "address"
        }
      ],
      "name": "Upgraded",
      "type": "event"
    },
    {
      "inputs": [],
      "name": "allTokensFrozen",
      "outputs": [
        {
          "internalType": "bool",
          "name": "",
          "type": "bool"
        }
      ],
      "stateMutability": "pure",
      "type": "function"
    },
    {
      "inputs": [
        {
          "internalType": "bytes",
          "name": "params",
          "type": "bytes"
        },
        {
          "internalType": "bytes32",
          "name": "commandId",
          "type": "bytes32"
        }
      ],
      "name": "approveContractCall",
      "outputs": [],
      "stateMutability": "nonpayable",
      "type": "function"
    },
    {
      "inputs": [
        {
          "internalType": "bytes",
          "name": "params",
          "type": "bytes"
        },
        {
          "internalType": "bytes32",
          "name": "commandId",
          "type": "bytes32"
        }
      ],
      "name": "approveContractCallWithMint",
      "outputs": [],
      "stateMutability": "nonpayable",
      "type": "function"
    },
    {
      "inputs": [],
      "name": "authModule",
      "outputs": [
        {
          "internalType": "address",
          "name": "",
          "type": "address"
        }
      ],
      "stateMutability": "view",
      "type": "function"
    },
    {
      "inputs": [
        {
          "internalType": "bytes",
          "name": "params",
          "type": "bytes"
        },
        {
          "internalType": "bytes32",
          "name": "",
          "type": "bytes32"
        }
      ],
      "name": "burnToken",
      "outputs": [],
      "stateMutability": "nonpayable",
      "type": "function"
    },
    {
      "inputs": [
        {
          "internalType": "string",
          "name": "destinationChain",
          "type": "string"
        },
        {
          "internalType": "string",
          "name": "destinationContractAddress",
          "type": "string"
        },
        {
          "internalType": "bytes",
          "name": "payload",
          "type": "bytes"
        }
      ],
      "name": "callContract",
      "outputs": [],
      "stateMutability": "nonpayable",
      "type": "function"
    },
    {
      "inputs": [
        {
          "internalType": "string",
          "name": "destinationChain",
          "type": "string"
        },
        {
          "internalType": "string",
          "name": "destinationContractAddress",
          "type": "string"
        },
        {
          "internalType": "bytes",
          "name": "payload",
          "type": "bytes"
        },
        {
          "internalType": "string",
          "name": "symbol",
          "type": "string"
        },
        {
          "internalType": "uint256",
          "name": "amount",
          "type": "uint256"
        }
      ],
      "name": "callContractWithToken",
      "outputs": [],
      "stateMutability": "nonpayable",
      "type": "function"
    },
    {
      "inputs": [],
      "name": "contractId",
      "outputs": [
        {
          "internalType": "bytes32",
          "name": "",
          "type": "bytes32"
        }
      ],
      "stateMutability": "pure",
      "type": "function"
    },
    {
      "inputs": [
        {
          "internalType": "bytes",
          "name": "params",
          "type": "bytes"
        },
        {
          "internalType": "bytes32",
          "name": "",
          "type": "bytes32"
        }
      ],
      "name": "deployToken",
      "outputs": [],
      "stateMutability": "nonpayable",
      "type": "function"
    },
    {
      "inputs": [
        {
          "internalType": "bytes",
          "name": "input",
          "type": "bytes"
        }
      ],
      "name": "execute",
      "outputs": [],
      "stateMutability": "nonpayable",
      "type": "function"
    },
    {
      "inputs": [
        {
          "internalType": "bytes32",
          "name": "key",
          "type": "bytes32"
        }
      ],
      "name": "getAddress",
      "outputs": [
        {
          "internalType": "address",
          "name": "",
          "type": "address"
        }
      ],
      "stateMutability": "view",
      "type": "function"
    },
    {
      "inputs": [
        {
          "internalType": "bytes32",
          "name": "key",
          "type": "bytes32"
        }
      ],
      "name": "getBool",
      "outputs": [
        {
          "internalType": "bool",
          "name": "",
          "type": "bool"
        }
      ],
      "stateMutability": "view",
      "type": "function"
    },
    {
      "inputs": [
        {
          "internalType": "bytes32",
          "name": "key",
          "type": "bytes32"
        }
      ],
      "name": "getBytes",
      "outputs": [
        {
          "internalType": "bytes",
          "name": "",
          "type": "bytes"
        }
      ],
      "stateMutability": "view",
      "type": "function"
    },
    {
      "inputs": [
        {
          "internalType": "bytes32",
          "name": "key",
          "type": "bytes32"
        }
      ],
      "name": "getInt",
      "outputs": [
        {
          "internalType": "int256",
          "name": "",
          "type": "int256"
        }
      ],
      "stateMutability": "view",
      "type": "function"
    },
    {
      "inputs": [
        {
          "internalType": "bytes32",
          "name": "key",
          "type": "bytes32"
        }
      ],
      "name": "getString",
      "outputs": [
        {
          "internalType": "string",
          "name": "",
          "type": "string"
        }
      ],
      "stateMutability": "view",
      "type": "function"
    },
    {
      "inputs": [
        {
          "internalType": "bytes32",
          "name": "key",
          "type": "bytes32"
        }
      ],
      "name": "getUint",
      "outputs": [
        {
          "internalType": "uint256",
          "name": "",
          "type": "uint256"
        }
      ],
      "stateMutability": "view",
      "type": "function"
    },
    {
      "inputs": [],
      "name": "governance",
      "outputs": [
        {
          "internalType": "address",
          "name": "",
          "type": "address"
        }
      ],
      "stateMutability": "view",
      "type": "function"
    },
    {
      "inputs": [],
      "name": "implementation",
      "outputs": [
        {
          "internalType": "address",
          "name": "",
          "type": "address"
        }
      ],
      "stateMutability": "view",
      "type": "function"
    },
    {
      "inputs": [
        {
          "internalType": "bytes32",
          "name": "commandId",
          "type": "bytes32"
        }
      ],
      "name": "isCommandExecuted",
      "outputs": [
        {
          "internalType": "bool",
          "name": "",
          "type": "bool"
        }
      ],
      "stateMutability": "view",
      "type": "function"
    },
    {
      "inputs": [
        {
          "internalType": "bytes32",
          "name": "commandId",
          "type": "bytes32"
        },
        {
          "internalType": "string",
          "name": "sourceChain",
          "type": "string"
        },
        {
          "internalType": "string",
          "name": "sourceAddress",
          "type": "string"
        },
        {
          "internalType": "address",
          "name": "contractAddress",
          "type": "address"
        },
        {
          "internalType": "bytes32",
          "name": "payloadHash",
          "type": "bytes32"
        },
        {
          "internalType": "string",
          "name": "symbol",
          "type": "string"
        },
        {
          "internalType": "uint256",
          "name": "amount",
          "type": "uint256"
        }
      ],
      "name": "isContractCallAndMintApproved",
      "outputs": [
        {
          "internalType": "bool",
          "name": "",
          "type": "bool"
        }
      ],
      "stateMutability": "view",
      "type": "function"
    },
    {
      "inputs": [
        {
          "internalType": "bytes32",
          "name": "commandId",
          "type": "bytes32"
        },
        {
          "internalType": "string",
          "name": "sourceChain",
          "type": "string"
        },
        {
          "internalType": "string",
          "name": "sourceAddress",
          "type": "string"
        },
        {
          "internalType": "address",
          "name": "contractAddress",
          "type": "address"
        },
        {
          "internalType": "bytes32",
          "name": "payloadHash",
          "type": "bytes32"
        }
      ],
      "name": "isContractCallApproved",
      "outputs": [
        {
          "internalType": "bool",
          "name": "",
          "type": "bool"
        }
      ],
      "stateMutability": "view",
      "type": "function"
    },
    {
      "inputs": [],
      "name": "mintLimiter",
      "outputs": [
        {
          "internalType": "address",
          "name": "",
          "type": "address"
        }
      ],
      "stateMutability": "view",
      "type": "function"
    },
    {
      "inputs": [
        {
          "internalType": "bytes",
          "name": "params",
          "type": "bytes"
        },
        {
          "internalType": "bytes32",
          "name": "",
          "type": "bytes32"
        }
      ],
      "name": "mintToken",
      "outputs": [],
      "stateMutability": "nonpayable",
      "type": "function"
    },
    {
      "inputs": [
        {
          "internalType": "string",
          "name": "destinationChain",
          "type": "string"
        },
        {
          "internalType": "string",
          "name": "destinationAddress",
          "type": "string"
        },
        {
          "internalType": "string",
          "name": "symbol",
          "type": "string"
        },
        {
          "internalType": "uint256",
          "name": "amount",
          "type": "uint256"
        }
      ],
      "name": "sendToken",
      "outputs": [],
      "stateMutability": "nonpayable",
      "type": "function"
    },
    {
      "inputs": [
        {
          "internalType": "string[]",
          "name": "symbols",
          "type": "string[]"
        },
        {
          "internalType": "uint256[]",
          "name": "limits",
          "type": "uint256[]"
        }
      ],
      "name": "setTokenMintLimits",
      "outputs": [],
      "stateMutability": "nonpayable",
      "type": "function"
    },
    {
      "inputs": [
        {
          "internalType": "bytes",
          "name": "params",
          "type": "bytes"
        }
      ],
      "name": "setup",
      "outputs": [],
      "stateMutability": "nonpayable",
      "type": "function"
    },
    {
      "inputs": [
        {
          "internalType": "string",
          "name": "symbol",
          "type": "string"
        }
      ],
      "name": "tokenAddresses",
      "outputs": [
        {
          "internalType": "address",
          "name": "",
          "type": "address"
        }
      ],
      "stateMutability": "view",
      "type": "function"
    },
    {
      "inputs": [],
      "name": "tokenDeployer",
      "outputs": [
        {
          "internalType": "address",
          "name": "",
          "type": "address"
        }
      ],
      "stateMutability": "view",
      "type": "function"
    },
    {
      "inputs": [
        {
          "internalType": "string",
          "name": "",
          "type": "string"
        }
      ],
      "name": "tokenFrozen",
      "outputs": [
        {
          "internalType": "bool",
          "name": "",
          "type": "bool"
        }
      ],
      "stateMutability": "pure",
      "type": "function"
    },
    {
      "inputs": [
        {
          "internalType": "string",
          "name": "symbol",
          "type": "string"
        }
      ],
      "name": "tokenMintAmount",
      "outputs": [
        {
          "internalType": "uint256",
          "name": "",
          "type": "uint256"
        }
      ],
      "stateMutability": "view",
      "type": "function"
    },
    {
      "inputs": [
        {
          "internalType": "string",
          "name": "symbol",
          "type": "string"
        }
      ],
      "name": "tokenMintLimit",
      "outputs": [
        {
          "internalType": "uint256",
          "name": "",
          "type": "uint256"
        }
      ],
      "stateMutability": "view",
      "type": "function"
    },
    {
      "inputs": [
        {
          "internalType": "address",
          "name": "newGovernance",
          "type": "address"
        }
      ],
      "name": "transferGovernance",
      "outputs": [],
      "stateMutability": "nonpayable",
      "type": "function"
    },
    {
      "inputs": [
        {
          "internalType": "address",
          "name": "newMintLimiter",
          "type": "address"
        }
      ],
      "name": "transferMintLimiter",
      "outputs": [],
      "stateMutability": "nonpayable",
      "type": "function"
    },
    {
      "inputs": [
        {
          "internalType": "bytes",
          "name": "newOperatorsData",
          "type": "bytes"
        },
        {
          "internalType": "bytes32",
          "name": "",
          "type": "bytes32"
        }
      ],
      "name": "transferOperatorship",
      "outputs": [],
      "stateMutability": "nonpayable",
      "type": "function"
    },
    {
      "inputs": [
        {
          "internalType": "address",
          "name": "newImplementation",
          "type": "address"
        },
        {
          "internalType": "bytes32",
          "name": "newImplementationCodeHash",
          "type": "bytes32"
        },
        {
          "internalType": "bytes",
          "name": "setupParams",
          "type": "bytes"
        }
      ],
      "name": "upgrade",
      "outputs": [],
      "stateMutability": "nonpayable",
      "type": "function"
    },
    {
      "inputs": [
        {
          "internalType": "bytes32",
          "name": "commandId",
          "type": "bytes32"
        },
        {
          "internalType": "string",
          "name": "sourceChain",
          "type": "string"
        },
        {
          "internalType": "string",
          "name": "sourceAddress",
          "type": "string"
        },
        {
          "internalType": "bytes32",
          "name": "payloadHash",
          "type": "bytes32"
        }
      ],
      "name": "validateContractCall",
      "outputs": [
        {
          "internalType": "bool",
          "name": "valid",
          "type": "bool"
        }
      ],
      "stateMutability": "nonpayable",
      "type": "function"
    },
    {
      "inputs": [
        {
          "internalType": "bytes32",
          "name": "commandId",
          "type": "bytes32"
        },
        {
          "internalType": "string",
          "name": "sourceChain",
          "type": "string"
        },
        {
          "internalType": "string",
          "name": "sourceAddress",
          "type": "string"
        },
        {
          "internalType": "bytes32",
          "name": "payloadHash",
          "type": "bytes32"
        },
        {
          "internalType": "string",
          "name": "symbol",
          "type": "string"
        },
        {
          "internalType": "uint256",
          "name": "amount",
          "type": "uint256"
        }
      ],
      "name": "validateContractCallAndMint",
      "outputs": [
        {
          "internalType": "bool",
          "name": "valid",
          "type": "bool"
        }
      ],
      "stateMutability": "nonpayable",
      "type": "function"
    }
  ],
  "bytecode": "0x60e06040523480156200001157600080fd5b50604051620042cf380380620042cf8339810160408190526200003491620000c5565b306080526001600160a01b0382163b600003620000645760405163735326ab60e01b815260040160405180910390fd5b806001600160a01b03163b6000036200009057604051630c84dabf60e31b815260040160405180910390fd5b6001600160a01b0391821660a0521660c052620000fd565b80516001600160a01b0381168114620000c057600080fd5b919050565b60008060408385031215620000d957600080fd5b620000e483620000a8565b9150620000f460208401620000a8565b90509250929050565b60805160a05160c05161418662000149600039600081816102f3015261162c015260008181610376015281816105fb015281816118400152611a350152600061195301526141866000f3fe608060405234801561001057600080fd5b50600436106102275760003560e01c80638291286c11610130578063bc00c216116100b8578063d26ff2101161007c578063d26ff21014610502578063d38bfff414610515578063dc97d96214610528578063f6a5f9f514610548578063fbe0a31b1461055b57600080fd5b8063bc00c216146104a1578063bd02d0f5146104b4578063c031a180146104d4578063c82fe87a146104e7578063cec7b359146104ef57600080fd5b8063986e791a116100ff578063986e791a146104415780639ded06df14610461578063a3499c7314610474578063aa1e1f0a14610487578063b54170841461048e57600080fd5b80638291286c146103e2578063886a625d14610408578063935b13f61461041b57806397b87ba61461042e57600080fd5b80634656ae2e116101b35780635f6970c3116101825780635f6970c31461035e57806364940c561461037157806367ace8eb146103985780637ae1cfca146103ab5780637b1b769e146103ce57600080fd5b80634656ae2e14610328578063585a9fd41461033b5780635aa6e6751461034e5780635c60da1b1461035657600080fd5b806321f8a721116101fa57806321f8a7211461028f578063269eb65e146102ba57806326ef699d146102db5780632a2dae0a146102ee57806341d8f26b1461031557600080fd5b806309c5eabe1461022c578063146e2d78146102415780631876eed9146102545780631c92115f1461027c575b600080fd5b61023f61023a3660046129d4565b61056e565b005b61023f61024f366004612a15565b610ad3565b610267610262366004612a60565b610b1c565b60405190151581526020015b60405180910390f35b61023f61028a366004612b14565b610c70565b6102a261029d366004612bad565b610cdb565b6040516001600160a01b039091168152602001610273565b6102cd6102c8366004612c89565b610cf6565b604051908152602001610273565b61023f6102e9366004612cc5565b610d0a565b6102a27f000000000000000000000000000000000000000000000000000000000000000081565b61023f610323366004612d7c565b610da2565b61023f610336366004612a15565b610e53565b61023f610349366004612a15565b611218565b6102a26112c6565b6102a26112e4565b61026761036c366004612d99565b61130f565b6102a27f000000000000000000000000000000000000000000000000000000000000000081565b61023f6103a6366004612e5e565b6113e8565b6102676103b9366004612bad565b60009081526004602052604090205460ff1690565b6102676103dc366004612c89565b50600090565b7fad2ae48b4d93c587cd1f0f8f269b84f57dbe98bbe5c61c4b6d324e6a667b36256102cd565b61023f610416366004612a15565b61155d565b6102a2610429366004612c89565b6117c2565b61023f61043c366004612a15565b6117d0565b61045461044f366004612bad565b6118ae565b6040516102739190612f19565b61023f61046f3660046129d4565b611950565b61023f610482366004612f2c565b611a9f565b6000610267565b61023f61049c366004612f7b565b611cc2565b6102676104af366004613046565b611d78565b6102cd6104c2366004612bad565b60009081526020819052604090205490565b6104546104e2366004612bad565b611e4b565b6102a2611e68565b6102cd6104fd366004612c89565b611e81565b610267610510366004612bad565b611e9b565b61023f610523366004612d7c565b611ea9565b6102cd610536366004612bad565b60009081526005602052604090205490565b610267610556366004613113565b611f20565b61023f610569366004612a15565b611fa9565b6040517fa3c3d77668df13d1773745f9954afb4b1a542aaab80e68867c90a432fbfb465e90600090a16000806105a6838501856131a9565b915091507f763aba2a041620de24ed40a81f438bfbd3c92c5481953408fd88378285795add82826040516105db92919061320c565b60405180910390a160006105f58380519060200120612049565b905060007f00000000000000000000000000000000000000000000000000000000000000006001600160a01b03166373e3d66a83856040518363ffffffff1660e01b815260040161064792919061323a565b6020604051808303816000875af1158015610666573d6000803e3d6000fd5b505050506040513d601f19601f8201168201806040525081019061068a9190613268565b6040519091507f0b3d9151590daf4dbc78d33d371aeeec2e0a87d154082dc641e6a70bfbd1cb4890600090a160006060806060878060200190518101906106d19190613409565b604051939750919550935091507f699804160af1ffd7198bfc1d6ba8fb52d9bcc3700a6494e929a688b52eb7e1f09061071190869086908690869061354c565b60405180910390a146841461073957604051633d23e4d160e11b815260040160405180910390fd5b825182518114158061074c575081518114155b1561076a5760405163ca9a28f560e01b815260040160405180910390fd5b60005b81811015610ac5576000858281518110610789576107896135f2565b6020026020010151905061079c81611e9b565b156107a75750610abd565b6000808684815181106107bc576107bc6135f2565b60200260200101516040516020016107d49190613608565b6040516020818303038152906040528051906020012090507f5763814b98a3aa86f212797af3273868b5dd6e2a532d764a79b98ca859e7bbad81036108225763886a625d60e01b9150610949565b7fec78d9c22c08bb9f0ecd5d95571ae83e3f22219c5a9278c3270691d50abfd91b81036108585763028dc5af60e31b9150610949565b7f37ac16aabc4d87540e53151b2b716265cfd6b195db96a9daf8e893c829bbd233810361088e5763fbe0a31b60e01b9150610949565b7ff41504255b911b3042ee4f8786fdf7cf4bcf24ace033fa16af3c8574e025e43681036108c457631616a7f560e21b9150610949565b7fda199c0e76f665e0450020791c7f8eacc75f3cdbace313272c28f93e5390b62c81036108fa5763232b571760e11b9150610949565b7fb460dcb6fd5797fc0e7ea0f13406c80d30702ba7f73a42bd91394775dcbca7188103610941578961092e57505050610abd565b60009950634bdc3dd360e11b9150610949565b505050610abd565b6040516001600160e01b0319831681527f8d8bb751d0b57f43599d4081e878959726c2e63c046661d6470983332c7882b29060200160405180910390a161099183600161209d565b6040517f487c10f964e168069b8c2d94f7c51875fb848bf369c72669f65debdebb7d653a90600090a16000306001600160a01b0316838887815181106109d9576109d96135f2565b6020026020010151866040516024016109f3929190613624565b60408051601f198184030181529181526020820180516001600160e01b03166001600160e01b0319909416939093179092529051610a319190613608565b6000604051808303816000865af19150503d8060008114610a6e576040519150601f19603f3d011682016040523d82523d6000602084013e610a73565b606091505b505090508015610aad5760405184907fa74c8847d513feba22a0f0cb38d53081abf97562cdb293926ba243689e7c41ca90600090a2610ab8565b610ab884600061209d565b505050505b60010161076d565b505050505050505050505050565b333014610af3576040516314e1dbf760e11b815260040160405180910390fd5b60008080610b0385870187613651565b925092509250610b148383836120b3565b505050505050565b600080610bcd8b8b8b8080601f01602080910402602001604051908101604052809392919081815260200183838082843760009201919091525050604080516020601f8f018190048102820181019092528d815292508d91508c908190840183828082843760009201919091525050604080516020601f8d018190048102820181019092528b81523393508d9250908c908c90819084018382808284376000920191909152508c92506121a8915050565b60008181526004602052604090205460ff16925090508115610c6257610bf481600061220c565b6040518b907f91057b069763121972ce22b18b2f319b1520dd4c72f1f94a6395e81ceaf63f4190600090a2610c6285858080601f0160208091040260200160405190810160405280939291908181526020018383808284376000920191909152503392508791506120b39050565b509998505050505050505050565b8181604051610c809291906136aa565b6040518091039020336001600160a01b03167f30ae6cc78c27e651745bf2ad08a11de83910ac1e347a52f7ac898c0fbef94dae888888888888604051610ccb969594939291906136e3565b60405180910390a3505050505050565b6000908152600260205260409020546001600160a01b031690565b6000610d046104c28361222c565b92915050565b610d4c3384848080601f016020809104026020016040519081016040528093929190818152602001838380828437600092019190915250869250612261915050565b336001600160a01b03167f651d93f66c4329630e8d0f62488eff599e3be484da587335e8dc0fcf4606272688888888888888604051610d91979695949392919061372c565b60405180910390a250505050505050565b610db9600080516020614131833981519152610cdb565b6001600160a01b0316336001600160a01b031614158015610e025750610dec600080516020614111833981519152610cdb565b6001600160a01b0316336001600160a01b031614155b15610e205760405163223aa83d60e11b815260040160405180910390fd5b6001600160a01b038116610e47576040516335e75dcb60e21b815260040160405180910390fd5b610e5081612413565b50565b333014610e73576040516314e1dbf760e11b815260040160405180910390fd5b600080610e828486018661377d565b915091506000610e91836117c2565b90506001600160a01b038116610ec5578260405163395d09bf60e11b8152600401610ebc9190612f19565b60405180910390fd5b6002610ed084612481565b6002811115610ee157610ee16137c1565b036111b5576000610f858360405180602001610efc9061297f565b601f1982820381018352601f909101166040819052610f1e9190602001613608565b60408051601f1981840301815282825280516020918201206001600160f81b0319848301526bffffffffffffffffffffffff193060601b16602185015260358401949094526055808401949094528151808403909401845260759092019052815191012090565b9050610f99816001600160a01b03166124a0565b15610fa75750505050505050565b600083604051610fb69061297f565b8190604051809103906000f5905080158015610fd6573d6000803e3d6000fd5b506040516370a0823160e01b81526001600160a01b038083166004830181905292935060009283929091631cff79cd91889163a9059cbb60e01b9130918416906370a0823190602401602060405180830381865afa15801561103c573d6000803e3d6000fd5b505050506040513d601f19601f8201168201806040525081019061106091906137d7565b6040516001600160a01b039092166024830152604482015260640160408051601f198184030181529181526020820180516001600160e01b03166001600160e01b03199485161790525160e085901b90921682526110c192916004016137f0565b6000604051808303816000875af11580156110e0573d6000803e3d6000fd5b505050506040513d6000823e601f3d908101601f191682016040526111089190810190613814565b9150915081158061113557508051158015906111355750808060200190518101906111339190613268565b155b15611155578660405163e217b0ad60e01b8152600401610ebc9190612f19565b60405162f55d9d60e01b81523060048201526001600160a01b0384169062f55d9d90602401600060405180830381600087803b15801561119457600080fd5b505af11580156111a8573d6000803e3d6000fd5b5050505050505050610b14565b6040516308a1eee160e01b8152600481018390526001600160a01b038216906308a1eee190602401600060405180830381600087803b1580156111f757600080fd5b505af115801561120b573d6000803e3d6000fd5b505050505050505b505050565b333014611238576040516314e1dbf760e11b815260040160405180910390fd5b60008080808080808061124d8a8c018c613857565b9750975097509750975097509750975061126c898989898989896124e3565b84866001600160a01b03168a7f9991faa1f435675159ffae64b66d7ecfdb55c29755869a18db8497b4392347e08b8b898989896040516112b196959493929190613914565b60405180910390a45050505050505050505050565b60006112df600080516020614111833981519152610cdb565b905090565b60006112df7f360894a13ba1a3210667c828492db98dca3e2076cc3735a920a3ca505d382bbc610cdb565b60008061138a8888888080601f01602080910402602001604051908101604052809392919081815260200183838082843760009201919091525050604080516020601f8c018190048102820181019092528a815292508a91508990819084018382808284376000920191909152503392508991506124fc9050565b60008181526004602052604090205460ff169250905081156113dd576113b181600061220c565b60405188907f91057b069763121972ce22b18b2f319b1520dd4c72f1f94a6395e81ceaf63f4190600090a25b509695505050505050565b6113ff600080516020614131833981519152610cdb565b6001600160a01b0316336001600160a01b0316141580156114485750611432600080516020614111833981519152610cdb565b6001600160a01b0316336001600160a01b031614155b156114665760405163223aa83d60e11b815260040160405180910390fd5b82818114611487576040516314a2275f60e01b815260040160405180910390fd5b60005b81811015610b145760008686838181106114a6576114a66135f2565b90506020028101906114b8919061396c565b8080601f0160208091040260200160405190810160405280939291908181526020018383808284376000920182905250939450889250879150859050818110611503576115036135f2565b90506020020135905060006001600160a01b0316611520836117c2565b6001600160a01b031603611549578160405163395d09bf60e11b8152600401610ebc9190612f19565b611553828261255a565b505060010161148a565b33301461157d576040516314e1dbf760e11b815260040160405180910390fd5b60008080808080611590888a018a6139b2565b95509550955095509550955060006001600160a01b03166115b0866117c2565b6001600160a01b0316146115d9578460405163553f459960e11b8152600401610ebc9190612f19565b6115e3858261255a565b6001600160a01b038216611736576000856040516020016116049190613608565b6040516020818303038152906040528051906020012090506116278660016125b2565b6000807f00000000000000000000000000000000000000000000000000000000000000006001600160a01b0316636fc95b3460e01b8a8a8a8a88604051602401611675959493929190613a54565b60408051601f198184030181529181526020820180516001600160e01b03166001600160e01b03199094169390931790925290516116b39190613608565b600060405180830381855af49150503d80600081146116ee576040519150601f19603f3d011682016040523d82523d6000602084013e6116f3565b606091505b50915091508161171857876040516386d5274360e01b8152600401610ebc9190612f19565b8080602001905181019061172c9190613a9a565b9450505050611774565b6001600160a01b0382163b611769576040516362e66eef60e11b81526001600160a01b0383166004820152602401610ebc565b6117748560026125b2565b7fbf90b5a1ec9763e8bf4b9245cef0c28db92bab309fc2c5177f17814f3824693885836040516117a5929190613ab7565b60405180910390a16117b785836125e2565b505050505050505050565b6000610d0461029d836125f4565b3330146117f0576040516314e1dbf760e11b815260040160405180910390fd5b7f192e759e55f359cd9832b5c0c6e38e4b6df5c5ca33f3bd5c90738e865a5218728383604051611821929190613ae1565b60405180910390a160405163d289d1cb60e01b81526001600160a01b037f0000000000000000000000000000000000000000000000000000000000000000169063d289d1cb906118779086908690600401613ae1565b600060405180830381600087803b15801561189157600080fd5b505af11580156118a5573d6000803e3d6000fd5b50505050505050565b60008181526001602052604090208054606091906118cb90613af5565b80601f01602080910402602001604051908101604052809291908181526020018280546118f790613af5565b80156119445780601f1061191957610100808354040283529160200191611944565b820191906000526020600020905b81548152906001019060200180831161192757829003601f168201915b50505050509050919050565b307f00000000000000000000000000000000000000000000000000000000000000006001600160a01b03160361199957604051635f886e9d60e11b815260040160405180910390fd5b600080806119a984860186613b2f565b919450925090506001600160a01b038316156119c8576119c883612629565b6001600160a01b038216156119e0576119e082612413565b805115611a98577f192e759e55f359cd9832b5c0c6e38e4b6df5c5ca33f3bd5c90738e865a52187281604051611a169190612f19565b60405180910390a160405163d289d1cb60e01b81526001600160a01b037f0000000000000000000000000000000000000000000000000000000000000000169063d289d1cb90611a6a908490600401612f19565b600060405180830381600087803b158015611a8457600080fd5b505af11580156117b7573d6000803e3d6000fd5b5050505050565b611ab6600080516020614111833981519152610cdb565b6001600160a01b0316336001600160a01b031614611ae757604051632d5be4cb60e21b815260040160405180910390fd5b836001600160a01b03163f8314611b11576040516323e13ec960e21b815260040160405180910390fd5b836001600160a01b0316638291286c6040518163ffffffff1660e01b8152600401602060405180830381865afa158015611b4f573d6000803e3d6000fd5b505050506040513d601f19601f82011682018060405250810190611b7391906137d7565b7fad2ae48b4d93c587cd1f0f8f269b84f57dbe98bbe5c61c4b6d324e6a667b362514611bb25760405163340aafcd60e11b815260040160405180910390fd5b6040516001600160a01b038516907fbc7cd75a20ee27fd9adebab32041f755214dbc6bffa90cc0225b39da2e5c2d3b90600090a2611bef84612697565b8015611cbc576000846001600160a01b0316639ded06df60e01b8484604051602401611c1c929190613ae1565b60408051601f198184030181529181526020820180516001600160e01b03166001600160e01b0319909416939093179092529051611c5a9190613608565b600060405180830381855af49150503d8060008114611c95576040519150601f19603f3d011682016040523d82523d6000602084013e611c9a565b606091505b5050905080611a98576040516397905dfb60e01b815260040160405180910390fd5b50505050565b611d043384848080601f016020809104026020016040519081016040528093929190818152602001838380828437600092019190915250869250612261915050565b8484604051611d149291906136aa565b6040518091039020336001600160a01b03167f7e50569d26be643bda7757722291ec66b1be66d8283474ae3fab5a98f878a7a28b8b8b8b8b8b8b8b8b604051611d6599989796959493929190613b90565b60405180910390a3505050505050505050565b6000611e3c6103b98c8c8c8080601f016020809104026020016040519081016040528093929190818152602001838380828437600081840152601f19601f820116905080830192505050505050508b8b8080601f01602080910402602001604051908101604052809392919081815260200183838082843760009201919091525050604080516020601f8d018190048102820181019092528b81528e93508d9250908c908c90819084018382808284376000920191909152508c92506121a8915050565b9b9a5050505050505050505050565b60008181526003602052604090208054606091906118cb90613af5565b60006112df600080516020614131833981519152610cdb565b6000610d046104c283611e9661546042613bf8565b6126c1565b6000610d046103b983612716565b611ec0600080516020614111833981519152610cdb565b6001600160a01b0316336001600160a01b031614611ef157604051632d5be4cb60e21b815260040160405180910390fd5b6001600160a01b038116611f17576040516218c61b60e21b815260040160405180910390fd5b610e5081612629565b6000611f9d6103b98989898080601f01602080910402602001604051908101604052809392919081815260200183838082843760009201919091525050604080516020601f8d018190048102820181019092528b815292508b91508a90819084018382808284376000920191909152508a92508991506124fc9050565b98975050505050505050565b333014611fc9576040516314e1dbf760e11b815260040160405180910390fd5b60008080808080611fdc888a018a613c1a565b955095509550955095509550611ff58787878787612751565b82846001600160a01b0316887f44e4f8f6bd682c5a3aeba93601ab07cb4d1f21b2aab1ae4880d9577919309aa4898987876040516120369493929190613cab565b60405180910390a4505050505050505050565b6040517f19457468657265756d205369676e6564204d6573736167653a0a3332000000006020820152603c8101829052600090605c015b604051602081830303815290604052805190602001209050919050565b6120af6120a983612716565b8261220c565b5050565b60006120be846117c2565b90506001600160a01b0381166120e9578360405163395d09bf60e11b8152600401610ebc9190612f19565b61210684836120f787611e81565b6121019190613ce4565b612761565b600261211185612481565b6002811115612122576121226137c1565b036121405761213b6001600160a01b03821684846127c3565b611cbc565b6040516340c10f1960e01b81526001600160a01b038481166004830152602482018490528216906340c10f1990604401600060405180830381600087803b15801561218a57600080fd5b505af115801561219e573d6000803e3d6000fd5b5050505050505050565b60007fb7ad972b71475860613db3ba1fe699b886c878f9002a09250dc25e769eb19a10888888888888886040516020016121e9989796959493929190613d05565b604051602081830303815290604052805190602001209050979650505050505050565b600091825260046020526040909120805460ff1916911515919091179055565b60007feee9348b4aaba3647b1612b2724f18e93b9299da26fb321c7b3fda135d7dea8782604051602001612080929190613d79565b600061226c836117c2565b90506001600160a01b038116612297578260405163395d09bf60e11b8152600401610ebc9190612f19565b816000036122b85760405163162908e360e11b815260040160405180910390fd5b60006122c384612481565b905060028160028111156122d9576122d96137c1565b036122f8576122f36001600160a01b038316863086612826565b611a98565b600181600281111561230c5761230c6137c1565b0361236557604080516001600160a01b03878116602483015260448083018790528351808403909101815260649092019092526020810180516001600160e01b031663079cc67960e41b1790526122f39184169061285e565b604051630c7bb2bd60e21b8152600060048201526123e69086906001600160a01b038516906331eecaf490602401602060405180830381865afa1580156123b0573d6000803e3d6000fd5b505050506040513d601f19601f820116820180604052508101906123d49190613a9a565b6001600160a01b038516919086612826565b6040516308a1eee160e01b8152600060048201526001600160a01b038316906308a1eee190602401611a6a565b6001600160a01b038116612434600080516020614131833981519152610cdb565b6001600160a01b03167fa9303c860c5de3c0c866c354d281785c89778ac5ca2dffdf12841c45cd4e1e6e60405160405180910390a3610e506000805160206141318339815191528261291c565b600061248f6104c28361294a565b6002811115610d0457610d046137c1565b60006001600160a01b0382163f80158015906124dc57507fc5d2460186f7233c927e7db2dcc703c0e500b653ca82273b7bfad8045d85a4708114155b9392505050565b6118a56124f5888888888888886121a8565b600161220c565b60007f07b0d4304f82012bd3b70b1d531c160e326067c90829e2a3d386722ad10b89c3868686868660405160200161253996959493929190613d9f565b60405160208183030381529060405280519060200120905095945050505050565b7fd99446c1d76385bb5519ccfb5274abcfd5896dfc22405e40010fde217f018a18828260405161258b929190613624565b60405180910390a16120af61259f8361222c565b8260009182526020829052604090912055565b6120af6125be8361294a565b8260028111156125d0576125d06137c1565b60009182526020829052604090912055565b6120af6125ee836125f4565b8261291c565b60007fc4e632779a6a7838736dd7e5e6a0eadf171dd37dfb6230720e265576dfcf42bb82604051602001612080929190613d79565b6001600160a01b03811661264a600080516020614111833981519152610cdb565b6001600160a01b03167f5f56bee8cffbe9a78652a74a60705edede02af10b0bbb888ca44b79a0d42ce8060405160405180910390a3610e506000805160206141118339815191528261291c565b610e507f360894a13ba1a3210667c828492db98dca3e2076cc3735a920a3ca505d382bbc8261291c565b60007f2f8851fe0d6d537e552a4f25b7a3167d48eb1292622c71d84630a2a44757bced83836040516020016126f893929190613def565b60405160208183030381529060405280519060200120905092915050565b604080517f957705a374326b30f4a1069c936d736cc9993ed6c820b4e0e2fd94a8beca0d1d6020820152908101829052600090606001612080565b611a986124f586868686866124fc565b600061276c83610cf6565b905060008111801561277d57508082115b1561279d578260405163037f60e560e01b8152600401610ebc9190612f19565b6112136127b084611e9661546042613bf8565b8360009182526020829052604090912055565b6040516001600160a01b03831660248201526044810182905261121390849063a9059cbb60e01b906064015b60408051601f198184030181529190526020810180516001600160e01b03166001600160e01b03199093169290921790915261285e565b6040516001600160a01b0380851660248301528316604482015260648101829052611cbc9085906323b872dd60e01b906084016127ef565b600080836001600160a01b0316836040516128799190613608565b6000604051808303816000865af19150503d80600081146128b6576040519150601f19603f3d011682016040523d82523d6000602084013e6128bb565b606091505b509150915060008280156128e75750815115806128e75750818060200190518101906128e79190613268565b90508015806128fe57506001600160a01b0385163b155b15611a985760405163022e258160e11b815260040160405180910390fd5b60009182526002602052604090912080546001600160a01b0319166001600160a01b03909216919091179055565b60007fa80d2259af55890618ec2eeb3ac72de4bdba22529bb14845d8a3d712d1c3f62182604051602001612080929190613d79565b6102f880613e1983390190565b60008083601f84011261299e57600080fd5b5081356001600160401b038111156129b557600080fd5b6020830191508360208285010111156129cd57600080fd5b9250929050565b600080602083850312156129e757600080fd5b82356001600160401b038111156129fd57600080fd5b612a098582860161298c565b90969095509350505050565b600080600060408486031215612a2a57600080fd5b83356001600160401b03811115612a4057600080fd5b612a4c8682870161298c565b909790965060209590950135949350505050565b600080600080600080600080600060c08a8c031215612a7e57600080fd5b8935985060208a01356001600160401b0380821115612a9c57600080fd5b612aa88d838e0161298c565b909a50985060408c0135915080821115612ac157600080fd5b612acd8d838e0161298c565b909850965060608c0135955060808c0135915080821115612aed57600080fd5b50612afa8c828d0161298c565b9a9d999c50979a9699959894979660a00135949350505050565b60008060008060008060608789031215612b2d57600080fd5b86356001600160401b0380821115612b4457600080fd5b612b508a838b0161298c565b90985096506020890135915080821115612b6957600080fd5b612b758a838b0161298c565b90965094506040890135915080821115612b8e57600080fd5b50612b9b89828a0161298c565b979a9699509497509295939492505050565b600060208284031215612bbf57600080fd5b5035919050565b634e487b7160e01b600052604160045260246000fd5b604051601f8201601f191681016001600160401b0381118282101715612c0457612c04612bc6565b604052919050565b60006001600160401b03821115612c2557612c25612bc6565b50601f01601f191660200190565b600082601f830112612c4457600080fd5b8135612c57612c5282612c0c565b612bdc565b818152846020838601011115612c6c57600080fd5b816020850160208301376000918101602001919091529392505050565b600060208284031215612c9b57600080fd5b81356001600160401b03811115612cb157600080fd5b612cbd84828501612c33565b949350505050565b60008060008060008060006080888a031215612ce057600080fd5b87356001600160401b0380821115612cf757600080fd5b612d038b838c0161298c565b909950975060208a0135915080821115612d1c57600080fd5b612d288b838c0161298c565b909750955060408a0135915080821115612d4157600080fd5b50612d4e8a828b0161298c565b989b979a50959894979596606090950135949350505050565b6001600160a01b0381168114610e5057600080fd5b600060208284031215612d8e57600080fd5b81356124dc81612d67565b60008060008060008060808789031215612db257600080fd5b8635955060208701356001600160401b0380821115612dd057600080fd5b612ddc8a838b0161298c565b90975095506040890135915080821115612df557600080fd5b50612e0289828a0161298c565b979a9699509497949695606090950135949350505050565b60008083601f840112612e2c57600080fd5b5081356001600160401b03811115612e4357600080fd5b6020830191508360208260051b85010111156129cd57600080fd5b60008060008060408587031215612e7457600080fd5b84356001600160401b0380821115612e8b57600080fd5b612e9788838901612e1a565b90965094506020870135915080821115612eb057600080fd5b50612ebd87828801612e1a565b95989497509550505050565b60005b83811015612ee4578181015183820152602001612ecc565b50506000910152565b60008151808452612f05816020860160208601612ec9565b601f01601f19169290920160200192915050565b6020815260006124dc6020830184612eed565b60008060008060608587031215612f4257600080fd5b8435612f4d81612d67565b93506020850135925060408501356001600160401b03811115612f6f57600080fd5b612ebd8782880161298c565b600080600080600080600080600060a08a8c031215612f9957600080fd5b89356001600160401b0380821115612fb057600080fd5b612fbc8d838e0161298c565b909b50995060208c0135915080821115612fd557600080fd5b612fe18d838e0161298c565b909950975060408c0135915080821115612ffa57600080fd5b6130068d838e0161298c565b909750955060608c013591508082111561301f57600080fd5b5061302c8c828d0161298c565b9a9d999c50979a9699959894979660800135949350505050565b60008060008060008060008060008060e08b8d03121561306557600080fd5b8a35995060208b01356001600160401b038082111561308357600080fd5b61308f8e838f0161298c565b909b50995060408d01359150808211156130a857600080fd5b6130b48e838f0161298c565b909950975060608d013591506130c982612d67565b90955060808c0135945060a08c013590808211156130e657600080fd5b506130f38d828e0161298c565b9150809450508092505060c08b013590509295989b9194979a5092959850565b600080600080600080600060a0888a03121561312e57600080fd5b8735965060208801356001600160401b038082111561314c57600080fd5b6131588b838c0161298c565b909850965060408a013591508082111561317157600080fd5b5061317e8a828b0161298c565b909550935050606088013561319281612d67565b809250506080880135905092959891949750929550565b600080604083850312156131bc57600080fd5b82356001600160401b03808211156131d357600080fd5b6131df86838701612c33565b935060208501359150808211156131f557600080fd5b5061320285828601612c33565b9150509250929050565b60408152600061321f6040830185612eed565b82810360208401526132318185612eed565b95945050505050565b828152604060208201526000612cbd6040830184612eed565b8051801515811461326357600080fd5b919050565b60006020828403121561327a57600080fd5b6124dc82613253565b60006001600160401b0382111561329c5761329c612bc6565b5060051b60200190565b60006132b4612c5284612c0c565b90508281528383830111156132c857600080fd5b6124dc836020830184612ec9565b600082601f8301126132e757600080fd5b815160206132f7612c5283613283565b82815260059290921b8401810191818101908684111561331657600080fd5b8286015b848110156113dd5780516001600160401b038111156133395760008081fd5b8701603f8101891361334b5760008081fd5b61335c8986830151604084016132a6565b84525091830191830161331a565b600082601f83011261337b57600080fd5b6124dc838351602085016132a6565b600082601f83011261339b57600080fd5b815160206133ab612c5283613283565b82815260059290921b840181019181810190868411156133ca57600080fd5b8286015b848110156113dd5780516001600160401b038111156133ed5760008081fd5b6133fb8986838b010161336a565b8452509183019183016133ce565b6000806000806080858703121561341f57600080fd5b845193506020808601516001600160401b038082111561343e57600080fd5b818801915088601f83011261345257600080fd5b8151613460612c5282613283565b81815260059190911b8301840190848101908b83111561347f57600080fd5b938501935b8285101561349d57845182529385019390850190613484565b60408b015190985094505050808311156134b657600080fd5b6134c289848a016132d6565b945060608801519250808311156134d857600080fd5b50506134e68782880161338a565b91505092959194509250565b60008282518085526020808601955060208260051b8401016020860160005b8481101561353f57601f1986840301895261352d838351612eed565b98840198925090830190600101613511565b5090979650505050505050565b600060808201868352602060808185015281875180845260a086019150828901935060005b8181101561358d57845183529383019391830191600101613571565b5050848103604086015286518082528282019350600581901b8201830183890160005b838110156135de57601f198584030187526135cc838351612eed565b968601969250908501906001016135b0565b50508681036060880152611e3c81896134f2565b634e487b7160e01b600052603260045260246000fd5b6000825161361a818460208701612ec9565b9190910192915050565b6040815260006136376040830185612eed565b90508260208301529392505050565b803561326381612d67565b60008060006060848603121561366657600080fd5b83356001600160401b0381111561367c57600080fd5b61368886828701612c33565b935050602084013561369981612d67565b929592945050506040919091013590565b8183823760009101908152919050565b81835281816020850137506000828201602090810191909152601f909101601f19169091010190565b6060815260006136f760608301888a6136ba565b828103602084015261370a8187896136ba565b9050828103604084015261371f8185876136ba565b9998505050505050505050565b60808152600061374060808301898b6136ba565b828103602084015261375381888a6136ba565b905082810360408401526137688186886136ba565b91505082606083015298975050505050505050565b6000806040838503121561379057600080fd5b82356001600160401b038111156137a657600080fd5b6137b285828601612c33565b95602094909401359450505050565b634e487b7160e01b600052602160045260246000fd5b6000602082840312156137e957600080fd5b5051919050565b6001600160a01b0383168152604060208201819052600090612cbd90830184612eed565b6000806040838503121561382757600080fd5b61383083613253565b915060208301516001600160401b0381111561384b57600080fd5b6132028582860161336a565b600080600080600080600080610100898b03121561387457600080fd5b88356001600160401b038082111561388b57600080fd5b6138978c838d01612c33565b995060208b01359150808211156138ad57600080fd5b6138b98c838d01612c33565b98506138c760408c01613646565b975060608b0135965060808b01359150808211156138e457600080fd5b506138f18b828c01612c33565b989b979a50959894979660a0860135965060c08601359560e00135945092505050565b60c08152600061392760c0830189612eed565b82810360208401526139398189612eed565b9050828103604084015261394d8188612eed565b60608401969096525050608081019290925260a0909101529392505050565b6000808335601e1984360301811261398357600080fd5b8301803591506001600160401b0382111561399d57600080fd5b6020019150368190038213156129cd57600080fd5b60008060008060008060c087890312156139cb57600080fd5b86356001600160401b03808211156139e257600080fd5b6139ee8a838b01612c33565b97506020890135915080821115613a0457600080fd5b50613a1189828a01612c33565b955050604087013560ff81168114613a2857600080fd5b9350606087013592506080870135613a3f81612d67565b8092505060a087013590509295509295509295565b60a081526000613a6760a0830188612eed565b8281036020840152613a798188612eed565b60ff9690961660408401525050606081019290925260809091015292915050565b600060208284031215613aac57600080fd5b81516124dc81612d67565b604081526000613aca6040830185612eed565b905060018060a01b03831660208301529392505050565b602081526000612cbd6020830184866136ba565b600181811c90821680613b0957607f821691505b602082108103613b2957634e487b7160e01b600052602260045260246000fd5b50919050565b600080600060608486031215613b4457600080fd5b8335613b4f81612d67565b92506020840135613b5f81612d67565b915060408401356001600160401b03811115613b7a57600080fd5b613b8686828701612c33565b9150509250925092565b60a081526000613ba460a083018b8d6136ba565b8281036020840152613bb7818a8c6136ba565b90508281036040840152613bcc81888a6136ba565b90508281036060840152613be18186886136ba565b9150508260808301529a9950505050505050505050565b600082613c1557634e487b7160e01b600052601260045260246000fd5b500490565b60008060008060008060c08789031215613c3357600080fd5b86356001600160401b0380821115613c4a57600080fd5b613c568a838b01612c33565b97506020890135915080821115613c6c57600080fd5b50613c7989828a01612c33565b9550506040870135613c8a81612d67565b959894975094956060810135955060808101359460a0909101359350915050565b608081526000613cbe6080830187612eed565b8281036020840152613cd08187612eed565b604084019590955250506060015292915050565b80820180821115610d0457634e487b7160e01b600052601160045260246000fd5b60006101008a8352896020840152806040840152613d258184018a612eed565b90508281036060840152613d398189612eed565b6001600160a01b038816608085015260a0840187905283810360c08501529050613d638186612eed565b9150508260e08301529998505050505050505050565b82815260008251613d91816020850160208701612ec9565b919091016020019392505050565b86815285602082015260c060408201526000613dbe60c0830187612eed565b8281036060840152613dd08187612eed565b6001600160a01b03959095166080840152505060a00152949350505050565b838152606060208201526000613e086060830185612eed565b905082604083015294935050505056fe6080604052600160005534801561001557600080fd5b506102d3806100256000396000f3fe608060405234801561001057600080fd5b50600436106100355760003560e01c8062f55d9d1461003a5780631cff79cd1461004f575b600080fd5b61004d61004836600461018f565b610079565b005b61006261005d3660046101b1565b6100ad565b604051610070929190610234565b60405180910390f35b60026000540361009c5760405163caa30f5560e01b815260040160405180910390fd5b60026000556001600160a01b038116ff5b600060606002600054036100d45760405163caa30f5560e01b815260040160405180910390fd5b600260009081556001600160a01b0386163b900361010557604051636f7c43f160e01b815260040160405180910390fd5b846001600160a01b0316848460405161011f92919061028d565b6000604051808303816000865af19150503d806000811461015c576040519150601f19603f3d011682016040523d82523d6000602084013e610161565b606091505b50600160005590969095509350505050565b80356001600160a01b038116811461018a57600080fd5b919050565b6000602082840312156101a157600080fd5b6101aa82610173565b9392505050565b6000806000604084860312156101c657600080fd5b6101cf84610173565b9250602084013567ffffffffffffffff808211156101ec57600080fd5b818601915086601f83011261020057600080fd5b81358181111561020f57600080fd5b87602082850101111561022157600080fd5b6020830194508093505050509250925092565b82151581526000602060406020840152835180604085015260005b8181101561026b5785810183015185820160600152820161024f565b506000606082860101526060601f19601f830116850101925050509392505050565b818382376000910190815291905056fea264697066735822122006f9d37ee977c070ab0beed5622642adaa8cf7c371495d427ab33e342fdd4ac164736f6c63430008180033abea6fd3db56a6e6d0242111b43ebb13d1c42709651c032c7894962023a1f909627f0c11732837b3240a2de89c0b6343512886dd50978b99c76a68c6416a4d92a264697066735822122039204d17133dbd62903534adaab05a40844fb3aad578064acdff76113e975c7b64736f6c63430008180033",
  "linkReferences": {},
  "deployedLinkReferences": {}
}