{
  "_format": "hh-sol-artifact-1",
  "contractName": "ERC20WithSupply",
  "sourceName": "lib/BoringSolidity/contracts/ERC20.sol",
  "abi": [
    {
      "anonymous": false,
      "inputs": [
        {
          "indexed": true,
          "internalType": "address",
          "name": "owner",
          "type": "address"
        },
        {
          "indexed": true,
          "internalType": "address",
          "name": "spender",
          "type": "address"
        },
        {
          "indexed": false,
          "internalType": "uint256",
          "name": "value",
          "type": "uint256"
        }
      ],
      "name": "Approval",
      "type": "event"
    },
    {
      "anonymous": false,
      "inputs": [
        {
          "indexed": true,
          "internalType": "address",
          "name": "from",
          "type": "address"
        },
        {
          "indexed": true,
          "internalType": "address",
          "name": "to",
          "type": "address"
        },
        {
          "indexed": false,
          "internalType": "uint256",
          "name": "value",
          "type": "uint256"
        }
      ],
      "name": "Transfer",
      "type": "event"
    },
    {
      "inputs": [],
      "name": "DOMAIN_SEPARATOR",
      "outputs": [
        {
          "internalType": "bytes32",
          "name": "",
          "type": "bytes32"
        }
      ],
      "stateMutability": "view",
      "type": "function"
    },
    {
      "inputs": [
        {
          "internalType": "address",
          "name": "",
          "type": "address"
        },
        {
          "internalType": "address",
          "name": "",
          "type": "address"
        }
      ],
      "name": "allowance",
      "outputs": [
        {
          "internalType": "uint256",
          "name": "",
          "type": "uint256"
        }
      ],
      "stateMutability": "view",
      "type": "function"
    },
    {
      "inputs": [
        {
          "internalType": "address",
          "name": "spender",
          "type": "address"
        },
        {
          "internalType": "uint256",
          "name": "amount",
          "type": "uint256"
        }
      ],
      "name": "approve",
      "outputs": [
        {
          "internalType": "bool",
          "name": "",
          "type": "bool"
        }
      ],
      "stateMutability": "nonpayable",
      "type": "function"
    },
    {
      "inputs": [
        {
          "internalType": "address",
          "name": "",
          "type": "address"
        }
      ],
      "name": "balanceOf",
      "outputs": [
        {
          "internalType": "uint256",
          "name": "",
          "type": "uint256"
        }
      ],
      "stateMutability": "view",
      "type": "function"
    },
    {
      "inputs": [
        {
          "internalType": "address",
          "name": "",
          "type": "address"
        }
      ],
      "name": "nonces",
      "outputs": [
        {
          "internalType": "uint256",
          "name": "",
          "type": "uint256"
        }
      ],
      "stateMutability": "view",
      "type": "function"
    },
    {
      "inputs": [
        {
          "internalType": "address",
          "name": "owner_",
          "type": "address"
        },
        {
          "internalType": "address",
          "name": "spender",
          "type": "address"
        },
        {
          "internalType": "uint256",
          "name": "value",
          "type": "uint256"
        },
        {
          "internalType": "uint256",
          "name": "deadline",
          "type": "uint256"
        },
        {
          "internalType": "uint8",
          "name": "v",
          "type": "uint8"
        },
        {
          "internalType": "bytes32",
          "name": "r",
          "type": "bytes32"
        },
        {
          "internalType": "bytes32",
          "name": "s",
          "type": "bytes32"
        }
      ],
      "name": "permit",
      "outputs": [],
      "stateMutability": "nonpayable",
      "type": "function"
    },
    {
      "inputs": [],
      "name": "totalSupply",
      "outputs": [
        {
          "internalType": "uint256",
          "name": "",
          "type": "uint256"
        }
      ],
      "stateMutability": "view",
      "type": "function"
    },
    {
      "inputs": [
        {
          "internalType": "address",
          "name": "to",
          "type": "address"
        },
        {
          "internalType": "uint256",
          "name": "amount",
          "type": "uint256"
        }
      ],
      "name": "transfer",
      "outputs": [
        {
          "internalType": "bool",
          "name": "",
          "type": "bool"
        }
      ],
      "stateMutability": "nonpayable",
      "type": "function"
    },
    {
      "inputs": [
        {
          "internalType": "address",
          "name": "from",
          "type": "address"
        },
        {
          "internalType": "address",
          "name": "to",
          "type": "address"
        },
        {
          "internalType": "uint256",
          "name": "amount",
          "type": "uint256"
        }
      ],
      "name": "transferFrom",
      "outputs": [
        {
          "internalType": "bool",
          "name": "",
          "type": "bool"
        }
      ],
      "stateMutability": "nonpayable",
      "type": "function"
    }
  ],
  "bytecode": "0x60c060405234801561001057600080fd5b504660a081905261007490604080517f47e79534a245952e8b16893a336b85a3d9ea9fa8c573f3d803afb92a794692186020820152908101829052306060820152600090608001604051602081830303815290604052805190602001209050919050565b60805260805160a051610ac761009c60003960006107d2015260006108030152610ac76000f3fe608060405234801561001057600080fd5b50600436106100935760003560e01c806370a082311161006657806370a08231146100f25780637ecebe0014610112578063a9059cbb14610132578063d505accf14610145578063dd62ed3e1461015a57600080fd5b8063095ea7b31461009857806318160ddd146100c057806323b872dd146100d75780633644e515146100ea575b600080fd5b6100ab6100a63660046108d7565b610185565b60405190151581526020015b60405180910390f35b6100c960035481565b6040519081526020016100b7565b6100ab6100e5366004610901565b6101f2565b6100c9610415565b6100c961010036600461093d565b60006020819052908152604090205481565b6100c961012036600461093d565b60026020526000908152604090205481565b6100ab6101403660046108d7565b610424565b61015861015336600461095f565b61057b565b005b6100c96101683660046109d2565b600160209081526000928352604080842090915290825290205481565b3360008181526001602090815260408083206001600160a01b038716808552925280832085905551919290917f8c5be1e5ebec7d5bd14f71427d1e84f3dd0314c0f7b2291e5b200ac8c7c3b925906101e09086815260200190565b60405180910390a35060015b92915050565b600081156103be576001600160a01b038416600090815260208190526040902054828110156102615760405162461bcd60e51b815260206004820152601660248201527545524332303a2062616c616e636520746f6f206c6f7760501b60448201526064015b60405180910390fd5b836001600160a01b0316856001600160a01b0316146103bc576001600160a01b0385166000908152600160209081526040808320338452909152902054600019811461032657838110156102f75760405162461bcd60e51b815260206004820152601860248201527f45524332303a20616c6c6f77616e636520746f6f206c6f7700000000000000006044820152606401610258565b6103018482610a1b565b6001600160a01b03871660009081526001602090815260408083203384529091529020555b6001600160a01b0385166103755760405162461bcd60e51b815260206004820152601660248201527545524332303a206e6f207a65726f206164647265737360501b6044820152606401610258565b61037f8483610a1b565b6001600160a01b0380881660009081526020819052604080822093909355908716815290812080548692906103b5908490610a2e565b9091555050505b505b826001600160a01b0316846001600160a01b03167fddf252ad1be2c89b69c2b068fc378daa952ba7f163c4a11628f55a4df523b3ef8460405161040391815260200190565b60405180910390a35060019392505050565b600061041f6107ce565b905090565b60008115158061043c5750336001600160a01b038416145b1561053e57336000908152602081905260409020548281101561049a5760405162461bcd60e51b815260206004820152601660248201527545524332303a2062616c616e636520746f6f206c6f7760501b6044820152606401610258565b336001600160a01b0385161461053c576001600160a01b0384166104f95760405162461bcd60e51b815260206004820152601660248201527545524332303a206e6f207a65726f206164647265737360501b6044820152606401610258565b6105038382610a1b565b33600090815260208190526040808220929092556001600160a01b03861681529081208054859290610536908490610a2e565b90915550505b505b6040518281526001600160a01b0384169033907fddf252ad1be2c89b69c2b068fc378daa952ba7f163c4a11628f55a4df523b3ef906020016101e0565b6001600160a01b0387166105d15760405162461bcd60e51b815260206004820152601860248201527f45524332303a204f776e65722063616e6e6f74206265203000000000000000006044820152606401610258565b8342106106115760405162461bcd60e51b815260206004820152600e60248201526d115490cc8c0e88115e1c1a5c995960921b6044820152606401610258565b6001600160a01b038716600081815260026020526040812080546001926106bb927f6e71edae12b1b97f4d1f60370fef10105fa2faae0126114a169c64845d6126c9928d928d928d929161066483610a41565b909155506040805160208101969096526001600160a01b0394851690860152929091166060840152608083015260a082015260c0810188905260e00160405160208183030381529060405280519060200120610825565b6040805160008152602081018083529290925260ff871690820152606081018590526080810184905260a0016020604051602081039080840390855afa158015610709573d6000803e3d6000fd5b505050602060405103516001600160a01b0316146107695760405162461bcd60e51b815260206004820152601860248201527f45524332303a20496e76616c6964205369676e617475726500000000000000006044820152606401610258565b6001600160a01b038781166000818152600160209081526040808320948b168084529482529182902089905590518881527f8c5be1e5ebec7d5bd14f71427d1e84f3dd0314c0f7b2291e5b200ac8c7c3b925910160405180910390a350505050505050565b60007f000000000000000000000000000000000000000000000000000000000000000046146108005761041f4661087a565b507f000000000000000000000000000000000000000000000000000000000000000090565b600060405180604001604052806002815260200161190160f01b81525061084a6107ce565b8360405160200161085d93929190610a5a565b604051602081830303815290604052805190602001209050919050565b604080517f47e79534a245952e8b16893a336b85a3d9ea9fa8c573f3d803afb92a79469218602082015290810182905230606082015260009060800161085d565b80356001600160a01b03811681146108d257600080fd5b919050565b600080604083850312156108ea57600080fd5b6108f3836108bb565b946020939093013593505050565b60008060006060848603121561091657600080fd5b61091f846108bb565b925061092d602085016108bb565b9150604084013590509250925092565b60006020828403121561094f57600080fd5b610958826108bb565b9392505050565b600080600080600080600060e0888a03121561097a57600080fd5b610983886108bb565b9650610991602089016108bb565b95506040880135945060608801359350608088013560ff811681146109b557600080fd5b9699959850939692959460a0840135945060c09093013592915050565b600080604083850312156109e557600080fd5b6109ee836108bb565b91506109fc602084016108bb565b90509250929050565b634e487b7160e01b600052601160045260246000fd5b818103818111156101ec576101ec610a05565b808201808211156101ec576101ec610a05565b600060018201610a5357610a53610a05565b5060010190565b6000845160005b81811015610a7b5760208188018101518583015201610a61565b509190910192835250602082015260400191905056fea2646970667358221220c7ba59732626ef5c7277425c17f10fc662b8977bb3d5fec0bdd49bc24222bdc864736f6c63430008180033",
  "linkReferences": {},
  "deployedLinkReferences": {}
}