{
  "_format": "hh-sol-artifact-1",
  "contractName": "ERC20Data",
  "sourceName": "lib/BoringSolidity/contracts/ERC20.sol",
  "abi": [
    {
      "inputs": [
        {
          "internalType": "address",
          "name": "",
          "type": "address"
        },
        {
          "internalType": "address",
          "name": "",
          "type": "address"
        }
      ],
      "name": "allowance",
      "outputs": [
        {
          "internalType": "uint256",
          "name": "",
          "type": "uint256"
        }
      ],
      "stateMutability": "view",
      "type": "function"
    },
    {
      "inputs": [
        {
          "internalType": "address",
          "name": "",
          "type": "address"
        }
      ],
      "name": "balanceOf",
      "outputs": [
        {
          "internalType": "uint256",
          "name": "",
          "type": "uint256"
        }
      ],
      "stateMutability": "view",
      "type": "function"
    },
    {
      "inputs": [
        {
          "internalType": "address",
          "name": "",
          "type": "address"
        }
      ],
      "name": "nonces",
      "outputs": [
        {
          "internalType": "uint256",
          "name": "",
          "type": "uint256"
        }
      ],
      "stateMutability": "view",
      "type": "function"
    }
  ],
  "bytecode": "0x608060405234801561001057600080fd5b5061016a806100206000396000f3fe608060405234801561001057600080fd5b50600436106100415760003560e01c806370a08231146100465780637ecebe0014610078578063dd62ed3e14610098575b600080fd5b6100666100543660046100df565b60006020819052908152604090205481565b60405190815260200160405180910390f35b6100666100863660046100df565b60026020526000908152604090205481565b6100666100a6366004610101565b600160209081526000928352604080842090915290825290205481565b80356001600160a01b03811681146100da57600080fd5b919050565b6000602082840312156100f157600080fd5b6100fa826100c3565b9392505050565b6000806040838503121561011457600080fd5b61011d836100c3565b915061012b602084016100c3565b9050925092905056fea26469706673582212201241a8ddc7a25620999d782f97cd14c8f5de808772e5ec2f88b69c1804bc6f8e64736f6c63430008180033",
  "linkReferences": {},
  "deployedLinkReferences": {}
}