{
  "_format": "hh-sol-artifact-1",
  "contractName": "DepositHandler",
  "sourceName": "contracts/axelar/DepositHandler.sol",
  "abi": [
    {
      "inputs": [],
      "name": "IsLocked",
      "type": "error"
    },
    {
      "inputs": [],
      "name": "NotContract",
      "type": "error"
    },
    {
      "inputs": [
        {
          "internalType": "address",
          "name": "etherDestination",
          "type": "address"
        }
      ],
      "name": "destroy",
      "outputs": [],
      "stateMutability": "nonpayable",
      "type": "function"
    },
    {
      "inputs": [
        {
          "internalType": "address",
          "name": "callee",
          "type": "address"
        },
        {
          "internalType": "bytes",
          "name": "data",
          "type": "bytes"
        }
      ],
      "name": "execute",
      "outputs": [
        {
          "internalType": "bool",
          "name": "success",
          "type": "bool"
        },
        {
          "internalType": "bytes",
          "name": "returnData",
          "type": "bytes"
        }
      ],
      "stateMutability": "nonpayable",
      "type": "function"
    }
  ],
  "bytecode": "0x6080604052600160005534801561001557600080fd5b506102d3806100256000396000f3fe608060405234801561001057600080fd5b50600436106100355760003560e01c8062f55d9d1461003a5780631cff79cd1461004f575b600080fd5b61004d61004836600461018f565b610079565b005b61006261005d3660046101b1565b6100ad565b604051610070929190610234565b60405180910390f35b60026000540361009c5760405163caa30f5560e01b815260040160405180910390fd5b60026000556001600160a01b038116ff5b600060606002600054036100d45760405163caa30f5560e01b815260040160405180910390fd5b600260009081556001600160a01b0386163b900361010557604051636f7c43f160e01b815260040160405180910390fd5b846001600160a01b0316848460405161011f92919061028d565b6000604051808303816000865af19150503d806000811461015c576040519150601f19603f3d011682016040523d82523d6000602084013e610161565b606091505b50600160005590969095509350505050565b80356001600160a01b038116811461018a57600080fd5b919050565b6000602082840312156101a157600080fd5b6101aa82610173565b9392505050565b6000806000604084860312156101c657600080fd5b6101cf84610173565b9250602084013567ffffffffffffffff808211156101ec57600080fd5b818601915086601f83011261020057600080fd5b81358181111561020f57600080fd5b87602082850101111561022157600080fd5b6020830194508093505050509250925092565b82151581526000602060406020840152835180604085015260005b8181101561026b5785810183015185820160600152820161024f565b506000606082860101526060601f19601f830116850101925050509392505050565b818382376000910190815291905056fea264697066735822122006f9d37ee977c070ab0beed5622642adaa8cf7c371495d427ab33e342fdd4ac164736f6c63430008180033",
  "linkReferences": {},
  "deployedLinkReferences": {}
}