{
  "_format": "hh-sol-artifact-1",
  "contractName": "AxelarGasService",
  "sourceName": "contracts/axelar/AxelarGasService.sol",
  "abi": [
    {
      "inputs": [
        {
          "internalType": "address",
          "name": "gasCollector_",
          "type": "address"
        }
      ],
      "stateMutability": "nonpayable",
      "type": "constructor"
    },
    {
      "inputs": [
        {
          "internalType": "uint256",
          "name": "required",
          "type": "uint256"
        },
        {
          "internalType": "uint256",
          "name": "provided",
          "type": "uint256"
        }
      ],
      "name": "InsufficientGasPayment",
      "type": "error"
    },
    {
      "inputs": [],
      "name": "InvalidAddress",
      "type": "error"
    },
    {
      "inputs": [],
      "name": "InvalidAmounts",
      "type": "error"
    },
    {
      "inputs": [],
      "name": "InvalidCodeHash",
      "type": "error"
    },
    {
      "inputs": [],
      "name": "InvalidGasUpdates",
      "type": "error"
    },
    {
      "inputs": [],
      "name": "InvalidImplementation",
      "type": "error"
    },
    {
      "inputs": [],
      "name": "InvalidOwner",
      "type": "error"
    },
    {
      "inputs": [],
      "name": "InvalidOwnerAddress",
      "type": "error"
    },
    {
      "inputs": [],
      "name": "InvalidParams",
      "type": "error"
    },
    {
      "inputs": [],
      "name": "NativeTransferFailed",
      "type": "error"
    },
    {
      "inputs": [],
      "name": "NotCollector",
      "type": "error"
    },
    {
      "inputs": [],
      "name": "NotOwner",
      "type": "error"
    },
    {
      "inputs": [],
      "name": "NotProxy",
      "type": "error"
    },
    {
      "inputs": [],
      "name": "SetupFailed",
      "type": "error"
    },
    {
      "inputs": [],
      "name": "TokenTransferFailed",
      "type": "error"
    },
    {
      "inputs": [
        {
          "internalType": "enum GasEstimationType",
          "name": "gasEstimationType",
          "type": "uint8"
        }
      ],
      "name": "UnsupportedEstimationType",
      "type": "error"
    },
    {
      "anonymous": false,
      "inputs": [
        {
          "indexed": true,
          "internalType": "bytes32",
          "name": "txHash",
          "type": "bytes32"
        },
        {
          "indexed": true,
          "internalType": "uint256",
          "name": "logIndex",
          "type": "uint256"
        },
        {
          "indexed": false,
          "internalType": "address",
          "name": "gasToken",
          "type": "address"
        },
        {
          "indexed": false,
          "internalType": "uint256",
          "name": "gasFeeAmount",
          "type": "uint256"
        },
        {
          "indexed": false,
          "internalType": "address",
          "name": "refundAddress",
          "type": "address"
        }
      ],
      "name": "ExpressGasAdded",
      "type": "event"
    },
    {
      "anonymous": false,
      "inputs": [
        {
          "indexed": true,
          "internalType": "bytes32",
          "name": "txHash",
          "type": "bytes32"
        },
        {
          "indexed": true,
          "internalType": "uint256",
          "name": "logIndex",
          "type": "uint256"
        },
        {
          "indexed": false,
          "internalType": "address",
          "name": "gasToken",
          "type": "address"
        },
        {
          "indexed": false,
          "internalType": "uint256",
          "name": "gasFeeAmount",
          "type": "uint256"
        },
        {
          "indexed": false,
          "internalType": "address",
          "name": "refundAddress",
          "type": "address"
        }
      ],
      "name": "GasAdded",
      "type": "event"
    },
    {
      "anonymous": false,
      "inputs": [
        {
          "indexed": false,
          "internalType": "string",
          "name": "chain",
          "type": "string"
        },
        {
          "components": [
            {
              "internalType": "uint64",
              "name": "gasEstimationType",
              "type": "uint64"
            },
            {
              "internalType": "uint64",
              "name": "l1FeeScalar",
              "type": "uint64"
            },
            {
              "internalType": "uint128",
              "name": "axelarBaseFee",
              "type": "uint128"
            },
            {
              "internalType": "uint128",
              "name": "relativeGasPrice",
              "type": "uint128"
            },
            {
              "internalType": "uint128",
              "name": "relativeBlobBaseFee",
              "type": "uint128"
            },
            {
              "internalType": "uint128",
              "name": "expressFee",
              "type": "uint128"
            }
          ],
          "indexed": false,
          "internalType": "struct GasInfo",
          "name": "info",
          "type": "tuple"
        }
      ],
      "name": "GasInfoUpdated",
      "type": "event"
    },
    {
      "anonymous": false,
      "inputs": [
        {
          "indexed": true,
          "internalType": "address",
          "name": "sourceAddress",
          "type": "address"
        },
        {
          "indexed": false,
          "internalType": "string",
          "name": "destinationChain",
          "type": "string"
        },
        {
          "indexed": false,
          "internalType": "string",
          "name": "destinationAddress",
          "type": "string"
        },
        {
          "indexed": true,
          "internalType": "bytes32",
          "name": "payloadHash",
          "type": "bytes32"
        },
        {
          "indexed": false,
          "internalType": "address",
          "name": "gasToken",
          "type": "address"
        },
        {
          "indexed": false,
          "internalType": "uint256",
          "name": "gasFeeAmount",
          "type": "uint256"
        },
        {
          "indexed": false,
          "internalType": "address",
          "name": "refundAddress",
          "type": "address"
        }
      ],
      "name": "GasPaidForContractCall",
      "type": "event"
    },
    {
      "anonymous": false,
      "inputs": [
        {
          "indexed": true,
          "internalType": "address",
          "name": "sourceAddress",
          "type": "address"
        },
        {
          "indexed": false,
          "internalType": "string",
          "name": "destinationChain",
          "type": "string"
        },
        {
          "indexed": false,
          "internalType": "string",
          "name": "destinationAddress",
          "type": "string"
        },
        {
          "indexed": true,
          "internalType": "bytes32",
          "name": "payloadHash",
          "type": "bytes32"
        },
        {
          "indexed": false,
          "internalType": "string",
          "name": "symbol",
          "type": "string"
        },
        {
          "indexed": false,
          "internalType": "uint256",
          "name": "amount",
          "type": "uint256"
        },
        {
          "indexed": false,
          "internalType": "address",
          "name": "gasToken",
          "type": "address"
        },
        {
          "indexed": false,
          "internalType": "uint256",
          "name": "gasFeeAmount",
          "type": "uint256"
        },
        {
          "indexed": false,
          "internalType": "address",
          "name": "refundAddress",
          "type": "address"
        }
      ],
      "name": "GasPaidForContractCallWithToken",
      "type": "event"
    },
    {
      "anonymous": false,
      "inputs": [
        {
          "indexed": true,
          "internalType": "address",
          "name": "sourceAddress",
          "type": "address"
        },
        {
          "indexed": false,
          "internalType": "string",
          "name": "destinationChain",
          "type": "string"
        },
        {
          "indexed": false,
          "internalType": "string",
          "name": "destinationAddress",
          "type": "string"
        },
        {
          "indexed": true,
          "internalType": "bytes32",
          "name": "payloadHash",
          "type": "bytes32"
        },
        {
          "indexed": false,
          "internalType": "address",
          "name": "gasToken",
          "type": "address"
        },
        {
          "indexed": false,
          "internalType": "uint256",
          "name": "gasFeeAmount",
          "type": "uint256"
        },
        {
          "indexed": false,
          "internalType": "address",
          "name": "refundAddress",
          "type": "address"
        }
      ],
      "name": "GasPaidForExpressCall",
      "type": "event"
    },
    {
      "anonymous": false,
      "inputs": [
        {
          "indexed": true,
          "internalType": "address",
          "name": "sourceAddress",
          "type": "address"
        },
        {
          "indexed": false,
          "internalType": "string",
          "name": "destinationChain",
          "type": "string"
        },
        {
          "indexed": false,
          "internalType": "string",
          "name": "destinationAddress",
          "type": "string"
        },
        {
          "indexed": true,
          "internalType": "bytes32",
          "name": "payloadHash",
          "type": "bytes32"
        },
        {
          "indexed": false,
          "internalType": "string",
          "name": "symbol",
          "type": "string"
        },
        {
          "indexed": false,
          "internalType": "uint256",
          "name": "amount",
          "type": "uint256"
        },
        {
          "indexed": false,
          "internalType": "address",
          "name": "gasToken",
          "type": "address"
        },
        {
          "indexed": false,
          "internalType": "uint256",
          "name": "gasFeeAmount",
          "type": "uint256"
        },
        {
          "indexed": false,
          "internalType": "address",
          "name": "refundAddress",
          "type": "address"
        }
      ],
      "name": "GasPaidForExpressCallWithToken",
      "type": "event"
    },
    {
      "anonymous": false,
      "inputs": [
        {
          "indexed": true,
          "internalType": "bytes32",
          "name": "txHash",
          "type": "bytes32"
        },
        {
          "indexed": true,
          "internalType": "uint256",
          "name": "logIndex",
          "type": "uint256"
        },
        {
          "indexed": false,
          "internalType": "uint256",
          "name": "gasFeeAmount",
          "type": "uint256"
        },
        {
          "indexed": false,
          "internalType": "address",
          "name": "refundAddress",
          "type": "address"
        }
      ],
      "name": "NativeExpressGasAdded",
      "type": "event"
    },
    {
      "anonymous": false,
      "inputs": [
        {
          "indexed": true,
          "internalType": "bytes32",
          "name": "txHash",
          "type": "bytes32"
        },
        {
          "indexed": true,
          "internalType": "uint256",
          "name": "logIndex",
          "type": "uint256"
        },
        {
          "indexed": false,
          "internalType": "uint256",
          "name": "gasFeeAmount",
          "type": "uint256"
        },
        {
          "indexed": false,
          "internalType": "address",
          "name": "refundAddress",
          "type": "address"
        }
      ],
      "name": "NativeGasAdded",
      "type": "event"
    },
    {
      "anonymous": false,
      "inputs": [
        {
          "indexed": true,
          "internalType": "address",
          "name": "sourceAddress",
          "type": "address"
        },
        {
          "indexed": false,
          "internalType": "string",
          "name": "destinationChain",
          "type": "string"
        },
        {
          "indexed": false,
          "internalType": "string",
          "name": "destinationAddress",
          "type": "string"
        },
        {
          "indexed": true,
          "internalType": "bytes32",
          "name": "payloadHash",
          "type": "bytes32"
        },
        {
          "indexed": false,
          "internalType": "uint256",
          "name": "gasFeeAmount",
          "type": "uint256"
        },
        {
          "indexed": false,
          "internalType": "address",
          "name": "refundAddress",
          "type": "address"
        }
      ],
      "name": "NativeGasPaidForContractCall",
      "type": "event"
    },
    {
      "anonymous": false,
      "inputs": [
        {
          "indexed": true,
          "internalType": "address",
          "name": "sourceAddress",
          "type": "address"
        },
        {
          "indexed": false,
          "internalType": "string",
          "name": "destinationChain",
          "type": "string"
        },
        {
          "indexed": false,
          "internalType": "string",
          "name": "destinationAddress",
          "type": "string"
        },
        {
          "indexed": true,
          "internalType": "bytes32",
          "name": "payloadHash",
          "type": "bytes32"
        },
        {
          "indexed": false,
          "internalType": "string",
          "name": "symbol",
          "type": "string"
        },
        {
          "indexed": false,
          "internalType": "uint256",
          "name": "amount",
          "type": "uint256"
        },
        {
          "indexed": false,
          "internalType": "uint256",
          "name": "gasFeeAmount",
          "type": "uint256"
        },
        {
          "indexed": false,
          "internalType": "address",
          "name": "refundAddress",
          "type": "address"
        }
      ],
      "name": "NativeGasPaidForContractCallWithToken",
      "type": "event"
    },
    {
      "anonymous": false,
      "inputs": [
        {
          "indexed": true,
          "internalType": "address",
          "name": "sourceAddress",
          "type": "address"
        },
        {
          "indexed": false,
          "internalType": "string",
          "name": "destinationChain",
          "type": "string"
        },
        {
          "indexed": false,
          "internalType": "string",
          "name": "destinationAddress",
          "type": "string"
        },
        {
          "indexed": true,
          "internalType": "bytes32",
          "name": "payloadHash",
          "type": "bytes32"
        },
        {
          "indexed": false,
          "internalType": "uint256",
          "name": "gasFeeAmount",
          "type": "uint256"
        },
        {
          "indexed": false,
          "internalType": "address",
          "name": "refundAddress",
          "type": "address"
        }
      ],
      "name": "NativeGasPaidForExpressCall",
      "type": "event"
    },
    {
      "anonymous": false,
      "inputs": [
        {
          "indexed": true,
          "internalType": "address",
          "name": "sourceAddress",
          "type": "address"
        },
        {
          "indexed": false,
          "internalType": "string",
          "name": "destinationChain",
          "type": "string"
        },
        {
          "indexed": false,
          "internalType": "string",
          "name": "destinationAddress",
          "type": "string"
        },
        {
          "indexed": true,
          "internalType": "bytes32",
          "name": "payloadHash",
          "type": "bytes32"
        },
        {
          "indexed": false,
          "internalType": "string",
          "name": "symbol",
          "type": "string"
        },
        {
          "indexed": false,
          "internalType": "uint256",
          "name": "amount",
          "type": "uint256"
        },
        {
          "indexed": false,
          "internalType": "uint256",
          "name": "gasFeeAmount",
          "type": "uint256"
        },
        {
          "indexed": false,
          "internalType": "address",
          "name": "refundAddress",
          "type": "address"
        }
      ],
      "name": "NativeGasPaidForExpressCallWithToken",
      "type": "event"
    },
    {
      "anonymous": false,
      "inputs": [
        {
          "indexed": true,
          "internalType": "address",
          "name": "newOwner",
          "type": "address"
        }
      ],
      "name": "OwnershipTransferStarted",
      "type": "event"
    },
    {
      "anonymous": false,
      "inputs": [
        {
          "indexed": true,
          "internalType": "address",
          "name": "newOwner",
          "type": "address"
        }
      ],
      "name": "OwnershipTransferred",
      "type": "event"
    },
    {
      "anonymous": false,
      "inputs": [
        {
          "indexed": true,
          "internalType": "bytes32",
          "name": "txHash",
          "type": "bytes32"
        },
        {
          "indexed": true,
          "internalType": "uint256",
          "name": "logIndex",
          "type": "uint256"
        },
        {
          "indexed": false,
          "internalType": "address payable",
          "name": "receiver",
          "type": "address"
        },
        {
          "indexed": false,
          "internalType": "address",
          "name": "token",
          "type": "address"
        },
        {
          "indexed": false,
          "internalType": "uint256",
          "name": "amount",
          "type": "uint256"
        }
      ],
      "name": "Refunded",
      "type": "event"
    },
    {
      "anonymous": false,
      "inputs": [
        {
          "indexed": true,
          "internalType": "address",
          "name": "newImplementation",
          "type": "address"
        }
      ],
      "name": "Upgraded",
      "type": "event"
    },
    {
      "inputs": [],
      "name": "acceptOwnership",
      "outputs": [],
      "stateMutability": "nonpayable",
      "type": "function"
    },
    {
      "inputs": [
        {
          "internalType": "bytes32",
          "name": "txHash",
          "type": "bytes32"
        },
        {
          "internalType": "uint256",
          "name": "logIndex",
          "type": "uint256"
        },
        {
          "internalType": "address",
          "name": "gasToken",
          "type": "address"
        },
        {
          "internalType": "uint256",
          "name": "gasFeeAmount",
          "type": "uint256"
        },
        {
          "internalType": "address",
          "name": "refundAddress",
          "type": "address"
        }
      ],
      "name": "addExpressGas",
      "outputs": [],
      "stateMutability": "nonpayable",
      "type": "function"
    },
    {
      "inputs": [
        {
          "internalType": "bytes32",
          "name": "txHash",
          "type": "bytes32"
        },
        {
          "internalType": "uint256",
          "name": "logIndex",
          "type": "uint256"
        },
        {
          "internalType": "address",
          "name": "gasToken",
          "type": "address"
        },
        {
          "internalType": "uint256",
          "name": "gasFeeAmount",
          "type": "uint256"
        },
        {
          "internalType": "address",
          "name": "refundAddress",
          "type": "address"
        }
      ],
      "name": "addGas",
      "outputs": [],
      "stateMutability": "nonpayable",
      "type": "function"
    },
    {
      "inputs": [
        {
          "internalType": "bytes32",
          "name": "txHash",
          "type": "bytes32"
        },
        {
          "internalType": "uint256",
          "name": "logIndex",
          "type": "uint256"
        },
        {
          "internalType": "address",
          "name": "refundAddress",
          "type": "address"
        }
      ],
      "name": "addNativeExpressGas",
      "outputs": [],
      "stateMutability": "payable",
      "type": "function"
    },
    {
      "inputs": [
        {
          "internalType": "bytes32",
          "name": "txHash",
          "type": "bytes32"
        },
        {
          "internalType": "uint256",
          "name": "logIndex",
          "type": "uint256"
        },
        {
          "internalType": "address",
          "name": "refundAddress",
          "type": "address"
        }
      ],
      "name": "addNativeGas",
      "outputs": [],
      "stateMutability": "payable",
      "type": "function"
    },
    {
      "inputs": [
        {
          "internalType": "address payable",
          "name": "receiver",
          "type": "address"
        },
        {
          "internalType": "address[]",
          "name": "tokens",
          "type": "address[]"
        },
        {
          "internalType": "uint256[]",
          "name": "amounts",
          "type": "uint256[]"
        }
      ],
      "name": "collectFees",
      "outputs": [],
      "stateMutability": "nonpayable",
      "type": "function"
    },
    {
      "inputs": [],
      "name": "contractId",
      "outputs": [
        {
          "internalType": "bytes32",
          "name": "",
          "type": "bytes32"
        }
      ],
      "stateMutability": "pure",
      "type": "function"
    },
    {
      "inputs": [
        {
          "internalType": "string",
          "name": "destinationChain",
          "type": "string"
        },
        {
          "internalType": "string",
          "name": "",
          "type": "string"
        },
        {
          "internalType": "bytes",
          "name": "payload",
          "type": "bytes"
        },
        {
          "internalType": "uint256",
          "name": "executionGasLimit",
          "type": "uint256"
        },
        {
          "internalType": "bytes",
          "name": "",
          "type": "bytes"
        }
      ],
      "name": "estimateGasFee",
      "outputs": [
        {
          "internalType": "uint256",
          "name": "gasEstimate",
          "type": "uint256"
        }
      ],
      "stateMutability": "view",
      "type": "function"
    },
    {
      "inputs": [],
      "name": "gasCollector",
      "outputs": [
        {
          "internalType": "address",
          "name": "",
          "type": "address"
        }
      ],
      "stateMutability": "view",
      "type": "function"
    },
    {
      "inputs": [
        {
          "internalType": "string",
          "name": "chain",
          "type": "string"
        }
      ],
      "name": "getGasInfo",
      "outputs": [
        {
          "components": [
            {
              "internalType": "uint64",
              "name": "gasEstimationType",
              "type": "uint64"
            },
            {
              "internalType": "uint64",
              "name": "l1FeeScalar",
              "type": "uint64"
            },
            {
              "internalType": "uint128",
              "name": "axelarBaseFee",
              "type": "uint128"
            },
            {
              "internalType": "uint128",
              "name": "relativeGasPrice",
              "type": "uint128"
            },
            {
              "internalType": "uint128",
              "name": "relativeBlobBaseFee",
              "type": "uint128"
            },
            {
              "internalType": "uint128",
              "name": "expressFee",
              "type": "uint128"
            }
          ],
          "internalType": "struct GasInfo",
          "name": "",
          "type": "tuple"
        }
      ],
      "stateMutability": "view",
      "type": "function"
    },
    {
      "inputs": [],
      "name": "implementation",
      "outputs": [
        {
          "internalType": "address",
          "name": "implementation_",
          "type": "address"
        }
      ],
      "stateMutability": "view",
      "type": "function"
    },
    {
      "inputs": [],
      "name": "owner",
      "outputs": [
        {
          "internalType": "address",
          "name": "owner_",
          "type": "address"
        }
      ],
      "stateMutability": "view",
      "type": "function"
    },
    {
      "inputs": [
        {
          "internalType": "address",
          "name": "sender",
          "type": "address"
        },
        {
          "internalType": "string",
          "name": "destinationChain",
          "type": "string"
        },
        {
          "internalType": "string",
          "name": "destinationAddress",
          "type": "string"
        },
        {
          "internalType": "bytes",
          "name": "payload",
          "type": "bytes"
        },
        {
          "internalType": "uint256",
          "name": "executionGasLimit",
          "type": "uint256"
        },
        {
          "internalType": "bool",
          "name": "estimateOnChain",
          "type": "bool"
        },
        {
          "internalType": "address",
          "name": "refundAddress",
          "type": "address"
        },
        {
          "internalType": "bytes",
          "name": "params",
          "type": "bytes"
        }
      ],
      "name": "payGas",
      "outputs": [],
      "stateMutability": "payable",
      "type": "function"
    },
    {
      "inputs": [
        {
          "internalType": "address",
          "name": "sender",
          "type": "address"
        },
        {
          "internalType": "string",
          "name": "destinationChain",
          "type": "string"
        },
        {
          "internalType": "string",
          "name": "destinationAddress",
          "type": "string"
        },
        {
          "internalType": "bytes",
          "name": "payload",
          "type": "bytes"
        },
        {
          "internalType": "address",
          "name": "gasToken",
          "type": "address"
        },
        {
          "internalType": "uint256",
          "name": "gasFeeAmount",
          "type": "uint256"
        },
        {
          "internalType": "address",
          "name": "refundAddress",
          "type": "address"
        }
      ],
      "name": "payGasForContractCall",
      "outputs": [],
      "stateMutability": "nonpayable",
      "type": "function"
    },
    {
      "inputs": [
        {
          "internalType": "address",
          "name": "sender",
          "type": "address"
        },
        {
          "internalType": "string",
          "name": "destinationChain",
          "type": "string"
        },
        {
          "internalType": "string",
          "name": "destinationAddress",
          "type": "string"
        },
        {
          "internalType": "bytes",
          "name": "payload",
          "type": "bytes"
        },
        {
          "internalType": "string",
          "name": "symbol",
          "type": "string"
        },
        {
          "internalType": "uint256",
          "name": "amount",
          "type": "uint256"
        },
        {
          "internalType": "address",
          "name": "gasToken",
          "type": "address"
        },
        {
          "internalType": "uint256",
          "name": "gasFeeAmount",
          "type": "uint256"
        },
        {
          "internalType": "address",
          "name": "refundAddress",
          "type": "address"
        }
      ],
      "name": "payGasForContractCallWithToken",
      "outputs": [],
      "stateMutability": "nonpayable",
      "type": "function"
    },
    {
      "inputs": [
        {
          "internalType": "address",
          "name": "sender",
          "type": "address"
        },
        {
          "internalType": "string",
          "name": "destinationChain",
          "type": "string"
        },
        {
          "internalType": "string",
          "name": "destinationAddress",
          "type": "string"
        },
        {
          "internalType": "bytes",
          "name": "payload",
          "type": "bytes"
        },
        {
          "internalType": "address",
          "name": "gasToken",
          "type": "address"
        },
        {
          "internalType": "uint256",
          "name": "gasFeeAmount",
          "type": "uint256"
        },
        {
          "internalType": "address",
          "name": "refundAddress",
          "type": "address"
        }
      ],
      "name": "payGasForExpressCall",
      "outputs": [],
      "stateMutability": "nonpayable",
      "type": "function"
    },
    {
      "inputs": [
        {
          "internalType": "address",
          "name": "sender",
          "type": "address"
        },
        {
          "internalType": "string",
          "name": "destinationChain",
          "type": "string"
        },
        {
          "internalType": "string",
          "name": "destinationAddress",
          "type": "string"
        },
        {
          "internalType": "bytes",
          "name": "payload",
          "type": "bytes"
        },
        {
          "internalType": "string",
          "name": "symbol",
          "type": "string"
        },
        {
          "internalType": "uint256",
          "name": "amount",
          "type": "uint256"
        },
        {
          "internalType": "address",
          "name": "gasToken",
          "type": "address"
        },
        {
          "internalType": "uint256",
          "name": "gasFeeAmount",
          "type": "uint256"
        },
        {
          "internalType": "address",
          "name": "refundAddress",
          "type": "address"
        }
      ],
      "name": "payGasForExpressCallWithToken",
      "outputs": [],
      "stateMutability": "nonpayable",
      "type": "function"
    },
    {
      "inputs": [
        {
          "internalType": "address",
          "name": "sender",
          "type": "address"
        },
        {
          "internalType": "string",
          "name": "destinationChain",
          "type": "string"
        },
        {
          "internalType": "string",
          "name": "destinationAddress",
          "type": "string"
        },
        {
          "internalType": "bytes",
          "name": "payload",
          "type": "bytes"
        },
        {
          "internalType": "address",
          "name": "refundAddress",
          "type": "address"
        }
      ],
      "name": "payNativeGasForContractCall",
      "outputs": [],
      "stateMutability": "payable",
      "type": "function"
    },
    {
      "inputs": [
        {
          "internalType": "address",
          "name": "sender",
          "type": "address"
        },
        {
          "internalType": "string",
          "name": "destinationChain",
          "type": "string"
        },
        {
          "internalType": "string",
          "name": "destinationAddress",
          "type": "string"
        },
        {
          "internalType": "bytes",
          "name": "payload",
          "type": "bytes"
        },
        {
          "internalType": "string",
          "name": "symbol",
          "type": "string"
        },
        {
          "internalType": "uint256",
          "name": "amount",
          "type": "uint256"
        },
        {
          "internalType": "address",
          "name": "refundAddress",
          "type": "address"
        }
      ],
      "name": "payNativeGasForContractCallWithToken",
      "outputs": [],
      "stateMutability": "payable",
      "type": "function"
    },
    {
      "inputs": [
        {
          "internalType": "address",
          "name": "sender",
          "type": "address"
        },
        {
          "internalType": "string",
          "name": "destinationChain",
          "type": "string"
        },
        {
          "internalType": "string",
          "name": "destinationAddress",
          "type": "string"
        },
        {
          "internalType": "bytes",
          "name": "payload",
          "type": "bytes"
        },
        {
          "internalType": "address",
          "name": "refundAddress",
          "type": "address"
        }
      ],
      "name": "payNativeGasForExpressCall",
      "outputs": [],
      "stateMutability": "payable",
      "type": "function"
    },
    {
      "inputs": [
        {
          "internalType": "address",
          "name": "sender",
          "type": "address"
        },
        {
          "internalType": "string",
          "name": "destinationChain",
          "type": "string"
        },
        {
          "internalType": "string",
          "name": "destinationAddress",
          "type": "string"
        },
        {
          "internalType": "bytes",
          "name": "payload",
          "type": "bytes"
        },
        {
          "internalType": "string",
          "name": "symbol",
          "type": "string"
        },
        {
          "internalType": "uint256",
          "name": "amount",
          "type": "uint256"
        },
        {
          "internalType": "address",
          "name": "refundAddress",
          "type": "address"
        }
      ],
      "name": "payNativeGasForExpressCallWithToken",
      "outputs": [],
      "stateMutability": "payable",
      "type": "function"
    },
    {
      "inputs": [],
      "name": "pendingOwner",
      "outputs": [
        {
          "internalType": "address",
          "name": "owner_",
          "type": "address"
        }
      ],
      "stateMutability": "view",
      "type": "function"
    },
    {
      "inputs": [
        {
          "internalType": "address",
          "name": "newOwner",
          "type": "address"
        }
      ],
      "name": "proposeOwnership",
      "outputs": [],
      "stateMutability": "nonpayable",
      "type": "function"
    },
    {
      "inputs": [
        {
          "internalType": "bytes32",
          "name": "txHash",
          "type": "bytes32"
        },
        {
          "internalType": "uint256",
          "name": "logIndex",
          "type": "uint256"
        },
        {
          "internalType": "address payable",
          "name": "receiver",
          "type": "address"
        },
        {
          "internalType": "address",
          "name": "token",
          "type": "address"
        },
        {
          "internalType": "uint256",
          "name": "amount",
          "type": "uint256"
        }
      ],
      "name": "refund",
      "outputs": [],
      "stateMutability": "nonpayable",
      "type": "function"
    },
    {
      "inputs": [
        {
          "internalType": "address payable",
          "name": "receiver",
          "type": "address"
        },
        {
          "internalType": "address",
          "name": "token",
          "type": "address"
        },
        {
          "internalType": "uint256",
          "name": "amount",
          "type": "uint256"
        }
      ],
      "name": "refund",
      "outputs": [],
      "stateMutability": "nonpayable",
      "type": "function"
    },
    {
      "inputs": [
        {
          "internalType": "bytes",
          "name": "data",
          "type": "bytes"
        }
      ],
      "name": "setup",
      "outputs": [],
      "stateMutability": "nonpayable",
      "type": "function"
    },
    {
      "inputs": [
        {
          "internalType": "address",
          "name": "newOwner",
          "type": "address"
        }
      ],
      "name": "transferOwnership",
      "outputs": [],
      "stateMutability": "nonpayable",
      "type": "function"
    },
    {
      "inputs": [
        {
          "internalType": "string[]",
          "name": "chains",
          "type": "string[]"
        },
        {
          "components": [
            {
              "internalType": "uint64",
              "name": "gasEstimationType",
              "type": "uint64"
            },
            {
              "internalType": "uint64",
              "name": "l1FeeScalar",
              "type": "uint64"
            },
            {
              "internalType": "uint128",
              "name": "axelarBaseFee",
              "type": "uint128"
            },
            {
              "internalType": "uint128",
              "name": "relativeGasPrice",
              "type": "uint128"
            },
            {
              "internalType": "uint128",
              "name": "relativeBlobBaseFee",
              "type": "uint128"
            },
            {
              "internalType": "uint128",
              "name": "expressFee",
              "type": "uint128"
            }
          ],
          "internalType": "struct GasInfo[]",
          "name": "gasUpdates",
          "type": "tuple[]"
        }
      ],
      "name": "updateGasInfo",
      "outputs": [],
      "stateMutability": "nonpayable",
      "type": "function"
    },
    {
      "inputs": [
        {
          "internalType": "address",
          "name": "newImplementation",
          "type": "address"
        },
        {
          "internalType": "bytes32",
          "name": "newImplementationCodeHash",
          "type": "bytes32"
        },
        {
          "internalType": "bytes",
          "name": "params",
          "type": "bytes"
        }
      ],
      "name": "upgrade",
      "outputs": [],
      "stateMutability": "nonpayable",
      "type": "function"
    }
  ],
  "bytecode": "0x60c06040523480156200001157600080fd5b5060405162002c9538038062002c958339810160408190526200003491620000fc565b6001620000418162000058565b50306080526001600160a01b031660a0526200012e565b6001600160a01b0381166200008057604051633649397d60e21b815260040160405180910390fd5b6040516001600160a01b038216907f04dba622d284ed0014ee4b9a6a68386be1a4c08a4913ae272de89199cc68616390600090a27f02016836a56b71f0d02689e69e326f4f4c1b9057164ef592671cf0d37c8040c05560007f9855384122b55936fbfb8ca5120e63c6537a1ac40caf6ae33502b3c5da8c87d155565b6000602082840312156200010f57600080fd5b81516001600160a01b03811681146200012757600080fd5b9392505050565b60805160a051612b2562000170600039600081816104230152818161064d01528181610a8401528181610c1e015261119d01526000610d3a0152612b256000f3fe6080604052600436106101c25760003560e01c8063892b5007116100f7578063cd433ada11610095578063edf936f211610064578063edf936f21461056f578063f2fde38b14610582578063f61ed218146105a2578063fd09e3bd146105b557600080fd5b8063cd433ada146104fa578063d3b81f0c1461050d578063e30c39781461052d578063edb6b3a51461054f57600080fd5b8063a3499c73116100d1578063a3499c7314610487578063ab1999ba146104a7578063ba9ddc8d146104c7578063c62c2002146104e757600080fd5b8063892b5007146104115780638da5cb5b146104455780639ded06df1461046757600080fd5b80634d2384891161016457806379ba50971161013e57806379ba50971461031d5780638291286c1461033257806382ad6f351461036557806386389f021461038557600080fd5b80634d238489146102a25780635c60da1b146102b5578063710bf322146102fd57600080fd5b806317a49f7c116101a057806317a49f7c1461022f5780632e9b74701461024f5780632edd2aa814610262578063365047211461028257600080fd5b80630c93e3bb146101c75780631055eaaf146101dc578063135eaa70146101fc575b600080fd5b6101da6101d5366004611b74565b6105d5565b005b3480156101e857600080fd5b506101da6101f7366004611c77565b610642565b34801561020857600080fd5b5061021c610217366004611cf9565b610808565b6040519081526020015b60405180910390f35b34801561023b57600080fd5b506101da61024a366004611e6a565b610908565b6101da61025d366004611f84565b610994565b34801561026e57600080fd5b506101da61027d366004612076565b610a0a565b34801561028e57600080fd5b506101da61029d3660046120cc565b610a79565b6101da6102b036600461211e565b610ace565b3480156102c157600080fd5b507f360894a13ba1a3210667c828492db98dca3e2076cc3735a920a3ca505d382bbc545b6040516001600160a01b039091168152602001610226565b34801561030957600080fd5b506101da610318366004612157565b610b19565b34801561032957600080fd5b506101da610bc4565b34801561033e57600080fd5b507ffaa2f015f2ce5aee225904728de2def86eb8837491efd21f1a04fc20d8e923f661021c565b34801561037157600080fd5b506101da61038036600461217b565b610c13565b34801561039157600080fd5b506103a56103a03660046121bc565b610c6e565b6040516102269190600060c0820190506001600160401b038084511683528060208501511660208401525060408301516001600160801b0380821660408501528060608601511660608501528060808601511660808501528060a08601511660a0850152505092915050565b34801561041d57600080fd5b506102e57f000000000000000000000000000000000000000000000000000000000000000081565b34801561045157600080fd5b50600080516020612ab0833981519152546102e5565b34801561047357600080fd5b506101da6104823660046121bc565b610d37565b34801561049357600080fd5b506101da6104a23660046121fd565b610d84565b3480156104b357600080fd5b506101da6104c2366004612076565b61101a565b3480156104d357600080fd5b506101da6104e2366004612258565b611069565b6101da6104f5366004611f84565b6110ef565b6101da61050836600461211e565b611150565b34801561051957600080fd5b506101da61052836600461232f565b611192565b34801561053957600080fd5b50600080516020612ad0833981519152546102e5565b34801561055b57600080fd5b506101da61056a366004611e6a565b61126a565b6101da61057d3660046123e1565b6112cb565b34801561058e57600080fd5b506101da61059d366004612157565b6113a7565b6101da6105b0366004611b74565b6113e5565b3480156105c157600080fd5b506101da6105d0366004612258565b611440565b82826040516105e59291906124f9565b6040518091039020886001600160a01b03167f617332c1832058df6ee45fcbdf471251474c9945a8e5d229287a21a5f67ccf0a89898989348860405161063096959493929190612532565b60405180910390a35050505050505050565b336001600160a01b037f0000000000000000000000000000000000000000000000000000000000000000161461068a57604051623bb10360e91b815260040160405180910390fd5b6001600160a01b0385166106b15760405163e6c4247b60e01b815260040160405180910390fd5b828181146106d257604051636c2b7e2d60e11b815260040160405180910390fd5b60005b818110156107ff5760008686838181106106f1576106f161257d565b90506020020160208101906107069190612157565b9050600085858481811061071c5761071c61257d565b9050602002013590508060000361074657604051636c2b7e2d60e11b815260040160405180910390fd5b6001600160a01b0382166107735747811161076e5761076e6001600160a01b038a168261149d565b6107f5565b6040516370a0823160e01b81523060048201526001600160a01b038316906370a0823190602401602060405180830381865afa1580156107b7573d6000803e3d6000fd5b505050506040513d601f19601f820116820180604052508101906107db9190612593565b81116107f5576107f56001600160a01b0383168a836114c9565b50506001016106d5565b50505050505050565b600080600080516020612a9083398151915260405161082a908d908d906124f9565b90815260405190819003602001902080549091506000906001600160401b0316600481111561085b5761085b6125ac565b6001830154909150610876906001600160801b0316876125d8565b82546108929190600160801b90046001600160801b03166125ef565b925060008160048111156108a8576108a86125ac565b146108f9576040805167657468657265756d60c01b8152600080516020612a90833981519152600882015290519081900360280190206108eb828a8a868561152c565b6108f590856125ef565b9350505b50509998505050505050505050565b86866040516109189291906124f9565b60405180910390208c6001600160a01b03167fda4ed638a7ffe9e814722efdb9ad6058c152c19c8564ceffe52e11dda1ca32238d8d8d8d8b8b8b8b8b60405161096999989796959493929190612626565b60405180910390a36109866001600160a01b0384163330856115ed565b505050505050505050505050565b85856040516109a49291906124f9565b60405180910390208b6001600160a01b03167f8c092067e86e85e8cfbaf187202ef580cdfd7ec37fbec89191607de73ca800058c8c8c8c8a8a8a348b6040516109f5999897969594939291906126af565b60405180910390a35050505050505050505050565b604080516001600160a01b03808616825260208201859052831691810191909152849086907ff0b09bf969e7958967e0968e22596f647dd6efa09f4778e0393967b881f4b09f906060015b60405180910390a3610a726001600160a01b0384163330856115ed565b5050505050565b336001600160a01b037f00000000000000000000000000000000000000000000000000000000000000001614610ac157604051623bb10360e91b815260040160405180910390fd5b610a728585858585611625565b604080513481526001600160a01b0383166020820152839185917fb26db521e067acd5c6e345ad92fa1ed06bc7fb2aedd68f35dc7a2e10d636fc9891015b60405180910390a3505050565b33610b30600080516020612ab08339815191525490565b6001600160a01b031614610b57576040516330cd747160e01b815260040160405180910390fd5b6001600160a01b038116610b7e57604051633649397d60e21b815260040160405180910390fd5b6040516001600160a01b038216907fd9be0e8e07417e00f2521db636cb53e316fd288f5051f16d2aa2bf0c3938a87690600090a2600080516020612ad083398151915255565b6000610bdc600080516020612ad08339815191525490565b90506001600160a01b0381163314610c07576040516349e27cff60e01b815260040160405180910390fd5b610c10816116d5565b50565b336001600160a01b037f00000000000000000000000000000000000000000000000000000000000000001614610c5b57604051623bb10360e91b815260040160405180910390fd5b610c69600080858585611625565b505050565b6040805160c081018252600080825260208201819052818301819052606082018190526080820181905260a08201529051600080516020612a9083398151915290610cbc90859085906124f9565b90815260408051918290036020908101832060c08401835280546001600160401b038082168652600160401b820416928501929092526001600160801b03600160801b92839004811693850193909352600181015480841660608601529190910482166080840152600201541660a082015290505b92915050565b307f00000000000000000000000000000000000000000000000000000000000000006001600160a01b031603610d8057604051635f886e9d60e11b815260040160405180910390fd5b5050565b33610d9b600080516020612ab08339815191525490565b6001600160a01b031614610dc2576040516330cd747160e01b815260040160405180910390fd5b7f360894a13ba1a3210667c828492db98dca3e2076cc3735a920a3ca505d382bbc546001600160a01b0316638291286c6040518163ffffffff1660e01b8152600401602060405180830381865afa158015610e21573d6000803e3d6000fd5b505050506040513d601f19601f82011682018060405250810190610e459190612593565b846001600160a01b0316638291286c6040518163ffffffff1660e01b8152600401602060405180830381865afa158015610e83573d6000803e3d6000fd5b505050506040513d601f19601f82011682018060405250810190610ea79190612593565b14610ec55760405163340aafcd60e11b815260040160405180910390fd5b836001600160a01b03163f8314610eef576040516323e13ec960e21b815260040160405180910390fd5b7f360894a13ba1a3210667c828492db98dca3e2076cc3735a920a3ca505d382bbc8490556040516001600160a01b038516907fbc7cd75a20ee27fd9adebab32041f755214dbc6bffa90cc0225b39da2e5c2d3b90600090a28015611014576000846001600160a01b0316639ded06df60e01b8484604051602401610f74929190612716565b60408051601f198184030181529181526020820180516001600160e01b03166001600160e01b0319909416939093179092529051610fb29190612732565b600060405180830381855af49150503d8060008114610fed576040519150601f19603f3d011682016040523d82523d6000602084013e610ff2565b606091505b5050905080610a72576040516397905dfb60e01b815260040160405180910390fd5b50505050565b604080516001600160a01b03808616825260208201859052831691810191909152849086907f2275e75614080f9782f72563c2c1688c901c5339c7f9f436d323f9386fed700a90606001610a55565b84846040516110799291906124f9565b60405180910390208a6001600160a01b03167fd171a7eb157e548ca493dd0a16016d125963a369ac5ae3c275ec12c96d5277028b8b8b8b8989896040516110c6979695949392919061274e565b60405180910390a36110e36001600160a01b0384163330856115ed565b50505050505050505050565b85856040516110ff9291906124f9565b60405180910390208b6001600160a01b03167f999d431b58761213cf53af96262b67a069cbd963499fd8effd1e21556217b8418c8c8c8c8a8a8a348b6040516109f5999897969594939291906126af565b604080513481526001600160a01b0383166020820152839185917ffeb6b00343feee0f29a1a4345f8bf93ca1c73ee922248a4237a4e50d6447604e9101610b0c565b336001600160a01b037f000000000000000000000000000000000000000000000000000000000000000016146111da57604051623bb10360e91b815260040160405180910390fd5b828181146111fb5760405163a5f1efe360e01b815260040160405180910390fd5b60005b818110156112625736600087878481811061121b5761121b61257d565b905060200281019061122d91906127a2565b91509150368686858181106112445761124461257d565b905060c002019050611257838383611754565b5050506001016111fe565b505050505050565b868660405161127a9291906124f9565b60405180910390208c6001600160a01b03167f8875f9764f28fa82d3e7ff1b80bd5c8f665e1f42fcd8c2faebc7c400a4ba1bbd8d8d8d8d8b8b8b8b8b60405161096999989796959493929190612626565b80156112ea57604051635435b28960e11b815260040160405180910390fd5b83156113365760006113038c8c8c8c8c8c8c8a8a610808565b905034811115611334576040516316c7f97f60e21b8152600481018290523460248201526044015b60405180910390fd5b505b86866040516113469291906124f9565b60405180910390208c6001600160a01b03167f617332c1832058df6ee45fcbdf471251474c9945a8e5d229287a21a5f67ccf0a8d8d8d8d348a60405161139196959493929190612532565b60405180910390a3505050505050505050505050565b336113be600080516020612ab08339815191525490565b6001600160a01b031614610c07576040516330cd747160e01b815260040160405180910390fd5b82826040516113f59291906124f9565b6040518091039020886001600160a01b03167f5cf48f121a0fecaa2c4a64b3eaf482c8c308d5387e161535970f3e9e4363eff689898989348860405161063096959493929190612532565b84846040516114509291906124f9565b60405180910390208a6001600160a01b03167f99206760f0be19dd093729bd35e5924daff5e217bcedc5223ed067b60008cf8a8b8b8b8b8989896040516110c6979695949392919061274e565b600080600080600085875af1905080610c6957604051633d2cec6f60e21b815260040160405180910390fd5b6040516001600160a01b038316602482015260448101829052610c6990849063a9059cbb60e01b906064015b60408051601f198184030181529190526020810180516001600160e01b03166001600160e01b0319909316929092179091526117c8565b60006001866004811115611542576115426125ac565b0361155a5761155385858585611886565b90506115e4565b600286600481111561156e5761156e6125ac565b0361157f5761155385858585611942565b6003866004811115611593576115936125ac565b036115a457611553858585856119b2565b60048660048111156115b8576115b86125ac565b036115c95761155385858585611a4e565b856040516310fcd31f60e01b815260040161132b91906127e8565b95945050505050565b6040516001600160a01b03808516602483015283166044820152606481018290526110149085906323b872dd60e01b906084016114f5565b6001600160a01b03831661164c5760405163e6c4247b60e01b815260040160405180910390fd5b604080516001600160a01b03808616825284166020820152908101829052849086907fd5df103822011013c8c940930e5180419111c65abadd6525ca7e740d56b4703f9060600160405180910390a36001600160a01b0382166116c1576116bc6001600160a01b0384168261149d565b610a72565b610a726001600160a01b03831684836114c9565b6001600160a01b0381166116fc57604051633649397d60e21b815260040160405180910390fd5b6040516001600160a01b038216907f04dba622d284ed0014ee4b9a6a68386be1a4c08a4913ae272de89199cc68616390600090a2600080516020612ab0833981519152556000600080516020612ad083398151915255565b7f11415423beab67062fb0f3f22cb2a478e3b5a02a845dd62ddb7c12d11098ff1b8383836040516117879392919061283a565b60405180910390a180600080516020612a908339815191526040516117af90869086906124f9565b908152604051908190036020019020610a7282826128f7565b600080836001600160a01b0316836040516117e39190612732565b6000604051808303816000865af19150503d8060008114611820576040519150601f19603f3d011682016040523d82523d6000602084013e611825565b606091505b509150915060008280156118515750815115806118515750818060200190518101906118519190612a0a565b905080158061186857506001600160a01b0385163b155b15610a725760405163022e258160e11b815260040160405180910390fd5b6000620f4240620dbba08261189b8888611a79565b60018601549091506000906118c090600160801b90046001600160801b0316846125d8565b600187015488546001600160801b03909116906118ee90600160401b90046001600160401b03166010612a27565b6001600160401b03166119019190612a4a565b6001600160801b031661191491906125ef565b90506119218460106125d8565b61192b83836125d8565b6119359190612a6d565b9998505050505050505050565b600060bc620f424082826119568989611a79565b61196091906125ef565b865460018701549192508391600160401b9091046001600160401b0316906119929084906001600160801b03166125d8565b61199c91906125d8565b6119a69190612a6d565b98975050505050505050565b60006127106010826119c482806125d8565b905060646000886119d861018460446125ef565b6119e291906125ef565b9050600060026119f283876125d8565b6119fc9190612a6d565b905085611a0984826125ef565b611a1386846125ef565b60018b0154611a2b91906001600160801b03166125d8565b611a3591906125d8565b611a3f9190612a6d565b9b9a5050505050505050505050565b60006109c4633b9aca008282611a648989611a79565b611a6e91906125ef565b6119609060406125ef565b6000611a87604460106125d8565b9050611a9661018460086125d8565b611aa090826125ef565b90508160005b81811015611aff57848482818110611ac057611ac061257d565b909101356001600160f81b0319166000039050611ae957611ae26004846125ef565b9250611af7565b611af46010846125ef565b92505b600101611aa6565b505092915050565b6001600160a01b0381168114610c1057600080fd5b8035611b2781611b07565b919050565b60008083601f840112611b3e57600080fd5b5081356001600160401b03811115611b5557600080fd5b602083019150836020828501011115611b6d57600080fd5b9250929050565b60008060008060008060008060a0898b031215611b9057600080fd5b8835611b9b81611b07565b975060208901356001600160401b0380821115611bb757600080fd5b611bc38c838d01611b2c565b909950975060408b0135915080821115611bdc57600080fd5b611be88c838d01611b2c565b909750955060608b0135915080821115611c0157600080fd5b50611c0e8b828c01611b2c565b9094509250506080890135611c2281611b07565b809150509295985092959890939650565b60008083601f840112611c4557600080fd5b5081356001600160401b03811115611c5c57600080fd5b6020830191508360208260051b8501011115611b6d57600080fd5b600080600080600060608688031215611c8f57600080fd5b8535611c9a81611b07565b945060208601356001600160401b0380821115611cb657600080fd5b611cc289838a01611c33565b90965094506040880135915080821115611cdb57600080fd5b50611ce888828901611c33565b969995985093965092949392505050565b600080600080600080600080600060a08a8c031215611d1757600080fd5b89356001600160401b0380821115611d2e57600080fd5b611d3a8d838e01611b2c565b909b50995060208c0135915080821115611d5357600080fd5b611d5f8d838e01611b2c565b909950975060408c0135915080821115611d7857600080fd5b611d848d838e01611b2c565b909750955060608c0135945060808c0135915080821115611da457600080fd5b50611db18c828d01611b2c565b915080935050809150509295985092959850929598565b634e487b7160e01b600052604160045260246000fd5b600082601f830112611def57600080fd5b81356001600160401b0380821115611e0957611e09611dc8565b604051601f8301601f19908116603f01168101908282118183101715611e3157611e31611dc8565b81604052838152866020858801011115611e4a57600080fd5b836020870160208301376000602085830101528094505050505092915050565b6000806000806000806000806000806000806101208d8f031215611e8d57600080fd5b611e968d611b1c565b9b506001600160401b0360208e01351115611eb057600080fd5b611ec08e60208f01358f01611b2c565b909b5099506001600160401b0360408e01351115611edd57600080fd5b611eed8e60408f01358f01611b2c565b90995097506001600160401b0360608e01351115611f0a57600080fd5b611f1a8e60608f01358f01611b2c565b90975095506001600160401b0360808e01351115611f3757600080fd5b611f478e60808f01358f01611dde565b945060a08d01359350611f5c60c08e01611b1c565b925060e08d01359150611f726101008e01611b1c565b90509295989b509295989b509295989b565b600080600080600080600080600080600060e08c8e031215611fa557600080fd5b611fae8c611b1c565b9a506001600160401b038060208e01351115611fc957600080fd5b611fd98e60208f01358f01611b2c565b909b50995060408d0135811015611fef57600080fd5b611fff8e60408f01358f01611b2c565b909950975060608d013581101561201557600080fd5b6120258e60608f01358f01611b2c565b909750955060808d013581101561203b57600080fd5b5061204c8d60808e01358e01611b2c565b909450925060a08c0135915061206460c08d01611b1c565b90509295989b509295989b9093969950565b600080600080600060a0868803121561208e57600080fd5b853594506020860135935060408601356120a781611b07565b92506060860135915060808601356120be81611b07565b809150509295509295909350565b600080600080600060a086880312156120e457600080fd5b853594506020860135935060408601356120fd81611b07565b9250606086013561210d81611b07565b949793965091946080013592915050565b60008060006060848603121561213357600080fd5b8335925060208401359150604084013561214c81611b07565b809150509250925092565b60006020828403121561216957600080fd5b813561217481611b07565b9392505050565b60008060006060848603121561219057600080fd5b833561219b81611b07565b925060208401356121ab81611b07565b929592945050506040919091013590565b600080602083850312156121cf57600080fd5b82356001600160401b038111156121e557600080fd5b6121f185828601611b2c565b90969095509350505050565b6000806000806060858703121561221357600080fd5b843561221e81611b07565b93506020850135925060408501356001600160401b0381111561224057600080fd5b61224c87828801611b2c565b95989497509550505050565b60008060008060008060008060008060e08b8d03121561227757600080fd5b8a3561228281611b07565b995060208b01356001600160401b038082111561229e57600080fd5b6122aa8e838f01611b2c565b909b50995060408d01359150808211156122c357600080fd5b6122cf8e838f01611b2c565b909950975060608d01359150808211156122e857600080fd5b506122f58d828e01611b2c565b90965094505060808b013561230981611b07565b925060a08b0135915061231e60c08c01611b1c565b90509295989b9194979a5092959850565b6000806000806040858703121561234557600080fd5b84356001600160401b038082111561235c57600080fd5b61236888838901611c33565b9096509450602087013591508082111561238157600080fd5b818701915087601f83011261239557600080fd5b8135818111156123a457600080fd5b88602060c0830285010111156123b957600080fd5b95989497505060200194505050565b8015158114610c1057600080fd5b8035611b27816123c8565b6000806000806000806000806000806000806101008d8f03121561240457600080fd5b61240d8d611b1c565b9b506001600160401b0360208e0135111561242757600080fd5b6124378e60208f01358f01611b2c565b909b5099506001600160401b0360408e0135111561245457600080fd5b6124648e60408f01358f01611b2c565b90995097506001600160401b0360608e0135111561248157600080fd5b6124918e60608f01358f01611b2c565b909750955060808d013594506124a960a08e016123d6565b93506124b760c08e01611b1c565b92506001600160401b0360e08e013511156124d157600080fd5b6124e18e60e08f01358f01611b2c565b81935080925050509295989b509295989b509295989b565b8183823760009101908152919050565b81835281816020850137506000828201602090810191909152601f909101601f19169091010190565b60808152600061254660808301888a612509565b8281036020840152612559818789612509565b604084019590955250506001600160a01b0391909116606090910152949350505050565b634e487b7160e01b600052603260045260246000fd5b6000602082840312156125a557600080fd5b5051919050565b634e487b7160e01b600052602160045260246000fd5b634e487b7160e01b600052601160045260246000fd5b8082028115828204841417610d3157610d316125c2565b80820180821115610d3157610d316125c2565b60005b8381101561261d578181015183820152602001612605565b50506000910152565b60e08152600061263a60e083018b8d612509565b828103602084015261264d818a8c612509565b90508281036040840152875180825261266d816020840160208c01612602565b60608401979097526001600160a01b03958616608084015260a083019490945250921660c0909201919091526020601f909201601f1916010195945050505050565b60c0815260006126c360c083018b8d612509565b82810360208401526126d6818a8c612509565b905082810360408401526126eb81888a612509565b6060840196909652505060808101929092526001600160a01b031660a0909101529695505050505050565b60208152600061272a602083018486612509565b949350505050565b60008251612744818460208701612602565b9190910192915050565b60a08152600061276260a08301898b612509565b828103602084015261277581888a612509565b6001600160a01b039687166040850152606084019590955250509216608090920191909152949350505050565b6000808335601e198436030181126127b957600080fd5b8301803591506001600160401b038211156127d357600080fd5b602001915036819003821315611b6d57600080fd5b602081016005831061280a57634e487b7160e01b600052602160045260246000fd5b91905290565b6001600160401b0381168114610c1057600080fd5b6001600160801b0381168114610c1057600080fd5b60e08152600061284e60e083018587612509565b9050823561285b81612810565b6001600160401b0380821660208501526020850135915061287b82612810565b1660408381019190915283013561289181612825565b6001600160801b038082166060850152606085013591506128b182612825565b8082166080850152608085013591506128c982612825565b1660a0838101919091528301356128df81612825565b6001600160801b03811660c084015250949350505050565b813561290281612810565b6001600160401b03811690508154816001600160401b03198216178355602084013561292d81612810565b6001600160801b031991909116909117604091821b6fffffffffffffffff00000000000000001617825582013561296381612825565b81546001600160801b0316608082901b6001600160801b0319161782555060018101606083013561299381612825565b81546001600160801b0319166001600160801b0382161782555060808301356129bb81612825565b81546001600160801b0316608082901b6001600160801b031916178255505060a08201356129e881612825565b6002820180546001600160801b0319166001600160801b038316179055505050565b600060208284031215612a1c57600080fd5b8151612174816123c8565b6001600160401b03818116838216028082169190828114611aff57611aff6125c2565b6001600160801b03818116838216028082169190828114611aff57611aff6125c2565b600082612a8a57634e487b7160e01b600052601260045260246000fd5b50049056fe2fa150da4c9f4c3a28593398c65313dd42f63d0530ec6db4a2b46e6d837a390202016836a56b71f0d02689e69e326f4f4c1b9057164ef592671cf0d37c8040c09855384122b55936fbfb8ca5120e63c6537a1ac40caf6ae33502b3c5da8c87d1a26469706673582212208f74f081dfb5e1234c6b7d0615fc140fd6e6d6b9a72d9317f9fc6a2f73c65e1a64736f6c63430008180033",
  "linkReferences": {},
  "deployedLinkReferences": {}
}